{
	"contract/EventOrganizingContract.sol": {
		"EventOrganize": {
			"abi": [
				{
					"inputs": [],
					"name": "ID",
					"outputs": [
						{
							"internalType": "uint256",
							"name": "",
							"type": "uint256"
						}
					],
					"stateMutability": "view",
					"type": "function"
				},
				{
					"inputs": [
						{
							"internalType": "uint256",
							"name": "_quantity",
							"type": "uint256"
						},
						{
							"internalType": "uint256",
							"name": "_ID",
							"type": "uint256"
						}
					],
					"name": "buyTicket",
					"outputs": [
						{
							"internalType": "uint256",
							"name": "",
							"type": "uint256"
						}
					],
					"stateMutability": "payable",
					"type": "function"
				},
				{
					"inputs": [
						{
							"internalType": "uint256",
							"name": "_ID",
							"type": "uint256"
						}
					],
					"name": "cancelEvent",
					"outputs": [],
					"stateMutability": "nonpayable",
					"type": "function"
				},
				{
					"inputs": [
						{
							"internalType": "uint256",
							"name": "_date",
							"type": "uint256"
						},
						{
							"internalType": "string",
							"name": "_name",
							"type": "string"
						},
						{
							"internalType": "uint256",
							"name": "_price",
							"type": "uint256"
						},
						{
							"internalType": "uint256",
							"name": "_ticketCount",
							"type": "uint256"
						}
					],
					"name": "createEvent",
					"outputs": [],
					"stateMutability": "nonpayable",
					"type": "function"
				},
				{
					"inputs": [
						{
							"internalType": "uint256",
							"name": "",
							"type": "uint256"
						}
					],
					"name": "events",
					"outputs": [
						{
							"internalType": "address",
							"name": "organizer",
							"type": "address"
						},
						{
							"internalType": "uint256",
							"name": "date",
							"type": "uint256"
						},
						{
							"internalType": "string",
							"name": "name",
							"type": "string"
						},
						{
							"internalType": "uint256",
							"name": "price",
							"type": "uint256"
						},
						{
							"internalType": "uint256",
							"name": "ticketCount",
							"type": "uint256"
						},
						{
							"internalType": "uint256",
							"name": "ticketRemain",
							"type": "uint256"
						}
					],
					"stateMutability": "view",
					"type": "function"
				},
				{
					"inputs": [
						{
							"internalType": "address",
							"name": "",
							"type": "address"
						},
						{
							"internalType": "uint256",
							"name": "",
							"type": "uint256"
						}
					],
					"name": "tickets",
					"outputs": [
						{
							"internalType": "uint256",
							"name": "",
							"type": "uint256"
						}
					],
					"stateMutability": "view",
					"type": "function"
				},
				{
					"inputs": [
						{
							"internalType": "uint256",
							"name": "_quantity",
							"type": "uint256"
						},
						{
							"internalType": "uint256",
							"name": "_ID",
							"type": "uint256"
						},
						{
							"internalType": "address",
							"name": "_to",
							"type": "address"
						}
					],
					"name": "transferTicket",
					"outputs": [],
					"stateMutability": "nonpayable",
					"type": "function"
				}
			],
			"devdoc": {
				"kind": "dev",
				"methods": {},
				"version": 1
			},
			"evm": {
				"assembly": "    /* \"contract/EventOrganizingContract.sol\":62:2045  contract EventOrganize {\r... */\n  mstore(0x40, 0x80)\n  callvalue\n  dup1\n  iszero\n  tag_1\n  jumpi\n  0x00\n  dup1\n  revert\ntag_1:\n  pop\n  dataSize(sub_0)\n  dup1\n  dataOffset(sub_0)\n  0x00\n  codecopy\n  0x00\n  return\nstop\n\nsub_0: assembly {\n        /* \"contract/EventOrganizingContract.sol\":62:2045  contract EventOrganize {\r... */\n      mstore(0x40, 0x80)\n      jumpi(tag_1, lt(calldatasize, 0x04))\n      shr(0xe0, calldataload(0x00))\n      dup1\n      0xb3cea217\n      gt\n      tag_9\n      jumpi\n      dup1\n      0xb3cea217\n      eq\n      tag_5\n      jumpi\n      dup1\n      0xdae7a13c\n      eq\n      tag_6\n      jumpi\n      dup1\n      0xf086a09b\n      eq\n      tag_7\n      jumpi\n      dup1\n      0xf93694fb\n      eq\n      tag_8\n      jumpi\n      jump(tag_1)\n    tag_9:\n      dup1\n      0x0b791430\n      eq\n      tag_2\n      jumpi\n      dup1\n      0x298ec208\n      eq\n      tag_3\n      jumpi\n      dup1\n      0x3f69babd\n      eq\n      tag_4\n      jumpi\n    tag_1:\n      0x00\n      dup1\n      revert\n        /* \"contract/EventOrganizingContract.sol\":269:306  mapping (uint => Event) public events */\n    tag_2:\n      callvalue\n      dup1\n      iszero\n      tag_10\n      jumpi\n      0x00\n      dup1\n      revert\n    tag_10:\n      pop\n      tag_11\n      0x04\n      dup1\n      calldatasize\n      sub\n      dup2\n      add\n      swap1\n      tag_12\n      swap2\n      swap1\n      tag_13\n      jump\t// in\n    tag_12:\n      tag_14\n      jump\t// in\n    tag_11:\n      mload(0x40)\n      tag_15\n      swap7\n      swap6\n      swap5\n      swap4\n      swap3\n      swap2\n      swap1\n      tag_16\n      jump\t// in\n    tag_15:\n      mload(0x40)\n      dup1\n      swap2\n      sub\n      swap1\n      return\n        /* \"contract/EventOrganizingContract.sol\":774:1328  function buyTicket(uint _quantity, uint _ID) payable external returns(uint){\r... */\n    tag_3:\n      tag_17\n      0x04\n      dup1\n      calldatasize\n      sub\n      dup2\n      add\n      swap1\n      tag_18\n      swap2\n      swap1\n      tag_19\n      jump\t// in\n    tag_18:\n      tag_20\n      jump\t// in\n    tag_17:\n      mload(0x40)\n      tag_21\n      swap2\n      swap1\n      tag_22\n      jump\t// in\n    tag_21:\n      mload(0x40)\n      dup1\n      swap2\n      sub\n      swap1\n      return\n        /* \"contract/EventOrganizingContract.sol\":1795:2040  function cancelEvent(uint _ID) external{\r... */\n    tag_4:\n      callvalue\n      dup1\n      iszero\n      tag_23\n      jumpi\n      0x00\n      dup1\n      revert\n    tag_23:\n      pop\n      tag_24\n      0x04\n      dup1\n      calldatasize\n      sub\n      dup2\n      add\n      swap1\n      tag_25\n      swap2\n      swap1\n      tag_13\n      jump\t// in\n    tag_25:\n      tag_26\n      jump\t// in\n    tag_24:\n      stop\n        /* \"contract/EventOrganizingContract.sol\":377:391  uint public ID */\n    tag_5:\n      callvalue\n      dup1\n      iszero\n      tag_27\n      jumpi\n      0x00\n      dup1\n      revert\n    tag_27:\n      pop\n      tag_28\n      tag_29\n      jump\t// in\n    tag_28:\n      mload(0x40)\n      tag_30\n      swap2\n      swap1\n      tag_22\n      jump\t// in\n    tag_30:\n      mload(0x40)\n      dup1\n      swap2\n      sub\n      swap1\n      return\n        /* \"contract/EventOrganizingContract.sol\":313:370  mapping (address => mapping(uint => uint)) public tickets */\n    tag_6:\n      callvalue\n      dup1\n      iszero\n      tag_31\n      jumpi\n      0x00\n      dup1\n      revert\n    tag_31:\n      pop\n      tag_32\n      0x04\n      dup1\n      calldatasize\n      sub\n      dup2\n      add\n      swap1\n      tag_33\n      swap2\n      swap1\n      tag_34\n      jump\t// in\n    tag_33:\n      tag_35\n      jump\t// in\n    tag_32:\n      mload(0x40)\n      tag_36\n      swap2\n      swap1\n      tag_22\n      jump\t// in\n    tag_36:\n      mload(0x40)\n      dup1\n      swap2\n      sub\n      swap1\n      return\n        /* \"contract/EventOrganizingContract.sol\":1336:1787  function transferTicket(uint _quantity, uint _ID, address _to) external{\r... */\n    tag_7:\n      callvalue\n      dup1\n      iszero\n      tag_37\n      jumpi\n      0x00\n      dup1\n      revert\n    tag_37:\n      pop\n      tag_38\n      0x04\n      dup1\n      calldatasize\n      sub\n      dup2\n      add\n      swap1\n      tag_39\n      swap2\n      swap1\n      tag_40\n      jump\t// in\n    tag_39:\n      tag_41\n      jump\t// in\n    tag_38:\n      stop\n        /* \"contract/EventOrganizingContract.sol\":404:766  function createEvent(uint _date, string memory _name, uint _price, uint _ticketCount) external{\r... */\n    tag_8:\n      callvalue\n      dup1\n      iszero\n      tag_42\n      jumpi\n      0x00\n      dup1\n      revert\n    tag_42:\n      pop\n      tag_43\n      0x04\n      dup1\n      calldatasize\n      sub\n      dup2\n      add\n      swap1\n      tag_44\n      swap2\n      swap1\n      tag_45\n      jump\t// in\n    tag_44:\n      tag_46\n      jump\t// in\n    tag_43:\n      stop\n        /* \"contract/EventOrganizingContract.sol\":269:306  mapping (uint => Event) public events */\n    tag_14:\n      mstore(0x20, 0x00)\n      dup1\n      0x00\n      mstore\n      keccak256(0x00, 0x40)\n      0x00\n      swap2\n      pop\n      swap1\n      pop\n      dup1\n      0x00\n      add\n      0x00\n      swap1\n      sload\n      swap1\n      0x0100\n      exp\n      swap1\n      div\n      0xffffffffffffffffffffffffffffffffffffffff\n      and\n      swap1\n      dup1\n      0x01\n      add\n      sload\n      swap1\n      dup1\n      0x02\n      add\n      dup1\n      sload\n      tag_47\n      swap1\n      tag_48\n      jump\t// in\n    tag_47:\n      dup1\n      0x1f\n      add\n      0x20\n      dup1\n      swap2\n      div\n      mul\n      0x20\n      add\n      mload(0x40)\n      swap1\n      dup2\n      add\n      0x40\n      mstore\n      dup1\n      swap3\n      swap2\n      swap1\n      dup2\n      dup2\n      mstore\n      0x20\n      add\n      dup3\n      dup1\n      sload\n      tag_49\n      swap1\n      tag_48\n      jump\t// in\n    tag_49:\n      dup1\n      iszero\n      tag_50\n      jumpi\n      dup1\n      0x1f\n      lt\n      tag_51\n      jumpi\n      0x0100\n      dup1\n      dup4\n      sload\n      div\n      mul\n      dup4\n      mstore\n      swap2\n      0x20\n      add\n      swap2\n      jump(tag_50)\n    tag_51:\n      dup3\n      add\n      swap2\n      swap1\n      0x00\n      mstore\n      keccak256(0x00, 0x20)\n      swap1\n    tag_52:\n      dup2\n      sload\n      dup2\n      mstore\n      swap1\n      0x01\n      add\n      swap1\n      0x20\n      add\n      dup1\n      dup4\n      gt\n      tag_52\n      jumpi\n      dup3\n      swap1\n      sub\n      0x1f\n      and\n      dup3\n      add\n      swap2\n    tag_50:\n      pop\n      pop\n      pop\n      pop\n      pop\n      swap1\n      dup1\n      0x03\n      add\n      sload\n      swap1\n      dup1\n      0x04\n      add\n      sload\n      swap1\n      dup1\n      0x05\n      add\n      sload\n      swap1\n      pop\n      dup7\n      jump\t// out\n        /* \"contract/EventOrganizingContract.sol\":774:1328  function buyTicket(uint _quantity, uint _ID) payable external returns(uint){\r... */\n    tag_20:\n        /* \"contract/EventOrganizingContract.sol\":844:848  uint */\n      0x00\n        /* \"contract/EventOrganizingContract.sol\":860:880  Event storage _event */\n      dup1\n        /* \"contract/EventOrganizingContract.sol\":883:889  events */\n      0x00\n        /* \"contract/EventOrganizingContract.sol\":883:894  events[_ID] */\n      dup1\n        /* \"contract/EventOrganizingContract.sol\":890:893  _ID */\n      dup5\n        /* \"contract/EventOrganizingContract.sol\":883:894  events[_ID] */\n      dup2\n      mstore\n      0x20\n      add\n      swap1\n      dup2\n      mstore\n      0x20\n      add\n      0x00\n      keccak256\n        /* \"contract/EventOrganizingContract.sol\":860:894  Event storage _event = events[_ID] */\n      swap1\n      pop\n        /* \"contract/EventOrganizingContract.sol\":928:929  0 */\n      0x00\n        /* \"contract/EventOrganizingContract.sol\":913:919  _event */\n      dup2\n        /* \"contract/EventOrganizingContract.sol\":913:924  _event.date */\n      0x01\n      add\n      sload\n        /* \"contract/EventOrganizingContract.sol\":913:929  _event.date != 0 */\n      eq\n      iszero\n        /* \"contract/EventOrganizingContract.sol\":905:955  require(_event.date != 0, \"Event does not exist!\") */\n      tag_54\n      jumpi\n      mload(0x40)\n      0x08c379a000000000000000000000000000000000000000000000000000000000\n      dup2\n      mstore\n      0x04\n      add\n      tag_55\n      swap1\n      tag_56\n      jump\t// in\n    tag_55:\n      mload(0x40)\n      dup1\n      swap2\n      sub\n      swap1\n      revert\n    tag_54:\n        /* \"contract/EventOrganizingContract.sol\":988:1003  block.timestamp */\n      timestamp\n        /* \"contract/EventOrganizingContract.sol\":974:980  _event */\n      dup2\n        /* \"contract/EventOrganizingContract.sol\":974:985  _event.date */\n      0x01\n      add\n      sload\n        /* \"contract/EventOrganizingContract.sol\":974:1003  _event.date > block.timestamp */\n      gt\n        /* \"contract/EventOrganizingContract.sol\":966:1031  require(_event.date > block.timestamp, \"Event booking is close!\") */\n      tag_57\n      jumpi\n      mload(0x40)\n      0x08c379a000000000000000000000000000000000000000000000000000000000\n      dup2\n      mstore\n      0x04\n      add\n      tag_58\n      swap1\n      tag_59\n      jump\t// in\n    tag_58:\n      mload(0x40)\n      dup1\n      swap2\n      sub\n      swap1\n      revert\n    tag_57:\n        /* \"contract/EventOrganizingContract.sol\":1080:1089  msg.value */\n      callvalue\n        /* \"contract/EventOrganizingContract.sol\":1066:1075  _quantity */\n      dup5\n        /* \"contract/EventOrganizingContract.sol\":1051:1057  _event */\n      dup3\n        /* \"contract/EventOrganizingContract.sol\":1051:1063  _event.price */\n      0x03\n      add\n      sload\n        /* \"contract/EventOrganizingContract.sol\":1051:1075  _event.price * _quantity */\n      tag_60\n      swap2\n      swap1\n      tag_61\n      jump\t// in\n    tag_60:\n        /* \"contract/EventOrganizingContract.sol\":1050:1089  (_event.price * _quantity) == msg.value */\n      eq\n        /* \"contract/EventOrganizingContract.sol\":1042:1115  require((_event.price * _quantity) == msg.value, \"Ethers is not enough!\") */\n      tag_62\n      jumpi\n      mload(0x40)\n      0x08c379a000000000000000000000000000000000000000000000000000000000\n      dup2\n      mstore\n      0x04\n      add\n      tag_63\n      swap1\n      tag_64\n      jump\t// in\n    tag_63:\n      mload(0x40)\n      dup1\n      swap2\n      sub\n      swap1\n      revert\n    tag_62:\n        /* \"contract/EventOrganizingContract.sol\":1157:1166  _quantity */\n      dup4\n        /* \"contract/EventOrganizingContract.sol\":1134:1140  _event */\n      dup2\n        /* \"contract/EventOrganizingContract.sol\":1134:1153  _event.ticketRemain */\n      0x05\n      add\n      sload\n        /* \"contract/EventOrganizingContract.sol\":1134:1166  _event.ticketRemain >= _quantity */\n      lt\n      iszero\n        /* \"contract/EventOrganizingContract.sol\":1126:1200  require(_event.ticketRemain >= _quantity, \"We don't have enough tickets!\") */\n      tag_65\n      jumpi\n      mload(0x40)\n      0x08c379a000000000000000000000000000000000000000000000000000000000\n      dup2\n      mstore\n      0x04\n      add\n      tag_66\n      swap1\n      tag_67\n      jump\t// in\n    tag_66:\n      mload(0x40)\n      dup1\n      swap2\n      sub\n      swap1\n      revert\n    tag_65:\n        /* \"contract/EventOrganizingContract.sol\":1234:1243  _quantity */\n      dup4\n        /* \"contract/EventOrganizingContract.sol\":1211:1217  _event */\n      dup2\n        /* \"contract/EventOrganizingContract.sol\":1211:1230  _event.ticketRemain */\n      0x05\n      add\n      0x00\n        /* \"contract/EventOrganizingContract.sol\":1211:1243  _event.ticketRemain -= _quantity */\n      dup3\n      dup3\n      sload\n      tag_68\n      swap2\n      swap1\n      tag_69\n      jump\t// in\n    tag_68:\n      swap3\n      pop\n      pop\n      dup2\n      swap1\n      sstore\n      pop\n        /* \"contract/EventOrganizingContract.sol\":1282:1291  _quantity */\n      dup4\n        /* \"contract/EventOrganizingContract.sol\":1254:1261  tickets */\n      0x01\n        /* \"contract/EventOrganizingContract.sol\":1254:1273  tickets[msg.sender] */\n      0x00\n        /* \"contract/EventOrganizingContract.sol\":1262:1272  msg.sender */\n      caller\n        /* \"contract/EventOrganizingContract.sol\":1254:1273  tickets[msg.sender] */\n      0xffffffffffffffffffffffffffffffffffffffff\n      and\n      0xffffffffffffffffffffffffffffffffffffffff\n      and\n      dup2\n      mstore\n      0x20\n      add\n      swap1\n      dup2\n      mstore\n      0x20\n      add\n      0x00\n      keccak256\n        /* \"contract/EventOrganizingContract.sol\":1254:1278  tickets[msg.sender][_ID] */\n      0x00\n        /* \"contract/EventOrganizingContract.sol\":1274:1277  _ID */\n      dup6\n        /* \"contract/EventOrganizingContract.sol\":1254:1278  tickets[msg.sender][_ID] */\n      dup2\n      mstore\n      0x20\n      add\n      swap1\n      dup2\n      mstore\n      0x20\n      add\n      0x00\n      keccak256\n      0x00\n        /* \"contract/EventOrganizingContract.sol\":1254:1291  tickets[msg.sender][_ID] += _quantity */\n      dup3\n      dup3\n      sload\n      tag_70\n      swap2\n      swap1\n      tag_71\n      jump\t// in\n    tag_70:\n      swap3\n      pop\n      pop\n      dup2\n      swap1\n      sstore\n      pop\n        /* \"contract/EventOrganizingContract.sol\":1309:1315  _event */\n      dup1\n        /* \"contract/EventOrganizingContract.sol\":1309:1320  _event.date */\n      0x01\n      add\n      sload\n        /* \"contract/EventOrganizingContract.sol\":1302:1320  return _event.date */\n      swap2\n      pop\n      pop\n        /* \"contract/EventOrganizingContract.sol\":774:1328  function buyTicket(uint _quantity, uint _ID) payable external returns(uint){\r... */\n      swap3\n      swap2\n      pop\n      pop\n      jump\t// out\n        /* \"contract/EventOrganizingContract.sol\":1795:2040  function cancelEvent(uint _ID) external{\r... */\n    tag_26:\n        /* \"contract/EventOrganizingContract.sol\":1872:1887  block.timestamp */\n      timestamp\n        /* \"contract/EventOrganizingContract.sol\":1853:1859  events */\n      0x00\n        /* \"contract/EventOrganizingContract.sol\":1853:1864  events[_ID] */\n      dup1\n        /* \"contract/EventOrganizingContract.sol\":1860:1863  _ID */\n      dup4\n        /* \"contract/EventOrganizingContract.sol\":1853:1864  events[_ID] */\n      dup2\n      mstore\n      0x20\n      add\n      swap1\n      dup2\n      mstore\n      0x20\n      add\n      0x00\n      keccak256\n        /* \"contract/EventOrganizingContract.sol\":1853:1869  events[_ID].date */\n      0x01\n      add\n      sload\n        /* \"contract/EventOrganizingContract.sol\":1853:1887  events[_ID].date > block.timestamp */\n      gt\n        /* \"contract/EventOrganizingContract.sol\":1845:1913  require(events[_ID].date > block.timestamp, \"Event already occured\") */\n      tag_73\n      jumpi\n      mload(0x40)\n      0x08c379a000000000000000000000000000000000000000000000000000000000\n      dup2\n      mstore\n      0x04\n      add\n      tag_74\n      swap1\n      tag_75\n      jump\t// in\n    tag_74:\n      mload(0x40)\n      dup1\n      swap2\n      sub\n      swap1\n      revert\n    tag_73:\n        /* \"contract/EventOrganizingContract.sol\":1957:1967  msg.sender */\n      caller\n        /* \"contract/EventOrganizingContract.sol\":1932:1967  events[_ID].organizer == msg.sender */\n      0xffffffffffffffffffffffffffffffffffffffff\n      and\n        /* \"contract/EventOrganizingContract.sol\":1932:1938  events */\n      0x00\n        /* \"contract/EventOrganizingContract.sol\":1932:1943  events[_ID] */\n      dup1\n        /* \"contract/EventOrganizingContract.sol\":1939:1942  _ID */\n      dup4\n        /* \"contract/EventOrganizingContract.sol\":1932:1943  events[_ID] */\n      dup2\n      mstore\n      0x20\n      add\n      swap1\n      dup2\n      mstore\n      0x20\n      add\n      0x00\n      keccak256\n        /* \"contract/EventOrganizingContract.sol\":1932:1953  events[_ID].organizer */\n      0x00\n      add\n      0x00\n      swap1\n      sload\n      swap1\n      0x0100\n      exp\n      swap1\n      div\n      0xffffffffffffffffffffffffffffffffffffffff\n      and\n        /* \"contract/EventOrganizingContract.sol\":1932:1967  events[_ID].organizer == msg.sender */\n      0xffffffffffffffffffffffffffffffffffffffff\n      and\n      eq\n        /* \"contract/EventOrganizingContract.sol\":1924:2001  require(events[_ID].organizer == msg.sender, \"You can not cancel this event\") */\n      tag_76\n      jumpi\n      mload(0x40)\n      0x08c379a000000000000000000000000000000000000000000000000000000000\n      dup2\n      mstore\n      0x04\n      add\n      tag_77\n      swap1\n      tag_78\n      jump\t// in\n    tag_77:\n      mload(0x40)\n      dup1\n      swap2\n      sub\n      swap1\n      revert\n    tag_76:\n        /* \"contract/EventOrganizingContract.sol\":2031:2032  0 */\n      0x00\n        /* \"contract/EventOrganizingContract.sol\":2012:2018  events */\n      dup1\n        /* \"contract/EventOrganizingContract.sol\":2012:2023  events[_ID] */\n      0x00\n        /* \"contract/EventOrganizingContract.sol\":2019:2022  _ID */\n      dup4\n        /* \"contract/EventOrganizingContract.sol\":2012:2023  events[_ID] */\n      dup2\n      mstore\n      0x20\n      add\n      swap1\n      dup2\n      mstore\n      0x20\n      add\n      0x00\n      keccak256\n        /* \"contract/EventOrganizingContract.sol\":2012:2028  events[_ID].date */\n      0x01\n      add\n        /* \"contract/EventOrganizingContract.sol\":2012:2032  events[_ID].date = 0 */\n      dup2\n      swap1\n      sstore\n      pop\n        /* \"contract/EventOrganizingContract.sol\":1795:2040  function cancelEvent(uint _ID) external{\r... */\n      pop\n      jump\t// out\n        /* \"contract/EventOrganizingContract.sol\":377:391  uint public ID */\n    tag_29:\n      sload(0x02)\n      dup2\n      jump\t// out\n        /* \"contract/EventOrganizingContract.sol\":313:370  mapping (address => mapping(uint => uint)) public tickets */\n    tag_35:\n      mstore(0x20, 0x01)\n      dup2\n      0x00\n      mstore\n      mstore(0x20, keccak256(0x00, 0x40))\n      dup1\n      0x00\n      mstore\n      keccak256(0x00, 0x40)\n      0x00\n      swap2\n      pop\n      swap2\n      pop\n      pop\n      sload\n      dup2\n      jump\t// out\n        /* \"contract/EventOrganizingContract.sol\":1336:1787  function transferTicket(uint _quantity, uint _ID, address _to) external{\r... */\n    tag_41:\n        /* \"contract/EventOrganizingContract.sol\":1418:1438  Event storage _event */\n      0x00\n        /* \"contract/EventOrganizingContract.sol\":1441:1447  events */\n      dup1\n        /* \"contract/EventOrganizingContract.sol\":1441:1452  events[_ID] */\n      0x00\n        /* \"contract/EventOrganizingContract.sol\":1448:1451  _ID */\n      dup5\n        /* \"contract/EventOrganizingContract.sol\":1441:1452  events[_ID] */\n      dup2\n      mstore\n      0x20\n      add\n      swap1\n      dup2\n      mstore\n      0x20\n      add\n      0x00\n      keccak256\n        /* \"contract/EventOrganizingContract.sol\":1418:1452  Event storage _event = events[_ID] */\n      swap1\n      pop\n        /* \"contract/EventOrganizingContract.sol\":1486:1487  0 */\n      0x00\n        /* \"contract/EventOrganizingContract.sol\":1471:1477  _event */\n      dup2\n        /* \"contract/EventOrganizingContract.sol\":1471:1482  _event.date */\n      0x01\n      add\n      sload\n        /* \"contract/EventOrganizingContract.sol\":1471:1487  _event.date != 0 */\n      eq\n      iszero\n        /* \"contract/EventOrganizingContract.sol\":1463:1513  require(_event.date != 0, \"Event does not exist!\") */\n      tag_80\n      jumpi\n      mload(0x40)\n      0x08c379a000000000000000000000000000000000000000000000000000000000\n      dup2\n      mstore\n      0x04\n      add\n      tag_81\n      swap1\n      tag_56\n      jump\t// in\n    tag_81:\n      mload(0x40)\n      dup1\n      swap2\n      sub\n      swap1\n      revert\n    tag_80:\n        /* \"contract/EventOrganizingContract.sol\":1546:1561  block.timestamp */\n      timestamp\n        /* \"contract/EventOrganizingContract.sol\":1532:1538  _event */\n      dup2\n        /* \"contract/EventOrganizingContract.sol\":1532:1543  _event.date */\n      0x01\n      add\n      sload\n        /* \"contract/EventOrganizingContract.sol\":1532:1561  _event.date > block.timestamp */\n      gt\n        /* \"contract/EventOrganizingContract.sol\":1524:1588  require(_event.date > block.timestamp, \"Event already occured!\") */\n      tag_82\n      jumpi\n      mload(0x40)\n      0x08c379a000000000000000000000000000000000000000000000000000000000\n      dup2\n      mstore\n      0x04\n      add\n      tag_83\n      swap1\n      tag_84\n      jump\t// in\n    tag_83:\n      mload(0x40)\n      dup1\n      swap2\n      sub\n      swap1\n      revert\n    tag_82:\n        /* \"contract/EventOrganizingContract.sol\":1635:1644  _quantity */\n      dup4\n        /* \"contract/EventOrganizingContract.sol\":1607:1614  tickets */\n      0x01\n        /* \"contract/EventOrganizingContract.sol\":1607:1626  tickets[msg.sender] */\n      0x00\n        /* \"contract/EventOrganizingContract.sol\":1615:1625  msg.sender */\n      caller\n        /* \"contract/EventOrganizingContract.sol\":1607:1626  tickets[msg.sender] */\n      0xffffffffffffffffffffffffffffffffffffffff\n      and\n      0xffffffffffffffffffffffffffffffffffffffff\n      and\n      dup2\n      mstore\n      0x20\n      add\n      swap1\n      dup2\n      mstore\n      0x20\n      add\n      0x00\n      keccak256\n        /* \"contract/EventOrganizingContract.sol\":1607:1631  tickets[msg.sender][_ID] */\n      0x00\n        /* \"contract/EventOrganizingContract.sol\":1627:1630  _ID */\n      dup6\n        /* \"contract/EventOrganizingContract.sol\":1607:1631  tickets[msg.sender][_ID] */\n      dup2\n      mstore\n      0x20\n      add\n      swap1\n      dup2\n      mstore\n      0x20\n      add\n      0x00\n      keccak256\n      sload\n        /* \"contract/EventOrganizingContract.sol\":1607:1644  tickets[msg.sender][_ID] >= _quantity */\n      lt\n      iszero\n        /* \"contract/EventOrganizingContract.sol\":1599:1690  require(tickets[msg.sender][_ID] >= _quantity, \"You don't have enough ticket to transfer!\") */\n      tag_85\n      jumpi\n      mload(0x40)\n      0x08c379a000000000000000000000000000000000000000000000000000000000\n      dup2\n      mstore\n      0x04\n      add\n      tag_86\n      swap1\n      tag_87\n      jump\t// in\n    tag_86:\n      mload(0x40)\n      dup1\n      swap2\n      sub\n      swap1\n      revert\n    tag_85:\n        /* \"contract/EventOrganizingContract.sol\":1729:1738  _quantity */\n      dup4\n        /* \"contract/EventOrganizingContract.sol\":1701:1708  tickets */\n      0x01\n        /* \"contract/EventOrganizingContract.sol\":1701:1720  tickets[msg.sender] */\n      0x00\n        /* \"contract/EventOrganizingContract.sol\":1709:1719  msg.sender */\n      caller\n        /* \"contract/EventOrganizingContract.sol\":1701:1720  tickets[msg.sender] */\n      0xffffffffffffffffffffffffffffffffffffffff\n      and\n      0xffffffffffffffffffffffffffffffffffffffff\n      and\n      dup2\n      mstore\n      0x20\n      add\n      swap1\n      dup2\n      mstore\n      0x20\n      add\n      0x00\n      keccak256\n        /* \"contract/EventOrganizingContract.sol\":1701:1725  tickets[msg.sender][_ID] */\n      0x00\n        /* \"contract/EventOrganizingContract.sol\":1721:1724  _ID */\n      dup6\n        /* \"contract/EventOrganizingContract.sol\":1701:1725  tickets[msg.sender][_ID] */\n      dup2\n      mstore\n      0x20\n      add\n      swap1\n      dup2\n      mstore\n      0x20\n      add\n      0x00\n      keccak256\n      0x00\n        /* \"contract/EventOrganizingContract.sol\":1701:1738  tickets[msg.sender][_ID] -= _quantity */\n      dup3\n      dup3\n      sload\n      tag_88\n      swap2\n      swap1\n      tag_69\n      jump\t// in\n    tag_88:\n      swap3\n      pop\n      pop\n      dup2\n      swap1\n      sstore\n      pop\n        /* \"contract/EventOrganizingContract.sol\":1770:1779  _quantity */\n      dup4\n        /* \"contract/EventOrganizingContract.sol\":1749:1756  tickets */\n      0x01\n        /* \"contract/EventOrganizingContract.sol\":1749:1761  tickets[_to] */\n      0x00\n        /* \"contract/EventOrganizingContract.sol\":1757:1760  _to */\n      dup5\n        /* \"contract/EventOrganizingContract.sol\":1749:1761  tickets[_to] */\n      0xffffffffffffffffffffffffffffffffffffffff\n      and\n      0xffffffffffffffffffffffffffffffffffffffff\n      and\n      dup2\n      mstore\n      0x20\n      add\n      swap1\n      dup2\n      mstore\n      0x20\n      add\n      0x00\n      keccak256\n        /* \"contract/EventOrganizingContract.sol\":1749:1766  tickets[_to][_ID] */\n      0x00\n        /* \"contract/EventOrganizingContract.sol\":1762:1765  _ID */\n      dup6\n        /* \"contract/EventOrganizingContract.sol\":1749:1766  tickets[_to][_ID] */\n      dup2\n      mstore\n      0x20\n      add\n      swap1\n      dup2\n      mstore\n      0x20\n      add\n      0x00\n      keccak256\n      0x00\n        /* \"contract/EventOrganizingContract.sol\":1749:1779  tickets[_to][_ID] += _quantity */\n      dup3\n      dup3\n      sload\n      tag_89\n      swap2\n      swap1\n      tag_71\n      jump\t// in\n    tag_89:\n      swap3\n      pop\n      pop\n      dup2\n      swap1\n      sstore\n      pop\n        /* \"contract/EventOrganizingContract.sol\":1407:1787  {\r... */\n      pop\n        /* \"contract/EventOrganizingContract.sol\":1336:1787  function transferTicket(uint _quantity, uint _ID, address _to) external{\r... */\n      pop\n      pop\n      pop\n      jump\t// out\n        /* \"contract/EventOrganizingContract.sol\":404:766  function createEvent(uint _date, string memory _name, uint _price, uint _ticketCount) external{\r... */\n    tag_46:\n        /* \"contract/EventOrganizingContract.sol\":525:540  block.timestamp */\n      timestamp\n        /* \"contract/EventOrganizingContract.sol\":517:522  _date */\n      dup5\n        /* \"contract/EventOrganizingContract.sol\":517:540  _date > block.timestamp */\n      gt\n        /* \"contract/EventOrganizingContract.sol\":509:579  require(_date > block.timestamp, \"You can organize event for future!\") */\n      tag_91\n      jumpi\n      mload(0x40)\n      0x08c379a000000000000000000000000000000000000000000000000000000000\n      dup2\n      mstore\n      0x04\n      add\n      tag_92\n      swap1\n      tag_93\n      jump\t// in\n    tag_92:\n      mload(0x40)\n      dup1\n      swap2\n      sub\n      swap1\n      revert\n    tag_91:\n        /* \"contract/EventOrganizingContract.sol\":613:614  0 */\n      0x00\n        /* \"contract/EventOrganizingContract.sol\":598:610  _ticketCount */\n      dup2\n        /* \"contract/EventOrganizingContract.sol\":598:614  _ticketCount > 0 */\n      gt\n        /* \"contract/EventOrganizingContract.sol\":590:652  require(_ticketCount > 0, \"Event must have atleast 1 ticket!\") */\n      tag_94\n      jumpi\n      mload(0x40)\n      0x08c379a000000000000000000000000000000000000000000000000000000000\n      dup2\n      mstore\n      0x04\n      add\n      tag_95\n      swap1\n      tag_96\n      jump\t// in\n    tag_95:\n      mload(0x40)\n      dup1\n      swap2\n      sub\n      swap1\n      revert\n    tag_94:\n        /* \"contract/EventOrganizingContract.sol\":676:743  Event(msg.sender, _date, _name, _price, _ticketCount, _ticketCount) */\n      mload(0x40)\n      dup1\n      0xc0\n      add\n      0x40\n      mstore\n      dup1\n        /* \"contract/EventOrganizingContract.sol\":682:692  msg.sender */\n      caller\n        /* \"contract/EventOrganizingContract.sol\":676:743  Event(msg.sender, _date, _name, _price, _ticketCount, _ticketCount) */\n      0xffffffffffffffffffffffffffffffffffffffff\n      and\n      dup2\n      mstore\n      0x20\n      add\n        /* \"contract/EventOrganizingContract.sol\":694:699  _date */\n      dup6\n        /* \"contract/EventOrganizingContract.sol\":676:743  Event(msg.sender, _date, _name, _price, _ticketCount, _ticketCount) */\n      dup2\n      mstore\n      0x20\n      add\n        /* \"contract/EventOrganizingContract.sol\":701:706  _name */\n      dup5\n        /* \"contract/EventOrganizingContract.sol\":676:743  Event(msg.sender, _date, _name, _price, _ticketCount, _ticketCount) */\n      dup2\n      mstore\n      0x20\n      add\n        /* \"contract/EventOrganizingContract.sol\":708:714  _price */\n      dup4\n        /* \"contract/EventOrganizingContract.sol\":676:743  Event(msg.sender, _date, _name, _price, _ticketCount, _ticketCount) */\n      dup2\n      mstore\n      0x20\n      add\n        /* \"contract/EventOrganizingContract.sol\":716:728  _ticketCount */\n      dup3\n        /* \"contract/EventOrganizingContract.sol\":676:743  Event(msg.sender, _date, _name, _price, _ticketCount, _ticketCount) */\n      dup2\n      mstore\n      0x20\n      add\n        /* \"contract/EventOrganizingContract.sol\":730:742  _ticketCount */\n      dup3\n        /* \"contract/EventOrganizingContract.sol\":676:743  Event(msg.sender, _date, _name, _price, _ticketCount, _ticketCount) */\n      dup2\n      mstore\n      pop\n        /* \"contract/EventOrganizingContract.sol\":663:669  events */\n      0x00\n        /* \"contract/EventOrganizingContract.sol\":663:673  events[ID] */\n      dup1\n        /* \"contract/EventOrganizingContract.sol\":670:672  ID */\n      sload(0x02)\n        /* \"contract/EventOrganizingContract.sol\":663:673  events[ID] */\n      dup2\n      mstore\n      0x20\n      add\n      swap1\n      dup2\n      mstore\n      0x20\n      add\n      0x00\n      keccak256\n        /* \"contract/EventOrganizingContract.sol\":663:743  events[ID] = Event(msg.sender, _date, _name, _price, _ticketCount, _ticketCount) */\n      0x00\n      dup3\n      add\n      mload\n      dup2\n      0x00\n      add\n      exp(0x0100, 0x00)\n      dup2\n      sload\n      dup2\n      0xffffffffffffffffffffffffffffffffffffffff\n      mul\n      not\n      and\n      swap1\n      dup4\n      0xffffffffffffffffffffffffffffffffffffffff\n      and\n      mul\n      or\n      swap1\n      sstore\n      pop\n      0x20\n      dup3\n      add\n      mload\n      dup2\n      0x01\n      add\n      sstore\n      0x40\n      dup3\n      add\n      mload\n      dup2\n      0x02\n      add\n      swap1\n      dup1\n      mload\n      swap1\n      0x20\n      add\n      swap1\n      tag_97\n      swap3\n      swap2\n      swap1\n      tag_98\n      jump\t// in\n    tag_97:\n      pop\n      0x60\n      dup3\n      add\n      mload\n      dup2\n      0x03\n      add\n      sstore\n      0x80\n      dup3\n      add\n      mload\n      dup2\n      0x04\n      add\n      sstore\n      0xa0\n      dup3\n      add\n      mload\n      dup2\n      0x05\n      add\n      sstore\n      swap1\n      pop\n      pop\n        /* \"contract/EventOrganizingContract.sol\":754:756  ID */\n      0x02\n      0x00\n        /* \"contract/EventOrganizingContract.sol\":754:758  ID++ */\n      dup2\n      sload\n      dup1\n      swap3\n      swap2\n      swap1\n      tag_99\n      swap1\n      tag_100\n      jump\t// in\n    tag_99:\n      swap2\n      swap1\n      pop\n      sstore\n      pop\n        /* \"contract/EventOrganizingContract.sol\":404:766  function createEvent(uint _date, string memory _name, uint _price, uint _ticketCount) external{\r... */\n      pop\n      pop\n      pop\n      pop\n      jump\t// out\n    tag_98:\n      dup3\n      dup1\n      sload\n      tag_101\n      swap1\n      tag_48\n      jump\t// in\n    tag_101:\n      swap1\n      0x00\n      mstore\n      keccak256(0x00, 0x20)\n      swap1\n      0x1f\n      add\n      0x20\n      swap1\n      div\n      dup2\n      add\n      swap3\n      dup3\n      tag_103\n      jumpi\n      0x00\n      dup6\n      sstore\n      jump(tag_102)\n    tag_103:\n      dup3\n      0x1f\n      lt\n      tag_104\n      jumpi\n      dup1\n      mload\n      not(0xff)\n      and\n      dup4\n      dup1\n      add\n      or\n      dup6\n      sstore\n      jump(tag_102)\n    tag_104:\n      dup3\n      dup1\n      add\n      0x01\n      add\n      dup6\n      sstore\n      dup3\n      iszero\n      tag_102\n      jumpi\n      swap2\n      dup3\n      add\n    tag_105:\n      dup3\n      dup2\n      gt\n      iszero\n      tag_106\n      jumpi\n      dup3\n      mload\n      dup3\n      sstore\n      swap2\n      0x20\n      add\n      swap2\n      swap1\n      0x01\n      add\n      swap1\n      jump(tag_105)\n    tag_106:\n    tag_102:\n      pop\n      swap1\n      pop\n      tag_107\n      swap2\n      swap1\n      tag_108\n      jump\t// in\n    tag_107:\n      pop\n      swap1\n      jump\t// out\n    tag_108:\n    tag_109:\n      dup1\n      dup3\n      gt\n      iszero\n      tag_110\n      jumpi\n      0x00\n      dup2\n      0x00\n      swap1\n      sstore\n      pop\n      0x01\n      add\n      jump(tag_109)\n    tag_110:\n      pop\n      swap1\n      jump\t// out\n        /* \"#utility.yul\":7:419   */\n    tag_112:\n        /* \"#utility.yul\":85:90   */\n      0x00\n        /* \"#utility.yul\":110:176   */\n      tag_114\n        /* \"#utility.yul\":126:175   */\n      tag_115\n        /* \"#utility.yul\":168:174   */\n      dup5\n        /* \"#utility.yul\":126:175   */\n      tag_116\n      jump\t// in\n    tag_115:\n        /* \"#utility.yul\":110:176   */\n      tag_117\n      jump\t// in\n    tag_114:\n        /* \"#utility.yul\":101:176   */\n      swap1\n      pop\n        /* \"#utility.yul\":199:205   */\n      dup3\n        /* \"#utility.yul\":192:197   */\n      dup2\n        /* \"#utility.yul\":185:206   */\n      mstore\n        /* \"#utility.yul\":237:241   */\n      0x20\n        /* \"#utility.yul\":230:235   */\n      dup2\n        /* \"#utility.yul\":226:242   */\n      add\n        /* \"#utility.yul\":275:278   */\n      dup5\n        /* \"#utility.yul\":266:272   */\n      dup5\n        /* \"#utility.yul\":261:264   */\n      dup5\n        /* \"#utility.yul\":257:273   */\n      add\n        /* \"#utility.yul\":254:279   */\n      gt\n        /* \"#utility.yul\":251:363   */\n      iszero\n      tag_118\n      jumpi\n        /* \"#utility.yul\":282:361   */\n      tag_119\n      tag_120\n      jump\t// in\n    tag_119:\n        /* \"#utility.yul\":251:363   */\n    tag_118:\n        /* \"#utility.yul\":372:413   */\n      tag_121\n        /* \"#utility.yul\":406:412   */\n      dup5\n        /* \"#utility.yul\":401:404   */\n      dup3\n        /* \"#utility.yul\":396:399   */\n      dup6\n        /* \"#utility.yul\":372:413   */\n      tag_122\n      jump\t// in\n    tag_121:\n        /* \"#utility.yul\":91:419   */\n      pop\n        /* \"#utility.yul\":7:419   */\n      swap4\n      swap3\n      pop\n      pop\n      pop\n      jump\t// out\n        /* \"#utility.yul\":425:564   */\n    tag_123:\n        /* \"#utility.yul\":471:476   */\n      0x00\n        /* \"#utility.yul\":509:515   */\n      dup2\n        /* \"#utility.yul\":496:516   */\n      calldataload\n        /* \"#utility.yul\":487:516   */\n      swap1\n      pop\n        /* \"#utility.yul\":525:558   */\n      tag_125\n        /* \"#utility.yul\":552:557   */\n      dup2\n        /* \"#utility.yul\":525:558   */\n      tag_126\n      jump\t// in\n    tag_125:\n        /* \"#utility.yul\":425:564   */\n      swap3\n      swap2\n      pop\n      pop\n      jump\t// out\n        /* \"#utility.yul\":584:924   */\n    tag_127:\n        /* \"#utility.yul\":640:645   */\n      0x00\n        /* \"#utility.yul\":689:692   */\n      dup3\n        /* \"#utility.yul\":682:686   */\n      0x1f\n        /* \"#utility.yul\":674:680   */\n      dup4\n        /* \"#utility.yul\":670:687   */\n      add\n        /* \"#utility.yul\":666:693   */\n      slt\n        /* \"#utility.yul\":656:778   */\n      tag_129\n      jumpi\n        /* \"#utility.yul\":697:776   */\n      tag_130\n      tag_131\n      jump\t// in\n    tag_130:\n        /* \"#utility.yul\":656:778   */\n    tag_129:\n        /* \"#utility.yul\":814:820   */\n      dup2\n        /* \"#utility.yul\":801:821   */\n      calldataload\n        /* \"#utility.yul\":839:918   */\n      tag_132\n        /* \"#utility.yul\":914:917   */\n      dup5\n        /* \"#utility.yul\":906:912   */\n      dup3\n        /* \"#utility.yul\":899:903   */\n      0x20\n        /* \"#utility.yul\":891:897   */\n      dup7\n        /* \"#utility.yul\":887:904   */\n      add\n        /* \"#utility.yul\":839:918   */\n      tag_112\n      jump\t// in\n    tag_132:\n        /* \"#utility.yul\":830:918   */\n      swap2\n      pop\n        /* \"#utility.yul\":646:924   */\n      pop\n        /* \"#utility.yul\":584:924   */\n      swap3\n      swap2\n      pop\n      pop\n      jump\t// out\n        /* \"#utility.yul\":930:1069   */\n    tag_133:\n        /* \"#utility.yul\":976:981   */\n      0x00\n        /* \"#utility.yul\":1014:1020   */\n      dup2\n        /* \"#utility.yul\":1001:1021   */\n      calldataload\n        /* \"#utility.yul\":992:1021   */\n      swap1\n      pop\n        /* \"#utility.yul\":1030:1063   */\n      tag_135\n        /* \"#utility.yul\":1057:1062   */\n      dup2\n        /* \"#utility.yul\":1030:1063   */\n      tag_136\n      jump\t// in\n    tag_135:\n        /* \"#utility.yul\":930:1069   */\n      swap3\n      swap2\n      pop\n      pop\n      jump\t// out\n        /* \"#utility.yul\":1075:1549   */\n    tag_34:\n        /* \"#utility.yul\":1143:1149   */\n      0x00\n        /* \"#utility.yul\":1151:1157   */\n      dup1\n        /* \"#utility.yul\":1200:1202   */\n      0x40\n        /* \"#utility.yul\":1188:1197   */\n      dup4\n        /* \"#utility.yul\":1179:1186   */\n      dup6\n        /* \"#utility.yul\":1175:1198   */\n      sub\n        /* \"#utility.yul\":1171:1203   */\n      slt\n        /* \"#utility.yul\":1168:1287   */\n      iszero\n      tag_138\n      jumpi\n        /* \"#utility.yul\":1206:1285   */\n      tag_139\n      tag_140\n      jump\t// in\n    tag_139:\n        /* \"#utility.yul\":1168:1287   */\n    tag_138:\n        /* \"#utility.yul\":1326:1327   */\n      0x00\n        /* \"#utility.yul\":1351:1404   */\n      tag_141\n        /* \"#utility.yul\":1396:1403   */\n      dup6\n        /* \"#utility.yul\":1387:1393   */\n      dup3\n        /* \"#utility.yul\":1376:1385   */\n      dup7\n        /* \"#utility.yul\":1372:1394   */\n      add\n        /* \"#utility.yul\":1351:1404   */\n      tag_123\n      jump\t// in\n    tag_141:\n        /* \"#utility.yul\":1341:1404   */\n      swap3\n      pop\n        /* \"#utility.yul\":1297:1414   */\n      pop\n        /* \"#utility.yul\":1453:1455   */\n      0x20\n        /* \"#utility.yul\":1479:1532   */\n      tag_142\n        /* \"#utility.yul\":1524:1531   */\n      dup6\n        /* \"#utility.yul\":1515:1521   */\n      dup3\n        /* \"#utility.yul\":1504:1513   */\n      dup7\n        /* \"#utility.yul\":1500:1522   */\n      add\n        /* \"#utility.yul\":1479:1532   */\n      tag_133\n      jump\t// in\n    tag_142:\n        /* \"#utility.yul\":1469:1532   */\n      swap2\n      pop\n        /* \"#utility.yul\":1424:1542   */\n      pop\n        /* \"#utility.yul\":1075:1549   */\n      swap3\n      pop\n      swap3\n      swap1\n      pop\n      jump\t// out\n        /* \"#utility.yul\":1555:1884   */\n    tag_13:\n        /* \"#utility.yul\":1614:1620   */\n      0x00\n        /* \"#utility.yul\":1663:1665   */\n      0x20\n        /* \"#utility.yul\":1651:1660   */\n      dup3\n        /* \"#utility.yul\":1642:1649   */\n      dup5\n        /* \"#utility.yul\":1638:1661   */\n      sub\n        /* \"#utility.yul\":1634:1666   */\n      slt\n        /* \"#utility.yul\":1631:1750   */\n      iszero\n      tag_144\n      jumpi\n        /* \"#utility.yul\":1669:1748   */\n      tag_145\n      tag_140\n      jump\t// in\n    tag_145:\n        /* \"#utility.yul\":1631:1750   */\n    tag_144:\n        /* \"#utility.yul\":1789:1790   */\n      0x00\n        /* \"#utility.yul\":1814:1867   */\n      tag_146\n        /* \"#utility.yul\":1859:1866   */\n      dup5\n        /* \"#utility.yul\":1850:1856   */\n      dup3\n        /* \"#utility.yul\":1839:1848   */\n      dup6\n        /* \"#utility.yul\":1835:1857   */\n      add\n        /* \"#utility.yul\":1814:1867   */\n      tag_133\n      jump\t// in\n    tag_146:\n        /* \"#utility.yul\":1804:1867   */\n      swap2\n      pop\n        /* \"#utility.yul\":1760:1877   */\n      pop\n        /* \"#utility.yul\":1555:1884   */\n      swap3\n      swap2\n      pop\n      pop\n      jump\t// out\n        /* \"#utility.yul\":1890:2835   */\n    tag_45:\n        /* \"#utility.yul\":1986:1992   */\n      0x00\n        /* \"#utility.yul\":1994:2000   */\n      dup1\n        /* \"#utility.yul\":2002:2008   */\n      0x00\n        /* \"#utility.yul\":2010:2016   */\n      dup1\n        /* \"#utility.yul\":2059:2062   */\n      0x80\n        /* \"#utility.yul\":2047:2056   */\n      dup6\n        /* \"#utility.yul\":2038:2045   */\n      dup8\n        /* \"#utility.yul\":2034:2057   */\n      sub\n        /* \"#utility.yul\":2030:2063   */\n      slt\n        /* \"#utility.yul\":2027:2147   */\n      iszero\n      tag_148\n      jumpi\n        /* \"#utility.yul\":2066:2145   */\n      tag_149\n      tag_140\n      jump\t// in\n    tag_149:\n        /* \"#utility.yul\":2027:2147   */\n    tag_148:\n        /* \"#utility.yul\":2186:2187   */\n      0x00\n        /* \"#utility.yul\":2211:2264   */\n      tag_150\n        /* \"#utility.yul\":2256:2263   */\n      dup8\n        /* \"#utility.yul\":2247:2253   */\n      dup3\n        /* \"#utility.yul\":2236:2245   */\n      dup9\n        /* \"#utility.yul\":2232:2254   */\n      add\n        /* \"#utility.yul\":2211:2264   */\n      tag_133\n      jump\t// in\n    tag_150:\n        /* \"#utility.yul\":2201:2264   */\n      swap5\n      pop\n        /* \"#utility.yul\":2157:2274   */\n      pop\n        /* \"#utility.yul\":2341:2343   */\n      0x20\n        /* \"#utility.yul\":2330:2339   */\n      dup6\n        /* \"#utility.yul\":2326:2344   */\n      add\n        /* \"#utility.yul\":2313:2345   */\n      calldataload\n        /* \"#utility.yul\":2372:2390   */\n      0xffffffffffffffff\n        /* \"#utility.yul\":2364:2370   */\n      dup2\n        /* \"#utility.yul\":2361:2391   */\n      gt\n        /* \"#utility.yul\":2358:2475   */\n      iszero\n      tag_151\n      jumpi\n        /* \"#utility.yul\":2394:2473   */\n      tag_152\n      tag_153\n      jump\t// in\n    tag_152:\n        /* \"#utility.yul\":2358:2475   */\n    tag_151:\n        /* \"#utility.yul\":2499:2562   */\n      tag_154\n        /* \"#utility.yul\":2554:2561   */\n      dup8\n        /* \"#utility.yul\":2545:2551   */\n      dup3\n        /* \"#utility.yul\":2534:2543   */\n      dup9\n        /* \"#utility.yul\":2530:2552   */\n      add\n        /* \"#utility.yul\":2499:2562   */\n      tag_127\n      jump\t// in\n    tag_154:\n        /* \"#utility.yul\":2489:2562   */\n      swap4\n      pop\n        /* \"#utility.yul\":2284:2572   */\n      pop\n        /* \"#utility.yul\":2611:2613   */\n      0x40\n        /* \"#utility.yul\":2637:2690   */\n      tag_155\n        /* \"#utility.yul\":2682:2689   */\n      dup8\n        /* \"#utility.yul\":2673:2679   */\n      dup3\n        /* \"#utility.yul\":2662:2671   */\n      dup9\n        /* \"#utility.yul\":2658:2680   */\n      add\n        /* \"#utility.yul\":2637:2690   */\n      tag_133\n      jump\t// in\n    tag_155:\n        /* \"#utility.yul\":2627:2690   */\n      swap3\n      pop\n        /* \"#utility.yul\":2582:2700   */\n      pop\n        /* \"#utility.yul\":2739:2741   */\n      0x60\n        /* \"#utility.yul\":2765:2818   */\n      tag_156\n        /* \"#utility.yul\":2810:2817   */\n      dup8\n        /* \"#utility.yul\":2801:2807   */\n      dup3\n        /* \"#utility.yul\":2790:2799   */\n      dup9\n        /* \"#utility.yul\":2786:2808   */\n      add\n        /* \"#utility.yul\":2765:2818   */\n      tag_133\n      jump\t// in\n    tag_156:\n        /* \"#utility.yul\":2755:2818   */\n      swap2\n      pop\n        /* \"#utility.yul\":2710:2828   */\n      pop\n        /* \"#utility.yul\":1890:2835   */\n      swap3\n      swap6\n      swap2\n      swap5\n      pop\n      swap3\n      pop\n      jump\t// out\n        /* \"#utility.yul\":2841:3315   */\n    tag_19:\n        /* \"#utility.yul\":2909:2915   */\n      0x00\n        /* \"#utility.yul\":2917:2923   */\n      dup1\n        /* \"#utility.yul\":2966:2968   */\n      0x40\n        /* \"#utility.yul\":2954:2963   */\n      dup4\n        /* \"#utility.yul\":2945:2952   */\n      dup6\n        /* \"#utility.yul\":2941:2964   */\n      sub\n        /* \"#utility.yul\":2937:2969   */\n      slt\n        /* \"#utility.yul\":2934:3053   */\n      iszero\n      tag_158\n      jumpi\n        /* \"#utility.yul\":2972:3051   */\n      tag_159\n      tag_140\n      jump\t// in\n    tag_159:\n        /* \"#utility.yul\":2934:3053   */\n    tag_158:\n        /* \"#utility.yul\":3092:3093   */\n      0x00\n        /* \"#utility.yul\":3117:3170   */\n      tag_160\n        /* \"#utility.yul\":3162:3169   */\n      dup6\n        /* \"#utility.yul\":3153:3159   */\n      dup3\n        /* \"#utility.yul\":3142:3151   */\n      dup7\n        /* \"#utility.yul\":3138:3160   */\n      add\n        /* \"#utility.yul\":3117:3170   */\n      tag_133\n      jump\t// in\n    tag_160:\n        /* \"#utility.yul\":3107:3170   */\n      swap3\n      pop\n        /* \"#utility.yul\":3063:3180   */\n      pop\n        /* \"#utility.yul\":3219:3221   */\n      0x20\n        /* \"#utility.yul\":3245:3298   */\n      tag_161\n        /* \"#utility.yul\":3290:3297   */\n      dup6\n        /* \"#utility.yul\":3281:3287   */\n      dup3\n        /* \"#utility.yul\":3270:3279   */\n      dup7\n        /* \"#utility.yul\":3266:3288   */\n      add\n        /* \"#utility.yul\":3245:3298   */\n      tag_133\n      jump\t// in\n    tag_161:\n        /* \"#utility.yul\":3235:3298   */\n      swap2\n      pop\n        /* \"#utility.yul\":3190:3308   */\n      pop\n        /* \"#utility.yul\":2841:3315   */\n      swap3\n      pop\n      swap3\n      swap1\n      pop\n      jump\t// out\n        /* \"#utility.yul\":3321:3940   */\n    tag_40:\n        /* \"#utility.yul\":3398:3404   */\n      0x00\n        /* \"#utility.yul\":3406:3412   */\n      dup1\n        /* \"#utility.yul\":3414:3420   */\n      0x00\n        /* \"#utility.yul\":3463:3465   */\n      0x60\n        /* \"#utility.yul\":3451:3460   */\n      dup5\n        /* \"#utility.yul\":3442:3449   */\n      dup7\n        /* \"#utility.yul\":3438:3461   */\n      sub\n        /* \"#utility.yul\":3434:3466   */\n      slt\n        /* \"#utility.yul\":3431:3550   */\n      iszero\n      tag_163\n      jumpi\n        /* \"#utility.yul\":3469:3548   */\n      tag_164\n      tag_140\n      jump\t// in\n    tag_164:\n        /* \"#utility.yul\":3431:3550   */\n    tag_163:\n        /* \"#utility.yul\":3589:3590   */\n      0x00\n        /* \"#utility.yul\":3614:3667   */\n      tag_165\n        /* \"#utility.yul\":3659:3666   */\n      dup7\n        /* \"#utility.yul\":3650:3656   */\n      dup3\n        /* \"#utility.yul\":3639:3648   */\n      dup8\n        /* \"#utility.yul\":3635:3657   */\n      add\n        /* \"#utility.yul\":3614:3667   */\n      tag_133\n      jump\t// in\n    tag_165:\n        /* \"#utility.yul\":3604:3667   */\n      swap4\n      pop\n        /* \"#utility.yul\":3560:3677   */\n      pop\n        /* \"#utility.yul\":3716:3718   */\n      0x20\n        /* \"#utility.yul\":3742:3795   */\n      tag_166\n        /* \"#utility.yul\":3787:3794   */\n      dup7\n        /* \"#utility.yul\":3778:3784   */\n      dup3\n        /* \"#utility.yul\":3767:3776   */\n      dup8\n        /* \"#utility.yul\":3763:3785   */\n      add\n        /* \"#utility.yul\":3742:3795   */\n      tag_133\n      jump\t// in\n    tag_166:\n        /* \"#utility.yul\":3732:3795   */\n      swap3\n      pop\n        /* \"#utility.yul\":3687:3805   */\n      pop\n        /* \"#utility.yul\":3844:3846   */\n      0x40\n        /* \"#utility.yul\":3870:3923   */\n      tag_167\n        /* \"#utility.yul\":3915:3922   */\n      dup7\n        /* \"#utility.yul\":3906:3912   */\n      dup3\n        /* \"#utility.yul\":3895:3904   */\n      dup8\n        /* \"#utility.yul\":3891:3913   */\n      add\n        /* \"#utility.yul\":3870:3923   */\n      tag_123\n      jump\t// in\n    tag_167:\n        /* \"#utility.yul\":3860:3923   */\n      swap2\n      pop\n        /* \"#utility.yul\":3815:3933   */\n      pop\n        /* \"#utility.yul\":3321:3940   */\n      swap3\n      pop\n      swap3\n      pop\n      swap3\n      jump\t// out\n        /* \"#utility.yul\":3946:4064   */\n    tag_168:\n        /* \"#utility.yul\":4033:4057   */\n      tag_170\n        /* \"#utility.yul\":4051:4056   */\n      dup2\n        /* \"#utility.yul\":4033:4057   */\n      tag_171\n      jump\t// in\n    tag_170:\n        /* \"#utility.yul\":4028:4031   */\n      dup3\n        /* \"#utility.yul\":4021:4058   */\n      mstore\n        /* \"#utility.yul\":3946:4064   */\n      pop\n      pop\n      jump\t// out\n        /* \"#utility.yul\":4070:4434   */\n    tag_172:\n        /* \"#utility.yul\":4158:4161   */\n      0x00\n        /* \"#utility.yul\":4186:4225   */\n      tag_174\n        /* \"#utility.yul\":4219:4224   */\n      dup3\n        /* \"#utility.yul\":4186:4225   */\n      tag_175\n      jump\t// in\n    tag_174:\n        /* \"#utility.yul\":4241:4312   */\n      tag_176\n        /* \"#utility.yul\":4305:4311   */\n      dup2\n        /* \"#utility.yul\":4300:4303   */\n      dup6\n        /* \"#utility.yul\":4241:4312   */\n      tag_177\n      jump\t// in\n    tag_176:\n        /* \"#utility.yul\":4234:4312   */\n      swap4\n      pop\n        /* \"#utility.yul\":4321:4373   */\n      tag_178\n        /* \"#utility.yul\":4366:4372   */\n      dup2\n        /* \"#utility.yul\":4361:4364   */\n      dup6\n        /* \"#utility.yul\":4354:4358   */\n      0x20\n        /* \"#utility.yul\":4347:4352   */\n      dup7\n        /* \"#utility.yul\":4343:4359   */\n      add\n        /* \"#utility.yul\":4321:4373   */\n      tag_179\n      jump\t// in\n    tag_178:\n        /* \"#utility.yul\":4398:4427   */\n      tag_180\n        /* \"#utility.yul\":4420:4426   */\n      dup2\n        /* \"#utility.yul\":4398:4427   */\n      tag_181\n      jump\t// in\n    tag_180:\n        /* \"#utility.yul\":4393:4396   */\n      dup5\n        /* \"#utility.yul\":4389:4428   */\n      add\n        /* \"#utility.yul\":4382:4428   */\n      swap2\n      pop\n        /* \"#utility.yul\":4162:4434   */\n      pop\n        /* \"#utility.yul\":4070:4434   */\n      swap3\n      swap2\n      pop\n      pop\n      jump\t// out\n        /* \"#utility.yul\":4440:4806   */\n    tag_182:\n        /* \"#utility.yul\":4582:4585   */\n      0x00\n        /* \"#utility.yul\":4603:4670   */\n      tag_184\n        /* \"#utility.yul\":4667:4669   */\n      0x15\n        /* \"#utility.yul\":4662:4665   */\n      dup4\n        /* \"#utility.yul\":4603:4670   */\n      tag_177\n      jump\t// in\n    tag_184:\n        /* \"#utility.yul\":4596:4670   */\n      swap2\n      pop\n        /* \"#utility.yul\":4679:4772   */\n      tag_185\n        /* \"#utility.yul\":4768:4771   */\n      dup3\n        /* \"#utility.yul\":4679:4772   */\n      tag_186\n      jump\t// in\n    tag_185:\n        /* \"#utility.yul\":4797:4799   */\n      0x20\n        /* \"#utility.yul\":4792:4795   */\n      dup3\n        /* \"#utility.yul\":4788:4800   */\n      add\n        /* \"#utility.yul\":4781:4800   */\n      swap1\n      pop\n        /* \"#utility.yul\":4440:4806   */\n      swap2\n      swap1\n      pop\n      jump\t// out\n        /* \"#utility.yul\":4812:5178   */\n    tag_187:\n        /* \"#utility.yul\":4954:4957   */\n      0x00\n        /* \"#utility.yul\":4975:5042   */\n      tag_189\n        /* \"#utility.yul\":5039:5041   */\n      0x29\n        /* \"#utility.yul\":5034:5037   */\n      dup4\n        /* \"#utility.yul\":4975:5042   */\n      tag_177\n      jump\t// in\n    tag_189:\n        /* \"#utility.yul\":4968:5042   */\n      swap2\n      pop\n        /* \"#utility.yul\":5051:5144   */\n      tag_190\n        /* \"#utility.yul\":5140:5143   */\n      dup3\n        /* \"#utility.yul\":5051:5144   */\n      tag_191\n      jump\t// in\n    tag_190:\n        /* \"#utility.yul\":5169:5171   */\n      0x40\n        /* \"#utility.yul\":5164:5167   */\n      dup3\n        /* \"#utility.yul\":5160:5172   */\n      add\n        /* \"#utility.yul\":5153:5172   */\n      swap1\n      pop\n        /* \"#utility.yul\":4812:5178   */\n      swap2\n      swap1\n      pop\n      jump\t// out\n        /* \"#utility.yul\":5184:5550   */\n    tag_192:\n        /* \"#utility.yul\":5326:5329   */\n      0x00\n        /* \"#utility.yul\":5347:5414   */\n      tag_194\n        /* \"#utility.yul\":5411:5413   */\n      0x16\n        /* \"#utility.yul\":5406:5409   */\n      dup4\n        /* \"#utility.yul\":5347:5414   */\n      tag_177\n      jump\t// in\n    tag_194:\n        /* \"#utility.yul\":5340:5414   */\n      swap2\n      pop\n        /* \"#utility.yul\":5423:5516   */\n      tag_195\n        /* \"#utility.yul\":5512:5515   */\n      dup3\n        /* \"#utility.yul\":5423:5516   */\n      tag_196\n      jump\t// in\n    tag_195:\n        /* \"#utility.yul\":5541:5543   */\n      0x20\n        /* \"#utility.yul\":5536:5539   */\n      dup3\n        /* \"#utility.yul\":5532:5544   */\n      add\n        /* \"#utility.yul\":5525:5544   */\n      swap1\n      pop\n        /* \"#utility.yul\":5184:5550   */\n      swap2\n      swap1\n      pop\n      jump\t// out\n        /* \"#utility.yul\":5556:5922   */\n    tag_197:\n        /* \"#utility.yul\":5698:5701   */\n      0x00\n        /* \"#utility.yul\":5719:5786   */\n      tag_199\n        /* \"#utility.yul\":5783:5785   */\n      0x1d\n        /* \"#utility.yul\":5778:5781   */\n      dup4\n        /* \"#utility.yul\":5719:5786   */\n      tag_177\n      jump\t// in\n    tag_199:\n        /* \"#utility.yul\":5712:5786   */\n      swap2\n      pop\n        /* \"#utility.yul\":5795:5888   */\n      tag_200\n        /* \"#utility.yul\":5884:5887   */\n      dup3\n        /* \"#utility.yul\":5795:5888   */\n      tag_201\n      jump\t// in\n    tag_200:\n        /* \"#utility.yul\":5913:5915   */\n      0x20\n        /* \"#utility.yul\":5908:5911   */\n      dup3\n        /* \"#utility.yul\":5904:5916   */\n      add\n        /* \"#utility.yul\":5897:5916   */\n      swap1\n      pop\n        /* \"#utility.yul\":5556:5922   */\n      swap2\n      swap1\n      pop\n      jump\t// out\n        /* \"#utility.yul\":5928:6294   */\n    tag_202:\n        /* \"#utility.yul\":6070:6073   */\n      0x00\n        /* \"#utility.yul\":6091:6158   */\n      tag_204\n        /* \"#utility.yul\":6155:6157   */\n      0x17\n        /* \"#utility.yul\":6150:6153   */\n      dup4\n        /* \"#utility.yul\":6091:6158   */\n      tag_177\n      jump\t// in\n    tag_204:\n        /* \"#utility.yul\":6084:6158   */\n      swap2\n      pop\n        /* \"#utility.yul\":6167:6260   */\n      tag_205\n        /* \"#utility.yul\":6256:6259   */\n      dup3\n        /* \"#utility.yul\":6167:6260   */\n      tag_206\n      jump\t// in\n    tag_205:\n        /* \"#utility.yul\":6285:6287   */\n      0x20\n        /* \"#utility.yul\":6280:6283   */\n      dup3\n        /* \"#utility.yul\":6276:6288   */\n      add\n        /* \"#utility.yul\":6269:6288   */\n      swap1\n      pop\n        /* \"#utility.yul\":5928:6294   */\n      swap2\n      swap1\n      pop\n      jump\t// out\n        /* \"#utility.yul\":6300:6666   */\n    tag_207:\n        /* \"#utility.yul\":6442:6445   */\n      0x00\n        /* \"#utility.yul\":6463:6530   */\n      tag_209\n        /* \"#utility.yul\":6527:6529   */\n      0x15\n        /* \"#utility.yul\":6522:6525   */\n      dup4\n        /* \"#utility.yul\":6463:6530   */\n      tag_177\n      jump\t// in\n    tag_209:\n        /* \"#utility.yul\":6456:6530   */\n      swap2\n      pop\n        /* \"#utility.yul\":6539:6632   */\n      tag_210\n        /* \"#utility.yul\":6628:6631   */\n      dup3\n        /* \"#utility.yul\":6539:6632   */\n      tag_211\n      jump\t// in\n    tag_210:\n        /* \"#utility.yul\":6657:6659   */\n      0x20\n        /* \"#utility.yul\":6652:6655   */\n      dup3\n        /* \"#utility.yul\":6648:6660   */\n      add\n        /* \"#utility.yul\":6641:6660   */\n      swap1\n      pop\n        /* \"#utility.yul\":6300:6666   */\n      swap2\n      swap1\n      pop\n      jump\t// out\n        /* \"#utility.yul\":6672:7038   */\n    tag_212:\n        /* \"#utility.yul\":6814:6817   */\n      0x00\n        /* \"#utility.yul\":6835:6902   */\n      tag_214\n        /* \"#utility.yul\":6899:6901   */\n      0x1d\n        /* \"#utility.yul\":6894:6897   */\n      dup4\n        /* \"#utility.yul\":6835:6902   */\n      tag_177\n      jump\t// in\n    tag_214:\n        /* \"#utility.yul\":6828:6902   */\n      swap2\n      pop\n        /* \"#utility.yul\":6911:7004   */\n      tag_215\n        /* \"#utility.yul\":7000:7003   */\n      dup3\n        /* \"#utility.yul\":6911:7004   */\n      tag_216\n      jump\t// in\n    tag_215:\n        /* \"#utility.yul\":7029:7031   */\n      0x20\n        /* \"#utility.yul\":7024:7027   */\n      dup3\n        /* \"#utility.yul\":7020:7032   */\n      add\n        /* \"#utility.yul\":7013:7032   */\n      swap1\n      pop\n        /* \"#utility.yul\":6672:7038   */\n      swap2\n      swap1\n      pop\n      jump\t// out\n        /* \"#utility.yul\":7044:7410   */\n    tag_217:\n        /* \"#utility.yul\":7186:7189   */\n      0x00\n        /* \"#utility.yul\":7207:7274   */\n      tag_219\n        /* \"#utility.yul\":7271:7273   */\n      0x15\n        /* \"#utility.yul\":7266:7269   */\n      dup4\n        /* \"#utility.yul\":7207:7274   */\n      tag_177\n      jump\t// in\n    tag_219:\n        /* \"#utility.yul\":7200:7274   */\n      swap2\n      pop\n        /* \"#utility.yul\":7283:7376   */\n      tag_220\n        /* \"#utility.yul\":7372:7375   */\n      dup3\n        /* \"#utility.yul\":7283:7376   */\n      tag_221\n      jump\t// in\n    tag_220:\n        /* \"#utility.yul\":7401:7403   */\n      0x20\n        /* \"#utility.yul\":7396:7399   */\n      dup3\n        /* \"#utility.yul\":7392:7404   */\n      add\n        /* \"#utility.yul\":7385:7404   */\n      swap1\n      pop\n        /* \"#utility.yul\":7044:7410   */\n      swap2\n      swap1\n      pop\n      jump\t// out\n        /* \"#utility.yul\":7416:7782   */\n    tag_222:\n        /* \"#utility.yul\":7558:7561   */\n      0x00\n        /* \"#utility.yul\":7579:7646   */\n      tag_224\n        /* \"#utility.yul\":7643:7645   */\n      0x21\n        /* \"#utility.yul\":7638:7641   */\n      dup4\n        /* \"#utility.yul\":7579:7646   */\n      tag_177\n      jump\t// in\n    tag_224:\n        /* \"#utility.yul\":7572:7646   */\n      swap2\n      pop\n        /* \"#utility.yul\":7655:7748   */\n      tag_225\n        /* \"#utility.yul\":7744:7747   */\n      dup3\n        /* \"#utility.yul\":7655:7748   */\n      tag_226\n      jump\t// in\n    tag_225:\n        /* \"#utility.yul\":7773:7775   */\n      0x40\n        /* \"#utility.yul\":7768:7771   */\n      dup3\n        /* \"#utility.yul\":7764:7776   */\n      add\n        /* \"#utility.yul\":7757:7776   */\n      swap1\n      pop\n        /* \"#utility.yul\":7416:7782   */\n      swap2\n      swap1\n      pop\n      jump\t// out\n        /* \"#utility.yul\":7788:8154   */\n    tag_227:\n        /* \"#utility.yul\":7930:7933   */\n      0x00\n        /* \"#utility.yul\":7951:8018   */\n      tag_229\n        /* \"#utility.yul\":8015:8017   */\n      0x22\n        /* \"#utility.yul\":8010:8013   */\n      dup4\n        /* \"#utility.yul\":7951:8018   */\n      tag_177\n      jump\t// in\n    tag_229:\n        /* \"#utility.yul\":7944:8018   */\n      swap2\n      pop\n        /* \"#utility.yul\":8027:8120   */\n      tag_230\n        /* \"#utility.yul\":8116:8119   */\n      dup3\n        /* \"#utility.yul\":8027:8120   */\n      tag_231\n      jump\t// in\n    tag_230:\n        /* \"#utility.yul\":8145:8147   */\n      0x40\n        /* \"#utility.yul\":8140:8143   */\n      dup3\n        /* \"#utility.yul\":8136:8148   */\n      add\n        /* \"#utility.yul\":8129:8148   */\n      swap1\n      pop\n        /* \"#utility.yul\":7788:8154   */\n      swap2\n      swap1\n      pop\n      jump\t// out\n        /* \"#utility.yul\":8160:8278   */\n    tag_232:\n        /* \"#utility.yul\":8247:8271   */\n      tag_234\n        /* \"#utility.yul\":8265:8270   */\n      dup2\n        /* \"#utility.yul\":8247:8271   */\n      tag_235\n      jump\t// in\n    tag_234:\n        /* \"#utility.yul\":8242:8245   */\n      dup3\n        /* \"#utility.yul\":8235:8272   */\n      mstore\n        /* \"#utility.yul\":8160:8278   */\n      pop\n      pop\n      jump\t// out\n        /* \"#utility.yul\":8284:9150   */\n    tag_16:\n        /* \"#utility.yul\":8537:8541   */\n      0x00\n        /* \"#utility.yul\":8575:8578   */\n      0xc0\n        /* \"#utility.yul\":8564:8573   */\n      dup3\n        /* \"#utility.yul\":8560:8579   */\n      add\n        /* \"#utility.yul\":8552:8579   */\n      swap1\n      pop\n        /* \"#utility.yul\":8589:8660   */\n      tag_237\n        /* \"#utility.yul\":8657:8658   */\n      0x00\n        /* \"#utility.yul\":8646:8655   */\n      dup4\n        /* \"#utility.yul\":8642:8659   */\n      add\n        /* \"#utility.yul\":8633:8639   */\n      dup10\n        /* \"#utility.yul\":8589:8660   */\n      tag_168\n      jump\t// in\n    tag_237:\n        /* \"#utility.yul\":8670:8742   */\n      tag_238\n        /* \"#utility.yul\":8738:8740   */\n      0x20\n        /* \"#utility.yul\":8727:8736   */\n      dup4\n        /* \"#utility.yul\":8723:8741   */\n      add\n        /* \"#utility.yul\":8714:8720   */\n      dup9\n        /* \"#utility.yul\":8670:8742   */\n      tag_232\n      jump\t// in\n    tag_238:\n        /* \"#utility.yul\":8789:8798   */\n      dup2\n        /* \"#utility.yul\":8783:8787   */\n      dup2\n        /* \"#utility.yul\":8779:8799   */\n      sub\n        /* \"#utility.yul\":8774:8776   */\n      0x40\n        /* \"#utility.yul\":8763:8772   */\n      dup4\n        /* \"#utility.yul\":8759:8777   */\n      add\n        /* \"#utility.yul\":8752:8800   */\n      mstore\n        /* \"#utility.yul\":8817:8895   */\n      tag_239\n        /* \"#utility.yul\":8890:8894   */\n      dup2\n        /* \"#utility.yul\":8881:8887   */\n      dup8\n        /* \"#utility.yul\":8817:8895   */\n      tag_172\n      jump\t// in\n    tag_239:\n        /* \"#utility.yul\":8809:8895   */\n      swap1\n      pop\n        /* \"#utility.yul\":8905:8977   */\n      tag_240\n        /* \"#utility.yul\":8973:8975   */\n      0x60\n        /* \"#utility.yul\":8962:8971   */\n      dup4\n        /* \"#utility.yul\":8958:8976   */\n      add\n        /* \"#utility.yul\":8949:8955   */\n      dup7\n        /* \"#utility.yul\":8905:8977   */\n      tag_232\n      jump\t// in\n    tag_240:\n        /* \"#utility.yul\":8987:9060   */\n      tag_241\n        /* \"#utility.yul\":9055:9058   */\n      0x80\n        /* \"#utility.yul\":9044:9053   */\n      dup4\n        /* \"#utility.yul\":9040:9059   */\n      add\n        /* \"#utility.yul\":9031:9037   */\n      dup6\n        /* \"#utility.yul\":8987:9060   */\n      tag_232\n      jump\t// in\n    tag_241:\n        /* \"#utility.yul\":9070:9143   */\n      tag_242\n        /* \"#utility.yul\":9138:9141   */\n      0xa0\n        /* \"#utility.yul\":9127:9136   */\n      dup4\n        /* \"#utility.yul\":9123:9142   */\n      add\n        /* \"#utility.yul\":9114:9120   */\n      dup5\n        /* \"#utility.yul\":9070:9143   */\n      tag_232\n      jump\t// in\n    tag_242:\n        /* \"#utility.yul\":8284:9150   */\n      swap8\n      swap7\n      pop\n      pop\n      pop\n      pop\n      pop\n      pop\n      pop\n      jump\t// out\n        /* \"#utility.yul\":9156:9575   */\n    tag_64:\n        /* \"#utility.yul\":9322:9326   */\n      0x00\n        /* \"#utility.yul\":9360:9362   */\n      0x20\n        /* \"#utility.yul\":9349:9358   */\n      dup3\n        /* \"#utility.yul\":9345:9363   */\n      add\n        /* \"#utility.yul\":9337:9363   */\n      swap1\n      pop\n        /* \"#utility.yul\":9409:9418   */\n      dup2\n        /* \"#utility.yul\":9403:9407   */\n      dup2\n        /* \"#utility.yul\":9399:9419   */\n      sub\n        /* \"#utility.yul\":9395:9396   */\n      0x00\n        /* \"#utility.yul\":9384:9393   */\n      dup4\n        /* \"#utility.yul\":9380:9397   */\n      add\n        /* \"#utility.yul\":9373:9420   */\n      mstore\n        /* \"#utility.yul\":9437:9568   */\n      tag_244\n        /* \"#utility.yul\":9563:9567   */\n      dup2\n        /* \"#utility.yul\":9437:9568   */\n      tag_182\n      jump\t// in\n    tag_244:\n        /* \"#utility.yul\":9429:9568   */\n      swap1\n      pop\n        /* \"#utility.yul\":9156:9575   */\n      swap2\n      swap1\n      pop\n      jump\t// out\n        /* \"#utility.yul\":9581:10000   */\n    tag_87:\n        /* \"#utility.yul\":9747:9751   */\n      0x00\n        /* \"#utility.yul\":9785:9787   */\n      0x20\n        /* \"#utility.yul\":9774:9783   */\n      dup3\n        /* \"#utility.yul\":9770:9788   */\n      add\n        /* \"#utility.yul\":9762:9788   */\n      swap1\n      pop\n        /* \"#utility.yul\":9834:9843   */\n      dup2\n        /* \"#utility.yul\":9828:9832   */\n      dup2\n        /* \"#utility.yul\":9824:9844   */\n      sub\n        /* \"#utility.yul\":9820:9821   */\n      0x00\n        /* \"#utility.yul\":9809:9818   */\n      dup4\n        /* \"#utility.yul\":9805:9822   */\n      add\n        /* \"#utility.yul\":9798:9845   */\n      mstore\n        /* \"#utility.yul\":9862:9993   */\n      tag_246\n        /* \"#utility.yul\":9988:9992   */\n      dup2\n        /* \"#utility.yul\":9862:9993   */\n      tag_187\n      jump\t// in\n    tag_246:\n        /* \"#utility.yul\":9854:9993   */\n      swap1\n      pop\n        /* \"#utility.yul\":9581:10000   */\n      swap2\n      swap1\n      pop\n      jump\t// out\n        /* \"#utility.yul\":10006:10425   */\n    tag_84:\n        /* \"#utility.yul\":10172:10176   */\n      0x00\n        /* \"#utility.yul\":10210:10212   */\n      0x20\n        /* \"#utility.yul\":10199:10208   */\n      dup3\n        /* \"#utility.yul\":10195:10213   */\n      add\n        /* \"#utility.yul\":10187:10213   */\n      swap1\n      pop\n        /* \"#utility.yul\":10259:10268   */\n      dup2\n        /* \"#utility.yul\":10253:10257   */\n      dup2\n        /* \"#utility.yul\":10249:10269   */\n      sub\n        /* \"#utility.yul\":10245:10246   */\n      0x00\n        /* \"#utility.yul\":10234:10243   */\n      dup4\n        /* \"#utility.yul\":10230:10247   */\n      add\n        /* \"#utility.yul\":10223:10270   */\n      mstore\n        /* \"#utility.yul\":10287:10418   */\n      tag_248\n        /* \"#utility.yul\":10413:10417   */\n      dup2\n        /* \"#utility.yul\":10287:10418   */\n      tag_192\n      jump\t// in\n    tag_248:\n        /* \"#utility.yul\":10279:10418   */\n      swap1\n      pop\n        /* \"#utility.yul\":10006:10425   */\n      swap2\n      swap1\n      pop\n      jump\t// out\n        /* \"#utility.yul\":10431:10850   */\n    tag_78:\n        /* \"#utility.yul\":10597:10601   */\n      0x00\n        /* \"#utility.yul\":10635:10637   */\n      0x20\n        /* \"#utility.yul\":10624:10633   */\n      dup3\n        /* \"#utility.yul\":10620:10638   */\n      add\n        /* \"#utility.yul\":10612:10638   */\n      swap1\n      pop\n        /* \"#utility.yul\":10684:10693   */\n      dup2\n        /* \"#utility.yul\":10678:10682   */\n      dup2\n        /* \"#utility.yul\":10674:10694   */\n      sub\n        /* \"#utility.yul\":10670:10671   */\n      0x00\n        /* \"#utility.yul\":10659:10668   */\n      dup4\n        /* \"#utility.yul\":10655:10672   */\n      add\n        /* \"#utility.yul\":10648:10695   */\n      mstore\n        /* \"#utility.yul\":10712:10843   */\n      tag_250\n        /* \"#utility.yul\":10838:10842   */\n      dup2\n        /* \"#utility.yul\":10712:10843   */\n      tag_197\n      jump\t// in\n    tag_250:\n        /* \"#utility.yul\":10704:10843   */\n      swap1\n      pop\n        /* \"#utility.yul\":10431:10850   */\n      swap2\n      swap1\n      pop\n      jump\t// out\n        /* \"#utility.yul\":10856:11275   */\n    tag_59:\n        /* \"#utility.yul\":11022:11026   */\n      0x00\n        /* \"#utility.yul\":11060:11062   */\n      0x20\n        /* \"#utility.yul\":11049:11058   */\n      dup3\n        /* \"#utility.yul\":11045:11063   */\n      add\n        /* \"#utility.yul\":11037:11063   */\n      swap1\n      pop\n        /* \"#utility.yul\":11109:11118   */\n      dup2\n        /* \"#utility.yul\":11103:11107   */\n      dup2\n        /* \"#utility.yul\":11099:11119   */\n      sub\n        /* \"#utility.yul\":11095:11096   */\n      0x00\n        /* \"#utility.yul\":11084:11093   */\n      dup4\n        /* \"#utility.yul\":11080:11097   */\n      add\n        /* \"#utility.yul\":11073:11120   */\n      mstore\n        /* \"#utility.yul\":11137:11268   */\n      tag_252\n        /* \"#utility.yul\":11263:11267   */\n      dup2\n        /* \"#utility.yul\":11137:11268   */\n      tag_202\n      jump\t// in\n    tag_252:\n        /* \"#utility.yul\":11129:11268   */\n      swap1\n      pop\n        /* \"#utility.yul\":10856:11275   */\n      swap2\n      swap1\n      pop\n      jump\t// out\n        /* \"#utility.yul\":11281:11700   */\n    tag_56:\n        /* \"#utility.yul\":11447:11451   */\n      0x00\n        /* \"#utility.yul\":11485:11487   */\n      0x20\n        /* \"#utility.yul\":11474:11483   */\n      dup3\n        /* \"#utility.yul\":11470:11488   */\n      add\n        /* \"#utility.yul\":11462:11488   */\n      swap1\n      pop\n        /* \"#utility.yul\":11534:11543   */\n      dup2\n        /* \"#utility.yul\":11528:11532   */\n      dup2\n        /* \"#utility.yul\":11524:11544   */\n      sub\n        /* \"#utility.yul\":11520:11521   */\n      0x00\n        /* \"#utility.yul\":11509:11518   */\n      dup4\n        /* \"#utility.yul\":11505:11522   */\n      add\n        /* \"#utility.yul\":11498:11545   */\n      mstore\n        /* \"#utility.yul\":11562:11693   */\n      tag_254\n        /* \"#utility.yul\":11688:11692   */\n      dup2\n        /* \"#utility.yul\":11562:11693   */\n      tag_207\n      jump\t// in\n    tag_254:\n        /* \"#utility.yul\":11554:11693   */\n      swap1\n      pop\n        /* \"#utility.yul\":11281:11700   */\n      swap2\n      swap1\n      pop\n      jump\t// out\n        /* \"#utility.yul\":11706:12125   */\n    tag_67:\n        /* \"#utility.yul\":11872:11876   */\n      0x00\n        /* \"#utility.yul\":11910:11912   */\n      0x20\n        /* \"#utility.yul\":11899:11908   */\n      dup3\n        /* \"#utility.yul\":11895:11913   */\n      add\n        /* \"#utility.yul\":11887:11913   */\n      swap1\n      pop\n        /* \"#utility.yul\":11959:11968   */\n      dup2\n        /* \"#utility.yul\":11953:11957   */\n      dup2\n        /* \"#utility.yul\":11949:11969   */\n      sub\n        /* \"#utility.yul\":11945:11946   */\n      0x00\n        /* \"#utility.yul\":11934:11943   */\n      dup4\n        /* \"#utility.yul\":11930:11947   */\n      add\n        /* \"#utility.yul\":11923:11970   */\n      mstore\n        /* \"#utility.yul\":11987:12118   */\n      tag_256\n        /* \"#utility.yul\":12113:12117   */\n      dup2\n        /* \"#utility.yul\":11987:12118   */\n      tag_212\n      jump\t// in\n    tag_256:\n        /* \"#utility.yul\":11979:12118   */\n      swap1\n      pop\n        /* \"#utility.yul\":11706:12125   */\n      swap2\n      swap1\n      pop\n      jump\t// out\n        /* \"#utility.yul\":12131:12550   */\n    tag_75:\n        /* \"#utility.yul\":12297:12301   */\n      0x00\n        /* \"#utility.yul\":12335:12337   */\n      0x20\n        /* \"#utility.yul\":12324:12333   */\n      dup3\n        /* \"#utility.yul\":12320:12338   */\n      add\n        /* \"#utility.yul\":12312:12338   */\n      swap1\n      pop\n        /* \"#utility.yul\":12384:12393   */\n      dup2\n        /* \"#utility.yul\":12378:12382   */\n      dup2\n        /* \"#utility.yul\":12374:12394   */\n      sub\n        /* \"#utility.yul\":12370:12371   */\n      0x00\n        /* \"#utility.yul\":12359:12368   */\n      dup4\n        /* \"#utility.yul\":12355:12372   */\n      add\n        /* \"#utility.yul\":12348:12395   */\n      mstore\n        /* \"#utility.yul\":12412:12543   */\n      tag_258\n        /* \"#utility.yul\":12538:12542   */\n      dup2\n        /* \"#utility.yul\":12412:12543   */\n      tag_217\n      jump\t// in\n    tag_258:\n        /* \"#utility.yul\":12404:12543   */\n      swap1\n      pop\n        /* \"#utility.yul\":12131:12550   */\n      swap2\n      swap1\n      pop\n      jump\t// out\n        /* \"#utility.yul\":12556:12975   */\n    tag_96:\n        /* \"#utility.yul\":12722:12726   */\n      0x00\n        /* \"#utility.yul\":12760:12762   */\n      0x20\n        /* \"#utility.yul\":12749:12758   */\n      dup3\n        /* \"#utility.yul\":12745:12763   */\n      add\n        /* \"#utility.yul\":12737:12763   */\n      swap1\n      pop\n        /* \"#utility.yul\":12809:12818   */\n      dup2\n        /* \"#utility.yul\":12803:12807   */\n      dup2\n        /* \"#utility.yul\":12799:12819   */\n      sub\n        /* \"#utility.yul\":12795:12796   */\n      0x00\n        /* \"#utility.yul\":12784:12793   */\n      dup4\n        /* \"#utility.yul\":12780:12797   */\n      add\n        /* \"#utility.yul\":12773:12820   */\n      mstore\n        /* \"#utility.yul\":12837:12968   */\n      tag_260\n        /* \"#utility.yul\":12963:12967   */\n      dup2\n        /* \"#utility.yul\":12837:12968   */\n      tag_222\n      jump\t// in\n    tag_260:\n        /* \"#utility.yul\":12829:12968   */\n      swap1\n      pop\n        /* \"#utility.yul\":12556:12975   */\n      swap2\n      swap1\n      pop\n      jump\t// out\n        /* \"#utility.yul\":12981:13400   */\n    tag_93:\n        /* \"#utility.yul\":13147:13151   */\n      0x00\n        /* \"#utility.yul\":13185:13187   */\n      0x20\n        /* \"#utility.yul\":13174:13183   */\n      dup3\n        /* \"#utility.yul\":13170:13188   */\n      add\n        /* \"#utility.yul\":13162:13188   */\n      swap1\n      pop\n        /* \"#utility.yul\":13234:13243   */\n      dup2\n        /* \"#utility.yul\":13228:13232   */\n      dup2\n        /* \"#utility.yul\":13224:13244   */\n      sub\n        /* \"#utility.yul\":13220:13221   */\n      0x00\n        /* \"#utility.yul\":13209:13218   */\n      dup4\n        /* \"#utility.yul\":13205:13222   */\n      add\n        /* \"#utility.yul\":13198:13245   */\n      mstore\n        /* \"#utility.yul\":13262:13393   */\n      tag_262\n        /* \"#utility.yul\":13388:13392   */\n      dup2\n        /* \"#utility.yul\":13262:13393   */\n      tag_227\n      jump\t// in\n    tag_262:\n        /* \"#utility.yul\":13254:13393   */\n      swap1\n      pop\n        /* \"#utility.yul\":12981:13400   */\n      swap2\n      swap1\n      pop\n      jump\t// out\n        /* \"#utility.yul\":13406:13628   */\n    tag_22:\n        /* \"#utility.yul\":13499:13503   */\n      0x00\n        /* \"#utility.yul\":13537:13539   */\n      0x20\n        /* \"#utility.yul\":13526:13535   */\n      dup3\n        /* \"#utility.yul\":13522:13540   */\n      add\n        /* \"#utility.yul\":13514:13540   */\n      swap1\n      pop\n        /* \"#utility.yul\":13550:13621   */\n      tag_264\n        /* \"#utility.yul\":13618:13619   */\n      0x00\n        /* \"#utility.yul\":13607:13616   */\n      dup4\n        /* \"#utility.yul\":13603:13620   */\n      add\n        /* \"#utility.yul\":13594:13600   */\n      dup5\n        /* \"#utility.yul\":13550:13621   */\n      tag_232\n      jump\t// in\n    tag_264:\n        /* \"#utility.yul\":13406:13628   */\n      swap3\n      swap2\n      pop\n      pop\n      jump\t// out\n        /* \"#utility.yul\":13634:13763   */\n    tag_117:\n        /* \"#utility.yul\":13668:13674   */\n      0x00\n        /* \"#utility.yul\":13695:13715   */\n      tag_266\n      tag_267\n      jump\t// in\n    tag_266:\n        /* \"#utility.yul\":13685:13715   */\n      swap1\n      pop\n        /* \"#utility.yul\":13724:13757   */\n      tag_268\n        /* \"#utility.yul\":13752:13756   */\n      dup3\n        /* \"#utility.yul\":13744:13750   */\n      dup3\n        /* \"#utility.yul\":13724:13757   */\n      tag_269\n      jump\t// in\n    tag_268:\n        /* \"#utility.yul\":13634:13763   */\n      swap2\n      swap1\n      pop\n      jump\t// out\n        /* \"#utility.yul\":13769:13844   */\n    tag_267:\n        /* \"#utility.yul\":13802:13808   */\n      0x00\n        /* \"#utility.yul\":13835:13837   */\n      0x40\n        /* \"#utility.yul\":13829:13838   */\n      mload\n        /* \"#utility.yul\":13819:13838   */\n      swap1\n      pop\n        /* \"#utility.yul\":13769:13844   */\n      swap1\n      jump\t// out\n        /* \"#utility.yul\":13850:14158   */\n    tag_116:\n        /* \"#utility.yul\":13912:13916   */\n      0x00\n        /* \"#utility.yul\":14002:14020   */\n      0xffffffffffffffff\n        /* \"#utility.yul\":13994:14000   */\n      dup3\n        /* \"#utility.yul\":13991:14021   */\n      gt\n        /* \"#utility.yul\":13988:14044   */\n      iszero\n      tag_272\n      jumpi\n        /* \"#utility.yul\":14024:14042   */\n      tag_273\n      tag_274\n      jump\t// in\n    tag_273:\n        /* \"#utility.yul\":13988:14044   */\n    tag_272:\n        /* \"#utility.yul\":14062:14091   */\n      tag_275\n        /* \"#utility.yul\":14084:14090   */\n      dup3\n        /* \"#utility.yul\":14062:14091   */\n      tag_181\n      jump\t// in\n    tag_275:\n        /* \"#utility.yul\":14054:14091   */\n      swap1\n      pop\n        /* \"#utility.yul\":14146:14150   */\n      0x20\n        /* \"#utility.yul\":14140:14144   */\n      dup2\n        /* \"#utility.yul\":14136:14151   */\n      add\n        /* \"#utility.yul\":14128:14151   */\n      swap1\n      pop\n        /* \"#utility.yul\":13850:14158   */\n      swap2\n      swap1\n      pop\n      jump\t// out\n        /* \"#utility.yul\":14164:14263   */\n    tag_175:\n        /* \"#utility.yul\":14216:14222   */\n      0x00\n        /* \"#utility.yul\":14250:14255   */\n      dup2\n        /* \"#utility.yul\":14244:14256   */\n      mload\n        /* \"#utility.yul\":14234:14256   */\n      swap1\n      pop\n        /* \"#utility.yul\":14164:14263   */\n      swap2\n      swap1\n      pop\n      jump\t// out\n        /* \"#utility.yul\":14269:14438   */\n    tag_177:\n        /* \"#utility.yul\":14353:14364   */\n      0x00\n        /* \"#utility.yul\":14387:14393   */\n      dup3\n        /* \"#utility.yul\":14382:14385   */\n      dup3\n        /* \"#utility.yul\":14375:14394   */\n      mstore\n        /* \"#utility.yul\":14427:14431   */\n      0x20\n        /* \"#utility.yul\":14422:14425   */\n      dup3\n        /* \"#utility.yul\":14418:14432   */\n      add\n        /* \"#utility.yul\":14403:14432   */\n      swap1\n      pop\n        /* \"#utility.yul\":14269:14438   */\n      swap3\n      swap2\n      pop\n      pop\n      jump\t// out\n        /* \"#utility.yul\":14444:14749   */\n    tag_71:\n        /* \"#utility.yul\":14484:14487   */\n      0x00\n        /* \"#utility.yul\":14503:14523   */\n      tag_279\n        /* \"#utility.yul\":14521:14522   */\n      dup3\n        /* \"#utility.yul\":14503:14523   */\n      tag_235\n      jump\t// in\n    tag_279:\n        /* \"#utility.yul\":14498:14523   */\n      swap2\n      pop\n        /* \"#utility.yul\":14537:14557   */\n      tag_280\n        /* \"#utility.yul\":14555:14556   */\n      dup4\n        /* \"#utility.yul\":14537:14557   */\n      tag_235\n      jump\t// in\n    tag_280:\n        /* \"#utility.yul\":14532:14557   */\n      swap3\n      pop\n        /* \"#utility.yul\":14691:14692   */\n      dup3\n        /* \"#utility.yul\":14623:14689   */\n      0xffffffffffffffffffffffffffffffffffffffffffffffffffffffffffffffff\n        /* \"#utility.yul\":14619:14693   */\n      sub\n        /* \"#utility.yul\":14616:14617   */\n      dup3\n        /* \"#utility.yul\":14613:14694   */\n      gt\n        /* \"#utility.yul\":14610:14717   */\n      iszero\n      tag_281\n      jumpi\n        /* \"#utility.yul\":14697:14715   */\n      tag_282\n      tag_283\n      jump\t// in\n    tag_282:\n        /* \"#utility.yul\":14610:14717   */\n    tag_281:\n        /* \"#utility.yul\":14741:14742   */\n      dup3\n        /* \"#utility.yul\":14738:14739   */\n      dup3\n        /* \"#utility.yul\":14734:14743   */\n      add\n        /* \"#utility.yul\":14727:14743   */\n      swap1\n      pop\n        /* \"#utility.yul\":14444:14749   */\n      swap3\n      swap2\n      pop\n      pop\n      jump\t// out\n        /* \"#utility.yul\":14755:15103   */\n    tag_61:\n        /* \"#utility.yul\":14795:14802   */\n      0x00\n        /* \"#utility.yul\":14818:14838   */\n      tag_285\n        /* \"#utility.yul\":14836:14837   */\n      dup3\n        /* \"#utility.yul\":14818:14838   */\n      tag_235\n      jump\t// in\n    tag_285:\n        /* \"#utility.yul\":14813:14838   */\n      swap2\n      pop\n        /* \"#utility.yul\":14852:14872   */\n      tag_286\n        /* \"#utility.yul\":14870:14871   */\n      dup4\n        /* \"#utility.yul\":14852:14872   */\n      tag_235\n      jump\t// in\n    tag_286:\n        /* \"#utility.yul\":14847:14872   */\n      swap3\n      pop\n        /* \"#utility.yul\":15040:15041   */\n      dup2\n        /* \"#utility.yul\":14972:15038   */\n      0xffffffffffffffffffffffffffffffffffffffffffffffffffffffffffffffff\n        /* \"#utility.yul\":14968:15042   */\n      div\n        /* \"#utility.yul\":14965:14966   */\n      dup4\n        /* \"#utility.yul\":14962:15043   */\n      gt\n        /* \"#utility.yul\":14957:14958   */\n      dup3\n        /* \"#utility.yul\":14950:14959   */\n      iszero\n        /* \"#utility.yul\":14943:14960   */\n      iszero\n        /* \"#utility.yul\":14939:15044   */\n      and\n        /* \"#utility.yul\":14936:15067   */\n      iszero\n      tag_287\n      jumpi\n        /* \"#utility.yul\":15047:15065   */\n      tag_288\n      tag_283\n      jump\t// in\n    tag_288:\n        /* \"#utility.yul\":14936:15067   */\n    tag_287:\n        /* \"#utility.yul\":15095:15096   */\n      dup3\n        /* \"#utility.yul\":15092:15093   */\n      dup3\n        /* \"#utility.yul\":15088:15097   */\n      mul\n        /* \"#utility.yul\":15077:15097   */\n      swap1\n      pop\n        /* \"#utility.yul\":14755:15103   */\n      swap3\n      swap2\n      pop\n      pop\n      jump\t// out\n        /* \"#utility.yul\":15109:15300   */\n    tag_69:\n        /* \"#utility.yul\":15149:15153   */\n      0x00\n        /* \"#utility.yul\":15169:15189   */\n      tag_290\n        /* \"#utility.yul\":15187:15188   */\n      dup3\n        /* \"#utility.yul\":15169:15189   */\n      tag_235\n      jump\t// in\n    tag_290:\n        /* \"#utility.yul\":15164:15189   */\n      swap2\n      pop\n        /* \"#utility.yul\":15203:15223   */\n      tag_291\n        /* \"#utility.yul\":15221:15222   */\n      dup4\n        /* \"#utility.yul\":15203:15223   */\n      tag_235\n      jump\t// in\n    tag_291:\n        /* \"#utility.yul\":15198:15223   */\n      swap3\n      pop\n        /* \"#utility.yul\":15242:15243   */\n      dup3\n        /* \"#utility.yul\":15239:15240   */\n      dup3\n        /* \"#utility.yul\":15236:15244   */\n      lt\n        /* \"#utility.yul\":15233:15267   */\n      iszero\n      tag_292\n      jumpi\n        /* \"#utility.yul\":15247:15265   */\n      tag_293\n      tag_283\n      jump\t// in\n    tag_293:\n        /* \"#utility.yul\":15233:15267   */\n    tag_292:\n        /* \"#utility.yul\":15292:15293   */\n      dup3\n        /* \"#utility.yul\":15289:15290   */\n      dup3\n        /* \"#utility.yul\":15285:15294   */\n      sub\n        /* \"#utility.yul\":15277:15294   */\n      swap1\n      pop\n        /* \"#utility.yul\":15109:15300   */\n      swap3\n      swap2\n      pop\n      pop\n      jump\t// out\n        /* \"#utility.yul\":15306:15402   */\n    tag_171:\n        /* \"#utility.yul\":15343:15350   */\n      0x00\n        /* \"#utility.yul\":15372:15396   */\n      tag_295\n        /* \"#utility.yul\":15390:15395   */\n      dup3\n        /* \"#utility.yul\":15372:15396   */\n      tag_296\n      jump\t// in\n    tag_295:\n        /* \"#utility.yul\":15361:15396   */\n      swap1\n      pop\n        /* \"#utility.yul\":15306:15402   */\n      swap2\n      swap1\n      pop\n      jump\t// out\n        /* \"#utility.yul\":15408:15534   */\n    tag_296:\n        /* \"#utility.yul\":15445:15452   */\n      0x00\n        /* \"#utility.yul\":15485:15527   */\n      0xffffffffffffffffffffffffffffffffffffffff\n        /* \"#utility.yul\":15478:15483   */\n      dup3\n        /* \"#utility.yul\":15474:15528   */\n      and\n        /* \"#utility.yul\":15463:15528   */\n      swap1\n      pop\n        /* \"#utility.yul\":15408:15534   */\n      swap2\n      swap1\n      pop\n      jump\t// out\n        /* \"#utility.yul\":15540:15617   */\n    tag_235:\n        /* \"#utility.yul\":15577:15584   */\n      0x00\n        /* \"#utility.yul\":15606:15611   */\n      dup2\n        /* \"#utility.yul\":15595:15611   */\n      swap1\n      pop\n        /* \"#utility.yul\":15540:15617   */\n      swap2\n      swap1\n      pop\n      jump\t// out\n        /* \"#utility.yul\":15623:15777   */\n    tag_122:\n        /* \"#utility.yul\":15707:15713   */\n      dup3\n        /* \"#utility.yul\":15702:15705   */\n      dup2\n        /* \"#utility.yul\":15697:15700   */\n      dup4\n        /* \"#utility.yul\":15684:15714   */\n      calldatacopy\n        /* \"#utility.yul\":15769:15770   */\n      0x00\n        /* \"#utility.yul\":15760:15766   */\n      dup4\n        /* \"#utility.yul\":15755:15758   */\n      dup4\n        /* \"#utility.yul\":15751:15767   */\n      add\n        /* \"#utility.yul\":15744:15771   */\n      mstore\n        /* \"#utility.yul\":15623:15777   */\n      pop\n      pop\n      pop\n      jump\t// out\n        /* \"#utility.yul\":15783:16090   */\n    tag_179:\n        /* \"#utility.yul\":15851:15852   */\n      0x00\n        /* \"#utility.yul\":15861:15974   */\n    tag_301:\n        /* \"#utility.yul\":15875:15881   */\n      dup4\n        /* \"#utility.yul\":15872:15873   */\n      dup2\n        /* \"#utility.yul\":15869:15882   */\n      lt\n        /* \"#utility.yul\":15861:15974   */\n      iszero\n      tag_303\n      jumpi\n        /* \"#utility.yul\":15960:15961   */\n      dup1\n        /* \"#utility.yul\":15955:15958   */\n      dup3\n        /* \"#utility.yul\":15951:15962   */\n      add\n        /* \"#utility.yul\":15945:15963   */\n      mload\n        /* \"#utility.yul\":15941:15942   */\n      dup2\n        /* \"#utility.yul\":15936:15939   */\n      dup5\n        /* \"#utility.yul\":15932:15943   */\n      add\n        /* \"#utility.yul\":15925:15964   */\n      mstore\n        /* \"#utility.yul\":15897:15899   */\n      0x20\n        /* \"#utility.yul\":15894:15895   */\n      dup2\n        /* \"#utility.yul\":15890:15900   */\n      add\n        /* \"#utility.yul\":15885:15900   */\n      swap1\n      pop\n        /* \"#utility.yul\":15861:15974   */\n      jump(tag_301)\n    tag_303:\n        /* \"#utility.yul\":15992:15998   */\n      dup4\n        /* \"#utility.yul\":15989:15990   */\n      dup2\n        /* \"#utility.yul\":15986:15999   */\n      gt\n        /* \"#utility.yul\":15983:16084   */\n      iszero\n      tag_304\n      jumpi\n        /* \"#utility.yul\":16072:16073   */\n      0x00\n        /* \"#utility.yul\":16063:16069   */\n      dup5\n        /* \"#utility.yul\":16058:16061   */\n      dup5\n        /* \"#utility.yul\":16054:16070   */\n      add\n        /* \"#utility.yul\":16047:16074   */\n      mstore\n        /* \"#utility.yul\":15983:16084   */\n    tag_304:\n        /* \"#utility.yul\":15832:16090   */\n      pop\n        /* \"#utility.yul\":15783:16090   */\n      pop\n      pop\n      pop\n      jump\t// out\n        /* \"#utility.yul\":16096:16416   */\n    tag_48:\n        /* \"#utility.yul\":16140:16146   */\n      0x00\n        /* \"#utility.yul\":16177:16178   */\n      0x02\n        /* \"#utility.yul\":16171:16175   */\n      dup3\n        /* \"#utility.yul\":16167:16179   */\n      div\n        /* \"#utility.yul\":16157:16179   */\n      swap1\n      pop\n        /* \"#utility.yul\":16224:16225   */\n      0x01\n        /* \"#utility.yul\":16218:16222   */\n      dup3\n        /* \"#utility.yul\":16214:16226   */\n      and\n        /* \"#utility.yul\":16245:16263   */\n      dup1\n        /* \"#utility.yul\":16235:16316   */\n      tag_306\n      jumpi\n        /* \"#utility.yul\":16301:16305   */\n      0x7f\n        /* \"#utility.yul\":16293:16299   */\n      dup3\n        /* \"#utility.yul\":16289:16306   */\n      and\n        /* \"#utility.yul\":16279:16306   */\n      swap2\n      pop\n        /* \"#utility.yul\":16235:16316   */\n    tag_306:\n        /* \"#utility.yul\":16363:16365   */\n      0x20\n        /* \"#utility.yul\":16355:16361   */\n      dup3\n        /* \"#utility.yul\":16352:16366   */\n      lt\n        /* \"#utility.yul\":16332:16350   */\n      dup2\n        /* \"#utility.yul\":16329:16367   */\n      eq\n        /* \"#utility.yul\":16326:16410   */\n      iszero\n      tag_307\n      jumpi\n        /* \"#utility.yul\":16382:16400   */\n      tag_308\n      tag_309\n      jump\t// in\n    tag_308:\n        /* \"#utility.yul\":16326:16410   */\n    tag_307:\n        /* \"#utility.yul\":16147:16416   */\n      pop\n        /* \"#utility.yul\":16096:16416   */\n      swap2\n      swap1\n      pop\n      jump\t// out\n        /* \"#utility.yul\":16422:16703   */\n    tag_269:\n        /* \"#utility.yul\":16505:16532   */\n      tag_311\n        /* \"#utility.yul\":16527:16531   */\n      dup3\n        /* \"#utility.yul\":16505:16532   */\n      tag_181\n      jump\t// in\n    tag_311:\n        /* \"#utility.yul\":16497:16503   */\n      dup2\n        /* \"#utility.yul\":16493:16533   */\n      add\n        /* \"#utility.yul\":16635:16641   */\n      dup2\n        /* \"#utility.yul\":16623:16633   */\n      dup2\n        /* \"#utility.yul\":16620:16642   */\n      lt\n        /* \"#utility.yul\":16599:16617   */\n      0xffffffffffffffff\n        /* \"#utility.yul\":16587:16597   */\n      dup3\n        /* \"#utility.yul\":16584:16618   */\n      gt\n        /* \"#utility.yul\":16581:16643   */\n      or\n        /* \"#utility.yul\":16578:16666   */\n      iszero\n      tag_312\n      jumpi\n        /* \"#utility.yul\":16646:16664   */\n      tag_313\n      tag_274\n      jump\t// in\n    tag_313:\n        /* \"#utility.yul\":16578:16666   */\n    tag_312:\n        /* \"#utility.yul\":16686:16696   */\n      dup1\n        /* \"#utility.yul\":16682:16684   */\n      0x40\n        /* \"#utility.yul\":16675:16697   */\n      mstore\n        /* \"#utility.yul\":16465:16703   */\n      pop\n        /* \"#utility.yul\":16422:16703   */\n      pop\n      pop\n      jump\t// out\n        /* \"#utility.yul\":16709:16942   */\n    tag_100:\n        /* \"#utility.yul\":16748:16751   */\n      0x00\n        /* \"#utility.yul\":16771:16795   */\n      tag_315\n        /* \"#utility.yul\":16789:16794   */\n      dup3\n        /* \"#utility.yul\":16771:16795   */\n      tag_235\n      jump\t// in\n    tag_315:\n        /* \"#utility.yul\":16762:16795   */\n      swap2\n      pop\n        /* \"#utility.yul\":16817:16883   */\n      0xffffffffffffffffffffffffffffffffffffffffffffffffffffffffffffffff\n        /* \"#utility.yul\":16810:16815   */\n      dup3\n        /* \"#utility.yul\":16807:16884   */\n      eq\n        /* \"#utility.yul\":16804:16907   */\n      iszero\n      tag_316\n      jumpi\n        /* \"#utility.yul\":16887:16905   */\n      tag_317\n      tag_283\n      jump\t// in\n    tag_317:\n        /* \"#utility.yul\":16804:16907   */\n    tag_316:\n        /* \"#utility.yul\":16934:16935   */\n      0x01\n        /* \"#utility.yul\":16927:16932   */\n      dup3\n        /* \"#utility.yul\":16923:16936   */\n      add\n        /* \"#utility.yul\":16916:16936   */\n      swap1\n      pop\n        /* \"#utility.yul\":16709:16942   */\n      swap2\n      swap1\n      pop\n      jump\t// out\n        /* \"#utility.yul\":16948:17128   */\n    tag_283:\n        /* \"#utility.yul\":16996:17073   */\n      0x4e487b7100000000000000000000000000000000000000000000000000000000\n        /* \"#utility.yul\":16993:16994   */\n      0x00\n        /* \"#utility.yul\":16986:17074   */\n      mstore\n        /* \"#utility.yul\":17093:17097   */\n      0x11\n        /* \"#utility.yul\":17090:17091   */\n      0x04\n        /* \"#utility.yul\":17083:17098   */\n      mstore\n        /* \"#utility.yul\":17117:17121   */\n      0x24\n        /* \"#utility.yul\":17114:17115   */\n      0x00\n        /* \"#utility.yul\":17107:17122   */\n      revert\n        /* \"#utility.yul\":17134:17314   */\n    tag_309:\n        /* \"#utility.yul\":17182:17259   */\n      0x4e487b7100000000000000000000000000000000000000000000000000000000\n        /* \"#utility.yul\":17179:17180   */\n      0x00\n        /* \"#utility.yul\":17172:17260   */\n      mstore\n        /* \"#utility.yul\":17279:17283   */\n      0x22\n        /* \"#utility.yul\":17276:17277   */\n      0x04\n        /* \"#utility.yul\":17269:17284   */\n      mstore\n        /* \"#utility.yul\":17303:17307   */\n      0x24\n        /* \"#utility.yul\":17300:17301   */\n      0x00\n        /* \"#utility.yul\":17293:17308   */\n      revert\n        /* \"#utility.yul\":17320:17500   */\n    tag_274:\n        /* \"#utility.yul\":17368:17445   */\n      0x4e487b7100000000000000000000000000000000000000000000000000000000\n        /* \"#utility.yul\":17365:17366   */\n      0x00\n        /* \"#utility.yul\":17358:17446   */\n      mstore\n        /* \"#utility.yul\":17465:17469   */\n      0x41\n        /* \"#utility.yul\":17462:17463   */\n      0x04\n        /* \"#utility.yul\":17455:17470   */\n      mstore\n        /* \"#utility.yul\":17489:17493   */\n      0x24\n        /* \"#utility.yul\":17486:17487   */\n      0x00\n        /* \"#utility.yul\":17479:17494   */\n      revert\n        /* \"#utility.yul\":17506:17623   */\n    tag_131:\n        /* \"#utility.yul\":17615:17616   */\n      0x00\n        /* \"#utility.yul\":17612:17613   */\n      dup1\n        /* \"#utility.yul\":17605:17617   */\n      revert\n        /* \"#utility.yul\":17629:17746   */\n    tag_120:\n        /* \"#utility.yul\":17738:17739   */\n      0x00\n        /* \"#utility.yul\":17735:17736   */\n      dup1\n        /* \"#utility.yul\":17728:17740   */\n      revert\n        /* \"#utility.yul\":17752:17869   */\n    tag_153:\n        /* \"#utility.yul\":17861:17862   */\n      0x00\n        /* \"#utility.yul\":17858:17859   */\n      dup1\n        /* \"#utility.yul\":17851:17863   */\n      revert\n        /* \"#utility.yul\":17875:17992   */\n    tag_140:\n        /* \"#utility.yul\":17984:17985   */\n      0x00\n        /* \"#utility.yul\":17981:17982   */\n      dup1\n        /* \"#utility.yul\":17974:17986   */\n      revert\n        /* \"#utility.yul\":17998:18100   */\n    tag_181:\n        /* \"#utility.yul\":18039:18045   */\n      0x00\n        /* \"#utility.yul\":18090:18092   */\n      0x1f\n        /* \"#utility.yul\":18086:18093   */\n      not\n        /* \"#utility.yul\":18081:18083   */\n      0x1f\n        /* \"#utility.yul\":18074:18079   */\n      dup4\n        /* \"#utility.yul\":18070:18084   */\n      add\n        /* \"#utility.yul\":18066:18094   */\n      and\n        /* \"#utility.yul\":18056:18094   */\n      swap1\n      pop\n        /* \"#utility.yul\":17998:18100   */\n      swap2\n      swap1\n      pop\n      jump\t// out\n        /* \"#utility.yul\":18106:18277   */\n    tag_186:\n        /* \"#utility.yul\":18246:18269   */\n      0x457468657273206973206e6f7420656e6f756768210000000000000000000000\n        /* \"#utility.yul\":18242:18243   */\n      0x00\n        /* \"#utility.yul\":18234:18240   */\n      dup3\n        /* \"#utility.yul\":18230:18244   */\n      add\n        /* \"#utility.yul\":18223:18270   */\n      mstore\n        /* \"#utility.yul\":18106:18277   */\n      pop\n      jump\t// out\n        /* \"#utility.yul\":18283:18511   */\n    tag_191:\n        /* \"#utility.yul\":18423:18457   */\n      0x596f7520646f6e2774206861766520656e6f756768207469636b657420746f20\n        /* \"#utility.yul\":18419:18420   */\n      0x00\n        /* \"#utility.yul\":18411:18417   */\n      dup3\n        /* \"#utility.yul\":18407:18421   */\n      add\n        /* \"#utility.yul\":18400:18458   */\n      mstore\n        /* \"#utility.yul\":18492:18503   */\n      0x7472616e73666572210000000000000000000000000000000000000000000000\n        /* \"#utility.yul\":18487:18489   */\n      0x20\n        /* \"#utility.yul\":18479:18485   */\n      dup3\n        /* \"#utility.yul\":18475:18490   */\n      add\n        /* \"#utility.yul\":18468:18504   */\n      mstore\n        /* \"#utility.yul\":18283:18511   */\n      pop\n      jump\t// out\n        /* \"#utility.yul\":18517:18689   */\n    tag_196:\n        /* \"#utility.yul\":18657:18681   */\n      0x4576656e7420616c7265616479206f6363757265642100000000000000000000\n        /* \"#utility.yul\":18653:18654   */\n      0x00\n        /* \"#utility.yul\":18645:18651   */\n      dup3\n        /* \"#utility.yul\":18641:18655   */\n      add\n        /* \"#utility.yul\":18634:18682   */\n      mstore\n        /* \"#utility.yul\":18517:18689   */\n      pop\n      jump\t// out\n        /* \"#utility.yul\":18695:18874   */\n    tag_201:\n        /* \"#utility.yul\":18835:18866   */\n      0x596f752063616e206e6f742063616e63656c2074686973206576656e74000000\n        /* \"#utility.yul\":18831:18832   */\n      0x00\n        /* \"#utility.yul\":18823:18829   */\n      dup3\n        /* \"#utility.yul\":18819:18833   */\n      add\n        /* \"#utility.yul\":18812:18867   */\n      mstore\n        /* \"#utility.yul\":18695:18874   */\n      pop\n      jump\t// out\n        /* \"#utility.yul\":18880:19053   */\n    tag_206:\n        /* \"#utility.yul\":19020:19045   */\n      0x4576656e7420626f6f6b696e6720697320636c6f736521000000000000000000\n        /* \"#utility.yul\":19016:19017   */\n      0x00\n        /* \"#utility.yul\":19008:19014   */\n      dup3\n        /* \"#utility.yul\":19004:19018   */\n      add\n        /* \"#utility.yul\":18997:19046   */\n      mstore\n        /* \"#utility.yul\":18880:19053   */\n      pop\n      jump\t// out\n        /* \"#utility.yul\":19059:19230   */\n    tag_211:\n        /* \"#utility.yul\":19199:19222   */\n      0x4576656e7420646f6573206e6f74206578697374210000000000000000000000\n        /* \"#utility.yul\":19195:19196   */\n      0x00\n        /* \"#utility.yul\":19187:19193   */\n      dup3\n        /* \"#utility.yul\":19183:19197   */\n      add\n        /* \"#utility.yul\":19176:19223   */\n      mstore\n        /* \"#utility.yul\":19059:19230   */\n      pop\n      jump\t// out\n        /* \"#utility.yul\":19236:19415   */\n    tag_216:\n        /* \"#utility.yul\":19376:19407   */\n      0x576520646f6e2774206861766520656e6f756768207469636b65747321000000\n        /* \"#utility.yul\":19372:19373   */\n      0x00\n        /* \"#utility.yul\":19364:19370   */\n      dup3\n        /* \"#utility.yul\":19360:19374   */\n      add\n        /* \"#utility.yul\":19353:19408   */\n      mstore\n        /* \"#utility.yul\":19236:19415   */\n      pop\n      jump\t// out\n        /* \"#utility.yul\":19421:19592   */\n    tag_221:\n        /* \"#utility.yul\":19561:19584   */\n      0x4576656e7420616c7265616479206f6363757265640000000000000000000000\n        /* \"#utility.yul\":19557:19558   */\n      0x00\n        /* \"#utility.yul\":19549:19555   */\n      dup3\n        /* \"#utility.yul\":19545:19559   */\n      add\n        /* \"#utility.yul\":19538:19585   */\n      mstore\n        /* \"#utility.yul\":19421:19592   */\n      pop\n      jump\t// out\n        /* \"#utility.yul\":19598:19818   */\n    tag_226:\n        /* \"#utility.yul\":19738:19772   */\n      0x4576656e74206d75737420686176652061746c656173742031207469636b6574\n        /* \"#utility.yul\":19734:19735   */\n      0x00\n        /* \"#utility.yul\":19726:19732   */\n      dup3\n        /* \"#utility.yul\":19722:19736   */\n      add\n        /* \"#utility.yul\":19715:19773   */\n      mstore\n        /* \"#utility.yul\":19807:19810   */\n      0x2100000000000000000000000000000000000000000000000000000000000000\n        /* \"#utility.yul\":19802:19804   */\n      0x20\n        /* \"#utility.yul\":19794:19800   */\n      dup3\n        /* \"#utility.yul\":19790:19805   */\n      add\n        /* \"#utility.yul\":19783:19811   */\n      mstore\n        /* \"#utility.yul\":19598:19818   */\n      pop\n      jump\t// out\n        /* \"#utility.yul\":19824:20045   */\n    tag_231:\n        /* \"#utility.yul\":19964:19998   */\n      0x596f752063616e206f7267616e697a65206576656e7420666f72206675747572\n        /* \"#utility.yul\":19960:19961   */\n      0x00\n        /* \"#utility.yul\":19952:19958   */\n      dup3\n        /* \"#utility.yul\":19948:19962   */\n      add\n        /* \"#utility.yul\":19941:19999   */\n      mstore\n        /* \"#utility.yul\":20033:20037   */\n      0x6521000000000000000000000000000000000000000000000000000000000000\n        /* \"#utility.yul\":20028:20030   */\n      0x20\n        /* \"#utility.yul\":20020:20026   */\n      dup3\n        /* \"#utility.yul\":20016:20031   */\n      add\n        /* \"#utility.yul\":20009:20038   */\n      mstore\n        /* \"#utility.yul\":19824:20045   */\n      pop\n      jump\t// out\n        /* \"#utility.yul\":20051:20173   */\n    tag_126:\n        /* \"#utility.yul\":20124:20148   */\n      tag_337\n        /* \"#utility.yul\":20142:20147   */\n      dup2\n        /* \"#utility.yul\":20124:20148   */\n      tag_171\n      jump\t// in\n    tag_337:\n        /* \"#utility.yul\":20117:20122   */\n      dup2\n        /* \"#utility.yul\":20114:20149   */\n      eq\n        /* \"#utility.yul\":20104:20167   */\n      tag_338\n      jumpi\n        /* \"#utility.yul\":20163:20164   */\n      0x00\n        /* \"#utility.yul\":20160:20161   */\n      dup1\n        /* \"#utility.yul\":20153:20165   */\n      revert\n        /* \"#utility.yul\":20104:20167   */\n    tag_338:\n        /* \"#utility.yul\":20051:20173   */\n      pop\n      jump\t// out\n        /* \"#utility.yul\":20179:20301   */\n    tag_136:\n        /* \"#utility.yul\":20252:20276   */\n      tag_340\n        /* \"#utility.yul\":20270:20275   */\n      dup2\n        /* \"#utility.yul\":20252:20276   */\n      tag_235\n      jump\t// in\n    tag_340:\n        /* \"#utility.yul\":20245:20250   */\n      dup2\n        /* \"#utility.yul\":20242:20277   */\n      eq\n        /* \"#utility.yul\":20232:20295   */\n      tag_341\n      jumpi\n        /* \"#utility.yul\":20291:20292   */\n      0x00\n        /* \"#utility.yul\":20288:20289   */\n      dup1\n        /* \"#utility.yul\":20281:20293   */\n      revert\n        /* \"#utility.yul\":20232:20295   */\n    tag_341:\n        /* \"#utility.yul\":20179:20301   */\n      pop\n      jump\t// out\n\n    auxdata: 0xa2646970667358221220f58aa194f18b91f877796e373fb5a2e1bdfc6bd5efe6cec932c544884bb2e56764736f6c63430008070033\n}\n",
				"bytecode": {
					"linkReferences": {},
					"object": "608060405234801561001057600080fd5b5061152c806100206000396000f3fe6080604052600436106100705760003560e01c8063b3cea2171161004e578063b3cea21714610110578063dae7a13c1461013b578063f086a09b14610178578063f93694fb146101a157610070565b80630b79143014610075578063298ec208146100b75780633f69babd146100e7575b600080fd5b34801561008157600080fd5b5061009c60048036038101906100979190610acf565b6101ca565b6040516100ae96959493929190610dc7565b60405180910390f35b6100d160048036038101906100cc9190610b7f565b6102ae565b6040516100de9190610f6f565b60405180910390f35b3480156100f357600080fd5b5061010e60048036038101906101099190610acf565b61047b565b005b34801561011c57600080fd5b50610125610593565b6040516101329190610f6f565b60405180910390f35b34801561014757600080fd5b50610162600480360381019061015d9190610a8f565b610599565b60405161016f9190610f6f565b60405180910390f35b34801561018457600080fd5b5061019f600480360381019061019a9190610bbf565b6105be565b005b3480156101ad57600080fd5b506101c860048036038101906101c39190610afc565b6107c9565b005b60006020528060005260406000206000915090508060000160009054906101000a900473ffffffffffffffffffffffffffffffffffffffff16908060010154908060020180546102199061115e565b80601f01602080910402602001604051908101604052809291908181526020018280546102459061115e565b80156102925780601f1061026757610100808354040283529160200191610292565b820191906000526020600020905b81548152906001019060200180831161027557829003601f168201915b5050505050908060030154908060040154908060050154905086565b600080600080848152602001908152602001600020905060008160010154141561030d576040517f08c379a000000000000000000000000000000000000000000000000000000000815260040161030490610ecf565b60405180910390fd5b42816001015411610353576040517f08c379a000000000000000000000000000000000000000000000000000000000815260040161034a90610eaf565b60405180910390fd5b348482600301546103649190611052565b146103a4576040517f08c379a000000000000000000000000000000000000000000000000000000000815260040161039b90610e2f565b60405180910390fd5b83816005015410156103eb576040517f08c379a00000000000000000000000000000000000000000000000000000000081526004016103e290610eef565b60405180910390fd5b838160050160008282546103ff91906110ac565b9250508190555083600160003373ffffffffffffffffffffffffffffffffffffffff1673ffffffffffffffffffffffffffffffffffffffff168152602001908152602001600020600085815260200190815260200160002060008282546104669190610ffc565b92505081905550806001015491505092915050565b4260008083815260200190815260200160002060010154116104d2576040517f08c379a00000000000000000000000000000000000000000000000000000000081526004016104c990610f0f565b60405180910390fd5b3373ffffffffffffffffffffffffffffffffffffffff1660008083815260200190815260200160002060000160009054906101000a900473ffffffffffffffffffffffffffffffffffffffff1673ffffffffffffffffffffffffffffffffffffffff1614610575576040517f08c379a000000000000000000000000000000000000000000000000000000000815260040161056c90610e8f565b60405180910390fd5b60008060008381526020019081526020016000206001018190555050565b60025481565b6001602052816000526040600020602052806000526040600020600091509150505481565b6000806000848152602001908152602001600020905060008160010154141561061c576040517f08c379a000000000000000000000000000000000000000000000000000000000815260040161061390610ecf565b60405180910390fd5b42816001015411610662576040517f08c379a000000000000000000000000000000000000000000000000000000000815260040161065990610e6f565b60405180910390fd5b83600160003373ffffffffffffffffffffffffffffffffffffffff1673ffffffffffffffffffffffffffffffffffffffff16815260200190815260200160002060008581526020019081526020016000205410156106f5576040517f08c379a00000000000000000000000000000000000000000000000000000000081526004016106ec90610e4f565b60405180910390fd5b83600160003373ffffffffffffffffffffffffffffffffffffffff1673ffffffffffffffffffffffffffffffffffffffff1681526020019081526020016000206000858152602001908152602001600020600082825461075591906110ac565b9250508190555083600160008473ffffffffffffffffffffffffffffffffffffffff1673ffffffffffffffffffffffffffffffffffffffff168152602001908152602001600020600085815260200190815260200160002060008282546107bc9190610ffc565b9250508190555050505050565b42841161080b576040517f08c379a000000000000000000000000000000000000000000000000000000000815260040161080290610f4f565b60405180910390fd5b6000811161084e576040517f08c379a000000000000000000000000000000000000000000000000000000000815260040161084590610f2f565b60405180910390fd5b6040518060c001604052803373ffffffffffffffffffffffffffffffffffffffff16815260200185815260200184815260200183815260200182815260200182815250600080600254815260200190815260200160002060008201518160000160006101000a81548173ffffffffffffffffffffffffffffffffffffffff021916908373ffffffffffffffffffffffffffffffffffffffff160217905550602082015181600101556040820151816002019080519060200190610912929190610952565b50606082015181600301556080820151816004015560a0820151816005015590505060026000815480929190610947906111c1565b919050555050505050565b82805461095e9061115e565b90600052602060002090601f01602090048101928261098057600085556109c7565b82601f1061099957805160ff19168380011785556109c7565b828001600101855582156109c7579182015b828111156109c65782518255916020019190600101906109ab565b5b5090506109d491906109d8565b5090565b5b808211156109f15760008160009055506001016109d9565b5090565b6000610a08610a0384610faf565b610f8a565b905082815260208101848484011115610a2457610a2361129c565b5b610a2f84828561111c565b509392505050565b600081359050610a46816114c8565b92915050565b600082601f830112610a6157610a60611297565b5b8135610a718482602086016109f5565b91505092915050565b600081359050610a89816114df565b92915050565b60008060408385031215610aa657610aa56112a6565b5b6000610ab485828601610a37565b9250506020610ac585828601610a7a565b9150509250929050565b600060208284031215610ae557610ae46112a6565b5b6000610af384828501610a7a565b91505092915050565b60008060008060808587031215610b1657610b156112a6565b5b6000610b2487828801610a7a565b945050602085013567ffffffffffffffff811115610b4557610b446112a1565b5b610b5187828801610a4c565b9350506040610b6287828801610a7a565b9250506060610b7387828801610a7a565b91505092959194509250565b60008060408385031215610b9657610b956112a6565b5b6000610ba485828601610a7a565b9250506020610bb585828601610a7a565b9150509250929050565b600080600060608486031215610bd857610bd76112a6565b5b6000610be686828701610a7a565b9350506020610bf786828701610a7a565b9250506040610c0886828701610a37565b9150509250925092565b610c1b816110e0565b82525050565b6000610c2c82610fe0565b610c368185610feb565b9350610c4681856020860161112b565b610c4f816112ab565b840191505092915050565b6000610c67601583610feb565b9150610c72826112bc565b602082019050919050565b6000610c8a602983610feb565b9150610c95826112e5565b604082019050919050565b6000610cad601683610feb565b9150610cb882611334565b602082019050919050565b6000610cd0601d83610feb565b9150610cdb8261135d565b602082019050919050565b6000610cf3601783610feb565b9150610cfe82611386565b602082019050919050565b6000610d16601583610feb565b9150610d21826113af565b602082019050919050565b6000610d39601d83610feb565b9150610d44826113d8565b602082019050919050565b6000610d5c601583610feb565b9150610d6782611401565b602082019050919050565b6000610d7f602183610feb565b9150610d8a8261142a565b604082019050919050565b6000610da2602283610feb565b9150610dad82611479565b604082019050919050565b610dc181611112565b82525050565b600060c082019050610ddc6000830189610c12565b610de96020830188610db8565b8181036040830152610dfb8187610c21565b9050610e0a6060830186610db8565b610e176080830185610db8565b610e2460a0830184610db8565b979650505050505050565b60006020820190508181036000830152610e4881610c5a565b9050919050565b60006020820190508181036000830152610e6881610c7d565b9050919050565b60006020820190508181036000830152610e8881610ca0565b9050919050565b60006020820190508181036000830152610ea881610cc3565b9050919050565b60006020820190508181036000830152610ec881610ce6565b9050919050565b60006020820190508181036000830152610ee881610d09565b9050919050565b60006020820190508181036000830152610f0881610d2c565b9050919050565b60006020820190508181036000830152610f2881610d4f565b9050919050565b60006020820190508181036000830152610f4881610d72565b9050919050565b60006020820190508181036000830152610f6881610d95565b9050919050565b6000602082019050610f846000830184610db8565b92915050565b6000610f94610fa5565b9050610fa08282611190565b919050565b6000604051905090565b600067ffffffffffffffff821115610fca57610fc9611268565b5b610fd3826112ab565b9050602081019050919050565b600081519050919050565b600082825260208201905092915050565b600061100782611112565b915061101283611112565b9250827fffffffffffffffffffffffffffffffffffffffffffffffffffffffffffffffff038211156110475761104661120a565b5b828201905092915050565b600061105d82611112565b915061106883611112565b9250817fffffffffffffffffffffffffffffffffffffffffffffffffffffffffffffffff04831182151516156110a1576110a061120a565b5b828202905092915050565b60006110b782611112565b91506110c283611112565b9250828210156110d5576110d461120a565b5b828203905092915050565b60006110eb826110f2565b9050919050565b600073ffffffffffffffffffffffffffffffffffffffff82169050919050565b6000819050919050565b82818337600083830152505050565b60005b8381101561114957808201518184015260208101905061112e565b83811115611158576000848401525b50505050565b6000600282049050600182168061117657607f821691505b6020821081141561118a57611189611239565b5b50919050565b611199826112ab565b810181811067ffffffffffffffff821117156111b8576111b7611268565b5b80604052505050565b60006111cc82611112565b91507fffffffffffffffffffffffffffffffffffffffffffffffffffffffffffffffff8214156111ff576111fe61120a565b5b600182019050919050565b7f4e487b7100000000000000000000000000000000000000000000000000000000600052601160045260246000fd5b7f4e487b7100000000000000000000000000000000000000000000000000000000600052602260045260246000fd5b7f4e487b7100000000000000000000000000000000000000000000000000000000600052604160045260246000fd5b600080fd5b600080fd5b600080fd5b600080fd5b6000601f19601f8301169050919050565b7f457468657273206973206e6f7420656e6f756768210000000000000000000000600082015250565b7f596f7520646f6e2774206861766520656e6f756768207469636b657420746f2060008201527f7472616e73666572210000000000000000000000000000000000000000000000602082015250565b7f4576656e7420616c7265616479206f6363757265642100000000000000000000600082015250565b7f596f752063616e206e6f742063616e63656c2074686973206576656e74000000600082015250565b7f4576656e7420626f6f6b696e6720697320636c6f736521000000000000000000600082015250565b7f4576656e7420646f6573206e6f74206578697374210000000000000000000000600082015250565b7f576520646f6e2774206861766520656e6f756768207469636b65747321000000600082015250565b7f4576656e7420616c7265616479206f6363757265640000000000000000000000600082015250565b7f4576656e74206d75737420686176652061746c656173742031207469636b657460008201527f2100000000000000000000000000000000000000000000000000000000000000602082015250565b7f596f752063616e206f7267616e697a65206576656e7420666f7220667574757260008201527f6521000000000000000000000000000000000000000000000000000000000000602082015250565b6114d1816110e0565b81146114dc57600080fd5b50565b6114e881611112565b81146114f357600080fd5b5056fea2646970667358221220f58aa194f18b91f877796e373fb5a2e1bdfc6bd5efe6cec932c544884bb2e56764736f6c63430008070033",
					"opcodes": "PUSH1 0x80 PUSH1 0x40 MSTORE CALLVALUE DUP1 ISZERO PUSH2 0x10 JUMPI PUSH1 0x0 DUP1 REVERT JUMPDEST POP PUSH2 0x152C DUP1 PUSH2 0x20 PUSH1 0x0 CODECOPY PUSH1 0x0 RETURN INVALID PUSH1 0x80 PUSH1 0x40 MSTORE PUSH1 0x4 CALLDATASIZE LT PUSH2 0x70 JUMPI PUSH1 0x0 CALLDATALOAD PUSH1 0xE0 SHR DUP1 PUSH4 0xB3CEA217 GT PUSH2 0x4E JUMPI DUP1 PUSH4 0xB3CEA217 EQ PUSH2 0x110 JUMPI DUP1 PUSH4 0xDAE7A13C EQ PUSH2 0x13B JUMPI DUP1 PUSH4 0xF086A09B EQ PUSH2 0x178 JUMPI DUP1 PUSH4 0xF93694FB EQ PUSH2 0x1A1 JUMPI PUSH2 0x70 JUMP JUMPDEST DUP1 PUSH4 0xB791430 EQ PUSH2 0x75 JUMPI DUP1 PUSH4 0x298EC208 EQ PUSH2 0xB7 JUMPI DUP1 PUSH4 0x3F69BABD EQ PUSH2 0xE7 JUMPI JUMPDEST PUSH1 0x0 DUP1 REVERT JUMPDEST CALLVALUE DUP1 ISZERO PUSH2 0x81 JUMPI PUSH1 0x0 DUP1 REVERT JUMPDEST POP PUSH2 0x9C PUSH1 0x4 DUP1 CALLDATASIZE SUB DUP2 ADD SWAP1 PUSH2 0x97 SWAP2 SWAP1 PUSH2 0xACF JUMP JUMPDEST PUSH2 0x1CA JUMP JUMPDEST PUSH1 0x40 MLOAD PUSH2 0xAE SWAP7 SWAP6 SWAP5 SWAP4 SWAP3 SWAP2 SWAP1 PUSH2 0xDC7 JUMP JUMPDEST PUSH1 0x40 MLOAD DUP1 SWAP2 SUB SWAP1 RETURN JUMPDEST PUSH2 0xD1 PUSH1 0x4 DUP1 CALLDATASIZE SUB DUP2 ADD SWAP1 PUSH2 0xCC SWAP2 SWAP1 PUSH2 0xB7F JUMP JUMPDEST PUSH2 0x2AE JUMP JUMPDEST PUSH1 0x40 MLOAD PUSH2 0xDE SWAP2 SWAP1 PUSH2 0xF6F JUMP JUMPDEST PUSH1 0x40 MLOAD DUP1 SWAP2 SUB SWAP1 RETURN JUMPDEST CALLVALUE DUP1 ISZERO PUSH2 0xF3 JUMPI PUSH1 0x0 DUP1 REVERT JUMPDEST POP PUSH2 0x10E PUSH1 0x4 DUP1 CALLDATASIZE SUB DUP2 ADD SWAP1 PUSH2 0x109 SWAP2 SWAP1 PUSH2 0xACF JUMP JUMPDEST PUSH2 0x47B JUMP JUMPDEST STOP JUMPDEST CALLVALUE DUP1 ISZERO PUSH2 0x11C JUMPI PUSH1 0x0 DUP1 REVERT JUMPDEST POP PUSH2 0x125 PUSH2 0x593 JUMP JUMPDEST PUSH1 0x40 MLOAD PUSH2 0x132 SWAP2 SWAP1 PUSH2 0xF6F JUMP JUMPDEST PUSH1 0x40 MLOAD DUP1 SWAP2 SUB SWAP1 RETURN JUMPDEST CALLVALUE DUP1 ISZERO PUSH2 0x147 JUMPI PUSH1 0x0 DUP1 REVERT JUMPDEST POP PUSH2 0x162 PUSH1 0x4 DUP1 CALLDATASIZE SUB DUP2 ADD SWAP1 PUSH2 0x15D SWAP2 SWAP1 PUSH2 0xA8F JUMP JUMPDEST PUSH2 0x599 JUMP JUMPDEST PUSH1 0x40 MLOAD PUSH2 0x16F SWAP2 SWAP1 PUSH2 0xF6F JUMP JUMPDEST PUSH1 0x40 MLOAD DUP1 SWAP2 SUB SWAP1 RETURN JUMPDEST CALLVALUE DUP1 ISZERO PUSH2 0x184 JUMPI PUSH1 0x0 DUP1 REVERT JUMPDEST POP PUSH2 0x19F PUSH1 0x4 DUP1 CALLDATASIZE SUB DUP2 ADD SWAP1 PUSH2 0x19A SWAP2 SWAP1 PUSH2 0xBBF JUMP JUMPDEST PUSH2 0x5BE JUMP JUMPDEST STOP JUMPDEST CALLVALUE DUP1 ISZERO PUSH2 0x1AD JUMPI PUSH1 0x0 DUP1 REVERT JUMPDEST POP PUSH2 0x1C8 PUSH1 0x4 DUP1 CALLDATASIZE SUB DUP2 ADD SWAP1 PUSH2 0x1C3 SWAP2 SWAP1 PUSH2 0xAFC JUMP JUMPDEST PUSH2 0x7C9 JUMP JUMPDEST STOP JUMPDEST PUSH1 0x0 PUSH1 0x20 MSTORE DUP1 PUSH1 0x0 MSTORE PUSH1 0x40 PUSH1 0x0 KECCAK256 PUSH1 0x0 SWAP2 POP SWAP1 POP DUP1 PUSH1 0x0 ADD PUSH1 0x0 SWAP1 SLOAD SWAP1 PUSH2 0x100 EXP SWAP1 DIV PUSH20 0xFFFFFFFFFFFFFFFFFFFFFFFFFFFFFFFFFFFFFFFF AND SWAP1 DUP1 PUSH1 0x1 ADD SLOAD SWAP1 DUP1 PUSH1 0x2 ADD DUP1 SLOAD PUSH2 0x219 SWAP1 PUSH2 0x115E JUMP JUMPDEST DUP1 PUSH1 0x1F ADD PUSH1 0x20 DUP1 SWAP2 DIV MUL PUSH1 0x20 ADD PUSH1 0x40 MLOAD SWAP1 DUP2 ADD PUSH1 0x40 MSTORE DUP1 SWAP3 SWAP2 SWAP1 DUP2 DUP2 MSTORE PUSH1 0x20 ADD DUP3 DUP1 SLOAD PUSH2 0x245 SWAP1 PUSH2 0x115E JUMP JUMPDEST DUP1 ISZERO PUSH2 0x292 JUMPI DUP1 PUSH1 0x1F LT PUSH2 0x267 JUMPI PUSH2 0x100 DUP1 DUP4 SLOAD DIV MUL DUP4 MSTORE SWAP2 PUSH1 0x20 ADD SWAP2 PUSH2 0x292 JUMP JUMPDEST DUP3 ADD SWAP2 SWAP1 PUSH1 0x0 MSTORE PUSH1 0x20 PUSH1 0x0 KECCAK256 SWAP1 JUMPDEST DUP2 SLOAD DUP2 MSTORE SWAP1 PUSH1 0x1 ADD SWAP1 PUSH1 0x20 ADD DUP1 DUP4 GT PUSH2 0x275 JUMPI DUP3 SWAP1 SUB PUSH1 0x1F AND DUP3 ADD SWAP2 JUMPDEST POP POP POP POP POP SWAP1 DUP1 PUSH1 0x3 ADD SLOAD SWAP1 DUP1 PUSH1 0x4 ADD SLOAD SWAP1 DUP1 PUSH1 0x5 ADD SLOAD SWAP1 POP DUP7 JUMP JUMPDEST PUSH1 0x0 DUP1 PUSH1 0x0 DUP1 DUP5 DUP2 MSTORE PUSH1 0x20 ADD SWAP1 DUP2 MSTORE PUSH1 0x20 ADD PUSH1 0x0 KECCAK256 SWAP1 POP PUSH1 0x0 DUP2 PUSH1 0x1 ADD SLOAD EQ ISZERO PUSH2 0x30D JUMPI PUSH1 0x40 MLOAD PUSH32 0x8C379A000000000000000000000000000000000000000000000000000000000 DUP2 MSTORE PUSH1 0x4 ADD PUSH2 0x304 SWAP1 PUSH2 0xECF JUMP JUMPDEST PUSH1 0x40 MLOAD DUP1 SWAP2 SUB SWAP1 REVERT JUMPDEST TIMESTAMP DUP2 PUSH1 0x1 ADD SLOAD GT PUSH2 0x353 JUMPI PUSH1 0x40 MLOAD PUSH32 0x8C379A000000000000000000000000000000000000000000000000000000000 DUP2 MSTORE PUSH1 0x4 ADD PUSH2 0x34A SWAP1 PUSH2 0xEAF JUMP JUMPDEST PUSH1 0x40 MLOAD DUP1 SWAP2 SUB SWAP1 REVERT JUMPDEST CALLVALUE DUP5 DUP3 PUSH1 0x3 ADD SLOAD PUSH2 0x364 SWAP2 SWAP1 PUSH2 0x1052 JUMP JUMPDEST EQ PUSH2 0x3A4 JUMPI PUSH1 0x40 MLOAD PUSH32 0x8C379A000000000000000000000000000000000000000000000000000000000 DUP2 MSTORE PUSH1 0x4 ADD PUSH2 0x39B SWAP1 PUSH2 0xE2F JUMP JUMPDEST PUSH1 0x40 MLOAD DUP1 SWAP2 SUB SWAP1 REVERT JUMPDEST DUP4 DUP2 PUSH1 0x5 ADD SLOAD LT ISZERO PUSH2 0x3EB JUMPI PUSH1 0x40 MLOAD PUSH32 0x8C379A000000000000000000000000000000000000000000000000000000000 DUP2 MSTORE PUSH1 0x4 ADD PUSH2 0x3E2 SWAP1 PUSH2 0xEEF JUMP JUMPDEST PUSH1 0x40 MLOAD DUP1 SWAP2 SUB SWAP1 REVERT JUMPDEST DUP4 DUP2 PUSH1 0x5 ADD PUSH1 0x0 DUP3 DUP3 SLOAD PUSH2 0x3FF SWAP2 SWAP1 PUSH2 0x10AC JUMP JUMPDEST SWAP3 POP POP DUP2 SWAP1 SSTORE POP DUP4 PUSH1 0x1 PUSH1 0x0 CALLER PUSH20 0xFFFFFFFFFFFFFFFFFFFFFFFFFFFFFFFFFFFFFFFF AND PUSH20 0xFFFFFFFFFFFFFFFFFFFFFFFFFFFFFFFFFFFFFFFF AND DUP2 MSTORE PUSH1 0x20 ADD SWAP1 DUP2 MSTORE PUSH1 0x20 ADD PUSH1 0x0 KECCAK256 PUSH1 0x0 DUP6 DUP2 MSTORE PUSH1 0x20 ADD SWAP1 DUP2 MSTORE PUSH1 0x20 ADD PUSH1 0x0 KECCAK256 PUSH1 0x0 DUP3 DUP3 SLOAD PUSH2 0x466 SWAP2 SWAP1 PUSH2 0xFFC JUMP JUMPDEST SWAP3 POP POP DUP2 SWAP1 SSTORE POP DUP1 PUSH1 0x1 ADD SLOAD SWAP2 POP POP SWAP3 SWAP2 POP POP JUMP JUMPDEST TIMESTAMP PUSH1 0x0 DUP1 DUP4 DUP2 MSTORE PUSH1 0x20 ADD SWAP1 DUP2 MSTORE PUSH1 0x20 ADD PUSH1 0x0 KECCAK256 PUSH1 0x1 ADD SLOAD GT PUSH2 0x4D2 JUMPI PUSH1 0x40 MLOAD PUSH32 0x8C379A000000000000000000000000000000000000000000000000000000000 DUP2 MSTORE PUSH1 0x4 ADD PUSH2 0x4C9 SWAP1 PUSH2 0xF0F JUMP JUMPDEST PUSH1 0x40 MLOAD DUP1 SWAP2 SUB SWAP1 REVERT JUMPDEST CALLER PUSH20 0xFFFFFFFFFFFFFFFFFFFFFFFFFFFFFFFFFFFFFFFF AND PUSH1 0x0 DUP1 DUP4 DUP2 MSTORE PUSH1 0x20 ADD SWAP1 DUP2 MSTORE PUSH1 0x20 ADD PUSH1 0x0 KECCAK256 PUSH1 0x0 ADD PUSH1 0x0 SWAP1 SLOAD SWAP1 PUSH2 0x100 EXP SWAP1 DIV PUSH20 0xFFFFFFFFFFFFFFFFFFFFFFFFFFFFFFFFFFFFFFFF AND PUSH20 0xFFFFFFFFFFFFFFFFFFFFFFFFFFFFFFFFFFFFFFFF AND EQ PUSH2 0x575 JUMPI PUSH1 0x40 MLOAD PUSH32 0x8C379A000000000000000000000000000000000000000000000000000000000 DUP2 MSTORE PUSH1 0x4 ADD PUSH2 0x56C SWAP1 PUSH2 0xE8F JUMP JUMPDEST PUSH1 0x40 MLOAD DUP1 SWAP2 SUB SWAP1 REVERT JUMPDEST PUSH1 0x0 DUP1 PUSH1 0x0 DUP4 DUP2 MSTORE PUSH1 0x20 ADD SWAP1 DUP2 MSTORE PUSH1 0x20 ADD PUSH1 0x0 KECCAK256 PUSH1 0x1 ADD DUP2 SWAP1 SSTORE POP POP JUMP JUMPDEST PUSH1 0x2 SLOAD DUP2 JUMP JUMPDEST PUSH1 0x1 PUSH1 0x20 MSTORE DUP2 PUSH1 0x0 MSTORE PUSH1 0x40 PUSH1 0x0 KECCAK256 PUSH1 0x20 MSTORE DUP1 PUSH1 0x0 MSTORE PUSH1 0x40 PUSH1 0x0 KECCAK256 PUSH1 0x0 SWAP2 POP SWAP2 POP POP SLOAD DUP2 JUMP JUMPDEST PUSH1 0x0 DUP1 PUSH1 0x0 DUP5 DUP2 MSTORE PUSH1 0x20 ADD SWAP1 DUP2 MSTORE PUSH1 0x20 ADD PUSH1 0x0 KECCAK256 SWAP1 POP PUSH1 0x0 DUP2 PUSH1 0x1 ADD SLOAD EQ ISZERO PUSH2 0x61C JUMPI PUSH1 0x40 MLOAD PUSH32 0x8C379A000000000000000000000000000000000000000000000000000000000 DUP2 MSTORE PUSH1 0x4 ADD PUSH2 0x613 SWAP1 PUSH2 0xECF JUMP JUMPDEST PUSH1 0x40 MLOAD DUP1 SWAP2 SUB SWAP1 REVERT JUMPDEST TIMESTAMP DUP2 PUSH1 0x1 ADD SLOAD GT PUSH2 0x662 JUMPI PUSH1 0x40 MLOAD PUSH32 0x8C379A000000000000000000000000000000000000000000000000000000000 DUP2 MSTORE PUSH1 0x4 ADD PUSH2 0x659 SWAP1 PUSH2 0xE6F JUMP JUMPDEST PUSH1 0x40 MLOAD DUP1 SWAP2 SUB SWAP1 REVERT JUMPDEST DUP4 PUSH1 0x1 PUSH1 0x0 CALLER PUSH20 0xFFFFFFFFFFFFFFFFFFFFFFFFFFFFFFFFFFFFFFFF AND PUSH20 0xFFFFFFFFFFFFFFFFFFFFFFFFFFFFFFFFFFFFFFFF AND DUP2 MSTORE PUSH1 0x20 ADD SWAP1 DUP2 MSTORE PUSH1 0x20 ADD PUSH1 0x0 KECCAK256 PUSH1 0x0 DUP6 DUP2 MSTORE PUSH1 0x20 ADD SWAP1 DUP2 MSTORE PUSH1 0x20 ADD PUSH1 0x0 KECCAK256 SLOAD LT ISZERO PUSH2 0x6F5 JUMPI PUSH1 0x40 MLOAD PUSH32 0x8C379A000000000000000000000000000000000000000000000000000000000 DUP2 MSTORE PUSH1 0x4 ADD PUSH2 0x6EC SWAP1 PUSH2 0xE4F JUMP JUMPDEST PUSH1 0x40 MLOAD DUP1 SWAP2 SUB SWAP1 REVERT JUMPDEST DUP4 PUSH1 0x1 PUSH1 0x0 CALLER PUSH20 0xFFFFFFFFFFFFFFFFFFFFFFFFFFFFFFFFFFFFFFFF AND PUSH20 0xFFFFFFFFFFFFFFFFFFFFFFFFFFFFFFFFFFFFFFFF AND DUP2 MSTORE PUSH1 0x20 ADD SWAP1 DUP2 MSTORE PUSH1 0x20 ADD PUSH1 0x0 KECCAK256 PUSH1 0x0 DUP6 DUP2 MSTORE PUSH1 0x20 ADD SWAP1 DUP2 MSTORE PUSH1 0x20 ADD PUSH1 0x0 KECCAK256 PUSH1 0x0 DUP3 DUP3 SLOAD PUSH2 0x755 SWAP2 SWAP1 PUSH2 0x10AC JUMP JUMPDEST SWAP3 POP POP DUP2 SWAP1 SSTORE POP DUP4 PUSH1 0x1 PUSH1 0x0 DUP5 PUSH20 0xFFFFFFFFFFFFFFFFFFFFFFFFFFFFFFFFFFFFFFFF AND PUSH20 0xFFFFFFFFFFFFFFFFFFFFFFFFFFFFFFFFFFFFFFFF AND DUP2 MSTORE PUSH1 0x20 ADD SWAP1 DUP2 MSTORE PUSH1 0x20 ADD PUSH1 0x0 KECCAK256 PUSH1 0x0 DUP6 DUP2 MSTORE PUSH1 0x20 ADD SWAP1 DUP2 MSTORE PUSH1 0x20 ADD PUSH1 0x0 KECCAK256 PUSH1 0x0 DUP3 DUP3 SLOAD PUSH2 0x7BC SWAP2 SWAP1 PUSH2 0xFFC JUMP JUMPDEST SWAP3 POP POP DUP2 SWAP1 SSTORE POP POP POP POP POP JUMP JUMPDEST TIMESTAMP DUP5 GT PUSH2 0x80B JUMPI PUSH1 0x40 MLOAD PUSH32 0x8C379A000000000000000000000000000000000000000000000000000000000 DUP2 MSTORE PUSH1 0x4 ADD PUSH2 0x802 SWAP1 PUSH2 0xF4F JUMP JUMPDEST PUSH1 0x40 MLOAD DUP1 SWAP2 SUB SWAP1 REVERT JUMPDEST PUSH1 0x0 DUP2 GT PUSH2 0x84E JUMPI PUSH1 0x40 MLOAD PUSH32 0x8C379A000000000000000000000000000000000000000000000000000000000 DUP2 MSTORE PUSH1 0x4 ADD PUSH2 0x845 SWAP1 PUSH2 0xF2F JUMP JUMPDEST PUSH1 0x40 MLOAD DUP1 SWAP2 SUB SWAP1 REVERT JUMPDEST PUSH1 0x40 MLOAD DUP1 PUSH1 0xC0 ADD PUSH1 0x40 MSTORE DUP1 CALLER PUSH20 0xFFFFFFFFFFFFFFFFFFFFFFFFFFFFFFFFFFFFFFFF AND DUP2 MSTORE PUSH1 0x20 ADD DUP6 DUP2 MSTORE PUSH1 0x20 ADD DUP5 DUP2 MSTORE PUSH1 0x20 ADD DUP4 DUP2 MSTORE PUSH1 0x20 ADD DUP3 DUP2 MSTORE PUSH1 0x20 ADD DUP3 DUP2 MSTORE POP PUSH1 0x0 DUP1 PUSH1 0x2 SLOAD DUP2 MSTORE PUSH1 0x20 ADD SWAP1 DUP2 MSTORE PUSH1 0x20 ADD PUSH1 0x0 KECCAK256 PUSH1 0x0 DUP3 ADD MLOAD DUP2 PUSH1 0x0 ADD PUSH1 0x0 PUSH2 0x100 EXP DUP2 SLOAD DUP2 PUSH20 0xFFFFFFFFFFFFFFFFFFFFFFFFFFFFFFFFFFFFFFFF MUL NOT AND SWAP1 DUP4 PUSH20 0xFFFFFFFFFFFFFFFFFFFFFFFFFFFFFFFFFFFFFFFF AND MUL OR SWAP1 SSTORE POP PUSH1 0x20 DUP3 ADD MLOAD DUP2 PUSH1 0x1 ADD SSTORE PUSH1 0x40 DUP3 ADD MLOAD DUP2 PUSH1 0x2 ADD SWAP1 DUP1 MLOAD SWAP1 PUSH1 0x20 ADD SWAP1 PUSH2 0x912 SWAP3 SWAP2 SWAP1 PUSH2 0x952 JUMP JUMPDEST POP PUSH1 0x60 DUP3 ADD MLOAD DUP2 PUSH1 0x3 ADD SSTORE PUSH1 0x80 DUP3 ADD MLOAD DUP2 PUSH1 0x4 ADD SSTORE PUSH1 0xA0 DUP3 ADD MLOAD DUP2 PUSH1 0x5 ADD SSTORE SWAP1 POP POP PUSH1 0x2 PUSH1 0x0 DUP2 SLOAD DUP1 SWAP3 SWAP2 SWAP1 PUSH2 0x947 SWAP1 PUSH2 0x11C1 JUMP JUMPDEST SWAP2 SWAP1 POP SSTORE POP POP POP POP POP JUMP JUMPDEST DUP3 DUP1 SLOAD PUSH2 0x95E SWAP1 PUSH2 0x115E JUMP JUMPDEST SWAP1 PUSH1 0x0 MSTORE PUSH1 0x20 PUSH1 0x0 KECCAK256 SWAP1 PUSH1 0x1F ADD PUSH1 0x20 SWAP1 DIV DUP2 ADD SWAP3 DUP3 PUSH2 0x980 JUMPI PUSH1 0x0 DUP6 SSTORE PUSH2 0x9C7 JUMP JUMPDEST DUP3 PUSH1 0x1F LT PUSH2 0x999 JUMPI DUP1 MLOAD PUSH1 0xFF NOT AND DUP4 DUP1 ADD OR DUP6 SSTORE PUSH2 0x9C7 JUMP JUMPDEST DUP3 DUP1 ADD PUSH1 0x1 ADD DUP6 SSTORE DUP3 ISZERO PUSH2 0x9C7 JUMPI SWAP2 DUP3 ADD JUMPDEST DUP3 DUP2 GT ISZERO PUSH2 0x9C6 JUMPI DUP3 MLOAD DUP3 SSTORE SWAP2 PUSH1 0x20 ADD SWAP2 SWAP1 PUSH1 0x1 ADD SWAP1 PUSH2 0x9AB JUMP JUMPDEST JUMPDEST POP SWAP1 POP PUSH2 0x9D4 SWAP2 SWAP1 PUSH2 0x9D8 JUMP JUMPDEST POP SWAP1 JUMP JUMPDEST JUMPDEST DUP1 DUP3 GT ISZERO PUSH2 0x9F1 JUMPI PUSH1 0x0 DUP2 PUSH1 0x0 SWAP1 SSTORE POP PUSH1 0x1 ADD PUSH2 0x9D9 JUMP JUMPDEST POP SWAP1 JUMP JUMPDEST PUSH1 0x0 PUSH2 0xA08 PUSH2 0xA03 DUP5 PUSH2 0xFAF JUMP JUMPDEST PUSH2 0xF8A JUMP JUMPDEST SWAP1 POP DUP3 DUP2 MSTORE PUSH1 0x20 DUP2 ADD DUP5 DUP5 DUP5 ADD GT ISZERO PUSH2 0xA24 JUMPI PUSH2 0xA23 PUSH2 0x129C JUMP JUMPDEST JUMPDEST PUSH2 0xA2F DUP5 DUP3 DUP6 PUSH2 0x111C JUMP JUMPDEST POP SWAP4 SWAP3 POP POP POP JUMP JUMPDEST PUSH1 0x0 DUP2 CALLDATALOAD SWAP1 POP PUSH2 0xA46 DUP2 PUSH2 0x14C8 JUMP JUMPDEST SWAP3 SWAP2 POP POP JUMP JUMPDEST PUSH1 0x0 DUP3 PUSH1 0x1F DUP4 ADD SLT PUSH2 0xA61 JUMPI PUSH2 0xA60 PUSH2 0x1297 JUMP JUMPDEST JUMPDEST DUP2 CALLDATALOAD PUSH2 0xA71 DUP5 DUP3 PUSH1 0x20 DUP7 ADD PUSH2 0x9F5 JUMP JUMPDEST SWAP2 POP POP SWAP3 SWAP2 POP POP JUMP JUMPDEST PUSH1 0x0 DUP2 CALLDATALOAD SWAP1 POP PUSH2 0xA89 DUP2 PUSH2 0x14DF JUMP JUMPDEST SWAP3 SWAP2 POP POP JUMP JUMPDEST PUSH1 0x0 DUP1 PUSH1 0x40 DUP4 DUP6 SUB SLT ISZERO PUSH2 0xAA6 JUMPI PUSH2 0xAA5 PUSH2 0x12A6 JUMP JUMPDEST JUMPDEST PUSH1 0x0 PUSH2 0xAB4 DUP6 DUP3 DUP7 ADD PUSH2 0xA37 JUMP JUMPDEST SWAP3 POP POP PUSH1 0x20 PUSH2 0xAC5 DUP6 DUP3 DUP7 ADD PUSH2 0xA7A JUMP JUMPDEST SWAP2 POP POP SWAP3 POP SWAP3 SWAP1 POP JUMP JUMPDEST PUSH1 0x0 PUSH1 0x20 DUP3 DUP5 SUB SLT ISZERO PUSH2 0xAE5 JUMPI PUSH2 0xAE4 PUSH2 0x12A6 JUMP JUMPDEST JUMPDEST PUSH1 0x0 PUSH2 0xAF3 DUP5 DUP3 DUP6 ADD PUSH2 0xA7A JUMP JUMPDEST SWAP2 POP POP SWAP3 SWAP2 POP POP JUMP JUMPDEST PUSH1 0x0 DUP1 PUSH1 0x0 DUP1 PUSH1 0x80 DUP6 DUP8 SUB SLT ISZERO PUSH2 0xB16 JUMPI PUSH2 0xB15 PUSH2 0x12A6 JUMP JUMPDEST JUMPDEST PUSH1 0x0 PUSH2 0xB24 DUP8 DUP3 DUP9 ADD PUSH2 0xA7A JUMP JUMPDEST SWAP5 POP POP PUSH1 0x20 DUP6 ADD CALLDATALOAD PUSH8 0xFFFFFFFFFFFFFFFF DUP2 GT ISZERO PUSH2 0xB45 JUMPI PUSH2 0xB44 PUSH2 0x12A1 JUMP JUMPDEST JUMPDEST PUSH2 0xB51 DUP8 DUP3 DUP9 ADD PUSH2 0xA4C JUMP JUMPDEST SWAP4 POP POP PUSH1 0x40 PUSH2 0xB62 DUP8 DUP3 DUP9 ADD PUSH2 0xA7A JUMP JUMPDEST SWAP3 POP POP PUSH1 0x60 PUSH2 0xB73 DUP8 DUP3 DUP9 ADD PUSH2 0xA7A JUMP JUMPDEST SWAP2 POP POP SWAP3 SWAP6 SWAP2 SWAP5 POP SWAP3 POP JUMP JUMPDEST PUSH1 0x0 DUP1 PUSH1 0x40 DUP4 DUP6 SUB SLT ISZERO PUSH2 0xB96 JUMPI PUSH2 0xB95 PUSH2 0x12A6 JUMP JUMPDEST JUMPDEST PUSH1 0x0 PUSH2 0xBA4 DUP6 DUP3 DUP7 ADD PUSH2 0xA7A JUMP JUMPDEST SWAP3 POP POP PUSH1 0x20 PUSH2 0xBB5 DUP6 DUP3 DUP7 ADD PUSH2 0xA7A JUMP JUMPDEST SWAP2 POP POP SWAP3 POP SWAP3 SWAP1 POP JUMP JUMPDEST PUSH1 0x0 DUP1 PUSH1 0x0 PUSH1 0x60 DUP5 DUP7 SUB SLT ISZERO PUSH2 0xBD8 JUMPI PUSH2 0xBD7 PUSH2 0x12A6 JUMP JUMPDEST JUMPDEST PUSH1 0x0 PUSH2 0xBE6 DUP7 DUP3 DUP8 ADD PUSH2 0xA7A JUMP JUMPDEST SWAP4 POP POP PUSH1 0x20 PUSH2 0xBF7 DUP7 DUP3 DUP8 ADD PUSH2 0xA7A JUMP JUMPDEST SWAP3 POP POP PUSH1 0x40 PUSH2 0xC08 DUP7 DUP3 DUP8 ADD PUSH2 0xA37 JUMP JUMPDEST SWAP2 POP POP SWAP3 POP SWAP3 POP SWAP3 JUMP JUMPDEST PUSH2 0xC1B DUP2 PUSH2 0x10E0 JUMP JUMPDEST DUP3 MSTORE POP POP JUMP JUMPDEST PUSH1 0x0 PUSH2 0xC2C DUP3 PUSH2 0xFE0 JUMP JUMPDEST PUSH2 0xC36 DUP2 DUP6 PUSH2 0xFEB JUMP JUMPDEST SWAP4 POP PUSH2 0xC46 DUP2 DUP6 PUSH1 0x20 DUP7 ADD PUSH2 0x112B JUMP JUMPDEST PUSH2 0xC4F DUP2 PUSH2 0x12AB JUMP JUMPDEST DUP5 ADD SWAP2 POP POP SWAP3 SWAP2 POP POP JUMP JUMPDEST PUSH1 0x0 PUSH2 0xC67 PUSH1 0x15 DUP4 PUSH2 0xFEB JUMP JUMPDEST SWAP2 POP PUSH2 0xC72 DUP3 PUSH2 0x12BC JUMP JUMPDEST PUSH1 0x20 DUP3 ADD SWAP1 POP SWAP2 SWAP1 POP JUMP JUMPDEST PUSH1 0x0 PUSH2 0xC8A PUSH1 0x29 DUP4 PUSH2 0xFEB JUMP JUMPDEST SWAP2 POP PUSH2 0xC95 DUP3 PUSH2 0x12E5 JUMP JUMPDEST PUSH1 0x40 DUP3 ADD SWAP1 POP SWAP2 SWAP1 POP JUMP JUMPDEST PUSH1 0x0 PUSH2 0xCAD PUSH1 0x16 DUP4 PUSH2 0xFEB JUMP JUMPDEST SWAP2 POP PUSH2 0xCB8 DUP3 PUSH2 0x1334 JUMP JUMPDEST PUSH1 0x20 DUP3 ADD SWAP1 POP SWAP2 SWAP1 POP JUMP JUMPDEST PUSH1 0x0 PUSH2 0xCD0 PUSH1 0x1D DUP4 PUSH2 0xFEB JUMP JUMPDEST SWAP2 POP PUSH2 0xCDB DUP3 PUSH2 0x135D JUMP JUMPDEST PUSH1 0x20 DUP3 ADD SWAP1 POP SWAP2 SWAP1 POP JUMP JUMPDEST PUSH1 0x0 PUSH2 0xCF3 PUSH1 0x17 DUP4 PUSH2 0xFEB JUMP JUMPDEST SWAP2 POP PUSH2 0xCFE DUP3 PUSH2 0x1386 JUMP JUMPDEST PUSH1 0x20 DUP3 ADD SWAP1 POP SWAP2 SWAP1 POP JUMP JUMPDEST PUSH1 0x0 PUSH2 0xD16 PUSH1 0x15 DUP4 PUSH2 0xFEB JUMP JUMPDEST SWAP2 POP PUSH2 0xD21 DUP3 PUSH2 0x13AF JUMP JUMPDEST PUSH1 0x20 DUP3 ADD SWAP1 POP SWAP2 SWAP1 POP JUMP JUMPDEST PUSH1 0x0 PUSH2 0xD39 PUSH1 0x1D DUP4 PUSH2 0xFEB JUMP JUMPDEST SWAP2 POP PUSH2 0xD44 DUP3 PUSH2 0x13D8 JUMP JUMPDEST PUSH1 0x20 DUP3 ADD SWAP1 POP SWAP2 SWAP1 POP JUMP JUMPDEST PUSH1 0x0 PUSH2 0xD5C PUSH1 0x15 DUP4 PUSH2 0xFEB JUMP JUMPDEST SWAP2 POP PUSH2 0xD67 DUP3 PUSH2 0x1401 JUMP JUMPDEST PUSH1 0x20 DUP3 ADD SWAP1 POP SWAP2 SWAP1 POP JUMP JUMPDEST PUSH1 0x0 PUSH2 0xD7F PUSH1 0x21 DUP4 PUSH2 0xFEB JUMP JUMPDEST SWAP2 POP PUSH2 0xD8A DUP3 PUSH2 0x142A JUMP JUMPDEST PUSH1 0x40 DUP3 ADD SWAP1 POP SWAP2 SWAP1 POP JUMP JUMPDEST PUSH1 0x0 PUSH2 0xDA2 PUSH1 0x22 DUP4 PUSH2 0xFEB JUMP JUMPDEST SWAP2 POP PUSH2 0xDAD DUP3 PUSH2 0x1479 JUMP JUMPDEST PUSH1 0x40 DUP3 ADD SWAP1 POP SWAP2 SWAP1 POP JUMP JUMPDEST PUSH2 0xDC1 DUP2 PUSH2 0x1112 JUMP JUMPDEST DUP3 MSTORE POP POP JUMP JUMPDEST PUSH1 0x0 PUSH1 0xC0 DUP3 ADD SWAP1 POP PUSH2 0xDDC PUSH1 0x0 DUP4 ADD DUP10 PUSH2 0xC12 JUMP JUMPDEST PUSH2 0xDE9 PUSH1 0x20 DUP4 ADD DUP9 PUSH2 0xDB8 JUMP JUMPDEST DUP2 DUP2 SUB PUSH1 0x40 DUP4 ADD MSTORE PUSH2 0xDFB DUP2 DUP8 PUSH2 0xC21 JUMP JUMPDEST SWAP1 POP PUSH2 0xE0A PUSH1 0x60 DUP4 ADD DUP7 PUSH2 0xDB8 JUMP JUMPDEST PUSH2 0xE17 PUSH1 0x80 DUP4 ADD DUP6 PUSH2 0xDB8 JUMP JUMPDEST PUSH2 0xE24 PUSH1 0xA0 DUP4 ADD DUP5 PUSH2 0xDB8 JUMP JUMPDEST SWAP8 SWAP7 POP POP POP POP POP POP POP JUMP JUMPDEST PUSH1 0x0 PUSH1 0x20 DUP3 ADD SWAP1 POP DUP2 DUP2 SUB PUSH1 0x0 DUP4 ADD MSTORE PUSH2 0xE48 DUP2 PUSH2 0xC5A JUMP JUMPDEST SWAP1 POP SWAP2 SWAP1 POP JUMP JUMPDEST PUSH1 0x0 PUSH1 0x20 DUP3 ADD SWAP1 POP DUP2 DUP2 SUB PUSH1 0x0 DUP4 ADD MSTORE PUSH2 0xE68 DUP2 PUSH2 0xC7D JUMP JUMPDEST SWAP1 POP SWAP2 SWAP1 POP JUMP JUMPDEST PUSH1 0x0 PUSH1 0x20 DUP3 ADD SWAP1 POP DUP2 DUP2 SUB PUSH1 0x0 DUP4 ADD MSTORE PUSH2 0xE88 DUP2 PUSH2 0xCA0 JUMP JUMPDEST SWAP1 POP SWAP2 SWAP1 POP JUMP JUMPDEST PUSH1 0x0 PUSH1 0x20 DUP3 ADD SWAP1 POP DUP2 DUP2 SUB PUSH1 0x0 DUP4 ADD MSTORE PUSH2 0xEA8 DUP2 PUSH2 0xCC3 JUMP JUMPDEST SWAP1 POP SWAP2 SWAP1 POP JUMP JUMPDEST PUSH1 0x0 PUSH1 0x20 DUP3 ADD SWAP1 POP DUP2 DUP2 SUB PUSH1 0x0 DUP4 ADD MSTORE PUSH2 0xEC8 DUP2 PUSH2 0xCE6 JUMP JUMPDEST SWAP1 POP SWAP2 SWAP1 POP JUMP JUMPDEST PUSH1 0x0 PUSH1 0x20 DUP3 ADD SWAP1 POP DUP2 DUP2 SUB PUSH1 0x0 DUP4 ADD MSTORE PUSH2 0xEE8 DUP2 PUSH2 0xD09 JUMP JUMPDEST SWAP1 POP SWAP2 SWAP1 POP JUMP JUMPDEST PUSH1 0x0 PUSH1 0x20 DUP3 ADD SWAP1 POP DUP2 DUP2 SUB PUSH1 0x0 DUP4 ADD MSTORE PUSH2 0xF08 DUP2 PUSH2 0xD2C JUMP JUMPDEST SWAP1 POP SWAP2 SWAP1 POP JUMP JUMPDEST PUSH1 0x0 PUSH1 0x20 DUP3 ADD SWAP1 POP DUP2 DUP2 SUB PUSH1 0x0 DUP4 ADD MSTORE PUSH2 0xF28 DUP2 PUSH2 0xD4F JUMP JUMPDEST SWAP1 POP SWAP2 SWAP1 POP JUMP JUMPDEST PUSH1 0x0 PUSH1 0x20 DUP3 ADD SWAP1 POP DUP2 DUP2 SUB PUSH1 0x0 DUP4 ADD MSTORE PUSH2 0xF48 DUP2 PUSH2 0xD72 JUMP JUMPDEST SWAP1 POP SWAP2 SWAP1 POP JUMP JUMPDEST PUSH1 0x0 PUSH1 0x20 DUP3 ADD SWAP1 POP DUP2 DUP2 SUB PUSH1 0x0 DUP4 ADD MSTORE PUSH2 0xF68 DUP2 PUSH2 0xD95 JUMP JUMPDEST SWAP1 POP SWAP2 SWAP1 POP JUMP JUMPDEST PUSH1 0x0 PUSH1 0x20 DUP3 ADD SWAP1 POP PUSH2 0xF84 PUSH1 0x0 DUP4 ADD DUP5 PUSH2 0xDB8 JUMP JUMPDEST SWAP3 SWAP2 POP POP JUMP JUMPDEST PUSH1 0x0 PUSH2 0xF94 PUSH2 0xFA5 JUMP JUMPDEST SWAP1 POP PUSH2 0xFA0 DUP3 DUP3 PUSH2 0x1190 JUMP JUMPDEST SWAP2 SWAP1 POP JUMP JUMPDEST PUSH1 0x0 PUSH1 0x40 MLOAD SWAP1 POP SWAP1 JUMP JUMPDEST PUSH1 0x0 PUSH8 0xFFFFFFFFFFFFFFFF DUP3 GT ISZERO PUSH2 0xFCA JUMPI PUSH2 0xFC9 PUSH2 0x1268 JUMP JUMPDEST JUMPDEST PUSH2 0xFD3 DUP3 PUSH2 0x12AB JUMP JUMPDEST SWAP1 POP PUSH1 0x20 DUP2 ADD SWAP1 POP SWAP2 SWAP1 POP JUMP JUMPDEST PUSH1 0x0 DUP2 MLOAD SWAP1 POP SWAP2 SWAP1 POP JUMP JUMPDEST PUSH1 0x0 DUP3 DUP3 MSTORE PUSH1 0x20 DUP3 ADD SWAP1 POP SWAP3 SWAP2 POP POP JUMP JUMPDEST PUSH1 0x0 PUSH2 0x1007 DUP3 PUSH2 0x1112 JUMP JUMPDEST SWAP2 POP PUSH2 0x1012 DUP4 PUSH2 0x1112 JUMP JUMPDEST SWAP3 POP DUP3 PUSH32 0xFFFFFFFFFFFFFFFFFFFFFFFFFFFFFFFFFFFFFFFFFFFFFFFFFFFFFFFFFFFFFFFF SUB DUP3 GT ISZERO PUSH2 0x1047 JUMPI PUSH2 0x1046 PUSH2 0x120A JUMP JUMPDEST JUMPDEST DUP3 DUP3 ADD SWAP1 POP SWAP3 SWAP2 POP POP JUMP JUMPDEST PUSH1 0x0 PUSH2 0x105D DUP3 PUSH2 0x1112 JUMP JUMPDEST SWAP2 POP PUSH2 0x1068 DUP4 PUSH2 0x1112 JUMP JUMPDEST SWAP3 POP DUP2 PUSH32 0xFFFFFFFFFFFFFFFFFFFFFFFFFFFFFFFFFFFFFFFFFFFFFFFFFFFFFFFFFFFFFFFF DIV DUP4 GT DUP3 ISZERO ISZERO AND ISZERO PUSH2 0x10A1 JUMPI PUSH2 0x10A0 PUSH2 0x120A JUMP JUMPDEST JUMPDEST DUP3 DUP3 MUL SWAP1 POP SWAP3 SWAP2 POP POP JUMP JUMPDEST PUSH1 0x0 PUSH2 0x10B7 DUP3 PUSH2 0x1112 JUMP JUMPDEST SWAP2 POP PUSH2 0x10C2 DUP4 PUSH2 0x1112 JUMP JUMPDEST SWAP3 POP DUP3 DUP3 LT ISZERO PUSH2 0x10D5 JUMPI PUSH2 0x10D4 PUSH2 0x120A JUMP JUMPDEST JUMPDEST DUP3 DUP3 SUB SWAP1 POP SWAP3 SWAP2 POP POP JUMP JUMPDEST PUSH1 0x0 PUSH2 0x10EB DUP3 PUSH2 0x10F2 JUMP JUMPDEST SWAP1 POP SWAP2 SWAP1 POP JUMP JUMPDEST PUSH1 0x0 PUSH20 0xFFFFFFFFFFFFFFFFFFFFFFFFFFFFFFFFFFFFFFFF DUP3 AND SWAP1 POP SWAP2 SWAP1 POP JUMP JUMPDEST PUSH1 0x0 DUP2 SWAP1 POP SWAP2 SWAP1 POP JUMP JUMPDEST DUP3 DUP2 DUP4 CALLDATACOPY PUSH1 0x0 DUP4 DUP4 ADD MSTORE POP POP POP JUMP JUMPDEST PUSH1 0x0 JUMPDEST DUP4 DUP2 LT ISZERO PUSH2 0x1149 JUMPI DUP1 DUP3 ADD MLOAD DUP2 DUP5 ADD MSTORE PUSH1 0x20 DUP2 ADD SWAP1 POP PUSH2 0x112E JUMP JUMPDEST DUP4 DUP2 GT ISZERO PUSH2 0x1158 JUMPI PUSH1 0x0 DUP5 DUP5 ADD MSTORE JUMPDEST POP POP POP POP JUMP JUMPDEST PUSH1 0x0 PUSH1 0x2 DUP3 DIV SWAP1 POP PUSH1 0x1 DUP3 AND DUP1 PUSH2 0x1176 JUMPI PUSH1 0x7F DUP3 AND SWAP2 POP JUMPDEST PUSH1 0x20 DUP3 LT DUP2 EQ ISZERO PUSH2 0x118A JUMPI PUSH2 0x1189 PUSH2 0x1239 JUMP JUMPDEST JUMPDEST POP SWAP2 SWAP1 POP JUMP JUMPDEST PUSH2 0x1199 DUP3 PUSH2 0x12AB JUMP JUMPDEST DUP2 ADD DUP2 DUP2 LT PUSH8 0xFFFFFFFFFFFFFFFF DUP3 GT OR ISZERO PUSH2 0x11B8 JUMPI PUSH2 0x11B7 PUSH2 0x1268 JUMP JUMPDEST JUMPDEST DUP1 PUSH1 0x40 MSTORE POP POP POP JUMP JUMPDEST PUSH1 0x0 PUSH2 0x11CC DUP3 PUSH2 0x1112 JUMP JUMPDEST SWAP2 POP PUSH32 0xFFFFFFFFFFFFFFFFFFFFFFFFFFFFFFFFFFFFFFFFFFFFFFFFFFFFFFFFFFFFFFFF DUP3 EQ ISZERO PUSH2 0x11FF JUMPI PUSH2 0x11FE PUSH2 0x120A JUMP JUMPDEST JUMPDEST PUSH1 0x1 DUP3 ADD SWAP1 POP SWAP2 SWAP1 POP JUMP JUMPDEST PUSH32 0x4E487B7100000000000000000000000000000000000000000000000000000000 PUSH1 0x0 MSTORE PUSH1 0x11 PUSH1 0x4 MSTORE PUSH1 0x24 PUSH1 0x0 REVERT JUMPDEST PUSH32 0x4E487B7100000000000000000000000000000000000000000000000000000000 PUSH1 0x0 MSTORE PUSH1 0x22 PUSH1 0x4 MSTORE PUSH1 0x24 PUSH1 0x0 REVERT JUMPDEST PUSH32 0x4E487B7100000000000000000000000000000000000000000000000000000000 PUSH1 0x0 MSTORE PUSH1 0x41 PUSH1 0x4 MSTORE PUSH1 0x24 PUSH1 0x0 REVERT JUMPDEST PUSH1 0x0 DUP1 REVERT JUMPDEST PUSH1 0x0 DUP1 REVERT JUMPDEST PUSH1 0x0 DUP1 REVERT JUMPDEST PUSH1 0x0 DUP1 REVERT JUMPDEST PUSH1 0x0 PUSH1 0x1F NOT PUSH1 0x1F DUP4 ADD AND SWAP1 POP SWAP2 SWAP1 POP JUMP JUMPDEST PUSH32 0x457468657273206973206E6F7420656E6F756768210000000000000000000000 PUSH1 0x0 DUP3 ADD MSTORE POP JUMP JUMPDEST PUSH32 0x596F7520646F6E2774206861766520656E6F756768207469636B657420746F20 PUSH1 0x0 DUP3 ADD MSTORE PUSH32 0x7472616E73666572210000000000000000000000000000000000000000000000 PUSH1 0x20 DUP3 ADD MSTORE POP JUMP JUMPDEST PUSH32 0x4576656E7420616C7265616479206F6363757265642100000000000000000000 PUSH1 0x0 DUP3 ADD MSTORE POP JUMP JUMPDEST PUSH32 0x596F752063616E206E6F742063616E63656C2074686973206576656E74000000 PUSH1 0x0 DUP3 ADD MSTORE POP JUMP JUMPDEST PUSH32 0x4576656E7420626F6F6B696E6720697320636C6F736521000000000000000000 PUSH1 0x0 DUP3 ADD MSTORE POP JUMP JUMPDEST PUSH32 0x4576656E7420646F6573206E6F74206578697374210000000000000000000000 PUSH1 0x0 DUP3 ADD MSTORE POP JUMP JUMPDEST PUSH32 0x576520646F6E2774206861766520656E6F756768207469636B65747321000000 PUSH1 0x0 DUP3 ADD MSTORE POP JUMP JUMPDEST PUSH32 0x4576656E7420616C7265616479206F6363757265640000000000000000000000 PUSH1 0x0 DUP3 ADD MSTORE POP JUMP JUMPDEST PUSH32 0x4576656E74206D75737420686176652061746C656173742031207469636B6574 PUSH1 0x0 DUP3 ADD MSTORE PUSH32 0x2100000000000000000000000000000000000000000000000000000000000000 PUSH1 0x20 DUP3 ADD MSTORE POP JUMP JUMPDEST PUSH32 0x596F752063616E206F7267616E697A65206576656E7420666F72206675747572 PUSH1 0x0 DUP3 ADD MSTORE PUSH32 0x6521000000000000000000000000000000000000000000000000000000000000 PUSH1 0x20 DUP3 ADD MSTORE POP JUMP JUMPDEST PUSH2 0x14D1 DUP2 PUSH2 0x10E0 JUMP JUMPDEST DUP2 EQ PUSH2 0x14DC JUMPI PUSH1 0x0 DUP1 REVERT JUMPDEST POP JUMP JUMPDEST PUSH2 0x14E8 DUP2 PUSH2 0x1112 JUMP JUMPDEST DUP2 EQ PUSH2 0x14F3 JUMPI PUSH1 0x0 DUP1 REVERT JUMPDEST POP JUMP INVALID LOG2 PUSH5 0x6970667358 0x22 SLT KECCAK256 CREATE2 DUP11 LOG1 SWAP5 CALL DUP12 SWAP2 0xF8 PUSH24 0x796E373FB5A2E1BDFC6BD5EFE6CEC932C544884BB2E56764 PUSH20 0x6F6C634300080700330000000000000000000000 "
				},
				"gasEstimates": {
					"creation": {
						"codeDepositCost": "1084000",
						"executionCost": "1127",
						"totalCost": "1085127"
					},
					"external": {
						"ID()": "2429",
						"buyTicket(uint256,uint256)": "infinite",
						"cancelEvent(uint256)": "10009",
						"createEvent(uint256,string,uint256,uint256)": "infinite",
						"events(uint256)": "infinite",
						"tickets(address,uint256)": "infinite",
						"transferTicket(uint256,uint256,address)": "infinite"
					}
				},
				"methodIdentifiers": {
					"ID()": "b3cea217",
					"buyTicket(uint256,uint256)": "298ec208",
					"cancelEvent(uint256)": "3f69babd",
					"createEvent(uint256,string,uint256,uint256)": "f93694fb",
					"events(uint256)": "0b791430",
					"tickets(address,uint256)": "dae7a13c",
					"transferTicket(uint256,uint256,address)": "f086a09b"
				}
			},
			"storageLayout": {
				"storage": [
					{
						"astId": 19,
						"contract": "contract/EventOrganizingContract.sol:EventOrganize",
						"label": "events",
						"offset": 0,
						"slot": "0",
						"type": "t_mapping(t_uint256,t_struct(Event)14_storage)"
					},
					{
						"astId": 25,
						"contract": "contract/EventOrganizingContract.sol:EventOrganize",
						"label": "tickets",
						"offset": 0,
						"slot": "1",
						"type": "t_mapping(t_address,t_mapping(t_uint256,t_uint256))"
					},
					{
						"astId": 27,
						"contract": "contract/EventOrganizingContract.sol:EventOrganize",
						"label": "ID",
						"offset": 0,
						"slot": "2",
						"type": "t_uint256"
					}
				],
				"types": {
					"t_address": {
						"encoding": "inplace",
						"label": "address",
						"numberOfBytes": "20"
					},
					"t_mapping(t_address,t_mapping(t_uint256,t_uint256))": {
						"encoding": "mapping",
						"key": "t_address",
						"label": "mapping(address => mapping(uint256 => uint256))",
						"numberOfBytes": "32",
						"value": "t_mapping(t_uint256,t_uint256)"
					},
					"t_mapping(t_uint256,t_struct(Event)14_storage)": {
						"encoding": "mapping",
						"key": "t_uint256",
						"label": "mapping(uint256 => struct EventOrganize.Event)",
						"numberOfBytes": "32",
						"value": "t_struct(Event)14_storage"
					},
					"t_mapping(t_uint256,t_uint256)": {
						"encoding": "mapping",
						"key": "t_uint256",
						"label": "mapping(uint256 => uint256)",
						"numberOfBytes": "32",
						"value": "t_uint256"
					},
					"t_string_storage": {
						"encoding": "bytes",
						"label": "string",
						"numberOfBytes": "32"
					},
					"t_struct(Event)14_storage": {
						"encoding": "inplace",
						"label": "struct EventOrganize.Event",
						"members": [
							{
								"astId": 3,
								"contract": "contract/EventOrganizingContract.sol:EventOrganize",
								"label": "organizer",
								"offset": 0,
								"slot": "0",
								"type": "t_address"
							},
							{
								"astId": 5,
								"contract": "contract/EventOrganizingContract.sol:EventOrganize",
								"label": "date",
								"offset": 0,
								"slot": "1",
								"type": "t_uint256"
							},
							{
								"astId": 7,
								"contract": "contract/EventOrganizingContract.sol:EventOrganize",
								"label": "name",
								"offset": 0,
								"slot": "2",
								"type": "t_string_storage"
							},
							{
								"astId": 9,
								"contract": "contract/EventOrganizingContract.sol:EventOrganize",
								"label": "price",
								"offset": 0,
								"slot": "3",
								"type": "t_uint256"
							},
							{
								"astId": 11,
								"contract": "contract/EventOrganizingContract.sol:EventOrganize",
								"label": "ticketCount",
								"offset": 0,
								"slot": "4",
								"type": "t_uint256"
							},
							{
								"astId": 13,
								"contract": "contract/EventOrganizingContract.sol:EventOrganize",
								"label": "ticketRemain",
								"offset": 0,
								"slot": "5",
								"type": "t_uint256"
							}
						],
						"numberOfBytes": "192"
					},
					"t_uint256": {
						"encoding": "inplace",
						"label": "uint256",
						"numberOfBytes": "32"
					}
				}
			},
			"userdoc": {
				"kind": "user",
				"methods": {},
				"version": 1
			}
		}
	}
}