{
	"contract/EventOrganizingContract.sol": {
		"EventOrganize": {
			"abi": [
				{
					"inputs": [],
					"name": "ID",
					"outputs": [
						{
							"internalType": "uint256",
							"name": "",
							"type": "uint256"
						}
					],
					"stateMutability": "view",
					"type": "function"
				},
				{
					"inputs": [
						{
							"internalType": "uint256",
							"name": "_date",
							"type": "uint256"
						},
						{
							"internalType": "string",
							"name": "",
							"type": "string"
						}
					],
					"name": "createEvent",
					"outputs": [],
					"stateMutability": "nonpayable",
					"type": "function"
				},
				{
					"inputs": [
						{
							"internalType": "uint256",
							"name": "",
							"type": "uint256"
						}
					],
					"name": "events",
					"outputs": [
						{
							"internalType": "address",
							"name": "organizer",
							"type": "address"
						},
						{
							"internalType": "uint256",
							"name": "date",
							"type": "uint256"
						},
						{
							"internalType": "string",
							"name": "name",
							"type": "string"
						},
						{
							"internalType": "uint256",
							"name": "price",
							"type": "uint256"
						},
						{
							"internalType": "uint256",
							"name": "tiketCount",
							"type": "uint256"
						},
						{
							"internalType": "uint256",
							"name": "tiketRemain",
							"type": "uint256"
						}
					],
					"stateMutability": "view",
					"type": "function"
				},
				{
					"inputs": [
						{
							"internalType": "address",
							"name": "",
							"type": "address"
						},
						{
							"internalType": "uint256",
							"name": "",
							"type": "uint256"
						}
					],
					"name": "tickets",
					"outputs": [
						{
							"internalType": "uint256",
							"name": "",
							"type": "uint256"
						}
					],
					"stateMutability": "view",
					"type": "function"
				}
			],
			"devdoc": {
				"kind": "dev",
				"methods": {},
				"version": 1
			},
			"evm": {
				"assembly": "    /* \"contract/EventOrganizingContract.sol\":62:479  contract EventOrganize {\r... */\n  mstore(0x40, 0x80)\n  callvalue\n  dup1\n  iszero\n  tag_1\n  jumpi\n  0x00\n  dup1\n  revert\ntag_1:\n  pop\n  dataSize(sub_0)\n  dup1\n  dataOffset(sub_0)\n  0x00\n  codecopy\n  0x00\n  return\nstop\n\nsub_0: assembly {\n        /* \"contract/EventOrganizingContract.sol\":62:479  contract EventOrganize {\r... */\n      mstore(0x40, 0x80)\n      callvalue\n      dup1\n      iszero\n      tag_1\n      jumpi\n      0x00\n      dup1\n      revert\n    tag_1:\n      pop\n      jumpi(tag_2, lt(calldatasize, 0x04))\n      shr(0xe0, calldataload(0x00))\n      dup1\n      0x0b791430\n      eq\n      tag_3\n      jumpi\n      dup1\n      0xa1d255e1\n      eq\n      tag_4\n      jumpi\n      dup1\n      0xb3cea217\n      eq\n      tag_5\n      jumpi\n      dup1\n      0xdae7a13c\n      eq\n      tag_6\n      jumpi\n    tag_2:\n      0x00\n      dup1\n      revert\n        /* \"contract/EventOrganizingContract.sol\":267:304  mapping (uint => Event) public events */\n    tag_3:\n      tag_7\n      0x04\n      dup1\n      calldatasize\n      sub\n      dup2\n      add\n      swap1\n      tag_8\n      swap2\n      swap1\n      tag_9\n      jump\t// in\n    tag_8:\n      tag_10\n      jump\t// in\n    tag_7:\n      mload(0x40)\n      tag_11\n      swap7\n      swap6\n      swap5\n      swap4\n      swap3\n      swap2\n      swap1\n      tag_12\n      jump\t// in\n    tag_11:\n      mload(0x40)\n      dup1\n      swap2\n      sub\n      swap1\n      return\n        /* \"contract/EventOrganizingContract.sol\":402:474  function createEvent(uint _date, string memory) public{\r... */\n    tag_4:\n      tag_13\n      0x04\n      dup1\n      calldatasize\n      sub\n      dup2\n      add\n      swap1\n      tag_14\n      swap2\n      swap1\n      tag_15\n      jump\t// in\n    tag_14:\n      tag_16\n      jump\t// in\n    tag_13:\n      stop\n        /* \"contract/EventOrganizingContract.sol\":375:389  uint public ID */\n    tag_5:\n      tag_17\n      tag_18\n      jump\t// in\n    tag_17:\n      mload(0x40)\n      tag_19\n      swap2\n      swap1\n      tag_20\n      jump\t// in\n    tag_19:\n      mload(0x40)\n      dup1\n      swap2\n      sub\n      swap1\n      return\n        /* \"contract/EventOrganizingContract.sol\":311:368  mapping (address => mapping(uint => uint)) public tickets */\n    tag_6:\n      tag_21\n      0x04\n      dup1\n      calldatasize\n      sub\n      dup2\n      add\n      swap1\n      tag_22\n      swap2\n      swap1\n      tag_23\n      jump\t// in\n    tag_22:\n      tag_24\n      jump\t// in\n    tag_21:\n      mload(0x40)\n      tag_25\n      swap2\n      swap1\n      tag_20\n      jump\t// in\n    tag_25:\n      mload(0x40)\n      dup1\n      swap2\n      sub\n      swap1\n      return\n        /* \"contract/EventOrganizingContract.sol\":267:304  mapping (uint => Event) public events */\n    tag_10:\n      mstore(0x20, 0x00)\n      dup1\n      0x00\n      mstore\n      keccak256(0x00, 0x40)\n      0x00\n      swap2\n      pop\n      swap1\n      pop\n      dup1\n      0x00\n      add\n      0x00\n      swap1\n      sload\n      swap1\n      0x0100\n      exp\n      swap1\n      div\n      0xffffffffffffffffffffffffffffffffffffffff\n      and\n      swap1\n      dup1\n      0x01\n      add\n      sload\n      swap1\n      dup1\n      0x02\n      add\n      dup1\n      sload\n      tag_26\n      swap1\n      tag_27\n      jump\t// in\n    tag_26:\n      dup1\n      0x1f\n      add\n      0x20\n      dup1\n      swap2\n      div\n      mul\n      0x20\n      add\n      mload(0x40)\n      swap1\n      dup2\n      add\n      0x40\n      mstore\n      dup1\n      swap3\n      swap2\n      swap1\n      dup2\n      dup2\n      mstore\n      0x20\n      add\n      dup3\n      dup1\n      sload\n      tag_28\n      swap1\n      tag_27\n      jump\t// in\n    tag_28:\n      dup1\n      iszero\n      tag_29\n      jumpi\n      dup1\n      0x1f\n      lt\n      tag_30\n      jumpi\n      0x0100\n      dup1\n      dup4\n      sload\n      div\n      mul\n      dup4\n      mstore\n      swap2\n      0x20\n      add\n      swap2\n      jump(tag_29)\n    tag_30:\n      dup3\n      add\n      swap2\n      swap1\n      0x00\n      mstore\n      keccak256(0x00, 0x20)\n      swap1\n    tag_31:\n      dup2\n      sload\n      dup2\n      mstore\n      swap1\n      0x01\n      add\n      swap1\n      0x20\n      add\n      dup1\n      dup4\n      gt\n      tag_31\n      jumpi\n      dup3\n      swap1\n      sub\n      0x1f\n      and\n      dup3\n      add\n      swap2\n    tag_29:\n      pop\n      pop\n      pop\n      pop\n      pop\n      swap1\n      dup1\n      0x03\n      add\n      sload\n      swap1\n      dup1\n      0x04\n      add\n      sload\n      swap1\n      dup1\n      0x05\n      add\n      sload\n      swap1\n      pop\n      dup7\n      jump\t// out\n        /* \"contract/EventOrganizingContract.sol\":402:474  function createEvent(uint _date, string memory) public{\r... */\n    tag_16:\n      pop\n      pop\n      jump\t// out\n        /* \"contract/EventOrganizingContract.sol\":375:389  uint public ID */\n    tag_18:\n      sload(0x02)\n      dup2\n      jump\t// out\n        /* \"contract/EventOrganizingContract.sol\":311:368  mapping (address => mapping(uint => uint)) public tickets */\n    tag_24:\n      mstore(0x20, 0x01)\n      dup2\n      0x00\n      mstore\n      mstore(0x20, keccak256(0x00, 0x40))\n      dup1\n      0x00\n      mstore\n      keccak256(0x00, 0x40)\n      0x00\n      swap2\n      pop\n      swap2\n      pop\n      pop\n      sload\n      dup2\n      jump\t// out\n        /* \"#utility.yul\":7:419   */\n    tag_34:\n        /* \"#utility.yul\":85:90   */\n      0x00\n        /* \"#utility.yul\":110:176   */\n      tag_36\n        /* \"#utility.yul\":126:175   */\n      tag_37\n        /* \"#utility.yul\":168:174   */\n      dup5\n        /* \"#utility.yul\":126:175   */\n      tag_38\n      jump\t// in\n    tag_37:\n        /* \"#utility.yul\":110:176   */\n      tag_39\n      jump\t// in\n    tag_36:\n        /* \"#utility.yul\":101:176   */\n      swap1\n      pop\n        /* \"#utility.yul\":199:205   */\n      dup3\n        /* \"#utility.yul\":192:197   */\n      dup2\n        /* \"#utility.yul\":185:206   */\n      mstore\n        /* \"#utility.yul\":237:241   */\n      0x20\n        /* \"#utility.yul\":230:235   */\n      dup2\n        /* \"#utility.yul\":226:242   */\n      add\n        /* \"#utility.yul\":275:278   */\n      dup5\n        /* \"#utility.yul\":266:272   */\n      dup5\n        /* \"#utility.yul\":261:264   */\n      dup5\n        /* \"#utility.yul\":257:273   */\n      add\n        /* \"#utility.yul\":254:279   */\n      gt\n        /* \"#utility.yul\":251:363   */\n      iszero\n      tag_40\n      jumpi\n        /* \"#utility.yul\":282:361   */\n      tag_41\n      tag_42\n      jump\t// in\n    tag_41:\n        /* \"#utility.yul\":251:363   */\n    tag_40:\n        /* \"#utility.yul\":372:413   */\n      tag_43\n        /* \"#utility.yul\":406:412   */\n      dup5\n        /* \"#utility.yul\":401:404   */\n      dup3\n        /* \"#utility.yul\":396:399   */\n      dup6\n        /* \"#utility.yul\":372:413   */\n      tag_44\n      jump\t// in\n    tag_43:\n        /* \"#utility.yul\":91:419   */\n      pop\n        /* \"#utility.yul\":7:419   */\n      swap4\n      swap3\n      pop\n      pop\n      pop\n      jump\t// out\n        /* \"#utility.yul\":425:564   */\n    tag_45:\n        /* \"#utility.yul\":471:476   */\n      0x00\n        /* \"#utility.yul\":509:515   */\n      dup2\n        /* \"#utility.yul\":496:516   */\n      calldataload\n        /* \"#utility.yul\":487:516   */\n      swap1\n      pop\n        /* \"#utility.yul\":525:558   */\n      tag_47\n        /* \"#utility.yul\":552:557   */\n      dup2\n        /* \"#utility.yul\":525:558   */\n      tag_48\n      jump\t// in\n    tag_47:\n        /* \"#utility.yul\":425:564   */\n      swap3\n      swap2\n      pop\n      pop\n      jump\t// out\n        /* \"#utility.yul\":584:924   */\n    tag_49:\n        /* \"#utility.yul\":640:645   */\n      0x00\n        /* \"#utility.yul\":689:692   */\n      dup3\n        /* \"#utility.yul\":682:686   */\n      0x1f\n        /* \"#utility.yul\":674:680   */\n      dup4\n        /* \"#utility.yul\":670:687   */\n      add\n        /* \"#utility.yul\":666:693   */\n      slt\n        /* \"#utility.yul\":656:778   */\n      tag_51\n      jumpi\n        /* \"#utility.yul\":697:776   */\n      tag_52\n      tag_53\n      jump\t// in\n    tag_52:\n        /* \"#utility.yul\":656:778   */\n    tag_51:\n        /* \"#utility.yul\":814:820   */\n      dup2\n        /* \"#utility.yul\":801:821   */\n      calldataload\n        /* \"#utility.yul\":839:918   */\n      tag_54\n        /* \"#utility.yul\":914:917   */\n      dup5\n        /* \"#utility.yul\":906:912   */\n      dup3\n        /* \"#utility.yul\":899:903   */\n      0x20\n        /* \"#utility.yul\":891:897   */\n      dup7\n        /* \"#utility.yul\":887:904   */\n      add\n        /* \"#utility.yul\":839:918   */\n      tag_34\n      jump\t// in\n    tag_54:\n        /* \"#utility.yul\":830:918   */\n      swap2\n      pop\n        /* \"#utility.yul\":646:924   */\n      pop\n        /* \"#utility.yul\":584:924   */\n      swap3\n      swap2\n      pop\n      pop\n      jump\t// out\n        /* \"#utility.yul\":930:1069   */\n    tag_55:\n        /* \"#utility.yul\":976:981   */\n      0x00\n        /* \"#utility.yul\":1014:1020   */\n      dup2\n        /* \"#utility.yul\":1001:1021   */\n      calldataload\n        /* \"#utility.yul\":992:1021   */\n      swap1\n      pop\n        /* \"#utility.yul\":1030:1063   */\n      tag_57\n        /* \"#utility.yul\":1057:1062   */\n      dup2\n        /* \"#utility.yul\":1030:1063   */\n      tag_58\n      jump\t// in\n    tag_57:\n        /* \"#utility.yul\":930:1069   */\n      swap3\n      swap2\n      pop\n      pop\n      jump\t// out\n        /* \"#utility.yul\":1075:1549   */\n    tag_23:\n        /* \"#utility.yul\":1143:1149   */\n      0x00\n        /* \"#utility.yul\":1151:1157   */\n      dup1\n        /* \"#utility.yul\":1200:1202   */\n      0x40\n        /* \"#utility.yul\":1188:1197   */\n      dup4\n        /* \"#utility.yul\":1179:1186   */\n      dup6\n        /* \"#utility.yul\":1175:1198   */\n      sub\n        /* \"#utility.yul\":1171:1203   */\n      slt\n        /* \"#utility.yul\":1168:1287   */\n      iszero\n      tag_60\n      jumpi\n        /* \"#utility.yul\":1206:1285   */\n      tag_61\n      tag_62\n      jump\t// in\n    tag_61:\n        /* \"#utility.yul\":1168:1287   */\n    tag_60:\n        /* \"#utility.yul\":1326:1327   */\n      0x00\n        /* \"#utility.yul\":1351:1404   */\n      tag_63\n        /* \"#utility.yul\":1396:1403   */\n      dup6\n        /* \"#utility.yul\":1387:1393   */\n      dup3\n        /* \"#utility.yul\":1376:1385   */\n      dup7\n        /* \"#utility.yul\":1372:1394   */\n      add\n        /* \"#utility.yul\":1351:1404   */\n      tag_45\n      jump\t// in\n    tag_63:\n        /* \"#utility.yul\":1341:1404   */\n      swap3\n      pop\n        /* \"#utility.yul\":1297:1414   */\n      pop\n        /* \"#utility.yul\":1453:1455   */\n      0x20\n        /* \"#utility.yul\":1479:1532   */\n      tag_64\n        /* \"#utility.yul\":1524:1531   */\n      dup6\n        /* \"#utility.yul\":1515:1521   */\n      dup3\n        /* \"#utility.yul\":1504:1513   */\n      dup7\n        /* \"#utility.yul\":1500:1522   */\n      add\n        /* \"#utility.yul\":1479:1532   */\n      tag_55\n      jump\t// in\n    tag_64:\n        /* \"#utility.yul\":1469:1532   */\n      swap2\n      pop\n        /* \"#utility.yul\":1424:1542   */\n      pop\n        /* \"#utility.yul\":1075:1549   */\n      swap3\n      pop\n      swap3\n      swap1\n      pop\n      jump\t// out\n        /* \"#utility.yul\":1555:1884   */\n    tag_9:\n        /* \"#utility.yul\":1614:1620   */\n      0x00\n        /* \"#utility.yul\":1663:1665   */\n      0x20\n        /* \"#utility.yul\":1651:1660   */\n      dup3\n        /* \"#utility.yul\":1642:1649   */\n      dup5\n        /* \"#utility.yul\":1638:1661   */\n      sub\n        /* \"#utility.yul\":1634:1666   */\n      slt\n        /* \"#utility.yul\":1631:1750   */\n      iszero\n      tag_66\n      jumpi\n        /* \"#utility.yul\":1669:1748   */\n      tag_67\n      tag_62\n      jump\t// in\n    tag_67:\n        /* \"#utility.yul\":1631:1750   */\n    tag_66:\n        /* \"#utility.yul\":1789:1790   */\n      0x00\n        /* \"#utility.yul\":1814:1867   */\n      tag_68\n        /* \"#utility.yul\":1859:1866   */\n      dup5\n        /* \"#utility.yul\":1850:1856   */\n      dup3\n        /* \"#utility.yul\":1839:1848   */\n      dup6\n        /* \"#utility.yul\":1835:1857   */\n      add\n        /* \"#utility.yul\":1814:1867   */\n      tag_55\n      jump\t// in\n    tag_68:\n        /* \"#utility.yul\":1804:1867   */\n      swap2\n      pop\n        /* \"#utility.yul\":1760:1877   */\n      pop\n        /* \"#utility.yul\":1555:1884   */\n      swap3\n      swap2\n      pop\n      pop\n      jump\t// out\n        /* \"#utility.yul\":1890:2544   */\n    tag_15:\n        /* \"#utility.yul\":1968:1974   */\n      0x00\n        /* \"#utility.yul\":1976:1982   */\n      dup1\n        /* \"#utility.yul\":2025:2027   */\n      0x40\n        /* \"#utility.yul\":2013:2022   */\n      dup4\n        /* \"#utility.yul\":2004:2011   */\n      dup6\n        /* \"#utility.yul\":2000:2023   */\n      sub\n        /* \"#utility.yul\":1996:2028   */\n      slt\n        /* \"#utility.yul\":1993:2112   */\n      iszero\n      tag_70\n      jumpi\n        /* \"#utility.yul\":2031:2110   */\n      tag_71\n      tag_62\n      jump\t// in\n    tag_71:\n        /* \"#utility.yul\":1993:2112   */\n    tag_70:\n        /* \"#utility.yul\":2151:2152   */\n      0x00\n        /* \"#utility.yul\":2176:2229   */\n      tag_72\n        /* \"#utility.yul\":2221:2228   */\n      dup6\n        /* \"#utility.yul\":2212:2218   */\n      dup3\n        /* \"#utility.yul\":2201:2210   */\n      dup7\n        /* \"#utility.yul\":2197:2219   */\n      add\n        /* \"#utility.yul\":2176:2229   */\n      tag_55\n      jump\t// in\n    tag_72:\n        /* \"#utility.yul\":2166:2229   */\n      swap3\n      pop\n        /* \"#utility.yul\":2122:2239   */\n      pop\n        /* \"#utility.yul\":2306:2308   */\n      0x20\n        /* \"#utility.yul\":2295:2304   */\n      dup4\n        /* \"#utility.yul\":2291:2309   */\n      add\n        /* \"#utility.yul\":2278:2310   */\n      calldataload\n        /* \"#utility.yul\":2337:2355   */\n      0xffffffffffffffff\n        /* \"#utility.yul\":2329:2335   */\n      dup2\n        /* \"#utility.yul\":2326:2356   */\n      gt\n        /* \"#utility.yul\":2323:2440   */\n      iszero\n      tag_73\n      jumpi\n        /* \"#utility.yul\":2359:2438   */\n      tag_74\n      tag_75\n      jump\t// in\n    tag_74:\n        /* \"#utility.yul\":2323:2440   */\n    tag_73:\n        /* \"#utility.yul\":2464:2527   */\n      tag_76\n        /* \"#utility.yul\":2519:2526   */\n      dup6\n        /* \"#utility.yul\":2510:2516   */\n      dup3\n        /* \"#utility.yul\":2499:2508   */\n      dup7\n        /* \"#utility.yul\":2495:2517   */\n      add\n        /* \"#utility.yul\":2464:2527   */\n      tag_49\n      jump\t// in\n    tag_76:\n        /* \"#utility.yul\":2454:2527   */\n      swap2\n      pop\n        /* \"#utility.yul\":2249:2537   */\n      pop\n        /* \"#utility.yul\":1890:2544   */\n      swap3\n      pop\n      swap3\n      swap1\n      pop\n      jump\t// out\n        /* \"#utility.yul\":2550:2668   */\n    tag_77:\n        /* \"#utility.yul\":2637:2661   */\n      tag_79\n        /* \"#utility.yul\":2655:2660   */\n      dup2\n        /* \"#utility.yul\":2637:2661   */\n      tag_80\n      jump\t// in\n    tag_79:\n        /* \"#utility.yul\":2632:2635   */\n      dup3\n        /* \"#utility.yul\":2625:2662   */\n      mstore\n        /* \"#utility.yul\":2550:2668   */\n      pop\n      pop\n      jump\t// out\n        /* \"#utility.yul\":2674:3038   */\n    tag_81:\n        /* \"#utility.yul\":2762:2765   */\n      0x00\n        /* \"#utility.yul\":2790:2829   */\n      tag_83\n        /* \"#utility.yul\":2823:2828   */\n      dup3\n        /* \"#utility.yul\":2790:2829   */\n      tag_84\n      jump\t// in\n    tag_83:\n        /* \"#utility.yul\":2845:2916   */\n      tag_85\n        /* \"#utility.yul\":2909:2915   */\n      dup2\n        /* \"#utility.yul\":2904:2907   */\n      dup6\n        /* \"#utility.yul\":2845:2916   */\n      tag_86\n      jump\t// in\n    tag_85:\n        /* \"#utility.yul\":2838:2916   */\n      swap4\n      pop\n        /* \"#utility.yul\":2925:2977   */\n      tag_87\n        /* \"#utility.yul\":2970:2976   */\n      dup2\n        /* \"#utility.yul\":2965:2968   */\n      dup6\n        /* \"#utility.yul\":2958:2962   */\n      0x20\n        /* \"#utility.yul\":2951:2956   */\n      dup7\n        /* \"#utility.yul\":2947:2963   */\n      add\n        /* \"#utility.yul\":2925:2977   */\n      tag_88\n      jump\t// in\n    tag_87:\n        /* \"#utility.yul\":3002:3031   */\n      tag_89\n        /* \"#utility.yul\":3024:3030   */\n      dup2\n        /* \"#utility.yul\":3002:3031   */\n      tag_90\n      jump\t// in\n    tag_89:\n        /* \"#utility.yul\":2997:3000   */\n      dup5\n        /* \"#utility.yul\":2993:3032   */\n      add\n        /* \"#utility.yul\":2986:3032   */\n      swap2\n      pop\n        /* \"#utility.yul\":2766:3038   */\n      pop\n        /* \"#utility.yul\":2674:3038   */\n      swap3\n      swap2\n      pop\n      pop\n      jump\t// out\n        /* \"#utility.yul\":3044:3162   */\n    tag_91:\n        /* \"#utility.yul\":3131:3155   */\n      tag_93\n        /* \"#utility.yul\":3149:3154   */\n      dup2\n        /* \"#utility.yul\":3131:3155   */\n      tag_94\n      jump\t// in\n    tag_93:\n        /* \"#utility.yul\":3126:3129   */\n      dup3\n        /* \"#utility.yul\":3119:3156   */\n      mstore\n        /* \"#utility.yul\":3044:3162   */\n      pop\n      pop\n      jump\t// out\n        /* \"#utility.yul\":3168:4034   */\n    tag_12:\n        /* \"#utility.yul\":3421:3425   */\n      0x00\n        /* \"#utility.yul\":3459:3462   */\n      0xc0\n        /* \"#utility.yul\":3448:3457   */\n      dup3\n        /* \"#utility.yul\":3444:3463   */\n      add\n        /* \"#utility.yul\":3436:3463   */\n      swap1\n      pop\n        /* \"#utility.yul\":3473:3544   */\n      tag_96\n        /* \"#utility.yul\":3541:3542   */\n      0x00\n        /* \"#utility.yul\":3530:3539   */\n      dup4\n        /* \"#utility.yul\":3526:3543   */\n      add\n        /* \"#utility.yul\":3517:3523   */\n      dup10\n        /* \"#utility.yul\":3473:3544   */\n      tag_77\n      jump\t// in\n    tag_96:\n        /* \"#utility.yul\":3554:3626   */\n      tag_97\n        /* \"#utility.yul\":3622:3624   */\n      0x20\n        /* \"#utility.yul\":3611:3620   */\n      dup4\n        /* \"#utility.yul\":3607:3625   */\n      add\n        /* \"#utility.yul\":3598:3604   */\n      dup9\n        /* \"#utility.yul\":3554:3626   */\n      tag_91\n      jump\t// in\n    tag_97:\n        /* \"#utility.yul\":3673:3682   */\n      dup2\n        /* \"#utility.yul\":3667:3671   */\n      dup2\n        /* \"#utility.yul\":3663:3683   */\n      sub\n        /* \"#utility.yul\":3658:3660   */\n      0x40\n        /* \"#utility.yul\":3647:3656   */\n      dup4\n        /* \"#utility.yul\":3643:3661   */\n      add\n        /* \"#utility.yul\":3636:3684   */\n      mstore\n        /* \"#utility.yul\":3701:3779   */\n      tag_98\n        /* \"#utility.yul\":3774:3778   */\n      dup2\n        /* \"#utility.yul\":3765:3771   */\n      dup8\n        /* \"#utility.yul\":3701:3779   */\n      tag_81\n      jump\t// in\n    tag_98:\n        /* \"#utility.yul\":3693:3779   */\n      swap1\n      pop\n        /* \"#utility.yul\":3789:3861   */\n      tag_99\n        /* \"#utility.yul\":3857:3859   */\n      0x60\n        /* \"#utility.yul\":3846:3855   */\n      dup4\n        /* \"#utility.yul\":3842:3860   */\n      add\n        /* \"#utility.yul\":3833:3839   */\n      dup7\n        /* \"#utility.yul\":3789:3861   */\n      tag_91\n      jump\t// in\n    tag_99:\n        /* \"#utility.yul\":3871:3944   */\n      tag_100\n        /* \"#utility.yul\":3939:3942   */\n      0x80\n        /* \"#utility.yul\":3928:3937   */\n      dup4\n        /* \"#utility.yul\":3924:3943   */\n      add\n        /* \"#utility.yul\":3915:3921   */\n      dup6\n        /* \"#utility.yul\":3871:3944   */\n      tag_91\n      jump\t// in\n    tag_100:\n        /* \"#utility.yul\":3954:4027   */\n      tag_101\n        /* \"#utility.yul\":4022:4025   */\n      0xa0\n        /* \"#utility.yul\":4011:4020   */\n      dup4\n        /* \"#utility.yul\":4007:4026   */\n      add\n        /* \"#utility.yul\":3998:4004   */\n      dup5\n        /* \"#utility.yul\":3954:4027   */\n      tag_91\n      jump\t// in\n    tag_101:\n        /* \"#utility.yul\":3168:4034   */\n      swap8\n      swap7\n      pop\n      pop\n      pop\n      pop\n      pop\n      pop\n      pop\n      jump\t// out\n        /* \"#utility.yul\":4040:4262   */\n    tag_20:\n        /* \"#utility.yul\":4133:4137   */\n      0x00\n        /* \"#utility.yul\":4171:4173   */\n      0x20\n        /* \"#utility.yul\":4160:4169   */\n      dup3\n        /* \"#utility.yul\":4156:4174   */\n      add\n        /* \"#utility.yul\":4148:4174   */\n      swap1\n      pop\n        /* \"#utility.yul\":4184:4255   */\n      tag_103\n        /* \"#utility.yul\":4252:4253   */\n      0x00\n        /* \"#utility.yul\":4241:4250   */\n      dup4\n        /* \"#utility.yul\":4237:4254   */\n      add\n        /* \"#utility.yul\":4228:4234   */\n      dup5\n        /* \"#utility.yul\":4184:4255   */\n      tag_91\n      jump\t// in\n    tag_103:\n        /* \"#utility.yul\":4040:4262   */\n      swap3\n      swap2\n      pop\n      pop\n      jump\t// out\n        /* \"#utility.yul\":4268:4397   */\n    tag_39:\n        /* \"#utility.yul\":4302:4308   */\n      0x00\n        /* \"#utility.yul\":4329:4349   */\n      tag_105\n      tag_106\n      jump\t// in\n    tag_105:\n        /* \"#utility.yul\":4319:4349   */\n      swap1\n      pop\n        /* \"#utility.yul\":4358:4391   */\n      tag_107\n        /* \"#utility.yul\":4386:4390   */\n      dup3\n        /* \"#utility.yul\":4378:4384   */\n      dup3\n        /* \"#utility.yul\":4358:4391   */\n      tag_108\n      jump\t// in\n    tag_107:\n        /* \"#utility.yul\":4268:4397   */\n      swap2\n      swap1\n      pop\n      jump\t// out\n        /* \"#utility.yul\":4403:4478   */\n    tag_106:\n        /* \"#utility.yul\":4436:4442   */\n      0x00\n        /* \"#utility.yul\":4469:4471   */\n      0x40\n        /* \"#utility.yul\":4463:4472   */\n      mload\n        /* \"#utility.yul\":4453:4472   */\n      swap1\n      pop\n        /* \"#utility.yul\":4403:4478   */\n      swap1\n      jump\t// out\n        /* \"#utility.yul\":4484:4792   */\n    tag_38:\n        /* \"#utility.yul\":4546:4550   */\n      0x00\n        /* \"#utility.yul\":4636:4654   */\n      0xffffffffffffffff\n        /* \"#utility.yul\":4628:4634   */\n      dup3\n        /* \"#utility.yul\":4625:4655   */\n      gt\n        /* \"#utility.yul\":4622:4678   */\n      iszero\n      tag_111\n      jumpi\n        /* \"#utility.yul\":4658:4676   */\n      tag_112\n      tag_113\n      jump\t// in\n    tag_112:\n        /* \"#utility.yul\":4622:4678   */\n    tag_111:\n        /* \"#utility.yul\":4696:4725   */\n      tag_114\n        /* \"#utility.yul\":4718:4724   */\n      dup3\n        /* \"#utility.yul\":4696:4725   */\n      tag_90\n      jump\t// in\n    tag_114:\n        /* \"#utility.yul\":4688:4725   */\n      swap1\n      pop\n        /* \"#utility.yul\":4780:4784   */\n      0x20\n        /* \"#utility.yul\":4774:4778   */\n      dup2\n        /* \"#utility.yul\":4770:4785   */\n      add\n        /* \"#utility.yul\":4762:4785   */\n      swap1\n      pop\n        /* \"#utility.yul\":4484:4792   */\n      swap2\n      swap1\n      pop\n      jump\t// out\n        /* \"#utility.yul\":4798:4897   */\n    tag_84:\n        /* \"#utility.yul\":4850:4856   */\n      0x00\n        /* \"#utility.yul\":4884:4889   */\n      dup2\n        /* \"#utility.yul\":4878:4890   */\n      mload\n        /* \"#utility.yul\":4868:4890   */\n      swap1\n      pop\n        /* \"#utility.yul\":4798:4897   */\n      swap2\n      swap1\n      pop\n      jump\t// out\n        /* \"#utility.yul\":4903:5072   */\n    tag_86:\n        /* \"#utility.yul\":4987:4998   */\n      0x00\n        /* \"#utility.yul\":5021:5027   */\n      dup3\n        /* \"#utility.yul\":5016:5019   */\n      dup3\n        /* \"#utility.yul\":5009:5028   */\n      mstore\n        /* \"#utility.yul\":5061:5065   */\n      0x20\n        /* \"#utility.yul\":5056:5059   */\n      dup3\n        /* \"#utility.yul\":5052:5066   */\n      add\n        /* \"#utility.yul\":5037:5066   */\n      swap1\n      pop\n        /* \"#utility.yul\":4903:5072   */\n      swap3\n      swap2\n      pop\n      pop\n      jump\t// out\n        /* \"#utility.yul\":5078:5174   */\n    tag_80:\n        /* \"#utility.yul\":5115:5122   */\n      0x00\n        /* \"#utility.yul\":5144:5168   */\n      tag_118\n        /* \"#utility.yul\":5162:5167   */\n      dup3\n        /* \"#utility.yul\":5144:5168   */\n      tag_119\n      jump\t// in\n    tag_118:\n        /* \"#utility.yul\":5133:5168   */\n      swap1\n      pop\n        /* \"#utility.yul\":5078:5174   */\n      swap2\n      swap1\n      pop\n      jump\t// out\n        /* \"#utility.yul\":5180:5306   */\n    tag_119:\n        /* \"#utility.yul\":5217:5224   */\n      0x00\n        /* \"#utility.yul\":5257:5299   */\n      0xffffffffffffffffffffffffffffffffffffffff\n        /* \"#utility.yul\":5250:5255   */\n      dup3\n        /* \"#utility.yul\":5246:5300   */\n      and\n        /* \"#utility.yul\":5235:5300   */\n      swap1\n      pop\n        /* \"#utility.yul\":5180:5306   */\n      swap2\n      swap1\n      pop\n      jump\t// out\n        /* \"#utility.yul\":5312:5389   */\n    tag_94:\n        /* \"#utility.yul\":5349:5356   */\n      0x00\n        /* \"#utility.yul\":5378:5383   */\n      dup2\n        /* \"#utility.yul\":5367:5383   */\n      swap1\n      pop\n        /* \"#utility.yul\":5312:5389   */\n      swap2\n      swap1\n      pop\n      jump\t// out\n        /* \"#utility.yul\":5395:5549   */\n    tag_44:\n        /* \"#utility.yul\":5479:5485   */\n      dup3\n        /* \"#utility.yul\":5474:5477   */\n      dup2\n        /* \"#utility.yul\":5469:5472   */\n      dup4\n        /* \"#utility.yul\":5456:5486   */\n      calldatacopy\n        /* \"#utility.yul\":5541:5542   */\n      0x00\n        /* \"#utility.yul\":5532:5538   */\n      dup4\n        /* \"#utility.yul\":5527:5530   */\n      dup4\n        /* \"#utility.yul\":5523:5539   */\n      add\n        /* \"#utility.yul\":5516:5543   */\n      mstore\n        /* \"#utility.yul\":5395:5549   */\n      pop\n      pop\n      pop\n      jump\t// out\n        /* \"#utility.yul\":5555:5862   */\n    tag_88:\n        /* \"#utility.yul\":5623:5624   */\n      0x00\n        /* \"#utility.yul\":5633:5746   */\n    tag_124:\n        /* \"#utility.yul\":5647:5653   */\n      dup4\n        /* \"#utility.yul\":5644:5645   */\n      dup2\n        /* \"#utility.yul\":5641:5654   */\n      lt\n        /* \"#utility.yul\":5633:5746   */\n      iszero\n      tag_126\n      jumpi\n        /* \"#utility.yul\":5732:5733   */\n      dup1\n        /* \"#utility.yul\":5727:5730   */\n      dup3\n        /* \"#utility.yul\":5723:5734   */\n      add\n        /* \"#utility.yul\":5717:5735   */\n      mload\n        /* \"#utility.yul\":5713:5714   */\n      dup2\n        /* \"#utility.yul\":5708:5711   */\n      dup5\n        /* \"#utility.yul\":5704:5715   */\n      add\n        /* \"#utility.yul\":5697:5736   */\n      mstore\n        /* \"#utility.yul\":5669:5671   */\n      0x20\n        /* \"#utility.yul\":5666:5667   */\n      dup2\n        /* \"#utility.yul\":5662:5672   */\n      add\n        /* \"#utility.yul\":5657:5672   */\n      swap1\n      pop\n        /* \"#utility.yul\":5633:5746   */\n      jump(tag_124)\n    tag_126:\n        /* \"#utility.yul\":5764:5770   */\n      dup4\n        /* \"#utility.yul\":5761:5762   */\n      dup2\n        /* \"#utility.yul\":5758:5771   */\n      gt\n        /* \"#utility.yul\":5755:5856   */\n      iszero\n      tag_127\n      jumpi\n        /* \"#utility.yul\":5844:5845   */\n      0x00\n        /* \"#utility.yul\":5835:5841   */\n      dup5\n        /* \"#utility.yul\":5830:5833   */\n      dup5\n        /* \"#utility.yul\":5826:5842   */\n      add\n        /* \"#utility.yul\":5819:5846   */\n      mstore\n        /* \"#utility.yul\":5755:5856   */\n    tag_127:\n        /* \"#utility.yul\":5604:5862   */\n      pop\n        /* \"#utility.yul\":5555:5862   */\n      pop\n      pop\n      pop\n      jump\t// out\n        /* \"#utility.yul\":5868:6188   */\n    tag_27:\n        /* \"#utility.yul\":5912:5918   */\n      0x00\n        /* \"#utility.yul\":5949:5950   */\n      0x02\n        /* \"#utility.yul\":5943:5947   */\n      dup3\n        /* \"#utility.yul\":5939:5951   */\n      div\n        /* \"#utility.yul\":5929:5951   */\n      swap1\n      pop\n        /* \"#utility.yul\":5996:5997   */\n      0x01\n        /* \"#utility.yul\":5990:5994   */\n      dup3\n        /* \"#utility.yul\":5986:5998   */\n      and\n        /* \"#utility.yul\":6017:6035   */\n      dup1\n        /* \"#utility.yul\":6007:6088   */\n      tag_129\n      jumpi\n        /* \"#utility.yul\":6073:6077   */\n      0x7f\n        /* \"#utility.yul\":6065:6071   */\n      dup3\n        /* \"#utility.yul\":6061:6078   */\n      and\n        /* \"#utility.yul\":6051:6078   */\n      swap2\n      pop\n        /* \"#utility.yul\":6007:6088   */\n    tag_129:\n        /* \"#utility.yul\":6135:6137   */\n      0x20\n        /* \"#utility.yul\":6127:6133   */\n      dup3\n        /* \"#utility.yul\":6124:6138   */\n      lt\n        /* \"#utility.yul\":6104:6122   */\n      dup2\n        /* \"#utility.yul\":6101:6139   */\n      eq\n        /* \"#utility.yul\":6098:6182   */\n      iszero\n      tag_130\n      jumpi\n        /* \"#utility.yul\":6154:6172   */\n      tag_131\n      tag_132\n      jump\t// in\n    tag_131:\n        /* \"#utility.yul\":6098:6182   */\n    tag_130:\n        /* \"#utility.yul\":5919:6188   */\n      pop\n        /* \"#utility.yul\":5868:6188   */\n      swap2\n      swap1\n      pop\n      jump\t// out\n        /* \"#utility.yul\":6194:6475   */\n    tag_108:\n        /* \"#utility.yul\":6277:6304   */\n      tag_134\n        /* \"#utility.yul\":6299:6303   */\n      dup3\n        /* \"#utility.yul\":6277:6304   */\n      tag_90\n      jump\t// in\n    tag_134:\n        /* \"#utility.yul\":6269:6275   */\n      dup2\n        /* \"#utility.yul\":6265:6305   */\n      add\n        /* \"#utility.yul\":6407:6413   */\n      dup2\n        /* \"#utility.yul\":6395:6405   */\n      dup2\n        /* \"#utility.yul\":6392:6414   */\n      lt\n        /* \"#utility.yul\":6371:6389   */\n      0xffffffffffffffff\n        /* \"#utility.yul\":6359:6369   */\n      dup3\n        /* \"#utility.yul\":6356:6390   */\n      gt\n        /* \"#utility.yul\":6353:6415   */\n      or\n        /* \"#utility.yul\":6350:6438   */\n      iszero\n      tag_135\n      jumpi\n        /* \"#utility.yul\":6418:6436   */\n      tag_136\n      tag_113\n      jump\t// in\n    tag_136:\n        /* \"#utility.yul\":6350:6438   */\n    tag_135:\n        /* \"#utility.yul\":6458:6468   */\n      dup1\n        /* \"#utility.yul\":6454:6456   */\n      0x40\n        /* \"#utility.yul\":6447:6469   */\n      mstore\n        /* \"#utility.yul\":6237:6475   */\n      pop\n        /* \"#utility.yul\":6194:6475   */\n      pop\n      pop\n      jump\t// out\n        /* \"#utility.yul\":6481:6661   */\n    tag_132:\n        /* \"#utility.yul\":6529:6606   */\n      0x4e487b7100000000000000000000000000000000000000000000000000000000\n        /* \"#utility.yul\":6526:6527   */\n      0x00\n        /* \"#utility.yul\":6519:6607   */\n      mstore\n        /* \"#utility.yul\":6626:6630   */\n      0x22\n        /* \"#utility.yul\":6623:6624   */\n      0x04\n        /* \"#utility.yul\":6616:6631   */\n      mstore\n        /* \"#utility.yul\":6650:6654   */\n      0x24\n        /* \"#utility.yul\":6647:6648   */\n      0x00\n        /* \"#utility.yul\":6640:6655   */\n      revert\n        /* \"#utility.yul\":6667:6847   */\n    tag_113:\n        /* \"#utility.yul\":6715:6792   */\n      0x4e487b7100000000000000000000000000000000000000000000000000000000\n        /* \"#utility.yul\":6712:6713   */\n      0x00\n        /* \"#utility.yul\":6705:6793   */\n      mstore\n        /* \"#utility.yul\":6812:6816   */\n      0x41\n        /* \"#utility.yul\":6809:6810   */\n      0x04\n        /* \"#utility.yul\":6802:6817   */\n      mstore\n        /* \"#utility.yul\":6836:6840   */\n      0x24\n        /* \"#utility.yul\":6833:6834   */\n      0x00\n        /* \"#utility.yul\":6826:6841   */\n      revert\n        /* \"#utility.yul\":6853:6970   */\n    tag_53:\n        /* \"#utility.yul\":6962:6963   */\n      0x00\n        /* \"#utility.yul\":6959:6960   */\n      dup1\n        /* \"#utility.yul\":6952:6964   */\n      revert\n        /* \"#utility.yul\":6976:7093   */\n    tag_42:\n        /* \"#utility.yul\":7085:7086   */\n      0x00\n        /* \"#utility.yul\":7082:7083   */\n      dup1\n        /* \"#utility.yul\":7075:7087   */\n      revert\n        /* \"#utility.yul\":7099:7216   */\n    tag_75:\n        /* \"#utility.yul\":7208:7209   */\n      0x00\n        /* \"#utility.yul\":7205:7206   */\n      dup1\n        /* \"#utility.yul\":7198:7210   */\n      revert\n        /* \"#utility.yul\":7222:7339   */\n    tag_62:\n        /* \"#utility.yul\":7331:7332   */\n      0x00\n        /* \"#utility.yul\":7328:7329   */\n      dup1\n        /* \"#utility.yul\":7321:7333   */\n      revert\n        /* \"#utility.yul\":7345:7447   */\n    tag_90:\n        /* \"#utility.yul\":7386:7392   */\n      0x00\n        /* \"#utility.yul\":7437:7439   */\n      0x1f\n        /* \"#utility.yul\":7433:7440   */\n      not\n        /* \"#utility.yul\":7428:7430   */\n      0x1f\n        /* \"#utility.yul\":7421:7426   */\n      dup4\n        /* \"#utility.yul\":7417:7431   */\n      add\n        /* \"#utility.yul\":7413:7441   */\n      and\n        /* \"#utility.yul\":7403:7441   */\n      swap1\n      pop\n        /* \"#utility.yul\":7345:7447   */\n      swap2\n      swap1\n      pop\n      jump\t// out\n        /* \"#utility.yul\":7453:7575   */\n    tag_48:\n        /* \"#utility.yul\":7526:7550   */\n      tag_145\n        /* \"#utility.yul\":7544:7549   */\n      dup2\n        /* \"#utility.yul\":7526:7550   */\n      tag_80\n      jump\t// in\n    tag_145:\n        /* \"#utility.yul\":7519:7524   */\n      dup2\n        /* \"#utility.yul\":7516:7551   */\n      eq\n        /* \"#utility.yul\":7506:7569   */\n      tag_146\n      jumpi\n        /* \"#utility.yul\":7565:7566   */\n      0x00\n        /* \"#utility.yul\":7562:7563   */\n      dup1\n        /* \"#utility.yul\":7555:7567   */\n      revert\n        /* \"#utility.yul\":7506:7569   */\n    tag_146:\n        /* \"#utility.yul\":7453:7575   */\n      pop\n      jump\t// out\n        /* \"#utility.yul\":7581:7703   */\n    tag_58:\n        /* \"#utility.yul\":7654:7678   */\n      tag_148\n        /* \"#utility.yul\":7672:7677   */\n      dup2\n        /* \"#utility.yul\":7654:7678   */\n      tag_94\n      jump\t// in\n    tag_148:\n        /* \"#utility.yul\":7647:7652   */\n      dup2\n        /* \"#utility.yul\":7644:7679   */\n      eq\n        /* \"#utility.yul\":7634:7697   */\n      tag_149\n      jumpi\n        /* \"#utility.yul\":7693:7694   */\n      0x00\n        /* \"#utility.yul\":7690:7691   */\n      dup1\n        /* \"#utility.yul\":7683:7695   */\n      revert\n        /* \"#utility.yul\":7634:7697   */\n    tag_149:\n        /* \"#utility.yul\":7581:7703   */\n      pop\n      jump\t// out\n\n    auxdata: 0xa2646970667358221220a265bf5f251a5544ee470f8aee897720e22b1817b74dfa82cceca0e143a9146664736f6c63430008070033\n}\n",
				"bytecode": {
					"linkReferences": {},
					"object": "608060405234801561001057600080fd5b5061067a806100206000396000f3fe608060405234801561001057600080fd5b506004361061004c5760003560e01c80630b79143014610051578063a1d255e114610086578063b3cea217146100a2578063dae7a13c146100c0575b600080fd5b61006b600480360381019061006691906102dd565b6100f0565b60405161007d969594939291906103bd565b60405180910390f35b6100a0600480360381019061009b919061030a565b6101d4565b005b6100aa6101d8565b6040516100b79190610425565b60405180910390f35b6100da60048036038101906100d5919061029d565b6101de565b6040516100e79190610425565b60405180910390f35b60006020528060005260406000206000915090508060000160009054906101000a900473ffffffffffffffffffffffffffffffffffffffff169080600101549080600201805461013f90610530565b80601f016020809104026020016040519081016040528092919081815260200182805461016b90610530565b80156101b85780601f1061018d576101008083540402835291602001916101b8565b820191906000526020600020905b81548152906001019060200180831161019b57829003601f168201915b5050505050908060030154908060040154908060050154905086565b5050565b60025481565b6001602052816000526040600020602052806000526040600020600091509150505481565b600061021661021184610465565b610440565b905082815260208101848484011115610232576102316105f6565b5b61023d8482856104ee565b509392505050565b60008135905061025481610616565b92915050565b600082601f83011261026f5761026e6105f1565b5b813561027f848260208601610203565b91505092915050565b6000813590506102978161062d565b92915050565b600080604083850312156102b4576102b3610600565b5b60006102c285828601610245565b92505060206102d385828601610288565b9150509250929050565b6000602082840312156102f3576102f2610600565b5b600061030184828501610288565b91505092915050565b6000806040838503121561032157610320610600565b5b600061032f85828601610288565b925050602083013567ffffffffffffffff8111156103505761034f6105fb565b5b61035c8582860161025a565b9150509250929050565b61036f816104b2565b82525050565b600061038082610496565b61038a81856104a1565b935061039a8185602086016104fd565b6103a381610605565b840191505092915050565b6103b7816104e4565b82525050565b600060c0820190506103d26000830189610366565b6103df60208301886103ae565b81810360408301526103f18187610375565b905061040060608301866103ae565b61040d60808301856103ae565b61041a60a08301846103ae565b979650505050505050565b600060208201905061043a60008301846103ae565b92915050565b600061044a61045b565b90506104568282610562565b919050565b6000604051905090565b600067ffffffffffffffff8211156104805761047f6105c2565b5b61048982610605565b9050602081019050919050565b600081519050919050565b600082825260208201905092915050565b60006104bd826104c4565b9050919050565b600073ffffffffffffffffffffffffffffffffffffffff82169050919050565b6000819050919050565b82818337600083830152505050565b60005b8381101561051b578082015181840152602081019050610500565b8381111561052a576000848401525b50505050565b6000600282049050600182168061054857607f821691505b6020821081141561055c5761055b610593565b5b50919050565b61056b82610605565b810181811067ffffffffffffffff8211171561058a576105896105c2565b5b80604052505050565b7f4e487b7100000000000000000000000000000000000000000000000000000000600052602260045260246000fd5b7f4e487b7100000000000000000000000000000000000000000000000000000000600052604160045260246000fd5b600080fd5b600080fd5b600080fd5b600080fd5b6000601f19601f8301169050919050565b61061f816104b2565b811461062a57600080fd5b50565b610636816104e4565b811461064157600080fd5b5056fea2646970667358221220a265bf5f251a5544ee470f8aee897720e22b1817b74dfa82cceca0e143a9146664736f6c63430008070033",
					"opcodes": "PUSH1 0x80 PUSH1 0x40 MSTORE CALLVALUE DUP1 ISZERO PUSH2 0x10 JUMPI PUSH1 0x0 DUP1 REVERT JUMPDEST POP PUSH2 0x67A DUP1 PUSH2 0x20 PUSH1 0x0 CODECOPY PUSH1 0x0 RETURN INVALID PUSH1 0x80 PUSH1 0x40 MSTORE CALLVALUE DUP1 ISZERO PUSH2 0x10 JUMPI PUSH1 0x0 DUP1 REVERT JUMPDEST POP PUSH1 0x4 CALLDATASIZE LT PUSH2 0x4C JUMPI PUSH1 0x0 CALLDATALOAD PUSH1 0xE0 SHR DUP1 PUSH4 0xB791430 EQ PUSH2 0x51 JUMPI DUP1 PUSH4 0xA1D255E1 EQ PUSH2 0x86 JUMPI DUP1 PUSH4 0xB3CEA217 EQ PUSH2 0xA2 JUMPI DUP1 PUSH4 0xDAE7A13C EQ PUSH2 0xC0 JUMPI JUMPDEST PUSH1 0x0 DUP1 REVERT JUMPDEST PUSH2 0x6B PUSH1 0x4 DUP1 CALLDATASIZE SUB DUP2 ADD SWAP1 PUSH2 0x66 SWAP2 SWAP1 PUSH2 0x2DD JUMP JUMPDEST PUSH2 0xF0 JUMP JUMPDEST PUSH1 0x40 MLOAD PUSH2 0x7D SWAP7 SWAP6 SWAP5 SWAP4 SWAP3 SWAP2 SWAP1 PUSH2 0x3BD JUMP JUMPDEST PUSH1 0x40 MLOAD DUP1 SWAP2 SUB SWAP1 RETURN JUMPDEST PUSH2 0xA0 PUSH1 0x4 DUP1 CALLDATASIZE SUB DUP2 ADD SWAP1 PUSH2 0x9B SWAP2 SWAP1 PUSH2 0x30A JUMP JUMPDEST PUSH2 0x1D4 JUMP JUMPDEST STOP JUMPDEST PUSH2 0xAA PUSH2 0x1D8 JUMP JUMPDEST PUSH1 0x40 MLOAD PUSH2 0xB7 SWAP2 SWAP1 PUSH2 0x425 JUMP JUMPDEST PUSH1 0x40 MLOAD DUP1 SWAP2 SUB SWAP1 RETURN JUMPDEST PUSH2 0xDA PUSH1 0x4 DUP1 CALLDATASIZE SUB DUP2 ADD SWAP1 PUSH2 0xD5 SWAP2 SWAP1 PUSH2 0x29D JUMP JUMPDEST PUSH2 0x1DE JUMP JUMPDEST PUSH1 0x40 MLOAD PUSH2 0xE7 SWAP2 SWAP1 PUSH2 0x425 JUMP JUMPDEST PUSH1 0x40 MLOAD DUP1 SWAP2 SUB SWAP1 RETURN JUMPDEST PUSH1 0x0 PUSH1 0x20 MSTORE DUP1 PUSH1 0x0 MSTORE PUSH1 0x40 PUSH1 0x0 KECCAK256 PUSH1 0x0 SWAP2 POP SWAP1 POP DUP1 PUSH1 0x0 ADD PUSH1 0x0 SWAP1 SLOAD SWAP1 PUSH2 0x100 EXP SWAP1 DIV PUSH20 0xFFFFFFFFFFFFFFFFFFFFFFFFFFFFFFFFFFFFFFFF AND SWAP1 DUP1 PUSH1 0x1 ADD SLOAD SWAP1 DUP1 PUSH1 0x2 ADD DUP1 SLOAD PUSH2 0x13F SWAP1 PUSH2 0x530 JUMP JUMPDEST DUP1 PUSH1 0x1F ADD PUSH1 0x20 DUP1 SWAP2 DIV MUL PUSH1 0x20 ADD PUSH1 0x40 MLOAD SWAP1 DUP2 ADD PUSH1 0x40 MSTORE DUP1 SWAP3 SWAP2 SWAP1 DUP2 DUP2 MSTORE PUSH1 0x20 ADD DUP3 DUP1 SLOAD PUSH2 0x16B SWAP1 PUSH2 0x530 JUMP JUMPDEST DUP1 ISZERO PUSH2 0x1B8 JUMPI DUP1 PUSH1 0x1F LT PUSH2 0x18D JUMPI PUSH2 0x100 DUP1 DUP4 SLOAD DIV MUL DUP4 MSTORE SWAP2 PUSH1 0x20 ADD SWAP2 PUSH2 0x1B8 JUMP JUMPDEST DUP3 ADD SWAP2 SWAP1 PUSH1 0x0 MSTORE PUSH1 0x20 PUSH1 0x0 KECCAK256 SWAP1 JUMPDEST DUP2 SLOAD DUP2 MSTORE SWAP1 PUSH1 0x1 ADD SWAP1 PUSH1 0x20 ADD DUP1 DUP4 GT PUSH2 0x19B JUMPI DUP3 SWAP1 SUB PUSH1 0x1F AND DUP3 ADD SWAP2 JUMPDEST POP POP POP POP POP SWAP1 DUP1 PUSH1 0x3 ADD SLOAD SWAP1 DUP1 PUSH1 0x4 ADD SLOAD SWAP1 DUP1 PUSH1 0x5 ADD SLOAD SWAP1 POP DUP7 JUMP JUMPDEST POP POP JUMP JUMPDEST PUSH1 0x2 SLOAD DUP2 JUMP JUMPDEST PUSH1 0x1 PUSH1 0x20 MSTORE DUP2 PUSH1 0x0 MSTORE PUSH1 0x40 PUSH1 0x0 KECCAK256 PUSH1 0x20 MSTORE DUP1 PUSH1 0x0 MSTORE PUSH1 0x40 PUSH1 0x0 KECCAK256 PUSH1 0x0 SWAP2 POP SWAP2 POP POP SLOAD DUP2 JUMP JUMPDEST PUSH1 0x0 PUSH2 0x216 PUSH2 0x211 DUP5 PUSH2 0x465 JUMP JUMPDEST PUSH2 0x440 JUMP JUMPDEST SWAP1 POP DUP3 DUP2 MSTORE PUSH1 0x20 DUP2 ADD DUP5 DUP5 DUP5 ADD GT ISZERO PUSH2 0x232 JUMPI PUSH2 0x231 PUSH2 0x5F6 JUMP JUMPDEST JUMPDEST PUSH2 0x23D DUP5 DUP3 DUP6 PUSH2 0x4EE JUMP JUMPDEST POP SWAP4 SWAP3 POP POP POP JUMP JUMPDEST PUSH1 0x0 DUP2 CALLDATALOAD SWAP1 POP PUSH2 0x254 DUP2 PUSH2 0x616 JUMP JUMPDEST SWAP3 SWAP2 POP POP JUMP JUMPDEST PUSH1 0x0 DUP3 PUSH1 0x1F DUP4 ADD SLT PUSH2 0x26F JUMPI PUSH2 0x26E PUSH2 0x5F1 JUMP JUMPDEST JUMPDEST DUP2 CALLDATALOAD PUSH2 0x27F DUP5 DUP3 PUSH1 0x20 DUP7 ADD PUSH2 0x203 JUMP JUMPDEST SWAP2 POP POP SWAP3 SWAP2 POP POP JUMP JUMPDEST PUSH1 0x0 DUP2 CALLDATALOAD SWAP1 POP PUSH2 0x297 DUP2 PUSH2 0x62D JUMP JUMPDEST SWAP3 SWAP2 POP POP JUMP JUMPDEST PUSH1 0x0 DUP1 PUSH1 0x40 DUP4 DUP6 SUB SLT ISZERO PUSH2 0x2B4 JUMPI PUSH2 0x2B3 PUSH2 0x600 JUMP JUMPDEST JUMPDEST PUSH1 0x0 PUSH2 0x2C2 DUP6 DUP3 DUP7 ADD PUSH2 0x245 JUMP JUMPDEST SWAP3 POP POP PUSH1 0x20 PUSH2 0x2D3 DUP6 DUP3 DUP7 ADD PUSH2 0x288 JUMP JUMPDEST SWAP2 POP POP SWAP3 POP SWAP3 SWAP1 POP JUMP JUMPDEST PUSH1 0x0 PUSH1 0x20 DUP3 DUP5 SUB SLT ISZERO PUSH2 0x2F3 JUMPI PUSH2 0x2F2 PUSH2 0x600 JUMP JUMPDEST JUMPDEST PUSH1 0x0 PUSH2 0x301 DUP5 DUP3 DUP6 ADD PUSH2 0x288 JUMP JUMPDEST SWAP2 POP POP SWAP3 SWAP2 POP POP JUMP JUMPDEST PUSH1 0x0 DUP1 PUSH1 0x40 DUP4 DUP6 SUB SLT ISZERO PUSH2 0x321 JUMPI PUSH2 0x320 PUSH2 0x600 JUMP JUMPDEST JUMPDEST PUSH1 0x0 PUSH2 0x32F DUP6 DUP3 DUP7 ADD PUSH2 0x288 JUMP JUMPDEST SWAP3 POP POP PUSH1 0x20 DUP4 ADD CALLDATALOAD PUSH8 0xFFFFFFFFFFFFFFFF DUP2 GT ISZERO PUSH2 0x350 JUMPI PUSH2 0x34F PUSH2 0x5FB JUMP JUMPDEST JUMPDEST PUSH2 0x35C DUP6 DUP3 DUP7 ADD PUSH2 0x25A JUMP JUMPDEST SWAP2 POP POP SWAP3 POP SWAP3 SWAP1 POP JUMP JUMPDEST PUSH2 0x36F DUP2 PUSH2 0x4B2 JUMP JUMPDEST DUP3 MSTORE POP POP JUMP JUMPDEST PUSH1 0x0 PUSH2 0x380 DUP3 PUSH2 0x496 JUMP JUMPDEST PUSH2 0x38A DUP2 DUP6 PUSH2 0x4A1 JUMP JUMPDEST SWAP4 POP PUSH2 0x39A DUP2 DUP6 PUSH1 0x20 DUP7 ADD PUSH2 0x4FD JUMP JUMPDEST PUSH2 0x3A3 DUP2 PUSH2 0x605 JUMP JUMPDEST DUP5 ADD SWAP2 POP POP SWAP3 SWAP2 POP POP JUMP JUMPDEST PUSH2 0x3B7 DUP2 PUSH2 0x4E4 JUMP JUMPDEST DUP3 MSTORE POP POP JUMP JUMPDEST PUSH1 0x0 PUSH1 0xC0 DUP3 ADD SWAP1 POP PUSH2 0x3D2 PUSH1 0x0 DUP4 ADD DUP10 PUSH2 0x366 JUMP JUMPDEST PUSH2 0x3DF PUSH1 0x20 DUP4 ADD DUP9 PUSH2 0x3AE JUMP JUMPDEST DUP2 DUP2 SUB PUSH1 0x40 DUP4 ADD MSTORE PUSH2 0x3F1 DUP2 DUP8 PUSH2 0x375 JUMP JUMPDEST SWAP1 POP PUSH2 0x400 PUSH1 0x60 DUP4 ADD DUP7 PUSH2 0x3AE JUMP JUMPDEST PUSH2 0x40D PUSH1 0x80 DUP4 ADD DUP6 PUSH2 0x3AE JUMP JUMPDEST PUSH2 0x41A PUSH1 0xA0 DUP4 ADD DUP5 PUSH2 0x3AE JUMP JUMPDEST SWAP8 SWAP7 POP POP POP POP POP POP POP JUMP JUMPDEST PUSH1 0x0 PUSH1 0x20 DUP3 ADD SWAP1 POP PUSH2 0x43A PUSH1 0x0 DUP4 ADD DUP5 PUSH2 0x3AE JUMP JUMPDEST SWAP3 SWAP2 POP POP JUMP JUMPDEST PUSH1 0x0 PUSH2 0x44A PUSH2 0x45B JUMP JUMPDEST SWAP1 POP PUSH2 0x456 DUP3 DUP3 PUSH2 0x562 JUMP JUMPDEST SWAP2 SWAP1 POP JUMP JUMPDEST PUSH1 0x0 PUSH1 0x40 MLOAD SWAP1 POP SWAP1 JUMP JUMPDEST PUSH1 0x0 PUSH8 0xFFFFFFFFFFFFFFFF DUP3 GT ISZERO PUSH2 0x480 JUMPI PUSH2 0x47F PUSH2 0x5C2 JUMP JUMPDEST JUMPDEST PUSH2 0x489 DUP3 PUSH2 0x605 JUMP JUMPDEST SWAP1 POP PUSH1 0x20 DUP2 ADD SWAP1 POP SWAP2 SWAP1 POP JUMP JUMPDEST PUSH1 0x0 DUP2 MLOAD SWAP1 POP SWAP2 SWAP1 POP JUMP JUMPDEST PUSH1 0x0 DUP3 DUP3 MSTORE PUSH1 0x20 DUP3 ADD SWAP1 POP SWAP3 SWAP2 POP POP JUMP JUMPDEST PUSH1 0x0 PUSH2 0x4BD DUP3 PUSH2 0x4C4 JUMP JUMPDEST SWAP1 POP SWAP2 SWAP1 POP JUMP JUMPDEST PUSH1 0x0 PUSH20 0xFFFFFFFFFFFFFFFFFFFFFFFFFFFFFFFFFFFFFFFF DUP3 AND SWAP1 POP SWAP2 SWAP1 POP JUMP JUMPDEST PUSH1 0x0 DUP2 SWAP1 POP SWAP2 SWAP1 POP JUMP JUMPDEST DUP3 DUP2 DUP4 CALLDATACOPY PUSH1 0x0 DUP4 DUP4 ADD MSTORE POP POP POP JUMP JUMPDEST PUSH1 0x0 JUMPDEST DUP4 DUP2 LT ISZERO PUSH2 0x51B JUMPI DUP1 DUP3 ADD MLOAD DUP2 DUP5 ADD MSTORE PUSH1 0x20 DUP2 ADD SWAP1 POP PUSH2 0x500 JUMP JUMPDEST DUP4 DUP2 GT ISZERO PUSH2 0x52A JUMPI PUSH1 0x0 DUP5 DUP5 ADD MSTORE JUMPDEST POP POP POP POP JUMP JUMPDEST PUSH1 0x0 PUSH1 0x2 DUP3 DIV SWAP1 POP PUSH1 0x1 DUP3 AND DUP1 PUSH2 0x548 JUMPI PUSH1 0x7F DUP3 AND SWAP2 POP JUMPDEST PUSH1 0x20 DUP3 LT DUP2 EQ ISZERO PUSH2 0x55C JUMPI PUSH2 0x55B PUSH2 0x593 JUMP JUMPDEST JUMPDEST POP SWAP2 SWAP1 POP JUMP JUMPDEST PUSH2 0x56B DUP3 PUSH2 0x605 JUMP JUMPDEST DUP2 ADD DUP2 DUP2 LT PUSH8 0xFFFFFFFFFFFFFFFF DUP3 GT OR ISZERO PUSH2 0x58A JUMPI PUSH2 0x589 PUSH2 0x5C2 JUMP JUMPDEST JUMPDEST DUP1 PUSH1 0x40 MSTORE POP POP POP JUMP JUMPDEST PUSH32 0x4E487B7100000000000000000000000000000000000000000000000000000000 PUSH1 0x0 MSTORE PUSH1 0x22 PUSH1 0x4 MSTORE PUSH1 0x24 PUSH1 0x0 REVERT JUMPDEST PUSH32 0x4E487B7100000000000000000000000000000000000000000000000000000000 PUSH1 0x0 MSTORE PUSH1 0x41 PUSH1 0x4 MSTORE PUSH1 0x24 PUSH1 0x0 REVERT JUMPDEST PUSH1 0x0 DUP1 REVERT JUMPDEST PUSH1 0x0 DUP1 REVERT JUMPDEST PUSH1 0x0 DUP1 REVERT JUMPDEST PUSH1 0x0 DUP1 REVERT JUMPDEST PUSH1 0x0 PUSH1 0x1F NOT PUSH1 0x1F DUP4 ADD AND SWAP1 POP SWAP2 SWAP1 POP JUMP JUMPDEST PUSH2 0x61F DUP2 PUSH2 0x4B2 JUMP JUMPDEST DUP2 EQ PUSH2 0x62A JUMPI PUSH1 0x0 DUP1 REVERT JUMPDEST POP JUMP JUMPDEST PUSH2 0x636 DUP2 PUSH2 0x4E4 JUMP JUMPDEST DUP2 EQ PUSH2 0x641 JUMPI PUSH1 0x0 DUP1 REVERT JUMPDEST POP JUMP INVALID LOG2 PUSH5 0x6970667358 0x22 SLT KECCAK256 LOG2 PUSH6 0xBF5F251A5544 0xEE SELFBALANCE 0xF DUP11 0xEE DUP10 PUSH24 0x20E22B1817B74DFA82CCECA0E143A9146664736F6C634300 ADDMOD SMOD STOP CALLER "
				},
				"gasEstimates": {
					"creation": {
						"codeDepositCost": "331600",
						"executionCost": "368",
						"totalCost": "331968"
					},
					"external": {
						"ID()": "2451",
						"createEvent(uint256,string)": "infinite",
						"events(uint256)": "infinite",
						"tickets(address,uint256)": "infinite"
					}
				},
				"methodIdentifiers": {
					"ID()": "b3cea217",
					"createEvent(uint256,string)": "a1d255e1",
					"events(uint256)": "0b791430",
					"tickets(address,uint256)": "dae7a13c"
				}
			},
			"storageLayout": {
				"storage": [
					{
						"astId": 19,
						"contract": "contract/EventOrganizingContract.sol:EventOrganize",
						"label": "events",
						"offset": 0,
						"slot": "0",
						"type": "t_mapping(t_uint256,t_struct(Event)14_storage)"
					},
					{
						"astId": 25,
						"contract": "contract/EventOrganizingContract.sol:EventOrganize",
						"label": "tickets",
						"offset": 0,
						"slot": "1",
						"type": "t_mapping(t_address,t_mapping(t_uint256,t_uint256))"
					},
					{
						"astId": 27,
						"contract": "contract/EventOrganizingContract.sol:EventOrganize",
						"label": "ID",
						"offset": 0,
						"slot": "2",
						"type": "t_uint256"
					}
				],
				"types": {
					"t_address": {
						"encoding": "inplace",
						"label": "address",
						"numberOfBytes": "20"
					},
					"t_mapping(t_address,t_mapping(t_uint256,t_uint256))": {
						"encoding": "mapping",
						"key": "t_address",
						"label": "mapping(address => mapping(uint256 => uint256))",
						"numberOfBytes": "32",
						"value": "t_mapping(t_uint256,t_uint256)"
					},
					"t_mapping(t_uint256,t_struct(Event)14_storage)": {
						"encoding": "mapping",
						"key": "t_uint256",
						"label": "mapping(uint256 => struct EventOrganize.Event)",
						"numberOfBytes": "32",
						"value": "t_struct(Event)14_storage"
					},
					"t_mapping(t_uint256,t_uint256)": {
						"encoding": "mapping",
						"key": "t_uint256",
						"label": "mapping(uint256 => uint256)",
						"numberOfBytes": "32",
						"value": "t_uint256"
					},
					"t_string_storage": {
						"encoding": "bytes",
						"label": "string",
						"numberOfBytes": "32"
					},
					"t_struct(Event)14_storage": {
						"encoding": "inplace",
						"label": "struct EventOrganize.Event",
						"members": [
							{
								"astId": 3,
								"contract": "contract/EventOrganizingContract.sol:EventOrganize",
								"label": "organizer",
								"offset": 0,
								"slot": "0",
								"type": "t_address"
							},
							{
								"astId": 5,
								"contract": "contract/EventOrganizingContract.sol:EventOrganize",
								"label": "date",
								"offset": 0,
								"slot": "1",
								"type": "t_uint256"
							},
							{
								"astId": 7,
								"contract": "contract/EventOrganizingContract.sol:EventOrganize",
								"label": "name",
								"offset": 0,
								"slot": "2",
								"type": "t_string_storage"
							},
							{
								"astId": 9,
								"contract": "contract/EventOrganizingContract.sol:EventOrganize",
								"label": "price",
								"offset": 0,
								"slot": "3",
								"type": "t_uint256"
							},
							{
								"astId": 11,
								"contract": "contract/EventOrganizingContract.sol:EventOrganize",
								"label": "tiketCount",
								"offset": 0,
								"slot": "4",
								"type": "t_uint256"
							},
							{
								"astId": 13,
								"contract": "contract/EventOrganizingContract.sol:EventOrganize",
								"label": "tiketRemain",
								"offset": 0,
								"slot": "5",
								"type": "t_uint256"
							}
						],
						"numberOfBytes": "192"
					},
					"t_uint256": {
						"encoding": "inplace",
						"label": "uint256",
						"numberOfBytes": "32"
					}
				}
			},
			"userdoc": {
				"kind": "user",
				"methods": {},
				"version": 1
			}
		}
	}
}