{
	"contract/EventOrganizingContract.sol": {
		"EventOrganize": {
			"abi": [
				{
					"inputs": [],
					"name": "ID",
					"outputs": [
						{
							"internalType": "uint256",
							"name": "",
							"type": "uint256"
						}
					],
					"stateMutability": "view",
					"type": "function"
				},
				{
					"inputs": [
						{
							"internalType": "uint256",
							"name": "_date",
							"type": "uint256"
						},
						{
							"internalType": "string",
							"name": "_name",
							"type": "string"
						},
						{
							"internalType": "uint256",
							"name": "_price",
							"type": "uint256"
						},
						{
							"internalType": "uint256",
							"name": "_ticketCount",
							"type": "uint256"
						},
						{
							"internalType": "uint256",
							"name": "_ticketRemain",
							"type": "uint256"
						}
					],
					"name": "createEvent",
					"outputs": [],
					"stateMutability": "nonpayable",
					"type": "function"
				},
				{
					"inputs": [
						{
							"internalType": "uint256",
							"name": "",
							"type": "uint256"
						}
					],
					"name": "events",
					"outputs": [
						{
							"internalType": "address",
							"name": "organizer",
							"type": "address"
						},
						{
							"internalType": "uint256",
							"name": "date",
							"type": "uint256"
						},
						{
							"internalType": "string",
							"name": "name",
							"type": "string"
						},
						{
							"internalType": "uint256",
							"name": "price",
							"type": "uint256"
						},
						{
							"internalType": "uint256",
							"name": "tiketCount",
							"type": "uint256"
						},
						{
							"internalType": "uint256",
							"name": "tiketRemain",
							"type": "uint256"
						}
					],
					"stateMutability": "view",
					"type": "function"
				},
				{
					"inputs": [
						{
							"internalType": "address",
							"name": "",
							"type": "address"
						},
						{
							"internalType": "uint256",
							"name": "",
							"type": "uint256"
						}
					],
					"name": "tickets",
					"outputs": [
						{
							"internalType": "uint256",
							"name": "",
							"type": "uint256"
						}
					],
					"stateMutability": "view",
					"type": "function"
				}
			],
			"devdoc": {
				"kind": "dev",
				"methods": {},
				"version": 1
			},
			"evm": {
				"assembly": "    /* \"contract/EventOrganizingContract.sol\":62:617  contract EventOrganize {\r... */\n  mstore(0x40, 0x80)\n  callvalue\n  dup1\n  iszero\n  tag_1\n  jumpi\n  0x00\n  dup1\n  revert\ntag_1:\n  pop\n  dataSize(sub_0)\n  dup1\n  dataOffset(sub_0)\n  0x00\n  codecopy\n  0x00\n  return\nstop\n\nsub_0: assembly {\n        /* \"contract/EventOrganizingContract.sol\":62:617  contract EventOrganize {\r... */\n      mstore(0x40, 0x80)\n      callvalue\n      dup1\n      iszero\n      tag_1\n      jumpi\n      0x00\n      dup1\n      revert\n    tag_1:\n      pop\n      jumpi(tag_2, lt(calldatasize, 0x04))\n      shr(0xe0, calldataload(0x00))\n      dup1\n      0x0b791430\n      eq\n      tag_3\n      jumpi\n      dup1\n      0x9ec4b59a\n      eq\n      tag_4\n      jumpi\n      dup1\n      0xb3cea217\n      eq\n      tag_5\n      jumpi\n      dup1\n      0xdae7a13c\n      eq\n      tag_6\n      jumpi\n    tag_2:\n      0x00\n      dup1\n      revert\n        /* \"contract/EventOrganizingContract.sol\":267:304  mapping (uint => Event) public events */\n    tag_3:\n      tag_7\n      0x04\n      dup1\n      calldatasize\n      sub\n      dup2\n      add\n      swap1\n      tag_8\n      swap2\n      swap1\n      tag_9\n      jump\t// in\n    tag_8:\n      tag_10\n      jump\t// in\n    tag_7:\n      mload(0x40)\n      tag_11\n      swap7\n      swap6\n      swap5\n      swap4\n      swap3\n      swap2\n      swap1\n      tag_12\n      jump\t// in\n    tag_11:\n      mload(0x40)\n      dup1\n      swap2\n      sub\n      swap1\n      return\n        /* \"contract/EventOrganizingContract.sol\":402:612  function createEvent(uint _date, string memory _name, uint _price, uint _ticketCount, uint _ticketRemain) public{\r... */\n    tag_4:\n      tag_13\n      0x04\n      dup1\n      calldatasize\n      sub\n      dup2\n      add\n      swap1\n      tag_14\n      swap2\n      swap1\n      tag_15\n      jump\t// in\n    tag_14:\n      tag_16\n      jump\t// in\n    tag_13:\n      stop\n        /* \"contract/EventOrganizingContract.sol\":375:389  uint public ID */\n    tag_5:\n      tag_17\n      tag_18\n      jump\t// in\n    tag_17:\n      mload(0x40)\n      tag_19\n      swap2\n      swap1\n      tag_20\n      jump\t// in\n    tag_19:\n      mload(0x40)\n      dup1\n      swap2\n      sub\n      swap1\n      return\n        /* \"contract/EventOrganizingContract.sol\":311:368  mapping (address => mapping(uint => uint)) public tickets */\n    tag_6:\n      tag_21\n      0x04\n      dup1\n      calldatasize\n      sub\n      dup2\n      add\n      swap1\n      tag_22\n      swap2\n      swap1\n      tag_23\n      jump\t// in\n    tag_22:\n      tag_24\n      jump\t// in\n    tag_21:\n      mload(0x40)\n      tag_25\n      swap2\n      swap1\n      tag_20\n      jump\t// in\n    tag_25:\n      mload(0x40)\n      dup1\n      swap2\n      sub\n      swap1\n      return\n        /* \"contract/EventOrganizingContract.sol\":267:304  mapping (uint => Event) public events */\n    tag_10:\n      mstore(0x20, 0x00)\n      dup1\n      0x00\n      mstore\n      keccak256(0x00, 0x40)\n      0x00\n      swap2\n      pop\n      swap1\n      pop\n      dup1\n      0x00\n      add\n      0x00\n      swap1\n      sload\n      swap1\n      0x0100\n      exp\n      swap1\n      div\n      0xffffffffffffffffffffffffffffffffffffffff\n      and\n      swap1\n      dup1\n      0x01\n      add\n      sload\n      swap1\n      dup1\n      0x02\n      add\n      dup1\n      sload\n      tag_26\n      swap1\n      tag_27\n      jump\t// in\n    tag_26:\n      dup1\n      0x1f\n      add\n      0x20\n      dup1\n      swap2\n      div\n      mul\n      0x20\n      add\n      mload(0x40)\n      swap1\n      dup2\n      add\n      0x40\n      mstore\n      dup1\n      swap3\n      swap2\n      swap1\n      dup2\n      dup2\n      mstore\n      0x20\n      add\n      dup3\n      dup1\n      sload\n      tag_28\n      swap1\n      tag_27\n      jump\t// in\n    tag_28:\n      dup1\n      iszero\n      tag_29\n      jumpi\n      dup1\n      0x1f\n      lt\n      tag_30\n      jumpi\n      0x0100\n      dup1\n      dup4\n      sload\n      div\n      mul\n      dup4\n      mstore\n      swap2\n      0x20\n      add\n      swap2\n      jump(tag_29)\n    tag_30:\n      dup3\n      add\n      swap2\n      swap1\n      0x00\n      mstore\n      keccak256(0x00, 0x20)\n      swap1\n    tag_31:\n      dup2\n      sload\n      dup2\n      mstore\n      swap1\n      0x01\n      add\n      swap1\n      0x20\n      add\n      dup1\n      dup4\n      gt\n      tag_31\n      jumpi\n      dup3\n      swap1\n      sub\n      0x1f\n      and\n      dup3\n      add\n      swap2\n    tag_29:\n      pop\n      pop\n      pop\n      pop\n      pop\n      swap1\n      dup1\n      0x03\n      add\n      sload\n      swap1\n      dup1\n      0x04\n      add\n      sload\n      swap1\n      dup1\n      0x05\n      add\n      sload\n      swap1\n      pop\n      dup7\n      jump\t// out\n        /* \"contract/EventOrganizingContract.sol\":402:612  function createEvent(uint _date, string memory _name, uint _price, uint _ticketCount, uint _ticketRemain) public{\r... */\n    tag_16:\n        /* \"contract/EventOrganizingContract.sol\":541:556  block.timestamp */\n      timestamp\n        /* \"contract/EventOrganizingContract.sol\":533:538  _date */\n      dup6\n        /* \"contract/EventOrganizingContract.sol\":533:556  _date > block.timestamp */\n      gt\n        /* \"contract/EventOrganizingContract.sol\":525:594  require(_date > block.timestamp, \"You can organize event for future\") */\n      tag_33\n      jumpi\n      mload(0x40)\n      0x08c379a000000000000000000000000000000000000000000000000000000000\n      dup2\n      mstore\n      0x04\n      add\n      tag_34\n      swap1\n      tag_35\n      jump\t// in\n    tag_34:\n      mload(0x40)\n      dup1\n      swap2\n      sub\n      swap1\n      revert\n    tag_33:\n        /* \"contract/EventOrganizingContract.sol\":402:612  function createEvent(uint _date, string memory _name, uint _price, uint _ticketCount, uint _ticketRemain) public{\r... */\n      pop\n      pop\n      pop\n      pop\n      pop\n      jump\t// out\n        /* \"contract/EventOrganizingContract.sol\":375:389  uint public ID */\n    tag_18:\n      sload(0x02)\n      dup2\n      jump\t// out\n        /* \"contract/EventOrganizingContract.sol\":311:368  mapping (address => mapping(uint => uint)) public tickets */\n    tag_24:\n      mstore(0x20, 0x01)\n      dup2\n      0x00\n      mstore\n      mstore(0x20, keccak256(0x00, 0x40))\n      dup1\n      0x00\n      mstore\n      keccak256(0x00, 0x40)\n      0x00\n      swap2\n      pop\n      swap2\n      pop\n      pop\n      sload\n      dup2\n      jump\t// out\n        /* \"#utility.yul\":7:419   */\n    tag_37:\n        /* \"#utility.yul\":85:90   */\n      0x00\n        /* \"#utility.yul\":110:176   */\n      tag_39\n        /* \"#utility.yul\":126:175   */\n      tag_40\n        /* \"#utility.yul\":168:174   */\n      dup5\n        /* \"#utility.yul\":126:175   */\n      tag_41\n      jump\t// in\n    tag_40:\n        /* \"#utility.yul\":110:176   */\n      tag_42\n      jump\t// in\n    tag_39:\n        /* \"#utility.yul\":101:176   */\n      swap1\n      pop\n        /* \"#utility.yul\":199:205   */\n      dup3\n        /* \"#utility.yul\":192:197   */\n      dup2\n        /* \"#utility.yul\":185:206   */\n      mstore\n        /* \"#utility.yul\":237:241   */\n      0x20\n        /* \"#utility.yul\":230:235   */\n      dup2\n        /* \"#utility.yul\":226:242   */\n      add\n        /* \"#utility.yul\":275:278   */\n      dup5\n        /* \"#utility.yul\":266:272   */\n      dup5\n        /* \"#utility.yul\":261:264   */\n      dup5\n        /* \"#utility.yul\":257:273   */\n      add\n        /* \"#utility.yul\":254:279   */\n      gt\n        /* \"#utility.yul\":251:363   */\n      iszero\n      tag_43\n      jumpi\n        /* \"#utility.yul\":282:361   */\n      tag_44\n      tag_45\n      jump\t// in\n    tag_44:\n        /* \"#utility.yul\":251:363   */\n    tag_43:\n        /* \"#utility.yul\":372:413   */\n      tag_46\n        /* \"#utility.yul\":406:412   */\n      dup5\n        /* \"#utility.yul\":401:404   */\n      dup3\n        /* \"#utility.yul\":396:399   */\n      dup6\n        /* \"#utility.yul\":372:413   */\n      tag_47\n      jump\t// in\n    tag_46:\n        /* \"#utility.yul\":91:419   */\n      pop\n        /* \"#utility.yul\":7:419   */\n      swap4\n      swap3\n      pop\n      pop\n      pop\n      jump\t// out\n        /* \"#utility.yul\":425:564   */\n    tag_48:\n        /* \"#utility.yul\":471:476   */\n      0x00\n        /* \"#utility.yul\":509:515   */\n      dup2\n        /* \"#utility.yul\":496:516   */\n      calldataload\n        /* \"#utility.yul\":487:516   */\n      swap1\n      pop\n        /* \"#utility.yul\":525:558   */\n      tag_50\n        /* \"#utility.yul\":552:557   */\n      dup2\n        /* \"#utility.yul\":525:558   */\n      tag_51\n      jump\t// in\n    tag_50:\n        /* \"#utility.yul\":425:564   */\n      swap3\n      swap2\n      pop\n      pop\n      jump\t// out\n        /* \"#utility.yul\":584:924   */\n    tag_52:\n        /* \"#utility.yul\":640:645   */\n      0x00\n        /* \"#utility.yul\":689:692   */\n      dup3\n        /* \"#utility.yul\":682:686   */\n      0x1f\n        /* \"#utility.yul\":674:680   */\n      dup4\n        /* \"#utility.yul\":670:687   */\n      add\n        /* \"#utility.yul\":666:693   */\n      slt\n        /* \"#utility.yul\":656:778   */\n      tag_54\n      jumpi\n        /* \"#utility.yul\":697:776   */\n      tag_55\n      tag_56\n      jump\t// in\n    tag_55:\n        /* \"#utility.yul\":656:778   */\n    tag_54:\n        /* \"#utility.yul\":814:820   */\n      dup2\n        /* \"#utility.yul\":801:821   */\n      calldataload\n        /* \"#utility.yul\":839:918   */\n      tag_57\n        /* \"#utility.yul\":914:917   */\n      dup5\n        /* \"#utility.yul\":906:912   */\n      dup3\n        /* \"#utility.yul\":899:903   */\n      0x20\n        /* \"#utility.yul\":891:897   */\n      dup7\n        /* \"#utility.yul\":887:904   */\n      add\n        /* \"#utility.yul\":839:918   */\n      tag_37\n      jump\t// in\n    tag_57:\n        /* \"#utility.yul\":830:918   */\n      swap2\n      pop\n        /* \"#utility.yul\":646:924   */\n      pop\n        /* \"#utility.yul\":584:924   */\n      swap3\n      swap2\n      pop\n      pop\n      jump\t// out\n        /* \"#utility.yul\":930:1069   */\n    tag_58:\n        /* \"#utility.yul\":976:981   */\n      0x00\n        /* \"#utility.yul\":1014:1020   */\n      dup2\n        /* \"#utility.yul\":1001:1021   */\n      calldataload\n        /* \"#utility.yul\":992:1021   */\n      swap1\n      pop\n        /* \"#utility.yul\":1030:1063   */\n      tag_60\n        /* \"#utility.yul\":1057:1062   */\n      dup2\n        /* \"#utility.yul\":1030:1063   */\n      tag_61\n      jump\t// in\n    tag_60:\n        /* \"#utility.yul\":930:1069   */\n      swap3\n      swap2\n      pop\n      pop\n      jump\t// out\n        /* \"#utility.yul\":1075:1549   */\n    tag_23:\n        /* \"#utility.yul\":1143:1149   */\n      0x00\n        /* \"#utility.yul\":1151:1157   */\n      dup1\n        /* \"#utility.yul\":1200:1202   */\n      0x40\n        /* \"#utility.yul\":1188:1197   */\n      dup4\n        /* \"#utility.yul\":1179:1186   */\n      dup6\n        /* \"#utility.yul\":1175:1198   */\n      sub\n        /* \"#utility.yul\":1171:1203   */\n      slt\n        /* \"#utility.yul\":1168:1287   */\n      iszero\n      tag_63\n      jumpi\n        /* \"#utility.yul\":1206:1285   */\n      tag_64\n      tag_65\n      jump\t// in\n    tag_64:\n        /* \"#utility.yul\":1168:1287   */\n    tag_63:\n        /* \"#utility.yul\":1326:1327   */\n      0x00\n        /* \"#utility.yul\":1351:1404   */\n      tag_66\n        /* \"#utility.yul\":1396:1403   */\n      dup6\n        /* \"#utility.yul\":1387:1393   */\n      dup3\n        /* \"#utility.yul\":1376:1385   */\n      dup7\n        /* \"#utility.yul\":1372:1394   */\n      add\n        /* \"#utility.yul\":1351:1404   */\n      tag_48\n      jump\t// in\n    tag_66:\n        /* \"#utility.yul\":1341:1404   */\n      swap3\n      pop\n        /* \"#utility.yul\":1297:1414   */\n      pop\n        /* \"#utility.yul\":1453:1455   */\n      0x20\n        /* \"#utility.yul\":1479:1532   */\n      tag_67\n        /* \"#utility.yul\":1524:1531   */\n      dup6\n        /* \"#utility.yul\":1515:1521   */\n      dup3\n        /* \"#utility.yul\":1504:1513   */\n      dup7\n        /* \"#utility.yul\":1500:1522   */\n      add\n        /* \"#utility.yul\":1479:1532   */\n      tag_58\n      jump\t// in\n    tag_67:\n        /* \"#utility.yul\":1469:1532   */\n      swap2\n      pop\n        /* \"#utility.yul\":1424:1542   */\n      pop\n        /* \"#utility.yul\":1075:1549   */\n      swap3\n      pop\n      swap3\n      swap1\n      pop\n      jump\t// out\n        /* \"#utility.yul\":1555:1884   */\n    tag_9:\n        /* \"#utility.yul\":1614:1620   */\n      0x00\n        /* \"#utility.yul\":1663:1665   */\n      0x20\n        /* \"#utility.yul\":1651:1660   */\n      dup3\n        /* \"#utility.yul\":1642:1649   */\n      dup5\n        /* \"#utility.yul\":1638:1661   */\n      sub\n        /* \"#utility.yul\":1634:1666   */\n      slt\n        /* \"#utility.yul\":1631:1750   */\n      iszero\n      tag_69\n      jumpi\n        /* \"#utility.yul\":1669:1748   */\n      tag_70\n      tag_65\n      jump\t// in\n    tag_70:\n        /* \"#utility.yul\":1631:1750   */\n    tag_69:\n        /* \"#utility.yul\":1789:1790   */\n      0x00\n        /* \"#utility.yul\":1814:1867   */\n      tag_71\n        /* \"#utility.yul\":1859:1866   */\n      dup5\n        /* \"#utility.yul\":1850:1856   */\n      dup3\n        /* \"#utility.yul\":1839:1848   */\n      dup6\n        /* \"#utility.yul\":1835:1857   */\n      add\n        /* \"#utility.yul\":1814:1867   */\n      tag_58\n      jump\t// in\n    tag_71:\n        /* \"#utility.yul\":1804:1867   */\n      swap2\n      pop\n        /* \"#utility.yul\":1760:1877   */\n      pop\n        /* \"#utility.yul\":1555:1884   */\n      swap3\n      swap2\n      pop\n      pop\n      jump\t// out\n        /* \"#utility.yul\":1890:2981   */\n    tag_15:\n        /* \"#utility.yul\":1995:2001   */\n      0x00\n        /* \"#utility.yul\":2003:2009   */\n      dup1\n        /* \"#utility.yul\":2011:2017   */\n      0x00\n        /* \"#utility.yul\":2019:2025   */\n      dup1\n        /* \"#utility.yul\":2027:2033   */\n      0x00\n        /* \"#utility.yul\":2076:2079   */\n      0xa0\n        /* \"#utility.yul\":2064:2073   */\n      dup7\n        /* \"#utility.yul\":2055:2062   */\n      dup9\n        /* \"#utility.yul\":2051:2074   */\n      sub\n        /* \"#utility.yul\":2047:2080   */\n      slt\n        /* \"#utility.yul\":2044:2164   */\n      iszero\n      tag_73\n      jumpi\n        /* \"#utility.yul\":2083:2162   */\n      tag_74\n      tag_65\n      jump\t// in\n    tag_74:\n        /* \"#utility.yul\":2044:2164   */\n    tag_73:\n        /* \"#utility.yul\":2203:2204   */\n      0x00\n        /* \"#utility.yul\":2228:2281   */\n      tag_75\n        /* \"#utility.yul\":2273:2280   */\n      dup9\n        /* \"#utility.yul\":2264:2270   */\n      dup3\n        /* \"#utility.yul\":2253:2262   */\n      dup10\n        /* \"#utility.yul\":2249:2271   */\n      add\n        /* \"#utility.yul\":2228:2281   */\n      tag_58\n      jump\t// in\n    tag_75:\n        /* \"#utility.yul\":2218:2281   */\n      swap6\n      pop\n        /* \"#utility.yul\":2174:2291   */\n      pop\n        /* \"#utility.yul\":2358:2360   */\n      0x20\n        /* \"#utility.yul\":2347:2356   */\n      dup7\n        /* \"#utility.yul\":2343:2361   */\n      add\n        /* \"#utility.yul\":2330:2362   */\n      calldataload\n        /* \"#utility.yul\":2389:2407   */\n      0xffffffffffffffff\n        /* \"#utility.yul\":2381:2387   */\n      dup2\n        /* \"#utility.yul\":2378:2408   */\n      gt\n        /* \"#utility.yul\":2375:2492   */\n      iszero\n      tag_76\n      jumpi\n        /* \"#utility.yul\":2411:2490   */\n      tag_77\n      tag_78\n      jump\t// in\n    tag_77:\n        /* \"#utility.yul\":2375:2492   */\n    tag_76:\n        /* \"#utility.yul\":2516:2579   */\n      tag_79\n        /* \"#utility.yul\":2571:2578   */\n      dup9\n        /* \"#utility.yul\":2562:2568   */\n      dup3\n        /* \"#utility.yul\":2551:2560   */\n      dup10\n        /* \"#utility.yul\":2547:2569   */\n      add\n        /* \"#utility.yul\":2516:2579   */\n      tag_52\n      jump\t// in\n    tag_79:\n        /* \"#utility.yul\":2506:2579   */\n      swap5\n      pop\n        /* \"#utility.yul\":2301:2589   */\n      pop\n        /* \"#utility.yul\":2628:2630   */\n      0x40\n        /* \"#utility.yul\":2654:2707   */\n      tag_80\n        /* \"#utility.yul\":2699:2706   */\n      dup9\n        /* \"#utility.yul\":2690:2696   */\n      dup3\n        /* \"#utility.yul\":2679:2688   */\n      dup10\n        /* \"#utility.yul\":2675:2697   */\n      add\n        /* \"#utility.yul\":2654:2707   */\n      tag_58\n      jump\t// in\n    tag_80:\n        /* \"#utility.yul\":2644:2707   */\n      swap4\n      pop\n        /* \"#utility.yul\":2599:2717   */\n      pop\n        /* \"#utility.yul\":2756:2758   */\n      0x60\n        /* \"#utility.yul\":2782:2835   */\n      tag_81\n        /* \"#utility.yul\":2827:2834   */\n      dup9\n        /* \"#utility.yul\":2818:2824   */\n      dup3\n        /* \"#utility.yul\":2807:2816   */\n      dup10\n        /* \"#utility.yul\":2803:2825   */\n      add\n        /* \"#utility.yul\":2782:2835   */\n      tag_58\n      jump\t// in\n    tag_81:\n        /* \"#utility.yul\":2772:2835   */\n      swap3\n      pop\n        /* \"#utility.yul\":2727:2845   */\n      pop\n        /* \"#utility.yul\":2884:2887   */\n      0x80\n        /* \"#utility.yul\":2911:2964   */\n      tag_82\n        /* \"#utility.yul\":2956:2963   */\n      dup9\n        /* \"#utility.yul\":2947:2953   */\n      dup3\n        /* \"#utility.yul\":2936:2945   */\n      dup10\n        /* \"#utility.yul\":2932:2954   */\n      add\n        /* \"#utility.yul\":2911:2964   */\n      tag_58\n      jump\t// in\n    tag_82:\n        /* \"#utility.yul\":2901:2964   */\n      swap2\n      pop\n        /* \"#utility.yul\":2855:2974   */\n      pop\n        /* \"#utility.yul\":1890:2981   */\n      swap3\n      swap6\n      pop\n      swap3\n      swap6\n      swap1\n      swap4\n      pop\n      jump\t// out\n        /* \"#utility.yul\":2987:3105   */\n    tag_83:\n        /* \"#utility.yul\":3074:3098   */\n      tag_85\n        /* \"#utility.yul\":3092:3097   */\n      dup2\n        /* \"#utility.yul\":3074:3098   */\n      tag_86\n      jump\t// in\n    tag_85:\n        /* \"#utility.yul\":3069:3072   */\n      dup3\n        /* \"#utility.yul\":3062:3099   */\n      mstore\n        /* \"#utility.yul\":2987:3105   */\n      pop\n      pop\n      jump\t// out\n        /* \"#utility.yul\":3111:3475   */\n    tag_87:\n        /* \"#utility.yul\":3199:3202   */\n      0x00\n        /* \"#utility.yul\":3227:3266   */\n      tag_89\n        /* \"#utility.yul\":3260:3265   */\n      dup3\n        /* \"#utility.yul\":3227:3266   */\n      tag_90\n      jump\t// in\n    tag_89:\n        /* \"#utility.yul\":3282:3353   */\n      tag_91\n        /* \"#utility.yul\":3346:3352   */\n      dup2\n        /* \"#utility.yul\":3341:3344   */\n      dup6\n        /* \"#utility.yul\":3282:3353   */\n      tag_92\n      jump\t// in\n    tag_91:\n        /* \"#utility.yul\":3275:3353   */\n      swap4\n      pop\n        /* \"#utility.yul\":3362:3414   */\n      tag_93\n        /* \"#utility.yul\":3407:3413   */\n      dup2\n        /* \"#utility.yul\":3402:3405   */\n      dup6\n        /* \"#utility.yul\":3395:3399   */\n      0x20\n        /* \"#utility.yul\":3388:3393   */\n      dup7\n        /* \"#utility.yul\":3384:3400   */\n      add\n        /* \"#utility.yul\":3362:3414   */\n      tag_94\n      jump\t// in\n    tag_93:\n        /* \"#utility.yul\":3439:3468   */\n      tag_95\n        /* \"#utility.yul\":3461:3467   */\n      dup2\n        /* \"#utility.yul\":3439:3468   */\n      tag_96\n      jump\t// in\n    tag_95:\n        /* \"#utility.yul\":3434:3437   */\n      dup5\n        /* \"#utility.yul\":3430:3469   */\n      add\n        /* \"#utility.yul\":3423:3469   */\n      swap2\n      pop\n        /* \"#utility.yul\":3203:3475   */\n      pop\n        /* \"#utility.yul\":3111:3475   */\n      swap3\n      swap2\n      pop\n      pop\n      jump\t// out\n        /* \"#utility.yul\":3481:3847   */\n    tag_97:\n        /* \"#utility.yul\":3623:3626   */\n      0x00\n        /* \"#utility.yul\":3644:3711   */\n      tag_99\n        /* \"#utility.yul\":3708:3710   */\n      0x21\n        /* \"#utility.yul\":3703:3706   */\n      dup4\n        /* \"#utility.yul\":3644:3711   */\n      tag_92\n      jump\t// in\n    tag_99:\n        /* \"#utility.yul\":3637:3711   */\n      swap2\n      pop\n        /* \"#utility.yul\":3720:3813   */\n      tag_100\n        /* \"#utility.yul\":3809:3812   */\n      dup3\n        /* \"#utility.yul\":3720:3813   */\n      tag_101\n      jump\t// in\n    tag_100:\n        /* \"#utility.yul\":3838:3840   */\n      0x40\n        /* \"#utility.yul\":3833:3836   */\n      dup3\n        /* \"#utility.yul\":3829:3841   */\n      add\n        /* \"#utility.yul\":3822:3841   */\n      swap1\n      pop\n        /* \"#utility.yul\":3481:3847   */\n      swap2\n      swap1\n      pop\n      jump\t// out\n        /* \"#utility.yul\":3853:3971   */\n    tag_102:\n        /* \"#utility.yul\":3940:3964   */\n      tag_104\n        /* \"#utility.yul\":3958:3963   */\n      dup2\n        /* \"#utility.yul\":3940:3964   */\n      tag_105\n      jump\t// in\n    tag_104:\n        /* \"#utility.yul\":3935:3938   */\n      dup3\n        /* \"#utility.yul\":3928:3965   */\n      mstore\n        /* \"#utility.yul\":3853:3971   */\n      pop\n      pop\n      jump\t// out\n        /* \"#utility.yul\":3977:4843   */\n    tag_12:\n        /* \"#utility.yul\":4230:4234   */\n      0x00\n        /* \"#utility.yul\":4268:4271   */\n      0xc0\n        /* \"#utility.yul\":4257:4266   */\n      dup3\n        /* \"#utility.yul\":4253:4272   */\n      add\n        /* \"#utility.yul\":4245:4272   */\n      swap1\n      pop\n        /* \"#utility.yul\":4282:4353   */\n      tag_107\n        /* \"#utility.yul\":4350:4351   */\n      0x00\n        /* \"#utility.yul\":4339:4348   */\n      dup4\n        /* \"#utility.yul\":4335:4352   */\n      add\n        /* \"#utility.yul\":4326:4332   */\n      dup10\n        /* \"#utility.yul\":4282:4353   */\n      tag_83\n      jump\t// in\n    tag_107:\n        /* \"#utility.yul\":4363:4435   */\n      tag_108\n        /* \"#utility.yul\":4431:4433   */\n      0x20\n        /* \"#utility.yul\":4420:4429   */\n      dup4\n        /* \"#utility.yul\":4416:4434   */\n      add\n        /* \"#utility.yul\":4407:4413   */\n      dup9\n        /* \"#utility.yul\":4363:4435   */\n      tag_102\n      jump\t// in\n    tag_108:\n        /* \"#utility.yul\":4482:4491   */\n      dup2\n        /* \"#utility.yul\":4476:4480   */\n      dup2\n        /* \"#utility.yul\":4472:4492   */\n      sub\n        /* \"#utility.yul\":4467:4469   */\n      0x40\n        /* \"#utility.yul\":4456:4465   */\n      dup4\n        /* \"#utility.yul\":4452:4470   */\n      add\n        /* \"#utility.yul\":4445:4493   */\n      mstore\n        /* \"#utility.yul\":4510:4588   */\n      tag_109\n        /* \"#utility.yul\":4583:4587   */\n      dup2\n        /* \"#utility.yul\":4574:4580   */\n      dup8\n        /* \"#utility.yul\":4510:4588   */\n      tag_87\n      jump\t// in\n    tag_109:\n        /* \"#utility.yul\":4502:4588   */\n      swap1\n      pop\n        /* \"#utility.yul\":4598:4670   */\n      tag_110\n        /* \"#utility.yul\":4666:4668   */\n      0x60\n        /* \"#utility.yul\":4655:4664   */\n      dup4\n        /* \"#utility.yul\":4651:4669   */\n      add\n        /* \"#utility.yul\":4642:4648   */\n      dup7\n        /* \"#utility.yul\":4598:4670   */\n      tag_102\n      jump\t// in\n    tag_110:\n        /* \"#utility.yul\":4680:4753   */\n      tag_111\n        /* \"#utility.yul\":4748:4751   */\n      0x80\n        /* \"#utility.yul\":4737:4746   */\n      dup4\n        /* \"#utility.yul\":4733:4752   */\n      add\n        /* \"#utility.yul\":4724:4730   */\n      dup6\n        /* \"#utility.yul\":4680:4753   */\n      tag_102\n      jump\t// in\n    tag_111:\n        /* \"#utility.yul\":4763:4836   */\n      tag_112\n        /* \"#utility.yul\":4831:4834   */\n      0xa0\n        /* \"#utility.yul\":4820:4829   */\n      dup4\n        /* \"#utility.yul\":4816:4835   */\n      add\n        /* \"#utility.yul\":4807:4813   */\n      dup5\n        /* \"#utility.yul\":4763:4836   */\n      tag_102\n      jump\t// in\n    tag_112:\n        /* \"#utility.yul\":3977:4843   */\n      swap8\n      swap7\n      pop\n      pop\n      pop\n      pop\n      pop\n      pop\n      pop\n      jump\t// out\n        /* \"#utility.yul\":4849:5268   */\n    tag_35:\n        /* \"#utility.yul\":5015:5019   */\n      0x00\n        /* \"#utility.yul\":5053:5055   */\n      0x20\n        /* \"#utility.yul\":5042:5051   */\n      dup3\n        /* \"#utility.yul\":5038:5056   */\n      add\n        /* \"#utility.yul\":5030:5056   */\n      swap1\n      pop\n        /* \"#utility.yul\":5102:5111   */\n      dup2\n        /* \"#utility.yul\":5096:5100   */\n      dup2\n        /* \"#utility.yul\":5092:5112   */\n      sub\n        /* \"#utility.yul\":5088:5089   */\n      0x00\n        /* \"#utility.yul\":5077:5086   */\n      dup4\n        /* \"#utility.yul\":5073:5090   */\n      add\n        /* \"#utility.yul\":5066:5113   */\n      mstore\n        /* \"#utility.yul\":5130:5261   */\n      tag_114\n        /* \"#utility.yul\":5256:5260   */\n      dup2\n        /* \"#utility.yul\":5130:5261   */\n      tag_97\n      jump\t// in\n    tag_114:\n        /* \"#utility.yul\":5122:5261   */\n      swap1\n      pop\n        /* \"#utility.yul\":4849:5268   */\n      swap2\n      swap1\n      pop\n      jump\t// out\n        /* \"#utility.yul\":5274:5496   */\n    tag_20:\n        /* \"#utility.yul\":5367:5371   */\n      0x00\n        /* \"#utility.yul\":5405:5407   */\n      0x20\n        /* \"#utility.yul\":5394:5403   */\n      dup3\n        /* \"#utility.yul\":5390:5408   */\n      add\n        /* \"#utility.yul\":5382:5408   */\n      swap1\n      pop\n        /* \"#utility.yul\":5418:5489   */\n      tag_116\n        /* \"#utility.yul\":5486:5487   */\n      0x00\n        /* \"#utility.yul\":5475:5484   */\n      dup4\n        /* \"#utility.yul\":5471:5488   */\n      add\n        /* \"#utility.yul\":5462:5468   */\n      dup5\n        /* \"#utility.yul\":5418:5489   */\n      tag_102\n      jump\t// in\n    tag_116:\n        /* \"#utility.yul\":5274:5496   */\n      swap3\n      swap2\n      pop\n      pop\n      jump\t// out\n        /* \"#utility.yul\":5502:5631   */\n    tag_42:\n        /* \"#utility.yul\":5536:5542   */\n      0x00\n        /* \"#utility.yul\":5563:5583   */\n      tag_118\n      tag_119\n      jump\t// in\n    tag_118:\n        /* \"#utility.yul\":5553:5583   */\n      swap1\n      pop\n        /* \"#utility.yul\":5592:5625   */\n      tag_120\n        /* \"#utility.yul\":5620:5624   */\n      dup3\n        /* \"#utility.yul\":5612:5618   */\n      dup3\n        /* \"#utility.yul\":5592:5625   */\n      tag_121\n      jump\t// in\n    tag_120:\n        /* \"#utility.yul\":5502:5631   */\n      swap2\n      swap1\n      pop\n      jump\t// out\n        /* \"#utility.yul\":5637:5712   */\n    tag_119:\n        /* \"#utility.yul\":5670:5676   */\n      0x00\n        /* \"#utility.yul\":5703:5705   */\n      0x40\n        /* \"#utility.yul\":5697:5706   */\n      mload\n        /* \"#utility.yul\":5687:5706   */\n      swap1\n      pop\n        /* \"#utility.yul\":5637:5712   */\n      swap1\n      jump\t// out\n        /* \"#utility.yul\":5718:6026   */\n    tag_41:\n        /* \"#utility.yul\":5780:5784   */\n      0x00\n        /* \"#utility.yul\":5870:5888   */\n      0xffffffffffffffff\n        /* \"#utility.yul\":5862:5868   */\n      dup3\n        /* \"#utility.yul\":5859:5889   */\n      gt\n        /* \"#utility.yul\":5856:5912   */\n      iszero\n      tag_124\n      jumpi\n        /* \"#utility.yul\":5892:5910   */\n      tag_125\n      tag_126\n      jump\t// in\n    tag_125:\n        /* \"#utility.yul\":5856:5912   */\n    tag_124:\n        /* \"#utility.yul\":5930:5959   */\n      tag_127\n        /* \"#utility.yul\":5952:5958   */\n      dup3\n        /* \"#utility.yul\":5930:5959   */\n      tag_96\n      jump\t// in\n    tag_127:\n        /* \"#utility.yul\":5922:5959   */\n      swap1\n      pop\n        /* \"#utility.yul\":6014:6018   */\n      0x20\n        /* \"#utility.yul\":6008:6012   */\n      dup2\n        /* \"#utility.yul\":6004:6019   */\n      add\n        /* \"#utility.yul\":5996:6019   */\n      swap1\n      pop\n        /* \"#utility.yul\":5718:6026   */\n      swap2\n      swap1\n      pop\n      jump\t// out\n        /* \"#utility.yul\":6032:6131   */\n    tag_90:\n        /* \"#utility.yul\":6084:6090   */\n      0x00\n        /* \"#utility.yul\":6118:6123   */\n      dup2\n        /* \"#utility.yul\":6112:6124   */\n      mload\n        /* \"#utility.yul\":6102:6124   */\n      swap1\n      pop\n        /* \"#utility.yul\":6032:6131   */\n      swap2\n      swap1\n      pop\n      jump\t// out\n        /* \"#utility.yul\":6137:6306   */\n    tag_92:\n        /* \"#utility.yul\":6221:6232   */\n      0x00\n        /* \"#utility.yul\":6255:6261   */\n      dup3\n        /* \"#utility.yul\":6250:6253   */\n      dup3\n        /* \"#utility.yul\":6243:6262   */\n      mstore\n        /* \"#utility.yul\":6295:6299   */\n      0x20\n        /* \"#utility.yul\":6290:6293   */\n      dup3\n        /* \"#utility.yul\":6286:6300   */\n      add\n        /* \"#utility.yul\":6271:6300   */\n      swap1\n      pop\n        /* \"#utility.yul\":6137:6306   */\n      swap3\n      swap2\n      pop\n      pop\n      jump\t// out\n        /* \"#utility.yul\":6312:6408   */\n    tag_86:\n        /* \"#utility.yul\":6349:6356   */\n      0x00\n        /* \"#utility.yul\":6378:6402   */\n      tag_131\n        /* \"#utility.yul\":6396:6401   */\n      dup3\n        /* \"#utility.yul\":6378:6402   */\n      tag_132\n      jump\t// in\n    tag_131:\n        /* \"#utility.yul\":6367:6402   */\n      swap1\n      pop\n        /* \"#utility.yul\":6312:6408   */\n      swap2\n      swap1\n      pop\n      jump\t// out\n        /* \"#utility.yul\":6414:6540   */\n    tag_132:\n        /* \"#utility.yul\":6451:6458   */\n      0x00\n        /* \"#utility.yul\":6491:6533   */\n      0xffffffffffffffffffffffffffffffffffffffff\n        /* \"#utility.yul\":6484:6489   */\n      dup3\n        /* \"#utility.yul\":6480:6534   */\n      and\n        /* \"#utility.yul\":6469:6534   */\n      swap1\n      pop\n        /* \"#utility.yul\":6414:6540   */\n      swap2\n      swap1\n      pop\n      jump\t// out\n        /* \"#utility.yul\":6546:6623   */\n    tag_105:\n        /* \"#utility.yul\":6583:6590   */\n      0x00\n        /* \"#utility.yul\":6612:6617   */\n      dup2\n        /* \"#utility.yul\":6601:6617   */\n      swap1\n      pop\n        /* \"#utility.yul\":6546:6623   */\n      swap2\n      swap1\n      pop\n      jump\t// out\n        /* \"#utility.yul\":6629:6783   */\n    tag_47:\n        /* \"#utility.yul\":6713:6719   */\n      dup3\n        /* \"#utility.yul\":6708:6711   */\n      dup2\n        /* \"#utility.yul\":6703:6706   */\n      dup4\n        /* \"#utility.yul\":6690:6720   */\n      calldatacopy\n        /* \"#utility.yul\":6775:6776   */\n      0x00\n        /* \"#utility.yul\":6766:6772   */\n      dup4\n        /* \"#utility.yul\":6761:6764   */\n      dup4\n        /* \"#utility.yul\":6757:6773   */\n      add\n        /* \"#utility.yul\":6750:6777   */\n      mstore\n        /* \"#utility.yul\":6629:6783   */\n      pop\n      pop\n      pop\n      jump\t// out\n        /* \"#utility.yul\":6789:7096   */\n    tag_94:\n        /* \"#utility.yul\":6857:6858   */\n      0x00\n        /* \"#utility.yul\":6867:6980   */\n    tag_137:\n        /* \"#utility.yul\":6881:6887   */\n      dup4\n        /* \"#utility.yul\":6878:6879   */\n      dup2\n        /* \"#utility.yul\":6875:6888   */\n      lt\n        /* \"#utility.yul\":6867:6980   */\n      iszero\n      tag_139\n      jumpi\n        /* \"#utility.yul\":6966:6967   */\n      dup1\n        /* \"#utility.yul\":6961:6964   */\n      dup3\n        /* \"#utility.yul\":6957:6968   */\n      add\n        /* \"#utility.yul\":6951:6969   */\n      mload\n        /* \"#utility.yul\":6947:6948   */\n      dup2\n        /* \"#utility.yul\":6942:6945   */\n      dup5\n        /* \"#utility.yul\":6938:6949   */\n      add\n        /* \"#utility.yul\":6931:6970   */\n      mstore\n        /* \"#utility.yul\":6903:6905   */\n      0x20\n        /* \"#utility.yul\":6900:6901   */\n      dup2\n        /* \"#utility.yul\":6896:6906   */\n      add\n        /* \"#utility.yul\":6891:6906   */\n      swap1\n      pop\n        /* \"#utility.yul\":6867:6980   */\n      jump(tag_137)\n    tag_139:\n        /* \"#utility.yul\":6998:7004   */\n      dup4\n        /* \"#utility.yul\":6995:6996   */\n      dup2\n        /* \"#utility.yul\":6992:7005   */\n      gt\n        /* \"#utility.yul\":6989:7090   */\n      iszero\n      tag_140\n      jumpi\n        /* \"#utility.yul\":7078:7079   */\n      0x00\n        /* \"#utility.yul\":7069:7075   */\n      dup5\n        /* \"#utility.yul\":7064:7067   */\n      dup5\n        /* \"#utility.yul\":7060:7076   */\n      add\n        /* \"#utility.yul\":7053:7080   */\n      mstore\n        /* \"#utility.yul\":6989:7090   */\n    tag_140:\n        /* \"#utility.yul\":6838:7096   */\n      pop\n        /* \"#utility.yul\":6789:7096   */\n      pop\n      pop\n      pop\n      jump\t// out\n        /* \"#utility.yul\":7102:7422   */\n    tag_27:\n        /* \"#utility.yul\":7146:7152   */\n      0x00\n        /* \"#utility.yul\":7183:7184   */\n      0x02\n        /* \"#utility.yul\":7177:7181   */\n      dup3\n        /* \"#utility.yul\":7173:7185   */\n      div\n        /* \"#utility.yul\":7163:7185   */\n      swap1\n      pop\n        /* \"#utility.yul\":7230:7231   */\n      0x01\n        /* \"#utility.yul\":7224:7228   */\n      dup3\n        /* \"#utility.yul\":7220:7232   */\n      and\n        /* \"#utility.yul\":7251:7269   */\n      dup1\n        /* \"#utility.yul\":7241:7322   */\n      tag_142\n      jumpi\n        /* \"#utility.yul\":7307:7311   */\n      0x7f\n        /* \"#utility.yul\":7299:7305   */\n      dup3\n        /* \"#utility.yul\":7295:7312   */\n      and\n        /* \"#utility.yul\":7285:7312   */\n      swap2\n      pop\n        /* \"#utility.yul\":7241:7322   */\n    tag_142:\n        /* \"#utility.yul\":7369:7371   */\n      0x20\n        /* \"#utility.yul\":7361:7367   */\n      dup3\n        /* \"#utility.yul\":7358:7372   */\n      lt\n        /* \"#utility.yul\":7338:7356   */\n      dup2\n        /* \"#utility.yul\":7335:7373   */\n      eq\n        /* \"#utility.yul\":7332:7416   */\n      iszero\n      tag_143\n      jumpi\n        /* \"#utility.yul\":7388:7406   */\n      tag_144\n      tag_145\n      jump\t// in\n    tag_144:\n        /* \"#utility.yul\":7332:7416   */\n    tag_143:\n        /* \"#utility.yul\":7153:7422   */\n      pop\n        /* \"#utility.yul\":7102:7422   */\n      swap2\n      swap1\n      pop\n      jump\t// out\n        /* \"#utility.yul\":7428:7709   */\n    tag_121:\n        /* \"#utility.yul\":7511:7538   */\n      tag_147\n        /* \"#utility.yul\":7533:7537   */\n      dup3\n        /* \"#utility.yul\":7511:7538   */\n      tag_96\n      jump\t// in\n    tag_147:\n        /* \"#utility.yul\":7503:7509   */\n      dup2\n        /* \"#utility.yul\":7499:7539   */\n      add\n        /* \"#utility.yul\":7641:7647   */\n      dup2\n        /* \"#utility.yul\":7629:7639   */\n      dup2\n        /* \"#utility.yul\":7626:7648   */\n      lt\n        /* \"#utility.yul\":7605:7623   */\n      0xffffffffffffffff\n        /* \"#utility.yul\":7593:7603   */\n      dup3\n        /* \"#utility.yul\":7590:7624   */\n      gt\n        /* \"#utility.yul\":7587:7649   */\n      or\n        /* \"#utility.yul\":7584:7672   */\n      iszero\n      tag_148\n      jumpi\n        /* \"#utility.yul\":7652:7670   */\n      tag_149\n      tag_126\n      jump\t// in\n    tag_149:\n        /* \"#utility.yul\":7584:7672   */\n    tag_148:\n        /* \"#utility.yul\":7692:7702   */\n      dup1\n        /* \"#utility.yul\":7688:7690   */\n      0x40\n        /* \"#utility.yul\":7681:7703   */\n      mstore\n        /* \"#utility.yul\":7471:7709   */\n      pop\n        /* \"#utility.yul\":7428:7709   */\n      pop\n      pop\n      jump\t// out\n        /* \"#utility.yul\":7715:7895   */\n    tag_145:\n        /* \"#utility.yul\":7763:7840   */\n      0x4e487b7100000000000000000000000000000000000000000000000000000000\n        /* \"#utility.yul\":7760:7761   */\n      0x00\n        /* \"#utility.yul\":7753:7841   */\n      mstore\n        /* \"#utility.yul\":7860:7864   */\n      0x22\n        /* \"#utility.yul\":7857:7858   */\n      0x04\n        /* \"#utility.yul\":7850:7865   */\n      mstore\n        /* \"#utility.yul\":7884:7888   */\n      0x24\n        /* \"#utility.yul\":7881:7882   */\n      0x00\n        /* \"#utility.yul\":7874:7889   */\n      revert\n        /* \"#utility.yul\":7901:8081   */\n    tag_126:\n        /* \"#utility.yul\":7949:8026   */\n      0x4e487b7100000000000000000000000000000000000000000000000000000000\n        /* \"#utility.yul\":7946:7947   */\n      0x00\n        /* \"#utility.yul\":7939:8027   */\n      mstore\n        /* \"#utility.yul\":8046:8050   */\n      0x41\n        /* \"#utility.yul\":8043:8044   */\n      0x04\n        /* \"#utility.yul\":8036:8051   */\n      mstore\n        /* \"#utility.yul\":8070:8074   */\n      0x24\n        /* \"#utility.yul\":8067:8068   */\n      0x00\n        /* \"#utility.yul\":8060:8075   */\n      revert\n        /* \"#utility.yul\":8087:8204   */\n    tag_56:\n        /* \"#utility.yul\":8196:8197   */\n      0x00\n        /* \"#utility.yul\":8193:8194   */\n      dup1\n        /* \"#utility.yul\":8186:8198   */\n      revert\n        /* \"#utility.yul\":8210:8327   */\n    tag_45:\n        /* \"#utility.yul\":8319:8320   */\n      0x00\n        /* \"#utility.yul\":8316:8317   */\n      dup1\n        /* \"#utility.yul\":8309:8321   */\n      revert\n        /* \"#utility.yul\":8333:8450   */\n    tag_78:\n        /* \"#utility.yul\":8442:8443   */\n      0x00\n        /* \"#utility.yul\":8439:8440   */\n      dup1\n        /* \"#utility.yul\":8432:8444   */\n      revert\n        /* \"#utility.yul\":8456:8573   */\n    tag_65:\n        /* \"#utility.yul\":8565:8566   */\n      0x00\n        /* \"#utility.yul\":8562:8563   */\n      dup1\n        /* \"#utility.yul\":8555:8567   */\n      revert\n        /* \"#utility.yul\":8579:8681   */\n    tag_96:\n        /* \"#utility.yul\":8620:8626   */\n      0x00\n        /* \"#utility.yul\":8671:8673   */\n      0x1f\n        /* \"#utility.yul\":8667:8674   */\n      not\n        /* \"#utility.yul\":8662:8664   */\n      0x1f\n        /* \"#utility.yul\":8655:8660   */\n      dup4\n        /* \"#utility.yul\":8651:8665   */\n      add\n        /* \"#utility.yul\":8647:8675   */\n      and\n        /* \"#utility.yul\":8637:8675   */\n      swap1\n      pop\n        /* \"#utility.yul\":8579:8681   */\n      swap2\n      swap1\n      pop\n      jump\t// out\n        /* \"#utility.yul\":8687:8907   */\n    tag_101:\n        /* \"#utility.yul\":8827:8861   */\n      0x596f752063616e206f7267616e697a65206576656e7420666f72206675747572\n        /* \"#utility.yul\":8823:8824   */\n      0x00\n        /* \"#utility.yul\":8815:8821   */\n      dup3\n        /* \"#utility.yul\":8811:8825   */\n      add\n        /* \"#utility.yul\":8804:8862   */\n      mstore\n        /* \"#utility.yul\":8896:8899   */\n      0x6500000000000000000000000000000000000000000000000000000000000000\n        /* \"#utility.yul\":8891:8893   */\n      0x20\n        /* \"#utility.yul\":8883:8889   */\n      dup3\n        /* \"#utility.yul\":8879:8894   */\n      add\n        /* \"#utility.yul\":8872:8900   */\n      mstore\n        /* \"#utility.yul\":8687:8907   */\n      pop\n      jump\t// out\n        /* \"#utility.yul\":8913:9035   */\n    tag_51:\n        /* \"#utility.yul\":8986:9010   */\n      tag_159\n        /* \"#utility.yul\":9004:9009   */\n      dup2\n        /* \"#utility.yul\":8986:9010   */\n      tag_86\n      jump\t// in\n    tag_159:\n        /* \"#utility.yul\":8979:8984   */\n      dup2\n        /* \"#utility.yul\":8976:9011   */\n      eq\n        /* \"#utility.yul\":8966:9029   */\n      tag_160\n      jumpi\n        /* \"#utility.yul\":9025:9026   */\n      0x00\n        /* \"#utility.yul\":9022:9023   */\n      dup1\n        /* \"#utility.yul\":9015:9027   */\n      revert\n        /* \"#utility.yul\":8966:9029   */\n    tag_160:\n        /* \"#utility.yul\":8913:9035   */\n      pop\n      jump\t// out\n        /* \"#utility.yul\":9041:9163   */\n    tag_61:\n        /* \"#utility.yul\":9114:9138   */\n      tag_162\n        /* \"#utility.yul\":9132:9137   */\n      dup2\n        /* \"#utility.yul\":9114:9138   */\n      tag_105\n      jump\t// in\n    tag_162:\n        /* \"#utility.yul\":9107:9112   */\n      dup2\n        /* \"#utility.yul\":9104:9139   */\n      eq\n        /* \"#utility.yul\":9094:9157   */\n      tag_163\n      jumpi\n        /* \"#utility.yul\":9153:9154   */\n      0x00\n        /* \"#utility.yul\":9150:9151   */\n      dup1\n        /* \"#utility.yul\":9143:9155   */\n      revert\n        /* \"#utility.yul\":9094:9157   */\n    tag_163:\n        /* \"#utility.yul\":9041:9163   */\n      pop\n      jump\t// out\n\n    auxdata: 0xa26469706673582212200e278c159bd8a11ee6c07bfde491ed7619433ed10189930cdd9b08443620c5f364736f6c63430008070033\n}\n",
				"bytecode": {
					"linkReferences": {},
					"object": "608060405234801561001057600080fd5b5061078c806100206000396000f3fe608060405234801561001057600080fd5b506004361061004c5760003560e01c80630b791430146100515780639ec4b59a14610086578063b3cea217146100a2578063dae7a13c146100c0575b600080fd5b61006b60048036038101906100669190610322565b6100f0565b60405161007d96959493929190610460565b60405180910390f35b6100a0600480360381019061009b919061034f565b6101d4565b005b6100aa61021d565b6040516100b791906104e8565b60405180910390f35b6100da60048036038101906100d591906102e2565b610223565b6040516100e791906104e8565b60405180910390f35b60006020528060005260406000206000915090508060000160009054906101000a900473ffffffffffffffffffffffffffffffffffffffff169080600101549080600201805461013f906105f3565b80601f016020809104026020016040519081016040528092919081815260200182805461016b906105f3565b80156101b85780601f1061018d576101008083540402835291602001916101b8565b820191906000526020600020905b81548152906001019060200180831161019b57829003601f168201915b5050505050908060030154908060040154908060050154905086565b428511610216576040517f08c379a000000000000000000000000000000000000000000000000000000000815260040161020d906104c8565b60405180910390fd5b5050505050565b60025481565b6001602052816000526040600020602052806000526040600020600091509150505481565b600061025b61025684610528565b610503565b905082815260208101848484011115610277576102766106b9565b5b6102828482856105b1565b509392505050565b60008135905061029981610728565b92915050565b600082601f8301126102b4576102b36106b4565b5b81356102c4848260208601610248565b91505092915050565b6000813590506102dc8161073f565b92915050565b600080604083850312156102f9576102f86106c3565b5b60006103078582860161028a565b9250506020610318858286016102cd565b9150509250929050565b600060208284031215610338576103376106c3565b5b6000610346848285016102cd565b91505092915050565b600080600080600060a0868803121561036b5761036a6106c3565b5b6000610379888289016102cd565b955050602086013567ffffffffffffffff81111561039a576103996106be565b5b6103a68882890161029f565b94505060406103b7888289016102cd565b93505060606103c8888289016102cd565b92505060806103d9888289016102cd565b9150509295509295909350565b6103ef81610575565b82525050565b600061040082610559565b61040a8185610564565b935061041a8185602086016105c0565b610423816106c8565b840191505092915050565b600061043b602183610564565b9150610446826106d9565b604082019050919050565b61045a816105a7565b82525050565b600060c08201905061047560008301896103e6565b6104826020830188610451565b818103604083015261049481876103f5565b90506104a36060830186610451565b6104b06080830185610451565b6104bd60a0830184610451565b979650505050505050565b600060208201905081810360008301526104e18161042e565b9050919050565b60006020820190506104fd6000830184610451565b92915050565b600061050d61051e565b90506105198282610625565b919050565b6000604051905090565b600067ffffffffffffffff82111561054357610542610685565b5b61054c826106c8565b9050602081019050919050565b600081519050919050565b600082825260208201905092915050565b600061058082610587565b9050919050565b600073ffffffffffffffffffffffffffffffffffffffff82169050919050565b6000819050919050565b82818337600083830152505050565b60005b838110156105de5780820151818401526020810190506105c3565b838111156105ed576000848401525b50505050565b6000600282049050600182168061060b57607f821691505b6020821081141561061f5761061e610656565b5b50919050565b61062e826106c8565b810181811067ffffffffffffffff8211171561064d5761064c610685565b5b80604052505050565b7f4e487b7100000000000000000000000000000000000000000000000000000000600052602260045260246000fd5b7f4e487b7100000000000000000000000000000000000000000000000000000000600052604160045260246000fd5b600080fd5b600080fd5b600080fd5b600080fd5b6000601f19601f8301169050919050565b7f596f752063616e206f7267616e697a65206576656e7420666f7220667574757260008201527f6500000000000000000000000000000000000000000000000000000000000000602082015250565b61073181610575565b811461073c57600080fd5b50565b610748816105a7565b811461075357600080fd5b5056fea26469706673582212200e278c159bd8a11ee6c07bfde491ed7619433ed10189930cdd9b08443620c5f364736f6c63430008070033",
					"opcodes": "PUSH1 0x80 PUSH1 0x40 MSTORE CALLVALUE DUP1 ISZERO PUSH2 0x10 JUMPI PUSH1 0x0 DUP1 REVERT JUMPDEST POP PUSH2 0x78C DUP1 PUSH2 0x20 PUSH1 0x0 CODECOPY PUSH1 0x0 RETURN INVALID PUSH1 0x80 PUSH1 0x40 MSTORE CALLVALUE DUP1 ISZERO PUSH2 0x10 JUMPI PUSH1 0x0 DUP1 REVERT JUMPDEST POP PUSH1 0x4 CALLDATASIZE LT PUSH2 0x4C JUMPI PUSH1 0x0 CALLDATALOAD PUSH1 0xE0 SHR DUP1 PUSH4 0xB791430 EQ PUSH2 0x51 JUMPI DUP1 PUSH4 0x9EC4B59A EQ PUSH2 0x86 JUMPI DUP1 PUSH4 0xB3CEA217 EQ PUSH2 0xA2 JUMPI DUP1 PUSH4 0xDAE7A13C EQ PUSH2 0xC0 JUMPI JUMPDEST PUSH1 0x0 DUP1 REVERT JUMPDEST PUSH2 0x6B PUSH1 0x4 DUP1 CALLDATASIZE SUB DUP2 ADD SWAP1 PUSH2 0x66 SWAP2 SWAP1 PUSH2 0x322 JUMP JUMPDEST PUSH2 0xF0 JUMP JUMPDEST PUSH1 0x40 MLOAD PUSH2 0x7D SWAP7 SWAP6 SWAP5 SWAP4 SWAP3 SWAP2 SWAP1 PUSH2 0x460 JUMP JUMPDEST PUSH1 0x40 MLOAD DUP1 SWAP2 SUB SWAP1 RETURN JUMPDEST PUSH2 0xA0 PUSH1 0x4 DUP1 CALLDATASIZE SUB DUP2 ADD SWAP1 PUSH2 0x9B SWAP2 SWAP1 PUSH2 0x34F JUMP JUMPDEST PUSH2 0x1D4 JUMP JUMPDEST STOP JUMPDEST PUSH2 0xAA PUSH2 0x21D JUMP JUMPDEST PUSH1 0x40 MLOAD PUSH2 0xB7 SWAP2 SWAP1 PUSH2 0x4E8 JUMP JUMPDEST PUSH1 0x40 MLOAD DUP1 SWAP2 SUB SWAP1 RETURN JUMPDEST PUSH2 0xDA PUSH1 0x4 DUP1 CALLDATASIZE SUB DUP2 ADD SWAP1 PUSH2 0xD5 SWAP2 SWAP1 PUSH2 0x2E2 JUMP JUMPDEST PUSH2 0x223 JUMP JUMPDEST PUSH1 0x40 MLOAD PUSH2 0xE7 SWAP2 SWAP1 PUSH2 0x4E8 JUMP JUMPDEST PUSH1 0x40 MLOAD DUP1 SWAP2 SUB SWAP1 RETURN JUMPDEST PUSH1 0x0 PUSH1 0x20 MSTORE DUP1 PUSH1 0x0 MSTORE PUSH1 0x40 PUSH1 0x0 KECCAK256 PUSH1 0x0 SWAP2 POP SWAP1 POP DUP1 PUSH1 0x0 ADD PUSH1 0x0 SWAP1 SLOAD SWAP1 PUSH2 0x100 EXP SWAP1 DIV PUSH20 0xFFFFFFFFFFFFFFFFFFFFFFFFFFFFFFFFFFFFFFFF AND SWAP1 DUP1 PUSH1 0x1 ADD SLOAD SWAP1 DUP1 PUSH1 0x2 ADD DUP1 SLOAD PUSH2 0x13F SWAP1 PUSH2 0x5F3 JUMP JUMPDEST DUP1 PUSH1 0x1F ADD PUSH1 0x20 DUP1 SWAP2 DIV MUL PUSH1 0x20 ADD PUSH1 0x40 MLOAD SWAP1 DUP2 ADD PUSH1 0x40 MSTORE DUP1 SWAP3 SWAP2 SWAP1 DUP2 DUP2 MSTORE PUSH1 0x20 ADD DUP3 DUP1 SLOAD PUSH2 0x16B SWAP1 PUSH2 0x5F3 JUMP JUMPDEST DUP1 ISZERO PUSH2 0x1B8 JUMPI DUP1 PUSH1 0x1F LT PUSH2 0x18D JUMPI PUSH2 0x100 DUP1 DUP4 SLOAD DIV MUL DUP4 MSTORE SWAP2 PUSH1 0x20 ADD SWAP2 PUSH2 0x1B8 JUMP JUMPDEST DUP3 ADD SWAP2 SWAP1 PUSH1 0x0 MSTORE PUSH1 0x20 PUSH1 0x0 KECCAK256 SWAP1 JUMPDEST DUP2 SLOAD DUP2 MSTORE SWAP1 PUSH1 0x1 ADD SWAP1 PUSH1 0x20 ADD DUP1 DUP4 GT PUSH2 0x19B JUMPI DUP3 SWAP1 SUB PUSH1 0x1F AND DUP3 ADD SWAP2 JUMPDEST POP POP POP POP POP SWAP1 DUP1 PUSH1 0x3 ADD SLOAD SWAP1 DUP1 PUSH1 0x4 ADD SLOAD SWAP1 DUP1 PUSH1 0x5 ADD SLOAD SWAP1 POP DUP7 JUMP JUMPDEST TIMESTAMP DUP6 GT PUSH2 0x216 JUMPI PUSH1 0x40 MLOAD PUSH32 0x8C379A000000000000000000000000000000000000000000000000000000000 DUP2 MSTORE PUSH1 0x4 ADD PUSH2 0x20D SWAP1 PUSH2 0x4C8 JUMP JUMPDEST PUSH1 0x40 MLOAD DUP1 SWAP2 SUB SWAP1 REVERT JUMPDEST POP POP POP POP POP JUMP JUMPDEST PUSH1 0x2 SLOAD DUP2 JUMP JUMPDEST PUSH1 0x1 PUSH1 0x20 MSTORE DUP2 PUSH1 0x0 MSTORE PUSH1 0x40 PUSH1 0x0 KECCAK256 PUSH1 0x20 MSTORE DUP1 PUSH1 0x0 MSTORE PUSH1 0x40 PUSH1 0x0 KECCAK256 PUSH1 0x0 SWAP2 POP SWAP2 POP POP SLOAD DUP2 JUMP JUMPDEST PUSH1 0x0 PUSH2 0x25B PUSH2 0x256 DUP5 PUSH2 0x528 JUMP JUMPDEST PUSH2 0x503 JUMP JUMPDEST SWAP1 POP DUP3 DUP2 MSTORE PUSH1 0x20 DUP2 ADD DUP5 DUP5 DUP5 ADD GT ISZERO PUSH2 0x277 JUMPI PUSH2 0x276 PUSH2 0x6B9 JUMP JUMPDEST JUMPDEST PUSH2 0x282 DUP5 DUP3 DUP6 PUSH2 0x5B1 JUMP JUMPDEST POP SWAP4 SWAP3 POP POP POP JUMP JUMPDEST PUSH1 0x0 DUP2 CALLDATALOAD SWAP1 POP PUSH2 0x299 DUP2 PUSH2 0x728 JUMP JUMPDEST SWAP3 SWAP2 POP POP JUMP JUMPDEST PUSH1 0x0 DUP3 PUSH1 0x1F DUP4 ADD SLT PUSH2 0x2B4 JUMPI PUSH2 0x2B3 PUSH2 0x6B4 JUMP JUMPDEST JUMPDEST DUP2 CALLDATALOAD PUSH2 0x2C4 DUP5 DUP3 PUSH1 0x20 DUP7 ADD PUSH2 0x248 JUMP JUMPDEST SWAP2 POP POP SWAP3 SWAP2 POP POP JUMP JUMPDEST PUSH1 0x0 DUP2 CALLDATALOAD SWAP1 POP PUSH2 0x2DC DUP2 PUSH2 0x73F JUMP JUMPDEST SWAP3 SWAP2 POP POP JUMP JUMPDEST PUSH1 0x0 DUP1 PUSH1 0x40 DUP4 DUP6 SUB SLT ISZERO PUSH2 0x2F9 JUMPI PUSH2 0x2F8 PUSH2 0x6C3 JUMP JUMPDEST JUMPDEST PUSH1 0x0 PUSH2 0x307 DUP6 DUP3 DUP7 ADD PUSH2 0x28A JUMP JUMPDEST SWAP3 POP POP PUSH1 0x20 PUSH2 0x318 DUP6 DUP3 DUP7 ADD PUSH2 0x2CD JUMP JUMPDEST SWAP2 POP POP SWAP3 POP SWAP3 SWAP1 POP JUMP JUMPDEST PUSH1 0x0 PUSH1 0x20 DUP3 DUP5 SUB SLT ISZERO PUSH2 0x338 JUMPI PUSH2 0x337 PUSH2 0x6C3 JUMP JUMPDEST JUMPDEST PUSH1 0x0 PUSH2 0x346 DUP5 DUP3 DUP6 ADD PUSH2 0x2CD JUMP JUMPDEST SWAP2 POP POP SWAP3 SWAP2 POP POP JUMP JUMPDEST PUSH1 0x0 DUP1 PUSH1 0x0 DUP1 PUSH1 0x0 PUSH1 0xA0 DUP7 DUP9 SUB SLT ISZERO PUSH2 0x36B JUMPI PUSH2 0x36A PUSH2 0x6C3 JUMP JUMPDEST JUMPDEST PUSH1 0x0 PUSH2 0x379 DUP9 DUP3 DUP10 ADD PUSH2 0x2CD JUMP JUMPDEST SWAP6 POP POP PUSH1 0x20 DUP7 ADD CALLDATALOAD PUSH8 0xFFFFFFFFFFFFFFFF DUP2 GT ISZERO PUSH2 0x39A JUMPI PUSH2 0x399 PUSH2 0x6BE JUMP JUMPDEST JUMPDEST PUSH2 0x3A6 DUP9 DUP3 DUP10 ADD PUSH2 0x29F JUMP JUMPDEST SWAP5 POP POP PUSH1 0x40 PUSH2 0x3B7 DUP9 DUP3 DUP10 ADD PUSH2 0x2CD JUMP JUMPDEST SWAP4 POP POP PUSH1 0x60 PUSH2 0x3C8 DUP9 DUP3 DUP10 ADD PUSH2 0x2CD JUMP JUMPDEST SWAP3 POP POP PUSH1 0x80 PUSH2 0x3D9 DUP9 DUP3 DUP10 ADD PUSH2 0x2CD JUMP JUMPDEST SWAP2 POP POP SWAP3 SWAP6 POP SWAP3 SWAP6 SWAP1 SWAP4 POP JUMP JUMPDEST PUSH2 0x3EF DUP2 PUSH2 0x575 JUMP JUMPDEST DUP3 MSTORE POP POP JUMP JUMPDEST PUSH1 0x0 PUSH2 0x400 DUP3 PUSH2 0x559 JUMP JUMPDEST PUSH2 0x40A DUP2 DUP6 PUSH2 0x564 JUMP JUMPDEST SWAP4 POP PUSH2 0x41A DUP2 DUP6 PUSH1 0x20 DUP7 ADD PUSH2 0x5C0 JUMP JUMPDEST PUSH2 0x423 DUP2 PUSH2 0x6C8 JUMP JUMPDEST DUP5 ADD SWAP2 POP POP SWAP3 SWAP2 POP POP JUMP JUMPDEST PUSH1 0x0 PUSH2 0x43B PUSH1 0x21 DUP4 PUSH2 0x564 JUMP JUMPDEST SWAP2 POP PUSH2 0x446 DUP3 PUSH2 0x6D9 JUMP JUMPDEST PUSH1 0x40 DUP3 ADD SWAP1 POP SWAP2 SWAP1 POP JUMP JUMPDEST PUSH2 0x45A DUP2 PUSH2 0x5A7 JUMP JUMPDEST DUP3 MSTORE POP POP JUMP JUMPDEST PUSH1 0x0 PUSH1 0xC0 DUP3 ADD SWAP1 POP PUSH2 0x475 PUSH1 0x0 DUP4 ADD DUP10 PUSH2 0x3E6 JUMP JUMPDEST PUSH2 0x482 PUSH1 0x20 DUP4 ADD DUP9 PUSH2 0x451 JUMP JUMPDEST DUP2 DUP2 SUB PUSH1 0x40 DUP4 ADD MSTORE PUSH2 0x494 DUP2 DUP8 PUSH2 0x3F5 JUMP JUMPDEST SWAP1 POP PUSH2 0x4A3 PUSH1 0x60 DUP4 ADD DUP7 PUSH2 0x451 JUMP JUMPDEST PUSH2 0x4B0 PUSH1 0x80 DUP4 ADD DUP6 PUSH2 0x451 JUMP JUMPDEST PUSH2 0x4BD PUSH1 0xA0 DUP4 ADD DUP5 PUSH2 0x451 JUMP JUMPDEST SWAP8 SWAP7 POP POP POP POP POP POP POP JUMP JUMPDEST PUSH1 0x0 PUSH1 0x20 DUP3 ADD SWAP1 POP DUP2 DUP2 SUB PUSH1 0x0 DUP4 ADD MSTORE PUSH2 0x4E1 DUP2 PUSH2 0x42E JUMP JUMPDEST SWAP1 POP SWAP2 SWAP1 POP JUMP JUMPDEST PUSH1 0x0 PUSH1 0x20 DUP3 ADD SWAP1 POP PUSH2 0x4FD PUSH1 0x0 DUP4 ADD DUP5 PUSH2 0x451 JUMP JUMPDEST SWAP3 SWAP2 POP POP JUMP JUMPDEST PUSH1 0x0 PUSH2 0x50D PUSH2 0x51E JUMP JUMPDEST SWAP1 POP PUSH2 0x519 DUP3 DUP3 PUSH2 0x625 JUMP JUMPDEST SWAP2 SWAP1 POP JUMP JUMPDEST PUSH1 0x0 PUSH1 0x40 MLOAD SWAP1 POP SWAP1 JUMP JUMPDEST PUSH1 0x0 PUSH8 0xFFFFFFFFFFFFFFFF DUP3 GT ISZERO PUSH2 0x543 JUMPI PUSH2 0x542 PUSH2 0x685 JUMP JUMPDEST JUMPDEST PUSH2 0x54C DUP3 PUSH2 0x6C8 JUMP JUMPDEST SWAP1 POP PUSH1 0x20 DUP2 ADD SWAP1 POP SWAP2 SWAP1 POP JUMP JUMPDEST PUSH1 0x0 DUP2 MLOAD SWAP1 POP SWAP2 SWAP1 POP JUMP JUMPDEST PUSH1 0x0 DUP3 DUP3 MSTORE PUSH1 0x20 DUP3 ADD SWAP1 POP SWAP3 SWAP2 POP POP JUMP JUMPDEST PUSH1 0x0 PUSH2 0x580 DUP3 PUSH2 0x587 JUMP JUMPDEST SWAP1 POP SWAP2 SWAP1 POP JUMP JUMPDEST PUSH1 0x0 PUSH20 0xFFFFFFFFFFFFFFFFFFFFFFFFFFFFFFFFFFFFFFFF DUP3 AND SWAP1 POP SWAP2 SWAP1 POP JUMP JUMPDEST PUSH1 0x0 DUP2 SWAP1 POP SWAP2 SWAP1 POP JUMP JUMPDEST DUP3 DUP2 DUP4 CALLDATACOPY PUSH1 0x0 DUP4 DUP4 ADD MSTORE POP POP POP JUMP JUMPDEST PUSH1 0x0 JUMPDEST DUP4 DUP2 LT ISZERO PUSH2 0x5DE JUMPI DUP1 DUP3 ADD MLOAD DUP2 DUP5 ADD MSTORE PUSH1 0x20 DUP2 ADD SWAP1 POP PUSH2 0x5C3 JUMP JUMPDEST DUP4 DUP2 GT ISZERO PUSH2 0x5ED JUMPI PUSH1 0x0 DUP5 DUP5 ADD MSTORE JUMPDEST POP POP POP POP JUMP JUMPDEST PUSH1 0x0 PUSH1 0x2 DUP3 DIV SWAP1 POP PUSH1 0x1 DUP3 AND DUP1 PUSH2 0x60B JUMPI PUSH1 0x7F DUP3 AND SWAP2 POP JUMPDEST PUSH1 0x20 DUP3 LT DUP2 EQ ISZERO PUSH2 0x61F JUMPI PUSH2 0x61E PUSH2 0x656 JUMP JUMPDEST JUMPDEST POP SWAP2 SWAP1 POP JUMP JUMPDEST PUSH2 0x62E DUP3 PUSH2 0x6C8 JUMP JUMPDEST DUP2 ADD DUP2 DUP2 LT PUSH8 0xFFFFFFFFFFFFFFFF DUP3 GT OR ISZERO PUSH2 0x64D JUMPI PUSH2 0x64C PUSH2 0x685 JUMP JUMPDEST JUMPDEST DUP1 PUSH1 0x40 MSTORE POP POP POP JUMP JUMPDEST PUSH32 0x4E487B7100000000000000000000000000000000000000000000000000000000 PUSH1 0x0 MSTORE PUSH1 0x22 PUSH1 0x4 MSTORE PUSH1 0x24 PUSH1 0x0 REVERT JUMPDEST PUSH32 0x4E487B7100000000000000000000000000000000000000000000000000000000 PUSH1 0x0 MSTORE PUSH1 0x41 PUSH1 0x4 MSTORE PUSH1 0x24 PUSH1 0x0 REVERT JUMPDEST PUSH1 0x0 DUP1 REVERT JUMPDEST PUSH1 0x0 DUP1 REVERT JUMPDEST PUSH1 0x0 DUP1 REVERT JUMPDEST PUSH1 0x0 DUP1 REVERT JUMPDEST PUSH1 0x0 PUSH1 0x1F NOT PUSH1 0x1F DUP4 ADD AND SWAP1 POP SWAP2 SWAP1 POP JUMP JUMPDEST PUSH32 0x596F752063616E206F7267616E697A65206576656E7420666F72206675747572 PUSH1 0x0 DUP3 ADD MSTORE PUSH32 0x6500000000000000000000000000000000000000000000000000000000000000 PUSH1 0x20 DUP3 ADD MSTORE POP JUMP JUMPDEST PUSH2 0x731 DUP2 PUSH2 0x575 JUMP JUMPDEST DUP2 EQ PUSH2 0x73C JUMPI PUSH1 0x0 DUP1 REVERT JUMPDEST POP JUMP JUMPDEST PUSH2 0x748 DUP2 PUSH2 0x5A7 JUMP JUMPDEST DUP2 EQ PUSH2 0x753 JUMPI PUSH1 0x0 DUP1 REVERT JUMPDEST POP JUMP INVALID LOG2 PUSH5 0x6970667358 0x22 SLT KECCAK256 0xE 0x27 DUP13 ISZERO SWAP12 0xD8 LOG1 0x1E 0xE6 0xC0 PUSH28 0xFDE491ED7619433ED10189930CDD9B08443620C5F364736F6C634300 ADDMOD SMOD STOP CALLER "
				},
				"gasEstimates": {
					"creation": {
						"codeDepositCost": "386400",
						"executionCost": "424",
						"totalCost": "386824"
					},
					"external": {
						"ID()": "2451",
						"createEvent(uint256,string,uint256,uint256,uint256)": "infinite",
						"events(uint256)": "infinite",
						"tickets(address,uint256)": "infinite"
					}
				},
				"methodIdentifiers": {
					"ID()": "b3cea217",
					"createEvent(uint256,string,uint256,uint256,uint256)": "9ec4b59a",
					"events(uint256)": "0b791430",
					"tickets(address,uint256)": "dae7a13c"
				}
			},
			"storageLayout": {
				"storage": [
					{
						"astId": 19,
						"contract": "contract/EventOrganizingContract.sol:EventOrganize",
						"label": "events",
						"offset": 0,
						"slot": "0",
						"type": "t_mapping(t_uint256,t_struct(Event)14_storage)"
					},
					{
						"astId": 25,
						"contract": "contract/EventOrganizingContract.sol:EventOrganize",
						"label": "tickets",
						"offset": 0,
						"slot": "1",
						"type": "t_mapping(t_address,t_mapping(t_uint256,t_uint256))"
					},
					{
						"astId": 27,
						"contract": "contract/EventOrganizingContract.sol:EventOrganize",
						"label": "ID",
						"offset": 0,
						"slot": "2",
						"type": "t_uint256"
					}
				],
				"types": {
					"t_address": {
						"encoding": "inplace",
						"label": "address",
						"numberOfBytes": "20"
					},
					"t_mapping(t_address,t_mapping(t_uint256,t_uint256))": {
						"encoding": "mapping",
						"key": "t_address",
						"label": "mapping(address => mapping(uint256 => uint256))",
						"numberOfBytes": "32",
						"value": "t_mapping(t_uint256,t_uint256)"
					},
					"t_mapping(t_uint256,t_struct(Event)14_storage)": {
						"encoding": "mapping",
						"key": "t_uint256",
						"label": "mapping(uint256 => struct EventOrganize.Event)",
						"numberOfBytes": "32",
						"value": "t_struct(Event)14_storage"
					},
					"t_mapping(t_uint256,t_uint256)": {
						"encoding": "mapping",
						"key": "t_uint256",
						"label": "mapping(uint256 => uint256)",
						"numberOfBytes": "32",
						"value": "t_uint256"
					},
					"t_string_storage": {
						"encoding": "bytes",
						"label": "string",
						"numberOfBytes": "32"
					},
					"t_struct(Event)14_storage": {
						"encoding": "inplace",
						"label": "struct EventOrganize.Event",
						"members": [
							{
								"astId": 3,
								"contract": "contract/EventOrganizingContract.sol:EventOrganize",
								"label": "organizer",
								"offset": 0,
								"slot": "0",
								"type": "t_address"
							},
							{
								"astId": 5,
								"contract": "contract/EventOrganizingContract.sol:EventOrganize",
								"label": "date",
								"offset": 0,
								"slot": "1",
								"type": "t_uint256"
							},
							{
								"astId": 7,
								"contract": "contract/EventOrganizingContract.sol:EventOrganize",
								"label": "name",
								"offset": 0,
								"slot": "2",
								"type": "t_string_storage"
							},
							{
								"astId": 9,
								"contract": "contract/EventOrganizingContract.sol:EventOrganize",
								"label": "price",
								"offset": 0,
								"slot": "3",
								"type": "t_uint256"
							},
							{
								"astId": 11,
								"contract": "contract/EventOrganizingContract.sol:EventOrganize",
								"label": "tiketCount",
								"offset": 0,
								"slot": "4",
								"type": "t_uint256"
							},
							{
								"astId": 13,
								"contract": "contract/EventOrganizingContract.sol:EventOrganize",
								"label": "tiketRemain",
								"offset": 0,
								"slot": "5",
								"type": "t_uint256"
							}
						],
						"numberOfBytes": "192"
					},
					"t_uint256": {
						"encoding": "inplace",
						"label": "uint256",
						"numberOfBytes": "32"
					}
				}
			},
			"userdoc": {
				"kind": "user",
				"methods": {},
				"version": 1
			}
		}
	}
}