{
	"contract/EventOrganizingContract.sol": {
		"EventOrganize": {
			"abi": [
				{
					"inputs": [],
					"name": "ID",
					"outputs": [
						{
							"internalType": "uint256",
							"name": "",
							"type": "uint256"
						}
					],
					"stateMutability": "view",
					"type": "function"
				},
				{
					"inputs": [
						{
							"internalType": "uint256",
							"name": "_quantity",
							"type": "uint256"
						},
						{
							"internalType": "uint256",
							"name": "_ID",
							"type": "uint256"
						}
					],
					"name": "buyTicket",
					"outputs": [
						{
							"internalType": "uint256",
							"name": "",
							"type": "uint256"
						}
					],
					"stateMutability": "payable",
					"type": "function"
				},
				{
					"inputs": [
						{
							"internalType": "uint256",
							"name": "_date",
							"type": "uint256"
						},
						{
							"internalType": "string",
							"name": "_name",
							"type": "string"
						},
						{
							"internalType": "uint256",
							"name": "_price",
							"type": "uint256"
						},
						{
							"internalType": "uint256",
							"name": "_ticketCount",
							"type": "uint256"
						}
					],
					"name": "createEvent",
					"outputs": [],
					"stateMutability": "nonpayable",
					"type": "function"
				},
				{
					"inputs": [
						{
							"internalType": "uint256",
							"name": "",
							"type": "uint256"
						}
					],
					"name": "events",
					"outputs": [
						{
							"internalType": "address",
							"name": "organizer",
							"type": "address"
						},
						{
							"internalType": "uint256",
							"name": "date",
							"type": "uint256"
						},
						{
							"internalType": "string",
							"name": "name",
							"type": "string"
						},
						{
							"internalType": "uint256",
							"name": "price",
							"type": "uint256"
						},
						{
							"internalType": "uint256",
							"name": "ticketCount",
							"type": "uint256"
						},
						{
							"internalType": "uint256",
							"name": "ticketRemain",
							"type": "uint256"
						}
					],
					"stateMutability": "view",
					"type": "function"
				},
				{
					"inputs": [
						{
							"internalType": "address",
							"name": "",
							"type": "address"
						},
						{
							"internalType": "uint256",
							"name": "",
							"type": "uint256"
						}
					],
					"name": "tickets",
					"outputs": [
						{
							"internalType": "uint256",
							"name": "",
							"type": "uint256"
						}
					],
					"stateMutability": "view",
					"type": "function"
				},
				{
					"inputs": [
						{
							"internalType": "uint256",
							"name": "_quantity",
							"type": "uint256"
						},
						{
							"internalType": "uint256",
							"name": "_ID",
							"type": "uint256"
						},
						{
							"internalType": "address",
							"name": "_to",
							"type": "address"
						}
					],
					"name": "transferTicket",
					"outputs": [],
					"stateMutability": "nonpayable",
					"type": "function"
				}
			],
			"devdoc": {
				"kind": "dev",
				"methods": {},
				"version": 1
			},
			"evm": {
				"assembly": "    /* \"contract/EventOrganizingContract.sol\":62:1792  contract EventOrganize {\r... */\n  mstore(0x40, 0x80)\n  callvalue\n  dup1\n  iszero\n  tag_1\n  jumpi\n  0x00\n  dup1\n  revert\ntag_1:\n  pop\n  dataSize(sub_0)\n  dup1\n  dataOffset(sub_0)\n  0x00\n  codecopy\n  0x00\n  return\nstop\n\nsub_0: assembly {\n        /* \"contract/EventOrganizingContract.sol\":62:1792  contract EventOrganize {\r... */\n      mstore(0x40, 0x80)\n      jumpi(tag_1, lt(calldatasize, 0x04))\n      shr(0xe0, calldataload(0x00))\n      dup1\n      0x0b791430\n      eq\n      tag_2\n      jumpi\n      dup1\n      0x298ec208\n      eq\n      tag_3\n      jumpi\n      dup1\n      0xb3cea217\n      eq\n      tag_4\n      jumpi\n      dup1\n      0xdae7a13c\n      eq\n      tag_5\n      jumpi\n      dup1\n      0xf086a09b\n      eq\n      tag_6\n      jumpi\n      dup1\n      0xf93694fb\n      eq\n      tag_7\n      jumpi\n    tag_1:\n      0x00\n      dup1\n      revert\n        /* \"contract/EventOrganizingContract.sol\":269:306  mapping (uint => Event) public events */\n    tag_2:\n      callvalue\n      dup1\n      iszero\n      tag_8\n      jumpi\n      0x00\n      dup1\n      revert\n    tag_8:\n      pop\n      tag_9\n      0x04\n      dup1\n      calldatasize\n      sub\n      dup2\n      add\n      swap1\n      tag_10\n      swap2\n      swap1\n      tag_11\n      jump\t// in\n    tag_10:\n      tag_12\n      jump\t// in\n    tag_9:\n      mload(0x40)\n      tag_13\n      swap7\n      swap6\n      swap5\n      swap4\n      swap3\n      swap2\n      swap1\n      tag_14\n      jump\t// in\n    tag_13:\n      mload(0x40)\n      dup1\n      swap2\n      sub\n      swap1\n      return\n        /* \"contract/EventOrganizingContract.sol\":774:1328  function buyTicket(uint _quantity, uint _ID) payable external returns(uint){\r... */\n    tag_3:\n      tag_15\n      0x04\n      dup1\n      calldatasize\n      sub\n      dup2\n      add\n      swap1\n      tag_16\n      swap2\n      swap1\n      tag_17\n      jump\t// in\n    tag_16:\n      tag_18\n      jump\t// in\n    tag_15:\n      mload(0x40)\n      tag_19\n      swap2\n      swap1\n      tag_20\n      jump\t// in\n    tag_19:\n      mload(0x40)\n      dup1\n      swap2\n      sub\n      swap1\n      return\n        /* \"contract/EventOrganizingContract.sol\":377:391  uint public ID */\n    tag_4:\n      callvalue\n      dup1\n      iszero\n      tag_21\n      jumpi\n      0x00\n      dup1\n      revert\n    tag_21:\n      pop\n      tag_22\n      tag_23\n      jump\t// in\n    tag_22:\n      mload(0x40)\n      tag_24\n      swap2\n      swap1\n      tag_20\n      jump\t// in\n    tag_24:\n      mload(0x40)\n      dup1\n      swap2\n      sub\n      swap1\n      return\n        /* \"contract/EventOrganizingContract.sol\":313:370  mapping (address => mapping(uint => uint)) public tickets */\n    tag_5:\n      callvalue\n      dup1\n      iszero\n      tag_25\n      jumpi\n      0x00\n      dup1\n      revert\n    tag_25:\n      pop\n      tag_26\n      0x04\n      dup1\n      calldatasize\n      sub\n      dup2\n      add\n      swap1\n      tag_27\n      swap2\n      swap1\n      tag_28\n      jump\t// in\n    tag_27:\n      tag_29\n      jump\t// in\n    tag_26:\n      mload(0x40)\n      tag_30\n      swap2\n      swap1\n      tag_20\n      jump\t// in\n    tag_30:\n      mload(0x40)\n      dup1\n      swap2\n      sub\n      swap1\n      return\n        /* \"contract/EventOrganizingContract.sol\":1336:1787  function transferTicket(uint _quantity, uint _ID, address _to) external{\r... */\n    tag_6:\n      callvalue\n      dup1\n      iszero\n      tag_31\n      jumpi\n      0x00\n      dup1\n      revert\n    tag_31:\n      pop\n      tag_32\n      0x04\n      dup1\n      calldatasize\n      sub\n      dup2\n      add\n      swap1\n      tag_33\n      swap2\n      swap1\n      tag_34\n      jump\t// in\n    tag_33:\n      tag_35\n      jump\t// in\n    tag_32:\n      stop\n        /* \"contract/EventOrganizingContract.sol\":404:766  function createEvent(uint _date, string memory _name, uint _price, uint _ticketCount) external{\r... */\n    tag_7:\n      callvalue\n      dup1\n      iszero\n      tag_36\n      jumpi\n      0x00\n      dup1\n      revert\n    tag_36:\n      pop\n      tag_37\n      0x04\n      dup1\n      calldatasize\n      sub\n      dup2\n      add\n      swap1\n      tag_38\n      swap2\n      swap1\n      tag_39\n      jump\t// in\n    tag_38:\n      tag_40\n      jump\t// in\n    tag_37:\n      stop\n        /* \"contract/EventOrganizingContract.sol\":269:306  mapping (uint => Event) public events */\n    tag_12:\n      mstore(0x20, 0x00)\n      dup1\n      0x00\n      mstore\n      keccak256(0x00, 0x40)\n      0x00\n      swap2\n      pop\n      swap1\n      pop\n      dup1\n      0x00\n      add\n      0x00\n      swap1\n      sload\n      swap1\n      0x0100\n      exp\n      swap1\n      div\n      0xffffffffffffffffffffffffffffffffffffffff\n      and\n      swap1\n      dup1\n      0x01\n      add\n      sload\n      swap1\n      dup1\n      0x02\n      add\n      dup1\n      sload\n      tag_41\n      swap1\n      tag_42\n      jump\t// in\n    tag_41:\n      dup1\n      0x1f\n      add\n      0x20\n      dup1\n      swap2\n      div\n      mul\n      0x20\n      add\n      mload(0x40)\n      swap1\n      dup2\n      add\n      0x40\n      mstore\n      dup1\n      swap3\n      swap2\n      swap1\n      dup2\n      dup2\n      mstore\n      0x20\n      add\n      dup3\n      dup1\n      sload\n      tag_43\n      swap1\n      tag_42\n      jump\t// in\n    tag_43:\n      dup1\n      iszero\n      tag_44\n      jumpi\n      dup1\n      0x1f\n      lt\n      tag_45\n      jumpi\n      0x0100\n      dup1\n      dup4\n      sload\n      div\n      mul\n      dup4\n      mstore\n      swap2\n      0x20\n      add\n      swap2\n      jump(tag_44)\n    tag_45:\n      dup3\n      add\n      swap2\n      swap1\n      0x00\n      mstore\n      keccak256(0x00, 0x20)\n      swap1\n    tag_46:\n      dup2\n      sload\n      dup2\n      mstore\n      swap1\n      0x01\n      add\n      swap1\n      0x20\n      add\n      dup1\n      dup4\n      gt\n      tag_46\n      jumpi\n      dup3\n      swap1\n      sub\n      0x1f\n      and\n      dup3\n      add\n      swap2\n    tag_44:\n      pop\n      pop\n      pop\n      pop\n      pop\n      swap1\n      dup1\n      0x03\n      add\n      sload\n      swap1\n      dup1\n      0x04\n      add\n      sload\n      swap1\n      dup1\n      0x05\n      add\n      sload\n      swap1\n      pop\n      dup7\n      jump\t// out\n        /* \"contract/EventOrganizingContract.sol\":774:1328  function buyTicket(uint _quantity, uint _ID) payable external returns(uint){\r... */\n    tag_18:\n        /* \"contract/EventOrganizingContract.sol\":844:848  uint */\n      0x00\n        /* \"contract/EventOrganizingContract.sol\":860:880  Event storage _event */\n      dup1\n        /* \"contract/EventOrganizingContract.sol\":883:889  events */\n      0x00\n        /* \"contract/EventOrganizingContract.sol\":883:894  events[_ID] */\n      dup1\n        /* \"contract/EventOrganizingContract.sol\":890:893  _ID */\n      dup5\n        /* \"contract/EventOrganizingContract.sol\":883:894  events[_ID] */\n      dup2\n      mstore\n      0x20\n      add\n      swap1\n      dup2\n      mstore\n      0x20\n      add\n      0x00\n      keccak256\n        /* \"contract/EventOrganizingContract.sol\":860:894  Event storage _event = events[_ID] */\n      swap1\n      pop\n        /* \"contract/EventOrganizingContract.sol\":928:929  0 */\n      0x00\n        /* \"contract/EventOrganizingContract.sol\":913:919  _event */\n      dup2\n        /* \"contract/EventOrganizingContract.sol\":913:924  _event.date */\n      0x01\n      add\n      sload\n        /* \"contract/EventOrganizingContract.sol\":913:929  _event.date != 0 */\n      eq\n      iszero\n        /* \"contract/EventOrganizingContract.sol\":905:955  require(_event.date != 0, \"Event does not exist!\") */\n      tag_48\n      jumpi\n      mload(0x40)\n      0x08c379a000000000000000000000000000000000000000000000000000000000\n      dup2\n      mstore\n      0x04\n      add\n      tag_49\n      swap1\n      tag_50\n      jump\t// in\n    tag_49:\n      mload(0x40)\n      dup1\n      swap2\n      sub\n      swap1\n      revert\n    tag_48:\n        /* \"contract/EventOrganizingContract.sol\":988:1003  block.timestamp */\n      timestamp\n        /* \"contract/EventOrganizingContract.sol\":974:980  _event */\n      dup2\n        /* \"contract/EventOrganizingContract.sol\":974:985  _event.date */\n      0x01\n      add\n      sload\n        /* \"contract/EventOrganizingContract.sol\":974:1003  _event.date > block.timestamp */\n      gt\n        /* \"contract/EventOrganizingContract.sol\":966:1031  require(_event.date > block.timestamp, \"Event booking is close!\") */\n      tag_51\n      jumpi\n      mload(0x40)\n      0x08c379a000000000000000000000000000000000000000000000000000000000\n      dup2\n      mstore\n      0x04\n      add\n      tag_52\n      swap1\n      tag_53\n      jump\t// in\n    tag_52:\n      mload(0x40)\n      dup1\n      swap2\n      sub\n      swap1\n      revert\n    tag_51:\n        /* \"contract/EventOrganizingContract.sol\":1080:1089  msg.value */\n      callvalue\n        /* \"contract/EventOrganizingContract.sol\":1066:1075  _quantity */\n      dup5\n        /* \"contract/EventOrganizingContract.sol\":1051:1057  _event */\n      dup3\n        /* \"contract/EventOrganizingContract.sol\":1051:1063  _event.price */\n      0x03\n      add\n      sload\n        /* \"contract/EventOrganizingContract.sol\":1051:1075  _event.price * _quantity */\n      tag_54\n      swap2\n      swap1\n      tag_55\n      jump\t// in\n    tag_54:\n        /* \"contract/EventOrganizingContract.sol\":1050:1089  (_event.price * _quantity) == msg.value */\n      eq\n        /* \"contract/EventOrganizingContract.sol\":1042:1115  require((_event.price * _quantity) == msg.value, \"Ethers is not enough!\") */\n      tag_56\n      jumpi\n      mload(0x40)\n      0x08c379a000000000000000000000000000000000000000000000000000000000\n      dup2\n      mstore\n      0x04\n      add\n      tag_57\n      swap1\n      tag_58\n      jump\t// in\n    tag_57:\n      mload(0x40)\n      dup1\n      swap2\n      sub\n      swap1\n      revert\n    tag_56:\n        /* \"contract/EventOrganizingContract.sol\":1157:1166  _quantity */\n      dup4\n        /* \"contract/EventOrganizingContract.sol\":1134:1140  _event */\n      dup2\n        /* \"contract/EventOrganizingContract.sol\":1134:1153  _event.ticketRemain */\n      0x05\n      add\n      sload\n        /* \"contract/EventOrganizingContract.sol\":1134:1166  _event.ticketRemain >= _quantity */\n      lt\n      iszero\n        /* \"contract/EventOrganizingContract.sol\":1126:1200  require(_event.ticketRemain >= _quantity, \"We don't have enough tickets!\") */\n      tag_59\n      jumpi\n      mload(0x40)\n      0x08c379a000000000000000000000000000000000000000000000000000000000\n      dup2\n      mstore\n      0x04\n      add\n      tag_60\n      swap1\n      tag_61\n      jump\t// in\n    tag_60:\n      mload(0x40)\n      dup1\n      swap2\n      sub\n      swap1\n      revert\n    tag_59:\n        /* \"contract/EventOrganizingContract.sol\":1234:1243  _quantity */\n      dup4\n        /* \"contract/EventOrganizingContract.sol\":1211:1217  _event */\n      dup2\n        /* \"contract/EventOrganizingContract.sol\":1211:1230  _event.ticketRemain */\n      0x05\n      add\n      0x00\n        /* \"contract/EventOrganizingContract.sol\":1211:1243  _event.ticketRemain -= _quantity */\n      dup3\n      dup3\n      sload\n      tag_62\n      swap2\n      swap1\n      tag_63\n      jump\t// in\n    tag_62:\n      swap3\n      pop\n      pop\n      dup2\n      swap1\n      sstore\n      pop\n        /* \"contract/EventOrganizingContract.sol\":1282:1291  _quantity */\n      dup4\n        /* \"contract/EventOrganizingContract.sol\":1254:1261  tickets */\n      0x01\n        /* \"contract/EventOrganizingContract.sol\":1254:1273  tickets[msg.sender] */\n      0x00\n        /* \"contract/EventOrganizingContract.sol\":1262:1272  msg.sender */\n      caller\n        /* \"contract/EventOrganizingContract.sol\":1254:1273  tickets[msg.sender] */\n      0xffffffffffffffffffffffffffffffffffffffff\n      and\n      0xffffffffffffffffffffffffffffffffffffffff\n      and\n      dup2\n      mstore\n      0x20\n      add\n      swap1\n      dup2\n      mstore\n      0x20\n      add\n      0x00\n      keccak256\n        /* \"contract/EventOrganizingContract.sol\":1254:1278  tickets[msg.sender][_ID] */\n      0x00\n        /* \"contract/EventOrganizingContract.sol\":1274:1277  _ID */\n      dup6\n        /* \"contract/EventOrganizingContract.sol\":1254:1278  tickets[msg.sender][_ID] */\n      dup2\n      mstore\n      0x20\n      add\n      swap1\n      dup2\n      mstore\n      0x20\n      add\n      0x00\n      keccak256\n      0x00\n        /* \"contract/EventOrganizingContract.sol\":1254:1291  tickets[msg.sender][_ID] += _quantity */\n      dup3\n      dup3\n      sload\n      tag_64\n      swap2\n      swap1\n      tag_65\n      jump\t// in\n    tag_64:\n      swap3\n      pop\n      pop\n      dup2\n      swap1\n      sstore\n      pop\n        /* \"contract/EventOrganizingContract.sol\":1309:1315  _event */\n      dup1\n        /* \"contract/EventOrganizingContract.sol\":1309:1320  _event.date */\n      0x01\n      add\n      sload\n        /* \"contract/EventOrganizingContract.sol\":1302:1320  return _event.date */\n      swap2\n      pop\n      pop\n        /* \"contract/EventOrganizingContract.sol\":774:1328  function buyTicket(uint _quantity, uint _ID) payable external returns(uint){\r... */\n      swap3\n      swap2\n      pop\n      pop\n      jump\t// out\n        /* \"contract/EventOrganizingContract.sol\":377:391  uint public ID */\n    tag_23:\n      sload(0x02)\n      dup2\n      jump\t// out\n        /* \"contract/EventOrganizingContract.sol\":313:370  mapping (address => mapping(uint => uint)) public tickets */\n    tag_29:\n      mstore(0x20, 0x01)\n      dup2\n      0x00\n      mstore\n      mstore(0x20, keccak256(0x00, 0x40))\n      dup1\n      0x00\n      mstore\n      keccak256(0x00, 0x40)\n      0x00\n      swap2\n      pop\n      swap2\n      pop\n      pop\n      sload\n      dup2\n      jump\t// out\n        /* \"contract/EventOrganizingContract.sol\":1336:1787  function transferTicket(uint _quantity, uint _ID, address _to) external{\r... */\n    tag_35:\n        /* \"contract/EventOrganizingContract.sol\":1418:1438  Event storage _event */\n      0x00\n        /* \"contract/EventOrganizingContract.sol\":1441:1447  events */\n      dup1\n        /* \"contract/EventOrganizingContract.sol\":1441:1452  events[_ID] */\n      0x00\n        /* \"contract/EventOrganizingContract.sol\":1448:1451  _ID */\n      dup5\n        /* \"contract/EventOrganizingContract.sol\":1441:1452  events[_ID] */\n      dup2\n      mstore\n      0x20\n      add\n      swap1\n      dup2\n      mstore\n      0x20\n      add\n      0x00\n      keccak256\n        /* \"contract/EventOrganizingContract.sol\":1418:1452  Event storage _event = events[_ID] */\n      swap1\n      pop\n        /* \"contract/EventOrganizingContract.sol\":1486:1487  0 */\n      0x00\n        /* \"contract/EventOrganizingContract.sol\":1471:1477  _event */\n      dup2\n        /* \"contract/EventOrganizingContract.sol\":1471:1482  _event.date */\n      0x01\n      add\n      sload\n        /* \"contract/EventOrganizingContract.sol\":1471:1487  _event.date != 0 */\n      eq\n      iszero\n        /* \"contract/EventOrganizingContract.sol\":1463:1513  require(_event.date != 0, \"Event does not exist!\") */\n      tag_67\n      jumpi\n      mload(0x40)\n      0x08c379a000000000000000000000000000000000000000000000000000000000\n      dup2\n      mstore\n      0x04\n      add\n      tag_68\n      swap1\n      tag_50\n      jump\t// in\n    tag_68:\n      mload(0x40)\n      dup1\n      swap2\n      sub\n      swap1\n      revert\n    tag_67:\n        /* \"contract/EventOrganizingContract.sol\":1546:1561  block.timestamp */\n      timestamp\n        /* \"contract/EventOrganizingContract.sol\":1532:1538  _event */\n      dup2\n        /* \"contract/EventOrganizingContract.sol\":1532:1543  _event.date */\n      0x01\n      add\n      sload\n        /* \"contract/EventOrganizingContract.sol\":1532:1561  _event.date > block.timestamp */\n      gt\n        /* \"contract/EventOrganizingContract.sol\":1524:1588  require(_event.date > block.timestamp, \"Event already occured!\") */\n      tag_69\n      jumpi\n      mload(0x40)\n      0x08c379a000000000000000000000000000000000000000000000000000000000\n      dup2\n      mstore\n      0x04\n      add\n      tag_70\n      swap1\n      tag_71\n      jump\t// in\n    tag_70:\n      mload(0x40)\n      dup1\n      swap2\n      sub\n      swap1\n      revert\n    tag_69:\n        /* \"contract/EventOrganizingContract.sol\":1635:1644  _quantity */\n      dup4\n        /* \"contract/EventOrganizingContract.sol\":1607:1614  tickets */\n      0x01\n        /* \"contract/EventOrganizingContract.sol\":1607:1626  tickets[msg.sender] */\n      0x00\n        /* \"contract/EventOrganizingContract.sol\":1615:1625  msg.sender */\n      caller\n        /* \"contract/EventOrganizingContract.sol\":1607:1626  tickets[msg.sender] */\n      0xffffffffffffffffffffffffffffffffffffffff\n      and\n      0xffffffffffffffffffffffffffffffffffffffff\n      and\n      dup2\n      mstore\n      0x20\n      add\n      swap1\n      dup2\n      mstore\n      0x20\n      add\n      0x00\n      keccak256\n        /* \"contract/EventOrganizingContract.sol\":1607:1631  tickets[msg.sender][_ID] */\n      0x00\n        /* \"contract/EventOrganizingContract.sol\":1627:1630  _ID */\n      dup6\n        /* \"contract/EventOrganizingContract.sol\":1607:1631  tickets[msg.sender][_ID] */\n      dup2\n      mstore\n      0x20\n      add\n      swap1\n      dup2\n      mstore\n      0x20\n      add\n      0x00\n      keccak256\n      sload\n        /* \"contract/EventOrganizingContract.sol\":1607:1644  tickets[msg.sender][_ID] >= _quantity */\n      lt\n      iszero\n        /* \"contract/EventOrganizingContract.sol\":1599:1690  require(tickets[msg.sender][_ID] >= _quantity, \"You don't have enough ticket to transfer!\") */\n      tag_72\n      jumpi\n      mload(0x40)\n      0x08c379a000000000000000000000000000000000000000000000000000000000\n      dup2\n      mstore\n      0x04\n      add\n      tag_73\n      swap1\n      tag_74\n      jump\t// in\n    tag_73:\n      mload(0x40)\n      dup1\n      swap2\n      sub\n      swap1\n      revert\n    tag_72:\n        /* \"contract/EventOrganizingContract.sol\":1729:1738  _quantity */\n      dup4\n        /* \"contract/EventOrganizingContract.sol\":1701:1708  tickets */\n      0x01\n        /* \"contract/EventOrganizingContract.sol\":1701:1720  tickets[msg.sender] */\n      0x00\n        /* \"contract/EventOrganizingContract.sol\":1709:1719  msg.sender */\n      caller\n        /* \"contract/EventOrganizingContract.sol\":1701:1720  tickets[msg.sender] */\n      0xffffffffffffffffffffffffffffffffffffffff\n      and\n      0xffffffffffffffffffffffffffffffffffffffff\n      and\n      dup2\n      mstore\n      0x20\n      add\n      swap1\n      dup2\n      mstore\n      0x20\n      add\n      0x00\n      keccak256\n        /* \"contract/EventOrganizingContract.sol\":1701:1725  tickets[msg.sender][_ID] */\n      0x00\n        /* \"contract/EventOrganizingContract.sol\":1721:1724  _ID */\n      dup6\n        /* \"contract/EventOrganizingContract.sol\":1701:1725  tickets[msg.sender][_ID] */\n      dup2\n      mstore\n      0x20\n      add\n      swap1\n      dup2\n      mstore\n      0x20\n      add\n      0x00\n      keccak256\n      0x00\n        /* \"contract/EventOrganizingContract.sol\":1701:1738  tickets[msg.sender][_ID] -= _quantity */\n      dup3\n      dup3\n      sload\n      tag_75\n      swap2\n      swap1\n      tag_63\n      jump\t// in\n    tag_75:\n      swap3\n      pop\n      pop\n      dup2\n      swap1\n      sstore\n      pop\n        /* \"contract/EventOrganizingContract.sol\":1770:1779  _quantity */\n      dup4\n        /* \"contract/EventOrganizingContract.sol\":1749:1756  tickets */\n      0x01\n        /* \"contract/EventOrganizingContract.sol\":1749:1761  tickets[_to] */\n      0x00\n        /* \"contract/EventOrganizingContract.sol\":1757:1760  _to */\n      dup5\n        /* \"contract/EventOrganizingContract.sol\":1749:1761  tickets[_to] */\n      0xffffffffffffffffffffffffffffffffffffffff\n      and\n      0xffffffffffffffffffffffffffffffffffffffff\n      and\n      dup2\n      mstore\n      0x20\n      add\n      swap1\n      dup2\n      mstore\n      0x20\n      add\n      0x00\n      keccak256\n        /* \"contract/EventOrganizingContract.sol\":1749:1766  tickets[_to][_ID] */\n      0x00\n        /* \"contract/EventOrganizingContract.sol\":1762:1765  _ID */\n      dup6\n        /* \"contract/EventOrganizingContract.sol\":1749:1766  tickets[_to][_ID] */\n      dup2\n      mstore\n      0x20\n      add\n      swap1\n      dup2\n      mstore\n      0x20\n      add\n      0x00\n      keccak256\n      0x00\n        /* \"contract/EventOrganizingContract.sol\":1749:1779  tickets[_to][_ID] += _quantity */\n      dup3\n      dup3\n      sload\n      tag_76\n      swap2\n      swap1\n      tag_65\n      jump\t// in\n    tag_76:\n      swap3\n      pop\n      pop\n      dup2\n      swap1\n      sstore\n      pop\n        /* \"contract/EventOrganizingContract.sol\":1407:1787  {\r... */\n      pop\n        /* \"contract/EventOrganizingContract.sol\":1336:1787  function transferTicket(uint _quantity, uint _ID, address _to) external{\r... */\n      pop\n      pop\n      pop\n      jump\t// out\n        /* \"contract/EventOrganizingContract.sol\":404:766  function createEvent(uint _date, string memory _name, uint _price, uint _ticketCount) external{\r... */\n    tag_40:\n        /* \"contract/EventOrganizingContract.sol\":525:540  block.timestamp */\n      timestamp\n        /* \"contract/EventOrganizingContract.sol\":517:522  _date */\n      dup5\n        /* \"contract/EventOrganizingContract.sol\":517:540  _date > block.timestamp */\n      gt\n        /* \"contract/EventOrganizingContract.sol\":509:579  require(_date > block.timestamp, \"You can organize event for future!\") */\n      tag_78\n      jumpi\n      mload(0x40)\n      0x08c379a000000000000000000000000000000000000000000000000000000000\n      dup2\n      mstore\n      0x04\n      add\n      tag_79\n      swap1\n      tag_80\n      jump\t// in\n    tag_79:\n      mload(0x40)\n      dup1\n      swap2\n      sub\n      swap1\n      revert\n    tag_78:\n        /* \"contract/EventOrganizingContract.sol\":613:614  0 */\n      0x00\n        /* \"contract/EventOrganizingContract.sol\":598:610  _ticketCount */\n      dup2\n        /* \"contract/EventOrganizingContract.sol\":598:614  _ticketCount > 0 */\n      gt\n        /* \"contract/EventOrganizingContract.sol\":590:652  require(_ticketCount > 0, \"Event must have atleast 1 ticket!\") */\n      tag_81\n      jumpi\n      mload(0x40)\n      0x08c379a000000000000000000000000000000000000000000000000000000000\n      dup2\n      mstore\n      0x04\n      add\n      tag_82\n      swap1\n      tag_83\n      jump\t// in\n    tag_82:\n      mload(0x40)\n      dup1\n      swap2\n      sub\n      swap1\n      revert\n    tag_81:\n        /* \"contract/EventOrganizingContract.sol\":676:743  Event(msg.sender, _date, _name, _price, _ticketCount, _ticketCount) */\n      mload(0x40)\n      dup1\n      0xc0\n      add\n      0x40\n      mstore\n      dup1\n        /* \"contract/EventOrganizingContract.sol\":682:692  msg.sender */\n      caller\n        /* \"contract/EventOrganizingContract.sol\":676:743  Event(msg.sender, _date, _name, _price, _ticketCount, _ticketCount) */\n      0xffffffffffffffffffffffffffffffffffffffff\n      and\n      dup2\n      mstore\n      0x20\n      add\n        /* \"contract/EventOrganizingContract.sol\":694:699  _date */\n      dup6\n        /* \"contract/EventOrganizingContract.sol\":676:743  Event(msg.sender, _date, _name, _price, _ticketCount, _ticketCount) */\n      dup2\n      mstore\n      0x20\n      add\n        /* \"contract/EventOrganizingContract.sol\":701:706  _name */\n      dup5\n        /* \"contract/EventOrganizingContract.sol\":676:743  Event(msg.sender, _date, _name, _price, _ticketCount, _ticketCount) */\n      dup2\n      mstore\n      0x20\n      add\n        /* \"contract/EventOrganizingContract.sol\":708:714  _price */\n      dup4\n        /* \"contract/EventOrganizingContract.sol\":676:743  Event(msg.sender, _date, _name, _price, _ticketCount, _ticketCount) */\n      dup2\n      mstore\n      0x20\n      add\n        /* \"contract/EventOrganizingContract.sol\":716:728  _ticketCount */\n      dup3\n        /* \"contract/EventOrganizingContract.sol\":676:743  Event(msg.sender, _date, _name, _price, _ticketCount, _ticketCount) */\n      dup2\n      mstore\n      0x20\n      add\n        /* \"contract/EventOrganizingContract.sol\":730:742  _ticketCount */\n      dup3\n        /* \"contract/EventOrganizingContract.sol\":676:743  Event(msg.sender, _date, _name, _price, _ticketCount, _ticketCount) */\n      dup2\n      mstore\n      pop\n        /* \"contract/EventOrganizingContract.sol\":663:669  events */\n      0x00\n        /* \"contract/EventOrganizingContract.sol\":663:673  events[ID] */\n      dup1\n        /* \"contract/EventOrganizingContract.sol\":670:672  ID */\n      sload(0x02)\n        /* \"contract/EventOrganizingContract.sol\":663:673  events[ID] */\n      dup2\n      mstore\n      0x20\n      add\n      swap1\n      dup2\n      mstore\n      0x20\n      add\n      0x00\n      keccak256\n        /* \"contract/EventOrganizingContract.sol\":663:743  events[ID] = Event(msg.sender, _date, _name, _price, _ticketCount, _ticketCount) */\n      0x00\n      dup3\n      add\n      mload\n      dup2\n      0x00\n      add\n      exp(0x0100, 0x00)\n      dup2\n      sload\n      dup2\n      0xffffffffffffffffffffffffffffffffffffffff\n      mul\n      not\n      and\n      swap1\n      dup4\n      0xffffffffffffffffffffffffffffffffffffffff\n      and\n      mul\n      or\n      swap1\n      sstore\n      pop\n      0x20\n      dup3\n      add\n      mload\n      dup2\n      0x01\n      add\n      sstore\n      0x40\n      dup3\n      add\n      mload\n      dup2\n      0x02\n      add\n      swap1\n      dup1\n      mload\n      swap1\n      0x20\n      add\n      swap1\n      tag_84\n      swap3\n      swap2\n      swap1\n      tag_85\n      jump\t// in\n    tag_84:\n      pop\n      0x60\n      dup3\n      add\n      mload\n      dup2\n      0x03\n      add\n      sstore\n      0x80\n      dup3\n      add\n      mload\n      dup2\n      0x04\n      add\n      sstore\n      0xa0\n      dup3\n      add\n      mload\n      dup2\n      0x05\n      add\n      sstore\n      swap1\n      pop\n      pop\n        /* \"contract/EventOrganizingContract.sol\":754:756  ID */\n      0x02\n      0x00\n        /* \"contract/EventOrganizingContract.sol\":754:758  ID++ */\n      dup2\n      sload\n      dup1\n      swap3\n      swap2\n      swap1\n      tag_86\n      swap1\n      tag_87\n      jump\t// in\n    tag_86:\n      swap2\n      swap1\n      pop\n      sstore\n      pop\n        /* \"contract/EventOrganizingContract.sol\":404:766  function createEvent(uint _date, string memory _name, uint _price, uint _ticketCount) external{\r... */\n      pop\n      pop\n      pop\n      pop\n      jump\t// out\n    tag_85:\n      dup3\n      dup1\n      sload\n      tag_88\n      swap1\n      tag_42\n      jump\t// in\n    tag_88:\n      swap1\n      0x00\n      mstore\n      keccak256(0x00, 0x20)\n      swap1\n      0x1f\n      add\n      0x20\n      swap1\n      div\n      dup2\n      add\n      swap3\n      dup3\n      tag_90\n      jumpi\n      0x00\n      dup6\n      sstore\n      jump(tag_89)\n    tag_90:\n      dup3\n      0x1f\n      lt\n      tag_91\n      jumpi\n      dup1\n      mload\n      not(0xff)\n      and\n      dup4\n      dup1\n      add\n      or\n      dup6\n      sstore\n      jump(tag_89)\n    tag_91:\n      dup3\n      dup1\n      add\n      0x01\n      add\n      dup6\n      sstore\n      dup3\n      iszero\n      tag_89\n      jumpi\n      swap2\n      dup3\n      add\n    tag_92:\n      dup3\n      dup2\n      gt\n      iszero\n      tag_93\n      jumpi\n      dup3\n      mload\n      dup3\n      sstore\n      swap2\n      0x20\n      add\n      swap2\n      swap1\n      0x01\n      add\n      swap1\n      jump(tag_92)\n    tag_93:\n    tag_89:\n      pop\n      swap1\n      pop\n      tag_94\n      swap2\n      swap1\n      tag_95\n      jump\t// in\n    tag_94:\n      pop\n      swap1\n      jump\t// out\n    tag_95:\n    tag_96:\n      dup1\n      dup3\n      gt\n      iszero\n      tag_97\n      jumpi\n      0x00\n      dup2\n      0x00\n      swap1\n      sstore\n      pop\n      0x01\n      add\n      jump(tag_96)\n    tag_97:\n      pop\n      swap1\n      jump\t// out\n        /* \"#utility.yul\":7:419   */\n    tag_99:\n        /* \"#utility.yul\":85:90   */\n      0x00\n        /* \"#utility.yul\":110:176   */\n      tag_101\n        /* \"#utility.yul\":126:175   */\n      tag_102\n        /* \"#utility.yul\":168:174   */\n      dup5\n        /* \"#utility.yul\":126:175   */\n      tag_103\n      jump\t// in\n    tag_102:\n        /* \"#utility.yul\":110:176   */\n      tag_104\n      jump\t// in\n    tag_101:\n        /* \"#utility.yul\":101:176   */\n      swap1\n      pop\n        /* \"#utility.yul\":199:205   */\n      dup3\n        /* \"#utility.yul\":192:197   */\n      dup2\n        /* \"#utility.yul\":185:206   */\n      mstore\n        /* \"#utility.yul\":237:241   */\n      0x20\n        /* \"#utility.yul\":230:235   */\n      dup2\n        /* \"#utility.yul\":226:242   */\n      add\n        /* \"#utility.yul\":275:278   */\n      dup5\n        /* \"#utility.yul\":266:272   */\n      dup5\n        /* \"#utility.yul\":261:264   */\n      dup5\n        /* \"#utility.yul\":257:273   */\n      add\n        /* \"#utility.yul\":254:279   */\n      gt\n        /* \"#utility.yul\":251:363   */\n      iszero\n      tag_105\n      jumpi\n        /* \"#utility.yul\":282:361   */\n      tag_106\n      tag_107\n      jump\t// in\n    tag_106:\n        /* \"#utility.yul\":251:363   */\n    tag_105:\n        /* \"#utility.yul\":372:413   */\n      tag_108\n        /* \"#utility.yul\":406:412   */\n      dup5\n        /* \"#utility.yul\":401:404   */\n      dup3\n        /* \"#utility.yul\":396:399   */\n      dup6\n        /* \"#utility.yul\":372:413   */\n      tag_109\n      jump\t// in\n    tag_108:\n        /* \"#utility.yul\":91:419   */\n      pop\n        /* \"#utility.yul\":7:419   */\n      swap4\n      swap3\n      pop\n      pop\n      pop\n      jump\t// out\n        /* \"#utility.yul\":425:564   */\n    tag_110:\n        /* \"#utility.yul\":471:476   */\n      0x00\n        /* \"#utility.yul\":509:515   */\n      dup2\n        /* \"#utility.yul\":496:516   */\n      calldataload\n        /* \"#utility.yul\":487:516   */\n      swap1\n      pop\n        /* \"#utility.yul\":525:558   */\n      tag_112\n        /* \"#utility.yul\":552:557   */\n      dup2\n        /* \"#utility.yul\":525:558   */\n      tag_113\n      jump\t// in\n    tag_112:\n        /* \"#utility.yul\":425:564   */\n      swap3\n      swap2\n      pop\n      pop\n      jump\t// out\n        /* \"#utility.yul\":584:924   */\n    tag_114:\n        /* \"#utility.yul\":640:645   */\n      0x00\n        /* \"#utility.yul\":689:692   */\n      dup3\n        /* \"#utility.yul\":682:686   */\n      0x1f\n        /* \"#utility.yul\":674:680   */\n      dup4\n        /* \"#utility.yul\":670:687   */\n      add\n        /* \"#utility.yul\":666:693   */\n      slt\n        /* \"#utility.yul\":656:778   */\n      tag_116\n      jumpi\n        /* \"#utility.yul\":697:776   */\n      tag_117\n      tag_118\n      jump\t// in\n    tag_117:\n        /* \"#utility.yul\":656:778   */\n    tag_116:\n        /* \"#utility.yul\":814:820   */\n      dup2\n        /* \"#utility.yul\":801:821   */\n      calldataload\n        /* \"#utility.yul\":839:918   */\n      tag_119\n        /* \"#utility.yul\":914:917   */\n      dup5\n        /* \"#utility.yul\":906:912   */\n      dup3\n        /* \"#utility.yul\":899:903   */\n      0x20\n        /* \"#utility.yul\":891:897   */\n      dup7\n        /* \"#utility.yul\":887:904   */\n      add\n        /* \"#utility.yul\":839:918   */\n      tag_99\n      jump\t// in\n    tag_119:\n        /* \"#utility.yul\":830:918   */\n      swap2\n      pop\n        /* \"#utility.yul\":646:924   */\n      pop\n        /* \"#utility.yul\":584:924   */\n      swap3\n      swap2\n      pop\n      pop\n      jump\t// out\n        /* \"#utility.yul\":930:1069   */\n    tag_120:\n        /* \"#utility.yul\":976:981   */\n      0x00\n        /* \"#utility.yul\":1014:1020   */\n      dup2\n        /* \"#utility.yul\":1001:1021   */\n      calldataload\n        /* \"#utility.yul\":992:1021   */\n      swap1\n      pop\n        /* \"#utility.yul\":1030:1063   */\n      tag_122\n        /* \"#utility.yul\":1057:1062   */\n      dup2\n        /* \"#utility.yul\":1030:1063   */\n      tag_123\n      jump\t// in\n    tag_122:\n        /* \"#utility.yul\":930:1069   */\n      swap3\n      swap2\n      pop\n      pop\n      jump\t// out\n        /* \"#utility.yul\":1075:1549   */\n    tag_28:\n        /* \"#utility.yul\":1143:1149   */\n      0x00\n        /* \"#utility.yul\":1151:1157   */\n      dup1\n        /* \"#utility.yul\":1200:1202   */\n      0x40\n        /* \"#utility.yul\":1188:1197   */\n      dup4\n        /* \"#utility.yul\":1179:1186   */\n      dup6\n        /* \"#utility.yul\":1175:1198   */\n      sub\n        /* \"#utility.yul\":1171:1203   */\n      slt\n        /* \"#utility.yul\":1168:1287   */\n      iszero\n      tag_125\n      jumpi\n        /* \"#utility.yul\":1206:1285   */\n      tag_126\n      tag_127\n      jump\t// in\n    tag_126:\n        /* \"#utility.yul\":1168:1287   */\n    tag_125:\n        /* \"#utility.yul\":1326:1327   */\n      0x00\n        /* \"#utility.yul\":1351:1404   */\n      tag_128\n        /* \"#utility.yul\":1396:1403   */\n      dup6\n        /* \"#utility.yul\":1387:1393   */\n      dup3\n        /* \"#utility.yul\":1376:1385   */\n      dup7\n        /* \"#utility.yul\":1372:1394   */\n      add\n        /* \"#utility.yul\":1351:1404   */\n      tag_110\n      jump\t// in\n    tag_128:\n        /* \"#utility.yul\":1341:1404   */\n      swap3\n      pop\n        /* \"#utility.yul\":1297:1414   */\n      pop\n        /* \"#utility.yul\":1453:1455   */\n      0x20\n        /* \"#utility.yul\":1479:1532   */\n      tag_129\n        /* \"#utility.yul\":1524:1531   */\n      dup6\n        /* \"#utility.yul\":1515:1521   */\n      dup3\n        /* \"#utility.yul\":1504:1513   */\n      dup7\n        /* \"#utility.yul\":1500:1522   */\n      add\n        /* \"#utility.yul\":1479:1532   */\n      tag_120\n      jump\t// in\n    tag_129:\n        /* \"#utility.yul\":1469:1532   */\n      swap2\n      pop\n        /* \"#utility.yul\":1424:1542   */\n      pop\n        /* \"#utility.yul\":1075:1549   */\n      swap3\n      pop\n      swap3\n      swap1\n      pop\n      jump\t// out\n        /* \"#utility.yul\":1555:1884   */\n    tag_11:\n        /* \"#utility.yul\":1614:1620   */\n      0x00\n        /* \"#utility.yul\":1663:1665   */\n      0x20\n        /* \"#utility.yul\":1651:1660   */\n      dup3\n        /* \"#utility.yul\":1642:1649   */\n      dup5\n        /* \"#utility.yul\":1638:1661   */\n      sub\n        /* \"#utility.yul\":1634:1666   */\n      slt\n        /* \"#utility.yul\":1631:1750   */\n      iszero\n      tag_131\n      jumpi\n        /* \"#utility.yul\":1669:1748   */\n      tag_132\n      tag_127\n      jump\t// in\n    tag_132:\n        /* \"#utility.yul\":1631:1750   */\n    tag_131:\n        /* \"#utility.yul\":1789:1790   */\n      0x00\n        /* \"#utility.yul\":1814:1867   */\n      tag_133\n        /* \"#utility.yul\":1859:1866   */\n      dup5\n        /* \"#utility.yul\":1850:1856   */\n      dup3\n        /* \"#utility.yul\":1839:1848   */\n      dup6\n        /* \"#utility.yul\":1835:1857   */\n      add\n        /* \"#utility.yul\":1814:1867   */\n      tag_120\n      jump\t// in\n    tag_133:\n        /* \"#utility.yul\":1804:1867   */\n      swap2\n      pop\n        /* \"#utility.yul\":1760:1877   */\n      pop\n        /* \"#utility.yul\":1555:1884   */\n      swap3\n      swap2\n      pop\n      pop\n      jump\t// out\n        /* \"#utility.yul\":1890:2835   */\n    tag_39:\n        /* \"#utility.yul\":1986:1992   */\n      0x00\n        /* \"#utility.yul\":1994:2000   */\n      dup1\n        /* \"#utility.yul\":2002:2008   */\n      0x00\n        /* \"#utility.yul\":2010:2016   */\n      dup1\n        /* \"#utility.yul\":2059:2062   */\n      0x80\n        /* \"#utility.yul\":2047:2056   */\n      dup6\n        /* \"#utility.yul\":2038:2045   */\n      dup8\n        /* \"#utility.yul\":2034:2057   */\n      sub\n        /* \"#utility.yul\":2030:2063   */\n      slt\n        /* \"#utility.yul\":2027:2147   */\n      iszero\n      tag_135\n      jumpi\n        /* \"#utility.yul\":2066:2145   */\n      tag_136\n      tag_127\n      jump\t// in\n    tag_136:\n        /* \"#utility.yul\":2027:2147   */\n    tag_135:\n        /* \"#utility.yul\":2186:2187   */\n      0x00\n        /* \"#utility.yul\":2211:2264   */\n      tag_137\n        /* \"#utility.yul\":2256:2263   */\n      dup8\n        /* \"#utility.yul\":2247:2253   */\n      dup3\n        /* \"#utility.yul\":2236:2245   */\n      dup9\n        /* \"#utility.yul\":2232:2254   */\n      add\n        /* \"#utility.yul\":2211:2264   */\n      tag_120\n      jump\t// in\n    tag_137:\n        /* \"#utility.yul\":2201:2264   */\n      swap5\n      pop\n        /* \"#utility.yul\":2157:2274   */\n      pop\n        /* \"#utility.yul\":2341:2343   */\n      0x20\n        /* \"#utility.yul\":2330:2339   */\n      dup6\n        /* \"#utility.yul\":2326:2344   */\n      add\n        /* \"#utility.yul\":2313:2345   */\n      calldataload\n        /* \"#utility.yul\":2372:2390   */\n      0xffffffffffffffff\n        /* \"#utility.yul\":2364:2370   */\n      dup2\n        /* \"#utility.yul\":2361:2391   */\n      gt\n        /* \"#utility.yul\":2358:2475   */\n      iszero\n      tag_138\n      jumpi\n        /* \"#utility.yul\":2394:2473   */\n      tag_139\n      tag_140\n      jump\t// in\n    tag_139:\n        /* \"#utility.yul\":2358:2475   */\n    tag_138:\n        /* \"#utility.yul\":2499:2562   */\n      tag_141\n        /* \"#utility.yul\":2554:2561   */\n      dup8\n        /* \"#utility.yul\":2545:2551   */\n      dup3\n        /* \"#utility.yul\":2534:2543   */\n      dup9\n        /* \"#utility.yul\":2530:2552   */\n      add\n        /* \"#utility.yul\":2499:2562   */\n      tag_114\n      jump\t// in\n    tag_141:\n        /* \"#utility.yul\":2489:2562   */\n      swap4\n      pop\n        /* \"#utility.yul\":2284:2572   */\n      pop\n        /* \"#utility.yul\":2611:2613   */\n      0x40\n        /* \"#utility.yul\":2637:2690   */\n      tag_142\n        /* \"#utility.yul\":2682:2689   */\n      dup8\n        /* \"#utility.yul\":2673:2679   */\n      dup3\n        /* \"#utility.yul\":2662:2671   */\n      dup9\n        /* \"#utility.yul\":2658:2680   */\n      add\n        /* \"#utility.yul\":2637:2690   */\n      tag_120\n      jump\t// in\n    tag_142:\n        /* \"#utility.yul\":2627:2690   */\n      swap3\n      pop\n        /* \"#utility.yul\":2582:2700   */\n      pop\n        /* \"#utility.yul\":2739:2741   */\n      0x60\n        /* \"#utility.yul\":2765:2818   */\n      tag_143\n        /* \"#utility.yul\":2810:2817   */\n      dup8\n        /* \"#utility.yul\":2801:2807   */\n      dup3\n        /* \"#utility.yul\":2790:2799   */\n      dup9\n        /* \"#utility.yul\":2786:2808   */\n      add\n        /* \"#utility.yul\":2765:2818   */\n      tag_120\n      jump\t// in\n    tag_143:\n        /* \"#utility.yul\":2755:2818   */\n      swap2\n      pop\n        /* \"#utility.yul\":2710:2828   */\n      pop\n        /* \"#utility.yul\":1890:2835   */\n      swap3\n      swap6\n      swap2\n      swap5\n      pop\n      swap3\n      pop\n      jump\t// out\n        /* \"#utility.yul\":2841:3315   */\n    tag_17:\n        /* \"#utility.yul\":2909:2915   */\n      0x00\n        /* \"#utility.yul\":2917:2923   */\n      dup1\n        /* \"#utility.yul\":2966:2968   */\n      0x40\n        /* \"#utility.yul\":2954:2963   */\n      dup4\n        /* \"#utility.yul\":2945:2952   */\n      dup6\n        /* \"#utility.yul\":2941:2964   */\n      sub\n        /* \"#utility.yul\":2937:2969   */\n      slt\n        /* \"#utility.yul\":2934:3053   */\n      iszero\n      tag_145\n      jumpi\n        /* \"#utility.yul\":2972:3051   */\n      tag_146\n      tag_127\n      jump\t// in\n    tag_146:\n        /* \"#utility.yul\":2934:3053   */\n    tag_145:\n        /* \"#utility.yul\":3092:3093   */\n      0x00\n        /* \"#utility.yul\":3117:3170   */\n      tag_147\n        /* \"#utility.yul\":3162:3169   */\n      dup6\n        /* \"#utility.yul\":3153:3159   */\n      dup3\n        /* \"#utility.yul\":3142:3151   */\n      dup7\n        /* \"#utility.yul\":3138:3160   */\n      add\n        /* \"#utility.yul\":3117:3170   */\n      tag_120\n      jump\t// in\n    tag_147:\n        /* \"#utility.yul\":3107:3170   */\n      swap3\n      pop\n        /* \"#utility.yul\":3063:3180   */\n      pop\n        /* \"#utility.yul\":3219:3221   */\n      0x20\n        /* \"#utility.yul\":3245:3298   */\n      tag_148\n        /* \"#utility.yul\":3290:3297   */\n      dup6\n        /* \"#utility.yul\":3281:3287   */\n      dup3\n        /* \"#utility.yul\":3270:3279   */\n      dup7\n        /* \"#utility.yul\":3266:3288   */\n      add\n        /* \"#utility.yul\":3245:3298   */\n      tag_120\n      jump\t// in\n    tag_148:\n        /* \"#utility.yul\":3235:3298   */\n      swap2\n      pop\n        /* \"#utility.yul\":3190:3308   */\n      pop\n        /* \"#utility.yul\":2841:3315   */\n      swap3\n      pop\n      swap3\n      swap1\n      pop\n      jump\t// out\n        /* \"#utility.yul\":3321:3940   */\n    tag_34:\n        /* \"#utility.yul\":3398:3404   */\n      0x00\n        /* \"#utility.yul\":3406:3412   */\n      dup1\n        /* \"#utility.yul\":3414:3420   */\n      0x00\n        /* \"#utility.yul\":3463:3465   */\n      0x60\n        /* \"#utility.yul\":3451:3460   */\n      dup5\n        /* \"#utility.yul\":3442:3449   */\n      dup7\n        /* \"#utility.yul\":3438:3461   */\n      sub\n        /* \"#utility.yul\":3434:3466   */\n      slt\n        /* \"#utility.yul\":3431:3550   */\n      iszero\n      tag_150\n      jumpi\n        /* \"#utility.yul\":3469:3548   */\n      tag_151\n      tag_127\n      jump\t// in\n    tag_151:\n        /* \"#utility.yul\":3431:3550   */\n    tag_150:\n        /* \"#utility.yul\":3589:3590   */\n      0x00\n        /* \"#utility.yul\":3614:3667   */\n      tag_152\n        /* \"#utility.yul\":3659:3666   */\n      dup7\n        /* \"#utility.yul\":3650:3656   */\n      dup3\n        /* \"#utility.yul\":3639:3648   */\n      dup8\n        /* \"#utility.yul\":3635:3657   */\n      add\n        /* \"#utility.yul\":3614:3667   */\n      tag_120\n      jump\t// in\n    tag_152:\n        /* \"#utility.yul\":3604:3667   */\n      swap4\n      pop\n        /* \"#utility.yul\":3560:3677   */\n      pop\n        /* \"#utility.yul\":3716:3718   */\n      0x20\n        /* \"#utility.yul\":3742:3795   */\n      tag_153\n        /* \"#utility.yul\":3787:3794   */\n      dup7\n        /* \"#utility.yul\":3778:3784   */\n      dup3\n        /* \"#utility.yul\":3767:3776   */\n      dup8\n        /* \"#utility.yul\":3763:3785   */\n      add\n        /* \"#utility.yul\":3742:3795   */\n      tag_120\n      jump\t// in\n    tag_153:\n        /* \"#utility.yul\":3732:3795   */\n      swap3\n      pop\n        /* \"#utility.yul\":3687:3805   */\n      pop\n        /* \"#utility.yul\":3844:3846   */\n      0x40\n        /* \"#utility.yul\":3870:3923   */\n      tag_154\n        /* \"#utility.yul\":3915:3922   */\n      dup7\n        /* \"#utility.yul\":3906:3912   */\n      dup3\n        /* \"#utility.yul\":3895:3904   */\n      dup8\n        /* \"#utility.yul\":3891:3913   */\n      add\n        /* \"#utility.yul\":3870:3923   */\n      tag_110\n      jump\t// in\n    tag_154:\n        /* \"#utility.yul\":3860:3923   */\n      swap2\n      pop\n        /* \"#utility.yul\":3815:3933   */\n      pop\n        /* \"#utility.yul\":3321:3940   */\n      swap3\n      pop\n      swap3\n      pop\n      swap3\n      jump\t// out\n        /* \"#utility.yul\":3946:4064   */\n    tag_155:\n        /* \"#utility.yul\":4033:4057   */\n      tag_157\n        /* \"#utility.yul\":4051:4056   */\n      dup2\n        /* \"#utility.yul\":4033:4057   */\n      tag_158\n      jump\t// in\n    tag_157:\n        /* \"#utility.yul\":4028:4031   */\n      dup3\n        /* \"#utility.yul\":4021:4058   */\n      mstore\n        /* \"#utility.yul\":3946:4064   */\n      pop\n      pop\n      jump\t// out\n        /* \"#utility.yul\":4070:4434   */\n    tag_159:\n        /* \"#utility.yul\":4158:4161   */\n      0x00\n        /* \"#utility.yul\":4186:4225   */\n      tag_161\n        /* \"#utility.yul\":4219:4224   */\n      dup3\n        /* \"#utility.yul\":4186:4225   */\n      tag_162\n      jump\t// in\n    tag_161:\n        /* \"#utility.yul\":4241:4312   */\n      tag_163\n        /* \"#utility.yul\":4305:4311   */\n      dup2\n        /* \"#utility.yul\":4300:4303   */\n      dup6\n        /* \"#utility.yul\":4241:4312   */\n      tag_164\n      jump\t// in\n    tag_163:\n        /* \"#utility.yul\":4234:4312   */\n      swap4\n      pop\n        /* \"#utility.yul\":4321:4373   */\n      tag_165\n        /* \"#utility.yul\":4366:4372   */\n      dup2\n        /* \"#utility.yul\":4361:4364   */\n      dup6\n        /* \"#utility.yul\":4354:4358   */\n      0x20\n        /* \"#utility.yul\":4347:4352   */\n      dup7\n        /* \"#utility.yul\":4343:4359   */\n      add\n        /* \"#utility.yul\":4321:4373   */\n      tag_166\n      jump\t// in\n    tag_165:\n        /* \"#utility.yul\":4398:4427   */\n      tag_167\n        /* \"#utility.yul\":4420:4426   */\n      dup2\n        /* \"#utility.yul\":4398:4427   */\n      tag_168\n      jump\t// in\n    tag_167:\n        /* \"#utility.yul\":4393:4396   */\n      dup5\n        /* \"#utility.yul\":4389:4428   */\n      add\n        /* \"#utility.yul\":4382:4428   */\n      swap2\n      pop\n        /* \"#utility.yul\":4162:4434   */\n      pop\n        /* \"#utility.yul\":4070:4434   */\n      swap3\n      swap2\n      pop\n      pop\n      jump\t// out\n        /* \"#utility.yul\":4440:4806   */\n    tag_169:\n        /* \"#utility.yul\":4582:4585   */\n      0x00\n        /* \"#utility.yul\":4603:4670   */\n      tag_171\n        /* \"#utility.yul\":4667:4669   */\n      0x15\n        /* \"#utility.yul\":4662:4665   */\n      dup4\n        /* \"#utility.yul\":4603:4670   */\n      tag_164\n      jump\t// in\n    tag_171:\n        /* \"#utility.yul\":4596:4670   */\n      swap2\n      pop\n        /* \"#utility.yul\":4679:4772   */\n      tag_172\n        /* \"#utility.yul\":4768:4771   */\n      dup3\n        /* \"#utility.yul\":4679:4772   */\n      tag_173\n      jump\t// in\n    tag_172:\n        /* \"#utility.yul\":4797:4799   */\n      0x20\n        /* \"#utility.yul\":4792:4795   */\n      dup3\n        /* \"#utility.yul\":4788:4800   */\n      add\n        /* \"#utility.yul\":4781:4800   */\n      swap1\n      pop\n        /* \"#utility.yul\":4440:4806   */\n      swap2\n      swap1\n      pop\n      jump\t// out\n        /* \"#utility.yul\":4812:5178   */\n    tag_174:\n        /* \"#utility.yul\":4954:4957   */\n      0x00\n        /* \"#utility.yul\":4975:5042   */\n      tag_176\n        /* \"#utility.yul\":5039:5041   */\n      0x29\n        /* \"#utility.yul\":5034:5037   */\n      dup4\n        /* \"#utility.yul\":4975:5042   */\n      tag_164\n      jump\t// in\n    tag_176:\n        /* \"#utility.yul\":4968:5042   */\n      swap2\n      pop\n        /* \"#utility.yul\":5051:5144   */\n      tag_177\n        /* \"#utility.yul\":5140:5143   */\n      dup3\n        /* \"#utility.yul\":5051:5144   */\n      tag_178\n      jump\t// in\n    tag_177:\n        /* \"#utility.yul\":5169:5171   */\n      0x40\n        /* \"#utility.yul\":5164:5167   */\n      dup3\n        /* \"#utility.yul\":5160:5172   */\n      add\n        /* \"#utility.yul\":5153:5172   */\n      swap1\n      pop\n        /* \"#utility.yul\":4812:5178   */\n      swap2\n      swap1\n      pop\n      jump\t// out\n        /* \"#utility.yul\":5184:5550   */\n    tag_179:\n        /* \"#utility.yul\":5326:5329   */\n      0x00\n        /* \"#utility.yul\":5347:5414   */\n      tag_181\n        /* \"#utility.yul\":5411:5413   */\n      0x16\n        /* \"#utility.yul\":5406:5409   */\n      dup4\n        /* \"#utility.yul\":5347:5414   */\n      tag_164\n      jump\t// in\n    tag_181:\n        /* \"#utility.yul\":5340:5414   */\n      swap2\n      pop\n        /* \"#utility.yul\":5423:5516   */\n      tag_182\n        /* \"#utility.yul\":5512:5515   */\n      dup3\n        /* \"#utility.yul\":5423:5516   */\n      tag_183\n      jump\t// in\n    tag_182:\n        /* \"#utility.yul\":5541:5543   */\n      0x20\n        /* \"#utility.yul\":5536:5539   */\n      dup3\n        /* \"#utility.yul\":5532:5544   */\n      add\n        /* \"#utility.yul\":5525:5544   */\n      swap1\n      pop\n        /* \"#utility.yul\":5184:5550   */\n      swap2\n      swap1\n      pop\n      jump\t// out\n        /* \"#utility.yul\":5556:5922   */\n    tag_184:\n        /* \"#utility.yul\":5698:5701   */\n      0x00\n        /* \"#utility.yul\":5719:5786   */\n      tag_186\n        /* \"#utility.yul\":5783:5785   */\n      0x17\n        /* \"#utility.yul\":5778:5781   */\n      dup4\n        /* \"#utility.yul\":5719:5786   */\n      tag_164\n      jump\t// in\n    tag_186:\n        /* \"#utility.yul\":5712:5786   */\n      swap2\n      pop\n        /* \"#utility.yul\":5795:5888   */\n      tag_187\n        /* \"#utility.yul\":5884:5887   */\n      dup3\n        /* \"#utility.yul\":5795:5888   */\n      tag_188\n      jump\t// in\n    tag_187:\n        /* \"#utility.yul\":5913:5915   */\n      0x20\n        /* \"#utility.yul\":5908:5911   */\n      dup3\n        /* \"#utility.yul\":5904:5916   */\n      add\n        /* \"#utility.yul\":5897:5916   */\n      swap1\n      pop\n        /* \"#utility.yul\":5556:5922   */\n      swap2\n      swap1\n      pop\n      jump\t// out\n        /* \"#utility.yul\":5928:6294   */\n    tag_189:\n        /* \"#utility.yul\":6070:6073   */\n      0x00\n        /* \"#utility.yul\":6091:6158   */\n      tag_191\n        /* \"#utility.yul\":6155:6157   */\n      0x15\n        /* \"#utility.yul\":6150:6153   */\n      dup4\n        /* \"#utility.yul\":6091:6158   */\n      tag_164\n      jump\t// in\n    tag_191:\n        /* \"#utility.yul\":6084:6158   */\n      swap2\n      pop\n        /* \"#utility.yul\":6167:6260   */\n      tag_192\n        /* \"#utility.yul\":6256:6259   */\n      dup3\n        /* \"#utility.yul\":6167:6260   */\n      tag_193\n      jump\t// in\n    tag_192:\n        /* \"#utility.yul\":6285:6287   */\n      0x20\n        /* \"#utility.yul\":6280:6283   */\n      dup3\n        /* \"#utility.yul\":6276:6288   */\n      add\n        /* \"#utility.yul\":6269:6288   */\n      swap1\n      pop\n        /* \"#utility.yul\":5928:6294   */\n      swap2\n      swap1\n      pop\n      jump\t// out\n        /* \"#utility.yul\":6300:6666   */\n    tag_194:\n        /* \"#utility.yul\":6442:6445   */\n      0x00\n        /* \"#utility.yul\":6463:6530   */\n      tag_196\n        /* \"#utility.yul\":6527:6529   */\n      0x1d\n        /* \"#utility.yul\":6522:6525   */\n      dup4\n        /* \"#utility.yul\":6463:6530   */\n      tag_164\n      jump\t// in\n    tag_196:\n        /* \"#utility.yul\":6456:6530   */\n      swap2\n      pop\n        /* \"#utility.yul\":6539:6632   */\n      tag_197\n        /* \"#utility.yul\":6628:6631   */\n      dup3\n        /* \"#utility.yul\":6539:6632   */\n      tag_198\n      jump\t// in\n    tag_197:\n        /* \"#utility.yul\":6657:6659   */\n      0x20\n        /* \"#utility.yul\":6652:6655   */\n      dup3\n        /* \"#utility.yul\":6648:6660   */\n      add\n        /* \"#utility.yul\":6641:6660   */\n      swap1\n      pop\n        /* \"#utility.yul\":6300:6666   */\n      swap2\n      swap1\n      pop\n      jump\t// out\n        /* \"#utility.yul\":6672:7038   */\n    tag_199:\n        /* \"#utility.yul\":6814:6817   */\n      0x00\n        /* \"#utility.yul\":6835:6902   */\n      tag_201\n        /* \"#utility.yul\":6899:6901   */\n      0x21\n        /* \"#utility.yul\":6894:6897   */\n      dup4\n        /* \"#utility.yul\":6835:6902   */\n      tag_164\n      jump\t// in\n    tag_201:\n        /* \"#utility.yul\":6828:6902   */\n      swap2\n      pop\n        /* \"#utility.yul\":6911:7004   */\n      tag_202\n        /* \"#utility.yul\":7000:7003   */\n      dup3\n        /* \"#utility.yul\":6911:7004   */\n      tag_203\n      jump\t// in\n    tag_202:\n        /* \"#utility.yul\":7029:7031   */\n      0x40\n        /* \"#utility.yul\":7024:7027   */\n      dup3\n        /* \"#utility.yul\":7020:7032   */\n      add\n        /* \"#utility.yul\":7013:7032   */\n      swap1\n      pop\n        /* \"#utility.yul\":6672:7038   */\n      swap2\n      swap1\n      pop\n      jump\t// out\n        /* \"#utility.yul\":7044:7410   */\n    tag_204:\n        /* \"#utility.yul\":7186:7189   */\n      0x00\n        /* \"#utility.yul\":7207:7274   */\n      tag_206\n        /* \"#utility.yul\":7271:7273   */\n      0x22\n        /* \"#utility.yul\":7266:7269   */\n      dup4\n        /* \"#utility.yul\":7207:7274   */\n      tag_164\n      jump\t// in\n    tag_206:\n        /* \"#utility.yul\":7200:7274   */\n      swap2\n      pop\n        /* \"#utility.yul\":7283:7376   */\n      tag_207\n        /* \"#utility.yul\":7372:7375   */\n      dup3\n        /* \"#utility.yul\":7283:7376   */\n      tag_208\n      jump\t// in\n    tag_207:\n        /* \"#utility.yul\":7401:7403   */\n      0x40\n        /* \"#utility.yul\":7396:7399   */\n      dup3\n        /* \"#utility.yul\":7392:7404   */\n      add\n        /* \"#utility.yul\":7385:7404   */\n      swap1\n      pop\n        /* \"#utility.yul\":7044:7410   */\n      swap2\n      swap1\n      pop\n      jump\t// out\n        /* \"#utility.yul\":7416:7534   */\n    tag_209:\n        /* \"#utility.yul\":7503:7527   */\n      tag_211\n        /* \"#utility.yul\":7521:7526   */\n      dup2\n        /* \"#utility.yul\":7503:7527   */\n      tag_212\n      jump\t// in\n    tag_211:\n        /* \"#utility.yul\":7498:7501   */\n      dup3\n        /* \"#utility.yul\":7491:7528   */\n      mstore\n        /* \"#utility.yul\":7416:7534   */\n      pop\n      pop\n      jump\t// out\n        /* \"#utility.yul\":7540:8406   */\n    tag_14:\n        /* \"#utility.yul\":7793:7797   */\n      0x00\n        /* \"#utility.yul\":7831:7834   */\n      0xc0\n        /* \"#utility.yul\":7820:7829   */\n      dup3\n        /* \"#utility.yul\":7816:7835   */\n      add\n        /* \"#utility.yul\":7808:7835   */\n      swap1\n      pop\n        /* \"#utility.yul\":7845:7916   */\n      tag_214\n        /* \"#utility.yul\":7913:7914   */\n      0x00\n        /* \"#utility.yul\":7902:7911   */\n      dup4\n        /* \"#utility.yul\":7898:7915   */\n      add\n        /* \"#utility.yul\":7889:7895   */\n      dup10\n        /* \"#utility.yul\":7845:7916   */\n      tag_155\n      jump\t// in\n    tag_214:\n        /* \"#utility.yul\":7926:7998   */\n      tag_215\n        /* \"#utility.yul\":7994:7996   */\n      0x20\n        /* \"#utility.yul\":7983:7992   */\n      dup4\n        /* \"#utility.yul\":7979:7997   */\n      add\n        /* \"#utility.yul\":7970:7976   */\n      dup9\n        /* \"#utility.yul\":7926:7998   */\n      tag_209\n      jump\t// in\n    tag_215:\n        /* \"#utility.yul\":8045:8054   */\n      dup2\n        /* \"#utility.yul\":8039:8043   */\n      dup2\n        /* \"#utility.yul\":8035:8055   */\n      sub\n        /* \"#utility.yul\":8030:8032   */\n      0x40\n        /* \"#utility.yul\":8019:8028   */\n      dup4\n        /* \"#utility.yul\":8015:8033   */\n      add\n        /* \"#utility.yul\":8008:8056   */\n      mstore\n        /* \"#utility.yul\":8073:8151   */\n      tag_216\n        /* \"#utility.yul\":8146:8150   */\n      dup2\n        /* \"#utility.yul\":8137:8143   */\n      dup8\n        /* \"#utility.yul\":8073:8151   */\n      tag_159\n      jump\t// in\n    tag_216:\n        /* \"#utility.yul\":8065:8151   */\n      swap1\n      pop\n        /* \"#utility.yul\":8161:8233   */\n      tag_217\n        /* \"#utility.yul\":8229:8231   */\n      0x60\n        /* \"#utility.yul\":8218:8227   */\n      dup4\n        /* \"#utility.yul\":8214:8232   */\n      add\n        /* \"#utility.yul\":8205:8211   */\n      dup7\n        /* \"#utility.yul\":8161:8233   */\n      tag_209\n      jump\t// in\n    tag_217:\n        /* \"#utility.yul\":8243:8316   */\n      tag_218\n        /* \"#utility.yul\":8311:8314   */\n      0x80\n        /* \"#utility.yul\":8300:8309   */\n      dup4\n        /* \"#utility.yul\":8296:8315   */\n      add\n        /* \"#utility.yul\":8287:8293   */\n      dup6\n        /* \"#utility.yul\":8243:8316   */\n      tag_209\n      jump\t// in\n    tag_218:\n        /* \"#utility.yul\":8326:8399   */\n      tag_219\n        /* \"#utility.yul\":8394:8397   */\n      0xa0\n        /* \"#utility.yul\":8383:8392   */\n      dup4\n        /* \"#utility.yul\":8379:8398   */\n      add\n        /* \"#utility.yul\":8370:8376   */\n      dup5\n        /* \"#utility.yul\":8326:8399   */\n      tag_209\n      jump\t// in\n    tag_219:\n        /* \"#utility.yul\":7540:8406   */\n      swap8\n      swap7\n      pop\n      pop\n      pop\n      pop\n      pop\n      pop\n      pop\n      jump\t// out\n        /* \"#utility.yul\":8412:8831   */\n    tag_58:\n        /* \"#utility.yul\":8578:8582   */\n      0x00\n        /* \"#utility.yul\":8616:8618   */\n      0x20\n        /* \"#utility.yul\":8605:8614   */\n      dup3\n        /* \"#utility.yul\":8601:8619   */\n      add\n        /* \"#utility.yul\":8593:8619   */\n      swap1\n      pop\n        /* \"#utility.yul\":8665:8674   */\n      dup2\n        /* \"#utility.yul\":8659:8663   */\n      dup2\n        /* \"#utility.yul\":8655:8675   */\n      sub\n        /* \"#utility.yul\":8651:8652   */\n      0x00\n        /* \"#utility.yul\":8640:8649   */\n      dup4\n        /* \"#utility.yul\":8636:8653   */\n      add\n        /* \"#utility.yul\":8629:8676   */\n      mstore\n        /* \"#utility.yul\":8693:8824   */\n      tag_221\n        /* \"#utility.yul\":8819:8823   */\n      dup2\n        /* \"#utility.yul\":8693:8824   */\n      tag_169\n      jump\t// in\n    tag_221:\n        /* \"#utility.yul\":8685:8824   */\n      swap1\n      pop\n        /* \"#utility.yul\":8412:8831   */\n      swap2\n      swap1\n      pop\n      jump\t// out\n        /* \"#utility.yul\":8837:9256   */\n    tag_74:\n        /* \"#utility.yul\":9003:9007   */\n      0x00\n        /* \"#utility.yul\":9041:9043   */\n      0x20\n        /* \"#utility.yul\":9030:9039   */\n      dup3\n        /* \"#utility.yul\":9026:9044   */\n      add\n        /* \"#utility.yul\":9018:9044   */\n      swap1\n      pop\n        /* \"#utility.yul\":9090:9099   */\n      dup2\n        /* \"#utility.yul\":9084:9088   */\n      dup2\n        /* \"#utility.yul\":9080:9100   */\n      sub\n        /* \"#utility.yul\":9076:9077   */\n      0x00\n        /* \"#utility.yul\":9065:9074   */\n      dup4\n        /* \"#utility.yul\":9061:9078   */\n      add\n        /* \"#utility.yul\":9054:9101   */\n      mstore\n        /* \"#utility.yul\":9118:9249   */\n      tag_223\n        /* \"#utility.yul\":9244:9248   */\n      dup2\n        /* \"#utility.yul\":9118:9249   */\n      tag_174\n      jump\t// in\n    tag_223:\n        /* \"#utility.yul\":9110:9249   */\n      swap1\n      pop\n        /* \"#utility.yul\":8837:9256   */\n      swap2\n      swap1\n      pop\n      jump\t// out\n        /* \"#utility.yul\":9262:9681   */\n    tag_71:\n        /* \"#utility.yul\":9428:9432   */\n      0x00\n        /* \"#utility.yul\":9466:9468   */\n      0x20\n        /* \"#utility.yul\":9455:9464   */\n      dup3\n        /* \"#utility.yul\":9451:9469   */\n      add\n        /* \"#utility.yul\":9443:9469   */\n      swap1\n      pop\n        /* \"#utility.yul\":9515:9524   */\n      dup2\n        /* \"#utility.yul\":9509:9513   */\n      dup2\n        /* \"#utility.yul\":9505:9525   */\n      sub\n        /* \"#utility.yul\":9501:9502   */\n      0x00\n        /* \"#utility.yul\":9490:9499   */\n      dup4\n        /* \"#utility.yul\":9486:9503   */\n      add\n        /* \"#utility.yul\":9479:9526   */\n      mstore\n        /* \"#utility.yul\":9543:9674   */\n      tag_225\n        /* \"#utility.yul\":9669:9673   */\n      dup2\n        /* \"#utility.yul\":9543:9674   */\n      tag_179\n      jump\t// in\n    tag_225:\n        /* \"#utility.yul\":9535:9674   */\n      swap1\n      pop\n        /* \"#utility.yul\":9262:9681   */\n      swap2\n      swap1\n      pop\n      jump\t// out\n        /* \"#utility.yul\":9687:10106   */\n    tag_53:\n        /* \"#utility.yul\":9853:9857   */\n      0x00\n        /* \"#utility.yul\":9891:9893   */\n      0x20\n        /* \"#utility.yul\":9880:9889   */\n      dup3\n        /* \"#utility.yul\":9876:9894   */\n      add\n        /* \"#utility.yul\":9868:9894   */\n      swap1\n      pop\n        /* \"#utility.yul\":9940:9949   */\n      dup2\n        /* \"#utility.yul\":9934:9938   */\n      dup2\n        /* \"#utility.yul\":9930:9950   */\n      sub\n        /* \"#utility.yul\":9926:9927   */\n      0x00\n        /* \"#utility.yul\":9915:9924   */\n      dup4\n        /* \"#utility.yul\":9911:9928   */\n      add\n        /* \"#utility.yul\":9904:9951   */\n      mstore\n        /* \"#utility.yul\":9968:10099   */\n      tag_227\n        /* \"#utility.yul\":10094:10098   */\n      dup2\n        /* \"#utility.yul\":9968:10099   */\n      tag_184\n      jump\t// in\n    tag_227:\n        /* \"#utility.yul\":9960:10099   */\n      swap1\n      pop\n        /* \"#utility.yul\":9687:10106   */\n      swap2\n      swap1\n      pop\n      jump\t// out\n        /* \"#utility.yul\":10112:10531   */\n    tag_50:\n        /* \"#utility.yul\":10278:10282   */\n      0x00\n        /* \"#utility.yul\":10316:10318   */\n      0x20\n        /* \"#utility.yul\":10305:10314   */\n      dup3\n        /* \"#utility.yul\":10301:10319   */\n      add\n        /* \"#utility.yul\":10293:10319   */\n      swap1\n      pop\n        /* \"#utility.yul\":10365:10374   */\n      dup2\n        /* \"#utility.yul\":10359:10363   */\n      dup2\n        /* \"#utility.yul\":10355:10375   */\n      sub\n        /* \"#utility.yul\":10351:10352   */\n      0x00\n        /* \"#utility.yul\":10340:10349   */\n      dup4\n        /* \"#utility.yul\":10336:10353   */\n      add\n        /* \"#utility.yul\":10329:10376   */\n      mstore\n        /* \"#utility.yul\":10393:10524   */\n      tag_229\n        /* \"#utility.yul\":10519:10523   */\n      dup2\n        /* \"#utility.yul\":10393:10524   */\n      tag_189\n      jump\t// in\n    tag_229:\n        /* \"#utility.yul\":10385:10524   */\n      swap1\n      pop\n        /* \"#utility.yul\":10112:10531   */\n      swap2\n      swap1\n      pop\n      jump\t// out\n        /* \"#utility.yul\":10537:10956   */\n    tag_61:\n        /* \"#utility.yul\":10703:10707   */\n      0x00\n        /* \"#utility.yul\":10741:10743   */\n      0x20\n        /* \"#utility.yul\":10730:10739   */\n      dup3\n        /* \"#utility.yul\":10726:10744   */\n      add\n        /* \"#utility.yul\":10718:10744   */\n      swap1\n      pop\n        /* \"#utility.yul\":10790:10799   */\n      dup2\n        /* \"#utility.yul\":10784:10788   */\n      dup2\n        /* \"#utility.yul\":10780:10800   */\n      sub\n        /* \"#utility.yul\":10776:10777   */\n      0x00\n        /* \"#utility.yul\":10765:10774   */\n      dup4\n        /* \"#utility.yul\":10761:10778   */\n      add\n        /* \"#utility.yul\":10754:10801   */\n      mstore\n        /* \"#utility.yul\":10818:10949   */\n      tag_231\n        /* \"#utility.yul\":10944:10948   */\n      dup2\n        /* \"#utility.yul\":10818:10949   */\n      tag_194\n      jump\t// in\n    tag_231:\n        /* \"#utility.yul\":10810:10949   */\n      swap1\n      pop\n        /* \"#utility.yul\":10537:10956   */\n      swap2\n      swap1\n      pop\n      jump\t// out\n        /* \"#utility.yul\":10962:11381   */\n    tag_83:\n        /* \"#utility.yul\":11128:11132   */\n      0x00\n        /* \"#utility.yul\":11166:11168   */\n      0x20\n        /* \"#utility.yul\":11155:11164   */\n      dup3\n        /* \"#utility.yul\":11151:11169   */\n      add\n        /* \"#utility.yul\":11143:11169   */\n      swap1\n      pop\n        /* \"#utility.yul\":11215:11224   */\n      dup2\n        /* \"#utility.yul\":11209:11213   */\n      dup2\n        /* \"#utility.yul\":11205:11225   */\n      sub\n        /* \"#utility.yul\":11201:11202   */\n      0x00\n        /* \"#utility.yul\":11190:11199   */\n      dup4\n        /* \"#utility.yul\":11186:11203   */\n      add\n        /* \"#utility.yul\":11179:11226   */\n      mstore\n        /* \"#utility.yul\":11243:11374   */\n      tag_233\n        /* \"#utility.yul\":11369:11373   */\n      dup2\n        /* \"#utility.yul\":11243:11374   */\n      tag_199\n      jump\t// in\n    tag_233:\n        /* \"#utility.yul\":11235:11374   */\n      swap1\n      pop\n        /* \"#utility.yul\":10962:11381   */\n      swap2\n      swap1\n      pop\n      jump\t// out\n        /* \"#utility.yul\":11387:11806   */\n    tag_80:\n        /* \"#utility.yul\":11553:11557   */\n      0x00\n        /* \"#utility.yul\":11591:11593   */\n      0x20\n        /* \"#utility.yul\":11580:11589   */\n      dup3\n        /* \"#utility.yul\":11576:11594   */\n      add\n        /* \"#utility.yul\":11568:11594   */\n      swap1\n      pop\n        /* \"#utility.yul\":11640:11649   */\n      dup2\n        /* \"#utility.yul\":11634:11638   */\n      dup2\n        /* \"#utility.yul\":11630:11650   */\n      sub\n        /* \"#utility.yul\":11626:11627   */\n      0x00\n        /* \"#utility.yul\":11615:11624   */\n      dup4\n        /* \"#utility.yul\":11611:11628   */\n      add\n        /* \"#utility.yul\":11604:11651   */\n      mstore\n        /* \"#utility.yul\":11668:11799   */\n      tag_235\n        /* \"#utility.yul\":11794:11798   */\n      dup2\n        /* \"#utility.yul\":11668:11799   */\n      tag_204\n      jump\t// in\n    tag_235:\n        /* \"#utility.yul\":11660:11799   */\n      swap1\n      pop\n        /* \"#utility.yul\":11387:11806   */\n      swap2\n      swap1\n      pop\n      jump\t// out\n        /* \"#utility.yul\":11812:12034   */\n    tag_20:\n        /* \"#utility.yul\":11905:11909   */\n      0x00\n        /* \"#utility.yul\":11943:11945   */\n      0x20\n        /* \"#utility.yul\":11932:11941   */\n      dup3\n        /* \"#utility.yul\":11928:11946   */\n      add\n        /* \"#utility.yul\":11920:11946   */\n      swap1\n      pop\n        /* \"#utility.yul\":11956:12027   */\n      tag_237\n        /* \"#utility.yul\":12024:12025   */\n      0x00\n        /* \"#utility.yul\":12013:12022   */\n      dup4\n        /* \"#utility.yul\":12009:12026   */\n      add\n        /* \"#utility.yul\":12000:12006   */\n      dup5\n        /* \"#utility.yul\":11956:12027   */\n      tag_209\n      jump\t// in\n    tag_237:\n        /* \"#utility.yul\":11812:12034   */\n      swap3\n      swap2\n      pop\n      pop\n      jump\t// out\n        /* \"#utility.yul\":12040:12169   */\n    tag_104:\n        /* \"#utility.yul\":12074:12080   */\n      0x00\n        /* \"#utility.yul\":12101:12121   */\n      tag_239\n      tag_240\n      jump\t// in\n    tag_239:\n        /* \"#utility.yul\":12091:12121   */\n      swap1\n      pop\n        /* \"#utility.yul\":12130:12163   */\n      tag_241\n        /* \"#utility.yul\":12158:12162   */\n      dup3\n        /* \"#utility.yul\":12150:12156   */\n      dup3\n        /* \"#utility.yul\":12130:12163   */\n      tag_242\n      jump\t// in\n    tag_241:\n        /* \"#utility.yul\":12040:12169   */\n      swap2\n      swap1\n      pop\n      jump\t// out\n        /* \"#utility.yul\":12175:12250   */\n    tag_240:\n        /* \"#utility.yul\":12208:12214   */\n      0x00\n        /* \"#utility.yul\":12241:12243   */\n      0x40\n        /* \"#utility.yul\":12235:12244   */\n      mload\n        /* \"#utility.yul\":12225:12244   */\n      swap1\n      pop\n        /* \"#utility.yul\":12175:12250   */\n      swap1\n      jump\t// out\n        /* \"#utility.yul\":12256:12564   */\n    tag_103:\n        /* \"#utility.yul\":12318:12322   */\n      0x00\n        /* \"#utility.yul\":12408:12426   */\n      0xffffffffffffffff\n        /* \"#utility.yul\":12400:12406   */\n      dup3\n        /* \"#utility.yul\":12397:12427   */\n      gt\n        /* \"#utility.yul\":12394:12450   */\n      iszero\n      tag_245\n      jumpi\n        /* \"#utility.yul\":12430:12448   */\n      tag_246\n      tag_247\n      jump\t// in\n    tag_246:\n        /* \"#utility.yul\":12394:12450   */\n    tag_245:\n        /* \"#utility.yul\":12468:12497   */\n      tag_248\n        /* \"#utility.yul\":12490:12496   */\n      dup3\n        /* \"#utility.yul\":12468:12497   */\n      tag_168\n      jump\t// in\n    tag_248:\n        /* \"#utility.yul\":12460:12497   */\n      swap1\n      pop\n        /* \"#utility.yul\":12552:12556   */\n      0x20\n        /* \"#utility.yul\":12546:12550   */\n      dup2\n        /* \"#utility.yul\":12542:12557   */\n      add\n        /* \"#utility.yul\":12534:12557   */\n      swap1\n      pop\n        /* \"#utility.yul\":12256:12564   */\n      swap2\n      swap1\n      pop\n      jump\t// out\n        /* \"#utility.yul\":12570:12669   */\n    tag_162:\n        /* \"#utility.yul\":12622:12628   */\n      0x00\n        /* \"#utility.yul\":12656:12661   */\n      dup2\n        /* \"#utility.yul\":12650:12662   */\n      mload\n        /* \"#utility.yul\":12640:12662   */\n      swap1\n      pop\n        /* \"#utility.yul\":12570:12669   */\n      swap2\n      swap1\n      pop\n      jump\t// out\n        /* \"#utility.yul\":12675:12844   */\n    tag_164:\n        /* \"#utility.yul\":12759:12770   */\n      0x00\n        /* \"#utility.yul\":12793:12799   */\n      dup3\n        /* \"#utility.yul\":12788:12791   */\n      dup3\n        /* \"#utility.yul\":12781:12800   */\n      mstore\n        /* \"#utility.yul\":12833:12837   */\n      0x20\n        /* \"#utility.yul\":12828:12831   */\n      dup3\n        /* \"#utility.yul\":12824:12838   */\n      add\n        /* \"#utility.yul\":12809:12838   */\n      swap1\n      pop\n        /* \"#utility.yul\":12675:12844   */\n      swap3\n      swap2\n      pop\n      pop\n      jump\t// out\n        /* \"#utility.yul\":12850:13155   */\n    tag_65:\n        /* \"#utility.yul\":12890:12893   */\n      0x00\n        /* \"#utility.yul\":12909:12929   */\n      tag_252\n        /* \"#utility.yul\":12927:12928   */\n      dup3\n        /* \"#utility.yul\":12909:12929   */\n      tag_212\n      jump\t// in\n    tag_252:\n        /* \"#utility.yul\":12904:12929   */\n      swap2\n      pop\n        /* \"#utility.yul\":12943:12963   */\n      tag_253\n        /* \"#utility.yul\":12961:12962   */\n      dup4\n        /* \"#utility.yul\":12943:12963   */\n      tag_212\n      jump\t// in\n    tag_253:\n        /* \"#utility.yul\":12938:12963   */\n      swap3\n      pop\n        /* \"#utility.yul\":13097:13098   */\n      dup3\n        /* \"#utility.yul\":13029:13095   */\n      0xffffffffffffffffffffffffffffffffffffffffffffffffffffffffffffffff\n        /* \"#utility.yul\":13025:13099   */\n      sub\n        /* \"#utility.yul\":13022:13023   */\n      dup3\n        /* \"#utility.yul\":13019:13100   */\n      gt\n        /* \"#utility.yul\":13016:13123   */\n      iszero\n      tag_254\n      jumpi\n        /* \"#utility.yul\":13103:13121   */\n      tag_255\n      tag_256\n      jump\t// in\n    tag_255:\n        /* \"#utility.yul\":13016:13123   */\n    tag_254:\n        /* \"#utility.yul\":13147:13148   */\n      dup3\n        /* \"#utility.yul\":13144:13145   */\n      dup3\n        /* \"#utility.yul\":13140:13149   */\n      add\n        /* \"#utility.yul\":13133:13149   */\n      swap1\n      pop\n        /* \"#utility.yul\":12850:13155   */\n      swap3\n      swap2\n      pop\n      pop\n      jump\t// out\n        /* \"#utility.yul\":13161:13509   */\n    tag_55:\n        /* \"#utility.yul\":13201:13208   */\n      0x00\n        /* \"#utility.yul\":13224:13244   */\n      tag_258\n        /* \"#utility.yul\":13242:13243   */\n      dup3\n        /* \"#utility.yul\":13224:13244   */\n      tag_212\n      jump\t// in\n    tag_258:\n        /* \"#utility.yul\":13219:13244   */\n      swap2\n      pop\n        /* \"#utility.yul\":13258:13278   */\n      tag_259\n        /* \"#utility.yul\":13276:13277   */\n      dup4\n        /* \"#utility.yul\":13258:13278   */\n      tag_212\n      jump\t// in\n    tag_259:\n        /* \"#utility.yul\":13253:13278   */\n      swap3\n      pop\n        /* \"#utility.yul\":13446:13447   */\n      dup2\n        /* \"#utility.yul\":13378:13444   */\n      0xffffffffffffffffffffffffffffffffffffffffffffffffffffffffffffffff\n        /* \"#utility.yul\":13374:13448   */\n      div\n        /* \"#utility.yul\":13371:13372   */\n      dup4\n        /* \"#utility.yul\":13368:13449   */\n      gt\n        /* \"#utility.yul\":13363:13364   */\n      dup3\n        /* \"#utility.yul\":13356:13365   */\n      iszero\n        /* \"#utility.yul\":13349:13366   */\n      iszero\n        /* \"#utility.yul\":13345:13450   */\n      and\n        /* \"#utility.yul\":13342:13473   */\n      iszero\n      tag_260\n      jumpi\n        /* \"#utility.yul\":13453:13471   */\n      tag_261\n      tag_256\n      jump\t// in\n    tag_261:\n        /* \"#utility.yul\":13342:13473   */\n    tag_260:\n        /* \"#utility.yul\":13501:13502   */\n      dup3\n        /* \"#utility.yul\":13498:13499   */\n      dup3\n        /* \"#utility.yul\":13494:13503   */\n      mul\n        /* \"#utility.yul\":13483:13503   */\n      swap1\n      pop\n        /* \"#utility.yul\":13161:13509   */\n      swap3\n      swap2\n      pop\n      pop\n      jump\t// out\n        /* \"#utility.yul\":13515:13706   */\n    tag_63:\n        /* \"#utility.yul\":13555:13559   */\n      0x00\n        /* \"#utility.yul\":13575:13595   */\n      tag_263\n        /* \"#utility.yul\":13593:13594   */\n      dup3\n        /* \"#utility.yul\":13575:13595   */\n      tag_212\n      jump\t// in\n    tag_263:\n        /* \"#utility.yul\":13570:13595   */\n      swap2\n      pop\n        /* \"#utility.yul\":13609:13629   */\n      tag_264\n        /* \"#utility.yul\":13627:13628   */\n      dup4\n        /* \"#utility.yul\":13609:13629   */\n      tag_212\n      jump\t// in\n    tag_264:\n        /* \"#utility.yul\":13604:13629   */\n      swap3\n      pop\n        /* \"#utility.yul\":13648:13649   */\n      dup3\n        /* \"#utility.yul\":13645:13646   */\n      dup3\n        /* \"#utility.yul\":13642:13650   */\n      lt\n        /* \"#utility.yul\":13639:13673   */\n      iszero\n      tag_265\n      jumpi\n        /* \"#utility.yul\":13653:13671   */\n      tag_266\n      tag_256\n      jump\t// in\n    tag_266:\n        /* \"#utility.yul\":13639:13673   */\n    tag_265:\n        /* \"#utility.yul\":13698:13699   */\n      dup3\n        /* \"#utility.yul\":13695:13696   */\n      dup3\n        /* \"#utility.yul\":13691:13700   */\n      sub\n        /* \"#utility.yul\":13683:13700   */\n      swap1\n      pop\n        /* \"#utility.yul\":13515:13706   */\n      swap3\n      swap2\n      pop\n      pop\n      jump\t// out\n        /* \"#utility.yul\":13712:13808   */\n    tag_158:\n        /* \"#utility.yul\":13749:13756   */\n      0x00\n        /* \"#utility.yul\":13778:13802   */\n      tag_268\n        /* \"#utility.yul\":13796:13801   */\n      dup3\n        /* \"#utility.yul\":13778:13802   */\n      tag_269\n      jump\t// in\n    tag_268:\n        /* \"#utility.yul\":13767:13802   */\n      swap1\n      pop\n        /* \"#utility.yul\":13712:13808   */\n      swap2\n      swap1\n      pop\n      jump\t// out\n        /* \"#utility.yul\":13814:13940   */\n    tag_269:\n        /* \"#utility.yul\":13851:13858   */\n      0x00\n        /* \"#utility.yul\":13891:13933   */\n      0xffffffffffffffffffffffffffffffffffffffff\n        /* \"#utility.yul\":13884:13889   */\n      dup3\n        /* \"#utility.yul\":13880:13934   */\n      and\n        /* \"#utility.yul\":13869:13934   */\n      swap1\n      pop\n        /* \"#utility.yul\":13814:13940   */\n      swap2\n      swap1\n      pop\n      jump\t// out\n        /* \"#utility.yul\":13946:14023   */\n    tag_212:\n        /* \"#utility.yul\":13983:13990   */\n      0x00\n        /* \"#utility.yul\":14012:14017   */\n      dup2\n        /* \"#utility.yul\":14001:14017   */\n      swap1\n      pop\n        /* \"#utility.yul\":13946:14023   */\n      swap2\n      swap1\n      pop\n      jump\t// out\n        /* \"#utility.yul\":14029:14183   */\n    tag_109:\n        /* \"#utility.yul\":14113:14119   */\n      dup3\n        /* \"#utility.yul\":14108:14111   */\n      dup2\n        /* \"#utility.yul\":14103:14106   */\n      dup4\n        /* \"#utility.yul\":14090:14120   */\n      calldatacopy\n        /* \"#utility.yul\":14175:14176   */\n      0x00\n        /* \"#utility.yul\":14166:14172   */\n      dup4\n        /* \"#utility.yul\":14161:14164   */\n      dup4\n        /* \"#utility.yul\":14157:14173   */\n      add\n        /* \"#utility.yul\":14150:14177   */\n      mstore\n        /* \"#utility.yul\":14029:14183   */\n      pop\n      pop\n      pop\n      jump\t// out\n        /* \"#utility.yul\":14189:14496   */\n    tag_166:\n        /* \"#utility.yul\":14257:14258   */\n      0x00\n        /* \"#utility.yul\":14267:14380   */\n    tag_274:\n        /* \"#utility.yul\":14281:14287   */\n      dup4\n        /* \"#utility.yul\":14278:14279   */\n      dup2\n        /* \"#utility.yul\":14275:14288   */\n      lt\n        /* \"#utility.yul\":14267:14380   */\n      iszero\n      tag_276\n      jumpi\n        /* \"#utility.yul\":14366:14367   */\n      dup1\n        /* \"#utility.yul\":14361:14364   */\n      dup3\n        /* \"#utility.yul\":14357:14368   */\n      add\n        /* \"#utility.yul\":14351:14369   */\n      mload\n        /* \"#utility.yul\":14347:14348   */\n      dup2\n        /* \"#utility.yul\":14342:14345   */\n      dup5\n        /* \"#utility.yul\":14338:14349   */\n      add\n        /* \"#utility.yul\":14331:14370   */\n      mstore\n        /* \"#utility.yul\":14303:14305   */\n      0x20\n        /* \"#utility.yul\":14300:14301   */\n      dup2\n        /* \"#utility.yul\":14296:14306   */\n      add\n        /* \"#utility.yul\":14291:14306   */\n      swap1\n      pop\n        /* \"#utility.yul\":14267:14380   */\n      jump(tag_274)\n    tag_276:\n        /* \"#utility.yul\":14398:14404   */\n      dup4\n        /* \"#utility.yul\":14395:14396   */\n      dup2\n        /* \"#utility.yul\":14392:14405   */\n      gt\n        /* \"#utility.yul\":14389:14490   */\n      iszero\n      tag_277\n      jumpi\n        /* \"#utility.yul\":14478:14479   */\n      0x00\n        /* \"#utility.yul\":14469:14475   */\n      dup5\n        /* \"#utility.yul\":14464:14467   */\n      dup5\n        /* \"#utility.yul\":14460:14476   */\n      add\n        /* \"#utility.yul\":14453:14480   */\n      mstore\n        /* \"#utility.yul\":14389:14490   */\n    tag_277:\n        /* \"#utility.yul\":14238:14496   */\n      pop\n        /* \"#utility.yul\":14189:14496   */\n      pop\n      pop\n      pop\n      jump\t// out\n        /* \"#utility.yul\":14502:14822   */\n    tag_42:\n        /* \"#utility.yul\":14546:14552   */\n      0x00\n        /* \"#utility.yul\":14583:14584   */\n      0x02\n        /* \"#utility.yul\":14577:14581   */\n      dup3\n        /* \"#utility.yul\":14573:14585   */\n      div\n        /* \"#utility.yul\":14563:14585   */\n      swap1\n      pop\n        /* \"#utility.yul\":14630:14631   */\n      0x01\n        /* \"#utility.yul\":14624:14628   */\n      dup3\n        /* \"#utility.yul\":14620:14632   */\n      and\n        /* \"#utility.yul\":14651:14669   */\n      dup1\n        /* \"#utility.yul\":14641:14722   */\n      tag_279\n      jumpi\n        /* \"#utility.yul\":14707:14711   */\n      0x7f\n        /* \"#utility.yul\":14699:14705   */\n      dup3\n        /* \"#utility.yul\":14695:14712   */\n      and\n        /* \"#utility.yul\":14685:14712   */\n      swap2\n      pop\n        /* \"#utility.yul\":14641:14722   */\n    tag_279:\n        /* \"#utility.yul\":14769:14771   */\n      0x20\n        /* \"#utility.yul\":14761:14767   */\n      dup3\n        /* \"#utility.yul\":14758:14772   */\n      lt\n        /* \"#utility.yul\":14738:14756   */\n      dup2\n        /* \"#utility.yul\":14735:14773   */\n      eq\n        /* \"#utility.yul\":14732:14816   */\n      iszero\n      tag_280\n      jumpi\n        /* \"#utility.yul\":14788:14806   */\n      tag_281\n      tag_282\n      jump\t// in\n    tag_281:\n        /* \"#utility.yul\":14732:14816   */\n    tag_280:\n        /* \"#utility.yul\":14553:14822   */\n      pop\n        /* \"#utility.yul\":14502:14822   */\n      swap2\n      swap1\n      pop\n      jump\t// out\n        /* \"#utility.yul\":14828:15109   */\n    tag_242:\n        /* \"#utility.yul\":14911:14938   */\n      tag_284\n        /* \"#utility.yul\":14933:14937   */\n      dup3\n        /* \"#utility.yul\":14911:14938   */\n      tag_168\n      jump\t// in\n    tag_284:\n        /* \"#utility.yul\":14903:14909   */\n      dup2\n        /* \"#utility.yul\":14899:14939   */\n      add\n        /* \"#utility.yul\":15041:15047   */\n      dup2\n        /* \"#utility.yul\":15029:15039   */\n      dup2\n        /* \"#utility.yul\":15026:15048   */\n      lt\n        /* \"#utility.yul\":15005:15023   */\n      0xffffffffffffffff\n        /* \"#utility.yul\":14993:15003   */\n      dup3\n        /* \"#utility.yul\":14990:15024   */\n      gt\n        /* \"#utility.yul\":14987:15049   */\n      or\n        /* \"#utility.yul\":14984:15072   */\n      iszero\n      tag_285\n      jumpi\n        /* \"#utility.yul\":15052:15070   */\n      tag_286\n      tag_247\n      jump\t// in\n    tag_286:\n        /* \"#utility.yul\":14984:15072   */\n    tag_285:\n        /* \"#utility.yul\":15092:15102   */\n      dup1\n        /* \"#utility.yul\":15088:15090   */\n      0x40\n        /* \"#utility.yul\":15081:15103   */\n      mstore\n        /* \"#utility.yul\":14871:15109   */\n      pop\n        /* \"#utility.yul\":14828:15109   */\n      pop\n      pop\n      jump\t// out\n        /* \"#utility.yul\":15115:15348   */\n    tag_87:\n        /* \"#utility.yul\":15154:15157   */\n      0x00\n        /* \"#utility.yul\":15177:15201   */\n      tag_288\n        /* \"#utility.yul\":15195:15200   */\n      dup3\n        /* \"#utility.yul\":15177:15201   */\n      tag_212\n      jump\t// in\n    tag_288:\n        /* \"#utility.yul\":15168:15201   */\n      swap2\n      pop\n        /* \"#utility.yul\":15223:15289   */\n      0xffffffffffffffffffffffffffffffffffffffffffffffffffffffffffffffff\n        /* \"#utility.yul\":15216:15221   */\n      dup3\n        /* \"#utility.yul\":15213:15290   */\n      eq\n        /* \"#utility.yul\":15210:15313   */\n      iszero\n      tag_289\n      jumpi\n        /* \"#utility.yul\":15293:15311   */\n      tag_290\n      tag_256\n      jump\t// in\n    tag_290:\n        /* \"#utility.yul\":15210:15313   */\n    tag_289:\n        /* \"#utility.yul\":15340:15341   */\n      0x01\n        /* \"#utility.yul\":15333:15338   */\n      dup3\n        /* \"#utility.yul\":15329:15342   */\n      add\n        /* \"#utility.yul\":15322:15342   */\n      swap1\n      pop\n        /* \"#utility.yul\":15115:15348   */\n      swap2\n      swap1\n      pop\n      jump\t// out\n        /* \"#utility.yul\":15354:15534   */\n    tag_256:\n        /* \"#utility.yul\":15402:15479   */\n      0x4e487b7100000000000000000000000000000000000000000000000000000000\n        /* \"#utility.yul\":15399:15400   */\n      0x00\n        /* \"#utility.yul\":15392:15480   */\n      mstore\n        /* \"#utility.yul\":15499:15503   */\n      0x11\n        /* \"#utility.yul\":15496:15497   */\n      0x04\n        /* \"#utility.yul\":15489:15504   */\n      mstore\n        /* \"#utility.yul\":15523:15527   */\n      0x24\n        /* \"#utility.yul\":15520:15521   */\n      0x00\n        /* \"#utility.yul\":15513:15528   */\n      revert\n        /* \"#utility.yul\":15540:15720   */\n    tag_282:\n        /* \"#utility.yul\":15588:15665   */\n      0x4e487b7100000000000000000000000000000000000000000000000000000000\n        /* \"#utility.yul\":15585:15586   */\n      0x00\n        /* \"#utility.yul\":15578:15666   */\n      mstore\n        /* \"#utility.yul\":15685:15689   */\n      0x22\n        /* \"#utility.yul\":15682:15683   */\n      0x04\n        /* \"#utility.yul\":15675:15690   */\n      mstore\n        /* \"#utility.yul\":15709:15713   */\n      0x24\n        /* \"#utility.yul\":15706:15707   */\n      0x00\n        /* \"#utility.yul\":15699:15714   */\n      revert\n        /* \"#utility.yul\":15726:15906   */\n    tag_247:\n        /* \"#utility.yul\":15774:15851   */\n      0x4e487b7100000000000000000000000000000000000000000000000000000000\n        /* \"#utility.yul\":15771:15772   */\n      0x00\n        /* \"#utility.yul\":15764:15852   */\n      mstore\n        /* \"#utility.yul\":15871:15875   */\n      0x41\n        /* \"#utility.yul\":15868:15869   */\n      0x04\n        /* \"#utility.yul\":15861:15876   */\n      mstore\n        /* \"#utility.yul\":15895:15899   */\n      0x24\n        /* \"#utility.yul\":15892:15893   */\n      0x00\n        /* \"#utility.yul\":15885:15900   */\n      revert\n        /* \"#utility.yul\":15912:16029   */\n    tag_118:\n        /* \"#utility.yul\":16021:16022   */\n      0x00\n        /* \"#utility.yul\":16018:16019   */\n      dup1\n        /* \"#utility.yul\":16011:16023   */\n      revert\n        /* \"#utility.yul\":16035:16152   */\n    tag_107:\n        /* \"#utility.yul\":16144:16145   */\n      0x00\n        /* \"#utility.yul\":16141:16142   */\n      dup1\n        /* \"#utility.yul\":16134:16146   */\n      revert\n        /* \"#utility.yul\":16158:16275   */\n    tag_140:\n        /* \"#utility.yul\":16267:16268   */\n      0x00\n        /* \"#utility.yul\":16264:16265   */\n      dup1\n        /* \"#utility.yul\":16257:16269   */\n      revert\n        /* \"#utility.yul\":16281:16398   */\n    tag_127:\n        /* \"#utility.yul\":16390:16391   */\n      0x00\n        /* \"#utility.yul\":16387:16388   */\n      dup1\n        /* \"#utility.yul\":16380:16392   */\n      revert\n        /* \"#utility.yul\":16404:16506   */\n    tag_168:\n        /* \"#utility.yul\":16445:16451   */\n      0x00\n        /* \"#utility.yul\":16496:16498   */\n      0x1f\n        /* \"#utility.yul\":16492:16499   */\n      not\n        /* \"#utility.yul\":16487:16489   */\n      0x1f\n        /* \"#utility.yul\":16480:16485   */\n      dup4\n        /* \"#utility.yul\":16476:16490   */\n      add\n        /* \"#utility.yul\":16472:16500   */\n      and\n        /* \"#utility.yul\":16462:16500   */\n      swap1\n      pop\n        /* \"#utility.yul\":16404:16506   */\n      swap2\n      swap1\n      pop\n      jump\t// out\n        /* \"#utility.yul\":16512:16683   */\n    tag_173:\n        /* \"#utility.yul\":16652:16675   */\n      0x457468657273206973206e6f7420656e6f756768210000000000000000000000\n        /* \"#utility.yul\":16648:16649   */\n      0x00\n        /* \"#utility.yul\":16640:16646   */\n      dup3\n        /* \"#utility.yul\":16636:16650   */\n      add\n        /* \"#utility.yul\":16629:16676   */\n      mstore\n        /* \"#utility.yul\":16512:16683   */\n      pop\n      jump\t// out\n        /* \"#utility.yul\":16689:16917   */\n    tag_178:\n        /* \"#utility.yul\":16829:16863   */\n      0x596f7520646f6e2774206861766520656e6f756768207469636b657420746f20\n        /* \"#utility.yul\":16825:16826   */\n      0x00\n        /* \"#utility.yul\":16817:16823   */\n      dup3\n        /* \"#utility.yul\":16813:16827   */\n      add\n        /* \"#utility.yul\":16806:16864   */\n      mstore\n        /* \"#utility.yul\":16898:16909   */\n      0x7472616e73666572210000000000000000000000000000000000000000000000\n        /* \"#utility.yul\":16893:16895   */\n      0x20\n        /* \"#utility.yul\":16885:16891   */\n      dup3\n        /* \"#utility.yul\":16881:16896   */\n      add\n        /* \"#utility.yul\":16874:16910   */\n      mstore\n        /* \"#utility.yul\":16689:16917   */\n      pop\n      jump\t// out\n        /* \"#utility.yul\":16923:17095   */\n    tag_183:\n        /* \"#utility.yul\":17063:17087   */\n      0x4576656e7420616c7265616479206f6363757265642100000000000000000000\n        /* \"#utility.yul\":17059:17060   */\n      0x00\n        /* \"#utility.yul\":17051:17057   */\n      dup3\n        /* \"#utility.yul\":17047:17061   */\n      add\n        /* \"#utility.yul\":17040:17088   */\n      mstore\n        /* \"#utility.yul\":16923:17095   */\n      pop\n      jump\t// out\n        /* \"#utility.yul\":17101:17274   */\n    tag_188:\n        /* \"#utility.yul\":17241:17266   */\n      0x4576656e7420626f6f6b696e6720697320636c6f736521000000000000000000\n        /* \"#utility.yul\":17237:17238   */\n      0x00\n        /* \"#utility.yul\":17229:17235   */\n      dup3\n        /* \"#utility.yul\":17225:17239   */\n      add\n        /* \"#utility.yul\":17218:17267   */\n      mstore\n        /* \"#utility.yul\":17101:17274   */\n      pop\n      jump\t// out\n        /* \"#utility.yul\":17280:17451   */\n    tag_193:\n        /* \"#utility.yul\":17420:17443   */\n      0x4576656e7420646f6573206e6f74206578697374210000000000000000000000\n        /* \"#utility.yul\":17416:17417   */\n      0x00\n        /* \"#utility.yul\":17408:17414   */\n      dup3\n        /* \"#utility.yul\":17404:17418   */\n      add\n        /* \"#utility.yul\":17397:17444   */\n      mstore\n        /* \"#utility.yul\":17280:17451   */\n      pop\n      jump\t// out\n        /* \"#utility.yul\":17457:17636   */\n    tag_198:\n        /* \"#utility.yul\":17597:17628   */\n      0x576520646f6e2774206861766520656e6f756768207469636b65747321000000\n        /* \"#utility.yul\":17593:17594   */\n      0x00\n        /* \"#utility.yul\":17585:17591   */\n      dup3\n        /* \"#utility.yul\":17581:17595   */\n      add\n        /* \"#utility.yul\":17574:17629   */\n      mstore\n        /* \"#utility.yul\":17457:17636   */\n      pop\n      jump\t// out\n        /* \"#utility.yul\":17642:17862   */\n    tag_203:\n        /* \"#utility.yul\":17782:17816   */\n      0x4576656e74206d75737420686176652061746c656173742031207469636b6574\n        /* \"#utility.yul\":17778:17779   */\n      0x00\n        /* \"#utility.yul\":17770:17776   */\n      dup3\n        /* \"#utility.yul\":17766:17780   */\n      add\n        /* \"#utility.yul\":17759:17817   */\n      mstore\n        /* \"#utility.yul\":17851:17854   */\n      0x2100000000000000000000000000000000000000000000000000000000000000\n        /* \"#utility.yul\":17846:17848   */\n      0x20\n        /* \"#utility.yul\":17838:17844   */\n      dup3\n        /* \"#utility.yul\":17834:17849   */\n      add\n        /* \"#utility.yul\":17827:17855   */\n      mstore\n        /* \"#utility.yul\":17642:17862   */\n      pop\n      jump\t// out\n        /* \"#utility.yul\":17868:18089   */\n    tag_208:\n        /* \"#utility.yul\":18008:18042   */\n      0x596f752063616e206f7267616e697a65206576656e7420666f72206675747572\n        /* \"#utility.yul\":18004:18005   */\n      0x00\n        /* \"#utility.yul\":17996:18002   */\n      dup3\n        /* \"#utility.yul\":17992:18006   */\n      add\n        /* \"#utility.yul\":17985:18043   */\n      mstore\n        /* \"#utility.yul\":18077:18081   */\n      0x6521000000000000000000000000000000000000000000000000000000000000\n        /* \"#utility.yul\":18072:18074   */\n      0x20\n        /* \"#utility.yul\":18064:18070   */\n      dup3\n        /* \"#utility.yul\":18060:18075   */\n      add\n        /* \"#utility.yul\":18053:18082   */\n      mstore\n        /* \"#utility.yul\":17868:18089   */\n      pop\n      jump\t// out\n        /* \"#utility.yul\":18095:18217   */\n    tag_113:\n        /* \"#utility.yul\":18168:18192   */\n      tag_308\n        /* \"#utility.yul\":18186:18191   */\n      dup2\n        /* \"#utility.yul\":18168:18192   */\n      tag_158\n      jump\t// in\n    tag_308:\n        /* \"#utility.yul\":18161:18166   */\n      dup2\n        /* \"#utility.yul\":18158:18193   */\n      eq\n        /* \"#utility.yul\":18148:18211   */\n      tag_309\n      jumpi\n        /* \"#utility.yul\":18207:18208   */\n      0x00\n        /* \"#utility.yul\":18204:18205   */\n      dup1\n        /* \"#utility.yul\":18197:18209   */\n      revert\n        /* \"#utility.yul\":18148:18211   */\n    tag_309:\n        /* \"#utility.yul\":18095:18217   */\n      pop\n      jump\t// out\n        /* \"#utility.yul\":18223:18345   */\n    tag_123:\n        /* \"#utility.yul\":18296:18320   */\n      tag_311\n        /* \"#utility.yul\":18314:18319   */\n      dup2\n        /* \"#utility.yul\":18296:18320   */\n      tag_212\n      jump\t// in\n    tag_311:\n        /* \"#utility.yul\":18289:18294   */\n      dup2\n        /* \"#utility.yul\":18286:18321   */\n      eq\n        /* \"#utility.yul\":18276:18339   */\n      tag_312\n      jumpi\n        /* \"#utility.yul\":18335:18336   */\n      0x00\n        /* \"#utility.yul\":18332:18333   */\n      dup1\n        /* \"#utility.yul\":18325:18337   */\n      revert\n        /* \"#utility.yul\":18276:18339   */\n    tag_312:\n        /* \"#utility.yul\":18223:18345   */\n      pop\n      jump\t// out\n\n    auxdata: 0xa264697066735822122011086acaf5e081fca7122d241696f2584f509149a2440acce50d9daa3d4f90ef64736f6c63430008070033\n}\n",
				"bytecode": {
					"linkReferences": {},
					"object": "608060405234801561001057600080fd5b506112f8806100206000396000f3fe6080604052600436106100555760003560e01c80630b7914301461005a578063298ec2081461009c578063b3cea217146100cc578063dae7a13c146100f7578063f086a09b14610134578063f93694fb1461015d575b600080fd5b34801561006657600080fd5b50610081600480360381019061007c9190610973565b610186565b60405161009396959493929190610c25565b60405180910390f35b6100b660048036038101906100b19190610a23565b61026a565b6040516100c39190610d8d565b60405180910390f35b3480156100d857600080fd5b506100e1610437565b6040516100ee9190610d8d565b60405180910390f35b34801561010357600080fd5b5061011e60048036038101906101199190610933565b61043d565b60405161012b9190610d8d565b60405180910390f35b34801561014057600080fd5b5061015b60048036038101906101569190610a63565b610462565b005b34801561016957600080fd5b50610184600480360381019061017f91906109a0565b61066d565b005b60006020528060005260406000206000915090508060000160009054906101000a900473ffffffffffffffffffffffffffffffffffffffff16908060010154908060020180546101d590610f7c565b80601f016020809104026020016040519081016040528092919081815260200182805461020190610f7c565b801561024e5780601f106102235761010080835404028352916020019161024e565b820191906000526020600020905b81548152906001019060200180831161023157829003601f168201915b5050505050908060030154908060040154908060050154905086565b60008060008084815260200190815260200160002090506000816001015414156102c9576040517f08c379a00000000000000000000000000000000000000000000000000000000081526004016102c090610d0d565b60405180910390fd5b4281600101541161030f576040517f08c379a000000000000000000000000000000000000000000000000000000000815260040161030690610ced565b60405180910390fd5b348482600301546103209190610e70565b14610360576040517f08c379a000000000000000000000000000000000000000000000000000000000815260040161035790610c8d565b60405180910390fd5b83816005015410156103a7576040517f08c379a000000000000000000000000000000000000000000000000000000000815260040161039e90610d2d565b60405180910390fd5b838160050160008282546103bb9190610eca565b9250508190555083600160003373ffffffffffffffffffffffffffffffffffffffff1673ffffffffffffffffffffffffffffffffffffffff168152602001908152602001600020600085815260200190815260200160002060008282546104229190610e1a565b92505081905550806001015491505092915050565b60025481565b6001602052816000526040600020602052806000526040600020600091509150505481565b600080600084815260200190815260200160002090506000816001015414156104c0576040517f08c379a00000000000000000000000000000000000000000000000000000000081526004016104b790610d0d565b60405180910390fd5b42816001015411610506576040517f08c379a00000000000000000000000000000000000000000000000000000000081526004016104fd90610ccd565b60405180910390fd5b83600160003373ffffffffffffffffffffffffffffffffffffffff1673ffffffffffffffffffffffffffffffffffffffff1681526020019081526020016000206000858152602001908152602001600020541015610599576040517f08c379a000000000000000000000000000000000000000000000000000000000815260040161059090610cad565b60405180910390fd5b83600160003373ffffffffffffffffffffffffffffffffffffffff1673ffffffffffffffffffffffffffffffffffffffff168152602001908152602001600020600085815260200190815260200160002060008282546105f99190610eca565b9250508190555083600160008473ffffffffffffffffffffffffffffffffffffffff1673ffffffffffffffffffffffffffffffffffffffff168152602001908152602001600020600085815260200190815260200160002060008282546106609190610e1a565b9250508190555050505050565b4284116106af576040517f08c379a00000000000000000000000000000000000000000000000000000000081526004016106a690610d6d565b60405180910390fd5b600081116106f2576040517f08c379a00000000000000000000000000000000000000000000000000000000081526004016106e990610d4d565b60405180910390fd5b6040518060c001604052803373ffffffffffffffffffffffffffffffffffffffff16815260200185815260200184815260200183815260200182815260200182815250600080600254815260200190815260200160002060008201518160000160006101000a81548173ffffffffffffffffffffffffffffffffffffffff021916908373ffffffffffffffffffffffffffffffffffffffff1602179055506020820151816001015560408201518160020190805190602001906107b69291906107f6565b50606082015181600301556080820151816004015560a08201518160050155905050600260008154809291906107eb90610fdf565b919050555050505050565b82805461080290610f7c565b90600052602060002090601f016020900481019282610824576000855561086b565b82601f1061083d57805160ff191683800117855561086b565b8280016001018555821561086b579182015b8281111561086a57825182559160200191906001019061084f565b5b509050610878919061087c565b5090565b5b8082111561089557600081600090555060010161087d565b5090565b60006108ac6108a784610dcd565b610da8565b9050828152602081018484840111156108c8576108c76110ba565b5b6108d3848285610f3a565b509392505050565b6000813590506108ea81611294565b92915050565b600082601f830112610905576109046110b5565b5b8135610915848260208601610899565b91505092915050565b60008135905061092d816112ab565b92915050565b6000806040838503121561094a576109496110c4565b5b6000610958858286016108db565b92505060206109698582860161091e565b9150509250929050565b600060208284031215610989576109886110c4565b5b60006109978482850161091e565b91505092915050565b600080600080608085870312156109ba576109b96110c4565b5b60006109c88782880161091e565b945050602085013567ffffffffffffffff8111156109e9576109e86110bf565b5b6109f5878288016108f0565b9350506040610a068782880161091e565b9250506060610a178782880161091e565b91505092959194509250565b60008060408385031215610a3a57610a396110c4565b5b6000610a488582860161091e565b9250506020610a598582860161091e565b9150509250929050565b600080600060608486031215610a7c57610a7b6110c4565b5b6000610a8a8682870161091e565b9350506020610a9b8682870161091e565b9250506040610aac868287016108db565b9150509250925092565b610abf81610efe565b82525050565b6000610ad082610dfe565b610ada8185610e09565b9350610aea818560208601610f49565b610af3816110c9565b840191505092915050565b6000610b0b601583610e09565b9150610b16826110da565b602082019050919050565b6000610b2e602983610e09565b9150610b3982611103565b604082019050919050565b6000610b51601683610e09565b9150610b5c82611152565b602082019050919050565b6000610b74601783610e09565b9150610b7f8261117b565b602082019050919050565b6000610b97601583610e09565b9150610ba2826111a4565b602082019050919050565b6000610bba601d83610e09565b9150610bc5826111cd565b602082019050919050565b6000610bdd602183610e09565b9150610be8826111f6565b604082019050919050565b6000610c00602283610e09565b9150610c0b82611245565b604082019050919050565b610c1f81610f30565b82525050565b600060c082019050610c3a6000830189610ab6565b610c476020830188610c16565b8181036040830152610c598187610ac5565b9050610c686060830186610c16565b610c756080830185610c16565b610c8260a0830184610c16565b979650505050505050565b60006020820190508181036000830152610ca681610afe565b9050919050565b60006020820190508181036000830152610cc681610b21565b9050919050565b60006020820190508181036000830152610ce681610b44565b9050919050565b60006020820190508181036000830152610d0681610b67565b9050919050565b60006020820190508181036000830152610d2681610b8a565b9050919050565b60006020820190508181036000830152610d4681610bad565b9050919050565b60006020820190508181036000830152610d6681610bd0565b9050919050565b60006020820190508181036000830152610d8681610bf3565b9050919050565b6000602082019050610da26000830184610c16565b92915050565b6000610db2610dc3565b9050610dbe8282610fae565b919050565b6000604051905090565b600067ffffffffffffffff821115610de857610de7611086565b5b610df1826110c9565b9050602081019050919050565b600081519050919050565b600082825260208201905092915050565b6000610e2582610f30565b9150610e3083610f30565b9250827fffffffffffffffffffffffffffffffffffffffffffffffffffffffffffffffff03821115610e6557610e64611028565b5b828201905092915050565b6000610e7b82610f30565b9150610e8683610f30565b9250817fffffffffffffffffffffffffffffffffffffffffffffffffffffffffffffffff0483118215151615610ebf57610ebe611028565b5b828202905092915050565b6000610ed582610f30565b9150610ee083610f30565b925082821015610ef357610ef2611028565b5b828203905092915050565b6000610f0982610f10565b9050919050565b600073ffffffffffffffffffffffffffffffffffffffff82169050919050565b6000819050919050565b82818337600083830152505050565b60005b83811015610f67578082015181840152602081019050610f4c565b83811115610f76576000848401525b50505050565b60006002820490506001821680610f9457607f821691505b60208210811415610fa857610fa7611057565b5b50919050565b610fb7826110c9565b810181811067ffffffffffffffff82111715610fd657610fd5611086565b5b80604052505050565b6000610fea82610f30565b91507fffffffffffffffffffffffffffffffffffffffffffffffffffffffffffffffff82141561101d5761101c611028565b5b600182019050919050565b7f4e487b7100000000000000000000000000000000000000000000000000000000600052601160045260246000fd5b7f4e487b7100000000000000000000000000000000000000000000000000000000600052602260045260246000fd5b7f4e487b7100000000000000000000000000000000000000000000000000000000600052604160045260246000fd5b600080fd5b600080fd5b600080fd5b600080fd5b6000601f19601f8301169050919050565b7f457468657273206973206e6f7420656e6f756768210000000000000000000000600082015250565b7f596f7520646f6e2774206861766520656e6f756768207469636b657420746f2060008201527f7472616e73666572210000000000000000000000000000000000000000000000602082015250565b7f4576656e7420616c7265616479206f6363757265642100000000000000000000600082015250565b7f4576656e7420626f6f6b696e6720697320636c6f736521000000000000000000600082015250565b7f4576656e7420646f6573206e6f74206578697374210000000000000000000000600082015250565b7f576520646f6e2774206861766520656e6f756768207469636b65747321000000600082015250565b7f4576656e74206d75737420686176652061746c656173742031207469636b657460008201527f2100000000000000000000000000000000000000000000000000000000000000602082015250565b7f596f752063616e206f7267616e697a65206576656e7420666f7220667574757260008201527f6521000000000000000000000000000000000000000000000000000000000000602082015250565b61129d81610efe565b81146112a857600080fd5b50565b6112b481610f30565b81146112bf57600080fd5b5056fea264697066735822122011086acaf5e081fca7122d241696f2584f509149a2440acce50d9daa3d4f90ef64736f6c63430008070033",
					"opcodes": "PUSH1 0x80 PUSH1 0x40 MSTORE CALLVALUE DUP1 ISZERO PUSH2 0x10 JUMPI PUSH1 0x0 DUP1 REVERT JUMPDEST POP PUSH2 0x12F8 DUP1 PUSH2 0x20 PUSH1 0x0 CODECOPY PUSH1 0x0 RETURN INVALID PUSH1 0x80 PUSH1 0x40 MSTORE PUSH1 0x4 CALLDATASIZE LT PUSH2 0x55 JUMPI PUSH1 0x0 CALLDATALOAD PUSH1 0xE0 SHR DUP1 PUSH4 0xB791430 EQ PUSH2 0x5A JUMPI DUP1 PUSH4 0x298EC208 EQ PUSH2 0x9C JUMPI DUP1 PUSH4 0xB3CEA217 EQ PUSH2 0xCC JUMPI DUP1 PUSH4 0xDAE7A13C EQ PUSH2 0xF7 JUMPI DUP1 PUSH4 0xF086A09B EQ PUSH2 0x134 JUMPI DUP1 PUSH4 0xF93694FB EQ PUSH2 0x15D JUMPI JUMPDEST PUSH1 0x0 DUP1 REVERT JUMPDEST CALLVALUE DUP1 ISZERO PUSH2 0x66 JUMPI PUSH1 0x0 DUP1 REVERT JUMPDEST POP PUSH2 0x81 PUSH1 0x4 DUP1 CALLDATASIZE SUB DUP2 ADD SWAP1 PUSH2 0x7C SWAP2 SWAP1 PUSH2 0x973 JUMP JUMPDEST PUSH2 0x186 JUMP JUMPDEST PUSH1 0x40 MLOAD PUSH2 0x93 SWAP7 SWAP6 SWAP5 SWAP4 SWAP3 SWAP2 SWAP1 PUSH2 0xC25 JUMP JUMPDEST PUSH1 0x40 MLOAD DUP1 SWAP2 SUB SWAP1 RETURN JUMPDEST PUSH2 0xB6 PUSH1 0x4 DUP1 CALLDATASIZE SUB DUP2 ADD SWAP1 PUSH2 0xB1 SWAP2 SWAP1 PUSH2 0xA23 JUMP JUMPDEST PUSH2 0x26A JUMP JUMPDEST PUSH1 0x40 MLOAD PUSH2 0xC3 SWAP2 SWAP1 PUSH2 0xD8D JUMP JUMPDEST PUSH1 0x40 MLOAD DUP1 SWAP2 SUB SWAP1 RETURN JUMPDEST CALLVALUE DUP1 ISZERO PUSH2 0xD8 JUMPI PUSH1 0x0 DUP1 REVERT JUMPDEST POP PUSH2 0xE1 PUSH2 0x437 JUMP JUMPDEST PUSH1 0x40 MLOAD PUSH2 0xEE SWAP2 SWAP1 PUSH2 0xD8D JUMP JUMPDEST PUSH1 0x40 MLOAD DUP1 SWAP2 SUB SWAP1 RETURN JUMPDEST CALLVALUE DUP1 ISZERO PUSH2 0x103 JUMPI PUSH1 0x0 DUP1 REVERT JUMPDEST POP PUSH2 0x11E PUSH1 0x4 DUP1 CALLDATASIZE SUB DUP2 ADD SWAP1 PUSH2 0x119 SWAP2 SWAP1 PUSH2 0x933 JUMP JUMPDEST PUSH2 0x43D JUMP JUMPDEST PUSH1 0x40 MLOAD PUSH2 0x12B SWAP2 SWAP1 PUSH2 0xD8D JUMP JUMPDEST PUSH1 0x40 MLOAD DUP1 SWAP2 SUB SWAP1 RETURN JUMPDEST CALLVALUE DUP1 ISZERO PUSH2 0x140 JUMPI PUSH1 0x0 DUP1 REVERT JUMPDEST POP PUSH2 0x15B PUSH1 0x4 DUP1 CALLDATASIZE SUB DUP2 ADD SWAP1 PUSH2 0x156 SWAP2 SWAP1 PUSH2 0xA63 JUMP JUMPDEST PUSH2 0x462 JUMP JUMPDEST STOP JUMPDEST CALLVALUE DUP1 ISZERO PUSH2 0x169 JUMPI PUSH1 0x0 DUP1 REVERT JUMPDEST POP PUSH2 0x184 PUSH1 0x4 DUP1 CALLDATASIZE SUB DUP2 ADD SWAP1 PUSH2 0x17F SWAP2 SWAP1 PUSH2 0x9A0 JUMP JUMPDEST PUSH2 0x66D JUMP JUMPDEST STOP JUMPDEST PUSH1 0x0 PUSH1 0x20 MSTORE DUP1 PUSH1 0x0 MSTORE PUSH1 0x40 PUSH1 0x0 KECCAK256 PUSH1 0x0 SWAP2 POP SWAP1 POP DUP1 PUSH1 0x0 ADD PUSH1 0x0 SWAP1 SLOAD SWAP1 PUSH2 0x100 EXP SWAP1 DIV PUSH20 0xFFFFFFFFFFFFFFFFFFFFFFFFFFFFFFFFFFFFFFFF AND SWAP1 DUP1 PUSH1 0x1 ADD SLOAD SWAP1 DUP1 PUSH1 0x2 ADD DUP1 SLOAD PUSH2 0x1D5 SWAP1 PUSH2 0xF7C JUMP JUMPDEST DUP1 PUSH1 0x1F ADD PUSH1 0x20 DUP1 SWAP2 DIV MUL PUSH1 0x20 ADD PUSH1 0x40 MLOAD SWAP1 DUP2 ADD PUSH1 0x40 MSTORE DUP1 SWAP3 SWAP2 SWAP1 DUP2 DUP2 MSTORE PUSH1 0x20 ADD DUP3 DUP1 SLOAD PUSH2 0x201 SWAP1 PUSH2 0xF7C JUMP JUMPDEST DUP1 ISZERO PUSH2 0x24E JUMPI DUP1 PUSH1 0x1F LT PUSH2 0x223 JUMPI PUSH2 0x100 DUP1 DUP4 SLOAD DIV MUL DUP4 MSTORE SWAP2 PUSH1 0x20 ADD SWAP2 PUSH2 0x24E JUMP JUMPDEST DUP3 ADD SWAP2 SWAP1 PUSH1 0x0 MSTORE PUSH1 0x20 PUSH1 0x0 KECCAK256 SWAP1 JUMPDEST DUP2 SLOAD DUP2 MSTORE SWAP1 PUSH1 0x1 ADD SWAP1 PUSH1 0x20 ADD DUP1 DUP4 GT PUSH2 0x231 JUMPI DUP3 SWAP1 SUB PUSH1 0x1F AND DUP3 ADD SWAP2 JUMPDEST POP POP POP POP POP SWAP1 DUP1 PUSH1 0x3 ADD SLOAD SWAP1 DUP1 PUSH1 0x4 ADD SLOAD SWAP1 DUP1 PUSH1 0x5 ADD SLOAD SWAP1 POP DUP7 JUMP JUMPDEST PUSH1 0x0 DUP1 PUSH1 0x0 DUP1 DUP5 DUP2 MSTORE PUSH1 0x20 ADD SWAP1 DUP2 MSTORE PUSH1 0x20 ADD PUSH1 0x0 KECCAK256 SWAP1 POP PUSH1 0x0 DUP2 PUSH1 0x1 ADD SLOAD EQ ISZERO PUSH2 0x2C9 JUMPI PUSH1 0x40 MLOAD PUSH32 0x8C379A000000000000000000000000000000000000000000000000000000000 DUP2 MSTORE PUSH1 0x4 ADD PUSH2 0x2C0 SWAP1 PUSH2 0xD0D JUMP JUMPDEST PUSH1 0x40 MLOAD DUP1 SWAP2 SUB SWAP1 REVERT JUMPDEST TIMESTAMP DUP2 PUSH1 0x1 ADD SLOAD GT PUSH2 0x30F JUMPI PUSH1 0x40 MLOAD PUSH32 0x8C379A000000000000000000000000000000000000000000000000000000000 DUP2 MSTORE PUSH1 0x4 ADD PUSH2 0x306 SWAP1 PUSH2 0xCED JUMP JUMPDEST PUSH1 0x40 MLOAD DUP1 SWAP2 SUB SWAP1 REVERT JUMPDEST CALLVALUE DUP5 DUP3 PUSH1 0x3 ADD SLOAD PUSH2 0x320 SWAP2 SWAP1 PUSH2 0xE70 JUMP JUMPDEST EQ PUSH2 0x360 JUMPI PUSH1 0x40 MLOAD PUSH32 0x8C379A000000000000000000000000000000000000000000000000000000000 DUP2 MSTORE PUSH1 0x4 ADD PUSH2 0x357 SWAP1 PUSH2 0xC8D JUMP JUMPDEST PUSH1 0x40 MLOAD DUP1 SWAP2 SUB SWAP1 REVERT JUMPDEST DUP4 DUP2 PUSH1 0x5 ADD SLOAD LT ISZERO PUSH2 0x3A7 JUMPI PUSH1 0x40 MLOAD PUSH32 0x8C379A000000000000000000000000000000000000000000000000000000000 DUP2 MSTORE PUSH1 0x4 ADD PUSH2 0x39E SWAP1 PUSH2 0xD2D JUMP JUMPDEST PUSH1 0x40 MLOAD DUP1 SWAP2 SUB SWAP1 REVERT JUMPDEST DUP4 DUP2 PUSH1 0x5 ADD PUSH1 0x0 DUP3 DUP3 SLOAD PUSH2 0x3BB SWAP2 SWAP1 PUSH2 0xECA JUMP JUMPDEST SWAP3 POP POP DUP2 SWAP1 SSTORE POP DUP4 PUSH1 0x1 PUSH1 0x0 CALLER PUSH20 0xFFFFFFFFFFFFFFFFFFFFFFFFFFFFFFFFFFFFFFFF AND PUSH20 0xFFFFFFFFFFFFFFFFFFFFFFFFFFFFFFFFFFFFFFFF AND DUP2 MSTORE PUSH1 0x20 ADD SWAP1 DUP2 MSTORE PUSH1 0x20 ADD PUSH1 0x0 KECCAK256 PUSH1 0x0 DUP6 DUP2 MSTORE PUSH1 0x20 ADD SWAP1 DUP2 MSTORE PUSH1 0x20 ADD PUSH1 0x0 KECCAK256 PUSH1 0x0 DUP3 DUP3 SLOAD PUSH2 0x422 SWAP2 SWAP1 PUSH2 0xE1A JUMP JUMPDEST SWAP3 POP POP DUP2 SWAP1 SSTORE POP DUP1 PUSH1 0x1 ADD SLOAD SWAP2 POP POP SWAP3 SWAP2 POP POP JUMP JUMPDEST PUSH1 0x2 SLOAD DUP2 JUMP JUMPDEST PUSH1 0x1 PUSH1 0x20 MSTORE DUP2 PUSH1 0x0 MSTORE PUSH1 0x40 PUSH1 0x0 KECCAK256 PUSH1 0x20 MSTORE DUP1 PUSH1 0x0 MSTORE PUSH1 0x40 PUSH1 0x0 KECCAK256 PUSH1 0x0 SWAP2 POP SWAP2 POP POP SLOAD DUP2 JUMP JUMPDEST PUSH1 0x0 DUP1 PUSH1 0x0 DUP5 DUP2 MSTORE PUSH1 0x20 ADD SWAP1 DUP2 MSTORE PUSH1 0x20 ADD PUSH1 0x0 KECCAK256 SWAP1 POP PUSH1 0x0 DUP2 PUSH1 0x1 ADD SLOAD EQ ISZERO PUSH2 0x4C0 JUMPI PUSH1 0x40 MLOAD PUSH32 0x8C379A000000000000000000000000000000000000000000000000000000000 DUP2 MSTORE PUSH1 0x4 ADD PUSH2 0x4B7 SWAP1 PUSH2 0xD0D JUMP JUMPDEST PUSH1 0x40 MLOAD DUP1 SWAP2 SUB SWAP1 REVERT JUMPDEST TIMESTAMP DUP2 PUSH1 0x1 ADD SLOAD GT PUSH2 0x506 JUMPI PUSH1 0x40 MLOAD PUSH32 0x8C379A000000000000000000000000000000000000000000000000000000000 DUP2 MSTORE PUSH1 0x4 ADD PUSH2 0x4FD SWAP1 PUSH2 0xCCD JUMP JUMPDEST PUSH1 0x40 MLOAD DUP1 SWAP2 SUB SWAP1 REVERT JUMPDEST DUP4 PUSH1 0x1 PUSH1 0x0 CALLER PUSH20 0xFFFFFFFFFFFFFFFFFFFFFFFFFFFFFFFFFFFFFFFF AND PUSH20 0xFFFFFFFFFFFFFFFFFFFFFFFFFFFFFFFFFFFFFFFF AND DUP2 MSTORE PUSH1 0x20 ADD SWAP1 DUP2 MSTORE PUSH1 0x20 ADD PUSH1 0x0 KECCAK256 PUSH1 0x0 DUP6 DUP2 MSTORE PUSH1 0x20 ADD SWAP1 DUP2 MSTORE PUSH1 0x20 ADD PUSH1 0x0 KECCAK256 SLOAD LT ISZERO PUSH2 0x599 JUMPI PUSH1 0x40 MLOAD PUSH32 0x8C379A000000000000000000000000000000000000000000000000000000000 DUP2 MSTORE PUSH1 0x4 ADD PUSH2 0x590 SWAP1 PUSH2 0xCAD JUMP JUMPDEST PUSH1 0x40 MLOAD DUP1 SWAP2 SUB SWAP1 REVERT JUMPDEST DUP4 PUSH1 0x1 PUSH1 0x0 CALLER PUSH20 0xFFFFFFFFFFFFFFFFFFFFFFFFFFFFFFFFFFFFFFFF AND PUSH20 0xFFFFFFFFFFFFFFFFFFFFFFFFFFFFFFFFFFFFFFFF AND DUP2 MSTORE PUSH1 0x20 ADD SWAP1 DUP2 MSTORE PUSH1 0x20 ADD PUSH1 0x0 KECCAK256 PUSH1 0x0 DUP6 DUP2 MSTORE PUSH1 0x20 ADD SWAP1 DUP2 MSTORE PUSH1 0x20 ADD PUSH1 0x0 KECCAK256 PUSH1 0x0 DUP3 DUP3 SLOAD PUSH2 0x5F9 SWAP2 SWAP1 PUSH2 0xECA JUMP JUMPDEST SWAP3 POP POP DUP2 SWAP1 SSTORE POP DUP4 PUSH1 0x1 PUSH1 0x0 DUP5 PUSH20 0xFFFFFFFFFFFFFFFFFFFFFFFFFFFFFFFFFFFFFFFF AND PUSH20 0xFFFFFFFFFFFFFFFFFFFFFFFFFFFFFFFFFFFFFFFF AND DUP2 MSTORE PUSH1 0x20 ADD SWAP1 DUP2 MSTORE PUSH1 0x20 ADD PUSH1 0x0 KECCAK256 PUSH1 0x0 DUP6 DUP2 MSTORE PUSH1 0x20 ADD SWAP1 DUP2 MSTORE PUSH1 0x20 ADD PUSH1 0x0 KECCAK256 PUSH1 0x0 DUP3 DUP3 SLOAD PUSH2 0x660 SWAP2 SWAP1 PUSH2 0xE1A JUMP JUMPDEST SWAP3 POP POP DUP2 SWAP1 SSTORE POP POP POP POP POP JUMP JUMPDEST TIMESTAMP DUP5 GT PUSH2 0x6AF JUMPI PUSH1 0x40 MLOAD PUSH32 0x8C379A000000000000000000000000000000000000000000000000000000000 DUP2 MSTORE PUSH1 0x4 ADD PUSH2 0x6A6 SWAP1 PUSH2 0xD6D JUMP JUMPDEST PUSH1 0x40 MLOAD DUP1 SWAP2 SUB SWAP1 REVERT JUMPDEST PUSH1 0x0 DUP2 GT PUSH2 0x6F2 JUMPI PUSH1 0x40 MLOAD PUSH32 0x8C379A000000000000000000000000000000000000000000000000000000000 DUP2 MSTORE PUSH1 0x4 ADD PUSH2 0x6E9 SWAP1 PUSH2 0xD4D JUMP JUMPDEST PUSH1 0x40 MLOAD DUP1 SWAP2 SUB SWAP1 REVERT JUMPDEST PUSH1 0x40 MLOAD DUP1 PUSH1 0xC0 ADD PUSH1 0x40 MSTORE DUP1 CALLER PUSH20 0xFFFFFFFFFFFFFFFFFFFFFFFFFFFFFFFFFFFFFFFF AND DUP2 MSTORE PUSH1 0x20 ADD DUP6 DUP2 MSTORE PUSH1 0x20 ADD DUP5 DUP2 MSTORE PUSH1 0x20 ADD DUP4 DUP2 MSTORE PUSH1 0x20 ADD DUP3 DUP2 MSTORE PUSH1 0x20 ADD DUP3 DUP2 MSTORE POP PUSH1 0x0 DUP1 PUSH1 0x2 SLOAD DUP2 MSTORE PUSH1 0x20 ADD SWAP1 DUP2 MSTORE PUSH1 0x20 ADD PUSH1 0x0 KECCAK256 PUSH1 0x0 DUP3 ADD MLOAD DUP2 PUSH1 0x0 ADD PUSH1 0x0 PUSH2 0x100 EXP DUP2 SLOAD DUP2 PUSH20 0xFFFFFFFFFFFFFFFFFFFFFFFFFFFFFFFFFFFFFFFF MUL NOT AND SWAP1 DUP4 PUSH20 0xFFFFFFFFFFFFFFFFFFFFFFFFFFFFFFFFFFFFFFFF AND MUL OR SWAP1 SSTORE POP PUSH1 0x20 DUP3 ADD MLOAD DUP2 PUSH1 0x1 ADD SSTORE PUSH1 0x40 DUP3 ADD MLOAD DUP2 PUSH1 0x2 ADD SWAP1 DUP1 MLOAD SWAP1 PUSH1 0x20 ADD SWAP1 PUSH2 0x7B6 SWAP3 SWAP2 SWAP1 PUSH2 0x7F6 JUMP JUMPDEST POP PUSH1 0x60 DUP3 ADD MLOAD DUP2 PUSH1 0x3 ADD SSTORE PUSH1 0x80 DUP3 ADD MLOAD DUP2 PUSH1 0x4 ADD SSTORE PUSH1 0xA0 DUP3 ADD MLOAD DUP2 PUSH1 0x5 ADD SSTORE SWAP1 POP POP PUSH1 0x2 PUSH1 0x0 DUP2 SLOAD DUP1 SWAP3 SWAP2 SWAP1 PUSH2 0x7EB SWAP1 PUSH2 0xFDF JUMP JUMPDEST SWAP2 SWAP1 POP SSTORE POP POP POP POP POP JUMP JUMPDEST DUP3 DUP1 SLOAD PUSH2 0x802 SWAP1 PUSH2 0xF7C JUMP JUMPDEST SWAP1 PUSH1 0x0 MSTORE PUSH1 0x20 PUSH1 0x0 KECCAK256 SWAP1 PUSH1 0x1F ADD PUSH1 0x20 SWAP1 DIV DUP2 ADD SWAP3 DUP3 PUSH2 0x824 JUMPI PUSH1 0x0 DUP6 SSTORE PUSH2 0x86B JUMP JUMPDEST DUP3 PUSH1 0x1F LT PUSH2 0x83D JUMPI DUP1 MLOAD PUSH1 0xFF NOT AND DUP4 DUP1 ADD OR DUP6 SSTORE PUSH2 0x86B JUMP JUMPDEST DUP3 DUP1 ADD PUSH1 0x1 ADD DUP6 SSTORE DUP3 ISZERO PUSH2 0x86B JUMPI SWAP2 DUP3 ADD JUMPDEST DUP3 DUP2 GT ISZERO PUSH2 0x86A JUMPI DUP3 MLOAD DUP3 SSTORE SWAP2 PUSH1 0x20 ADD SWAP2 SWAP1 PUSH1 0x1 ADD SWAP1 PUSH2 0x84F JUMP JUMPDEST JUMPDEST POP SWAP1 POP PUSH2 0x878 SWAP2 SWAP1 PUSH2 0x87C JUMP JUMPDEST POP SWAP1 JUMP JUMPDEST JUMPDEST DUP1 DUP3 GT ISZERO PUSH2 0x895 JUMPI PUSH1 0x0 DUP2 PUSH1 0x0 SWAP1 SSTORE POP PUSH1 0x1 ADD PUSH2 0x87D JUMP JUMPDEST POP SWAP1 JUMP JUMPDEST PUSH1 0x0 PUSH2 0x8AC PUSH2 0x8A7 DUP5 PUSH2 0xDCD JUMP JUMPDEST PUSH2 0xDA8 JUMP JUMPDEST SWAP1 POP DUP3 DUP2 MSTORE PUSH1 0x20 DUP2 ADD DUP5 DUP5 DUP5 ADD GT ISZERO PUSH2 0x8C8 JUMPI PUSH2 0x8C7 PUSH2 0x10BA JUMP JUMPDEST JUMPDEST PUSH2 0x8D3 DUP5 DUP3 DUP6 PUSH2 0xF3A JUMP JUMPDEST POP SWAP4 SWAP3 POP POP POP JUMP JUMPDEST PUSH1 0x0 DUP2 CALLDATALOAD SWAP1 POP PUSH2 0x8EA DUP2 PUSH2 0x1294 JUMP JUMPDEST SWAP3 SWAP2 POP POP JUMP JUMPDEST PUSH1 0x0 DUP3 PUSH1 0x1F DUP4 ADD SLT PUSH2 0x905 JUMPI PUSH2 0x904 PUSH2 0x10B5 JUMP JUMPDEST JUMPDEST DUP2 CALLDATALOAD PUSH2 0x915 DUP5 DUP3 PUSH1 0x20 DUP7 ADD PUSH2 0x899 JUMP JUMPDEST SWAP2 POP POP SWAP3 SWAP2 POP POP JUMP JUMPDEST PUSH1 0x0 DUP2 CALLDATALOAD SWAP1 POP PUSH2 0x92D DUP2 PUSH2 0x12AB JUMP JUMPDEST SWAP3 SWAP2 POP POP JUMP JUMPDEST PUSH1 0x0 DUP1 PUSH1 0x40 DUP4 DUP6 SUB SLT ISZERO PUSH2 0x94A JUMPI PUSH2 0x949 PUSH2 0x10C4 JUMP JUMPDEST JUMPDEST PUSH1 0x0 PUSH2 0x958 DUP6 DUP3 DUP7 ADD PUSH2 0x8DB JUMP JUMPDEST SWAP3 POP POP PUSH1 0x20 PUSH2 0x969 DUP6 DUP3 DUP7 ADD PUSH2 0x91E JUMP JUMPDEST SWAP2 POP POP SWAP3 POP SWAP3 SWAP1 POP JUMP JUMPDEST PUSH1 0x0 PUSH1 0x20 DUP3 DUP5 SUB SLT ISZERO PUSH2 0x989 JUMPI PUSH2 0x988 PUSH2 0x10C4 JUMP JUMPDEST JUMPDEST PUSH1 0x0 PUSH2 0x997 DUP5 DUP3 DUP6 ADD PUSH2 0x91E JUMP JUMPDEST SWAP2 POP POP SWAP3 SWAP2 POP POP JUMP JUMPDEST PUSH1 0x0 DUP1 PUSH1 0x0 DUP1 PUSH1 0x80 DUP6 DUP8 SUB SLT ISZERO PUSH2 0x9BA JUMPI PUSH2 0x9B9 PUSH2 0x10C4 JUMP JUMPDEST JUMPDEST PUSH1 0x0 PUSH2 0x9C8 DUP8 DUP3 DUP9 ADD PUSH2 0x91E JUMP JUMPDEST SWAP5 POP POP PUSH1 0x20 DUP6 ADD CALLDATALOAD PUSH8 0xFFFFFFFFFFFFFFFF DUP2 GT ISZERO PUSH2 0x9E9 JUMPI PUSH2 0x9E8 PUSH2 0x10BF JUMP JUMPDEST JUMPDEST PUSH2 0x9F5 DUP8 DUP3 DUP9 ADD PUSH2 0x8F0 JUMP JUMPDEST SWAP4 POP POP PUSH1 0x40 PUSH2 0xA06 DUP8 DUP3 DUP9 ADD PUSH2 0x91E JUMP JUMPDEST SWAP3 POP POP PUSH1 0x60 PUSH2 0xA17 DUP8 DUP3 DUP9 ADD PUSH2 0x91E JUMP JUMPDEST SWAP2 POP POP SWAP3 SWAP6 SWAP2 SWAP5 POP SWAP3 POP JUMP JUMPDEST PUSH1 0x0 DUP1 PUSH1 0x40 DUP4 DUP6 SUB SLT ISZERO PUSH2 0xA3A JUMPI PUSH2 0xA39 PUSH2 0x10C4 JUMP JUMPDEST JUMPDEST PUSH1 0x0 PUSH2 0xA48 DUP6 DUP3 DUP7 ADD PUSH2 0x91E JUMP JUMPDEST SWAP3 POP POP PUSH1 0x20 PUSH2 0xA59 DUP6 DUP3 DUP7 ADD PUSH2 0x91E JUMP JUMPDEST SWAP2 POP POP SWAP3 POP SWAP3 SWAP1 POP JUMP JUMPDEST PUSH1 0x0 DUP1 PUSH1 0x0 PUSH1 0x60 DUP5 DUP7 SUB SLT ISZERO PUSH2 0xA7C JUMPI PUSH2 0xA7B PUSH2 0x10C4 JUMP JUMPDEST JUMPDEST PUSH1 0x0 PUSH2 0xA8A DUP7 DUP3 DUP8 ADD PUSH2 0x91E JUMP JUMPDEST SWAP4 POP POP PUSH1 0x20 PUSH2 0xA9B DUP7 DUP3 DUP8 ADD PUSH2 0x91E JUMP JUMPDEST SWAP3 POP POP PUSH1 0x40 PUSH2 0xAAC DUP7 DUP3 DUP8 ADD PUSH2 0x8DB JUMP JUMPDEST SWAP2 POP POP SWAP3 POP SWAP3 POP SWAP3 JUMP JUMPDEST PUSH2 0xABF DUP2 PUSH2 0xEFE JUMP JUMPDEST DUP3 MSTORE POP POP JUMP JUMPDEST PUSH1 0x0 PUSH2 0xAD0 DUP3 PUSH2 0xDFE JUMP JUMPDEST PUSH2 0xADA DUP2 DUP6 PUSH2 0xE09 JUMP JUMPDEST SWAP4 POP PUSH2 0xAEA DUP2 DUP6 PUSH1 0x20 DUP7 ADD PUSH2 0xF49 JUMP JUMPDEST PUSH2 0xAF3 DUP2 PUSH2 0x10C9 JUMP JUMPDEST DUP5 ADD SWAP2 POP POP SWAP3 SWAP2 POP POP JUMP JUMPDEST PUSH1 0x0 PUSH2 0xB0B PUSH1 0x15 DUP4 PUSH2 0xE09 JUMP JUMPDEST SWAP2 POP PUSH2 0xB16 DUP3 PUSH2 0x10DA JUMP JUMPDEST PUSH1 0x20 DUP3 ADD SWAP1 POP SWAP2 SWAP1 POP JUMP JUMPDEST PUSH1 0x0 PUSH2 0xB2E PUSH1 0x29 DUP4 PUSH2 0xE09 JUMP JUMPDEST SWAP2 POP PUSH2 0xB39 DUP3 PUSH2 0x1103 JUMP JUMPDEST PUSH1 0x40 DUP3 ADD SWAP1 POP SWAP2 SWAP1 POP JUMP JUMPDEST PUSH1 0x0 PUSH2 0xB51 PUSH1 0x16 DUP4 PUSH2 0xE09 JUMP JUMPDEST SWAP2 POP PUSH2 0xB5C DUP3 PUSH2 0x1152 JUMP JUMPDEST PUSH1 0x20 DUP3 ADD SWAP1 POP SWAP2 SWAP1 POP JUMP JUMPDEST PUSH1 0x0 PUSH2 0xB74 PUSH1 0x17 DUP4 PUSH2 0xE09 JUMP JUMPDEST SWAP2 POP PUSH2 0xB7F DUP3 PUSH2 0x117B JUMP JUMPDEST PUSH1 0x20 DUP3 ADD SWAP1 POP SWAP2 SWAP1 POP JUMP JUMPDEST PUSH1 0x0 PUSH2 0xB97 PUSH1 0x15 DUP4 PUSH2 0xE09 JUMP JUMPDEST SWAP2 POP PUSH2 0xBA2 DUP3 PUSH2 0x11A4 JUMP JUMPDEST PUSH1 0x20 DUP3 ADD SWAP1 POP SWAP2 SWAP1 POP JUMP JUMPDEST PUSH1 0x0 PUSH2 0xBBA PUSH1 0x1D DUP4 PUSH2 0xE09 JUMP JUMPDEST SWAP2 POP PUSH2 0xBC5 DUP3 PUSH2 0x11CD JUMP JUMPDEST PUSH1 0x20 DUP3 ADD SWAP1 POP SWAP2 SWAP1 POP JUMP JUMPDEST PUSH1 0x0 PUSH2 0xBDD PUSH1 0x21 DUP4 PUSH2 0xE09 JUMP JUMPDEST SWAP2 POP PUSH2 0xBE8 DUP3 PUSH2 0x11F6 JUMP JUMPDEST PUSH1 0x40 DUP3 ADD SWAP1 POP SWAP2 SWAP1 POP JUMP JUMPDEST PUSH1 0x0 PUSH2 0xC00 PUSH1 0x22 DUP4 PUSH2 0xE09 JUMP JUMPDEST SWAP2 POP PUSH2 0xC0B DUP3 PUSH2 0x1245 JUMP JUMPDEST PUSH1 0x40 DUP3 ADD SWAP1 POP SWAP2 SWAP1 POP JUMP JUMPDEST PUSH2 0xC1F DUP2 PUSH2 0xF30 JUMP JUMPDEST DUP3 MSTORE POP POP JUMP JUMPDEST PUSH1 0x0 PUSH1 0xC0 DUP3 ADD SWAP1 POP PUSH2 0xC3A PUSH1 0x0 DUP4 ADD DUP10 PUSH2 0xAB6 JUMP JUMPDEST PUSH2 0xC47 PUSH1 0x20 DUP4 ADD DUP9 PUSH2 0xC16 JUMP JUMPDEST DUP2 DUP2 SUB PUSH1 0x40 DUP4 ADD MSTORE PUSH2 0xC59 DUP2 DUP8 PUSH2 0xAC5 JUMP JUMPDEST SWAP1 POP PUSH2 0xC68 PUSH1 0x60 DUP4 ADD DUP7 PUSH2 0xC16 JUMP JUMPDEST PUSH2 0xC75 PUSH1 0x80 DUP4 ADD DUP6 PUSH2 0xC16 JUMP JUMPDEST PUSH2 0xC82 PUSH1 0xA0 DUP4 ADD DUP5 PUSH2 0xC16 JUMP JUMPDEST SWAP8 SWAP7 POP POP POP POP POP POP POP JUMP JUMPDEST PUSH1 0x0 PUSH1 0x20 DUP3 ADD SWAP1 POP DUP2 DUP2 SUB PUSH1 0x0 DUP4 ADD MSTORE PUSH2 0xCA6 DUP2 PUSH2 0xAFE JUMP JUMPDEST SWAP1 POP SWAP2 SWAP1 POP JUMP JUMPDEST PUSH1 0x0 PUSH1 0x20 DUP3 ADD SWAP1 POP DUP2 DUP2 SUB PUSH1 0x0 DUP4 ADD MSTORE PUSH2 0xCC6 DUP2 PUSH2 0xB21 JUMP JUMPDEST SWAP1 POP SWAP2 SWAP1 POP JUMP JUMPDEST PUSH1 0x0 PUSH1 0x20 DUP3 ADD SWAP1 POP DUP2 DUP2 SUB PUSH1 0x0 DUP4 ADD MSTORE PUSH2 0xCE6 DUP2 PUSH2 0xB44 JUMP JUMPDEST SWAP1 POP SWAP2 SWAP1 POP JUMP JUMPDEST PUSH1 0x0 PUSH1 0x20 DUP3 ADD SWAP1 POP DUP2 DUP2 SUB PUSH1 0x0 DUP4 ADD MSTORE PUSH2 0xD06 DUP2 PUSH2 0xB67 JUMP JUMPDEST SWAP1 POP SWAP2 SWAP1 POP JUMP JUMPDEST PUSH1 0x0 PUSH1 0x20 DUP3 ADD SWAP1 POP DUP2 DUP2 SUB PUSH1 0x0 DUP4 ADD MSTORE PUSH2 0xD26 DUP2 PUSH2 0xB8A JUMP JUMPDEST SWAP1 POP SWAP2 SWAP1 POP JUMP JUMPDEST PUSH1 0x0 PUSH1 0x20 DUP3 ADD SWAP1 POP DUP2 DUP2 SUB PUSH1 0x0 DUP4 ADD MSTORE PUSH2 0xD46 DUP2 PUSH2 0xBAD JUMP JUMPDEST SWAP1 POP SWAP2 SWAP1 POP JUMP JUMPDEST PUSH1 0x0 PUSH1 0x20 DUP3 ADD SWAP1 POP DUP2 DUP2 SUB PUSH1 0x0 DUP4 ADD MSTORE PUSH2 0xD66 DUP2 PUSH2 0xBD0 JUMP JUMPDEST SWAP1 POP SWAP2 SWAP1 POP JUMP JUMPDEST PUSH1 0x0 PUSH1 0x20 DUP3 ADD SWAP1 POP DUP2 DUP2 SUB PUSH1 0x0 DUP4 ADD MSTORE PUSH2 0xD86 DUP2 PUSH2 0xBF3 JUMP JUMPDEST SWAP1 POP SWAP2 SWAP1 POP JUMP JUMPDEST PUSH1 0x0 PUSH1 0x20 DUP3 ADD SWAP1 POP PUSH2 0xDA2 PUSH1 0x0 DUP4 ADD DUP5 PUSH2 0xC16 JUMP JUMPDEST SWAP3 SWAP2 POP POP JUMP JUMPDEST PUSH1 0x0 PUSH2 0xDB2 PUSH2 0xDC3 JUMP JUMPDEST SWAP1 POP PUSH2 0xDBE DUP3 DUP3 PUSH2 0xFAE JUMP JUMPDEST SWAP2 SWAP1 POP JUMP JUMPDEST PUSH1 0x0 PUSH1 0x40 MLOAD SWAP1 POP SWAP1 JUMP JUMPDEST PUSH1 0x0 PUSH8 0xFFFFFFFFFFFFFFFF DUP3 GT ISZERO PUSH2 0xDE8 JUMPI PUSH2 0xDE7 PUSH2 0x1086 JUMP JUMPDEST JUMPDEST PUSH2 0xDF1 DUP3 PUSH2 0x10C9 JUMP JUMPDEST SWAP1 POP PUSH1 0x20 DUP2 ADD SWAP1 POP SWAP2 SWAP1 POP JUMP JUMPDEST PUSH1 0x0 DUP2 MLOAD SWAP1 POP SWAP2 SWAP1 POP JUMP JUMPDEST PUSH1 0x0 DUP3 DUP3 MSTORE PUSH1 0x20 DUP3 ADD SWAP1 POP SWAP3 SWAP2 POP POP JUMP JUMPDEST PUSH1 0x0 PUSH2 0xE25 DUP3 PUSH2 0xF30 JUMP JUMPDEST SWAP2 POP PUSH2 0xE30 DUP4 PUSH2 0xF30 JUMP JUMPDEST SWAP3 POP DUP3 PUSH32 0xFFFFFFFFFFFFFFFFFFFFFFFFFFFFFFFFFFFFFFFFFFFFFFFFFFFFFFFFFFFFFFFF SUB DUP3 GT ISZERO PUSH2 0xE65 JUMPI PUSH2 0xE64 PUSH2 0x1028 JUMP JUMPDEST JUMPDEST DUP3 DUP3 ADD SWAP1 POP SWAP3 SWAP2 POP POP JUMP JUMPDEST PUSH1 0x0 PUSH2 0xE7B DUP3 PUSH2 0xF30 JUMP JUMPDEST SWAP2 POP PUSH2 0xE86 DUP4 PUSH2 0xF30 JUMP JUMPDEST SWAP3 POP DUP2 PUSH32 0xFFFFFFFFFFFFFFFFFFFFFFFFFFFFFFFFFFFFFFFFFFFFFFFFFFFFFFFFFFFFFFFF DIV DUP4 GT DUP3 ISZERO ISZERO AND ISZERO PUSH2 0xEBF JUMPI PUSH2 0xEBE PUSH2 0x1028 JUMP JUMPDEST JUMPDEST DUP3 DUP3 MUL SWAP1 POP SWAP3 SWAP2 POP POP JUMP JUMPDEST PUSH1 0x0 PUSH2 0xED5 DUP3 PUSH2 0xF30 JUMP JUMPDEST SWAP2 POP PUSH2 0xEE0 DUP4 PUSH2 0xF30 JUMP JUMPDEST SWAP3 POP DUP3 DUP3 LT ISZERO PUSH2 0xEF3 JUMPI PUSH2 0xEF2 PUSH2 0x1028 JUMP JUMPDEST JUMPDEST DUP3 DUP3 SUB SWAP1 POP SWAP3 SWAP2 POP POP JUMP JUMPDEST PUSH1 0x0 PUSH2 0xF09 DUP3 PUSH2 0xF10 JUMP JUMPDEST SWAP1 POP SWAP2 SWAP1 POP JUMP JUMPDEST PUSH1 0x0 PUSH20 0xFFFFFFFFFFFFFFFFFFFFFFFFFFFFFFFFFFFFFFFF DUP3 AND SWAP1 POP SWAP2 SWAP1 POP JUMP JUMPDEST PUSH1 0x0 DUP2 SWAP1 POP SWAP2 SWAP1 POP JUMP JUMPDEST DUP3 DUP2 DUP4 CALLDATACOPY PUSH1 0x0 DUP4 DUP4 ADD MSTORE POP POP POP JUMP JUMPDEST PUSH1 0x0 JUMPDEST DUP4 DUP2 LT ISZERO PUSH2 0xF67 JUMPI DUP1 DUP3 ADD MLOAD DUP2 DUP5 ADD MSTORE PUSH1 0x20 DUP2 ADD SWAP1 POP PUSH2 0xF4C JUMP JUMPDEST DUP4 DUP2 GT ISZERO PUSH2 0xF76 JUMPI PUSH1 0x0 DUP5 DUP5 ADD MSTORE JUMPDEST POP POP POP POP JUMP JUMPDEST PUSH1 0x0 PUSH1 0x2 DUP3 DIV SWAP1 POP PUSH1 0x1 DUP3 AND DUP1 PUSH2 0xF94 JUMPI PUSH1 0x7F DUP3 AND SWAP2 POP JUMPDEST PUSH1 0x20 DUP3 LT DUP2 EQ ISZERO PUSH2 0xFA8 JUMPI PUSH2 0xFA7 PUSH2 0x1057 JUMP JUMPDEST JUMPDEST POP SWAP2 SWAP1 POP JUMP JUMPDEST PUSH2 0xFB7 DUP3 PUSH2 0x10C9 JUMP JUMPDEST DUP2 ADD DUP2 DUP2 LT PUSH8 0xFFFFFFFFFFFFFFFF DUP3 GT OR ISZERO PUSH2 0xFD6 JUMPI PUSH2 0xFD5 PUSH2 0x1086 JUMP JUMPDEST JUMPDEST DUP1 PUSH1 0x40 MSTORE POP POP POP JUMP JUMPDEST PUSH1 0x0 PUSH2 0xFEA DUP3 PUSH2 0xF30 JUMP JUMPDEST SWAP2 POP PUSH32 0xFFFFFFFFFFFFFFFFFFFFFFFFFFFFFFFFFFFFFFFFFFFFFFFFFFFFFFFFFFFFFFFF DUP3 EQ ISZERO PUSH2 0x101D JUMPI PUSH2 0x101C PUSH2 0x1028 JUMP JUMPDEST JUMPDEST PUSH1 0x1 DUP3 ADD SWAP1 POP SWAP2 SWAP1 POP JUMP JUMPDEST PUSH32 0x4E487B7100000000000000000000000000000000000000000000000000000000 PUSH1 0x0 MSTORE PUSH1 0x11 PUSH1 0x4 MSTORE PUSH1 0x24 PUSH1 0x0 REVERT JUMPDEST PUSH32 0x4E487B7100000000000000000000000000000000000000000000000000000000 PUSH1 0x0 MSTORE PUSH1 0x22 PUSH1 0x4 MSTORE PUSH1 0x24 PUSH1 0x0 REVERT JUMPDEST PUSH32 0x4E487B7100000000000000000000000000000000000000000000000000000000 PUSH1 0x0 MSTORE PUSH1 0x41 PUSH1 0x4 MSTORE PUSH1 0x24 PUSH1 0x0 REVERT JUMPDEST PUSH1 0x0 DUP1 REVERT JUMPDEST PUSH1 0x0 DUP1 REVERT JUMPDEST PUSH1 0x0 DUP1 REVERT JUMPDEST PUSH1 0x0 DUP1 REVERT JUMPDEST PUSH1 0x0 PUSH1 0x1F NOT PUSH1 0x1F DUP4 ADD AND SWAP1 POP SWAP2 SWAP1 POP JUMP JUMPDEST PUSH32 0x457468657273206973206E6F7420656E6F756768210000000000000000000000 PUSH1 0x0 DUP3 ADD MSTORE POP JUMP JUMPDEST PUSH32 0x596F7520646F6E2774206861766520656E6F756768207469636B657420746F20 PUSH1 0x0 DUP3 ADD MSTORE PUSH32 0x7472616E73666572210000000000000000000000000000000000000000000000 PUSH1 0x20 DUP3 ADD MSTORE POP JUMP JUMPDEST PUSH32 0x4576656E7420616C7265616479206F6363757265642100000000000000000000 PUSH1 0x0 DUP3 ADD MSTORE POP JUMP JUMPDEST PUSH32 0x4576656E7420626F6F6B696E6720697320636C6F736521000000000000000000 PUSH1 0x0 DUP3 ADD MSTORE POP JUMP JUMPDEST PUSH32 0x4576656E7420646F6573206E6F74206578697374210000000000000000000000 PUSH1 0x0 DUP3 ADD MSTORE POP JUMP JUMPDEST PUSH32 0x576520646F6E2774206861766520656E6F756768207469636B65747321000000 PUSH1 0x0 DUP3 ADD MSTORE POP JUMP JUMPDEST PUSH32 0x4576656E74206D75737420686176652061746C656173742031207469636B6574 PUSH1 0x0 DUP3 ADD MSTORE PUSH32 0x2100000000000000000000000000000000000000000000000000000000000000 PUSH1 0x20 DUP3 ADD MSTORE POP JUMP JUMPDEST PUSH32 0x596F752063616E206F7267616E697A65206576656E7420666F72206675747572 PUSH1 0x0 DUP3 ADD MSTORE PUSH32 0x6521000000000000000000000000000000000000000000000000000000000000 PUSH1 0x20 DUP3 ADD MSTORE POP JUMP JUMPDEST PUSH2 0x129D DUP2 PUSH2 0xEFE JUMP JUMPDEST DUP2 EQ PUSH2 0x12A8 JUMPI PUSH1 0x0 DUP1 REVERT JUMPDEST POP JUMP JUMPDEST PUSH2 0x12B4 DUP2 PUSH2 0xF30 JUMP JUMPDEST DUP2 EQ PUSH2 0x12BF JUMPI PUSH1 0x0 DUP1 REVERT JUMPDEST POP JUMP INVALID LOG2 PUSH5 0x6970667358 0x22 SLT KECCAK256 GT ADDMOD PUSH11 0xCAF5E081FCA7122D241696 CALLCODE PC 0x4F POP SWAP2 0x49 LOG2 DIFFICULTY EXP 0xCC 0xE5 0xD SWAP14 0xAA RETURNDATASIZE 0x4F SWAP1 0xEF PUSH5 0x736F6C6343 STOP ADDMOD SMOD STOP CALLER "
				},
				"gasEstimates": {
					"creation": {
						"codeDepositCost": "971200",
						"executionCost": "1008",
						"totalCost": "972208"
					},
					"external": {
						"ID()": "2451",
						"buyTicket(uint256,uint256)": "infinite",
						"createEvent(uint256,string,uint256,uint256)": "infinite",
						"events(uint256)": "infinite",
						"tickets(address,uint256)": "infinite",
						"transferTicket(uint256,uint256,address)": "infinite"
					}
				},
				"methodIdentifiers": {
					"ID()": "b3cea217",
					"buyTicket(uint256,uint256)": "298ec208",
					"createEvent(uint256,string,uint256,uint256)": "f93694fb",
					"events(uint256)": "0b791430",
					"tickets(address,uint256)": "dae7a13c",
					"transferTicket(uint256,uint256,address)": "f086a09b"
				}
			},
			"storageLayout": {
				"storage": [
					{
						"astId": 19,
						"contract": "contract/EventOrganizingContract.sol:EventOrganize",
						"label": "events",
						"offset": 0,
						"slot": "0",
						"type": "t_mapping(t_uint256,t_struct(Event)14_storage)"
					},
					{
						"astId": 25,
						"contract": "contract/EventOrganizingContract.sol:EventOrganize",
						"label": "tickets",
						"offset": 0,
						"slot": "1",
						"type": "t_mapping(t_address,t_mapping(t_uint256,t_uint256))"
					},
					{
						"astId": 27,
						"contract": "contract/EventOrganizingContract.sol:EventOrganize",
						"label": "ID",
						"offset": 0,
						"slot": "2",
						"type": "t_uint256"
					}
				],
				"types": {
					"t_address": {
						"encoding": "inplace",
						"label": "address",
						"numberOfBytes": "20"
					},
					"t_mapping(t_address,t_mapping(t_uint256,t_uint256))": {
						"encoding": "mapping",
						"key": "t_address",
						"label": "mapping(address => mapping(uint256 => uint256))",
						"numberOfBytes": "32",
						"value": "t_mapping(t_uint256,t_uint256)"
					},
					"t_mapping(t_uint256,t_struct(Event)14_storage)": {
						"encoding": "mapping",
						"key": "t_uint256",
						"label": "mapping(uint256 => struct EventOrganize.Event)",
						"numberOfBytes": "32",
						"value": "t_struct(Event)14_storage"
					},
					"t_mapping(t_uint256,t_uint256)": {
						"encoding": "mapping",
						"key": "t_uint256",
						"label": "mapping(uint256 => uint256)",
						"numberOfBytes": "32",
						"value": "t_uint256"
					},
					"t_string_storage": {
						"encoding": "bytes",
						"label": "string",
						"numberOfBytes": "32"
					},
					"t_struct(Event)14_storage": {
						"encoding": "inplace",
						"label": "struct EventOrganize.Event",
						"members": [
							{
								"astId": 3,
								"contract": "contract/EventOrganizingContract.sol:EventOrganize",
								"label": "organizer",
								"offset": 0,
								"slot": "0",
								"type": "t_address"
							},
							{
								"astId": 5,
								"contract": "contract/EventOrganizingContract.sol:EventOrganize",
								"label": "date",
								"offset": 0,
								"slot": "1",
								"type": "t_uint256"
							},
							{
								"astId": 7,
								"contract": "contract/EventOrganizingContract.sol:EventOrganize",
								"label": "name",
								"offset": 0,
								"slot": "2",
								"type": "t_string_storage"
							},
							{
								"astId": 9,
								"contract": "contract/EventOrganizingContract.sol:EventOrganize",
								"label": "price",
								"offset": 0,
								"slot": "3",
								"type": "t_uint256"
							},
							{
								"astId": 11,
								"contract": "contract/EventOrganizingContract.sol:EventOrganize",
								"label": "ticketCount",
								"offset": 0,
								"slot": "4",
								"type": "t_uint256"
							},
							{
								"astId": 13,
								"contract": "contract/EventOrganizingContract.sol:EventOrganize",
								"label": "ticketRemain",
								"offset": 0,
								"slot": "5",
								"type": "t_uint256"
							}
						],
						"numberOfBytes": "192"
					},
					"t_uint256": {
						"encoding": "inplace",
						"label": "uint256",
						"numberOfBytes": "32"
					}
				}
			},
			"userdoc": {
				"kind": "user",
				"methods": {},
				"version": 1
			}
		}
	}
}