{
	"contract/EventOrganizingContract.sol": {
		"EventOrganize": {
			"abi": [
				{
					"inputs": [],
					"name": "ID",
					"outputs": [
						{
							"internalType": "uint256",
							"name": "",
							"type": "uint256"
						}
					],
					"stateMutability": "view",
					"type": "function"
				},
				{
					"inputs": [
						{
							"internalType": "uint256",
							"name": "_date",
							"type": "uint256"
						},
						{
							"internalType": "string",
							"name": "_name",
							"type": "string"
						},
						{
							"internalType": "uint256",
							"name": "",
							"type": "uint256"
						}
					],
					"name": "createEvent",
					"outputs": [],
					"stateMutability": "nonpayable",
					"type": "function"
				},
				{
					"inputs": [
						{
							"internalType": "uint256",
							"name": "",
							"type": "uint256"
						}
					],
					"name": "events",
					"outputs": [
						{
							"internalType": "address",
							"name": "organizer",
							"type": "address"
						},
						{
							"internalType": "uint256",
							"name": "date",
							"type": "uint256"
						},
						{
							"internalType": "string",
							"name": "name",
							"type": "string"
						},
						{
							"internalType": "uint256",
							"name": "price",
							"type": "uint256"
						},
						{
							"internalType": "uint256",
							"name": "tiketCount",
							"type": "uint256"
						},
						{
							"internalType": "uint256",
							"name": "tiketRemain",
							"type": "uint256"
						}
					],
					"stateMutability": "view",
					"type": "function"
				},
				{
					"inputs": [
						{
							"internalType": "address",
							"name": "",
							"type": "address"
						},
						{
							"internalType": "uint256",
							"name": "",
							"type": "uint256"
						}
					],
					"name": "tickets",
					"outputs": [
						{
							"internalType": "uint256",
							"name": "",
							"type": "uint256"
						}
					],
					"stateMutability": "view",
					"type": "function"
				}
			],
			"devdoc": {
				"kind": "dev",
				"methods": {},
				"version": 1
			},
			"evm": {
				"assembly": "    /* \"contract/EventOrganizingContract.sol\":62:492  contract EventOrganize {\r... */\n  mstore(0x40, 0x80)\n  callvalue\n  dup1\n  iszero\n  tag_1\n  jumpi\n  0x00\n  dup1\n  revert\ntag_1:\n  pop\n  dataSize(sub_0)\n  dup1\n  dataOffset(sub_0)\n  0x00\n  codecopy\n  0x00\n  return\nstop\n\nsub_0: assembly {\n        /* \"contract/EventOrganizingContract.sol\":62:492  contract EventOrganize {\r... */\n      mstore(0x40, 0x80)\n      callvalue\n      dup1\n      iszero\n      tag_1\n      jumpi\n      0x00\n      dup1\n      revert\n    tag_1:\n      pop\n      jumpi(tag_2, lt(calldatasize, 0x04))\n      shr(0xe0, calldataload(0x00))\n      dup1\n      0x0b791430\n      eq\n      tag_3\n      jumpi\n      dup1\n      0x83372b5b\n      eq\n      tag_4\n      jumpi\n      dup1\n      0xb3cea217\n      eq\n      tag_5\n      jumpi\n      dup1\n      0xdae7a13c\n      eq\n      tag_6\n      jumpi\n    tag_2:\n      0x00\n      dup1\n      revert\n        /* \"contract/EventOrganizingContract.sol\":267:304  mapping (uint => Event) public events */\n    tag_3:\n      tag_7\n      0x04\n      dup1\n      calldatasize\n      sub\n      dup2\n      add\n      swap1\n      tag_8\n      swap2\n      swap1\n      tag_9\n      jump\t// in\n    tag_8:\n      tag_10\n      jump\t// in\n    tag_7:\n      mload(0x40)\n      tag_11\n      swap7\n      swap6\n      swap5\n      swap4\n      swap3\n      swap2\n      swap1\n      tag_12\n      jump\t// in\n    tag_11:\n      mload(0x40)\n      dup1\n      swap2\n      sub\n      swap1\n      return\n        /* \"contract/EventOrganizingContract.sol\":402:487  function createEvent(uint _date, string memory _name, uint ) public{\r... */\n    tag_4:\n      tag_13\n      0x04\n      dup1\n      calldatasize\n      sub\n      dup2\n      add\n      swap1\n      tag_14\n      swap2\n      swap1\n      tag_15\n      jump\t// in\n    tag_14:\n      tag_16\n      jump\t// in\n    tag_13:\n      stop\n        /* \"contract/EventOrganizingContract.sol\":375:389  uint public ID */\n    tag_5:\n      tag_17\n      tag_18\n      jump\t// in\n    tag_17:\n      mload(0x40)\n      tag_19\n      swap2\n      swap1\n      tag_20\n      jump\t// in\n    tag_19:\n      mload(0x40)\n      dup1\n      swap2\n      sub\n      swap1\n      return\n        /* \"contract/EventOrganizingContract.sol\":311:368  mapping (address => mapping(uint => uint)) public tickets */\n    tag_6:\n      tag_21\n      0x04\n      dup1\n      calldatasize\n      sub\n      dup2\n      add\n      swap1\n      tag_22\n      swap2\n      swap1\n      tag_23\n      jump\t// in\n    tag_22:\n      tag_24\n      jump\t// in\n    tag_21:\n      mload(0x40)\n      tag_25\n      swap2\n      swap1\n      tag_20\n      jump\t// in\n    tag_25:\n      mload(0x40)\n      dup1\n      swap2\n      sub\n      swap1\n      return\n        /* \"contract/EventOrganizingContract.sol\":267:304  mapping (uint => Event) public events */\n    tag_10:\n      mstore(0x20, 0x00)\n      dup1\n      0x00\n      mstore\n      keccak256(0x00, 0x40)\n      0x00\n      swap2\n      pop\n      swap1\n      pop\n      dup1\n      0x00\n      add\n      0x00\n      swap1\n      sload\n      swap1\n      0x0100\n      exp\n      swap1\n      div\n      0xffffffffffffffffffffffffffffffffffffffff\n      and\n      swap1\n      dup1\n      0x01\n      add\n      sload\n      swap1\n      dup1\n      0x02\n      add\n      dup1\n      sload\n      tag_26\n      swap1\n      tag_27\n      jump\t// in\n    tag_26:\n      dup1\n      0x1f\n      add\n      0x20\n      dup1\n      swap2\n      div\n      mul\n      0x20\n      add\n      mload(0x40)\n      swap1\n      dup2\n      add\n      0x40\n      mstore\n      dup1\n      swap3\n      swap2\n      swap1\n      dup2\n      dup2\n      mstore\n      0x20\n      add\n      dup3\n      dup1\n      sload\n      tag_28\n      swap1\n      tag_27\n      jump\t// in\n    tag_28:\n      dup1\n      iszero\n      tag_29\n      jumpi\n      dup1\n      0x1f\n      lt\n      tag_30\n      jumpi\n      0x0100\n      dup1\n      dup4\n      sload\n      div\n      mul\n      dup4\n      mstore\n      swap2\n      0x20\n      add\n      swap2\n      jump(tag_29)\n    tag_30:\n      dup3\n      add\n      swap2\n      swap1\n      0x00\n      mstore\n      keccak256(0x00, 0x20)\n      swap1\n    tag_31:\n      dup2\n      sload\n      dup2\n      mstore\n      swap1\n      0x01\n      add\n      swap1\n      0x20\n      add\n      dup1\n      dup4\n      gt\n      tag_31\n      jumpi\n      dup3\n      swap1\n      sub\n      0x1f\n      and\n      dup3\n      add\n      swap2\n    tag_29:\n      pop\n      pop\n      pop\n      pop\n      pop\n      swap1\n      dup1\n      0x03\n      add\n      sload\n      swap1\n      dup1\n      0x04\n      add\n      sload\n      swap1\n      dup1\n      0x05\n      add\n      sload\n      swap1\n      pop\n      dup7\n      jump\t// out\n        /* \"contract/EventOrganizingContract.sol\":402:487  function createEvent(uint _date, string memory _name, uint ) public{\r... */\n    tag_16:\n      pop\n      pop\n      pop\n      jump\t// out\n        /* \"contract/EventOrganizingContract.sol\":375:389  uint public ID */\n    tag_18:\n      sload(0x02)\n      dup2\n      jump\t// out\n        /* \"contract/EventOrganizingContract.sol\":311:368  mapping (address => mapping(uint => uint)) public tickets */\n    tag_24:\n      mstore(0x20, 0x01)\n      dup2\n      0x00\n      mstore\n      mstore(0x20, keccak256(0x00, 0x40))\n      dup1\n      0x00\n      mstore\n      keccak256(0x00, 0x40)\n      0x00\n      swap2\n      pop\n      swap2\n      pop\n      pop\n      sload\n      dup2\n      jump\t// out\n        /* \"#utility.yul\":7:419   */\n    tag_34:\n        /* \"#utility.yul\":85:90   */\n      0x00\n        /* \"#utility.yul\":110:176   */\n      tag_36\n        /* \"#utility.yul\":126:175   */\n      tag_37\n        /* \"#utility.yul\":168:174   */\n      dup5\n        /* \"#utility.yul\":126:175   */\n      tag_38\n      jump\t// in\n    tag_37:\n        /* \"#utility.yul\":110:176   */\n      tag_39\n      jump\t// in\n    tag_36:\n        /* \"#utility.yul\":101:176   */\n      swap1\n      pop\n        /* \"#utility.yul\":199:205   */\n      dup3\n        /* \"#utility.yul\":192:197   */\n      dup2\n        /* \"#utility.yul\":185:206   */\n      mstore\n        /* \"#utility.yul\":237:241   */\n      0x20\n        /* \"#utility.yul\":230:235   */\n      dup2\n        /* \"#utility.yul\":226:242   */\n      add\n        /* \"#utility.yul\":275:278   */\n      dup5\n        /* \"#utility.yul\":266:272   */\n      dup5\n        /* \"#utility.yul\":261:264   */\n      dup5\n        /* \"#utility.yul\":257:273   */\n      add\n        /* \"#utility.yul\":254:279   */\n      gt\n        /* \"#utility.yul\":251:363   */\n      iszero\n      tag_40\n      jumpi\n        /* \"#utility.yul\":282:361   */\n      tag_41\n      tag_42\n      jump\t// in\n    tag_41:\n        /* \"#utility.yul\":251:363   */\n    tag_40:\n        /* \"#utility.yul\":372:413   */\n      tag_43\n        /* \"#utility.yul\":406:412   */\n      dup5\n        /* \"#utility.yul\":401:404   */\n      dup3\n        /* \"#utility.yul\":396:399   */\n      dup6\n        /* \"#utility.yul\":372:413   */\n      tag_44\n      jump\t// in\n    tag_43:\n        /* \"#utility.yul\":91:419   */\n      pop\n        /* \"#utility.yul\":7:419   */\n      swap4\n      swap3\n      pop\n      pop\n      pop\n      jump\t// out\n        /* \"#utility.yul\":425:564   */\n    tag_45:\n        /* \"#utility.yul\":471:476   */\n      0x00\n        /* \"#utility.yul\":509:515   */\n      dup2\n        /* \"#utility.yul\":496:516   */\n      calldataload\n        /* \"#utility.yul\":487:516   */\n      swap1\n      pop\n        /* \"#utility.yul\":525:558   */\n      tag_47\n        /* \"#utility.yul\":552:557   */\n      dup2\n        /* \"#utility.yul\":525:558   */\n      tag_48\n      jump\t// in\n    tag_47:\n        /* \"#utility.yul\":425:564   */\n      swap3\n      swap2\n      pop\n      pop\n      jump\t// out\n        /* \"#utility.yul\":584:924   */\n    tag_49:\n        /* \"#utility.yul\":640:645   */\n      0x00\n        /* \"#utility.yul\":689:692   */\n      dup3\n        /* \"#utility.yul\":682:686   */\n      0x1f\n        /* \"#utility.yul\":674:680   */\n      dup4\n        /* \"#utility.yul\":670:687   */\n      add\n        /* \"#utility.yul\":666:693   */\n      slt\n        /* \"#utility.yul\":656:778   */\n      tag_51\n      jumpi\n        /* \"#utility.yul\":697:776   */\n      tag_52\n      tag_53\n      jump\t// in\n    tag_52:\n        /* \"#utility.yul\":656:778   */\n    tag_51:\n        /* \"#utility.yul\":814:820   */\n      dup2\n        /* \"#utility.yul\":801:821   */\n      calldataload\n        /* \"#utility.yul\":839:918   */\n      tag_54\n        /* \"#utility.yul\":914:917   */\n      dup5\n        /* \"#utility.yul\":906:912   */\n      dup3\n        /* \"#utility.yul\":899:903   */\n      0x20\n        /* \"#utility.yul\":891:897   */\n      dup7\n        /* \"#utility.yul\":887:904   */\n      add\n        /* \"#utility.yul\":839:918   */\n      tag_34\n      jump\t// in\n    tag_54:\n        /* \"#utility.yul\":830:918   */\n      swap2\n      pop\n        /* \"#utility.yul\":646:924   */\n      pop\n        /* \"#utility.yul\":584:924   */\n      swap3\n      swap2\n      pop\n      pop\n      jump\t// out\n        /* \"#utility.yul\":930:1069   */\n    tag_55:\n        /* \"#utility.yul\":976:981   */\n      0x00\n        /* \"#utility.yul\":1014:1020   */\n      dup2\n        /* \"#utility.yul\":1001:1021   */\n      calldataload\n        /* \"#utility.yul\":992:1021   */\n      swap1\n      pop\n        /* \"#utility.yul\":1030:1063   */\n      tag_57\n        /* \"#utility.yul\":1057:1062   */\n      dup2\n        /* \"#utility.yul\":1030:1063   */\n      tag_58\n      jump\t// in\n    tag_57:\n        /* \"#utility.yul\":930:1069   */\n      swap3\n      swap2\n      pop\n      pop\n      jump\t// out\n        /* \"#utility.yul\":1075:1549   */\n    tag_23:\n        /* \"#utility.yul\":1143:1149   */\n      0x00\n        /* \"#utility.yul\":1151:1157   */\n      dup1\n        /* \"#utility.yul\":1200:1202   */\n      0x40\n        /* \"#utility.yul\":1188:1197   */\n      dup4\n        /* \"#utility.yul\":1179:1186   */\n      dup6\n        /* \"#utility.yul\":1175:1198   */\n      sub\n        /* \"#utility.yul\":1171:1203   */\n      slt\n        /* \"#utility.yul\":1168:1287   */\n      iszero\n      tag_60\n      jumpi\n        /* \"#utility.yul\":1206:1285   */\n      tag_61\n      tag_62\n      jump\t// in\n    tag_61:\n        /* \"#utility.yul\":1168:1287   */\n    tag_60:\n        /* \"#utility.yul\":1326:1327   */\n      0x00\n        /* \"#utility.yul\":1351:1404   */\n      tag_63\n        /* \"#utility.yul\":1396:1403   */\n      dup6\n        /* \"#utility.yul\":1387:1393   */\n      dup3\n        /* \"#utility.yul\":1376:1385   */\n      dup7\n        /* \"#utility.yul\":1372:1394   */\n      add\n        /* \"#utility.yul\":1351:1404   */\n      tag_45\n      jump\t// in\n    tag_63:\n        /* \"#utility.yul\":1341:1404   */\n      swap3\n      pop\n        /* \"#utility.yul\":1297:1414   */\n      pop\n        /* \"#utility.yul\":1453:1455   */\n      0x20\n        /* \"#utility.yul\":1479:1532   */\n      tag_64\n        /* \"#utility.yul\":1524:1531   */\n      dup6\n        /* \"#utility.yul\":1515:1521   */\n      dup3\n        /* \"#utility.yul\":1504:1513   */\n      dup7\n        /* \"#utility.yul\":1500:1522   */\n      add\n        /* \"#utility.yul\":1479:1532   */\n      tag_55\n      jump\t// in\n    tag_64:\n        /* \"#utility.yul\":1469:1532   */\n      swap2\n      pop\n        /* \"#utility.yul\":1424:1542   */\n      pop\n        /* \"#utility.yul\":1075:1549   */\n      swap3\n      pop\n      swap3\n      swap1\n      pop\n      jump\t// out\n        /* \"#utility.yul\":1555:1884   */\n    tag_9:\n        /* \"#utility.yul\":1614:1620   */\n      0x00\n        /* \"#utility.yul\":1663:1665   */\n      0x20\n        /* \"#utility.yul\":1651:1660   */\n      dup3\n        /* \"#utility.yul\":1642:1649   */\n      dup5\n        /* \"#utility.yul\":1638:1661   */\n      sub\n        /* \"#utility.yul\":1634:1666   */\n      slt\n        /* \"#utility.yul\":1631:1750   */\n      iszero\n      tag_66\n      jumpi\n        /* \"#utility.yul\":1669:1748   */\n      tag_67\n      tag_62\n      jump\t// in\n    tag_67:\n        /* \"#utility.yul\":1631:1750   */\n    tag_66:\n        /* \"#utility.yul\":1789:1790   */\n      0x00\n        /* \"#utility.yul\":1814:1867   */\n      tag_68\n        /* \"#utility.yul\":1859:1866   */\n      dup5\n        /* \"#utility.yul\":1850:1856   */\n      dup3\n        /* \"#utility.yul\":1839:1848   */\n      dup6\n        /* \"#utility.yul\":1835:1857   */\n      add\n        /* \"#utility.yul\":1814:1867   */\n      tag_55\n      jump\t// in\n    tag_68:\n        /* \"#utility.yul\":1804:1867   */\n      swap2\n      pop\n        /* \"#utility.yul\":1760:1877   */\n      pop\n        /* \"#utility.yul\":1555:1884   */\n      swap3\n      swap2\n      pop\n      pop\n      jump\t// out\n        /* \"#utility.yul\":1890:2689   */\n    tag_15:\n        /* \"#utility.yul\":1977:1983   */\n      0x00\n        /* \"#utility.yul\":1985:1991   */\n      dup1\n        /* \"#utility.yul\":1993:1999   */\n      0x00\n        /* \"#utility.yul\":2042:2044   */\n      0x60\n        /* \"#utility.yul\":2030:2039   */\n      dup5\n        /* \"#utility.yul\":2021:2028   */\n      dup7\n        /* \"#utility.yul\":2017:2040   */\n      sub\n        /* \"#utility.yul\":2013:2045   */\n      slt\n        /* \"#utility.yul\":2010:2129   */\n      iszero\n      tag_70\n      jumpi\n        /* \"#utility.yul\":2048:2127   */\n      tag_71\n      tag_62\n      jump\t// in\n    tag_71:\n        /* \"#utility.yul\":2010:2129   */\n    tag_70:\n        /* \"#utility.yul\":2168:2169   */\n      0x00\n        /* \"#utility.yul\":2193:2246   */\n      tag_72\n        /* \"#utility.yul\":2238:2245   */\n      dup7\n        /* \"#utility.yul\":2229:2235   */\n      dup3\n        /* \"#utility.yul\":2218:2227   */\n      dup8\n        /* \"#utility.yul\":2214:2236   */\n      add\n        /* \"#utility.yul\":2193:2246   */\n      tag_55\n      jump\t// in\n    tag_72:\n        /* \"#utility.yul\":2183:2246   */\n      swap4\n      pop\n        /* \"#utility.yul\":2139:2256   */\n      pop\n        /* \"#utility.yul\":2323:2325   */\n      0x20\n        /* \"#utility.yul\":2312:2321   */\n      dup5\n        /* \"#utility.yul\":2308:2326   */\n      add\n        /* \"#utility.yul\":2295:2327   */\n      calldataload\n        /* \"#utility.yul\":2354:2372   */\n      0xffffffffffffffff\n        /* \"#utility.yul\":2346:2352   */\n      dup2\n        /* \"#utility.yul\":2343:2373   */\n      gt\n        /* \"#utility.yul\":2340:2457   */\n      iszero\n      tag_73\n      jumpi\n        /* \"#utility.yul\":2376:2455   */\n      tag_74\n      tag_75\n      jump\t// in\n    tag_74:\n        /* \"#utility.yul\":2340:2457   */\n    tag_73:\n        /* \"#utility.yul\":2481:2544   */\n      tag_76\n        /* \"#utility.yul\":2536:2543   */\n      dup7\n        /* \"#utility.yul\":2527:2533   */\n      dup3\n        /* \"#utility.yul\":2516:2525   */\n      dup8\n        /* \"#utility.yul\":2512:2534   */\n      add\n        /* \"#utility.yul\":2481:2544   */\n      tag_49\n      jump\t// in\n    tag_76:\n        /* \"#utility.yul\":2471:2544   */\n      swap3\n      pop\n        /* \"#utility.yul\":2266:2554   */\n      pop\n        /* \"#utility.yul\":2593:2595   */\n      0x40\n        /* \"#utility.yul\":2619:2672   */\n      tag_77\n        /* \"#utility.yul\":2664:2671   */\n      dup7\n        /* \"#utility.yul\":2655:2661   */\n      dup3\n        /* \"#utility.yul\":2644:2653   */\n      dup8\n        /* \"#utility.yul\":2640:2662   */\n      add\n        /* \"#utility.yul\":2619:2672   */\n      tag_55\n      jump\t// in\n    tag_77:\n        /* \"#utility.yul\":2609:2672   */\n      swap2\n      pop\n        /* \"#utility.yul\":2564:2682   */\n      pop\n        /* \"#utility.yul\":1890:2689   */\n      swap3\n      pop\n      swap3\n      pop\n      swap3\n      jump\t// out\n        /* \"#utility.yul\":2695:2813   */\n    tag_78:\n        /* \"#utility.yul\":2782:2806   */\n      tag_80\n        /* \"#utility.yul\":2800:2805   */\n      dup2\n        /* \"#utility.yul\":2782:2806   */\n      tag_81\n      jump\t// in\n    tag_80:\n        /* \"#utility.yul\":2777:2780   */\n      dup3\n        /* \"#utility.yul\":2770:2807   */\n      mstore\n        /* \"#utility.yul\":2695:2813   */\n      pop\n      pop\n      jump\t// out\n        /* \"#utility.yul\":2819:3183   */\n    tag_82:\n        /* \"#utility.yul\":2907:2910   */\n      0x00\n        /* \"#utility.yul\":2935:2974   */\n      tag_84\n        /* \"#utility.yul\":2968:2973   */\n      dup3\n        /* \"#utility.yul\":2935:2974   */\n      tag_85\n      jump\t// in\n    tag_84:\n        /* \"#utility.yul\":2990:3061   */\n      tag_86\n        /* \"#utility.yul\":3054:3060   */\n      dup2\n        /* \"#utility.yul\":3049:3052   */\n      dup6\n        /* \"#utility.yul\":2990:3061   */\n      tag_87\n      jump\t// in\n    tag_86:\n        /* \"#utility.yul\":2983:3061   */\n      swap4\n      pop\n        /* \"#utility.yul\":3070:3122   */\n      tag_88\n        /* \"#utility.yul\":3115:3121   */\n      dup2\n        /* \"#utility.yul\":3110:3113   */\n      dup6\n        /* \"#utility.yul\":3103:3107   */\n      0x20\n        /* \"#utility.yul\":3096:3101   */\n      dup7\n        /* \"#utility.yul\":3092:3108   */\n      add\n        /* \"#utility.yul\":3070:3122   */\n      tag_89\n      jump\t// in\n    tag_88:\n        /* \"#utility.yul\":3147:3176   */\n      tag_90\n        /* \"#utility.yul\":3169:3175   */\n      dup2\n        /* \"#utility.yul\":3147:3176   */\n      tag_91\n      jump\t// in\n    tag_90:\n        /* \"#utility.yul\":3142:3145   */\n      dup5\n        /* \"#utility.yul\":3138:3177   */\n      add\n        /* \"#utility.yul\":3131:3177   */\n      swap2\n      pop\n        /* \"#utility.yul\":2911:3183   */\n      pop\n        /* \"#utility.yul\":2819:3183   */\n      swap3\n      swap2\n      pop\n      pop\n      jump\t// out\n        /* \"#utility.yul\":3189:3307   */\n    tag_92:\n        /* \"#utility.yul\":3276:3300   */\n      tag_94\n        /* \"#utility.yul\":3294:3299   */\n      dup2\n        /* \"#utility.yul\":3276:3300   */\n      tag_95\n      jump\t// in\n    tag_94:\n        /* \"#utility.yul\":3271:3274   */\n      dup3\n        /* \"#utility.yul\":3264:3301   */\n      mstore\n        /* \"#utility.yul\":3189:3307   */\n      pop\n      pop\n      jump\t// out\n        /* \"#utility.yul\":3313:4179   */\n    tag_12:\n        /* \"#utility.yul\":3566:3570   */\n      0x00\n        /* \"#utility.yul\":3604:3607   */\n      0xc0\n        /* \"#utility.yul\":3593:3602   */\n      dup3\n        /* \"#utility.yul\":3589:3608   */\n      add\n        /* \"#utility.yul\":3581:3608   */\n      swap1\n      pop\n        /* \"#utility.yul\":3618:3689   */\n      tag_97\n        /* \"#utility.yul\":3686:3687   */\n      0x00\n        /* \"#utility.yul\":3675:3684   */\n      dup4\n        /* \"#utility.yul\":3671:3688   */\n      add\n        /* \"#utility.yul\":3662:3668   */\n      dup10\n        /* \"#utility.yul\":3618:3689   */\n      tag_78\n      jump\t// in\n    tag_97:\n        /* \"#utility.yul\":3699:3771   */\n      tag_98\n        /* \"#utility.yul\":3767:3769   */\n      0x20\n        /* \"#utility.yul\":3756:3765   */\n      dup4\n        /* \"#utility.yul\":3752:3770   */\n      add\n        /* \"#utility.yul\":3743:3749   */\n      dup9\n        /* \"#utility.yul\":3699:3771   */\n      tag_92\n      jump\t// in\n    tag_98:\n        /* \"#utility.yul\":3818:3827   */\n      dup2\n        /* \"#utility.yul\":3812:3816   */\n      dup2\n        /* \"#utility.yul\":3808:3828   */\n      sub\n        /* \"#utility.yul\":3803:3805   */\n      0x40\n        /* \"#utility.yul\":3792:3801   */\n      dup4\n        /* \"#utility.yul\":3788:3806   */\n      add\n        /* \"#utility.yul\":3781:3829   */\n      mstore\n        /* \"#utility.yul\":3846:3924   */\n      tag_99\n        /* \"#utility.yul\":3919:3923   */\n      dup2\n        /* \"#utility.yul\":3910:3916   */\n      dup8\n        /* \"#utility.yul\":3846:3924   */\n      tag_82\n      jump\t// in\n    tag_99:\n        /* \"#utility.yul\":3838:3924   */\n      swap1\n      pop\n        /* \"#utility.yul\":3934:4006   */\n      tag_100\n        /* \"#utility.yul\":4002:4004   */\n      0x60\n        /* \"#utility.yul\":3991:4000   */\n      dup4\n        /* \"#utility.yul\":3987:4005   */\n      add\n        /* \"#utility.yul\":3978:3984   */\n      dup7\n        /* \"#utility.yul\":3934:4006   */\n      tag_92\n      jump\t// in\n    tag_100:\n        /* \"#utility.yul\":4016:4089   */\n      tag_101\n        /* \"#utility.yul\":4084:4087   */\n      0x80\n        /* \"#utility.yul\":4073:4082   */\n      dup4\n        /* \"#utility.yul\":4069:4088   */\n      add\n        /* \"#utility.yul\":4060:4066   */\n      dup6\n        /* \"#utility.yul\":4016:4089   */\n      tag_92\n      jump\t// in\n    tag_101:\n        /* \"#utility.yul\":4099:4172   */\n      tag_102\n        /* \"#utility.yul\":4167:4170   */\n      0xa0\n        /* \"#utility.yul\":4156:4165   */\n      dup4\n        /* \"#utility.yul\":4152:4171   */\n      add\n        /* \"#utility.yul\":4143:4149   */\n      dup5\n        /* \"#utility.yul\":4099:4172   */\n      tag_92\n      jump\t// in\n    tag_102:\n        /* \"#utility.yul\":3313:4179   */\n      swap8\n      swap7\n      pop\n      pop\n      pop\n      pop\n      pop\n      pop\n      pop\n      jump\t// out\n        /* \"#utility.yul\":4185:4407   */\n    tag_20:\n        /* \"#utility.yul\":4278:4282   */\n      0x00\n        /* \"#utility.yul\":4316:4318   */\n      0x20\n        /* \"#utility.yul\":4305:4314   */\n      dup3\n        /* \"#utility.yul\":4301:4319   */\n      add\n        /* \"#utility.yul\":4293:4319   */\n      swap1\n      pop\n        /* \"#utility.yul\":4329:4400   */\n      tag_104\n        /* \"#utility.yul\":4397:4398   */\n      0x00\n        /* \"#utility.yul\":4386:4395   */\n      dup4\n        /* \"#utility.yul\":4382:4399   */\n      add\n        /* \"#utility.yul\":4373:4379   */\n      dup5\n        /* \"#utility.yul\":4329:4400   */\n      tag_92\n      jump\t// in\n    tag_104:\n        /* \"#utility.yul\":4185:4407   */\n      swap3\n      swap2\n      pop\n      pop\n      jump\t// out\n        /* \"#utility.yul\":4413:4542   */\n    tag_39:\n        /* \"#utility.yul\":4447:4453   */\n      0x00\n        /* \"#utility.yul\":4474:4494   */\n      tag_106\n      tag_107\n      jump\t// in\n    tag_106:\n        /* \"#utility.yul\":4464:4494   */\n      swap1\n      pop\n        /* \"#utility.yul\":4503:4536   */\n      tag_108\n        /* \"#utility.yul\":4531:4535   */\n      dup3\n        /* \"#utility.yul\":4523:4529   */\n      dup3\n        /* \"#utility.yul\":4503:4536   */\n      tag_109\n      jump\t// in\n    tag_108:\n        /* \"#utility.yul\":4413:4542   */\n      swap2\n      swap1\n      pop\n      jump\t// out\n        /* \"#utility.yul\":4548:4623   */\n    tag_107:\n        /* \"#utility.yul\":4581:4587   */\n      0x00\n        /* \"#utility.yul\":4614:4616   */\n      0x40\n        /* \"#utility.yul\":4608:4617   */\n      mload\n        /* \"#utility.yul\":4598:4617   */\n      swap1\n      pop\n        /* \"#utility.yul\":4548:4623   */\n      swap1\n      jump\t// out\n        /* \"#utility.yul\":4629:4937   */\n    tag_38:\n        /* \"#utility.yul\":4691:4695   */\n      0x00\n        /* \"#utility.yul\":4781:4799   */\n      0xffffffffffffffff\n        /* \"#utility.yul\":4773:4779   */\n      dup3\n        /* \"#utility.yul\":4770:4800   */\n      gt\n        /* \"#utility.yul\":4767:4823   */\n      iszero\n      tag_112\n      jumpi\n        /* \"#utility.yul\":4803:4821   */\n      tag_113\n      tag_114\n      jump\t// in\n    tag_113:\n        /* \"#utility.yul\":4767:4823   */\n    tag_112:\n        /* \"#utility.yul\":4841:4870   */\n      tag_115\n        /* \"#utility.yul\":4863:4869   */\n      dup3\n        /* \"#utility.yul\":4841:4870   */\n      tag_91\n      jump\t// in\n    tag_115:\n        /* \"#utility.yul\":4833:4870   */\n      swap1\n      pop\n        /* \"#utility.yul\":4925:4929   */\n      0x20\n        /* \"#utility.yul\":4919:4923   */\n      dup2\n        /* \"#utility.yul\":4915:4930   */\n      add\n        /* \"#utility.yul\":4907:4930   */\n      swap1\n      pop\n        /* \"#utility.yul\":4629:4937   */\n      swap2\n      swap1\n      pop\n      jump\t// out\n        /* \"#utility.yul\":4943:5042   */\n    tag_85:\n        /* \"#utility.yul\":4995:5001   */\n      0x00\n        /* \"#utility.yul\":5029:5034   */\n      dup2\n        /* \"#utility.yul\":5023:5035   */\n      mload\n        /* \"#utility.yul\":5013:5035   */\n      swap1\n      pop\n        /* \"#utility.yul\":4943:5042   */\n      swap2\n      swap1\n      pop\n      jump\t// out\n        /* \"#utility.yul\":5048:5217   */\n    tag_87:\n        /* \"#utility.yul\":5132:5143   */\n      0x00\n        /* \"#utility.yul\":5166:5172   */\n      dup3\n        /* \"#utility.yul\":5161:5164   */\n      dup3\n        /* \"#utility.yul\":5154:5173   */\n      mstore\n        /* \"#utility.yul\":5206:5210   */\n      0x20\n        /* \"#utility.yul\":5201:5204   */\n      dup3\n        /* \"#utility.yul\":5197:5211   */\n      add\n        /* \"#utility.yul\":5182:5211   */\n      swap1\n      pop\n        /* \"#utility.yul\":5048:5217   */\n      swap3\n      swap2\n      pop\n      pop\n      jump\t// out\n        /* \"#utility.yul\":5223:5319   */\n    tag_81:\n        /* \"#utility.yul\":5260:5267   */\n      0x00\n        /* \"#utility.yul\":5289:5313   */\n      tag_119\n        /* \"#utility.yul\":5307:5312   */\n      dup3\n        /* \"#utility.yul\":5289:5313   */\n      tag_120\n      jump\t// in\n    tag_119:\n        /* \"#utility.yul\":5278:5313   */\n      swap1\n      pop\n        /* \"#utility.yul\":5223:5319   */\n      swap2\n      swap1\n      pop\n      jump\t// out\n        /* \"#utility.yul\":5325:5451   */\n    tag_120:\n        /* \"#utility.yul\":5362:5369   */\n      0x00\n        /* \"#utility.yul\":5402:5444   */\n      0xffffffffffffffffffffffffffffffffffffffff\n        /* \"#utility.yul\":5395:5400   */\n      dup3\n        /* \"#utility.yul\":5391:5445   */\n      and\n        /* \"#utility.yul\":5380:5445   */\n      swap1\n      pop\n        /* \"#utility.yul\":5325:5451   */\n      swap2\n      swap1\n      pop\n      jump\t// out\n        /* \"#utility.yul\":5457:5534   */\n    tag_95:\n        /* \"#utility.yul\":5494:5501   */\n      0x00\n        /* \"#utility.yul\":5523:5528   */\n      dup2\n        /* \"#utility.yul\":5512:5528   */\n      swap1\n      pop\n        /* \"#utility.yul\":5457:5534   */\n      swap2\n      swap1\n      pop\n      jump\t// out\n        /* \"#utility.yul\":5540:5694   */\n    tag_44:\n        /* \"#utility.yul\":5624:5630   */\n      dup3\n        /* \"#utility.yul\":5619:5622   */\n      dup2\n        /* \"#utility.yul\":5614:5617   */\n      dup4\n        /* \"#utility.yul\":5601:5631   */\n      calldatacopy\n        /* \"#utility.yul\":5686:5687   */\n      0x00\n        /* \"#utility.yul\":5677:5683   */\n      dup4\n        /* \"#utility.yul\":5672:5675   */\n      dup4\n        /* \"#utility.yul\":5668:5684   */\n      add\n        /* \"#utility.yul\":5661:5688   */\n      mstore\n        /* \"#utility.yul\":5540:5694   */\n      pop\n      pop\n      pop\n      jump\t// out\n        /* \"#utility.yul\":5700:6007   */\n    tag_89:\n        /* \"#utility.yul\":5768:5769   */\n      0x00\n        /* \"#utility.yul\":5778:5891   */\n    tag_125:\n        /* \"#utility.yul\":5792:5798   */\n      dup4\n        /* \"#utility.yul\":5789:5790   */\n      dup2\n        /* \"#utility.yul\":5786:5799   */\n      lt\n        /* \"#utility.yul\":5778:5891   */\n      iszero\n      tag_127\n      jumpi\n        /* \"#utility.yul\":5877:5878   */\n      dup1\n        /* \"#utility.yul\":5872:5875   */\n      dup3\n        /* \"#utility.yul\":5868:5879   */\n      add\n        /* \"#utility.yul\":5862:5880   */\n      mload\n        /* \"#utility.yul\":5858:5859   */\n      dup2\n        /* \"#utility.yul\":5853:5856   */\n      dup5\n        /* \"#utility.yul\":5849:5860   */\n      add\n        /* \"#utility.yul\":5842:5881   */\n      mstore\n        /* \"#utility.yul\":5814:5816   */\n      0x20\n        /* \"#utility.yul\":5811:5812   */\n      dup2\n        /* \"#utility.yul\":5807:5817   */\n      add\n        /* \"#utility.yul\":5802:5817   */\n      swap1\n      pop\n        /* \"#utility.yul\":5778:5891   */\n      jump(tag_125)\n    tag_127:\n        /* \"#utility.yul\":5909:5915   */\n      dup4\n        /* \"#utility.yul\":5906:5907   */\n      dup2\n        /* \"#utility.yul\":5903:5916   */\n      gt\n        /* \"#utility.yul\":5900:6001   */\n      iszero\n      tag_128\n      jumpi\n        /* \"#utility.yul\":5989:5990   */\n      0x00\n        /* \"#utility.yul\":5980:5986   */\n      dup5\n        /* \"#utility.yul\":5975:5978   */\n      dup5\n        /* \"#utility.yul\":5971:5987   */\n      add\n        /* \"#utility.yul\":5964:5991   */\n      mstore\n        /* \"#utility.yul\":5900:6001   */\n    tag_128:\n        /* \"#utility.yul\":5749:6007   */\n      pop\n        /* \"#utility.yul\":5700:6007   */\n      pop\n      pop\n      pop\n      jump\t// out\n        /* \"#utility.yul\":6013:6333   */\n    tag_27:\n        /* \"#utility.yul\":6057:6063   */\n      0x00\n        /* \"#utility.yul\":6094:6095   */\n      0x02\n        /* \"#utility.yul\":6088:6092   */\n      dup3\n        /* \"#utility.yul\":6084:6096   */\n      div\n        /* \"#utility.yul\":6074:6096   */\n      swap1\n      pop\n        /* \"#utility.yul\":6141:6142   */\n      0x01\n        /* \"#utility.yul\":6135:6139   */\n      dup3\n        /* \"#utility.yul\":6131:6143   */\n      and\n        /* \"#utility.yul\":6162:6180   */\n      dup1\n        /* \"#utility.yul\":6152:6233   */\n      tag_130\n      jumpi\n        /* \"#utility.yul\":6218:6222   */\n      0x7f\n        /* \"#utility.yul\":6210:6216   */\n      dup3\n        /* \"#utility.yul\":6206:6223   */\n      and\n        /* \"#utility.yul\":6196:6223   */\n      swap2\n      pop\n        /* \"#utility.yul\":6152:6233   */\n    tag_130:\n        /* \"#utility.yul\":6280:6282   */\n      0x20\n        /* \"#utility.yul\":6272:6278   */\n      dup3\n        /* \"#utility.yul\":6269:6283   */\n      lt\n        /* \"#utility.yul\":6249:6267   */\n      dup2\n        /* \"#utility.yul\":6246:6284   */\n      eq\n        /* \"#utility.yul\":6243:6327   */\n      iszero\n      tag_131\n      jumpi\n        /* \"#utility.yul\":6299:6317   */\n      tag_132\n      tag_133\n      jump\t// in\n    tag_132:\n        /* \"#utility.yul\":6243:6327   */\n    tag_131:\n        /* \"#utility.yul\":6064:6333   */\n      pop\n        /* \"#utility.yul\":6013:6333   */\n      swap2\n      swap1\n      pop\n      jump\t// out\n        /* \"#utility.yul\":6339:6620   */\n    tag_109:\n        /* \"#utility.yul\":6422:6449   */\n      tag_135\n        /* \"#utility.yul\":6444:6448   */\n      dup3\n        /* \"#utility.yul\":6422:6449   */\n      tag_91\n      jump\t// in\n    tag_135:\n        /* \"#utility.yul\":6414:6420   */\n      dup2\n        /* \"#utility.yul\":6410:6450   */\n      add\n        /* \"#utility.yul\":6552:6558   */\n      dup2\n        /* \"#utility.yul\":6540:6550   */\n      dup2\n        /* \"#utility.yul\":6537:6559   */\n      lt\n        /* \"#utility.yul\":6516:6534   */\n      0xffffffffffffffff\n        /* \"#utility.yul\":6504:6514   */\n      dup3\n        /* \"#utility.yul\":6501:6535   */\n      gt\n        /* \"#utility.yul\":6498:6560   */\n      or\n        /* \"#utility.yul\":6495:6583   */\n      iszero\n      tag_136\n      jumpi\n        /* \"#utility.yul\":6563:6581   */\n      tag_137\n      tag_114\n      jump\t// in\n    tag_137:\n        /* \"#utility.yul\":6495:6583   */\n    tag_136:\n        /* \"#utility.yul\":6603:6613   */\n      dup1\n        /* \"#utility.yul\":6599:6601   */\n      0x40\n        /* \"#utility.yul\":6592:6614   */\n      mstore\n        /* \"#utility.yul\":6382:6620   */\n      pop\n        /* \"#utility.yul\":6339:6620   */\n      pop\n      pop\n      jump\t// out\n        /* \"#utility.yul\":6626:6806   */\n    tag_133:\n        /* \"#utility.yul\":6674:6751   */\n      0x4e487b7100000000000000000000000000000000000000000000000000000000\n        /* \"#utility.yul\":6671:6672   */\n      0x00\n        /* \"#utility.yul\":6664:6752   */\n      mstore\n        /* \"#utility.yul\":6771:6775   */\n      0x22\n        /* \"#utility.yul\":6768:6769   */\n      0x04\n        /* \"#utility.yul\":6761:6776   */\n      mstore\n        /* \"#utility.yul\":6795:6799   */\n      0x24\n        /* \"#utility.yul\":6792:6793   */\n      0x00\n        /* \"#utility.yul\":6785:6800   */\n      revert\n        /* \"#utility.yul\":6812:6992   */\n    tag_114:\n        /* \"#utility.yul\":6860:6937   */\n      0x4e487b7100000000000000000000000000000000000000000000000000000000\n        /* \"#utility.yul\":6857:6858   */\n      0x00\n        /* \"#utility.yul\":6850:6938   */\n      mstore\n        /* \"#utility.yul\":6957:6961   */\n      0x41\n        /* \"#utility.yul\":6954:6955   */\n      0x04\n        /* \"#utility.yul\":6947:6962   */\n      mstore\n        /* \"#utility.yul\":6981:6985   */\n      0x24\n        /* \"#utility.yul\":6978:6979   */\n      0x00\n        /* \"#utility.yul\":6971:6986   */\n      revert\n        /* \"#utility.yul\":6998:7115   */\n    tag_53:\n        /* \"#utility.yul\":7107:7108   */\n      0x00\n        /* \"#utility.yul\":7104:7105   */\n      dup1\n        /* \"#utility.yul\":7097:7109   */\n      revert\n        /* \"#utility.yul\":7121:7238   */\n    tag_42:\n        /* \"#utility.yul\":7230:7231   */\n      0x00\n        /* \"#utility.yul\":7227:7228   */\n      dup1\n        /* \"#utility.yul\":7220:7232   */\n      revert\n        /* \"#utility.yul\":7244:7361   */\n    tag_75:\n        /* \"#utility.yul\":7353:7354   */\n      0x00\n        /* \"#utility.yul\":7350:7351   */\n      dup1\n        /* \"#utility.yul\":7343:7355   */\n      revert\n        /* \"#utility.yul\":7367:7484   */\n    tag_62:\n        /* \"#utility.yul\":7476:7477   */\n      0x00\n        /* \"#utility.yul\":7473:7474   */\n      dup1\n        /* \"#utility.yul\":7466:7478   */\n      revert\n        /* \"#utility.yul\":7490:7592   */\n    tag_91:\n        /* \"#utility.yul\":7531:7537   */\n      0x00\n        /* \"#utility.yul\":7582:7584   */\n      0x1f\n        /* \"#utility.yul\":7578:7585   */\n      not\n        /* \"#utility.yul\":7573:7575   */\n      0x1f\n        /* \"#utility.yul\":7566:7571   */\n      dup4\n        /* \"#utility.yul\":7562:7576   */\n      add\n        /* \"#utility.yul\":7558:7586   */\n      and\n        /* \"#utility.yul\":7548:7586   */\n      swap1\n      pop\n        /* \"#utility.yul\":7490:7592   */\n      swap2\n      swap1\n      pop\n      jump\t// out\n        /* \"#utility.yul\":7598:7720   */\n    tag_48:\n        /* \"#utility.yul\":7671:7695   */\n      tag_146\n        /* \"#utility.yul\":7689:7694   */\n      dup2\n        /* \"#utility.yul\":7671:7695   */\n      tag_81\n      jump\t// in\n    tag_146:\n        /* \"#utility.yul\":7664:7669   */\n      dup2\n        /* \"#utility.yul\":7661:7696   */\n      eq\n        /* \"#utility.yul\":7651:7714   */\n      tag_147\n      jumpi\n        /* \"#utility.yul\":7710:7711   */\n      0x00\n        /* \"#utility.yul\":7707:7708   */\n      dup1\n        /* \"#utility.yul\":7700:7712   */\n      revert\n        /* \"#utility.yul\":7651:7714   */\n    tag_147:\n        /* \"#utility.yul\":7598:7720   */\n      pop\n      jump\t// out\n        /* \"#utility.yul\":7726:7848   */\n    tag_58:\n        /* \"#utility.yul\":7799:7823   */\n      tag_149\n        /* \"#utility.yul\":7817:7822   */\n      dup2\n        /* \"#utility.yul\":7799:7823   */\n      tag_95\n      jump\t// in\n    tag_149:\n        /* \"#utility.yul\":7792:7797   */\n      dup2\n        /* \"#utility.yul\":7789:7824   */\n      eq\n        /* \"#utility.yul\":7779:7842   */\n      tag_150\n      jumpi\n        /* \"#utility.yul\":7838:7839   */\n      0x00\n        /* \"#utility.yul\":7835:7836   */\n      dup1\n        /* \"#utility.yul\":7828:7840   */\n      revert\n        /* \"#utility.yul\":7779:7842   */\n    tag_150:\n        /* \"#utility.yul\":7726:7848   */\n      pop\n      jump\t// out\n\n    auxdata: 0xa26469706673582212200055e5113a2e1cc527d6aa52d392c71d1aff769a93ae9396f9a91b15b4aec4d564736f6c63430008070033\n}\n",
				"bytecode": {
					"linkReferences": {},
					"object": "608060405234801561001057600080fd5b5061068e806100206000396000f3fe608060405234801561001057600080fd5b506004361061004c5760003560e01c80630b7914301461005157806383372b5b14610086578063b3cea217146100a2578063dae7a13c146100c0575b600080fd5b61006b600480360381019061006691906102de565b6100f0565b60405161007d969594939291906103d1565b60405180910390f35b6100a0600480360381019061009b919061030b565b6101d4565b005b6100aa6101d9565b6040516100b79190610439565b60405180910390f35b6100da60048036038101906100d5919061029e565b6101df565b6040516100e79190610439565b60405180910390f35b60006020528060005260406000206000915090508060000160009054906101000a900473ffffffffffffffffffffffffffffffffffffffff169080600101549080600201805461013f90610544565b80601f016020809104026020016040519081016040528092919081815260200182805461016b90610544565b80156101b85780601f1061018d576101008083540402835291602001916101b8565b820191906000526020600020905b81548152906001019060200180831161019b57829003601f168201915b5050505050908060030154908060040154908060050154905086565b505050565b60025481565b6001602052816000526040600020602052806000526040600020600091509150505481565b600061021761021284610479565b610454565b9050828152602081018484840111156102335761023261060a565b5b61023e848285610502565b509392505050565b6000813590506102558161062a565b92915050565b600082601f8301126102705761026f610605565b5b8135610280848260208601610204565b91505092915050565b60008135905061029881610641565b92915050565b600080604083850312156102b5576102b4610614565b5b60006102c385828601610246565b92505060206102d485828601610289565b9150509250929050565b6000602082840312156102f4576102f3610614565b5b600061030284828501610289565b91505092915050565b60008060006060848603121561032457610323610614565b5b600061033286828701610289565b935050602084013567ffffffffffffffff8111156103535761035261060f565b5b61035f8682870161025b565b925050604061037086828701610289565b9150509250925092565b610383816104c6565b82525050565b6000610394826104aa565b61039e81856104b5565b93506103ae818560208601610511565b6103b781610619565b840191505092915050565b6103cb816104f8565b82525050565b600060c0820190506103e6600083018961037a565b6103f360208301886103c2565b81810360408301526104058187610389565b905061041460608301866103c2565b61042160808301856103c2565b61042e60a08301846103c2565b979650505050505050565b600060208201905061044e60008301846103c2565b92915050565b600061045e61046f565b905061046a8282610576565b919050565b6000604051905090565b600067ffffffffffffffff821115610494576104936105d6565b5b61049d82610619565b9050602081019050919050565b600081519050919050565b600082825260208201905092915050565b60006104d1826104d8565b9050919050565b600073ffffffffffffffffffffffffffffffffffffffff82169050919050565b6000819050919050565b82818337600083830152505050565b60005b8381101561052f578082015181840152602081019050610514565b8381111561053e576000848401525b50505050565b6000600282049050600182168061055c57607f821691505b602082108114156105705761056f6105a7565b5b50919050565b61057f82610619565b810181811067ffffffffffffffff8211171561059e5761059d6105d6565b5b80604052505050565b7f4e487b7100000000000000000000000000000000000000000000000000000000600052602260045260246000fd5b7f4e487b7100000000000000000000000000000000000000000000000000000000600052604160045260246000fd5b600080fd5b600080fd5b600080fd5b600080fd5b6000601f19601f8301169050919050565b610633816104c6565b811461063e57600080fd5b50565b61064a816104f8565b811461065557600080fd5b5056fea26469706673582212200055e5113a2e1cc527d6aa52d392c71d1aff769a93ae9396f9a91b15b4aec4d564736f6c63430008070033",
					"opcodes": "PUSH1 0x80 PUSH1 0x40 MSTORE CALLVALUE DUP1 ISZERO PUSH2 0x10 JUMPI PUSH1 0x0 DUP1 REVERT JUMPDEST POP PUSH2 0x68E DUP1 PUSH2 0x20 PUSH1 0x0 CODECOPY PUSH1 0x0 RETURN INVALID PUSH1 0x80 PUSH1 0x40 MSTORE CALLVALUE DUP1 ISZERO PUSH2 0x10 JUMPI PUSH1 0x0 DUP1 REVERT JUMPDEST POP PUSH1 0x4 CALLDATASIZE LT PUSH2 0x4C JUMPI PUSH1 0x0 CALLDATALOAD PUSH1 0xE0 SHR DUP1 PUSH4 0xB791430 EQ PUSH2 0x51 JUMPI DUP1 PUSH4 0x83372B5B EQ PUSH2 0x86 JUMPI DUP1 PUSH4 0xB3CEA217 EQ PUSH2 0xA2 JUMPI DUP1 PUSH4 0xDAE7A13C EQ PUSH2 0xC0 JUMPI JUMPDEST PUSH1 0x0 DUP1 REVERT JUMPDEST PUSH2 0x6B PUSH1 0x4 DUP1 CALLDATASIZE SUB DUP2 ADD SWAP1 PUSH2 0x66 SWAP2 SWAP1 PUSH2 0x2DE JUMP JUMPDEST PUSH2 0xF0 JUMP JUMPDEST PUSH1 0x40 MLOAD PUSH2 0x7D SWAP7 SWAP6 SWAP5 SWAP4 SWAP3 SWAP2 SWAP1 PUSH2 0x3D1 JUMP JUMPDEST PUSH1 0x40 MLOAD DUP1 SWAP2 SUB SWAP1 RETURN JUMPDEST PUSH2 0xA0 PUSH1 0x4 DUP1 CALLDATASIZE SUB DUP2 ADD SWAP1 PUSH2 0x9B SWAP2 SWAP1 PUSH2 0x30B JUMP JUMPDEST PUSH2 0x1D4 JUMP JUMPDEST STOP JUMPDEST PUSH2 0xAA PUSH2 0x1D9 JUMP JUMPDEST PUSH1 0x40 MLOAD PUSH2 0xB7 SWAP2 SWAP1 PUSH2 0x439 JUMP JUMPDEST PUSH1 0x40 MLOAD DUP1 SWAP2 SUB SWAP1 RETURN JUMPDEST PUSH2 0xDA PUSH1 0x4 DUP1 CALLDATASIZE SUB DUP2 ADD SWAP1 PUSH2 0xD5 SWAP2 SWAP1 PUSH2 0x29E JUMP JUMPDEST PUSH2 0x1DF JUMP JUMPDEST PUSH1 0x40 MLOAD PUSH2 0xE7 SWAP2 SWAP1 PUSH2 0x439 JUMP JUMPDEST PUSH1 0x40 MLOAD DUP1 SWAP2 SUB SWAP1 RETURN JUMPDEST PUSH1 0x0 PUSH1 0x20 MSTORE DUP1 PUSH1 0x0 MSTORE PUSH1 0x40 PUSH1 0x0 KECCAK256 PUSH1 0x0 SWAP2 POP SWAP1 POP DUP1 PUSH1 0x0 ADD PUSH1 0x0 SWAP1 SLOAD SWAP1 PUSH2 0x100 EXP SWAP1 DIV PUSH20 0xFFFFFFFFFFFFFFFFFFFFFFFFFFFFFFFFFFFFFFFF AND SWAP1 DUP1 PUSH1 0x1 ADD SLOAD SWAP1 DUP1 PUSH1 0x2 ADD DUP1 SLOAD PUSH2 0x13F SWAP1 PUSH2 0x544 JUMP JUMPDEST DUP1 PUSH1 0x1F ADD PUSH1 0x20 DUP1 SWAP2 DIV MUL PUSH1 0x20 ADD PUSH1 0x40 MLOAD SWAP1 DUP2 ADD PUSH1 0x40 MSTORE DUP1 SWAP3 SWAP2 SWAP1 DUP2 DUP2 MSTORE PUSH1 0x20 ADD DUP3 DUP1 SLOAD PUSH2 0x16B SWAP1 PUSH2 0x544 JUMP JUMPDEST DUP1 ISZERO PUSH2 0x1B8 JUMPI DUP1 PUSH1 0x1F LT PUSH2 0x18D JUMPI PUSH2 0x100 DUP1 DUP4 SLOAD DIV MUL DUP4 MSTORE SWAP2 PUSH1 0x20 ADD SWAP2 PUSH2 0x1B8 JUMP JUMPDEST DUP3 ADD SWAP2 SWAP1 PUSH1 0x0 MSTORE PUSH1 0x20 PUSH1 0x0 KECCAK256 SWAP1 JUMPDEST DUP2 SLOAD DUP2 MSTORE SWAP1 PUSH1 0x1 ADD SWAP1 PUSH1 0x20 ADD DUP1 DUP4 GT PUSH2 0x19B JUMPI DUP3 SWAP1 SUB PUSH1 0x1F AND DUP3 ADD SWAP2 JUMPDEST POP POP POP POP POP SWAP1 DUP1 PUSH1 0x3 ADD SLOAD SWAP1 DUP1 PUSH1 0x4 ADD SLOAD SWAP1 DUP1 PUSH1 0x5 ADD SLOAD SWAP1 POP DUP7 JUMP JUMPDEST POP POP POP JUMP JUMPDEST PUSH1 0x2 SLOAD DUP2 JUMP JUMPDEST PUSH1 0x1 PUSH1 0x20 MSTORE DUP2 PUSH1 0x0 MSTORE PUSH1 0x40 PUSH1 0x0 KECCAK256 PUSH1 0x20 MSTORE DUP1 PUSH1 0x0 MSTORE PUSH1 0x40 PUSH1 0x0 KECCAK256 PUSH1 0x0 SWAP2 POP SWAP2 POP POP SLOAD DUP2 JUMP JUMPDEST PUSH1 0x0 PUSH2 0x217 PUSH2 0x212 DUP5 PUSH2 0x479 JUMP JUMPDEST PUSH2 0x454 JUMP JUMPDEST SWAP1 POP DUP3 DUP2 MSTORE PUSH1 0x20 DUP2 ADD DUP5 DUP5 DUP5 ADD GT ISZERO PUSH2 0x233 JUMPI PUSH2 0x232 PUSH2 0x60A JUMP JUMPDEST JUMPDEST PUSH2 0x23E DUP5 DUP3 DUP6 PUSH2 0x502 JUMP JUMPDEST POP SWAP4 SWAP3 POP POP POP JUMP JUMPDEST PUSH1 0x0 DUP2 CALLDATALOAD SWAP1 POP PUSH2 0x255 DUP2 PUSH2 0x62A JUMP JUMPDEST SWAP3 SWAP2 POP POP JUMP JUMPDEST PUSH1 0x0 DUP3 PUSH1 0x1F DUP4 ADD SLT PUSH2 0x270 JUMPI PUSH2 0x26F PUSH2 0x605 JUMP JUMPDEST JUMPDEST DUP2 CALLDATALOAD PUSH2 0x280 DUP5 DUP3 PUSH1 0x20 DUP7 ADD PUSH2 0x204 JUMP JUMPDEST SWAP2 POP POP SWAP3 SWAP2 POP POP JUMP JUMPDEST PUSH1 0x0 DUP2 CALLDATALOAD SWAP1 POP PUSH2 0x298 DUP2 PUSH2 0x641 JUMP JUMPDEST SWAP3 SWAP2 POP POP JUMP JUMPDEST PUSH1 0x0 DUP1 PUSH1 0x40 DUP4 DUP6 SUB SLT ISZERO PUSH2 0x2B5 JUMPI PUSH2 0x2B4 PUSH2 0x614 JUMP JUMPDEST JUMPDEST PUSH1 0x0 PUSH2 0x2C3 DUP6 DUP3 DUP7 ADD PUSH2 0x246 JUMP JUMPDEST SWAP3 POP POP PUSH1 0x20 PUSH2 0x2D4 DUP6 DUP3 DUP7 ADD PUSH2 0x289 JUMP JUMPDEST SWAP2 POP POP SWAP3 POP SWAP3 SWAP1 POP JUMP JUMPDEST PUSH1 0x0 PUSH1 0x20 DUP3 DUP5 SUB SLT ISZERO PUSH2 0x2F4 JUMPI PUSH2 0x2F3 PUSH2 0x614 JUMP JUMPDEST JUMPDEST PUSH1 0x0 PUSH2 0x302 DUP5 DUP3 DUP6 ADD PUSH2 0x289 JUMP JUMPDEST SWAP2 POP POP SWAP3 SWAP2 POP POP JUMP JUMPDEST PUSH1 0x0 DUP1 PUSH1 0x0 PUSH1 0x60 DUP5 DUP7 SUB SLT ISZERO PUSH2 0x324 JUMPI PUSH2 0x323 PUSH2 0x614 JUMP JUMPDEST JUMPDEST PUSH1 0x0 PUSH2 0x332 DUP7 DUP3 DUP8 ADD PUSH2 0x289 JUMP JUMPDEST SWAP4 POP POP PUSH1 0x20 DUP5 ADD CALLDATALOAD PUSH8 0xFFFFFFFFFFFFFFFF DUP2 GT ISZERO PUSH2 0x353 JUMPI PUSH2 0x352 PUSH2 0x60F JUMP JUMPDEST JUMPDEST PUSH2 0x35F DUP7 DUP3 DUP8 ADD PUSH2 0x25B JUMP JUMPDEST SWAP3 POP POP PUSH1 0x40 PUSH2 0x370 DUP7 DUP3 DUP8 ADD PUSH2 0x289 JUMP JUMPDEST SWAP2 POP POP SWAP3 POP SWAP3 POP SWAP3 JUMP JUMPDEST PUSH2 0x383 DUP2 PUSH2 0x4C6 JUMP JUMPDEST DUP3 MSTORE POP POP JUMP JUMPDEST PUSH1 0x0 PUSH2 0x394 DUP3 PUSH2 0x4AA JUMP JUMPDEST PUSH2 0x39E DUP2 DUP6 PUSH2 0x4B5 JUMP JUMPDEST SWAP4 POP PUSH2 0x3AE DUP2 DUP6 PUSH1 0x20 DUP7 ADD PUSH2 0x511 JUMP JUMPDEST PUSH2 0x3B7 DUP2 PUSH2 0x619 JUMP JUMPDEST DUP5 ADD SWAP2 POP POP SWAP3 SWAP2 POP POP JUMP JUMPDEST PUSH2 0x3CB DUP2 PUSH2 0x4F8 JUMP JUMPDEST DUP3 MSTORE POP POP JUMP JUMPDEST PUSH1 0x0 PUSH1 0xC0 DUP3 ADD SWAP1 POP PUSH2 0x3E6 PUSH1 0x0 DUP4 ADD DUP10 PUSH2 0x37A JUMP JUMPDEST PUSH2 0x3F3 PUSH1 0x20 DUP4 ADD DUP9 PUSH2 0x3C2 JUMP JUMPDEST DUP2 DUP2 SUB PUSH1 0x40 DUP4 ADD MSTORE PUSH2 0x405 DUP2 DUP8 PUSH2 0x389 JUMP JUMPDEST SWAP1 POP PUSH2 0x414 PUSH1 0x60 DUP4 ADD DUP7 PUSH2 0x3C2 JUMP JUMPDEST PUSH2 0x421 PUSH1 0x80 DUP4 ADD DUP6 PUSH2 0x3C2 JUMP JUMPDEST PUSH2 0x42E PUSH1 0xA0 DUP4 ADD DUP5 PUSH2 0x3C2 JUMP JUMPDEST SWAP8 SWAP7 POP POP POP POP POP POP POP JUMP JUMPDEST PUSH1 0x0 PUSH1 0x20 DUP3 ADD SWAP1 POP PUSH2 0x44E PUSH1 0x0 DUP4 ADD DUP5 PUSH2 0x3C2 JUMP JUMPDEST SWAP3 SWAP2 POP POP JUMP JUMPDEST PUSH1 0x0 PUSH2 0x45E PUSH2 0x46F JUMP JUMPDEST SWAP1 POP PUSH2 0x46A DUP3 DUP3 PUSH2 0x576 JUMP JUMPDEST SWAP2 SWAP1 POP JUMP JUMPDEST PUSH1 0x0 PUSH1 0x40 MLOAD SWAP1 POP SWAP1 JUMP JUMPDEST PUSH1 0x0 PUSH8 0xFFFFFFFFFFFFFFFF DUP3 GT ISZERO PUSH2 0x494 JUMPI PUSH2 0x493 PUSH2 0x5D6 JUMP JUMPDEST JUMPDEST PUSH2 0x49D DUP3 PUSH2 0x619 JUMP JUMPDEST SWAP1 POP PUSH1 0x20 DUP2 ADD SWAP1 POP SWAP2 SWAP1 POP JUMP JUMPDEST PUSH1 0x0 DUP2 MLOAD SWAP1 POP SWAP2 SWAP1 POP JUMP JUMPDEST PUSH1 0x0 DUP3 DUP3 MSTORE PUSH1 0x20 DUP3 ADD SWAP1 POP SWAP3 SWAP2 POP POP JUMP JUMPDEST PUSH1 0x0 PUSH2 0x4D1 DUP3 PUSH2 0x4D8 JUMP JUMPDEST SWAP1 POP SWAP2 SWAP1 POP JUMP JUMPDEST PUSH1 0x0 PUSH20 0xFFFFFFFFFFFFFFFFFFFFFFFFFFFFFFFFFFFFFFFF DUP3 AND SWAP1 POP SWAP2 SWAP1 POP JUMP JUMPDEST PUSH1 0x0 DUP2 SWAP1 POP SWAP2 SWAP1 POP JUMP JUMPDEST DUP3 DUP2 DUP4 CALLDATACOPY PUSH1 0x0 DUP4 DUP4 ADD MSTORE POP POP POP JUMP JUMPDEST PUSH1 0x0 JUMPDEST DUP4 DUP2 LT ISZERO PUSH2 0x52F JUMPI DUP1 DUP3 ADD MLOAD DUP2 DUP5 ADD MSTORE PUSH1 0x20 DUP2 ADD SWAP1 POP PUSH2 0x514 JUMP JUMPDEST DUP4 DUP2 GT ISZERO PUSH2 0x53E JUMPI PUSH1 0x0 DUP5 DUP5 ADD MSTORE JUMPDEST POP POP POP POP JUMP JUMPDEST PUSH1 0x0 PUSH1 0x2 DUP3 DIV SWAP1 POP PUSH1 0x1 DUP3 AND DUP1 PUSH2 0x55C JUMPI PUSH1 0x7F DUP3 AND SWAP2 POP JUMPDEST PUSH1 0x20 DUP3 LT DUP2 EQ ISZERO PUSH2 0x570 JUMPI PUSH2 0x56F PUSH2 0x5A7 JUMP JUMPDEST JUMPDEST POP SWAP2 SWAP1 POP JUMP JUMPDEST PUSH2 0x57F DUP3 PUSH2 0x619 JUMP JUMPDEST DUP2 ADD DUP2 DUP2 LT PUSH8 0xFFFFFFFFFFFFFFFF DUP3 GT OR ISZERO PUSH2 0x59E JUMPI PUSH2 0x59D PUSH2 0x5D6 JUMP JUMPDEST JUMPDEST DUP1 PUSH1 0x40 MSTORE POP POP POP JUMP JUMPDEST PUSH32 0x4E487B7100000000000000000000000000000000000000000000000000000000 PUSH1 0x0 MSTORE PUSH1 0x22 PUSH1 0x4 MSTORE PUSH1 0x24 PUSH1 0x0 REVERT JUMPDEST PUSH32 0x4E487B7100000000000000000000000000000000000000000000000000000000 PUSH1 0x0 MSTORE PUSH1 0x41 PUSH1 0x4 MSTORE PUSH1 0x24 PUSH1 0x0 REVERT JUMPDEST PUSH1 0x0 DUP1 REVERT JUMPDEST PUSH1 0x0 DUP1 REVERT JUMPDEST PUSH1 0x0 DUP1 REVERT JUMPDEST PUSH1 0x0 DUP1 REVERT JUMPDEST PUSH1 0x0 PUSH1 0x1F NOT PUSH1 0x1F DUP4 ADD AND SWAP1 POP SWAP2 SWAP1 POP JUMP JUMPDEST PUSH2 0x633 DUP2 PUSH2 0x4C6 JUMP JUMPDEST DUP2 EQ PUSH2 0x63E JUMPI PUSH1 0x0 DUP1 REVERT JUMPDEST POP JUMP JUMPDEST PUSH2 0x64A DUP2 PUSH2 0x4F8 JUMP JUMPDEST DUP2 EQ PUSH2 0x655 JUMPI PUSH1 0x0 DUP1 REVERT JUMPDEST POP JUMP INVALID LOG2 PUSH5 0x6970667358 0x22 SLT KECCAK256 STOP SSTORE 0xE5 GT GASPRICE 0x2E SHR 0xC5 0x27 0xD6 0xAA MSTORE 0xD3 SWAP3 0xC7 SAR BYTE SELFDESTRUCT PUSH23 0x9A93AE9396F9A91B15B4AEC4D564736F6C634300080700 CALLER "
				},
				"gasEstimates": {
					"creation": {
						"codeDepositCost": "335600",
						"executionCost": "374",
						"totalCost": "335974"
					},
					"external": {
						"ID()": "2451",
						"createEvent(uint256,string,uint256)": "infinite",
						"events(uint256)": "infinite",
						"tickets(address,uint256)": "infinite"
					}
				},
				"methodIdentifiers": {
					"ID()": "b3cea217",
					"createEvent(uint256,string,uint256)": "83372b5b",
					"events(uint256)": "0b791430",
					"tickets(address,uint256)": "dae7a13c"
				}
			},
			"storageLayout": {
				"storage": [
					{
						"astId": 19,
						"contract": "contract/EventOrganizingContract.sol:EventOrganize",
						"label": "events",
						"offset": 0,
						"slot": "0",
						"type": "t_mapping(t_uint256,t_struct(Event)14_storage)"
					},
					{
						"astId": 25,
						"contract": "contract/EventOrganizingContract.sol:EventOrganize",
						"label": "tickets",
						"offset": 0,
						"slot": "1",
						"type": "t_mapping(t_address,t_mapping(t_uint256,t_uint256))"
					},
					{
						"astId": 27,
						"contract": "contract/EventOrganizingContract.sol:EventOrganize",
						"label": "ID",
						"offset": 0,
						"slot": "2",
						"type": "t_uint256"
					}
				],
				"types": {
					"t_address": {
						"encoding": "inplace",
						"label": "address",
						"numberOfBytes": "20"
					},
					"t_mapping(t_address,t_mapping(t_uint256,t_uint256))": {
						"encoding": "mapping",
						"key": "t_address",
						"label": "mapping(address => mapping(uint256 => uint256))",
						"numberOfBytes": "32",
						"value": "t_mapping(t_uint256,t_uint256)"
					},
					"t_mapping(t_uint256,t_struct(Event)14_storage)": {
						"encoding": "mapping",
						"key": "t_uint256",
						"label": "mapping(uint256 => struct EventOrganize.Event)",
						"numberOfBytes": "32",
						"value": "t_struct(Event)14_storage"
					},
					"t_mapping(t_uint256,t_uint256)": {
						"encoding": "mapping",
						"key": "t_uint256",
						"label": "mapping(uint256 => uint256)",
						"numberOfBytes": "32",
						"value": "t_uint256"
					},
					"t_string_storage": {
						"encoding": "bytes",
						"label": "string",
						"numberOfBytes": "32"
					},
					"t_struct(Event)14_storage": {
						"encoding": "inplace",
						"label": "struct EventOrganize.Event",
						"members": [
							{
								"astId": 3,
								"contract": "contract/EventOrganizingContract.sol:EventOrganize",
								"label": "organizer",
								"offset": 0,
								"slot": "0",
								"type": "t_address"
							},
							{
								"astId": 5,
								"contract": "contract/EventOrganizingContract.sol:EventOrganize",
								"label": "date",
								"offset": 0,
								"slot": "1",
								"type": "t_uint256"
							},
							{
								"astId": 7,
								"contract": "contract/EventOrganizingContract.sol:EventOrganize",
								"label": "name",
								"offset": 0,
								"slot": "2",
								"type": "t_string_storage"
							},
							{
								"astId": 9,
								"contract": "contract/EventOrganizingContract.sol:EventOrganize",
								"label": "price",
								"offset": 0,
								"slot": "3",
								"type": "t_uint256"
							},
							{
								"astId": 11,
								"contract": "contract/EventOrganizingContract.sol:EventOrganize",
								"label": "tiketCount",
								"offset": 0,
								"slot": "4",
								"type": "t_uint256"
							},
							{
								"astId": 13,
								"contract": "contract/EventOrganizingContract.sol:EventOrganize",
								"label": "tiketRemain",
								"offset": 0,
								"slot": "5",
								"type": "t_uint256"
							}
						],
						"numberOfBytes": "192"
					},
					"t_uint256": {
						"encoding": "inplace",
						"label": "uint256",
						"numberOfBytes": "32"
					}
				}
			},
			"userdoc": {
				"kind": "user",
				"methods": {},
				"version": 1
			}
		}
	}
}