{
	"contract/EventOrganizingContract.sol": {
		"EventOrganize": {
			"abi": [
				{
					"inputs": [],
					"name": "ID",
					"outputs": [
						{
							"internalType": "uint256",
							"name": "",
							"type": "uint256"
						}
					],
					"stateMutability": "view",
					"type": "function"
				},
				{
					"inputs": [
						{
							"internalType": "uint256",
							"name": "_quantity",
							"type": "uint256"
						},
						{
							"internalType": "uint256",
							"name": "_ID",
							"type": "uint256"
						}
					],
					"name": "buyTicket",
					"outputs": [
						{
							"internalType": "uint256",
							"name": "",
							"type": "uint256"
						}
					],
					"stateMutability": "payable",
					"type": "function"
				},
				{
					"inputs": [
						{
							"internalType": "uint256",
							"name": "_ID",
							"type": "uint256"
						}
					],
					"name": "cancelEvent",
					"outputs": [],
					"stateMutability": "nonpayable",
					"type": "function"
				},
				{
					"inputs": [
						{
							"internalType": "uint256",
							"name": "_date",
							"type": "uint256"
						},
						{
							"internalType": "string",
							"name": "_name",
							"type": "string"
						},
						{
							"internalType": "uint256",
							"name": "_price",
							"type": "uint256"
						},
						{
							"internalType": "uint256",
							"name": "_ticketCount",
							"type": "uint256"
						}
					],
					"name": "createEvent",
					"outputs": [],
					"stateMutability": "nonpayable",
					"type": "function"
				},
				{
					"inputs": [
						{
							"internalType": "uint256",
							"name": "",
							"type": "uint256"
						}
					],
					"name": "events",
					"outputs": [
						{
							"internalType": "address",
							"name": "organizer",
							"type": "address"
						},
						{
							"internalType": "uint256",
							"name": "date",
							"type": "uint256"
						},
						{
							"internalType": "string",
							"name": "name",
							"type": "string"
						},
						{
							"internalType": "uint256",
							"name": "price",
							"type": "uint256"
						},
						{
							"internalType": "uint256",
							"name": "ticketCount",
							"type": "uint256"
						},
						{
							"internalType": "uint256",
							"name": "ticketRemain",
							"type": "uint256"
						}
					],
					"stateMutability": "view",
					"type": "function"
				},
				{
					"inputs": [
						{
							"internalType": "address",
							"name": "",
							"type": "address"
						},
						{
							"internalType": "uint256",
							"name": "",
							"type": "uint256"
						}
					],
					"name": "tickets",
					"outputs": [
						{
							"internalType": "uint256",
							"name": "",
							"type": "uint256"
						}
					],
					"stateMutability": "view",
					"type": "function"
				},
				{
					"inputs": [
						{
							"internalType": "uint256",
							"name": "_quantity",
							"type": "uint256"
						},
						{
							"internalType": "uint256",
							"name": "_ID",
							"type": "uint256"
						},
						{
							"internalType": "address",
							"name": "_to",
							"type": "address"
						}
					],
					"name": "transferTicket",
					"outputs": [],
					"stateMutability": "nonpayable",
					"type": "function"
				}
			],
			"devdoc": {
				"kind": "dev",
				"methods": {},
				"version": 1
			},
			"evm": {
				"assembly": "    /* \"contract/EventOrganizingContract.sol\":62:1935  contract EventOrganize {\r... */\n  mstore(0x40, 0x80)\n  callvalue\n  dup1\n  iszero\n  tag_1\n  jumpi\n  0x00\n  dup1\n  revert\ntag_1:\n  pop\n  dataSize(sub_0)\n  dup1\n  dataOffset(sub_0)\n  0x00\n  codecopy\n  0x00\n  return\nstop\n\nsub_0: assembly {\n        /* \"contract/EventOrganizingContract.sol\":62:1935  contract EventOrganize {\r... */\n      mstore(0x40, 0x80)\n      jumpi(tag_1, lt(calldatasize, 0x04))\n      shr(0xe0, calldataload(0x00))\n      dup1\n      0xb3cea217\n      gt\n      tag_9\n      jumpi\n      dup1\n      0xb3cea217\n      eq\n      tag_5\n      jumpi\n      dup1\n      0xdae7a13c\n      eq\n      tag_6\n      jumpi\n      dup1\n      0xf086a09b\n      eq\n      tag_7\n      jumpi\n      dup1\n      0xf93694fb\n      eq\n      tag_8\n      jumpi\n      jump(tag_1)\n    tag_9:\n      dup1\n      0x0b791430\n      eq\n      tag_2\n      jumpi\n      dup1\n      0x298ec208\n      eq\n      tag_3\n      jumpi\n      dup1\n      0x3f69babd\n      eq\n      tag_4\n      jumpi\n    tag_1:\n      0x00\n      dup1\n      revert\n        /* \"contract/EventOrganizingContract.sol\":269:306  mapping (uint => Event) public events */\n    tag_2:\n      callvalue\n      dup1\n      iszero\n      tag_10\n      jumpi\n      0x00\n      dup1\n      revert\n    tag_10:\n      pop\n      tag_11\n      0x04\n      dup1\n      calldatasize\n      sub\n      dup2\n      add\n      swap1\n      tag_12\n      swap2\n      swap1\n      tag_13\n      jump\t// in\n    tag_12:\n      tag_14\n      jump\t// in\n    tag_11:\n      mload(0x40)\n      tag_15\n      swap7\n      swap6\n      swap5\n      swap4\n      swap3\n      swap2\n      swap1\n      tag_16\n      jump\t// in\n    tag_15:\n      mload(0x40)\n      dup1\n      swap2\n      sub\n      swap1\n      return\n        /* \"contract/EventOrganizingContract.sol\":774:1328  function buyTicket(uint _quantity, uint _ID) payable external returns(uint){\r... */\n    tag_3:\n      tag_17\n      0x04\n      dup1\n      calldatasize\n      sub\n      dup2\n      add\n      swap1\n      tag_18\n      swap2\n      swap1\n      tag_19\n      jump\t// in\n    tag_18:\n      tag_20\n      jump\t// in\n    tag_17:\n      mload(0x40)\n      tag_21\n      swap2\n      swap1\n      tag_22\n      jump\t// in\n    tag_21:\n      mload(0x40)\n      dup1\n      swap2\n      sub\n      swap1\n      return\n        /* \"contract/EventOrganizingContract.sol\":1795:1930  function cancelEvent(uint _ID) external{\r... */\n    tag_4:\n      callvalue\n      dup1\n      iszero\n      tag_23\n      jumpi\n      0x00\n      dup1\n      revert\n    tag_23:\n      pop\n      tag_24\n      0x04\n      dup1\n      calldatasize\n      sub\n      dup2\n      add\n      swap1\n      tag_25\n      swap2\n      swap1\n      tag_13\n      jump\t// in\n    tag_25:\n      tag_26\n      jump\t// in\n    tag_24:\n      stop\n        /* \"contract/EventOrganizingContract.sol\":377:391  uint public ID */\n    tag_5:\n      callvalue\n      dup1\n      iszero\n      tag_27\n      jumpi\n      0x00\n      dup1\n      revert\n    tag_27:\n      pop\n      tag_28\n      tag_29\n      jump\t// in\n    tag_28:\n      mload(0x40)\n      tag_30\n      swap2\n      swap1\n      tag_22\n      jump\t// in\n    tag_30:\n      mload(0x40)\n      dup1\n      swap2\n      sub\n      swap1\n      return\n        /* \"contract/EventOrganizingContract.sol\":313:370  mapping (address => mapping(uint => uint)) public tickets */\n    tag_6:\n      callvalue\n      dup1\n      iszero\n      tag_31\n      jumpi\n      0x00\n      dup1\n      revert\n    tag_31:\n      pop\n      tag_32\n      0x04\n      dup1\n      calldatasize\n      sub\n      dup2\n      add\n      swap1\n      tag_33\n      swap2\n      swap1\n      tag_34\n      jump\t// in\n    tag_33:\n      tag_35\n      jump\t// in\n    tag_32:\n      mload(0x40)\n      tag_36\n      swap2\n      swap1\n      tag_22\n      jump\t// in\n    tag_36:\n      mload(0x40)\n      dup1\n      swap2\n      sub\n      swap1\n      return\n        /* \"contract/EventOrganizingContract.sol\":1336:1787  function transferTicket(uint _quantity, uint _ID, address _to) external{\r... */\n    tag_7:\n      callvalue\n      dup1\n      iszero\n      tag_37\n      jumpi\n      0x00\n      dup1\n      revert\n    tag_37:\n      pop\n      tag_38\n      0x04\n      dup1\n      calldatasize\n      sub\n      dup2\n      add\n      swap1\n      tag_39\n      swap2\n      swap1\n      tag_40\n      jump\t// in\n    tag_39:\n      tag_41\n      jump\t// in\n    tag_38:\n      stop\n        /* \"contract/EventOrganizingContract.sol\":404:766  function createEvent(uint _date, string memory _name, uint _price, uint _ticketCount) external{\r... */\n    tag_8:\n      callvalue\n      dup1\n      iszero\n      tag_42\n      jumpi\n      0x00\n      dup1\n      revert\n    tag_42:\n      pop\n      tag_43\n      0x04\n      dup1\n      calldatasize\n      sub\n      dup2\n      add\n      swap1\n      tag_44\n      swap2\n      swap1\n      tag_45\n      jump\t// in\n    tag_44:\n      tag_46\n      jump\t// in\n    tag_43:\n      stop\n        /* \"contract/EventOrganizingContract.sol\":269:306  mapping (uint => Event) public events */\n    tag_14:\n      mstore(0x20, 0x00)\n      dup1\n      0x00\n      mstore\n      keccak256(0x00, 0x40)\n      0x00\n      swap2\n      pop\n      swap1\n      pop\n      dup1\n      0x00\n      add\n      0x00\n      swap1\n      sload\n      swap1\n      0x0100\n      exp\n      swap1\n      div\n      0xffffffffffffffffffffffffffffffffffffffff\n      and\n      swap1\n      dup1\n      0x01\n      add\n      sload\n      swap1\n      dup1\n      0x02\n      add\n      dup1\n      sload\n      tag_47\n      swap1\n      tag_48\n      jump\t// in\n    tag_47:\n      dup1\n      0x1f\n      add\n      0x20\n      dup1\n      swap2\n      div\n      mul\n      0x20\n      add\n      mload(0x40)\n      swap1\n      dup2\n      add\n      0x40\n      mstore\n      dup1\n      swap3\n      swap2\n      swap1\n      dup2\n      dup2\n      mstore\n      0x20\n      add\n      dup3\n      dup1\n      sload\n      tag_49\n      swap1\n      tag_48\n      jump\t// in\n    tag_49:\n      dup1\n      iszero\n      tag_50\n      jumpi\n      dup1\n      0x1f\n      lt\n      tag_51\n      jumpi\n      0x0100\n      dup1\n      dup4\n      sload\n      div\n      mul\n      dup4\n      mstore\n      swap2\n      0x20\n      add\n      swap2\n      jump(tag_50)\n    tag_51:\n      dup3\n      add\n      swap2\n      swap1\n      0x00\n      mstore\n      keccak256(0x00, 0x20)\n      swap1\n    tag_52:\n      dup2\n      sload\n      dup2\n      mstore\n      swap1\n      0x01\n      add\n      swap1\n      0x20\n      add\n      dup1\n      dup4\n      gt\n      tag_52\n      jumpi\n      dup3\n      swap1\n      sub\n      0x1f\n      and\n      dup3\n      add\n      swap2\n    tag_50:\n      pop\n      pop\n      pop\n      pop\n      pop\n      swap1\n      dup1\n      0x03\n      add\n      sload\n      swap1\n      dup1\n      0x04\n      add\n      sload\n      swap1\n      dup1\n      0x05\n      add\n      sload\n      swap1\n      pop\n      dup7\n      jump\t// out\n        /* \"contract/EventOrganizingContract.sol\":774:1328  function buyTicket(uint _quantity, uint _ID) payable external returns(uint){\r... */\n    tag_20:\n        /* \"contract/EventOrganizingContract.sol\":844:848  uint */\n      0x00\n        /* \"contract/EventOrganizingContract.sol\":860:880  Event storage _event */\n      dup1\n        /* \"contract/EventOrganizingContract.sol\":883:889  events */\n      0x00\n        /* \"contract/EventOrganizingContract.sol\":883:894  events[_ID] */\n      dup1\n        /* \"contract/EventOrganizingContract.sol\":890:893  _ID */\n      dup5\n        /* \"contract/EventOrganizingContract.sol\":883:894  events[_ID] */\n      dup2\n      mstore\n      0x20\n      add\n      swap1\n      dup2\n      mstore\n      0x20\n      add\n      0x00\n      keccak256\n        /* \"contract/EventOrganizingContract.sol\":860:894  Event storage _event = events[_ID] */\n      swap1\n      pop\n        /* \"contract/EventOrganizingContract.sol\":928:929  0 */\n      0x00\n        /* \"contract/EventOrganizingContract.sol\":913:919  _event */\n      dup2\n        /* \"contract/EventOrganizingContract.sol\":913:924  _event.date */\n      0x01\n      add\n      sload\n        /* \"contract/EventOrganizingContract.sol\":913:929  _event.date != 0 */\n      eq\n      iszero\n        /* \"contract/EventOrganizingContract.sol\":905:955  require(_event.date != 0, \"Event does not exist!\") */\n      tag_54\n      jumpi\n      mload(0x40)\n      0x08c379a000000000000000000000000000000000000000000000000000000000\n      dup2\n      mstore\n      0x04\n      add\n      tag_55\n      swap1\n      tag_56\n      jump\t// in\n    tag_55:\n      mload(0x40)\n      dup1\n      swap2\n      sub\n      swap1\n      revert\n    tag_54:\n        /* \"contract/EventOrganizingContract.sol\":988:1003  block.timestamp */\n      timestamp\n        /* \"contract/EventOrganizingContract.sol\":974:980  _event */\n      dup2\n        /* \"contract/EventOrganizingContract.sol\":974:985  _event.date */\n      0x01\n      add\n      sload\n        /* \"contract/EventOrganizingContract.sol\":974:1003  _event.date > block.timestamp */\n      gt\n        /* \"contract/EventOrganizingContract.sol\":966:1031  require(_event.date > block.timestamp, \"Event booking is close!\") */\n      tag_57\n      jumpi\n      mload(0x40)\n      0x08c379a000000000000000000000000000000000000000000000000000000000\n      dup2\n      mstore\n      0x04\n      add\n      tag_58\n      swap1\n      tag_59\n      jump\t// in\n    tag_58:\n      mload(0x40)\n      dup1\n      swap2\n      sub\n      swap1\n      revert\n    tag_57:\n        /* \"contract/EventOrganizingContract.sol\":1080:1089  msg.value */\n      callvalue\n        /* \"contract/EventOrganizingContract.sol\":1066:1075  _quantity */\n      dup5\n        /* \"contract/EventOrganizingContract.sol\":1051:1057  _event */\n      dup3\n        /* \"contract/EventOrganizingContract.sol\":1051:1063  _event.price */\n      0x03\n      add\n      sload\n        /* \"contract/EventOrganizingContract.sol\":1051:1075  _event.price * _quantity */\n      tag_60\n      swap2\n      swap1\n      tag_61\n      jump\t// in\n    tag_60:\n        /* \"contract/EventOrganizingContract.sol\":1050:1089  (_event.price * _quantity) == msg.value */\n      eq\n        /* \"contract/EventOrganizingContract.sol\":1042:1115  require((_event.price * _quantity) == msg.value, \"Ethers is not enough!\") */\n      tag_62\n      jumpi\n      mload(0x40)\n      0x08c379a000000000000000000000000000000000000000000000000000000000\n      dup2\n      mstore\n      0x04\n      add\n      tag_63\n      swap1\n      tag_64\n      jump\t// in\n    tag_63:\n      mload(0x40)\n      dup1\n      swap2\n      sub\n      swap1\n      revert\n    tag_62:\n        /* \"contract/EventOrganizingContract.sol\":1157:1166  _quantity */\n      dup4\n        /* \"contract/EventOrganizingContract.sol\":1134:1140  _event */\n      dup2\n        /* \"contract/EventOrganizingContract.sol\":1134:1153  _event.ticketRemain */\n      0x05\n      add\n      sload\n        /* \"contract/EventOrganizingContract.sol\":1134:1166  _event.ticketRemain >= _quantity */\n      lt\n      iszero\n        /* \"contract/EventOrganizingContract.sol\":1126:1200  require(_event.ticketRemain >= _quantity, \"We don't have enough tickets!\") */\n      tag_65\n      jumpi\n      mload(0x40)\n      0x08c379a000000000000000000000000000000000000000000000000000000000\n      dup2\n      mstore\n      0x04\n      add\n      tag_66\n      swap1\n      tag_67\n      jump\t// in\n    tag_66:\n      mload(0x40)\n      dup1\n      swap2\n      sub\n      swap1\n      revert\n    tag_65:\n        /* \"contract/EventOrganizingContract.sol\":1234:1243  _quantity */\n      dup4\n        /* \"contract/EventOrganizingContract.sol\":1211:1217  _event */\n      dup2\n        /* \"contract/EventOrganizingContract.sol\":1211:1230  _event.ticketRemain */\n      0x05\n      add\n      0x00\n        /* \"contract/EventOrganizingContract.sol\":1211:1243  _event.ticketRemain -= _quantity */\n      dup3\n      dup3\n      sload\n      tag_68\n      swap2\n      swap1\n      tag_69\n      jump\t// in\n    tag_68:\n      swap3\n      pop\n      pop\n      dup2\n      swap1\n      sstore\n      pop\n        /* \"contract/EventOrganizingContract.sol\":1282:1291  _quantity */\n      dup4\n        /* \"contract/EventOrganizingContract.sol\":1254:1261  tickets */\n      0x01\n        /* \"contract/EventOrganizingContract.sol\":1254:1273  tickets[msg.sender] */\n      0x00\n        /* \"contract/EventOrganizingContract.sol\":1262:1272  msg.sender */\n      caller\n        /* \"contract/EventOrganizingContract.sol\":1254:1273  tickets[msg.sender] */\n      0xffffffffffffffffffffffffffffffffffffffff\n      and\n      0xffffffffffffffffffffffffffffffffffffffff\n      and\n      dup2\n      mstore\n      0x20\n      add\n      swap1\n      dup2\n      mstore\n      0x20\n      add\n      0x00\n      keccak256\n        /* \"contract/EventOrganizingContract.sol\":1254:1278  tickets[msg.sender][_ID] */\n      0x00\n        /* \"contract/EventOrganizingContract.sol\":1274:1277  _ID */\n      dup6\n        /* \"contract/EventOrganizingContract.sol\":1254:1278  tickets[msg.sender][_ID] */\n      dup2\n      mstore\n      0x20\n      add\n      swap1\n      dup2\n      mstore\n      0x20\n      add\n      0x00\n      keccak256\n      0x00\n        /* \"contract/EventOrganizingContract.sol\":1254:1291  tickets[msg.sender][_ID] += _quantity */\n      dup3\n      dup3\n      sload\n      tag_70\n      swap2\n      swap1\n      tag_71\n      jump\t// in\n    tag_70:\n      swap3\n      pop\n      pop\n      dup2\n      swap1\n      sstore\n      pop\n        /* \"contract/EventOrganizingContract.sol\":1309:1315  _event */\n      dup1\n        /* \"contract/EventOrganizingContract.sol\":1309:1320  _event.date */\n      0x01\n      add\n      sload\n        /* \"contract/EventOrganizingContract.sol\":1302:1320  return _event.date */\n      swap2\n      pop\n      pop\n        /* \"contract/EventOrganizingContract.sol\":774:1328  function buyTicket(uint _quantity, uint _ID) payable external returns(uint){\r... */\n      swap3\n      swap2\n      pop\n      pop\n      jump\t// out\n        /* \"contract/EventOrganizingContract.sol\":1795:1930  function cancelEvent(uint _ID) external{\r... */\n    tag_26:\n        /* \"contract/EventOrganizingContract.sol\":1878:1888  msg.sender */\n      caller\n        /* \"contract/EventOrganizingContract.sol\":1853:1888  events[_ID].organizer == msg.sender */\n      0xffffffffffffffffffffffffffffffffffffffff\n      and\n        /* \"contract/EventOrganizingContract.sol\":1853:1859  events */\n      0x00\n        /* \"contract/EventOrganizingContract.sol\":1853:1864  events[_ID] */\n      dup1\n        /* \"contract/EventOrganizingContract.sol\":1860:1863  _ID */\n      dup4\n        /* \"contract/EventOrganizingContract.sol\":1853:1864  events[_ID] */\n      dup2\n      mstore\n      0x20\n      add\n      swap1\n      dup2\n      mstore\n      0x20\n      add\n      0x00\n      keccak256\n        /* \"contract/EventOrganizingContract.sol\":1853:1874  events[_ID].organizer */\n      0x00\n      add\n      0x00\n      swap1\n      sload\n      swap1\n      0x0100\n      exp\n      swap1\n      div\n      0xffffffffffffffffffffffffffffffffffffffff\n      and\n        /* \"contract/EventOrganizingContract.sol\":1853:1888  events[_ID].organizer == msg.sender */\n      0xffffffffffffffffffffffffffffffffffffffff\n      and\n      eq\n        /* \"contract/EventOrganizingContract.sol\":1845:1922  require(events[_ID].organizer == msg.sender, \"You can not cancel this event\") */\n      tag_73\n      jumpi\n      mload(0x40)\n      0x08c379a000000000000000000000000000000000000000000000000000000000\n      dup2\n      mstore\n      0x04\n      add\n      tag_74\n      swap1\n      tag_75\n      jump\t// in\n    tag_74:\n      mload(0x40)\n      dup1\n      swap2\n      sub\n      swap1\n      revert\n    tag_73:\n        /* \"contract/EventOrganizingContract.sol\":1795:1930  function cancelEvent(uint _ID) external{\r... */\n      pop\n      jump\t// out\n        /* \"contract/EventOrganizingContract.sol\":377:391  uint public ID */\n    tag_29:\n      sload(0x02)\n      dup2\n      jump\t// out\n        /* \"contract/EventOrganizingContract.sol\":313:370  mapping (address => mapping(uint => uint)) public tickets */\n    tag_35:\n      mstore(0x20, 0x01)\n      dup2\n      0x00\n      mstore\n      mstore(0x20, keccak256(0x00, 0x40))\n      dup1\n      0x00\n      mstore\n      keccak256(0x00, 0x40)\n      0x00\n      swap2\n      pop\n      swap2\n      pop\n      pop\n      sload\n      dup2\n      jump\t// out\n        /* \"contract/EventOrganizingContract.sol\":1336:1787  function transferTicket(uint _quantity, uint _ID, address _to) external{\r... */\n    tag_41:\n        /* \"contract/EventOrganizingContract.sol\":1418:1438  Event storage _event */\n      0x00\n        /* \"contract/EventOrganizingContract.sol\":1441:1447  events */\n      dup1\n        /* \"contract/EventOrganizingContract.sol\":1441:1452  events[_ID] */\n      0x00\n        /* \"contract/EventOrganizingContract.sol\":1448:1451  _ID */\n      dup5\n        /* \"contract/EventOrganizingContract.sol\":1441:1452  events[_ID] */\n      dup2\n      mstore\n      0x20\n      add\n      swap1\n      dup2\n      mstore\n      0x20\n      add\n      0x00\n      keccak256\n        /* \"contract/EventOrganizingContract.sol\":1418:1452  Event storage _event = events[_ID] */\n      swap1\n      pop\n        /* \"contract/EventOrganizingContract.sol\":1486:1487  0 */\n      0x00\n        /* \"contract/EventOrganizingContract.sol\":1471:1477  _event */\n      dup2\n        /* \"contract/EventOrganizingContract.sol\":1471:1482  _event.date */\n      0x01\n      add\n      sload\n        /* \"contract/EventOrganizingContract.sol\":1471:1487  _event.date != 0 */\n      eq\n      iszero\n        /* \"contract/EventOrganizingContract.sol\":1463:1513  require(_event.date != 0, \"Event does not exist!\") */\n      tag_77\n      jumpi\n      mload(0x40)\n      0x08c379a000000000000000000000000000000000000000000000000000000000\n      dup2\n      mstore\n      0x04\n      add\n      tag_78\n      swap1\n      tag_56\n      jump\t// in\n    tag_78:\n      mload(0x40)\n      dup1\n      swap2\n      sub\n      swap1\n      revert\n    tag_77:\n        /* \"contract/EventOrganizingContract.sol\":1546:1561  block.timestamp */\n      timestamp\n        /* \"contract/EventOrganizingContract.sol\":1532:1538  _event */\n      dup2\n        /* \"contract/EventOrganizingContract.sol\":1532:1543  _event.date */\n      0x01\n      add\n      sload\n        /* \"contract/EventOrganizingContract.sol\":1532:1561  _event.date > block.timestamp */\n      gt\n        /* \"contract/EventOrganizingContract.sol\":1524:1588  require(_event.date > block.timestamp, \"Event already occured!\") */\n      tag_79\n      jumpi\n      mload(0x40)\n      0x08c379a000000000000000000000000000000000000000000000000000000000\n      dup2\n      mstore\n      0x04\n      add\n      tag_80\n      swap1\n      tag_81\n      jump\t// in\n    tag_80:\n      mload(0x40)\n      dup1\n      swap2\n      sub\n      swap1\n      revert\n    tag_79:\n        /* \"contract/EventOrganizingContract.sol\":1635:1644  _quantity */\n      dup4\n        /* \"contract/EventOrganizingContract.sol\":1607:1614  tickets */\n      0x01\n        /* \"contract/EventOrganizingContract.sol\":1607:1626  tickets[msg.sender] */\n      0x00\n        /* \"contract/EventOrganizingContract.sol\":1615:1625  msg.sender */\n      caller\n        /* \"contract/EventOrganizingContract.sol\":1607:1626  tickets[msg.sender] */\n      0xffffffffffffffffffffffffffffffffffffffff\n      and\n      0xffffffffffffffffffffffffffffffffffffffff\n      and\n      dup2\n      mstore\n      0x20\n      add\n      swap1\n      dup2\n      mstore\n      0x20\n      add\n      0x00\n      keccak256\n        /* \"contract/EventOrganizingContract.sol\":1607:1631  tickets[msg.sender][_ID] */\n      0x00\n        /* \"contract/EventOrganizingContract.sol\":1627:1630  _ID */\n      dup6\n        /* \"contract/EventOrganizingContract.sol\":1607:1631  tickets[msg.sender][_ID] */\n      dup2\n      mstore\n      0x20\n      add\n      swap1\n      dup2\n      mstore\n      0x20\n      add\n      0x00\n      keccak256\n      sload\n        /* \"contract/EventOrganizingContract.sol\":1607:1644  tickets[msg.sender][_ID] >= _quantity */\n      lt\n      iszero\n        /* \"contract/EventOrganizingContract.sol\":1599:1690  require(tickets[msg.sender][_ID] >= _quantity, \"You don't have enough ticket to transfer!\") */\n      tag_82\n      jumpi\n      mload(0x40)\n      0x08c379a000000000000000000000000000000000000000000000000000000000\n      dup2\n      mstore\n      0x04\n      add\n      tag_83\n      swap1\n      tag_84\n      jump\t// in\n    tag_83:\n      mload(0x40)\n      dup1\n      swap2\n      sub\n      swap1\n      revert\n    tag_82:\n        /* \"contract/EventOrganizingContract.sol\":1729:1738  _quantity */\n      dup4\n        /* \"contract/EventOrganizingContract.sol\":1701:1708  tickets */\n      0x01\n        /* \"contract/EventOrganizingContract.sol\":1701:1720  tickets[msg.sender] */\n      0x00\n        /* \"contract/EventOrganizingContract.sol\":1709:1719  msg.sender */\n      caller\n        /* \"contract/EventOrganizingContract.sol\":1701:1720  tickets[msg.sender] */\n      0xffffffffffffffffffffffffffffffffffffffff\n      and\n      0xffffffffffffffffffffffffffffffffffffffff\n      and\n      dup2\n      mstore\n      0x20\n      add\n      swap1\n      dup2\n      mstore\n      0x20\n      add\n      0x00\n      keccak256\n        /* \"contract/EventOrganizingContract.sol\":1701:1725  tickets[msg.sender][_ID] */\n      0x00\n        /* \"contract/EventOrganizingContract.sol\":1721:1724  _ID */\n      dup6\n        /* \"contract/EventOrganizingContract.sol\":1701:1725  tickets[msg.sender][_ID] */\n      dup2\n      mstore\n      0x20\n      add\n      swap1\n      dup2\n      mstore\n      0x20\n      add\n      0x00\n      keccak256\n      0x00\n        /* \"contract/EventOrganizingContract.sol\":1701:1738  tickets[msg.sender][_ID] -= _quantity */\n      dup3\n      dup3\n      sload\n      tag_85\n      swap2\n      swap1\n      tag_69\n      jump\t// in\n    tag_85:\n      swap3\n      pop\n      pop\n      dup2\n      swap1\n      sstore\n      pop\n        /* \"contract/EventOrganizingContract.sol\":1770:1779  _quantity */\n      dup4\n        /* \"contract/EventOrganizingContract.sol\":1749:1756  tickets */\n      0x01\n        /* \"contract/EventOrganizingContract.sol\":1749:1761  tickets[_to] */\n      0x00\n        /* \"contract/EventOrganizingContract.sol\":1757:1760  _to */\n      dup5\n        /* \"contract/EventOrganizingContract.sol\":1749:1761  tickets[_to] */\n      0xffffffffffffffffffffffffffffffffffffffff\n      and\n      0xffffffffffffffffffffffffffffffffffffffff\n      and\n      dup2\n      mstore\n      0x20\n      add\n      swap1\n      dup2\n      mstore\n      0x20\n      add\n      0x00\n      keccak256\n        /* \"contract/EventOrganizingContract.sol\":1749:1766  tickets[_to][_ID] */\n      0x00\n        /* \"contract/EventOrganizingContract.sol\":1762:1765  _ID */\n      dup6\n        /* \"contract/EventOrganizingContract.sol\":1749:1766  tickets[_to][_ID] */\n      dup2\n      mstore\n      0x20\n      add\n      swap1\n      dup2\n      mstore\n      0x20\n      add\n      0x00\n      keccak256\n      0x00\n        /* \"contract/EventOrganizingContract.sol\":1749:1779  tickets[_to][_ID] += _quantity */\n      dup3\n      dup3\n      sload\n      tag_86\n      swap2\n      swap1\n      tag_71\n      jump\t// in\n    tag_86:\n      swap3\n      pop\n      pop\n      dup2\n      swap1\n      sstore\n      pop\n        /* \"contract/EventOrganizingContract.sol\":1407:1787  {\r... */\n      pop\n        /* \"contract/EventOrganizingContract.sol\":1336:1787  function transferTicket(uint _quantity, uint _ID, address _to) external{\r... */\n      pop\n      pop\n      pop\n      jump\t// out\n        /* \"contract/EventOrganizingContract.sol\":404:766  function createEvent(uint _date, string memory _name, uint _price, uint _ticketCount) external{\r... */\n    tag_46:\n        /* \"contract/EventOrganizingContract.sol\":525:540  block.timestamp */\n      timestamp\n        /* \"contract/EventOrganizingContract.sol\":517:522  _date */\n      dup5\n        /* \"contract/EventOrganizingContract.sol\":517:540  _date > block.timestamp */\n      gt\n        /* \"contract/EventOrganizingContract.sol\":509:579  require(_date > block.timestamp, \"You can organize event for future!\") */\n      tag_88\n      jumpi\n      mload(0x40)\n      0x08c379a000000000000000000000000000000000000000000000000000000000\n      dup2\n      mstore\n      0x04\n      add\n      tag_89\n      swap1\n      tag_90\n      jump\t// in\n    tag_89:\n      mload(0x40)\n      dup1\n      swap2\n      sub\n      swap1\n      revert\n    tag_88:\n        /* \"contract/EventOrganizingContract.sol\":613:614  0 */\n      0x00\n        /* \"contract/EventOrganizingContract.sol\":598:610  _ticketCount */\n      dup2\n        /* \"contract/EventOrganizingContract.sol\":598:614  _ticketCount > 0 */\n      gt\n        /* \"contract/EventOrganizingContract.sol\":590:652  require(_ticketCount > 0, \"Event must have atleast 1 ticket!\") */\n      tag_91\n      jumpi\n      mload(0x40)\n      0x08c379a000000000000000000000000000000000000000000000000000000000\n      dup2\n      mstore\n      0x04\n      add\n      tag_92\n      swap1\n      tag_93\n      jump\t// in\n    tag_92:\n      mload(0x40)\n      dup1\n      swap2\n      sub\n      swap1\n      revert\n    tag_91:\n        /* \"contract/EventOrganizingContract.sol\":676:743  Event(msg.sender, _date, _name, _price, _ticketCount, _ticketCount) */\n      mload(0x40)\n      dup1\n      0xc0\n      add\n      0x40\n      mstore\n      dup1\n        /* \"contract/EventOrganizingContract.sol\":682:692  msg.sender */\n      caller\n        /* \"contract/EventOrganizingContract.sol\":676:743  Event(msg.sender, _date, _name, _price, _ticketCount, _ticketCount) */\n      0xffffffffffffffffffffffffffffffffffffffff\n      and\n      dup2\n      mstore\n      0x20\n      add\n        /* \"contract/EventOrganizingContract.sol\":694:699  _date */\n      dup6\n        /* \"contract/EventOrganizingContract.sol\":676:743  Event(msg.sender, _date, _name, _price, _ticketCount, _ticketCount) */\n      dup2\n      mstore\n      0x20\n      add\n        /* \"contract/EventOrganizingContract.sol\":701:706  _name */\n      dup5\n        /* \"contract/EventOrganizingContract.sol\":676:743  Event(msg.sender, _date, _name, _price, _ticketCount, _ticketCount) */\n      dup2\n      mstore\n      0x20\n      add\n        /* \"contract/EventOrganizingContract.sol\":708:714  _price */\n      dup4\n        /* \"contract/EventOrganizingContract.sol\":676:743  Event(msg.sender, _date, _name, _price, _ticketCount, _ticketCount) */\n      dup2\n      mstore\n      0x20\n      add\n        /* \"contract/EventOrganizingContract.sol\":716:728  _ticketCount */\n      dup3\n        /* \"contract/EventOrganizingContract.sol\":676:743  Event(msg.sender, _date, _name, _price, _ticketCount, _ticketCount) */\n      dup2\n      mstore\n      0x20\n      add\n        /* \"contract/EventOrganizingContract.sol\":730:742  _ticketCount */\n      dup3\n        /* \"contract/EventOrganizingContract.sol\":676:743  Event(msg.sender, _date, _name, _price, _ticketCount, _ticketCount) */\n      dup2\n      mstore\n      pop\n        /* \"contract/EventOrganizingContract.sol\":663:669  events */\n      0x00\n        /* \"contract/EventOrganizingContract.sol\":663:673  events[ID] */\n      dup1\n        /* \"contract/EventOrganizingContract.sol\":670:672  ID */\n      sload(0x02)\n        /* \"contract/EventOrganizingContract.sol\":663:673  events[ID] */\n      dup2\n      mstore\n      0x20\n      add\n      swap1\n      dup2\n      mstore\n      0x20\n      add\n      0x00\n      keccak256\n        /* \"contract/EventOrganizingContract.sol\":663:743  events[ID] = Event(msg.sender, _date, _name, _price, _ticketCount, _ticketCount) */\n      0x00\n      dup3\n      add\n      mload\n      dup2\n      0x00\n      add\n      exp(0x0100, 0x00)\n      dup2\n      sload\n      dup2\n      0xffffffffffffffffffffffffffffffffffffffff\n      mul\n      not\n      and\n      swap1\n      dup4\n      0xffffffffffffffffffffffffffffffffffffffff\n      and\n      mul\n      or\n      swap1\n      sstore\n      pop\n      0x20\n      dup3\n      add\n      mload\n      dup2\n      0x01\n      add\n      sstore\n      0x40\n      dup3\n      add\n      mload\n      dup2\n      0x02\n      add\n      swap1\n      dup1\n      mload\n      swap1\n      0x20\n      add\n      swap1\n      tag_94\n      swap3\n      swap2\n      swap1\n      tag_95\n      jump\t// in\n    tag_94:\n      pop\n      0x60\n      dup3\n      add\n      mload\n      dup2\n      0x03\n      add\n      sstore\n      0x80\n      dup3\n      add\n      mload\n      dup2\n      0x04\n      add\n      sstore\n      0xa0\n      dup3\n      add\n      mload\n      dup2\n      0x05\n      add\n      sstore\n      swap1\n      pop\n      pop\n        /* \"contract/EventOrganizingContract.sol\":754:756  ID */\n      0x02\n      0x00\n        /* \"contract/EventOrganizingContract.sol\":754:758  ID++ */\n      dup2\n      sload\n      dup1\n      swap3\n      swap2\n      swap1\n      tag_96\n      swap1\n      tag_97\n      jump\t// in\n    tag_96:\n      swap2\n      swap1\n      pop\n      sstore\n      pop\n        /* \"contract/EventOrganizingContract.sol\":404:766  function createEvent(uint _date, string memory _name, uint _price, uint _ticketCount) external{\r... */\n      pop\n      pop\n      pop\n      pop\n      jump\t// out\n    tag_95:\n      dup3\n      dup1\n      sload\n      tag_98\n      swap1\n      tag_48\n      jump\t// in\n    tag_98:\n      swap1\n      0x00\n      mstore\n      keccak256(0x00, 0x20)\n      swap1\n      0x1f\n      add\n      0x20\n      swap1\n      div\n      dup2\n      add\n      swap3\n      dup3\n      tag_100\n      jumpi\n      0x00\n      dup6\n      sstore\n      jump(tag_99)\n    tag_100:\n      dup3\n      0x1f\n      lt\n      tag_101\n      jumpi\n      dup1\n      mload\n      not(0xff)\n      and\n      dup4\n      dup1\n      add\n      or\n      dup6\n      sstore\n      jump(tag_99)\n    tag_101:\n      dup3\n      dup1\n      add\n      0x01\n      add\n      dup6\n      sstore\n      dup3\n      iszero\n      tag_99\n      jumpi\n      swap2\n      dup3\n      add\n    tag_102:\n      dup3\n      dup2\n      gt\n      iszero\n      tag_103\n      jumpi\n      dup3\n      mload\n      dup3\n      sstore\n      swap2\n      0x20\n      add\n      swap2\n      swap1\n      0x01\n      add\n      swap1\n      jump(tag_102)\n    tag_103:\n    tag_99:\n      pop\n      swap1\n      pop\n      tag_104\n      swap2\n      swap1\n      tag_105\n      jump\t// in\n    tag_104:\n      pop\n      swap1\n      jump\t// out\n    tag_105:\n    tag_106:\n      dup1\n      dup3\n      gt\n      iszero\n      tag_107\n      jumpi\n      0x00\n      dup2\n      0x00\n      swap1\n      sstore\n      pop\n      0x01\n      add\n      jump(tag_106)\n    tag_107:\n      pop\n      swap1\n      jump\t// out\n        /* \"#utility.yul\":7:419   */\n    tag_109:\n        /* \"#utility.yul\":85:90   */\n      0x00\n        /* \"#utility.yul\":110:176   */\n      tag_111\n        /* \"#utility.yul\":126:175   */\n      tag_112\n        /* \"#utility.yul\":168:174   */\n      dup5\n        /* \"#utility.yul\":126:175   */\n      tag_113\n      jump\t// in\n    tag_112:\n        /* \"#utility.yul\":110:176   */\n      tag_114\n      jump\t// in\n    tag_111:\n        /* \"#utility.yul\":101:176   */\n      swap1\n      pop\n        /* \"#utility.yul\":199:205   */\n      dup3\n        /* \"#utility.yul\":192:197   */\n      dup2\n        /* \"#utility.yul\":185:206   */\n      mstore\n        /* \"#utility.yul\":237:241   */\n      0x20\n        /* \"#utility.yul\":230:235   */\n      dup2\n        /* \"#utility.yul\":226:242   */\n      add\n        /* \"#utility.yul\":275:278   */\n      dup5\n        /* \"#utility.yul\":266:272   */\n      dup5\n        /* \"#utility.yul\":261:264   */\n      dup5\n        /* \"#utility.yul\":257:273   */\n      add\n        /* \"#utility.yul\":254:279   */\n      gt\n        /* \"#utility.yul\":251:363   */\n      iszero\n      tag_115\n      jumpi\n        /* \"#utility.yul\":282:361   */\n      tag_116\n      tag_117\n      jump\t// in\n    tag_116:\n        /* \"#utility.yul\":251:363   */\n    tag_115:\n        /* \"#utility.yul\":372:413   */\n      tag_118\n        /* \"#utility.yul\":406:412   */\n      dup5\n        /* \"#utility.yul\":401:404   */\n      dup3\n        /* \"#utility.yul\":396:399   */\n      dup6\n        /* \"#utility.yul\":372:413   */\n      tag_119\n      jump\t// in\n    tag_118:\n        /* \"#utility.yul\":91:419   */\n      pop\n        /* \"#utility.yul\":7:419   */\n      swap4\n      swap3\n      pop\n      pop\n      pop\n      jump\t// out\n        /* \"#utility.yul\":425:564   */\n    tag_120:\n        /* \"#utility.yul\":471:476   */\n      0x00\n        /* \"#utility.yul\":509:515   */\n      dup2\n        /* \"#utility.yul\":496:516   */\n      calldataload\n        /* \"#utility.yul\":487:516   */\n      swap1\n      pop\n        /* \"#utility.yul\":525:558   */\n      tag_122\n        /* \"#utility.yul\":552:557   */\n      dup2\n        /* \"#utility.yul\":525:558   */\n      tag_123\n      jump\t// in\n    tag_122:\n        /* \"#utility.yul\":425:564   */\n      swap3\n      swap2\n      pop\n      pop\n      jump\t// out\n        /* \"#utility.yul\":584:924   */\n    tag_124:\n        /* \"#utility.yul\":640:645   */\n      0x00\n        /* \"#utility.yul\":689:692   */\n      dup3\n        /* \"#utility.yul\":682:686   */\n      0x1f\n        /* \"#utility.yul\":674:680   */\n      dup4\n        /* \"#utility.yul\":670:687   */\n      add\n        /* \"#utility.yul\":666:693   */\n      slt\n        /* \"#utility.yul\":656:778   */\n      tag_126\n      jumpi\n        /* \"#utility.yul\":697:776   */\n      tag_127\n      tag_128\n      jump\t// in\n    tag_127:\n        /* \"#utility.yul\":656:778   */\n    tag_126:\n        /* \"#utility.yul\":814:820   */\n      dup2\n        /* \"#utility.yul\":801:821   */\n      calldataload\n        /* \"#utility.yul\":839:918   */\n      tag_129\n        /* \"#utility.yul\":914:917   */\n      dup5\n        /* \"#utility.yul\":906:912   */\n      dup3\n        /* \"#utility.yul\":899:903   */\n      0x20\n        /* \"#utility.yul\":891:897   */\n      dup7\n        /* \"#utility.yul\":887:904   */\n      add\n        /* \"#utility.yul\":839:918   */\n      tag_109\n      jump\t// in\n    tag_129:\n        /* \"#utility.yul\":830:918   */\n      swap2\n      pop\n        /* \"#utility.yul\":646:924   */\n      pop\n        /* \"#utility.yul\":584:924   */\n      swap3\n      swap2\n      pop\n      pop\n      jump\t// out\n        /* \"#utility.yul\":930:1069   */\n    tag_130:\n        /* \"#utility.yul\":976:981   */\n      0x00\n        /* \"#utility.yul\":1014:1020   */\n      dup2\n        /* \"#utility.yul\":1001:1021   */\n      calldataload\n        /* \"#utility.yul\":992:1021   */\n      swap1\n      pop\n        /* \"#utility.yul\":1030:1063   */\n      tag_132\n        /* \"#utility.yul\":1057:1062   */\n      dup2\n        /* \"#utility.yul\":1030:1063   */\n      tag_133\n      jump\t// in\n    tag_132:\n        /* \"#utility.yul\":930:1069   */\n      swap3\n      swap2\n      pop\n      pop\n      jump\t// out\n        /* \"#utility.yul\":1075:1549   */\n    tag_34:\n        /* \"#utility.yul\":1143:1149   */\n      0x00\n        /* \"#utility.yul\":1151:1157   */\n      dup1\n        /* \"#utility.yul\":1200:1202   */\n      0x40\n        /* \"#utility.yul\":1188:1197   */\n      dup4\n        /* \"#utility.yul\":1179:1186   */\n      dup6\n        /* \"#utility.yul\":1175:1198   */\n      sub\n        /* \"#utility.yul\":1171:1203   */\n      slt\n        /* \"#utility.yul\":1168:1287   */\n      iszero\n      tag_135\n      jumpi\n        /* \"#utility.yul\":1206:1285   */\n      tag_136\n      tag_137\n      jump\t// in\n    tag_136:\n        /* \"#utility.yul\":1168:1287   */\n    tag_135:\n        /* \"#utility.yul\":1326:1327   */\n      0x00\n        /* \"#utility.yul\":1351:1404   */\n      tag_138\n        /* \"#utility.yul\":1396:1403   */\n      dup6\n        /* \"#utility.yul\":1387:1393   */\n      dup3\n        /* \"#utility.yul\":1376:1385   */\n      dup7\n        /* \"#utility.yul\":1372:1394   */\n      add\n        /* \"#utility.yul\":1351:1404   */\n      tag_120\n      jump\t// in\n    tag_138:\n        /* \"#utility.yul\":1341:1404   */\n      swap3\n      pop\n        /* \"#utility.yul\":1297:1414   */\n      pop\n        /* \"#utility.yul\":1453:1455   */\n      0x20\n        /* \"#utility.yul\":1479:1532   */\n      tag_139\n        /* \"#utility.yul\":1524:1531   */\n      dup6\n        /* \"#utility.yul\":1515:1521   */\n      dup3\n        /* \"#utility.yul\":1504:1513   */\n      dup7\n        /* \"#utility.yul\":1500:1522   */\n      add\n        /* \"#utility.yul\":1479:1532   */\n      tag_130\n      jump\t// in\n    tag_139:\n        /* \"#utility.yul\":1469:1532   */\n      swap2\n      pop\n        /* \"#utility.yul\":1424:1542   */\n      pop\n        /* \"#utility.yul\":1075:1549   */\n      swap3\n      pop\n      swap3\n      swap1\n      pop\n      jump\t// out\n        /* \"#utility.yul\":1555:1884   */\n    tag_13:\n        /* \"#utility.yul\":1614:1620   */\n      0x00\n        /* \"#utility.yul\":1663:1665   */\n      0x20\n        /* \"#utility.yul\":1651:1660   */\n      dup3\n        /* \"#utility.yul\":1642:1649   */\n      dup5\n        /* \"#utility.yul\":1638:1661   */\n      sub\n        /* \"#utility.yul\":1634:1666   */\n      slt\n        /* \"#utility.yul\":1631:1750   */\n      iszero\n      tag_141\n      jumpi\n        /* \"#utility.yul\":1669:1748   */\n      tag_142\n      tag_137\n      jump\t// in\n    tag_142:\n        /* \"#utility.yul\":1631:1750   */\n    tag_141:\n        /* \"#utility.yul\":1789:1790   */\n      0x00\n        /* \"#utility.yul\":1814:1867   */\n      tag_143\n        /* \"#utility.yul\":1859:1866   */\n      dup5\n        /* \"#utility.yul\":1850:1856   */\n      dup3\n        /* \"#utility.yul\":1839:1848   */\n      dup6\n        /* \"#utility.yul\":1835:1857   */\n      add\n        /* \"#utility.yul\":1814:1867   */\n      tag_130\n      jump\t// in\n    tag_143:\n        /* \"#utility.yul\":1804:1867   */\n      swap2\n      pop\n        /* \"#utility.yul\":1760:1877   */\n      pop\n        /* \"#utility.yul\":1555:1884   */\n      swap3\n      swap2\n      pop\n      pop\n      jump\t// out\n        /* \"#utility.yul\":1890:2835   */\n    tag_45:\n        /* \"#utility.yul\":1986:1992   */\n      0x00\n        /* \"#utility.yul\":1994:2000   */\n      dup1\n        /* \"#utility.yul\":2002:2008   */\n      0x00\n        /* \"#utility.yul\":2010:2016   */\n      dup1\n        /* \"#utility.yul\":2059:2062   */\n      0x80\n        /* \"#utility.yul\":2047:2056   */\n      dup6\n        /* \"#utility.yul\":2038:2045   */\n      dup8\n        /* \"#utility.yul\":2034:2057   */\n      sub\n        /* \"#utility.yul\":2030:2063   */\n      slt\n        /* \"#utility.yul\":2027:2147   */\n      iszero\n      tag_145\n      jumpi\n        /* \"#utility.yul\":2066:2145   */\n      tag_146\n      tag_137\n      jump\t// in\n    tag_146:\n        /* \"#utility.yul\":2027:2147   */\n    tag_145:\n        /* \"#utility.yul\":2186:2187   */\n      0x00\n        /* \"#utility.yul\":2211:2264   */\n      tag_147\n        /* \"#utility.yul\":2256:2263   */\n      dup8\n        /* \"#utility.yul\":2247:2253   */\n      dup3\n        /* \"#utility.yul\":2236:2245   */\n      dup9\n        /* \"#utility.yul\":2232:2254   */\n      add\n        /* \"#utility.yul\":2211:2264   */\n      tag_130\n      jump\t// in\n    tag_147:\n        /* \"#utility.yul\":2201:2264   */\n      swap5\n      pop\n        /* \"#utility.yul\":2157:2274   */\n      pop\n        /* \"#utility.yul\":2341:2343   */\n      0x20\n        /* \"#utility.yul\":2330:2339   */\n      dup6\n        /* \"#utility.yul\":2326:2344   */\n      add\n        /* \"#utility.yul\":2313:2345   */\n      calldataload\n        /* \"#utility.yul\":2372:2390   */\n      0xffffffffffffffff\n        /* \"#utility.yul\":2364:2370   */\n      dup2\n        /* \"#utility.yul\":2361:2391   */\n      gt\n        /* \"#utility.yul\":2358:2475   */\n      iszero\n      tag_148\n      jumpi\n        /* \"#utility.yul\":2394:2473   */\n      tag_149\n      tag_150\n      jump\t// in\n    tag_149:\n        /* \"#utility.yul\":2358:2475   */\n    tag_148:\n        /* \"#utility.yul\":2499:2562   */\n      tag_151\n        /* \"#utility.yul\":2554:2561   */\n      dup8\n        /* \"#utility.yul\":2545:2551   */\n      dup3\n        /* \"#utility.yul\":2534:2543   */\n      dup9\n        /* \"#utility.yul\":2530:2552   */\n      add\n        /* \"#utility.yul\":2499:2562   */\n      tag_124\n      jump\t// in\n    tag_151:\n        /* \"#utility.yul\":2489:2562   */\n      swap4\n      pop\n        /* \"#utility.yul\":2284:2572   */\n      pop\n        /* \"#utility.yul\":2611:2613   */\n      0x40\n        /* \"#utility.yul\":2637:2690   */\n      tag_152\n        /* \"#utility.yul\":2682:2689   */\n      dup8\n        /* \"#utility.yul\":2673:2679   */\n      dup3\n        /* \"#utility.yul\":2662:2671   */\n      dup9\n        /* \"#utility.yul\":2658:2680   */\n      add\n        /* \"#utility.yul\":2637:2690   */\n      tag_130\n      jump\t// in\n    tag_152:\n        /* \"#utility.yul\":2627:2690   */\n      swap3\n      pop\n        /* \"#utility.yul\":2582:2700   */\n      pop\n        /* \"#utility.yul\":2739:2741   */\n      0x60\n        /* \"#utility.yul\":2765:2818   */\n      tag_153\n        /* \"#utility.yul\":2810:2817   */\n      dup8\n        /* \"#utility.yul\":2801:2807   */\n      dup3\n        /* \"#utility.yul\":2790:2799   */\n      dup9\n        /* \"#utility.yul\":2786:2808   */\n      add\n        /* \"#utility.yul\":2765:2818   */\n      tag_130\n      jump\t// in\n    tag_153:\n        /* \"#utility.yul\":2755:2818   */\n      swap2\n      pop\n        /* \"#utility.yul\":2710:2828   */\n      pop\n        /* \"#utility.yul\":1890:2835   */\n      swap3\n      swap6\n      swap2\n      swap5\n      pop\n      swap3\n      pop\n      jump\t// out\n        /* \"#utility.yul\":2841:3315   */\n    tag_19:\n        /* \"#utility.yul\":2909:2915   */\n      0x00\n        /* \"#utility.yul\":2917:2923   */\n      dup1\n        /* \"#utility.yul\":2966:2968   */\n      0x40\n        /* \"#utility.yul\":2954:2963   */\n      dup4\n        /* \"#utility.yul\":2945:2952   */\n      dup6\n        /* \"#utility.yul\":2941:2964   */\n      sub\n        /* \"#utility.yul\":2937:2969   */\n      slt\n        /* \"#utility.yul\":2934:3053   */\n      iszero\n      tag_155\n      jumpi\n        /* \"#utility.yul\":2972:3051   */\n      tag_156\n      tag_137\n      jump\t// in\n    tag_156:\n        /* \"#utility.yul\":2934:3053   */\n    tag_155:\n        /* \"#utility.yul\":3092:3093   */\n      0x00\n        /* \"#utility.yul\":3117:3170   */\n      tag_157\n        /* \"#utility.yul\":3162:3169   */\n      dup6\n        /* \"#utility.yul\":3153:3159   */\n      dup3\n        /* \"#utility.yul\":3142:3151   */\n      dup7\n        /* \"#utility.yul\":3138:3160   */\n      add\n        /* \"#utility.yul\":3117:3170   */\n      tag_130\n      jump\t// in\n    tag_157:\n        /* \"#utility.yul\":3107:3170   */\n      swap3\n      pop\n        /* \"#utility.yul\":3063:3180   */\n      pop\n        /* \"#utility.yul\":3219:3221   */\n      0x20\n        /* \"#utility.yul\":3245:3298   */\n      tag_158\n        /* \"#utility.yul\":3290:3297   */\n      dup6\n        /* \"#utility.yul\":3281:3287   */\n      dup3\n        /* \"#utility.yul\":3270:3279   */\n      dup7\n        /* \"#utility.yul\":3266:3288   */\n      add\n        /* \"#utility.yul\":3245:3298   */\n      tag_130\n      jump\t// in\n    tag_158:\n        /* \"#utility.yul\":3235:3298   */\n      swap2\n      pop\n        /* \"#utility.yul\":3190:3308   */\n      pop\n        /* \"#utility.yul\":2841:3315   */\n      swap3\n      pop\n      swap3\n      swap1\n      pop\n      jump\t// out\n        /* \"#utility.yul\":3321:3940   */\n    tag_40:\n        /* \"#utility.yul\":3398:3404   */\n      0x00\n        /* \"#utility.yul\":3406:3412   */\n      dup1\n        /* \"#utility.yul\":3414:3420   */\n      0x00\n        /* \"#utility.yul\":3463:3465   */\n      0x60\n        /* \"#utility.yul\":3451:3460   */\n      dup5\n        /* \"#utility.yul\":3442:3449   */\n      dup7\n        /* \"#utility.yul\":3438:3461   */\n      sub\n        /* \"#utility.yul\":3434:3466   */\n      slt\n        /* \"#utility.yul\":3431:3550   */\n      iszero\n      tag_160\n      jumpi\n        /* \"#utility.yul\":3469:3548   */\n      tag_161\n      tag_137\n      jump\t// in\n    tag_161:\n        /* \"#utility.yul\":3431:3550   */\n    tag_160:\n        /* \"#utility.yul\":3589:3590   */\n      0x00\n        /* \"#utility.yul\":3614:3667   */\n      tag_162\n        /* \"#utility.yul\":3659:3666   */\n      dup7\n        /* \"#utility.yul\":3650:3656   */\n      dup3\n        /* \"#utility.yul\":3639:3648   */\n      dup8\n        /* \"#utility.yul\":3635:3657   */\n      add\n        /* \"#utility.yul\":3614:3667   */\n      tag_130\n      jump\t// in\n    tag_162:\n        /* \"#utility.yul\":3604:3667   */\n      swap4\n      pop\n        /* \"#utility.yul\":3560:3677   */\n      pop\n        /* \"#utility.yul\":3716:3718   */\n      0x20\n        /* \"#utility.yul\":3742:3795   */\n      tag_163\n        /* \"#utility.yul\":3787:3794   */\n      dup7\n        /* \"#utility.yul\":3778:3784   */\n      dup3\n        /* \"#utility.yul\":3767:3776   */\n      dup8\n        /* \"#utility.yul\":3763:3785   */\n      add\n        /* \"#utility.yul\":3742:3795   */\n      tag_130\n      jump\t// in\n    tag_163:\n        /* \"#utility.yul\":3732:3795   */\n      swap3\n      pop\n        /* \"#utility.yul\":3687:3805   */\n      pop\n        /* \"#utility.yul\":3844:3846   */\n      0x40\n        /* \"#utility.yul\":3870:3923   */\n      tag_164\n        /* \"#utility.yul\":3915:3922   */\n      dup7\n        /* \"#utility.yul\":3906:3912   */\n      dup3\n        /* \"#utility.yul\":3895:3904   */\n      dup8\n        /* \"#utility.yul\":3891:3913   */\n      add\n        /* \"#utility.yul\":3870:3923   */\n      tag_120\n      jump\t// in\n    tag_164:\n        /* \"#utility.yul\":3860:3923   */\n      swap2\n      pop\n        /* \"#utility.yul\":3815:3933   */\n      pop\n        /* \"#utility.yul\":3321:3940   */\n      swap3\n      pop\n      swap3\n      pop\n      swap3\n      jump\t// out\n        /* \"#utility.yul\":3946:4064   */\n    tag_165:\n        /* \"#utility.yul\":4033:4057   */\n      tag_167\n        /* \"#utility.yul\":4051:4056   */\n      dup2\n        /* \"#utility.yul\":4033:4057   */\n      tag_168\n      jump\t// in\n    tag_167:\n        /* \"#utility.yul\":4028:4031   */\n      dup3\n        /* \"#utility.yul\":4021:4058   */\n      mstore\n        /* \"#utility.yul\":3946:4064   */\n      pop\n      pop\n      jump\t// out\n        /* \"#utility.yul\":4070:4434   */\n    tag_169:\n        /* \"#utility.yul\":4158:4161   */\n      0x00\n        /* \"#utility.yul\":4186:4225   */\n      tag_171\n        /* \"#utility.yul\":4219:4224   */\n      dup3\n        /* \"#utility.yul\":4186:4225   */\n      tag_172\n      jump\t// in\n    tag_171:\n        /* \"#utility.yul\":4241:4312   */\n      tag_173\n        /* \"#utility.yul\":4305:4311   */\n      dup2\n        /* \"#utility.yul\":4300:4303   */\n      dup6\n        /* \"#utility.yul\":4241:4312   */\n      tag_174\n      jump\t// in\n    tag_173:\n        /* \"#utility.yul\":4234:4312   */\n      swap4\n      pop\n        /* \"#utility.yul\":4321:4373   */\n      tag_175\n        /* \"#utility.yul\":4366:4372   */\n      dup2\n        /* \"#utility.yul\":4361:4364   */\n      dup6\n        /* \"#utility.yul\":4354:4358   */\n      0x20\n        /* \"#utility.yul\":4347:4352   */\n      dup7\n        /* \"#utility.yul\":4343:4359   */\n      add\n        /* \"#utility.yul\":4321:4373   */\n      tag_176\n      jump\t// in\n    tag_175:\n        /* \"#utility.yul\":4398:4427   */\n      tag_177\n        /* \"#utility.yul\":4420:4426   */\n      dup2\n        /* \"#utility.yul\":4398:4427   */\n      tag_178\n      jump\t// in\n    tag_177:\n        /* \"#utility.yul\":4393:4396   */\n      dup5\n        /* \"#utility.yul\":4389:4428   */\n      add\n        /* \"#utility.yul\":4382:4428   */\n      swap2\n      pop\n        /* \"#utility.yul\":4162:4434   */\n      pop\n        /* \"#utility.yul\":4070:4434   */\n      swap3\n      swap2\n      pop\n      pop\n      jump\t// out\n        /* \"#utility.yul\":4440:4806   */\n    tag_179:\n        /* \"#utility.yul\":4582:4585   */\n      0x00\n        /* \"#utility.yul\":4603:4670   */\n      tag_181\n        /* \"#utility.yul\":4667:4669   */\n      0x15\n        /* \"#utility.yul\":4662:4665   */\n      dup4\n        /* \"#utility.yul\":4603:4670   */\n      tag_174\n      jump\t// in\n    tag_181:\n        /* \"#utility.yul\":4596:4670   */\n      swap2\n      pop\n        /* \"#utility.yul\":4679:4772   */\n      tag_182\n        /* \"#utility.yul\":4768:4771   */\n      dup3\n        /* \"#utility.yul\":4679:4772   */\n      tag_183\n      jump\t// in\n    tag_182:\n        /* \"#utility.yul\":4797:4799   */\n      0x20\n        /* \"#utility.yul\":4792:4795   */\n      dup3\n        /* \"#utility.yul\":4788:4800   */\n      add\n        /* \"#utility.yul\":4781:4800   */\n      swap1\n      pop\n        /* \"#utility.yul\":4440:4806   */\n      swap2\n      swap1\n      pop\n      jump\t// out\n        /* \"#utility.yul\":4812:5178   */\n    tag_184:\n        /* \"#utility.yul\":4954:4957   */\n      0x00\n        /* \"#utility.yul\":4975:5042   */\n      tag_186\n        /* \"#utility.yul\":5039:5041   */\n      0x29\n        /* \"#utility.yul\":5034:5037   */\n      dup4\n        /* \"#utility.yul\":4975:5042   */\n      tag_174\n      jump\t// in\n    tag_186:\n        /* \"#utility.yul\":4968:5042   */\n      swap2\n      pop\n        /* \"#utility.yul\":5051:5144   */\n      tag_187\n        /* \"#utility.yul\":5140:5143   */\n      dup3\n        /* \"#utility.yul\":5051:5144   */\n      tag_188\n      jump\t// in\n    tag_187:\n        /* \"#utility.yul\":5169:5171   */\n      0x40\n        /* \"#utility.yul\":5164:5167   */\n      dup3\n        /* \"#utility.yul\":5160:5172   */\n      add\n        /* \"#utility.yul\":5153:5172   */\n      swap1\n      pop\n        /* \"#utility.yul\":4812:5178   */\n      swap2\n      swap1\n      pop\n      jump\t// out\n        /* \"#utility.yul\":5184:5550   */\n    tag_189:\n        /* \"#utility.yul\":5326:5329   */\n      0x00\n        /* \"#utility.yul\":5347:5414   */\n      tag_191\n        /* \"#utility.yul\":5411:5413   */\n      0x16\n        /* \"#utility.yul\":5406:5409   */\n      dup4\n        /* \"#utility.yul\":5347:5414   */\n      tag_174\n      jump\t// in\n    tag_191:\n        /* \"#utility.yul\":5340:5414   */\n      swap2\n      pop\n        /* \"#utility.yul\":5423:5516   */\n      tag_192\n        /* \"#utility.yul\":5512:5515   */\n      dup3\n        /* \"#utility.yul\":5423:5516   */\n      tag_193\n      jump\t// in\n    tag_192:\n        /* \"#utility.yul\":5541:5543   */\n      0x20\n        /* \"#utility.yul\":5536:5539   */\n      dup3\n        /* \"#utility.yul\":5532:5544   */\n      add\n        /* \"#utility.yul\":5525:5544   */\n      swap1\n      pop\n        /* \"#utility.yul\":5184:5550   */\n      swap2\n      swap1\n      pop\n      jump\t// out\n        /* \"#utility.yul\":5556:5922   */\n    tag_194:\n        /* \"#utility.yul\":5698:5701   */\n      0x00\n        /* \"#utility.yul\":5719:5786   */\n      tag_196\n        /* \"#utility.yul\":5783:5785   */\n      0x1d\n        /* \"#utility.yul\":5778:5781   */\n      dup4\n        /* \"#utility.yul\":5719:5786   */\n      tag_174\n      jump\t// in\n    tag_196:\n        /* \"#utility.yul\":5712:5786   */\n      swap2\n      pop\n        /* \"#utility.yul\":5795:5888   */\n      tag_197\n        /* \"#utility.yul\":5884:5887   */\n      dup3\n        /* \"#utility.yul\":5795:5888   */\n      tag_198\n      jump\t// in\n    tag_197:\n        /* \"#utility.yul\":5913:5915   */\n      0x20\n        /* \"#utility.yul\":5908:5911   */\n      dup3\n        /* \"#utility.yul\":5904:5916   */\n      add\n        /* \"#utility.yul\":5897:5916   */\n      swap1\n      pop\n        /* \"#utility.yul\":5556:5922   */\n      swap2\n      swap1\n      pop\n      jump\t// out\n        /* \"#utility.yul\":5928:6294   */\n    tag_199:\n        /* \"#utility.yul\":6070:6073   */\n      0x00\n        /* \"#utility.yul\":6091:6158   */\n      tag_201\n        /* \"#utility.yul\":6155:6157   */\n      0x17\n        /* \"#utility.yul\":6150:6153   */\n      dup4\n        /* \"#utility.yul\":6091:6158   */\n      tag_174\n      jump\t// in\n    tag_201:\n        /* \"#utility.yul\":6084:6158   */\n      swap2\n      pop\n        /* \"#utility.yul\":6167:6260   */\n      tag_202\n        /* \"#utility.yul\":6256:6259   */\n      dup3\n        /* \"#utility.yul\":6167:6260   */\n      tag_203\n      jump\t// in\n    tag_202:\n        /* \"#utility.yul\":6285:6287   */\n      0x20\n        /* \"#utility.yul\":6280:6283   */\n      dup3\n        /* \"#utility.yul\":6276:6288   */\n      add\n        /* \"#utility.yul\":6269:6288   */\n      swap1\n      pop\n        /* \"#utility.yul\":5928:6294   */\n      swap2\n      swap1\n      pop\n      jump\t// out\n        /* \"#utility.yul\":6300:6666   */\n    tag_204:\n        /* \"#utility.yul\":6442:6445   */\n      0x00\n        /* \"#utility.yul\":6463:6530   */\n      tag_206\n        /* \"#utility.yul\":6527:6529   */\n      0x15\n        /* \"#utility.yul\":6522:6525   */\n      dup4\n        /* \"#utility.yul\":6463:6530   */\n      tag_174\n      jump\t// in\n    tag_206:\n        /* \"#utility.yul\":6456:6530   */\n      swap2\n      pop\n        /* \"#utility.yul\":6539:6632   */\n      tag_207\n        /* \"#utility.yul\":6628:6631   */\n      dup3\n        /* \"#utility.yul\":6539:6632   */\n      tag_208\n      jump\t// in\n    tag_207:\n        /* \"#utility.yul\":6657:6659   */\n      0x20\n        /* \"#utility.yul\":6652:6655   */\n      dup3\n        /* \"#utility.yul\":6648:6660   */\n      add\n        /* \"#utility.yul\":6641:6660   */\n      swap1\n      pop\n        /* \"#utility.yul\":6300:6666   */\n      swap2\n      swap1\n      pop\n      jump\t// out\n        /* \"#utility.yul\":6672:7038   */\n    tag_209:\n        /* \"#utility.yul\":6814:6817   */\n      0x00\n        /* \"#utility.yul\":6835:6902   */\n      tag_211\n        /* \"#utility.yul\":6899:6901   */\n      0x1d\n        /* \"#utility.yul\":6894:6897   */\n      dup4\n        /* \"#utility.yul\":6835:6902   */\n      tag_174\n      jump\t// in\n    tag_211:\n        /* \"#utility.yul\":6828:6902   */\n      swap2\n      pop\n        /* \"#utility.yul\":6911:7004   */\n      tag_212\n        /* \"#utility.yul\":7000:7003   */\n      dup3\n        /* \"#utility.yul\":6911:7004   */\n      tag_213\n      jump\t// in\n    tag_212:\n        /* \"#utility.yul\":7029:7031   */\n      0x20\n        /* \"#utility.yul\":7024:7027   */\n      dup3\n        /* \"#utility.yul\":7020:7032   */\n      add\n        /* \"#utility.yul\":7013:7032   */\n      swap1\n      pop\n        /* \"#utility.yul\":6672:7038   */\n      swap2\n      swap1\n      pop\n      jump\t// out\n        /* \"#utility.yul\":7044:7410   */\n    tag_214:\n        /* \"#utility.yul\":7186:7189   */\n      0x00\n        /* \"#utility.yul\":7207:7274   */\n      tag_216\n        /* \"#utility.yul\":7271:7273   */\n      0x21\n        /* \"#utility.yul\":7266:7269   */\n      dup4\n        /* \"#utility.yul\":7207:7274   */\n      tag_174\n      jump\t// in\n    tag_216:\n        /* \"#utility.yul\":7200:7274   */\n      swap2\n      pop\n        /* \"#utility.yul\":7283:7376   */\n      tag_217\n        /* \"#utility.yul\":7372:7375   */\n      dup3\n        /* \"#utility.yul\":7283:7376   */\n      tag_218\n      jump\t// in\n    tag_217:\n        /* \"#utility.yul\":7401:7403   */\n      0x40\n        /* \"#utility.yul\":7396:7399   */\n      dup3\n        /* \"#utility.yul\":7392:7404   */\n      add\n        /* \"#utility.yul\":7385:7404   */\n      swap1\n      pop\n        /* \"#utility.yul\":7044:7410   */\n      swap2\n      swap1\n      pop\n      jump\t// out\n        /* \"#utility.yul\":7416:7782   */\n    tag_219:\n        /* \"#utility.yul\":7558:7561   */\n      0x00\n        /* \"#utility.yul\":7579:7646   */\n      tag_221\n        /* \"#utility.yul\":7643:7645   */\n      0x22\n        /* \"#utility.yul\":7638:7641   */\n      dup4\n        /* \"#utility.yul\":7579:7646   */\n      tag_174\n      jump\t// in\n    tag_221:\n        /* \"#utility.yul\":7572:7646   */\n      swap2\n      pop\n        /* \"#utility.yul\":7655:7748   */\n      tag_222\n        /* \"#utility.yul\":7744:7747   */\n      dup3\n        /* \"#utility.yul\":7655:7748   */\n      tag_223\n      jump\t// in\n    tag_222:\n        /* \"#utility.yul\":7773:7775   */\n      0x40\n        /* \"#utility.yul\":7768:7771   */\n      dup3\n        /* \"#utility.yul\":7764:7776   */\n      add\n        /* \"#utility.yul\":7757:7776   */\n      swap1\n      pop\n        /* \"#utility.yul\":7416:7782   */\n      swap2\n      swap1\n      pop\n      jump\t// out\n        /* \"#utility.yul\":7788:7906   */\n    tag_224:\n        /* \"#utility.yul\":7875:7899   */\n      tag_226\n        /* \"#utility.yul\":7893:7898   */\n      dup2\n        /* \"#utility.yul\":7875:7899   */\n      tag_227\n      jump\t// in\n    tag_226:\n        /* \"#utility.yul\":7870:7873   */\n      dup3\n        /* \"#utility.yul\":7863:7900   */\n      mstore\n        /* \"#utility.yul\":7788:7906   */\n      pop\n      pop\n      jump\t// out\n        /* \"#utility.yul\":7912:8778   */\n    tag_16:\n        /* \"#utility.yul\":8165:8169   */\n      0x00\n        /* \"#utility.yul\":8203:8206   */\n      0xc0\n        /* \"#utility.yul\":8192:8201   */\n      dup3\n        /* \"#utility.yul\":8188:8207   */\n      add\n        /* \"#utility.yul\":8180:8207   */\n      swap1\n      pop\n        /* \"#utility.yul\":8217:8288   */\n      tag_229\n        /* \"#utility.yul\":8285:8286   */\n      0x00\n        /* \"#utility.yul\":8274:8283   */\n      dup4\n        /* \"#utility.yul\":8270:8287   */\n      add\n        /* \"#utility.yul\":8261:8267   */\n      dup10\n        /* \"#utility.yul\":8217:8288   */\n      tag_165\n      jump\t// in\n    tag_229:\n        /* \"#utility.yul\":8298:8370   */\n      tag_230\n        /* \"#utility.yul\":8366:8368   */\n      0x20\n        /* \"#utility.yul\":8355:8364   */\n      dup4\n        /* \"#utility.yul\":8351:8369   */\n      add\n        /* \"#utility.yul\":8342:8348   */\n      dup9\n        /* \"#utility.yul\":8298:8370   */\n      tag_224\n      jump\t// in\n    tag_230:\n        /* \"#utility.yul\":8417:8426   */\n      dup2\n        /* \"#utility.yul\":8411:8415   */\n      dup2\n        /* \"#utility.yul\":8407:8427   */\n      sub\n        /* \"#utility.yul\":8402:8404   */\n      0x40\n        /* \"#utility.yul\":8391:8400   */\n      dup4\n        /* \"#utility.yul\":8387:8405   */\n      add\n        /* \"#utility.yul\":8380:8428   */\n      mstore\n        /* \"#utility.yul\":8445:8523   */\n      tag_231\n        /* \"#utility.yul\":8518:8522   */\n      dup2\n        /* \"#utility.yul\":8509:8515   */\n      dup8\n        /* \"#utility.yul\":8445:8523   */\n      tag_169\n      jump\t// in\n    tag_231:\n        /* \"#utility.yul\":8437:8523   */\n      swap1\n      pop\n        /* \"#utility.yul\":8533:8605   */\n      tag_232\n        /* \"#utility.yul\":8601:8603   */\n      0x60\n        /* \"#utility.yul\":8590:8599   */\n      dup4\n        /* \"#utility.yul\":8586:8604   */\n      add\n        /* \"#utility.yul\":8577:8583   */\n      dup7\n        /* \"#utility.yul\":8533:8605   */\n      tag_224\n      jump\t// in\n    tag_232:\n        /* \"#utility.yul\":8615:8688   */\n      tag_233\n        /* \"#utility.yul\":8683:8686   */\n      0x80\n        /* \"#utility.yul\":8672:8681   */\n      dup4\n        /* \"#utility.yul\":8668:8687   */\n      add\n        /* \"#utility.yul\":8659:8665   */\n      dup6\n        /* \"#utility.yul\":8615:8688   */\n      tag_224\n      jump\t// in\n    tag_233:\n        /* \"#utility.yul\":8698:8771   */\n      tag_234\n        /* \"#utility.yul\":8766:8769   */\n      0xa0\n        /* \"#utility.yul\":8755:8764   */\n      dup4\n        /* \"#utility.yul\":8751:8770   */\n      add\n        /* \"#utility.yul\":8742:8748   */\n      dup5\n        /* \"#utility.yul\":8698:8771   */\n      tag_224\n      jump\t// in\n    tag_234:\n        /* \"#utility.yul\":7912:8778   */\n      swap8\n      swap7\n      pop\n      pop\n      pop\n      pop\n      pop\n      pop\n      pop\n      jump\t// out\n        /* \"#utility.yul\":8784:9203   */\n    tag_64:\n        /* \"#utility.yul\":8950:8954   */\n      0x00\n        /* \"#utility.yul\":8988:8990   */\n      0x20\n        /* \"#utility.yul\":8977:8986   */\n      dup3\n        /* \"#utility.yul\":8973:8991   */\n      add\n        /* \"#utility.yul\":8965:8991   */\n      swap1\n      pop\n        /* \"#utility.yul\":9037:9046   */\n      dup2\n        /* \"#utility.yul\":9031:9035   */\n      dup2\n        /* \"#utility.yul\":9027:9047   */\n      sub\n        /* \"#utility.yul\":9023:9024   */\n      0x00\n        /* \"#utility.yul\":9012:9021   */\n      dup4\n        /* \"#utility.yul\":9008:9025   */\n      add\n        /* \"#utility.yul\":9001:9048   */\n      mstore\n        /* \"#utility.yul\":9065:9196   */\n      tag_236\n        /* \"#utility.yul\":9191:9195   */\n      dup2\n        /* \"#utility.yul\":9065:9196   */\n      tag_179\n      jump\t// in\n    tag_236:\n        /* \"#utility.yul\":9057:9196   */\n      swap1\n      pop\n        /* \"#utility.yul\":8784:9203   */\n      swap2\n      swap1\n      pop\n      jump\t// out\n        /* \"#utility.yul\":9209:9628   */\n    tag_84:\n        /* \"#utility.yul\":9375:9379   */\n      0x00\n        /* \"#utility.yul\":9413:9415   */\n      0x20\n        /* \"#utility.yul\":9402:9411   */\n      dup3\n        /* \"#utility.yul\":9398:9416   */\n      add\n        /* \"#utility.yul\":9390:9416   */\n      swap1\n      pop\n        /* \"#utility.yul\":9462:9471   */\n      dup2\n        /* \"#utility.yul\":9456:9460   */\n      dup2\n        /* \"#utility.yul\":9452:9472   */\n      sub\n        /* \"#utility.yul\":9448:9449   */\n      0x00\n        /* \"#utility.yul\":9437:9446   */\n      dup4\n        /* \"#utility.yul\":9433:9450   */\n      add\n        /* \"#utility.yul\":9426:9473   */\n      mstore\n        /* \"#utility.yul\":9490:9621   */\n      tag_238\n        /* \"#utility.yul\":9616:9620   */\n      dup2\n        /* \"#utility.yul\":9490:9621   */\n      tag_184\n      jump\t// in\n    tag_238:\n        /* \"#utility.yul\":9482:9621   */\n      swap1\n      pop\n        /* \"#utility.yul\":9209:9628   */\n      swap2\n      swap1\n      pop\n      jump\t// out\n        /* \"#utility.yul\":9634:10053   */\n    tag_81:\n        /* \"#utility.yul\":9800:9804   */\n      0x00\n        /* \"#utility.yul\":9838:9840   */\n      0x20\n        /* \"#utility.yul\":9827:9836   */\n      dup3\n        /* \"#utility.yul\":9823:9841   */\n      add\n        /* \"#utility.yul\":9815:9841   */\n      swap1\n      pop\n        /* \"#utility.yul\":9887:9896   */\n      dup2\n        /* \"#utility.yul\":9881:9885   */\n      dup2\n        /* \"#utility.yul\":9877:9897   */\n      sub\n        /* \"#utility.yul\":9873:9874   */\n      0x00\n        /* \"#utility.yul\":9862:9871   */\n      dup4\n        /* \"#utility.yul\":9858:9875   */\n      add\n        /* \"#utility.yul\":9851:9898   */\n      mstore\n        /* \"#utility.yul\":9915:10046   */\n      tag_240\n        /* \"#utility.yul\":10041:10045   */\n      dup2\n        /* \"#utility.yul\":9915:10046   */\n      tag_189\n      jump\t// in\n    tag_240:\n        /* \"#utility.yul\":9907:10046   */\n      swap1\n      pop\n        /* \"#utility.yul\":9634:10053   */\n      swap2\n      swap1\n      pop\n      jump\t// out\n        /* \"#utility.yul\":10059:10478   */\n    tag_75:\n        /* \"#utility.yul\":10225:10229   */\n      0x00\n        /* \"#utility.yul\":10263:10265   */\n      0x20\n        /* \"#utility.yul\":10252:10261   */\n      dup3\n        /* \"#utility.yul\":10248:10266   */\n      add\n        /* \"#utility.yul\":10240:10266   */\n      swap1\n      pop\n        /* \"#utility.yul\":10312:10321   */\n      dup2\n        /* \"#utility.yul\":10306:10310   */\n      dup2\n        /* \"#utility.yul\":10302:10322   */\n      sub\n        /* \"#utility.yul\":10298:10299   */\n      0x00\n        /* \"#utility.yul\":10287:10296   */\n      dup4\n        /* \"#utility.yul\":10283:10300   */\n      add\n        /* \"#utility.yul\":10276:10323   */\n      mstore\n        /* \"#utility.yul\":10340:10471   */\n      tag_242\n        /* \"#utility.yul\":10466:10470   */\n      dup2\n        /* \"#utility.yul\":10340:10471   */\n      tag_194\n      jump\t// in\n    tag_242:\n        /* \"#utility.yul\":10332:10471   */\n      swap1\n      pop\n        /* \"#utility.yul\":10059:10478   */\n      swap2\n      swap1\n      pop\n      jump\t// out\n        /* \"#utility.yul\":10484:10903   */\n    tag_59:\n        /* \"#utility.yul\":10650:10654   */\n      0x00\n        /* \"#utility.yul\":10688:10690   */\n      0x20\n        /* \"#utility.yul\":10677:10686   */\n      dup3\n        /* \"#utility.yul\":10673:10691   */\n      add\n        /* \"#utility.yul\":10665:10691   */\n      swap1\n      pop\n        /* \"#utility.yul\":10737:10746   */\n      dup2\n        /* \"#utility.yul\":10731:10735   */\n      dup2\n        /* \"#utility.yul\":10727:10747   */\n      sub\n        /* \"#utility.yul\":10723:10724   */\n      0x00\n        /* \"#utility.yul\":10712:10721   */\n      dup4\n        /* \"#utility.yul\":10708:10725   */\n      add\n        /* \"#utility.yul\":10701:10748   */\n      mstore\n        /* \"#utility.yul\":10765:10896   */\n      tag_244\n        /* \"#utility.yul\":10891:10895   */\n      dup2\n        /* \"#utility.yul\":10765:10896   */\n      tag_199\n      jump\t// in\n    tag_244:\n        /* \"#utility.yul\":10757:10896   */\n      swap1\n      pop\n        /* \"#utility.yul\":10484:10903   */\n      swap2\n      swap1\n      pop\n      jump\t// out\n        /* \"#utility.yul\":10909:11328   */\n    tag_56:\n        /* \"#utility.yul\":11075:11079   */\n      0x00\n        /* \"#utility.yul\":11113:11115   */\n      0x20\n        /* \"#utility.yul\":11102:11111   */\n      dup3\n        /* \"#utility.yul\":11098:11116   */\n      add\n        /* \"#utility.yul\":11090:11116   */\n      swap1\n      pop\n        /* \"#utility.yul\":11162:11171   */\n      dup2\n        /* \"#utility.yul\":11156:11160   */\n      dup2\n        /* \"#utility.yul\":11152:11172   */\n      sub\n        /* \"#utility.yul\":11148:11149   */\n      0x00\n        /* \"#utility.yul\":11137:11146   */\n      dup4\n        /* \"#utility.yul\":11133:11150   */\n      add\n        /* \"#utility.yul\":11126:11173   */\n      mstore\n        /* \"#utility.yul\":11190:11321   */\n      tag_246\n        /* \"#utility.yul\":11316:11320   */\n      dup2\n        /* \"#utility.yul\":11190:11321   */\n      tag_204\n      jump\t// in\n    tag_246:\n        /* \"#utility.yul\":11182:11321   */\n      swap1\n      pop\n        /* \"#utility.yul\":10909:11328   */\n      swap2\n      swap1\n      pop\n      jump\t// out\n        /* \"#utility.yul\":11334:11753   */\n    tag_67:\n        /* \"#utility.yul\":11500:11504   */\n      0x00\n        /* \"#utility.yul\":11538:11540   */\n      0x20\n        /* \"#utility.yul\":11527:11536   */\n      dup3\n        /* \"#utility.yul\":11523:11541   */\n      add\n        /* \"#utility.yul\":11515:11541   */\n      swap1\n      pop\n        /* \"#utility.yul\":11587:11596   */\n      dup2\n        /* \"#utility.yul\":11581:11585   */\n      dup2\n        /* \"#utility.yul\":11577:11597   */\n      sub\n        /* \"#utility.yul\":11573:11574   */\n      0x00\n        /* \"#utility.yul\":11562:11571   */\n      dup4\n        /* \"#utility.yul\":11558:11575   */\n      add\n        /* \"#utility.yul\":11551:11598   */\n      mstore\n        /* \"#utility.yul\":11615:11746   */\n      tag_248\n        /* \"#utility.yul\":11741:11745   */\n      dup2\n        /* \"#utility.yul\":11615:11746   */\n      tag_209\n      jump\t// in\n    tag_248:\n        /* \"#utility.yul\":11607:11746   */\n      swap1\n      pop\n        /* \"#utility.yul\":11334:11753   */\n      swap2\n      swap1\n      pop\n      jump\t// out\n        /* \"#utility.yul\":11759:12178   */\n    tag_93:\n        /* \"#utility.yul\":11925:11929   */\n      0x00\n        /* \"#utility.yul\":11963:11965   */\n      0x20\n        /* \"#utility.yul\":11952:11961   */\n      dup3\n        /* \"#utility.yul\":11948:11966   */\n      add\n        /* \"#utility.yul\":11940:11966   */\n      swap1\n      pop\n        /* \"#utility.yul\":12012:12021   */\n      dup2\n        /* \"#utility.yul\":12006:12010   */\n      dup2\n        /* \"#utility.yul\":12002:12022   */\n      sub\n        /* \"#utility.yul\":11998:11999   */\n      0x00\n        /* \"#utility.yul\":11987:11996   */\n      dup4\n        /* \"#utility.yul\":11983:12000   */\n      add\n        /* \"#utility.yul\":11976:12023   */\n      mstore\n        /* \"#utility.yul\":12040:12171   */\n      tag_250\n        /* \"#utility.yul\":12166:12170   */\n      dup2\n        /* \"#utility.yul\":12040:12171   */\n      tag_214\n      jump\t// in\n    tag_250:\n        /* \"#utility.yul\":12032:12171   */\n      swap1\n      pop\n        /* \"#utility.yul\":11759:12178   */\n      swap2\n      swap1\n      pop\n      jump\t// out\n        /* \"#utility.yul\":12184:12603   */\n    tag_90:\n        /* \"#utility.yul\":12350:12354   */\n      0x00\n        /* \"#utility.yul\":12388:12390   */\n      0x20\n        /* \"#utility.yul\":12377:12386   */\n      dup3\n        /* \"#utility.yul\":12373:12391   */\n      add\n        /* \"#utility.yul\":12365:12391   */\n      swap1\n      pop\n        /* \"#utility.yul\":12437:12446   */\n      dup2\n        /* \"#utility.yul\":12431:12435   */\n      dup2\n        /* \"#utility.yul\":12427:12447   */\n      sub\n        /* \"#utility.yul\":12423:12424   */\n      0x00\n        /* \"#utility.yul\":12412:12421   */\n      dup4\n        /* \"#utility.yul\":12408:12425   */\n      add\n        /* \"#utility.yul\":12401:12448   */\n      mstore\n        /* \"#utility.yul\":12465:12596   */\n      tag_252\n        /* \"#utility.yul\":12591:12595   */\n      dup2\n        /* \"#utility.yul\":12465:12596   */\n      tag_219\n      jump\t// in\n    tag_252:\n        /* \"#utility.yul\":12457:12596   */\n      swap1\n      pop\n        /* \"#utility.yul\":12184:12603   */\n      swap2\n      swap1\n      pop\n      jump\t// out\n        /* \"#utility.yul\":12609:12831   */\n    tag_22:\n        /* \"#utility.yul\":12702:12706   */\n      0x00\n        /* \"#utility.yul\":12740:12742   */\n      0x20\n        /* \"#utility.yul\":12729:12738   */\n      dup3\n        /* \"#utility.yul\":12725:12743   */\n      add\n        /* \"#utility.yul\":12717:12743   */\n      swap1\n      pop\n        /* \"#utility.yul\":12753:12824   */\n      tag_254\n        /* \"#utility.yul\":12821:12822   */\n      0x00\n        /* \"#utility.yul\":12810:12819   */\n      dup4\n        /* \"#utility.yul\":12806:12823   */\n      add\n        /* \"#utility.yul\":12797:12803   */\n      dup5\n        /* \"#utility.yul\":12753:12824   */\n      tag_224\n      jump\t// in\n    tag_254:\n        /* \"#utility.yul\":12609:12831   */\n      swap3\n      swap2\n      pop\n      pop\n      jump\t// out\n        /* \"#utility.yul\":12837:12966   */\n    tag_114:\n        /* \"#utility.yul\":12871:12877   */\n      0x00\n        /* \"#utility.yul\":12898:12918   */\n      tag_256\n      tag_257\n      jump\t// in\n    tag_256:\n        /* \"#utility.yul\":12888:12918   */\n      swap1\n      pop\n        /* \"#utility.yul\":12927:12960   */\n      tag_258\n        /* \"#utility.yul\":12955:12959   */\n      dup3\n        /* \"#utility.yul\":12947:12953   */\n      dup3\n        /* \"#utility.yul\":12927:12960   */\n      tag_259\n      jump\t// in\n    tag_258:\n        /* \"#utility.yul\":12837:12966   */\n      swap2\n      swap1\n      pop\n      jump\t// out\n        /* \"#utility.yul\":12972:13047   */\n    tag_257:\n        /* \"#utility.yul\":13005:13011   */\n      0x00\n        /* \"#utility.yul\":13038:13040   */\n      0x40\n        /* \"#utility.yul\":13032:13041   */\n      mload\n        /* \"#utility.yul\":13022:13041   */\n      swap1\n      pop\n        /* \"#utility.yul\":12972:13047   */\n      swap1\n      jump\t// out\n        /* \"#utility.yul\":13053:13361   */\n    tag_113:\n        /* \"#utility.yul\":13115:13119   */\n      0x00\n        /* \"#utility.yul\":13205:13223   */\n      0xffffffffffffffff\n        /* \"#utility.yul\":13197:13203   */\n      dup3\n        /* \"#utility.yul\":13194:13224   */\n      gt\n        /* \"#utility.yul\":13191:13247   */\n      iszero\n      tag_262\n      jumpi\n        /* \"#utility.yul\":13227:13245   */\n      tag_263\n      tag_264\n      jump\t// in\n    tag_263:\n        /* \"#utility.yul\":13191:13247   */\n    tag_262:\n        /* \"#utility.yul\":13265:13294   */\n      tag_265\n        /* \"#utility.yul\":13287:13293   */\n      dup3\n        /* \"#utility.yul\":13265:13294   */\n      tag_178\n      jump\t// in\n    tag_265:\n        /* \"#utility.yul\":13257:13294   */\n      swap1\n      pop\n        /* \"#utility.yul\":13349:13353   */\n      0x20\n        /* \"#utility.yul\":13343:13347   */\n      dup2\n        /* \"#utility.yul\":13339:13354   */\n      add\n        /* \"#utility.yul\":13331:13354   */\n      swap1\n      pop\n        /* \"#utility.yul\":13053:13361   */\n      swap2\n      swap1\n      pop\n      jump\t// out\n        /* \"#utility.yul\":13367:13466   */\n    tag_172:\n        /* \"#utility.yul\":13419:13425   */\n      0x00\n        /* \"#utility.yul\":13453:13458   */\n      dup2\n        /* \"#utility.yul\":13447:13459   */\n      mload\n        /* \"#utility.yul\":13437:13459   */\n      swap1\n      pop\n        /* \"#utility.yul\":13367:13466   */\n      swap2\n      swap1\n      pop\n      jump\t// out\n        /* \"#utility.yul\":13472:13641   */\n    tag_174:\n        /* \"#utility.yul\":13556:13567   */\n      0x00\n        /* \"#utility.yul\":13590:13596   */\n      dup3\n        /* \"#utility.yul\":13585:13588   */\n      dup3\n        /* \"#utility.yul\":13578:13597   */\n      mstore\n        /* \"#utility.yul\":13630:13634   */\n      0x20\n        /* \"#utility.yul\":13625:13628   */\n      dup3\n        /* \"#utility.yul\":13621:13635   */\n      add\n        /* \"#utility.yul\":13606:13635   */\n      swap1\n      pop\n        /* \"#utility.yul\":13472:13641   */\n      swap3\n      swap2\n      pop\n      pop\n      jump\t// out\n        /* \"#utility.yul\":13647:13952   */\n    tag_71:\n        /* \"#utility.yul\":13687:13690   */\n      0x00\n        /* \"#utility.yul\":13706:13726   */\n      tag_269\n        /* \"#utility.yul\":13724:13725   */\n      dup3\n        /* \"#utility.yul\":13706:13726   */\n      tag_227\n      jump\t// in\n    tag_269:\n        /* \"#utility.yul\":13701:13726   */\n      swap2\n      pop\n        /* \"#utility.yul\":13740:13760   */\n      tag_270\n        /* \"#utility.yul\":13758:13759   */\n      dup4\n        /* \"#utility.yul\":13740:13760   */\n      tag_227\n      jump\t// in\n    tag_270:\n        /* \"#utility.yul\":13735:13760   */\n      swap3\n      pop\n        /* \"#utility.yul\":13894:13895   */\n      dup3\n        /* \"#utility.yul\":13826:13892   */\n      0xffffffffffffffffffffffffffffffffffffffffffffffffffffffffffffffff\n        /* \"#utility.yul\":13822:13896   */\n      sub\n        /* \"#utility.yul\":13819:13820   */\n      dup3\n        /* \"#utility.yul\":13816:13897   */\n      gt\n        /* \"#utility.yul\":13813:13920   */\n      iszero\n      tag_271\n      jumpi\n        /* \"#utility.yul\":13900:13918   */\n      tag_272\n      tag_273\n      jump\t// in\n    tag_272:\n        /* \"#utility.yul\":13813:13920   */\n    tag_271:\n        /* \"#utility.yul\":13944:13945   */\n      dup3\n        /* \"#utility.yul\":13941:13942   */\n      dup3\n        /* \"#utility.yul\":13937:13946   */\n      add\n        /* \"#utility.yul\":13930:13946   */\n      swap1\n      pop\n        /* \"#utility.yul\":13647:13952   */\n      swap3\n      swap2\n      pop\n      pop\n      jump\t// out\n        /* \"#utility.yul\":13958:14306   */\n    tag_61:\n        /* \"#utility.yul\":13998:14005   */\n      0x00\n        /* \"#utility.yul\":14021:14041   */\n      tag_275\n        /* \"#utility.yul\":14039:14040   */\n      dup3\n        /* \"#utility.yul\":14021:14041   */\n      tag_227\n      jump\t// in\n    tag_275:\n        /* \"#utility.yul\":14016:14041   */\n      swap2\n      pop\n        /* \"#utility.yul\":14055:14075   */\n      tag_276\n        /* \"#utility.yul\":14073:14074   */\n      dup4\n        /* \"#utility.yul\":14055:14075   */\n      tag_227\n      jump\t// in\n    tag_276:\n        /* \"#utility.yul\":14050:14075   */\n      swap3\n      pop\n        /* \"#utility.yul\":14243:14244   */\n      dup2\n        /* \"#utility.yul\":14175:14241   */\n      0xffffffffffffffffffffffffffffffffffffffffffffffffffffffffffffffff\n        /* \"#utility.yul\":14171:14245   */\n      div\n        /* \"#utility.yul\":14168:14169   */\n      dup4\n        /* \"#utility.yul\":14165:14246   */\n      gt\n        /* \"#utility.yul\":14160:14161   */\n      dup3\n        /* \"#utility.yul\":14153:14162   */\n      iszero\n        /* \"#utility.yul\":14146:14163   */\n      iszero\n        /* \"#utility.yul\":14142:14247   */\n      and\n        /* \"#utility.yul\":14139:14270   */\n      iszero\n      tag_277\n      jumpi\n        /* \"#utility.yul\":14250:14268   */\n      tag_278\n      tag_273\n      jump\t// in\n    tag_278:\n        /* \"#utility.yul\":14139:14270   */\n    tag_277:\n        /* \"#utility.yul\":14298:14299   */\n      dup3\n        /* \"#utility.yul\":14295:14296   */\n      dup3\n        /* \"#utility.yul\":14291:14300   */\n      mul\n        /* \"#utility.yul\":14280:14300   */\n      swap1\n      pop\n        /* \"#utility.yul\":13958:14306   */\n      swap3\n      swap2\n      pop\n      pop\n      jump\t// out\n        /* \"#utility.yul\":14312:14503   */\n    tag_69:\n        /* \"#utility.yul\":14352:14356   */\n      0x00\n        /* \"#utility.yul\":14372:14392   */\n      tag_280\n        /* \"#utility.yul\":14390:14391   */\n      dup3\n        /* \"#utility.yul\":14372:14392   */\n      tag_227\n      jump\t// in\n    tag_280:\n        /* \"#utility.yul\":14367:14392   */\n      swap2\n      pop\n        /* \"#utility.yul\":14406:14426   */\n      tag_281\n        /* \"#utility.yul\":14424:14425   */\n      dup4\n        /* \"#utility.yul\":14406:14426   */\n      tag_227\n      jump\t// in\n    tag_281:\n        /* \"#utility.yul\":14401:14426   */\n      swap3\n      pop\n        /* \"#utility.yul\":14445:14446   */\n      dup3\n        /* \"#utility.yul\":14442:14443   */\n      dup3\n        /* \"#utility.yul\":14439:14447   */\n      lt\n        /* \"#utility.yul\":14436:14470   */\n      iszero\n      tag_282\n      jumpi\n        /* \"#utility.yul\":14450:14468   */\n      tag_283\n      tag_273\n      jump\t// in\n    tag_283:\n        /* \"#utility.yul\":14436:14470   */\n    tag_282:\n        /* \"#utility.yul\":14495:14496   */\n      dup3\n        /* \"#utility.yul\":14492:14493   */\n      dup3\n        /* \"#utility.yul\":14488:14497   */\n      sub\n        /* \"#utility.yul\":14480:14497   */\n      swap1\n      pop\n        /* \"#utility.yul\":14312:14503   */\n      swap3\n      swap2\n      pop\n      pop\n      jump\t// out\n        /* \"#utility.yul\":14509:14605   */\n    tag_168:\n        /* \"#utility.yul\":14546:14553   */\n      0x00\n        /* \"#utility.yul\":14575:14599   */\n      tag_285\n        /* \"#utility.yul\":14593:14598   */\n      dup3\n        /* \"#utility.yul\":14575:14599   */\n      tag_286\n      jump\t// in\n    tag_285:\n        /* \"#utility.yul\":14564:14599   */\n      swap1\n      pop\n        /* \"#utility.yul\":14509:14605   */\n      swap2\n      swap1\n      pop\n      jump\t// out\n        /* \"#utility.yul\":14611:14737   */\n    tag_286:\n        /* \"#utility.yul\":14648:14655   */\n      0x00\n        /* \"#utility.yul\":14688:14730   */\n      0xffffffffffffffffffffffffffffffffffffffff\n        /* \"#utility.yul\":14681:14686   */\n      dup3\n        /* \"#utility.yul\":14677:14731   */\n      and\n        /* \"#utility.yul\":14666:14731   */\n      swap1\n      pop\n        /* \"#utility.yul\":14611:14737   */\n      swap2\n      swap1\n      pop\n      jump\t// out\n        /* \"#utility.yul\":14743:14820   */\n    tag_227:\n        /* \"#utility.yul\":14780:14787   */\n      0x00\n        /* \"#utility.yul\":14809:14814   */\n      dup2\n        /* \"#utility.yul\":14798:14814   */\n      swap1\n      pop\n        /* \"#utility.yul\":14743:14820   */\n      swap2\n      swap1\n      pop\n      jump\t// out\n        /* \"#utility.yul\":14826:14980   */\n    tag_119:\n        /* \"#utility.yul\":14910:14916   */\n      dup3\n        /* \"#utility.yul\":14905:14908   */\n      dup2\n        /* \"#utility.yul\":14900:14903   */\n      dup4\n        /* \"#utility.yul\":14887:14917   */\n      calldatacopy\n        /* \"#utility.yul\":14972:14973   */\n      0x00\n        /* \"#utility.yul\":14963:14969   */\n      dup4\n        /* \"#utility.yul\":14958:14961   */\n      dup4\n        /* \"#utility.yul\":14954:14970   */\n      add\n        /* \"#utility.yul\":14947:14974   */\n      mstore\n        /* \"#utility.yul\":14826:14980   */\n      pop\n      pop\n      pop\n      jump\t// out\n        /* \"#utility.yul\":14986:15293   */\n    tag_176:\n        /* \"#utility.yul\":15054:15055   */\n      0x00\n        /* \"#utility.yul\":15064:15177   */\n    tag_291:\n        /* \"#utility.yul\":15078:15084   */\n      dup4\n        /* \"#utility.yul\":15075:15076   */\n      dup2\n        /* \"#utility.yul\":15072:15085   */\n      lt\n        /* \"#utility.yul\":15064:15177   */\n      iszero\n      tag_293\n      jumpi\n        /* \"#utility.yul\":15163:15164   */\n      dup1\n        /* \"#utility.yul\":15158:15161   */\n      dup3\n        /* \"#utility.yul\":15154:15165   */\n      add\n        /* \"#utility.yul\":15148:15166   */\n      mload\n        /* \"#utility.yul\":15144:15145   */\n      dup2\n        /* \"#utility.yul\":15139:15142   */\n      dup5\n        /* \"#utility.yul\":15135:15146   */\n      add\n        /* \"#utility.yul\":15128:15167   */\n      mstore\n        /* \"#utility.yul\":15100:15102   */\n      0x20\n        /* \"#utility.yul\":15097:15098   */\n      dup2\n        /* \"#utility.yul\":15093:15103   */\n      add\n        /* \"#utility.yul\":15088:15103   */\n      swap1\n      pop\n        /* \"#utility.yul\":15064:15177   */\n      jump(tag_291)\n    tag_293:\n        /* \"#utility.yul\":15195:15201   */\n      dup4\n        /* \"#utility.yul\":15192:15193   */\n      dup2\n        /* \"#utility.yul\":15189:15202   */\n      gt\n        /* \"#utility.yul\":15186:15287   */\n      iszero\n      tag_294\n      jumpi\n        /* \"#utility.yul\":15275:15276   */\n      0x00\n        /* \"#utility.yul\":15266:15272   */\n      dup5\n        /* \"#utility.yul\":15261:15264   */\n      dup5\n        /* \"#utility.yul\":15257:15273   */\n      add\n        /* \"#utility.yul\":15250:15277   */\n      mstore\n        /* \"#utility.yul\":15186:15287   */\n    tag_294:\n        /* \"#utility.yul\":15035:15293   */\n      pop\n        /* \"#utility.yul\":14986:15293   */\n      pop\n      pop\n      pop\n      jump\t// out\n        /* \"#utility.yul\":15299:15619   */\n    tag_48:\n        /* \"#utility.yul\":15343:15349   */\n      0x00\n        /* \"#utility.yul\":15380:15381   */\n      0x02\n        /* \"#utility.yul\":15374:15378   */\n      dup3\n        /* \"#utility.yul\":15370:15382   */\n      div\n        /* \"#utility.yul\":15360:15382   */\n      swap1\n      pop\n        /* \"#utility.yul\":15427:15428   */\n      0x01\n        /* \"#utility.yul\":15421:15425   */\n      dup3\n        /* \"#utility.yul\":15417:15429   */\n      and\n        /* \"#utility.yul\":15448:15466   */\n      dup1\n        /* \"#utility.yul\":15438:15519   */\n      tag_296\n      jumpi\n        /* \"#utility.yul\":15504:15508   */\n      0x7f\n        /* \"#utility.yul\":15496:15502   */\n      dup3\n        /* \"#utility.yul\":15492:15509   */\n      and\n        /* \"#utility.yul\":15482:15509   */\n      swap2\n      pop\n        /* \"#utility.yul\":15438:15519   */\n    tag_296:\n        /* \"#utility.yul\":15566:15568   */\n      0x20\n        /* \"#utility.yul\":15558:15564   */\n      dup3\n        /* \"#utility.yul\":15555:15569   */\n      lt\n        /* \"#utility.yul\":15535:15553   */\n      dup2\n        /* \"#utility.yul\":15532:15570   */\n      eq\n        /* \"#utility.yul\":15529:15613   */\n      iszero\n      tag_297\n      jumpi\n        /* \"#utility.yul\":15585:15603   */\n      tag_298\n      tag_299\n      jump\t// in\n    tag_298:\n        /* \"#utility.yul\":15529:15613   */\n    tag_297:\n        /* \"#utility.yul\":15350:15619   */\n      pop\n        /* \"#utility.yul\":15299:15619   */\n      swap2\n      swap1\n      pop\n      jump\t// out\n        /* \"#utility.yul\":15625:15906   */\n    tag_259:\n        /* \"#utility.yul\":15708:15735   */\n      tag_301\n        /* \"#utility.yul\":15730:15734   */\n      dup3\n        /* \"#utility.yul\":15708:15735   */\n      tag_178\n      jump\t// in\n    tag_301:\n        /* \"#utility.yul\":15700:15706   */\n      dup2\n        /* \"#utility.yul\":15696:15736   */\n      add\n        /* \"#utility.yul\":15838:15844   */\n      dup2\n        /* \"#utility.yul\":15826:15836   */\n      dup2\n        /* \"#utility.yul\":15823:15845   */\n      lt\n        /* \"#utility.yul\":15802:15820   */\n      0xffffffffffffffff\n        /* \"#utility.yul\":15790:15800   */\n      dup3\n        /* \"#utility.yul\":15787:15821   */\n      gt\n        /* \"#utility.yul\":15784:15846   */\n      or\n        /* \"#utility.yul\":15781:15869   */\n      iszero\n      tag_302\n      jumpi\n        /* \"#utility.yul\":15849:15867   */\n      tag_303\n      tag_264\n      jump\t// in\n    tag_303:\n        /* \"#utility.yul\":15781:15869   */\n    tag_302:\n        /* \"#utility.yul\":15889:15899   */\n      dup1\n        /* \"#utility.yul\":15885:15887   */\n      0x40\n        /* \"#utility.yul\":15878:15900   */\n      mstore\n        /* \"#utility.yul\":15668:15906   */\n      pop\n        /* \"#utility.yul\":15625:15906   */\n      pop\n      pop\n      jump\t// out\n        /* \"#utility.yul\":15912:16145   */\n    tag_97:\n        /* \"#utility.yul\":15951:15954   */\n      0x00\n        /* \"#utility.yul\":15974:15998   */\n      tag_305\n        /* \"#utility.yul\":15992:15997   */\n      dup3\n        /* \"#utility.yul\":15974:15998   */\n      tag_227\n      jump\t// in\n    tag_305:\n        /* \"#utility.yul\":15965:15998   */\n      swap2\n      pop\n        /* \"#utility.yul\":16020:16086   */\n      0xffffffffffffffffffffffffffffffffffffffffffffffffffffffffffffffff\n        /* \"#utility.yul\":16013:16018   */\n      dup3\n        /* \"#utility.yul\":16010:16087   */\n      eq\n        /* \"#utility.yul\":16007:16110   */\n      iszero\n      tag_306\n      jumpi\n        /* \"#utility.yul\":16090:16108   */\n      tag_307\n      tag_273\n      jump\t// in\n    tag_307:\n        /* \"#utility.yul\":16007:16110   */\n    tag_306:\n        /* \"#utility.yul\":16137:16138   */\n      0x01\n        /* \"#utility.yul\":16130:16135   */\n      dup3\n        /* \"#utility.yul\":16126:16139   */\n      add\n        /* \"#utility.yul\":16119:16139   */\n      swap1\n      pop\n        /* \"#utility.yul\":15912:16145   */\n      swap2\n      swap1\n      pop\n      jump\t// out\n        /* \"#utility.yul\":16151:16331   */\n    tag_273:\n        /* \"#utility.yul\":16199:16276   */\n      0x4e487b7100000000000000000000000000000000000000000000000000000000\n        /* \"#utility.yul\":16196:16197   */\n      0x00\n        /* \"#utility.yul\":16189:16277   */\n      mstore\n        /* \"#utility.yul\":16296:16300   */\n      0x11\n        /* \"#utility.yul\":16293:16294   */\n      0x04\n        /* \"#utility.yul\":16286:16301   */\n      mstore\n        /* \"#utility.yul\":16320:16324   */\n      0x24\n        /* \"#utility.yul\":16317:16318   */\n      0x00\n        /* \"#utility.yul\":16310:16325   */\n      revert\n        /* \"#utility.yul\":16337:16517   */\n    tag_299:\n        /* \"#utility.yul\":16385:16462   */\n      0x4e487b7100000000000000000000000000000000000000000000000000000000\n        /* \"#utility.yul\":16382:16383   */\n      0x00\n        /* \"#utility.yul\":16375:16463   */\n      mstore\n        /* \"#utility.yul\":16482:16486   */\n      0x22\n        /* \"#utility.yul\":16479:16480   */\n      0x04\n        /* \"#utility.yul\":16472:16487   */\n      mstore\n        /* \"#utility.yul\":16506:16510   */\n      0x24\n        /* \"#utility.yul\":16503:16504   */\n      0x00\n        /* \"#utility.yul\":16496:16511   */\n      revert\n        /* \"#utility.yul\":16523:16703   */\n    tag_264:\n        /* \"#utility.yul\":16571:16648   */\n      0x4e487b7100000000000000000000000000000000000000000000000000000000\n        /* \"#utility.yul\":16568:16569   */\n      0x00\n        /* \"#utility.yul\":16561:16649   */\n      mstore\n        /* \"#utility.yul\":16668:16672   */\n      0x41\n        /* \"#utility.yul\":16665:16666   */\n      0x04\n        /* \"#utility.yul\":16658:16673   */\n      mstore\n        /* \"#utility.yul\":16692:16696   */\n      0x24\n        /* \"#utility.yul\":16689:16690   */\n      0x00\n        /* \"#utility.yul\":16682:16697   */\n      revert\n        /* \"#utility.yul\":16709:16826   */\n    tag_128:\n        /* \"#utility.yul\":16818:16819   */\n      0x00\n        /* \"#utility.yul\":16815:16816   */\n      dup1\n        /* \"#utility.yul\":16808:16820   */\n      revert\n        /* \"#utility.yul\":16832:16949   */\n    tag_117:\n        /* \"#utility.yul\":16941:16942   */\n      0x00\n        /* \"#utility.yul\":16938:16939   */\n      dup1\n        /* \"#utility.yul\":16931:16943   */\n      revert\n        /* \"#utility.yul\":16955:17072   */\n    tag_150:\n        /* \"#utility.yul\":17064:17065   */\n      0x00\n        /* \"#utility.yul\":17061:17062   */\n      dup1\n        /* \"#utility.yul\":17054:17066   */\n      revert\n        /* \"#utility.yul\":17078:17195   */\n    tag_137:\n        /* \"#utility.yul\":17187:17188   */\n      0x00\n        /* \"#utility.yul\":17184:17185   */\n      dup1\n        /* \"#utility.yul\":17177:17189   */\n      revert\n        /* \"#utility.yul\":17201:17303   */\n    tag_178:\n        /* \"#utility.yul\":17242:17248   */\n      0x00\n        /* \"#utility.yul\":17293:17295   */\n      0x1f\n        /* \"#utility.yul\":17289:17296   */\n      not\n        /* \"#utility.yul\":17284:17286   */\n      0x1f\n        /* \"#utility.yul\":17277:17282   */\n      dup4\n        /* \"#utility.yul\":17273:17287   */\n      add\n        /* \"#utility.yul\":17269:17297   */\n      and\n        /* \"#utility.yul\":17259:17297   */\n      swap1\n      pop\n        /* \"#utility.yul\":17201:17303   */\n      swap2\n      swap1\n      pop\n      jump\t// out\n        /* \"#utility.yul\":17309:17480   */\n    tag_183:\n        /* \"#utility.yul\":17449:17472   */\n      0x457468657273206973206e6f7420656e6f756768210000000000000000000000\n        /* \"#utility.yul\":17445:17446   */\n      0x00\n        /* \"#utility.yul\":17437:17443   */\n      dup3\n        /* \"#utility.yul\":17433:17447   */\n      add\n        /* \"#utility.yul\":17426:17473   */\n      mstore\n        /* \"#utility.yul\":17309:17480   */\n      pop\n      jump\t// out\n        /* \"#utility.yul\":17486:17714   */\n    tag_188:\n        /* \"#utility.yul\":17626:17660   */\n      0x596f7520646f6e2774206861766520656e6f756768207469636b657420746f20\n        /* \"#utility.yul\":17622:17623   */\n      0x00\n        /* \"#utility.yul\":17614:17620   */\n      dup3\n        /* \"#utility.yul\":17610:17624   */\n      add\n        /* \"#utility.yul\":17603:17661   */\n      mstore\n        /* \"#utility.yul\":17695:17706   */\n      0x7472616e73666572210000000000000000000000000000000000000000000000\n        /* \"#utility.yul\":17690:17692   */\n      0x20\n        /* \"#utility.yul\":17682:17688   */\n      dup3\n        /* \"#utility.yul\":17678:17693   */\n      add\n        /* \"#utility.yul\":17671:17707   */\n      mstore\n        /* \"#utility.yul\":17486:17714   */\n      pop\n      jump\t// out\n        /* \"#utility.yul\":17720:17892   */\n    tag_193:\n        /* \"#utility.yul\":17860:17884   */\n      0x4576656e7420616c7265616479206f6363757265642100000000000000000000\n        /* \"#utility.yul\":17856:17857   */\n      0x00\n        /* \"#utility.yul\":17848:17854   */\n      dup3\n        /* \"#utility.yul\":17844:17858   */\n      add\n        /* \"#utility.yul\":17837:17885   */\n      mstore\n        /* \"#utility.yul\":17720:17892   */\n      pop\n      jump\t// out\n        /* \"#utility.yul\":17898:18077   */\n    tag_198:\n        /* \"#utility.yul\":18038:18069   */\n      0x596f752063616e206e6f742063616e63656c2074686973206576656e74000000\n        /* \"#utility.yul\":18034:18035   */\n      0x00\n        /* \"#utility.yul\":18026:18032   */\n      dup3\n        /* \"#utility.yul\":18022:18036   */\n      add\n        /* \"#utility.yul\":18015:18070   */\n      mstore\n        /* \"#utility.yul\":17898:18077   */\n      pop\n      jump\t// out\n        /* \"#utility.yul\":18083:18256   */\n    tag_203:\n        /* \"#utility.yul\":18223:18248   */\n      0x4576656e7420626f6f6b696e6720697320636c6f736521000000000000000000\n        /* \"#utility.yul\":18219:18220   */\n      0x00\n        /* \"#utility.yul\":18211:18217   */\n      dup3\n        /* \"#utility.yul\":18207:18221   */\n      add\n        /* \"#utility.yul\":18200:18249   */\n      mstore\n        /* \"#utility.yul\":18083:18256   */\n      pop\n      jump\t// out\n        /* \"#utility.yul\":18262:18433   */\n    tag_208:\n        /* \"#utility.yul\":18402:18425   */\n      0x4576656e7420646f6573206e6f74206578697374210000000000000000000000\n        /* \"#utility.yul\":18398:18399   */\n      0x00\n        /* \"#utility.yul\":18390:18396   */\n      dup3\n        /* \"#utility.yul\":18386:18400   */\n      add\n        /* \"#utility.yul\":18379:18426   */\n      mstore\n        /* \"#utility.yul\":18262:18433   */\n      pop\n      jump\t// out\n        /* \"#utility.yul\":18439:18618   */\n    tag_213:\n        /* \"#utility.yul\":18579:18610   */\n      0x576520646f6e2774206861766520656e6f756768207469636b65747321000000\n        /* \"#utility.yul\":18575:18576   */\n      0x00\n        /* \"#utility.yul\":18567:18573   */\n      dup3\n        /* \"#utility.yul\":18563:18577   */\n      add\n        /* \"#utility.yul\":18556:18611   */\n      mstore\n        /* \"#utility.yul\":18439:18618   */\n      pop\n      jump\t// out\n        /* \"#utility.yul\":18624:18844   */\n    tag_218:\n        /* \"#utility.yul\":18764:18798   */\n      0x4576656e74206d75737420686176652061746c656173742031207469636b6574\n        /* \"#utility.yul\":18760:18761   */\n      0x00\n        /* \"#utility.yul\":18752:18758   */\n      dup3\n        /* \"#utility.yul\":18748:18762   */\n      add\n        /* \"#utility.yul\":18741:18799   */\n      mstore\n        /* \"#utility.yul\":18833:18836   */\n      0x2100000000000000000000000000000000000000000000000000000000000000\n        /* \"#utility.yul\":18828:18830   */\n      0x20\n        /* \"#utility.yul\":18820:18826   */\n      dup3\n        /* \"#utility.yul\":18816:18831   */\n      add\n        /* \"#utility.yul\":18809:18837   */\n      mstore\n        /* \"#utility.yul\":18624:18844   */\n      pop\n      jump\t// out\n        /* \"#utility.yul\":18850:19071   */\n    tag_223:\n        /* \"#utility.yul\":18990:19024   */\n      0x596f752063616e206f7267616e697a65206576656e7420666f72206675747572\n        /* \"#utility.yul\":18986:18987   */\n      0x00\n        /* \"#utility.yul\":18978:18984   */\n      dup3\n        /* \"#utility.yul\":18974:18988   */\n      add\n        /* \"#utility.yul\":18967:19025   */\n      mstore\n        /* \"#utility.yul\":19059:19063   */\n      0x6521000000000000000000000000000000000000000000000000000000000000\n        /* \"#utility.yul\":19054:19056   */\n      0x20\n        /* \"#utility.yul\":19046:19052   */\n      dup3\n        /* \"#utility.yul\":19042:19057   */\n      add\n        /* \"#utility.yul\":19035:19064   */\n      mstore\n        /* \"#utility.yul\":18850:19071   */\n      pop\n      jump\t// out\n        /* \"#utility.yul\":19077:19199   */\n    tag_123:\n        /* \"#utility.yul\":19150:19174   */\n      tag_326\n        /* \"#utility.yul\":19168:19173   */\n      dup2\n        /* \"#utility.yul\":19150:19174   */\n      tag_168\n      jump\t// in\n    tag_326:\n        /* \"#utility.yul\":19143:19148   */\n      dup2\n        /* \"#utility.yul\":19140:19175   */\n      eq\n        /* \"#utility.yul\":19130:19193   */\n      tag_327\n      jumpi\n        /* \"#utility.yul\":19189:19190   */\n      0x00\n        /* \"#utility.yul\":19186:19187   */\n      dup1\n        /* \"#utility.yul\":19179:19191   */\n      revert\n        /* \"#utility.yul\":19130:19193   */\n    tag_327:\n        /* \"#utility.yul\":19077:19199   */\n      pop\n      jump\t// out\n        /* \"#utility.yul\":19205:19327   */\n    tag_133:\n        /* \"#utility.yul\":19278:19302   */\n      tag_329\n        /* \"#utility.yul\":19296:19301   */\n      dup2\n        /* \"#utility.yul\":19278:19302   */\n      tag_227\n      jump\t// in\n    tag_329:\n        /* \"#utility.yul\":19271:19276   */\n      dup2\n        /* \"#utility.yul\":19268:19303   */\n      eq\n        /* \"#utility.yul\":19258:19321   */\n      tag_330\n      jumpi\n        /* \"#utility.yul\":19317:19318   */\n      0x00\n        /* \"#utility.yul\":19314:19315   */\n      dup1\n        /* \"#utility.yul\":19307:19319   */\n      revert\n        /* \"#utility.yul\":19258:19321   */\n    tag_330:\n        /* \"#utility.yul\":19205:19327   */\n      pop\n      jump\t// out\n\n    auxdata: 0xa2646970667358221220a6b0eba74672fbb67c61249ca821db203bc233f3dfab95ced6daef07c97572e264736f6c63430008070033\n}\n",
				"bytecode": {
					"linkReferences": {},
					"object": "608060405234801561001057600080fd5b5061144e806100206000396000f3fe6080604052600436106100705760003560e01c8063b3cea2171161004e578063b3cea21714610110578063dae7a13c1461013b578063f086a09b14610178578063f93694fb146101a157610070565b80630b79143014610075578063298ec208146100b75780633f69babd146100e7575b600080fd5b34801561008157600080fd5b5061009c60048036038101906100979190610a5d565b6101ca565b6040516100ae96959493929190610d32565b60405180910390f35b6100d160048036038101906100cc9190610b0d565b6102ae565b6040516100de9190610eba565b60405180910390f35b3480156100f357600080fd5b5061010e60048036038101906101099190610a5d565b61047b565b005b34801561011c57600080fd5b50610125610521565b6040516101329190610eba565b60405180910390f35b34801561014757600080fd5b50610162600480360381019061015d9190610a1d565b610527565b60405161016f9190610eba565b60405180910390f35b34801561018457600080fd5b5061019f600480360381019061019a9190610b4d565b61054c565b005b3480156101ad57600080fd5b506101c860048036038101906101c39190610a8a565b610757565b005b60006020528060005260406000206000915090508060000160009054906101000a900473ffffffffffffffffffffffffffffffffffffffff1690806001015490806002018054610219906110a9565b80601f0160208091040260200160405190810160405280929190818152602001828054610245906110a9565b80156102925780601f1061026757610100808354040283529160200191610292565b820191906000526020600020905b81548152906001019060200180831161027557829003601f168201915b5050505050908060030154908060040154908060050154905086565b600080600080848152602001908152602001600020905060008160010154141561030d576040517f08c379a000000000000000000000000000000000000000000000000000000000815260040161030490610e3a565b60405180910390fd5b42816001015411610353576040517f08c379a000000000000000000000000000000000000000000000000000000000815260040161034a90610e1a565b60405180910390fd5b348482600301546103649190610f9d565b146103a4576040517f08c379a000000000000000000000000000000000000000000000000000000000815260040161039b90610d9a565b60405180910390fd5b83816005015410156103eb576040517f08c379a00000000000000000000000000000000000000000000000000000000081526004016103e290610e5a565b60405180910390fd5b838160050160008282546103ff9190610ff7565b9250508190555083600160003373ffffffffffffffffffffffffffffffffffffffff1673ffffffffffffffffffffffffffffffffffffffff168152602001908152602001600020600085815260200190815260200160002060008282546104669190610f47565b92505081905550806001015491505092915050565b3373ffffffffffffffffffffffffffffffffffffffff1660008083815260200190815260200160002060000160009054906101000a900473ffffffffffffffffffffffffffffffffffffffff1673ffffffffffffffffffffffffffffffffffffffff161461051e576040517f08c379a000000000000000000000000000000000000000000000000000000000815260040161051590610dfa565b60405180910390fd5b50565b60025481565b6001602052816000526040600020602052806000526040600020600091509150505481565b600080600084815260200190815260200160002090506000816001015414156105aa576040517f08c379a00000000000000000000000000000000000000000000000000000000081526004016105a190610e3a565b60405180910390fd5b428160010154116105f0576040517f08c379a00000000000000000000000000000000000000000000000000000000081526004016105e790610dda565b60405180910390fd5b83600160003373ffffffffffffffffffffffffffffffffffffffff1673ffffffffffffffffffffffffffffffffffffffff1681526020019081526020016000206000858152602001908152602001600020541015610683576040517f08c379a000000000000000000000000000000000000000000000000000000000815260040161067a90610dba565b60405180910390fd5b83600160003373ffffffffffffffffffffffffffffffffffffffff1673ffffffffffffffffffffffffffffffffffffffff168152602001908152602001600020600085815260200190815260200160002060008282546106e39190610ff7565b9250508190555083600160008473ffffffffffffffffffffffffffffffffffffffff1673ffffffffffffffffffffffffffffffffffffffff1681526020019081526020016000206000858152602001908152602001600020600082825461074a9190610f47565b9250508190555050505050565b428411610799576040517f08c379a000000000000000000000000000000000000000000000000000000000815260040161079090610e9a565b60405180910390fd5b600081116107dc576040517f08c379a00000000000000000000000000000000000000000000000000000000081526004016107d390610e7a565b60405180910390fd5b6040518060c001604052803373ffffffffffffffffffffffffffffffffffffffff16815260200185815260200184815260200183815260200182815260200182815250600080600254815260200190815260200160002060008201518160000160006101000a81548173ffffffffffffffffffffffffffffffffffffffff021916908373ffffffffffffffffffffffffffffffffffffffff1602179055506020820151816001015560408201518160020190805190602001906108a09291906108e0565b50606082015181600301556080820151816004015560a08201518160050155905050600260008154809291906108d59061110c565b919050555050505050565b8280546108ec906110a9565b90600052602060002090601f01602090048101928261090e5760008555610955565b82601f1061092757805160ff1916838001178555610955565b82800160010185558215610955579182015b82811115610954578251825591602001919060010190610939565b5b5090506109629190610966565b5090565b5b8082111561097f576000816000905550600101610967565b5090565b600061099661099184610efa565b610ed5565b9050828152602081018484840111156109b2576109b16111e7565b5b6109bd848285611067565b509392505050565b6000813590506109d4816113ea565b92915050565b600082601f8301126109ef576109ee6111e2565b5b81356109ff848260208601610983565b91505092915050565b600081359050610a1781611401565b92915050565b60008060408385031215610a3457610a336111f1565b5b6000610a42858286016109c5565b9250506020610a5385828601610a08565b9150509250929050565b600060208284031215610a7357610a726111f1565b5b6000610a8184828501610a08565b91505092915050565b60008060008060808587031215610aa457610aa36111f1565b5b6000610ab287828801610a08565b945050602085013567ffffffffffffffff811115610ad357610ad26111ec565b5b610adf878288016109da565b9350506040610af087828801610a08565b9250506060610b0187828801610a08565b91505092959194509250565b60008060408385031215610b2457610b236111f1565b5b6000610b3285828601610a08565b9250506020610b4385828601610a08565b9150509250929050565b600080600060608486031215610b6657610b656111f1565b5b6000610b7486828701610a08565b9350506020610b8586828701610a08565b9250506040610b96868287016109c5565b9150509250925092565b610ba98161102b565b82525050565b6000610bba82610f2b565b610bc48185610f36565b9350610bd4818560208601611076565b610bdd816111f6565b840191505092915050565b6000610bf5601583610f36565b9150610c0082611207565b602082019050919050565b6000610c18602983610f36565b9150610c2382611230565b604082019050919050565b6000610c3b601683610f36565b9150610c468261127f565b602082019050919050565b6000610c5e601d83610f36565b9150610c69826112a8565b602082019050919050565b6000610c81601783610f36565b9150610c8c826112d1565b602082019050919050565b6000610ca4601583610f36565b9150610caf826112fa565b602082019050919050565b6000610cc7601d83610f36565b9150610cd282611323565b602082019050919050565b6000610cea602183610f36565b9150610cf58261134c565b604082019050919050565b6000610d0d602283610f36565b9150610d188261139b565b604082019050919050565b610d2c8161105d565b82525050565b600060c082019050610d476000830189610ba0565b610d546020830188610d23565b8181036040830152610d668187610baf565b9050610d756060830186610d23565b610d826080830185610d23565b610d8f60a0830184610d23565b979650505050505050565b60006020820190508181036000830152610db381610be8565b9050919050565b60006020820190508181036000830152610dd381610c0b565b9050919050565b60006020820190508181036000830152610df381610c2e565b9050919050565b60006020820190508181036000830152610e1381610c51565b9050919050565b60006020820190508181036000830152610e3381610c74565b9050919050565b60006020820190508181036000830152610e5381610c97565b9050919050565b60006020820190508181036000830152610e7381610cba565b9050919050565b60006020820190508181036000830152610e9381610cdd565b9050919050565b60006020820190508181036000830152610eb381610d00565b9050919050565b6000602082019050610ecf6000830184610d23565b92915050565b6000610edf610ef0565b9050610eeb82826110db565b919050565b6000604051905090565b600067ffffffffffffffff821115610f1557610f146111b3565b5b610f1e826111f6565b9050602081019050919050565b600081519050919050565b600082825260208201905092915050565b6000610f528261105d565b9150610f5d8361105d565b9250827fffffffffffffffffffffffffffffffffffffffffffffffffffffffffffffffff03821115610f9257610f91611155565b5b828201905092915050565b6000610fa88261105d565b9150610fb38361105d565b9250817fffffffffffffffffffffffffffffffffffffffffffffffffffffffffffffffff0483118215151615610fec57610feb611155565b5b828202905092915050565b60006110028261105d565b915061100d8361105d565b9250828210156110205761101f611155565b5b828203905092915050565b60006110368261103d565b9050919050565b600073ffffffffffffffffffffffffffffffffffffffff82169050919050565b6000819050919050565b82818337600083830152505050565b60005b83811015611094578082015181840152602081019050611079565b838111156110a3576000848401525b50505050565b600060028204905060018216806110c157607f821691505b602082108114156110d5576110d4611184565b5b50919050565b6110e4826111f6565b810181811067ffffffffffffffff82111715611103576111026111b3565b5b80604052505050565b60006111178261105d565b91507fffffffffffffffffffffffffffffffffffffffffffffffffffffffffffffffff82141561114a57611149611155565b5b600182019050919050565b7f4e487b7100000000000000000000000000000000000000000000000000000000600052601160045260246000fd5b7f4e487b7100000000000000000000000000000000000000000000000000000000600052602260045260246000fd5b7f4e487b7100000000000000000000000000000000000000000000000000000000600052604160045260246000fd5b600080fd5b600080fd5b600080fd5b600080fd5b6000601f19601f8301169050919050565b7f457468657273206973206e6f7420656e6f756768210000000000000000000000600082015250565b7f596f7520646f6e2774206861766520656e6f756768207469636b657420746f2060008201527f7472616e73666572210000000000000000000000000000000000000000000000602082015250565b7f4576656e7420616c7265616479206f6363757265642100000000000000000000600082015250565b7f596f752063616e206e6f742063616e63656c2074686973206576656e74000000600082015250565b7f4576656e7420626f6f6b696e6720697320636c6f736521000000000000000000600082015250565b7f4576656e7420646f6573206e6f74206578697374210000000000000000000000600082015250565b7f576520646f6e2774206861766520656e6f756768207469636b65747321000000600082015250565b7f4576656e74206d75737420686176652061746c656173742031207469636b657460008201527f2100000000000000000000000000000000000000000000000000000000000000602082015250565b7f596f752063616e206f7267616e697a65206576656e7420666f7220667574757260008201527f6521000000000000000000000000000000000000000000000000000000000000602082015250565b6113f38161102b565b81146113fe57600080fd5b50565b61140a8161105d565b811461141557600080fd5b5056fea2646970667358221220a6b0eba74672fbb67c61249ca821db203bc233f3dfab95ced6daef07c97572e264736f6c63430008070033",
					"opcodes": "PUSH1 0x80 PUSH1 0x40 MSTORE CALLVALUE DUP1 ISZERO PUSH2 0x10 JUMPI PUSH1 0x0 DUP1 REVERT JUMPDEST POP PUSH2 0x144E DUP1 PUSH2 0x20 PUSH1 0x0 CODECOPY PUSH1 0x0 RETURN INVALID PUSH1 0x80 PUSH1 0x40 MSTORE PUSH1 0x4 CALLDATASIZE LT PUSH2 0x70 JUMPI PUSH1 0x0 CALLDATALOAD PUSH1 0xE0 SHR DUP1 PUSH4 0xB3CEA217 GT PUSH2 0x4E JUMPI DUP1 PUSH4 0xB3CEA217 EQ PUSH2 0x110 JUMPI DUP1 PUSH4 0xDAE7A13C EQ PUSH2 0x13B JUMPI DUP1 PUSH4 0xF086A09B EQ PUSH2 0x178 JUMPI DUP1 PUSH4 0xF93694FB EQ PUSH2 0x1A1 JUMPI PUSH2 0x70 JUMP JUMPDEST DUP1 PUSH4 0xB791430 EQ PUSH2 0x75 JUMPI DUP1 PUSH4 0x298EC208 EQ PUSH2 0xB7 JUMPI DUP1 PUSH4 0x3F69BABD EQ PUSH2 0xE7 JUMPI JUMPDEST PUSH1 0x0 DUP1 REVERT JUMPDEST CALLVALUE DUP1 ISZERO PUSH2 0x81 JUMPI PUSH1 0x0 DUP1 REVERT JUMPDEST POP PUSH2 0x9C PUSH1 0x4 DUP1 CALLDATASIZE SUB DUP2 ADD SWAP1 PUSH2 0x97 SWAP2 SWAP1 PUSH2 0xA5D JUMP JUMPDEST PUSH2 0x1CA JUMP JUMPDEST PUSH1 0x40 MLOAD PUSH2 0xAE SWAP7 SWAP6 SWAP5 SWAP4 SWAP3 SWAP2 SWAP1 PUSH2 0xD32 JUMP JUMPDEST PUSH1 0x40 MLOAD DUP1 SWAP2 SUB SWAP1 RETURN JUMPDEST PUSH2 0xD1 PUSH1 0x4 DUP1 CALLDATASIZE SUB DUP2 ADD SWAP1 PUSH2 0xCC SWAP2 SWAP1 PUSH2 0xB0D JUMP JUMPDEST PUSH2 0x2AE JUMP JUMPDEST PUSH1 0x40 MLOAD PUSH2 0xDE SWAP2 SWAP1 PUSH2 0xEBA JUMP JUMPDEST PUSH1 0x40 MLOAD DUP1 SWAP2 SUB SWAP1 RETURN JUMPDEST CALLVALUE DUP1 ISZERO PUSH2 0xF3 JUMPI PUSH1 0x0 DUP1 REVERT JUMPDEST POP PUSH2 0x10E PUSH1 0x4 DUP1 CALLDATASIZE SUB DUP2 ADD SWAP1 PUSH2 0x109 SWAP2 SWAP1 PUSH2 0xA5D JUMP JUMPDEST PUSH2 0x47B JUMP JUMPDEST STOP JUMPDEST CALLVALUE DUP1 ISZERO PUSH2 0x11C JUMPI PUSH1 0x0 DUP1 REVERT JUMPDEST POP PUSH2 0x125 PUSH2 0x521 JUMP JUMPDEST PUSH1 0x40 MLOAD PUSH2 0x132 SWAP2 SWAP1 PUSH2 0xEBA JUMP JUMPDEST PUSH1 0x40 MLOAD DUP1 SWAP2 SUB SWAP1 RETURN JUMPDEST CALLVALUE DUP1 ISZERO PUSH2 0x147 JUMPI PUSH1 0x0 DUP1 REVERT JUMPDEST POP PUSH2 0x162 PUSH1 0x4 DUP1 CALLDATASIZE SUB DUP2 ADD SWAP1 PUSH2 0x15D SWAP2 SWAP1 PUSH2 0xA1D JUMP JUMPDEST PUSH2 0x527 JUMP JUMPDEST PUSH1 0x40 MLOAD PUSH2 0x16F SWAP2 SWAP1 PUSH2 0xEBA JUMP JUMPDEST PUSH1 0x40 MLOAD DUP1 SWAP2 SUB SWAP1 RETURN JUMPDEST CALLVALUE DUP1 ISZERO PUSH2 0x184 JUMPI PUSH1 0x0 DUP1 REVERT JUMPDEST POP PUSH2 0x19F PUSH1 0x4 DUP1 CALLDATASIZE SUB DUP2 ADD SWAP1 PUSH2 0x19A SWAP2 SWAP1 PUSH2 0xB4D JUMP JUMPDEST PUSH2 0x54C JUMP JUMPDEST STOP JUMPDEST CALLVALUE DUP1 ISZERO PUSH2 0x1AD JUMPI PUSH1 0x0 DUP1 REVERT JUMPDEST POP PUSH2 0x1C8 PUSH1 0x4 DUP1 CALLDATASIZE SUB DUP2 ADD SWAP1 PUSH2 0x1C3 SWAP2 SWAP1 PUSH2 0xA8A JUMP JUMPDEST PUSH2 0x757 JUMP JUMPDEST STOP JUMPDEST PUSH1 0x0 PUSH1 0x20 MSTORE DUP1 PUSH1 0x0 MSTORE PUSH1 0x40 PUSH1 0x0 KECCAK256 PUSH1 0x0 SWAP2 POP SWAP1 POP DUP1 PUSH1 0x0 ADD PUSH1 0x0 SWAP1 SLOAD SWAP1 PUSH2 0x100 EXP SWAP1 DIV PUSH20 0xFFFFFFFFFFFFFFFFFFFFFFFFFFFFFFFFFFFFFFFF AND SWAP1 DUP1 PUSH1 0x1 ADD SLOAD SWAP1 DUP1 PUSH1 0x2 ADD DUP1 SLOAD PUSH2 0x219 SWAP1 PUSH2 0x10A9 JUMP JUMPDEST DUP1 PUSH1 0x1F ADD PUSH1 0x20 DUP1 SWAP2 DIV MUL PUSH1 0x20 ADD PUSH1 0x40 MLOAD SWAP1 DUP2 ADD PUSH1 0x40 MSTORE DUP1 SWAP3 SWAP2 SWAP1 DUP2 DUP2 MSTORE PUSH1 0x20 ADD DUP3 DUP1 SLOAD PUSH2 0x245 SWAP1 PUSH2 0x10A9 JUMP JUMPDEST DUP1 ISZERO PUSH2 0x292 JUMPI DUP1 PUSH1 0x1F LT PUSH2 0x267 JUMPI PUSH2 0x100 DUP1 DUP4 SLOAD DIV MUL DUP4 MSTORE SWAP2 PUSH1 0x20 ADD SWAP2 PUSH2 0x292 JUMP JUMPDEST DUP3 ADD SWAP2 SWAP1 PUSH1 0x0 MSTORE PUSH1 0x20 PUSH1 0x0 KECCAK256 SWAP1 JUMPDEST DUP2 SLOAD DUP2 MSTORE SWAP1 PUSH1 0x1 ADD SWAP1 PUSH1 0x20 ADD DUP1 DUP4 GT PUSH2 0x275 JUMPI DUP3 SWAP1 SUB PUSH1 0x1F AND DUP3 ADD SWAP2 JUMPDEST POP POP POP POP POP SWAP1 DUP1 PUSH1 0x3 ADD SLOAD SWAP1 DUP1 PUSH1 0x4 ADD SLOAD SWAP1 DUP1 PUSH1 0x5 ADD SLOAD SWAP1 POP DUP7 JUMP JUMPDEST PUSH1 0x0 DUP1 PUSH1 0x0 DUP1 DUP5 DUP2 MSTORE PUSH1 0x20 ADD SWAP1 DUP2 MSTORE PUSH1 0x20 ADD PUSH1 0x0 KECCAK256 SWAP1 POP PUSH1 0x0 DUP2 PUSH1 0x1 ADD SLOAD EQ ISZERO PUSH2 0x30D JUMPI PUSH1 0x40 MLOAD PUSH32 0x8C379A000000000000000000000000000000000000000000000000000000000 DUP2 MSTORE PUSH1 0x4 ADD PUSH2 0x304 SWAP1 PUSH2 0xE3A JUMP JUMPDEST PUSH1 0x40 MLOAD DUP1 SWAP2 SUB SWAP1 REVERT JUMPDEST TIMESTAMP DUP2 PUSH1 0x1 ADD SLOAD GT PUSH2 0x353 JUMPI PUSH1 0x40 MLOAD PUSH32 0x8C379A000000000000000000000000000000000000000000000000000000000 DUP2 MSTORE PUSH1 0x4 ADD PUSH2 0x34A SWAP1 PUSH2 0xE1A JUMP JUMPDEST PUSH1 0x40 MLOAD DUP1 SWAP2 SUB SWAP1 REVERT JUMPDEST CALLVALUE DUP5 DUP3 PUSH1 0x3 ADD SLOAD PUSH2 0x364 SWAP2 SWAP1 PUSH2 0xF9D JUMP JUMPDEST EQ PUSH2 0x3A4 JUMPI PUSH1 0x40 MLOAD PUSH32 0x8C379A000000000000000000000000000000000000000000000000000000000 DUP2 MSTORE PUSH1 0x4 ADD PUSH2 0x39B SWAP1 PUSH2 0xD9A JUMP JUMPDEST PUSH1 0x40 MLOAD DUP1 SWAP2 SUB SWAP1 REVERT JUMPDEST DUP4 DUP2 PUSH1 0x5 ADD SLOAD LT ISZERO PUSH2 0x3EB JUMPI PUSH1 0x40 MLOAD PUSH32 0x8C379A000000000000000000000000000000000000000000000000000000000 DUP2 MSTORE PUSH1 0x4 ADD PUSH2 0x3E2 SWAP1 PUSH2 0xE5A JUMP JUMPDEST PUSH1 0x40 MLOAD DUP1 SWAP2 SUB SWAP1 REVERT JUMPDEST DUP4 DUP2 PUSH1 0x5 ADD PUSH1 0x0 DUP3 DUP3 SLOAD PUSH2 0x3FF SWAP2 SWAP1 PUSH2 0xFF7 JUMP JUMPDEST SWAP3 POP POP DUP2 SWAP1 SSTORE POP DUP4 PUSH1 0x1 PUSH1 0x0 CALLER PUSH20 0xFFFFFFFFFFFFFFFFFFFFFFFFFFFFFFFFFFFFFFFF AND PUSH20 0xFFFFFFFFFFFFFFFFFFFFFFFFFFFFFFFFFFFFFFFF AND DUP2 MSTORE PUSH1 0x20 ADD SWAP1 DUP2 MSTORE PUSH1 0x20 ADD PUSH1 0x0 KECCAK256 PUSH1 0x0 DUP6 DUP2 MSTORE PUSH1 0x20 ADD SWAP1 DUP2 MSTORE PUSH1 0x20 ADD PUSH1 0x0 KECCAK256 PUSH1 0x0 DUP3 DUP3 SLOAD PUSH2 0x466 SWAP2 SWAP1 PUSH2 0xF47 JUMP JUMPDEST SWAP3 POP POP DUP2 SWAP1 SSTORE POP DUP1 PUSH1 0x1 ADD SLOAD SWAP2 POP POP SWAP3 SWAP2 POP POP JUMP JUMPDEST CALLER PUSH20 0xFFFFFFFFFFFFFFFFFFFFFFFFFFFFFFFFFFFFFFFF AND PUSH1 0x0 DUP1 DUP4 DUP2 MSTORE PUSH1 0x20 ADD SWAP1 DUP2 MSTORE PUSH1 0x20 ADD PUSH1 0x0 KECCAK256 PUSH1 0x0 ADD PUSH1 0x0 SWAP1 SLOAD SWAP1 PUSH2 0x100 EXP SWAP1 DIV PUSH20 0xFFFFFFFFFFFFFFFFFFFFFFFFFFFFFFFFFFFFFFFF AND PUSH20 0xFFFFFFFFFFFFFFFFFFFFFFFFFFFFFFFFFFFFFFFF AND EQ PUSH2 0x51E JUMPI PUSH1 0x40 MLOAD PUSH32 0x8C379A000000000000000000000000000000000000000000000000000000000 DUP2 MSTORE PUSH1 0x4 ADD PUSH2 0x515 SWAP1 PUSH2 0xDFA JUMP JUMPDEST PUSH1 0x40 MLOAD DUP1 SWAP2 SUB SWAP1 REVERT JUMPDEST POP JUMP JUMPDEST PUSH1 0x2 SLOAD DUP2 JUMP JUMPDEST PUSH1 0x1 PUSH1 0x20 MSTORE DUP2 PUSH1 0x0 MSTORE PUSH1 0x40 PUSH1 0x0 KECCAK256 PUSH1 0x20 MSTORE DUP1 PUSH1 0x0 MSTORE PUSH1 0x40 PUSH1 0x0 KECCAK256 PUSH1 0x0 SWAP2 POP SWAP2 POP POP SLOAD DUP2 JUMP JUMPDEST PUSH1 0x0 DUP1 PUSH1 0x0 DUP5 DUP2 MSTORE PUSH1 0x20 ADD SWAP1 DUP2 MSTORE PUSH1 0x20 ADD PUSH1 0x0 KECCAK256 SWAP1 POP PUSH1 0x0 DUP2 PUSH1 0x1 ADD SLOAD EQ ISZERO PUSH2 0x5AA JUMPI PUSH1 0x40 MLOAD PUSH32 0x8C379A000000000000000000000000000000000000000000000000000000000 DUP2 MSTORE PUSH1 0x4 ADD PUSH2 0x5A1 SWAP1 PUSH2 0xE3A JUMP JUMPDEST PUSH1 0x40 MLOAD DUP1 SWAP2 SUB SWAP1 REVERT JUMPDEST TIMESTAMP DUP2 PUSH1 0x1 ADD SLOAD GT PUSH2 0x5F0 JUMPI PUSH1 0x40 MLOAD PUSH32 0x8C379A000000000000000000000000000000000000000000000000000000000 DUP2 MSTORE PUSH1 0x4 ADD PUSH2 0x5E7 SWAP1 PUSH2 0xDDA JUMP JUMPDEST PUSH1 0x40 MLOAD DUP1 SWAP2 SUB SWAP1 REVERT JUMPDEST DUP4 PUSH1 0x1 PUSH1 0x0 CALLER PUSH20 0xFFFFFFFFFFFFFFFFFFFFFFFFFFFFFFFFFFFFFFFF AND PUSH20 0xFFFFFFFFFFFFFFFFFFFFFFFFFFFFFFFFFFFFFFFF AND DUP2 MSTORE PUSH1 0x20 ADD SWAP1 DUP2 MSTORE PUSH1 0x20 ADD PUSH1 0x0 KECCAK256 PUSH1 0x0 DUP6 DUP2 MSTORE PUSH1 0x20 ADD SWAP1 DUP2 MSTORE PUSH1 0x20 ADD PUSH1 0x0 KECCAK256 SLOAD LT ISZERO PUSH2 0x683 JUMPI PUSH1 0x40 MLOAD PUSH32 0x8C379A000000000000000000000000000000000000000000000000000000000 DUP2 MSTORE PUSH1 0x4 ADD PUSH2 0x67A SWAP1 PUSH2 0xDBA JUMP JUMPDEST PUSH1 0x40 MLOAD DUP1 SWAP2 SUB SWAP1 REVERT JUMPDEST DUP4 PUSH1 0x1 PUSH1 0x0 CALLER PUSH20 0xFFFFFFFFFFFFFFFFFFFFFFFFFFFFFFFFFFFFFFFF AND PUSH20 0xFFFFFFFFFFFFFFFFFFFFFFFFFFFFFFFFFFFFFFFF AND DUP2 MSTORE PUSH1 0x20 ADD SWAP1 DUP2 MSTORE PUSH1 0x20 ADD PUSH1 0x0 KECCAK256 PUSH1 0x0 DUP6 DUP2 MSTORE PUSH1 0x20 ADD SWAP1 DUP2 MSTORE PUSH1 0x20 ADD PUSH1 0x0 KECCAK256 PUSH1 0x0 DUP3 DUP3 SLOAD PUSH2 0x6E3 SWAP2 SWAP1 PUSH2 0xFF7 JUMP JUMPDEST SWAP3 POP POP DUP2 SWAP1 SSTORE POP DUP4 PUSH1 0x1 PUSH1 0x0 DUP5 PUSH20 0xFFFFFFFFFFFFFFFFFFFFFFFFFFFFFFFFFFFFFFFF AND PUSH20 0xFFFFFFFFFFFFFFFFFFFFFFFFFFFFFFFFFFFFFFFF AND DUP2 MSTORE PUSH1 0x20 ADD SWAP1 DUP2 MSTORE PUSH1 0x20 ADD PUSH1 0x0 KECCAK256 PUSH1 0x0 DUP6 DUP2 MSTORE PUSH1 0x20 ADD SWAP1 DUP2 MSTORE PUSH1 0x20 ADD PUSH1 0x0 KECCAK256 PUSH1 0x0 DUP3 DUP3 SLOAD PUSH2 0x74A SWAP2 SWAP1 PUSH2 0xF47 JUMP JUMPDEST SWAP3 POP POP DUP2 SWAP1 SSTORE POP POP POP POP POP JUMP JUMPDEST TIMESTAMP DUP5 GT PUSH2 0x799 JUMPI PUSH1 0x40 MLOAD PUSH32 0x8C379A000000000000000000000000000000000000000000000000000000000 DUP2 MSTORE PUSH1 0x4 ADD PUSH2 0x790 SWAP1 PUSH2 0xE9A JUMP JUMPDEST PUSH1 0x40 MLOAD DUP1 SWAP2 SUB SWAP1 REVERT JUMPDEST PUSH1 0x0 DUP2 GT PUSH2 0x7DC JUMPI PUSH1 0x40 MLOAD PUSH32 0x8C379A000000000000000000000000000000000000000000000000000000000 DUP2 MSTORE PUSH1 0x4 ADD PUSH2 0x7D3 SWAP1 PUSH2 0xE7A JUMP JUMPDEST PUSH1 0x40 MLOAD DUP1 SWAP2 SUB SWAP1 REVERT JUMPDEST PUSH1 0x40 MLOAD DUP1 PUSH1 0xC0 ADD PUSH1 0x40 MSTORE DUP1 CALLER PUSH20 0xFFFFFFFFFFFFFFFFFFFFFFFFFFFFFFFFFFFFFFFF AND DUP2 MSTORE PUSH1 0x20 ADD DUP6 DUP2 MSTORE PUSH1 0x20 ADD DUP5 DUP2 MSTORE PUSH1 0x20 ADD DUP4 DUP2 MSTORE PUSH1 0x20 ADD DUP3 DUP2 MSTORE PUSH1 0x20 ADD DUP3 DUP2 MSTORE POP PUSH1 0x0 DUP1 PUSH1 0x2 SLOAD DUP2 MSTORE PUSH1 0x20 ADD SWAP1 DUP2 MSTORE PUSH1 0x20 ADD PUSH1 0x0 KECCAK256 PUSH1 0x0 DUP3 ADD MLOAD DUP2 PUSH1 0x0 ADD PUSH1 0x0 PUSH2 0x100 EXP DUP2 SLOAD DUP2 PUSH20 0xFFFFFFFFFFFFFFFFFFFFFFFFFFFFFFFFFFFFFFFF MUL NOT AND SWAP1 DUP4 PUSH20 0xFFFFFFFFFFFFFFFFFFFFFFFFFFFFFFFFFFFFFFFF AND MUL OR SWAP1 SSTORE POP PUSH1 0x20 DUP3 ADD MLOAD DUP2 PUSH1 0x1 ADD SSTORE PUSH1 0x40 DUP3 ADD MLOAD DUP2 PUSH1 0x2 ADD SWAP1 DUP1 MLOAD SWAP1 PUSH1 0x20 ADD SWAP1 PUSH2 0x8A0 SWAP3 SWAP2 SWAP1 PUSH2 0x8E0 JUMP JUMPDEST POP PUSH1 0x60 DUP3 ADD MLOAD DUP2 PUSH1 0x3 ADD SSTORE PUSH1 0x80 DUP3 ADD MLOAD DUP2 PUSH1 0x4 ADD SSTORE PUSH1 0xA0 DUP3 ADD MLOAD DUP2 PUSH1 0x5 ADD SSTORE SWAP1 POP POP PUSH1 0x2 PUSH1 0x0 DUP2 SLOAD DUP1 SWAP3 SWAP2 SWAP1 PUSH2 0x8D5 SWAP1 PUSH2 0x110C JUMP JUMPDEST SWAP2 SWAP1 POP SSTORE POP POP POP POP POP JUMP JUMPDEST DUP3 DUP1 SLOAD PUSH2 0x8EC SWAP1 PUSH2 0x10A9 JUMP JUMPDEST SWAP1 PUSH1 0x0 MSTORE PUSH1 0x20 PUSH1 0x0 KECCAK256 SWAP1 PUSH1 0x1F ADD PUSH1 0x20 SWAP1 DIV DUP2 ADD SWAP3 DUP3 PUSH2 0x90E JUMPI PUSH1 0x0 DUP6 SSTORE PUSH2 0x955 JUMP JUMPDEST DUP3 PUSH1 0x1F LT PUSH2 0x927 JUMPI DUP1 MLOAD PUSH1 0xFF NOT AND DUP4 DUP1 ADD OR DUP6 SSTORE PUSH2 0x955 JUMP JUMPDEST DUP3 DUP1 ADD PUSH1 0x1 ADD DUP6 SSTORE DUP3 ISZERO PUSH2 0x955 JUMPI SWAP2 DUP3 ADD JUMPDEST DUP3 DUP2 GT ISZERO PUSH2 0x954 JUMPI DUP3 MLOAD DUP3 SSTORE SWAP2 PUSH1 0x20 ADD SWAP2 SWAP1 PUSH1 0x1 ADD SWAP1 PUSH2 0x939 JUMP JUMPDEST JUMPDEST POP SWAP1 POP PUSH2 0x962 SWAP2 SWAP1 PUSH2 0x966 JUMP JUMPDEST POP SWAP1 JUMP JUMPDEST JUMPDEST DUP1 DUP3 GT ISZERO PUSH2 0x97F JUMPI PUSH1 0x0 DUP2 PUSH1 0x0 SWAP1 SSTORE POP PUSH1 0x1 ADD PUSH2 0x967 JUMP JUMPDEST POP SWAP1 JUMP JUMPDEST PUSH1 0x0 PUSH2 0x996 PUSH2 0x991 DUP5 PUSH2 0xEFA JUMP JUMPDEST PUSH2 0xED5 JUMP JUMPDEST SWAP1 POP DUP3 DUP2 MSTORE PUSH1 0x20 DUP2 ADD DUP5 DUP5 DUP5 ADD GT ISZERO PUSH2 0x9B2 JUMPI PUSH2 0x9B1 PUSH2 0x11E7 JUMP JUMPDEST JUMPDEST PUSH2 0x9BD DUP5 DUP3 DUP6 PUSH2 0x1067 JUMP JUMPDEST POP SWAP4 SWAP3 POP POP POP JUMP JUMPDEST PUSH1 0x0 DUP2 CALLDATALOAD SWAP1 POP PUSH2 0x9D4 DUP2 PUSH2 0x13EA JUMP JUMPDEST SWAP3 SWAP2 POP POP JUMP JUMPDEST PUSH1 0x0 DUP3 PUSH1 0x1F DUP4 ADD SLT PUSH2 0x9EF JUMPI PUSH2 0x9EE PUSH2 0x11E2 JUMP JUMPDEST JUMPDEST DUP2 CALLDATALOAD PUSH2 0x9FF DUP5 DUP3 PUSH1 0x20 DUP7 ADD PUSH2 0x983 JUMP JUMPDEST SWAP2 POP POP SWAP3 SWAP2 POP POP JUMP JUMPDEST PUSH1 0x0 DUP2 CALLDATALOAD SWAP1 POP PUSH2 0xA17 DUP2 PUSH2 0x1401 JUMP JUMPDEST SWAP3 SWAP2 POP POP JUMP JUMPDEST PUSH1 0x0 DUP1 PUSH1 0x40 DUP4 DUP6 SUB SLT ISZERO PUSH2 0xA34 JUMPI PUSH2 0xA33 PUSH2 0x11F1 JUMP JUMPDEST JUMPDEST PUSH1 0x0 PUSH2 0xA42 DUP6 DUP3 DUP7 ADD PUSH2 0x9C5 JUMP JUMPDEST SWAP3 POP POP PUSH1 0x20 PUSH2 0xA53 DUP6 DUP3 DUP7 ADD PUSH2 0xA08 JUMP JUMPDEST SWAP2 POP POP SWAP3 POP SWAP3 SWAP1 POP JUMP JUMPDEST PUSH1 0x0 PUSH1 0x20 DUP3 DUP5 SUB SLT ISZERO PUSH2 0xA73 JUMPI PUSH2 0xA72 PUSH2 0x11F1 JUMP JUMPDEST JUMPDEST PUSH1 0x0 PUSH2 0xA81 DUP5 DUP3 DUP6 ADD PUSH2 0xA08 JUMP JUMPDEST SWAP2 POP POP SWAP3 SWAP2 POP POP JUMP JUMPDEST PUSH1 0x0 DUP1 PUSH1 0x0 DUP1 PUSH1 0x80 DUP6 DUP8 SUB SLT ISZERO PUSH2 0xAA4 JUMPI PUSH2 0xAA3 PUSH2 0x11F1 JUMP JUMPDEST JUMPDEST PUSH1 0x0 PUSH2 0xAB2 DUP8 DUP3 DUP9 ADD PUSH2 0xA08 JUMP JUMPDEST SWAP5 POP POP PUSH1 0x20 DUP6 ADD CALLDATALOAD PUSH8 0xFFFFFFFFFFFFFFFF DUP2 GT ISZERO PUSH2 0xAD3 JUMPI PUSH2 0xAD2 PUSH2 0x11EC JUMP JUMPDEST JUMPDEST PUSH2 0xADF DUP8 DUP3 DUP9 ADD PUSH2 0x9DA JUMP JUMPDEST SWAP4 POP POP PUSH1 0x40 PUSH2 0xAF0 DUP8 DUP3 DUP9 ADD PUSH2 0xA08 JUMP JUMPDEST SWAP3 POP POP PUSH1 0x60 PUSH2 0xB01 DUP8 DUP3 DUP9 ADD PUSH2 0xA08 JUMP JUMPDEST SWAP2 POP POP SWAP3 SWAP6 SWAP2 SWAP5 POP SWAP3 POP JUMP JUMPDEST PUSH1 0x0 DUP1 PUSH1 0x40 DUP4 DUP6 SUB SLT ISZERO PUSH2 0xB24 JUMPI PUSH2 0xB23 PUSH2 0x11F1 JUMP JUMPDEST JUMPDEST PUSH1 0x0 PUSH2 0xB32 DUP6 DUP3 DUP7 ADD PUSH2 0xA08 JUMP JUMPDEST SWAP3 POP POP PUSH1 0x20 PUSH2 0xB43 DUP6 DUP3 DUP7 ADD PUSH2 0xA08 JUMP JUMPDEST SWAP2 POP POP SWAP3 POP SWAP3 SWAP1 POP JUMP JUMPDEST PUSH1 0x0 DUP1 PUSH1 0x0 PUSH1 0x60 DUP5 DUP7 SUB SLT ISZERO PUSH2 0xB66 JUMPI PUSH2 0xB65 PUSH2 0x11F1 JUMP JUMPDEST JUMPDEST PUSH1 0x0 PUSH2 0xB74 DUP7 DUP3 DUP8 ADD PUSH2 0xA08 JUMP JUMPDEST SWAP4 POP POP PUSH1 0x20 PUSH2 0xB85 DUP7 DUP3 DUP8 ADD PUSH2 0xA08 JUMP JUMPDEST SWAP3 POP POP PUSH1 0x40 PUSH2 0xB96 DUP7 DUP3 DUP8 ADD PUSH2 0x9C5 JUMP JUMPDEST SWAP2 POP POP SWAP3 POP SWAP3 POP SWAP3 JUMP JUMPDEST PUSH2 0xBA9 DUP2 PUSH2 0x102B JUMP JUMPDEST DUP3 MSTORE POP POP JUMP JUMPDEST PUSH1 0x0 PUSH2 0xBBA DUP3 PUSH2 0xF2B JUMP JUMPDEST PUSH2 0xBC4 DUP2 DUP6 PUSH2 0xF36 JUMP JUMPDEST SWAP4 POP PUSH2 0xBD4 DUP2 DUP6 PUSH1 0x20 DUP7 ADD PUSH2 0x1076 JUMP JUMPDEST PUSH2 0xBDD DUP2 PUSH2 0x11F6 JUMP JUMPDEST DUP5 ADD SWAP2 POP POP SWAP3 SWAP2 POP POP JUMP JUMPDEST PUSH1 0x0 PUSH2 0xBF5 PUSH1 0x15 DUP4 PUSH2 0xF36 JUMP JUMPDEST SWAP2 POP PUSH2 0xC00 DUP3 PUSH2 0x1207 JUMP JUMPDEST PUSH1 0x20 DUP3 ADD SWAP1 POP SWAP2 SWAP1 POP JUMP JUMPDEST PUSH1 0x0 PUSH2 0xC18 PUSH1 0x29 DUP4 PUSH2 0xF36 JUMP JUMPDEST SWAP2 POP PUSH2 0xC23 DUP3 PUSH2 0x1230 JUMP JUMPDEST PUSH1 0x40 DUP3 ADD SWAP1 POP SWAP2 SWAP1 POP JUMP JUMPDEST PUSH1 0x0 PUSH2 0xC3B PUSH1 0x16 DUP4 PUSH2 0xF36 JUMP JUMPDEST SWAP2 POP PUSH2 0xC46 DUP3 PUSH2 0x127F JUMP JUMPDEST PUSH1 0x20 DUP3 ADD SWAP1 POP SWAP2 SWAP1 POP JUMP JUMPDEST PUSH1 0x0 PUSH2 0xC5E PUSH1 0x1D DUP4 PUSH2 0xF36 JUMP JUMPDEST SWAP2 POP PUSH2 0xC69 DUP3 PUSH2 0x12A8 JUMP JUMPDEST PUSH1 0x20 DUP3 ADD SWAP1 POP SWAP2 SWAP1 POP JUMP JUMPDEST PUSH1 0x0 PUSH2 0xC81 PUSH1 0x17 DUP4 PUSH2 0xF36 JUMP JUMPDEST SWAP2 POP PUSH2 0xC8C DUP3 PUSH2 0x12D1 JUMP JUMPDEST PUSH1 0x20 DUP3 ADD SWAP1 POP SWAP2 SWAP1 POP JUMP JUMPDEST PUSH1 0x0 PUSH2 0xCA4 PUSH1 0x15 DUP4 PUSH2 0xF36 JUMP JUMPDEST SWAP2 POP PUSH2 0xCAF DUP3 PUSH2 0x12FA JUMP JUMPDEST PUSH1 0x20 DUP3 ADD SWAP1 POP SWAP2 SWAP1 POP JUMP JUMPDEST PUSH1 0x0 PUSH2 0xCC7 PUSH1 0x1D DUP4 PUSH2 0xF36 JUMP JUMPDEST SWAP2 POP PUSH2 0xCD2 DUP3 PUSH2 0x1323 JUMP JUMPDEST PUSH1 0x20 DUP3 ADD SWAP1 POP SWAP2 SWAP1 POP JUMP JUMPDEST PUSH1 0x0 PUSH2 0xCEA PUSH1 0x21 DUP4 PUSH2 0xF36 JUMP JUMPDEST SWAP2 POP PUSH2 0xCF5 DUP3 PUSH2 0x134C JUMP JUMPDEST PUSH1 0x40 DUP3 ADD SWAP1 POP SWAP2 SWAP1 POP JUMP JUMPDEST PUSH1 0x0 PUSH2 0xD0D PUSH1 0x22 DUP4 PUSH2 0xF36 JUMP JUMPDEST SWAP2 POP PUSH2 0xD18 DUP3 PUSH2 0x139B JUMP JUMPDEST PUSH1 0x40 DUP3 ADD SWAP1 POP SWAP2 SWAP1 POP JUMP JUMPDEST PUSH2 0xD2C DUP2 PUSH2 0x105D JUMP JUMPDEST DUP3 MSTORE POP POP JUMP JUMPDEST PUSH1 0x0 PUSH1 0xC0 DUP3 ADD SWAP1 POP PUSH2 0xD47 PUSH1 0x0 DUP4 ADD DUP10 PUSH2 0xBA0 JUMP JUMPDEST PUSH2 0xD54 PUSH1 0x20 DUP4 ADD DUP9 PUSH2 0xD23 JUMP JUMPDEST DUP2 DUP2 SUB PUSH1 0x40 DUP4 ADD MSTORE PUSH2 0xD66 DUP2 DUP8 PUSH2 0xBAF JUMP JUMPDEST SWAP1 POP PUSH2 0xD75 PUSH1 0x60 DUP4 ADD DUP7 PUSH2 0xD23 JUMP JUMPDEST PUSH2 0xD82 PUSH1 0x80 DUP4 ADD DUP6 PUSH2 0xD23 JUMP JUMPDEST PUSH2 0xD8F PUSH1 0xA0 DUP4 ADD DUP5 PUSH2 0xD23 JUMP JUMPDEST SWAP8 SWAP7 POP POP POP POP POP POP POP JUMP JUMPDEST PUSH1 0x0 PUSH1 0x20 DUP3 ADD SWAP1 POP DUP2 DUP2 SUB PUSH1 0x0 DUP4 ADD MSTORE PUSH2 0xDB3 DUP2 PUSH2 0xBE8 JUMP JUMPDEST SWAP1 POP SWAP2 SWAP1 POP JUMP JUMPDEST PUSH1 0x0 PUSH1 0x20 DUP3 ADD SWAP1 POP DUP2 DUP2 SUB PUSH1 0x0 DUP4 ADD MSTORE PUSH2 0xDD3 DUP2 PUSH2 0xC0B JUMP JUMPDEST SWAP1 POP SWAP2 SWAP1 POP JUMP JUMPDEST PUSH1 0x0 PUSH1 0x20 DUP3 ADD SWAP1 POP DUP2 DUP2 SUB PUSH1 0x0 DUP4 ADD MSTORE PUSH2 0xDF3 DUP2 PUSH2 0xC2E JUMP JUMPDEST SWAP1 POP SWAP2 SWAP1 POP JUMP JUMPDEST PUSH1 0x0 PUSH1 0x20 DUP3 ADD SWAP1 POP DUP2 DUP2 SUB PUSH1 0x0 DUP4 ADD MSTORE PUSH2 0xE13 DUP2 PUSH2 0xC51 JUMP JUMPDEST SWAP1 POP SWAP2 SWAP1 POP JUMP JUMPDEST PUSH1 0x0 PUSH1 0x20 DUP3 ADD SWAP1 POP DUP2 DUP2 SUB PUSH1 0x0 DUP4 ADD MSTORE PUSH2 0xE33 DUP2 PUSH2 0xC74 JUMP JUMPDEST SWAP1 POP SWAP2 SWAP1 POP JUMP JUMPDEST PUSH1 0x0 PUSH1 0x20 DUP3 ADD SWAP1 POP DUP2 DUP2 SUB PUSH1 0x0 DUP4 ADD MSTORE PUSH2 0xE53 DUP2 PUSH2 0xC97 JUMP JUMPDEST SWAP1 POP SWAP2 SWAP1 POP JUMP JUMPDEST PUSH1 0x0 PUSH1 0x20 DUP3 ADD SWAP1 POP DUP2 DUP2 SUB PUSH1 0x0 DUP4 ADD MSTORE PUSH2 0xE73 DUP2 PUSH2 0xCBA JUMP JUMPDEST SWAP1 POP SWAP2 SWAP1 POP JUMP JUMPDEST PUSH1 0x0 PUSH1 0x20 DUP3 ADD SWAP1 POP DUP2 DUP2 SUB PUSH1 0x0 DUP4 ADD MSTORE PUSH2 0xE93 DUP2 PUSH2 0xCDD JUMP JUMPDEST SWAP1 POP SWAP2 SWAP1 POP JUMP JUMPDEST PUSH1 0x0 PUSH1 0x20 DUP3 ADD SWAP1 POP DUP2 DUP2 SUB PUSH1 0x0 DUP4 ADD MSTORE PUSH2 0xEB3 DUP2 PUSH2 0xD00 JUMP JUMPDEST SWAP1 POP SWAP2 SWAP1 POP JUMP JUMPDEST PUSH1 0x0 PUSH1 0x20 DUP3 ADD SWAP1 POP PUSH2 0xECF PUSH1 0x0 DUP4 ADD DUP5 PUSH2 0xD23 JUMP JUMPDEST SWAP3 SWAP2 POP POP JUMP JUMPDEST PUSH1 0x0 PUSH2 0xEDF PUSH2 0xEF0 JUMP JUMPDEST SWAP1 POP PUSH2 0xEEB DUP3 DUP3 PUSH2 0x10DB JUMP JUMPDEST SWAP2 SWAP1 POP JUMP JUMPDEST PUSH1 0x0 PUSH1 0x40 MLOAD SWAP1 POP SWAP1 JUMP JUMPDEST PUSH1 0x0 PUSH8 0xFFFFFFFFFFFFFFFF DUP3 GT ISZERO PUSH2 0xF15 JUMPI PUSH2 0xF14 PUSH2 0x11B3 JUMP JUMPDEST JUMPDEST PUSH2 0xF1E DUP3 PUSH2 0x11F6 JUMP JUMPDEST SWAP1 POP PUSH1 0x20 DUP2 ADD SWAP1 POP SWAP2 SWAP1 POP JUMP JUMPDEST PUSH1 0x0 DUP2 MLOAD SWAP1 POP SWAP2 SWAP1 POP JUMP JUMPDEST PUSH1 0x0 DUP3 DUP3 MSTORE PUSH1 0x20 DUP3 ADD SWAP1 POP SWAP3 SWAP2 POP POP JUMP JUMPDEST PUSH1 0x0 PUSH2 0xF52 DUP3 PUSH2 0x105D JUMP JUMPDEST SWAP2 POP PUSH2 0xF5D DUP4 PUSH2 0x105D JUMP JUMPDEST SWAP3 POP DUP3 PUSH32 0xFFFFFFFFFFFFFFFFFFFFFFFFFFFFFFFFFFFFFFFFFFFFFFFFFFFFFFFFFFFFFFFF SUB DUP3 GT ISZERO PUSH2 0xF92 JUMPI PUSH2 0xF91 PUSH2 0x1155 JUMP JUMPDEST JUMPDEST DUP3 DUP3 ADD SWAP1 POP SWAP3 SWAP2 POP POP JUMP JUMPDEST PUSH1 0x0 PUSH2 0xFA8 DUP3 PUSH2 0x105D JUMP JUMPDEST SWAP2 POP PUSH2 0xFB3 DUP4 PUSH2 0x105D JUMP JUMPDEST SWAP3 POP DUP2 PUSH32 0xFFFFFFFFFFFFFFFFFFFFFFFFFFFFFFFFFFFFFFFFFFFFFFFFFFFFFFFFFFFFFFFF DIV DUP4 GT DUP3 ISZERO ISZERO AND ISZERO PUSH2 0xFEC JUMPI PUSH2 0xFEB PUSH2 0x1155 JUMP JUMPDEST JUMPDEST DUP3 DUP3 MUL SWAP1 POP SWAP3 SWAP2 POP POP JUMP JUMPDEST PUSH1 0x0 PUSH2 0x1002 DUP3 PUSH2 0x105D JUMP JUMPDEST SWAP2 POP PUSH2 0x100D DUP4 PUSH2 0x105D JUMP JUMPDEST SWAP3 POP DUP3 DUP3 LT ISZERO PUSH2 0x1020 JUMPI PUSH2 0x101F PUSH2 0x1155 JUMP JUMPDEST JUMPDEST DUP3 DUP3 SUB SWAP1 POP SWAP3 SWAP2 POP POP JUMP JUMPDEST PUSH1 0x0 PUSH2 0x1036 DUP3 PUSH2 0x103D JUMP JUMPDEST SWAP1 POP SWAP2 SWAP1 POP JUMP JUMPDEST PUSH1 0x0 PUSH20 0xFFFFFFFFFFFFFFFFFFFFFFFFFFFFFFFFFFFFFFFF DUP3 AND SWAP1 POP SWAP2 SWAP1 POP JUMP JUMPDEST PUSH1 0x0 DUP2 SWAP1 POP SWAP2 SWAP1 POP JUMP JUMPDEST DUP3 DUP2 DUP4 CALLDATACOPY PUSH1 0x0 DUP4 DUP4 ADD MSTORE POP POP POP JUMP JUMPDEST PUSH1 0x0 JUMPDEST DUP4 DUP2 LT ISZERO PUSH2 0x1094 JUMPI DUP1 DUP3 ADD MLOAD DUP2 DUP5 ADD MSTORE PUSH1 0x20 DUP2 ADD SWAP1 POP PUSH2 0x1079 JUMP JUMPDEST DUP4 DUP2 GT ISZERO PUSH2 0x10A3 JUMPI PUSH1 0x0 DUP5 DUP5 ADD MSTORE JUMPDEST POP POP POP POP JUMP JUMPDEST PUSH1 0x0 PUSH1 0x2 DUP3 DIV SWAP1 POP PUSH1 0x1 DUP3 AND DUP1 PUSH2 0x10C1 JUMPI PUSH1 0x7F DUP3 AND SWAP2 POP JUMPDEST PUSH1 0x20 DUP3 LT DUP2 EQ ISZERO PUSH2 0x10D5 JUMPI PUSH2 0x10D4 PUSH2 0x1184 JUMP JUMPDEST JUMPDEST POP SWAP2 SWAP1 POP JUMP JUMPDEST PUSH2 0x10E4 DUP3 PUSH2 0x11F6 JUMP JUMPDEST DUP2 ADD DUP2 DUP2 LT PUSH8 0xFFFFFFFFFFFFFFFF DUP3 GT OR ISZERO PUSH2 0x1103 JUMPI PUSH2 0x1102 PUSH2 0x11B3 JUMP JUMPDEST JUMPDEST DUP1 PUSH1 0x40 MSTORE POP POP POP JUMP JUMPDEST PUSH1 0x0 PUSH2 0x1117 DUP3 PUSH2 0x105D JUMP JUMPDEST SWAP2 POP PUSH32 0xFFFFFFFFFFFFFFFFFFFFFFFFFFFFFFFFFFFFFFFFFFFFFFFFFFFFFFFFFFFFFFFF DUP3 EQ ISZERO PUSH2 0x114A JUMPI PUSH2 0x1149 PUSH2 0x1155 JUMP JUMPDEST JUMPDEST PUSH1 0x1 DUP3 ADD SWAP1 POP SWAP2 SWAP1 POP JUMP JUMPDEST PUSH32 0x4E487B7100000000000000000000000000000000000000000000000000000000 PUSH1 0x0 MSTORE PUSH1 0x11 PUSH1 0x4 MSTORE PUSH1 0x24 PUSH1 0x0 REVERT JUMPDEST PUSH32 0x4E487B7100000000000000000000000000000000000000000000000000000000 PUSH1 0x0 MSTORE PUSH1 0x22 PUSH1 0x4 MSTORE PUSH1 0x24 PUSH1 0x0 REVERT JUMPDEST PUSH32 0x4E487B7100000000000000000000000000000000000000000000000000000000 PUSH1 0x0 MSTORE PUSH1 0x41 PUSH1 0x4 MSTORE PUSH1 0x24 PUSH1 0x0 REVERT JUMPDEST PUSH1 0x0 DUP1 REVERT JUMPDEST PUSH1 0x0 DUP1 REVERT JUMPDEST PUSH1 0x0 DUP1 REVERT JUMPDEST PUSH1 0x0 DUP1 REVERT JUMPDEST PUSH1 0x0 PUSH1 0x1F NOT PUSH1 0x1F DUP4 ADD AND SWAP1 POP SWAP2 SWAP1 POP JUMP JUMPDEST PUSH32 0x457468657273206973206E6F7420656E6F756768210000000000000000000000 PUSH1 0x0 DUP3 ADD MSTORE POP JUMP JUMPDEST PUSH32 0x596F7520646F6E2774206861766520656E6F756768207469636B657420746F20 PUSH1 0x0 DUP3 ADD MSTORE PUSH32 0x7472616E73666572210000000000000000000000000000000000000000000000 PUSH1 0x20 DUP3 ADD MSTORE POP JUMP JUMPDEST PUSH32 0x4576656E7420616C7265616479206F6363757265642100000000000000000000 PUSH1 0x0 DUP3 ADD MSTORE POP JUMP JUMPDEST PUSH32 0x596F752063616E206E6F742063616E63656C2074686973206576656E74000000 PUSH1 0x0 DUP3 ADD MSTORE POP JUMP JUMPDEST PUSH32 0x4576656E7420626F6F6B696E6720697320636C6F736521000000000000000000 PUSH1 0x0 DUP3 ADD MSTORE POP JUMP JUMPDEST PUSH32 0x4576656E7420646F6573206E6F74206578697374210000000000000000000000 PUSH1 0x0 DUP3 ADD MSTORE POP JUMP JUMPDEST PUSH32 0x576520646F6E2774206861766520656E6F756768207469636B65747321000000 PUSH1 0x0 DUP3 ADD MSTORE POP JUMP JUMPDEST PUSH32 0x4576656E74206D75737420686176652061746C656173742031207469636B6574 PUSH1 0x0 DUP3 ADD MSTORE PUSH32 0x2100000000000000000000000000000000000000000000000000000000000000 PUSH1 0x20 DUP3 ADD MSTORE POP JUMP JUMPDEST PUSH32 0x596F752063616E206F7267616E697A65206576656E7420666F72206675747572 PUSH1 0x0 DUP3 ADD MSTORE PUSH32 0x6521000000000000000000000000000000000000000000000000000000000000 PUSH1 0x20 DUP3 ADD MSTORE POP JUMP JUMPDEST PUSH2 0x13F3 DUP2 PUSH2 0x102B JUMP JUMPDEST DUP2 EQ PUSH2 0x13FE JUMPI PUSH1 0x0 DUP1 REVERT JUMPDEST POP JUMP JUMPDEST PUSH2 0x140A DUP2 PUSH2 0x105D JUMP JUMPDEST DUP2 EQ PUSH2 0x1415 JUMPI PUSH1 0x0 DUP1 REVERT JUMPDEST POP JUMP INVALID LOG2 PUSH5 0x6970667358 0x22 SLT KECCAK256 0xA6 0xB0 0xEB 0xA7 CHAINID PUSH19 0xFBB67C61249CA821DB203BC233F3DFAB95CED6 0xDA 0xEF SMOD 0xC9 PUSH22 0x72E264736F6C63430008070033000000000000000000 "
				},
				"gasEstimates": {
					"creation": {
						"codeDepositCost": "1039600",
						"executionCost": "1080",
						"totalCost": "1040680"
					},
					"external": {
						"ID()": "2429",
						"buyTicket(uint256,uint256)": "infinite",
						"cancelEvent(uint256)": "2992",
						"createEvent(uint256,string,uint256,uint256)": "infinite",
						"events(uint256)": "infinite",
						"tickets(address,uint256)": "infinite",
						"transferTicket(uint256,uint256,address)": "infinite"
					}
				},
				"methodIdentifiers": {
					"ID()": "b3cea217",
					"buyTicket(uint256,uint256)": "298ec208",
					"cancelEvent(uint256)": "3f69babd",
					"createEvent(uint256,string,uint256,uint256)": "f93694fb",
					"events(uint256)": "0b791430",
					"tickets(address,uint256)": "dae7a13c",
					"transferTicket(uint256,uint256,address)": "f086a09b"
				}
			},
			"storageLayout": {
				"storage": [
					{
						"astId": 19,
						"contract": "contract/EventOrganizingContract.sol:EventOrganize",
						"label": "events",
						"offset": 0,
						"slot": "0",
						"type": "t_mapping(t_uint256,t_struct(Event)14_storage)"
					},
					{
						"astId": 25,
						"contract": "contract/EventOrganizingContract.sol:EventOrganize",
						"label": "tickets",
						"offset": 0,
						"slot": "1",
						"type": "t_mapping(t_address,t_mapping(t_uint256,t_uint256))"
					},
					{
						"astId": 27,
						"contract": "contract/EventOrganizingContract.sol:EventOrganize",
						"label": "ID",
						"offset": 0,
						"slot": "2",
						"type": "t_uint256"
					}
				],
				"types": {
					"t_address": {
						"encoding": "inplace",
						"label": "address",
						"numberOfBytes": "20"
					},
					"t_mapping(t_address,t_mapping(t_uint256,t_uint256))": {
						"encoding": "mapping",
						"key": "t_address",
						"label": "mapping(address => mapping(uint256 => uint256))",
						"numberOfBytes": "32",
						"value": "t_mapping(t_uint256,t_uint256)"
					},
					"t_mapping(t_uint256,t_struct(Event)14_storage)": {
						"encoding": "mapping",
						"key": "t_uint256",
						"label": "mapping(uint256 => struct EventOrganize.Event)",
						"numberOfBytes": "32",
						"value": "t_struct(Event)14_storage"
					},
					"t_mapping(t_uint256,t_uint256)": {
						"encoding": "mapping",
						"key": "t_uint256",
						"label": "mapping(uint256 => uint256)",
						"numberOfBytes": "32",
						"value": "t_uint256"
					},
					"t_string_storage": {
						"encoding": "bytes",
						"label": "string",
						"numberOfBytes": "32"
					},
					"t_struct(Event)14_storage": {
						"encoding": "inplace",
						"label": "struct EventOrganize.Event",
						"members": [
							{
								"astId": 3,
								"contract": "contract/EventOrganizingContract.sol:EventOrganize",
								"label": "organizer",
								"offset": 0,
								"slot": "0",
								"type": "t_address"
							},
							{
								"astId": 5,
								"contract": "contract/EventOrganizingContract.sol:EventOrganize",
								"label": "date",
								"offset": 0,
								"slot": "1",
								"type": "t_uint256"
							},
							{
								"astId": 7,
								"contract": "contract/EventOrganizingContract.sol:EventOrganize",
								"label": "name",
								"offset": 0,
								"slot": "2",
								"type": "t_string_storage"
							},
							{
								"astId": 9,
								"contract": "contract/EventOrganizingContract.sol:EventOrganize",
								"label": "price",
								"offset": 0,
								"slot": "3",
								"type": "t_uint256"
							},
							{
								"astId": 11,
								"contract": "contract/EventOrganizingContract.sol:EventOrganize",
								"label": "ticketCount",
								"offset": 0,
								"slot": "4",
								"type": "t_uint256"
							},
							{
								"astId": 13,
								"contract": "contract/EventOrganizingContract.sol:EventOrganize",
								"label": "ticketRemain",
								"offset": 0,
								"slot": "5",
								"type": "t_uint256"
							}
						],
						"numberOfBytes": "192"
					},
					"t_uint256": {
						"encoding": "inplace",
						"label": "uint256",
						"numberOfBytes": "32"
					}
				}
			},
			"userdoc": {
				"kind": "user",
				"methods": {},
				"version": 1
			}
		}
	}
}