{
	"contract/EventOrganizingContract.sol": {
		"EventOrganize": {
			"abi": [
				{
					"inputs": [],
					"name": "ID",
					"outputs": [
						{
							"internalType": "uint256",
							"name": "",
							"type": "uint256"
						}
					],
					"stateMutability": "view",
					"type": "function"
				},
				{
					"inputs": [
						{
							"internalType": "uint256",
							"name": "_quantity",
							"type": "uint256"
						},
						{
							"internalType": "uint256",
							"name": "_ID",
							"type": "uint256"
						}
					],
					"name": "buyTicket",
					"outputs": [],
					"stateMutability": "nonpayable",
					"type": "function"
				},
				{
					"inputs": [
						{
							"internalType": "uint256",
							"name": "_date",
							"type": "uint256"
						},
						{
							"internalType": "string",
							"name": "_name",
							"type": "string"
						},
						{
							"internalType": "uint256",
							"name": "_price",
							"type": "uint256"
						},
						{
							"internalType": "uint256",
							"name": "_ticketCount",
							"type": "uint256"
						}
					],
					"name": "createEvent",
					"outputs": [],
					"stateMutability": "nonpayable",
					"type": "function"
				},
				{
					"inputs": [
						{
							"internalType": "uint256",
							"name": "",
							"type": "uint256"
						}
					],
					"name": "events",
					"outputs": [
						{
							"internalType": "address",
							"name": "organizer",
							"type": "address"
						},
						{
							"internalType": "uint256",
							"name": "date",
							"type": "uint256"
						},
						{
							"internalType": "string",
							"name": "name",
							"type": "string"
						},
						{
							"internalType": "uint256",
							"name": "price",
							"type": "uint256"
						},
						{
							"internalType": "uint256",
							"name": "tiketCount",
							"type": "uint256"
						},
						{
							"internalType": "uint256",
							"name": "tiketRemain",
							"type": "uint256"
						}
					],
					"stateMutability": "view",
					"type": "function"
				},
				{
					"inputs": [
						{
							"internalType": "address",
							"name": "",
							"type": "address"
						},
						{
							"internalType": "uint256",
							"name": "",
							"type": "uint256"
						}
					],
					"name": "tickets",
					"outputs": [
						{
							"internalType": "uint256",
							"name": "",
							"type": "uint256"
						}
					],
					"stateMutability": "view",
					"type": "function"
				}
			],
			"devdoc": {
				"kind": "dev",
				"methods": {},
				"version": 1
			},
			"evm": {
				"assembly": "    /* \"contract/EventOrganizingContract.sol\":62:1021  contract EventOrganize {\r... */\n  mstore(0x40, 0x80)\n  callvalue\n  dup1\n  iszero\n  tag_1\n  jumpi\n  0x00\n  dup1\n  revert\ntag_1:\n  pop\n  dataSize(sub_0)\n  dup1\n  dataOffset(sub_0)\n  0x00\n  codecopy\n  0x00\n  return\nstop\n\nsub_0: assembly {\n        /* \"contract/EventOrganizingContract.sol\":62:1021  contract EventOrganize {\r... */\n      mstore(0x40, 0x80)\n      callvalue\n      dup1\n      iszero\n      tag_1\n      jumpi\n      0x00\n      dup1\n      revert\n    tag_1:\n      pop\n      jumpi(tag_2, lt(calldatasize, 0x04))\n      shr(0xe0, calldataload(0x00))\n      dup1\n      0x0b791430\n      eq\n      tag_3\n      jumpi\n      dup1\n      0x298ec208\n      eq\n      tag_4\n      jumpi\n      dup1\n      0xb3cea217\n      eq\n      tag_5\n      jumpi\n      dup1\n      0xdae7a13c\n      eq\n      tag_6\n      jumpi\n      dup1\n      0xf93694fb\n      eq\n      tag_7\n      jumpi\n    tag_2:\n      0x00\n      dup1\n      revert\n        /* \"contract/EventOrganizingContract.sol\":267:304  mapping (uint => Event) public events */\n    tag_3:\n      tag_8\n      0x04\n      dup1\n      calldatasize\n      sub\n      dup2\n      add\n      swap1\n      tag_9\n      swap2\n      swap1\n      tag_10\n      jump\t// in\n    tag_9:\n      tag_11\n      jump\t// in\n    tag_8:\n      mload(0x40)\n      tag_12\n      swap7\n      swap6\n      swap5\n      swap4\n      swap3\n      swap2\n      swap1\n      tag_13\n      jump\t// in\n    tag_12:\n      mload(0x40)\n      dup1\n      swap2\n      sub\n      swap1\n      return\n        /* \"contract/EventOrganizingContract.sol\":770:1016  function buyTicket(uint _quantity, uint _ID) external{\r... */\n    tag_4:\n      tag_14\n      0x04\n      dup1\n      calldatasize\n      sub\n      dup2\n      add\n      swap1\n      tag_15\n      swap2\n      swap1\n      tag_16\n      jump\t// in\n    tag_15:\n      tag_17\n      jump\t// in\n    tag_14:\n      stop\n        /* \"contract/EventOrganizingContract.sol\":375:389  uint public ID */\n    tag_5:\n      tag_18\n      tag_19\n      jump\t// in\n    tag_18:\n      mload(0x40)\n      tag_20\n      swap2\n      swap1\n      tag_21\n      jump\t// in\n    tag_20:\n      mload(0x40)\n      dup1\n      swap2\n      sub\n      swap1\n      return\n        /* \"contract/EventOrganizingContract.sol\":311:368  mapping (address => mapping(uint => uint)) public tickets */\n    tag_6:\n      tag_22\n      0x04\n      dup1\n      calldatasize\n      sub\n      dup2\n      add\n      swap1\n      tag_23\n      swap2\n      swap1\n      tag_24\n      jump\t// in\n    tag_23:\n      tag_25\n      jump\t// in\n    tag_22:\n      mload(0x40)\n      tag_26\n      swap2\n      swap1\n      tag_21\n      jump\t// in\n    tag_26:\n      mload(0x40)\n      dup1\n      swap2\n      sub\n      swap1\n      return\n        /* \"contract/EventOrganizingContract.sol\":402:762  function createEvent(uint _date, string memory _name, uint _price, uint _ticketCount) external{\r... */\n    tag_7:\n      tag_27\n      0x04\n      dup1\n      calldatasize\n      sub\n      dup2\n      add\n      swap1\n      tag_28\n      swap2\n      swap1\n      tag_29\n      jump\t// in\n    tag_28:\n      tag_30\n      jump\t// in\n    tag_27:\n      stop\n        /* \"contract/EventOrganizingContract.sol\":267:304  mapping (uint => Event) public events */\n    tag_11:\n      mstore(0x20, 0x00)\n      dup1\n      0x00\n      mstore\n      keccak256(0x00, 0x40)\n      0x00\n      swap2\n      pop\n      swap1\n      pop\n      dup1\n      0x00\n      add\n      0x00\n      swap1\n      sload\n      swap1\n      0x0100\n      exp\n      swap1\n      div\n      0xffffffffffffffffffffffffffffffffffffffff\n      and\n      swap1\n      dup1\n      0x01\n      add\n      sload\n      swap1\n      dup1\n      0x02\n      add\n      dup1\n      sload\n      tag_31\n      swap1\n      tag_32\n      jump\t// in\n    tag_31:\n      dup1\n      0x1f\n      add\n      0x20\n      dup1\n      swap2\n      div\n      mul\n      0x20\n      add\n      mload(0x40)\n      swap1\n      dup2\n      add\n      0x40\n      mstore\n      dup1\n      swap3\n      swap2\n      swap1\n      dup2\n      dup2\n      mstore\n      0x20\n      add\n      dup3\n      dup1\n      sload\n      tag_33\n      swap1\n      tag_32\n      jump\t// in\n    tag_33:\n      dup1\n      iszero\n      tag_34\n      jumpi\n      dup1\n      0x1f\n      lt\n      tag_35\n      jumpi\n      0x0100\n      dup1\n      dup4\n      sload\n      div\n      mul\n      dup4\n      mstore\n      swap2\n      0x20\n      add\n      swap2\n      jump(tag_34)\n    tag_35:\n      dup3\n      add\n      swap2\n      swap1\n      0x00\n      mstore\n      keccak256(0x00, 0x20)\n      swap1\n    tag_36:\n      dup2\n      sload\n      dup2\n      mstore\n      swap1\n      0x01\n      add\n      swap1\n      0x20\n      add\n      dup1\n      dup4\n      gt\n      tag_36\n      jumpi\n      dup3\n      swap1\n      sub\n      0x1f\n      and\n      dup3\n      add\n      swap2\n    tag_34:\n      pop\n      pop\n      pop\n      pop\n      pop\n      swap1\n      dup1\n      0x03\n      add\n      sload\n      swap1\n      dup1\n      0x04\n      add\n      sload\n      swap1\n      dup1\n      0x05\n      add\n      sload\n      swap1\n      pop\n      dup7\n      jump\t// out\n        /* \"contract/EventOrganizingContract.sol\":770:1016  function buyTicket(uint _quantity, uint _ID) external{\r... */\n    tag_17:\n        /* \"contract/EventOrganizingContract.sol\":834:854  Event storage _event */\n      0x00\n        /* \"contract/EventOrganizingContract.sol\":857:863  events */\n      dup1\n        /* \"contract/EventOrganizingContract.sol\":857:868  events[_ID] */\n      0x00\n        /* \"contract/EventOrganizingContract.sol\":864:867  _ID */\n      dup4\n        /* \"contract/EventOrganizingContract.sol\":857:868  events[_ID] */\n      dup2\n      mstore\n      0x20\n      add\n      swap1\n      dup2\n      mstore\n      0x20\n      add\n      0x00\n      keccak256\n        /* \"contract/EventOrganizingContract.sol\":834:868  Event storage _event = events[_ID] */\n      swap1\n      pop\n        /* \"contract/EventOrganizingContract.sol\":902:903  0 */\n      0x00\n        /* \"contract/EventOrganizingContract.sol\":887:893  _event */\n      dup2\n        /* \"contract/EventOrganizingContract.sol\":887:898  _event.date */\n      0x01\n      add\n      sload\n        /* \"contract/EventOrganizingContract.sol\":887:903  _event.date != 0 */\n      eq\n      iszero\n        /* \"contract/EventOrganizingContract.sol\":879:928  require(_event.date != 0, \"Event does not exist\") */\n      tag_38\n      jumpi\n      mload(0x40)\n      0x08c379a000000000000000000000000000000000000000000000000000000000\n      dup2\n      mstore\n      0x04\n      add\n      tag_39\n      swap1\n      tag_40\n      jump\t// in\n    tag_39:\n      mload(0x40)\n      dup1\n      swap2\n      sub\n      swap1\n      revert\n    tag_38:\n        /* \"contract/EventOrganizingContract.sol\":966:981  block.timestamp */\n      timestamp\n        /* \"contract/EventOrganizingContract.sol\":947:953  events */\n      0x00\n        /* \"contract/EventOrganizingContract.sol\":947:958  events[_ID] */\n      dup1\n        /* \"contract/EventOrganizingContract.sol\":954:957  _ID */\n      dup5\n        /* \"contract/EventOrganizingContract.sol\":947:958  events[_ID] */\n      dup2\n      mstore\n      0x20\n      add\n      swap1\n      dup2\n      mstore\n      0x20\n      add\n      0x00\n      keccak256\n        /* \"contract/EventOrganizingContract.sol\":947:963  events[_ID].date */\n      0x01\n      add\n      sload\n        /* \"contract/EventOrganizingContract.sol\":947:981  events[_ID].date > block.timestamp */\n      gt\n        /* \"contract/EventOrganizingContract.sol\":939:1008  require(events[_ID].date > block.timestamp, \"Event booking is close\") */\n      tag_41\n      jumpi\n      mload(0x40)\n      0x08c379a000000000000000000000000000000000000000000000000000000000\n      dup2\n      mstore\n      0x04\n      add\n      tag_42\n      swap1\n      tag_43\n      jump\t// in\n    tag_42:\n      mload(0x40)\n      dup1\n      swap2\n      sub\n      swap1\n      revert\n    tag_41:\n        /* \"contract/EventOrganizingContract.sol\":823:1016  {\r... */\n      pop\n        /* \"contract/EventOrganizingContract.sol\":770:1016  function buyTicket(uint _quantity, uint _ID) external{\r... */\n      pop\n      pop\n      jump\t// out\n        /* \"contract/EventOrganizingContract.sol\":375:389  uint public ID */\n    tag_19:\n      sload(0x02)\n      dup2\n      jump\t// out\n        /* \"contract/EventOrganizingContract.sol\":311:368  mapping (address => mapping(uint => uint)) public tickets */\n    tag_25:\n      mstore(0x20, 0x01)\n      dup2\n      0x00\n      mstore\n      mstore(0x20, keccak256(0x00, 0x40))\n      dup1\n      0x00\n      mstore\n      keccak256(0x00, 0x40)\n      0x00\n      swap2\n      pop\n      swap2\n      pop\n      pop\n      sload\n      dup2\n      jump\t// out\n        /* \"contract/EventOrganizingContract.sol\":402:762  function createEvent(uint _date, string memory _name, uint _price, uint _ticketCount) external{\r... */\n    tag_30:\n        /* \"contract/EventOrganizingContract.sol\":523:538  block.timestamp */\n      timestamp\n        /* \"contract/EventOrganizingContract.sol\":515:520  _date */\n      dup5\n        /* \"contract/EventOrganizingContract.sol\":515:538  _date > block.timestamp */\n      gt\n        /* \"contract/EventOrganizingContract.sol\":507:576  require(_date > block.timestamp, \"You can organize event for future\") */\n      tag_45\n      jumpi\n      mload(0x40)\n      0x08c379a000000000000000000000000000000000000000000000000000000000\n      dup2\n      mstore\n      0x04\n      add\n      tag_46\n      swap1\n      tag_47\n      jump\t// in\n    tag_46:\n      mload(0x40)\n      dup1\n      swap2\n      sub\n      swap1\n      revert\n    tag_45:\n        /* \"contract/EventOrganizingContract.sol\":610:611  0 */\n      0x00\n        /* \"contract/EventOrganizingContract.sol\":595:607  _ticketCount */\n      dup2\n        /* \"contract/EventOrganizingContract.sol\":595:611  _ticketCount > 0 */\n      gt\n        /* \"contract/EventOrganizingContract.sol\":587:648  require(_ticketCount > 0, \"Event must have atleast 1 ticket\") */\n      tag_48\n      jumpi\n      mload(0x40)\n      0x08c379a000000000000000000000000000000000000000000000000000000000\n      dup2\n      mstore\n      0x04\n      add\n      tag_49\n      swap1\n      tag_50\n      jump\t// in\n    tag_49:\n      mload(0x40)\n      dup1\n      swap2\n      sub\n      swap1\n      revert\n    tag_48:\n        /* \"contract/EventOrganizingContract.sol\":672:739  Event(msg.sender, _date, _name, _price, _ticketCount, _ticketCount) */\n      mload(0x40)\n      dup1\n      0xc0\n      add\n      0x40\n      mstore\n      dup1\n        /* \"contract/EventOrganizingContract.sol\":678:688  msg.sender */\n      caller\n        /* \"contract/EventOrganizingContract.sol\":672:739  Event(msg.sender, _date, _name, _price, _ticketCount, _ticketCount) */\n      0xffffffffffffffffffffffffffffffffffffffff\n      and\n      dup2\n      mstore\n      0x20\n      add\n        /* \"contract/EventOrganizingContract.sol\":690:695  _date */\n      dup6\n        /* \"contract/EventOrganizingContract.sol\":672:739  Event(msg.sender, _date, _name, _price, _ticketCount, _ticketCount) */\n      dup2\n      mstore\n      0x20\n      add\n        /* \"contract/EventOrganizingContract.sol\":697:702  _name */\n      dup5\n        /* \"contract/EventOrganizingContract.sol\":672:739  Event(msg.sender, _date, _name, _price, _ticketCount, _ticketCount) */\n      dup2\n      mstore\n      0x20\n      add\n        /* \"contract/EventOrganizingContract.sol\":704:710  _price */\n      dup4\n        /* \"contract/EventOrganizingContract.sol\":672:739  Event(msg.sender, _date, _name, _price, _ticketCount, _ticketCount) */\n      dup2\n      mstore\n      0x20\n      add\n        /* \"contract/EventOrganizingContract.sol\":712:724  _ticketCount */\n      dup3\n        /* \"contract/EventOrganizingContract.sol\":672:739  Event(msg.sender, _date, _name, _price, _ticketCount, _ticketCount) */\n      dup2\n      mstore\n      0x20\n      add\n        /* \"contract/EventOrganizingContract.sol\":726:738  _ticketCount */\n      dup3\n        /* \"contract/EventOrganizingContract.sol\":672:739  Event(msg.sender, _date, _name, _price, _ticketCount, _ticketCount) */\n      dup2\n      mstore\n      pop\n        /* \"contract/EventOrganizingContract.sol\":659:665  events */\n      0x00\n        /* \"contract/EventOrganizingContract.sol\":659:669  events[ID] */\n      dup1\n        /* \"contract/EventOrganizingContract.sol\":666:668  ID */\n      sload(0x02)\n        /* \"contract/EventOrganizingContract.sol\":659:669  events[ID] */\n      dup2\n      mstore\n      0x20\n      add\n      swap1\n      dup2\n      mstore\n      0x20\n      add\n      0x00\n      keccak256\n        /* \"contract/EventOrganizingContract.sol\":659:739  events[ID] = Event(msg.sender, _date, _name, _price, _ticketCount, _ticketCount) */\n      0x00\n      dup3\n      add\n      mload\n      dup2\n      0x00\n      add\n      exp(0x0100, 0x00)\n      dup2\n      sload\n      dup2\n      0xffffffffffffffffffffffffffffffffffffffff\n      mul\n      not\n      and\n      swap1\n      dup4\n      0xffffffffffffffffffffffffffffffffffffffff\n      and\n      mul\n      or\n      swap1\n      sstore\n      pop\n      0x20\n      dup3\n      add\n      mload\n      dup2\n      0x01\n      add\n      sstore\n      0x40\n      dup3\n      add\n      mload\n      dup2\n      0x02\n      add\n      swap1\n      dup1\n      mload\n      swap1\n      0x20\n      add\n      swap1\n      tag_51\n      swap3\n      swap2\n      swap1\n      tag_52\n      jump\t// in\n    tag_51:\n      pop\n      0x60\n      dup3\n      add\n      mload\n      dup2\n      0x03\n      add\n      sstore\n      0x80\n      dup3\n      add\n      mload\n      dup2\n      0x04\n      add\n      sstore\n      0xa0\n      dup3\n      add\n      mload\n      dup2\n      0x05\n      add\n      sstore\n      swap1\n      pop\n      pop\n        /* \"contract/EventOrganizingContract.sol\":750:752  ID */\n      0x02\n      0x00\n        /* \"contract/EventOrganizingContract.sol\":750:754  ID++ */\n      dup2\n      sload\n      dup1\n      swap3\n      swap2\n      swap1\n      tag_53\n      swap1\n      tag_54\n      jump\t// in\n    tag_53:\n      swap2\n      swap1\n      pop\n      sstore\n      pop\n        /* \"contract/EventOrganizingContract.sol\":402:762  function createEvent(uint _date, string memory _name, uint _price, uint _ticketCount) external{\r... */\n      pop\n      pop\n      pop\n      pop\n      jump\t// out\n    tag_52:\n      dup3\n      dup1\n      sload\n      tag_55\n      swap1\n      tag_32\n      jump\t// in\n    tag_55:\n      swap1\n      0x00\n      mstore\n      keccak256(0x00, 0x20)\n      swap1\n      0x1f\n      add\n      0x20\n      swap1\n      div\n      dup2\n      add\n      swap3\n      dup3\n      tag_57\n      jumpi\n      0x00\n      dup6\n      sstore\n      jump(tag_56)\n    tag_57:\n      dup3\n      0x1f\n      lt\n      tag_58\n      jumpi\n      dup1\n      mload\n      not(0xff)\n      and\n      dup4\n      dup1\n      add\n      or\n      dup6\n      sstore\n      jump(tag_56)\n    tag_58:\n      dup3\n      dup1\n      add\n      0x01\n      add\n      dup6\n      sstore\n      dup3\n      iszero\n      tag_56\n      jumpi\n      swap2\n      dup3\n      add\n    tag_59:\n      dup3\n      dup2\n      gt\n      iszero\n      tag_60\n      jumpi\n      dup3\n      mload\n      dup3\n      sstore\n      swap2\n      0x20\n      add\n      swap2\n      swap1\n      0x01\n      add\n      swap1\n      jump(tag_59)\n    tag_60:\n    tag_56:\n      pop\n      swap1\n      pop\n      tag_61\n      swap2\n      swap1\n      tag_62\n      jump\t// in\n    tag_61:\n      pop\n      swap1\n      jump\t// out\n    tag_62:\n    tag_63:\n      dup1\n      dup3\n      gt\n      iszero\n      tag_64\n      jumpi\n      0x00\n      dup2\n      0x00\n      swap1\n      sstore\n      pop\n      0x01\n      add\n      jump(tag_63)\n    tag_64:\n      pop\n      swap1\n      jump\t// out\n        /* \"#utility.yul\":7:419   */\n    tag_66:\n        /* \"#utility.yul\":85:90   */\n      0x00\n        /* \"#utility.yul\":110:176   */\n      tag_68\n        /* \"#utility.yul\":126:175   */\n      tag_69\n        /* \"#utility.yul\":168:174   */\n      dup5\n        /* \"#utility.yul\":126:175   */\n      tag_70\n      jump\t// in\n    tag_69:\n        /* \"#utility.yul\":110:176   */\n      tag_71\n      jump\t// in\n    tag_68:\n        /* \"#utility.yul\":101:176   */\n      swap1\n      pop\n        /* \"#utility.yul\":199:205   */\n      dup3\n        /* \"#utility.yul\":192:197   */\n      dup2\n        /* \"#utility.yul\":185:206   */\n      mstore\n        /* \"#utility.yul\":237:241   */\n      0x20\n        /* \"#utility.yul\":230:235   */\n      dup2\n        /* \"#utility.yul\":226:242   */\n      add\n        /* \"#utility.yul\":275:278   */\n      dup5\n        /* \"#utility.yul\":266:272   */\n      dup5\n        /* \"#utility.yul\":261:264   */\n      dup5\n        /* \"#utility.yul\":257:273   */\n      add\n        /* \"#utility.yul\":254:279   */\n      gt\n        /* \"#utility.yul\":251:363   */\n      iszero\n      tag_72\n      jumpi\n        /* \"#utility.yul\":282:361   */\n      tag_73\n      tag_74\n      jump\t// in\n    tag_73:\n        /* \"#utility.yul\":251:363   */\n    tag_72:\n        /* \"#utility.yul\":372:413   */\n      tag_75\n        /* \"#utility.yul\":406:412   */\n      dup5\n        /* \"#utility.yul\":401:404   */\n      dup3\n        /* \"#utility.yul\":396:399   */\n      dup6\n        /* \"#utility.yul\":372:413   */\n      tag_76\n      jump\t// in\n    tag_75:\n        /* \"#utility.yul\":91:419   */\n      pop\n        /* \"#utility.yul\":7:419   */\n      swap4\n      swap3\n      pop\n      pop\n      pop\n      jump\t// out\n        /* \"#utility.yul\":425:564   */\n    tag_77:\n        /* \"#utility.yul\":471:476   */\n      0x00\n        /* \"#utility.yul\":509:515   */\n      dup2\n        /* \"#utility.yul\":496:516   */\n      calldataload\n        /* \"#utility.yul\":487:516   */\n      swap1\n      pop\n        /* \"#utility.yul\":525:558   */\n      tag_79\n        /* \"#utility.yul\":552:557   */\n      dup2\n        /* \"#utility.yul\":525:558   */\n      tag_80\n      jump\t// in\n    tag_79:\n        /* \"#utility.yul\":425:564   */\n      swap3\n      swap2\n      pop\n      pop\n      jump\t// out\n        /* \"#utility.yul\":584:924   */\n    tag_81:\n        /* \"#utility.yul\":640:645   */\n      0x00\n        /* \"#utility.yul\":689:692   */\n      dup3\n        /* \"#utility.yul\":682:686   */\n      0x1f\n        /* \"#utility.yul\":674:680   */\n      dup4\n        /* \"#utility.yul\":670:687   */\n      add\n        /* \"#utility.yul\":666:693   */\n      slt\n        /* \"#utility.yul\":656:778   */\n      tag_83\n      jumpi\n        /* \"#utility.yul\":697:776   */\n      tag_84\n      tag_85\n      jump\t// in\n    tag_84:\n        /* \"#utility.yul\":656:778   */\n    tag_83:\n        /* \"#utility.yul\":814:820   */\n      dup2\n        /* \"#utility.yul\":801:821   */\n      calldataload\n        /* \"#utility.yul\":839:918   */\n      tag_86\n        /* \"#utility.yul\":914:917   */\n      dup5\n        /* \"#utility.yul\":906:912   */\n      dup3\n        /* \"#utility.yul\":899:903   */\n      0x20\n        /* \"#utility.yul\":891:897   */\n      dup7\n        /* \"#utility.yul\":887:904   */\n      add\n        /* \"#utility.yul\":839:918   */\n      tag_66\n      jump\t// in\n    tag_86:\n        /* \"#utility.yul\":830:918   */\n      swap2\n      pop\n        /* \"#utility.yul\":646:924   */\n      pop\n        /* \"#utility.yul\":584:924   */\n      swap3\n      swap2\n      pop\n      pop\n      jump\t// out\n        /* \"#utility.yul\":930:1069   */\n    tag_87:\n        /* \"#utility.yul\":976:981   */\n      0x00\n        /* \"#utility.yul\":1014:1020   */\n      dup2\n        /* \"#utility.yul\":1001:1021   */\n      calldataload\n        /* \"#utility.yul\":992:1021   */\n      swap1\n      pop\n        /* \"#utility.yul\":1030:1063   */\n      tag_89\n        /* \"#utility.yul\":1057:1062   */\n      dup2\n        /* \"#utility.yul\":1030:1063   */\n      tag_90\n      jump\t// in\n    tag_89:\n        /* \"#utility.yul\":930:1069   */\n      swap3\n      swap2\n      pop\n      pop\n      jump\t// out\n        /* \"#utility.yul\":1075:1549   */\n    tag_24:\n        /* \"#utility.yul\":1143:1149   */\n      0x00\n        /* \"#utility.yul\":1151:1157   */\n      dup1\n        /* \"#utility.yul\":1200:1202   */\n      0x40\n        /* \"#utility.yul\":1188:1197   */\n      dup4\n        /* \"#utility.yul\":1179:1186   */\n      dup6\n        /* \"#utility.yul\":1175:1198   */\n      sub\n        /* \"#utility.yul\":1171:1203   */\n      slt\n        /* \"#utility.yul\":1168:1287   */\n      iszero\n      tag_92\n      jumpi\n        /* \"#utility.yul\":1206:1285   */\n      tag_93\n      tag_94\n      jump\t// in\n    tag_93:\n        /* \"#utility.yul\":1168:1287   */\n    tag_92:\n        /* \"#utility.yul\":1326:1327   */\n      0x00\n        /* \"#utility.yul\":1351:1404   */\n      tag_95\n        /* \"#utility.yul\":1396:1403   */\n      dup6\n        /* \"#utility.yul\":1387:1393   */\n      dup3\n        /* \"#utility.yul\":1376:1385   */\n      dup7\n        /* \"#utility.yul\":1372:1394   */\n      add\n        /* \"#utility.yul\":1351:1404   */\n      tag_77\n      jump\t// in\n    tag_95:\n        /* \"#utility.yul\":1341:1404   */\n      swap3\n      pop\n        /* \"#utility.yul\":1297:1414   */\n      pop\n        /* \"#utility.yul\":1453:1455   */\n      0x20\n        /* \"#utility.yul\":1479:1532   */\n      tag_96\n        /* \"#utility.yul\":1524:1531   */\n      dup6\n        /* \"#utility.yul\":1515:1521   */\n      dup3\n        /* \"#utility.yul\":1504:1513   */\n      dup7\n        /* \"#utility.yul\":1500:1522   */\n      add\n        /* \"#utility.yul\":1479:1532   */\n      tag_87\n      jump\t// in\n    tag_96:\n        /* \"#utility.yul\":1469:1532   */\n      swap2\n      pop\n        /* \"#utility.yul\":1424:1542   */\n      pop\n        /* \"#utility.yul\":1075:1549   */\n      swap3\n      pop\n      swap3\n      swap1\n      pop\n      jump\t// out\n        /* \"#utility.yul\":1555:1884   */\n    tag_10:\n        /* \"#utility.yul\":1614:1620   */\n      0x00\n        /* \"#utility.yul\":1663:1665   */\n      0x20\n        /* \"#utility.yul\":1651:1660   */\n      dup3\n        /* \"#utility.yul\":1642:1649   */\n      dup5\n        /* \"#utility.yul\":1638:1661   */\n      sub\n        /* \"#utility.yul\":1634:1666   */\n      slt\n        /* \"#utility.yul\":1631:1750   */\n      iszero\n      tag_98\n      jumpi\n        /* \"#utility.yul\":1669:1748   */\n      tag_99\n      tag_94\n      jump\t// in\n    tag_99:\n        /* \"#utility.yul\":1631:1750   */\n    tag_98:\n        /* \"#utility.yul\":1789:1790   */\n      0x00\n        /* \"#utility.yul\":1814:1867   */\n      tag_100\n        /* \"#utility.yul\":1859:1866   */\n      dup5\n        /* \"#utility.yul\":1850:1856   */\n      dup3\n        /* \"#utility.yul\":1839:1848   */\n      dup6\n        /* \"#utility.yul\":1835:1857   */\n      add\n        /* \"#utility.yul\":1814:1867   */\n      tag_87\n      jump\t// in\n    tag_100:\n        /* \"#utility.yul\":1804:1867   */\n      swap2\n      pop\n        /* \"#utility.yul\":1760:1877   */\n      pop\n        /* \"#utility.yul\":1555:1884   */\n      swap3\n      swap2\n      pop\n      pop\n      jump\t// out\n        /* \"#utility.yul\":1890:2835   */\n    tag_29:\n        /* \"#utility.yul\":1986:1992   */\n      0x00\n        /* \"#utility.yul\":1994:2000   */\n      dup1\n        /* \"#utility.yul\":2002:2008   */\n      0x00\n        /* \"#utility.yul\":2010:2016   */\n      dup1\n        /* \"#utility.yul\":2059:2062   */\n      0x80\n        /* \"#utility.yul\":2047:2056   */\n      dup6\n        /* \"#utility.yul\":2038:2045   */\n      dup8\n        /* \"#utility.yul\":2034:2057   */\n      sub\n        /* \"#utility.yul\":2030:2063   */\n      slt\n        /* \"#utility.yul\":2027:2147   */\n      iszero\n      tag_102\n      jumpi\n        /* \"#utility.yul\":2066:2145   */\n      tag_103\n      tag_94\n      jump\t// in\n    tag_103:\n        /* \"#utility.yul\":2027:2147   */\n    tag_102:\n        /* \"#utility.yul\":2186:2187   */\n      0x00\n        /* \"#utility.yul\":2211:2264   */\n      tag_104\n        /* \"#utility.yul\":2256:2263   */\n      dup8\n        /* \"#utility.yul\":2247:2253   */\n      dup3\n        /* \"#utility.yul\":2236:2245   */\n      dup9\n        /* \"#utility.yul\":2232:2254   */\n      add\n        /* \"#utility.yul\":2211:2264   */\n      tag_87\n      jump\t// in\n    tag_104:\n        /* \"#utility.yul\":2201:2264   */\n      swap5\n      pop\n        /* \"#utility.yul\":2157:2274   */\n      pop\n        /* \"#utility.yul\":2341:2343   */\n      0x20\n        /* \"#utility.yul\":2330:2339   */\n      dup6\n        /* \"#utility.yul\":2326:2344   */\n      add\n        /* \"#utility.yul\":2313:2345   */\n      calldataload\n        /* \"#utility.yul\":2372:2390   */\n      0xffffffffffffffff\n        /* \"#utility.yul\":2364:2370   */\n      dup2\n        /* \"#utility.yul\":2361:2391   */\n      gt\n        /* \"#utility.yul\":2358:2475   */\n      iszero\n      tag_105\n      jumpi\n        /* \"#utility.yul\":2394:2473   */\n      tag_106\n      tag_107\n      jump\t// in\n    tag_106:\n        /* \"#utility.yul\":2358:2475   */\n    tag_105:\n        /* \"#utility.yul\":2499:2562   */\n      tag_108\n        /* \"#utility.yul\":2554:2561   */\n      dup8\n        /* \"#utility.yul\":2545:2551   */\n      dup3\n        /* \"#utility.yul\":2534:2543   */\n      dup9\n        /* \"#utility.yul\":2530:2552   */\n      add\n        /* \"#utility.yul\":2499:2562   */\n      tag_81\n      jump\t// in\n    tag_108:\n        /* \"#utility.yul\":2489:2562   */\n      swap4\n      pop\n        /* \"#utility.yul\":2284:2572   */\n      pop\n        /* \"#utility.yul\":2611:2613   */\n      0x40\n        /* \"#utility.yul\":2637:2690   */\n      tag_109\n        /* \"#utility.yul\":2682:2689   */\n      dup8\n        /* \"#utility.yul\":2673:2679   */\n      dup3\n        /* \"#utility.yul\":2662:2671   */\n      dup9\n        /* \"#utility.yul\":2658:2680   */\n      add\n        /* \"#utility.yul\":2637:2690   */\n      tag_87\n      jump\t// in\n    tag_109:\n        /* \"#utility.yul\":2627:2690   */\n      swap3\n      pop\n        /* \"#utility.yul\":2582:2700   */\n      pop\n        /* \"#utility.yul\":2739:2741   */\n      0x60\n        /* \"#utility.yul\":2765:2818   */\n      tag_110\n        /* \"#utility.yul\":2810:2817   */\n      dup8\n        /* \"#utility.yul\":2801:2807   */\n      dup3\n        /* \"#utility.yul\":2790:2799   */\n      dup9\n        /* \"#utility.yul\":2786:2808   */\n      add\n        /* \"#utility.yul\":2765:2818   */\n      tag_87\n      jump\t// in\n    tag_110:\n        /* \"#utility.yul\":2755:2818   */\n      swap2\n      pop\n        /* \"#utility.yul\":2710:2828   */\n      pop\n        /* \"#utility.yul\":1890:2835   */\n      swap3\n      swap6\n      swap2\n      swap5\n      pop\n      swap3\n      pop\n      jump\t// out\n        /* \"#utility.yul\":2841:3315   */\n    tag_16:\n        /* \"#utility.yul\":2909:2915   */\n      0x00\n        /* \"#utility.yul\":2917:2923   */\n      dup1\n        /* \"#utility.yul\":2966:2968   */\n      0x40\n        /* \"#utility.yul\":2954:2963   */\n      dup4\n        /* \"#utility.yul\":2945:2952   */\n      dup6\n        /* \"#utility.yul\":2941:2964   */\n      sub\n        /* \"#utility.yul\":2937:2969   */\n      slt\n        /* \"#utility.yul\":2934:3053   */\n      iszero\n      tag_112\n      jumpi\n        /* \"#utility.yul\":2972:3051   */\n      tag_113\n      tag_94\n      jump\t// in\n    tag_113:\n        /* \"#utility.yul\":2934:3053   */\n    tag_112:\n        /* \"#utility.yul\":3092:3093   */\n      0x00\n        /* \"#utility.yul\":3117:3170   */\n      tag_114\n        /* \"#utility.yul\":3162:3169   */\n      dup6\n        /* \"#utility.yul\":3153:3159   */\n      dup3\n        /* \"#utility.yul\":3142:3151   */\n      dup7\n        /* \"#utility.yul\":3138:3160   */\n      add\n        /* \"#utility.yul\":3117:3170   */\n      tag_87\n      jump\t// in\n    tag_114:\n        /* \"#utility.yul\":3107:3170   */\n      swap3\n      pop\n        /* \"#utility.yul\":3063:3180   */\n      pop\n        /* \"#utility.yul\":3219:3221   */\n      0x20\n        /* \"#utility.yul\":3245:3298   */\n      tag_115\n        /* \"#utility.yul\":3290:3297   */\n      dup6\n        /* \"#utility.yul\":3281:3287   */\n      dup3\n        /* \"#utility.yul\":3270:3279   */\n      dup7\n        /* \"#utility.yul\":3266:3288   */\n      add\n        /* \"#utility.yul\":3245:3298   */\n      tag_87\n      jump\t// in\n    tag_115:\n        /* \"#utility.yul\":3235:3298   */\n      swap2\n      pop\n        /* \"#utility.yul\":3190:3308   */\n      pop\n        /* \"#utility.yul\":2841:3315   */\n      swap3\n      pop\n      swap3\n      swap1\n      pop\n      jump\t// out\n        /* \"#utility.yul\":3321:3439   */\n    tag_116:\n        /* \"#utility.yul\":3408:3432   */\n      tag_118\n        /* \"#utility.yul\":3426:3431   */\n      dup2\n        /* \"#utility.yul\":3408:3432   */\n      tag_119\n      jump\t// in\n    tag_118:\n        /* \"#utility.yul\":3403:3406   */\n      dup3\n        /* \"#utility.yul\":3396:3433   */\n      mstore\n        /* \"#utility.yul\":3321:3439   */\n      pop\n      pop\n      jump\t// out\n        /* \"#utility.yul\":3445:3809   */\n    tag_120:\n        /* \"#utility.yul\":3533:3536   */\n      0x00\n        /* \"#utility.yul\":3561:3600   */\n      tag_122\n        /* \"#utility.yul\":3594:3599   */\n      dup3\n        /* \"#utility.yul\":3561:3600   */\n      tag_123\n      jump\t// in\n    tag_122:\n        /* \"#utility.yul\":3616:3687   */\n      tag_124\n        /* \"#utility.yul\":3680:3686   */\n      dup2\n        /* \"#utility.yul\":3675:3678   */\n      dup6\n        /* \"#utility.yul\":3616:3687   */\n      tag_125\n      jump\t// in\n    tag_124:\n        /* \"#utility.yul\":3609:3687   */\n      swap4\n      pop\n        /* \"#utility.yul\":3696:3748   */\n      tag_126\n        /* \"#utility.yul\":3741:3747   */\n      dup2\n        /* \"#utility.yul\":3736:3739   */\n      dup6\n        /* \"#utility.yul\":3729:3733   */\n      0x20\n        /* \"#utility.yul\":3722:3727   */\n      dup7\n        /* \"#utility.yul\":3718:3734   */\n      add\n        /* \"#utility.yul\":3696:3748   */\n      tag_127\n      jump\t// in\n    tag_126:\n        /* \"#utility.yul\":3773:3802   */\n      tag_128\n        /* \"#utility.yul\":3795:3801   */\n      dup2\n        /* \"#utility.yul\":3773:3802   */\n      tag_129\n      jump\t// in\n    tag_128:\n        /* \"#utility.yul\":3768:3771   */\n      dup5\n        /* \"#utility.yul\":3764:3803   */\n      add\n        /* \"#utility.yul\":3757:3803   */\n      swap2\n      pop\n        /* \"#utility.yul\":3537:3809   */\n      pop\n        /* \"#utility.yul\":3445:3809   */\n      swap3\n      swap2\n      pop\n      pop\n      jump\t// out\n        /* \"#utility.yul\":3815:4181   */\n    tag_130:\n        /* \"#utility.yul\":3957:3960   */\n      0x00\n        /* \"#utility.yul\":3978:4045   */\n      tag_132\n        /* \"#utility.yul\":4042:4044   */\n      0x20\n        /* \"#utility.yul\":4037:4040   */\n      dup4\n        /* \"#utility.yul\":3978:4045   */\n      tag_125\n      jump\t// in\n    tag_132:\n        /* \"#utility.yul\":3971:4045   */\n      swap2\n      pop\n        /* \"#utility.yul\":4054:4147   */\n      tag_133\n        /* \"#utility.yul\":4143:4146   */\n      dup3\n        /* \"#utility.yul\":4054:4147   */\n      tag_134\n      jump\t// in\n    tag_133:\n        /* \"#utility.yul\":4172:4174   */\n      0x20\n        /* \"#utility.yul\":4167:4170   */\n      dup3\n        /* \"#utility.yul\":4163:4175   */\n      add\n        /* \"#utility.yul\":4156:4175   */\n      swap1\n      pop\n        /* \"#utility.yul\":3815:4181   */\n      swap2\n      swap1\n      pop\n      jump\t// out\n        /* \"#utility.yul\":4187:4553   */\n    tag_135:\n        /* \"#utility.yul\":4329:4332   */\n      0x00\n        /* \"#utility.yul\":4350:4417   */\n      tag_137\n        /* \"#utility.yul\":4414:4416   */\n      0x16\n        /* \"#utility.yul\":4409:4412   */\n      dup4\n        /* \"#utility.yul\":4350:4417   */\n      tag_125\n      jump\t// in\n    tag_137:\n        /* \"#utility.yul\":4343:4417   */\n      swap2\n      pop\n        /* \"#utility.yul\":4426:4519   */\n      tag_138\n        /* \"#utility.yul\":4515:4518   */\n      dup3\n        /* \"#utility.yul\":4426:4519   */\n      tag_139\n      jump\t// in\n    tag_138:\n        /* \"#utility.yul\":4544:4546   */\n      0x20\n        /* \"#utility.yul\":4539:4542   */\n      dup3\n        /* \"#utility.yul\":4535:4547   */\n      add\n        /* \"#utility.yul\":4528:4547   */\n      swap1\n      pop\n        /* \"#utility.yul\":4187:4553   */\n      swap2\n      swap1\n      pop\n      jump\t// out\n        /* \"#utility.yul\":4559:4925   */\n    tag_140:\n        /* \"#utility.yul\":4701:4704   */\n      0x00\n        /* \"#utility.yul\":4722:4789   */\n      tag_142\n        /* \"#utility.yul\":4786:4788   */\n      0x21\n        /* \"#utility.yul\":4781:4784   */\n      dup4\n        /* \"#utility.yul\":4722:4789   */\n      tag_125\n      jump\t// in\n    tag_142:\n        /* \"#utility.yul\":4715:4789   */\n      swap2\n      pop\n        /* \"#utility.yul\":4798:4891   */\n      tag_143\n        /* \"#utility.yul\":4887:4890   */\n      dup3\n        /* \"#utility.yul\":4798:4891   */\n      tag_144\n      jump\t// in\n    tag_143:\n        /* \"#utility.yul\":4916:4918   */\n      0x40\n        /* \"#utility.yul\":4911:4914   */\n      dup3\n        /* \"#utility.yul\":4907:4919   */\n      add\n        /* \"#utility.yul\":4900:4919   */\n      swap1\n      pop\n        /* \"#utility.yul\":4559:4925   */\n      swap2\n      swap1\n      pop\n      jump\t// out\n        /* \"#utility.yul\":4931:5297   */\n    tag_145:\n        /* \"#utility.yul\":5073:5076   */\n      0x00\n        /* \"#utility.yul\":5094:5161   */\n      tag_147\n        /* \"#utility.yul\":5158:5160   */\n      0x14\n        /* \"#utility.yul\":5153:5156   */\n      dup4\n        /* \"#utility.yul\":5094:5161   */\n      tag_125\n      jump\t// in\n    tag_147:\n        /* \"#utility.yul\":5087:5161   */\n      swap2\n      pop\n        /* \"#utility.yul\":5170:5263   */\n      tag_148\n        /* \"#utility.yul\":5259:5262   */\n      dup3\n        /* \"#utility.yul\":5170:5263   */\n      tag_149\n      jump\t// in\n    tag_148:\n        /* \"#utility.yul\":5288:5290   */\n      0x20\n        /* \"#utility.yul\":5283:5286   */\n      dup3\n        /* \"#utility.yul\":5279:5291   */\n      add\n        /* \"#utility.yul\":5272:5291   */\n      swap1\n      pop\n        /* \"#utility.yul\":4931:5297   */\n      swap2\n      swap1\n      pop\n      jump\t// out\n        /* \"#utility.yul\":5303:5421   */\n    tag_150:\n        /* \"#utility.yul\":5390:5414   */\n      tag_152\n        /* \"#utility.yul\":5408:5413   */\n      dup2\n        /* \"#utility.yul\":5390:5414   */\n      tag_153\n      jump\t// in\n    tag_152:\n        /* \"#utility.yul\":5385:5388   */\n      dup3\n        /* \"#utility.yul\":5378:5415   */\n      mstore\n        /* \"#utility.yul\":5303:5421   */\n      pop\n      pop\n      jump\t// out\n        /* \"#utility.yul\":5427:6293   */\n    tag_13:\n        /* \"#utility.yul\":5680:5684   */\n      0x00\n        /* \"#utility.yul\":5718:5721   */\n      0xc0\n        /* \"#utility.yul\":5707:5716   */\n      dup3\n        /* \"#utility.yul\":5703:5722   */\n      add\n        /* \"#utility.yul\":5695:5722   */\n      swap1\n      pop\n        /* \"#utility.yul\":5732:5803   */\n      tag_155\n        /* \"#utility.yul\":5800:5801   */\n      0x00\n        /* \"#utility.yul\":5789:5798   */\n      dup4\n        /* \"#utility.yul\":5785:5802   */\n      add\n        /* \"#utility.yul\":5776:5782   */\n      dup10\n        /* \"#utility.yul\":5732:5803   */\n      tag_116\n      jump\t// in\n    tag_155:\n        /* \"#utility.yul\":5813:5885   */\n      tag_156\n        /* \"#utility.yul\":5881:5883   */\n      0x20\n        /* \"#utility.yul\":5870:5879   */\n      dup4\n        /* \"#utility.yul\":5866:5884   */\n      add\n        /* \"#utility.yul\":5857:5863   */\n      dup9\n        /* \"#utility.yul\":5813:5885   */\n      tag_150\n      jump\t// in\n    tag_156:\n        /* \"#utility.yul\":5932:5941   */\n      dup2\n        /* \"#utility.yul\":5926:5930   */\n      dup2\n        /* \"#utility.yul\":5922:5942   */\n      sub\n        /* \"#utility.yul\":5917:5919   */\n      0x40\n        /* \"#utility.yul\":5906:5915   */\n      dup4\n        /* \"#utility.yul\":5902:5920   */\n      add\n        /* \"#utility.yul\":5895:5943   */\n      mstore\n        /* \"#utility.yul\":5960:6038   */\n      tag_157\n        /* \"#utility.yul\":6033:6037   */\n      dup2\n        /* \"#utility.yul\":6024:6030   */\n      dup8\n        /* \"#utility.yul\":5960:6038   */\n      tag_120\n      jump\t// in\n    tag_157:\n        /* \"#utility.yul\":5952:6038   */\n      swap1\n      pop\n        /* \"#utility.yul\":6048:6120   */\n      tag_158\n        /* \"#utility.yul\":6116:6118   */\n      0x60\n        /* \"#utility.yul\":6105:6114   */\n      dup4\n        /* \"#utility.yul\":6101:6119   */\n      add\n        /* \"#utility.yul\":6092:6098   */\n      dup7\n        /* \"#utility.yul\":6048:6120   */\n      tag_150\n      jump\t// in\n    tag_158:\n        /* \"#utility.yul\":6130:6203   */\n      tag_159\n        /* \"#utility.yul\":6198:6201   */\n      0x80\n        /* \"#utility.yul\":6187:6196   */\n      dup4\n        /* \"#utility.yul\":6183:6202   */\n      add\n        /* \"#utility.yul\":6174:6180   */\n      dup6\n        /* \"#utility.yul\":6130:6203   */\n      tag_150\n      jump\t// in\n    tag_159:\n        /* \"#utility.yul\":6213:6286   */\n      tag_160\n        /* \"#utility.yul\":6281:6284   */\n      0xa0\n        /* \"#utility.yul\":6270:6279   */\n      dup4\n        /* \"#utility.yul\":6266:6285   */\n      add\n        /* \"#utility.yul\":6257:6263   */\n      dup5\n        /* \"#utility.yul\":6213:6286   */\n      tag_150\n      jump\t// in\n    tag_160:\n        /* \"#utility.yul\":5427:6293   */\n      swap8\n      swap7\n      pop\n      pop\n      pop\n      pop\n      pop\n      pop\n      pop\n      jump\t// out\n        /* \"#utility.yul\":6299:6718   */\n    tag_50:\n        /* \"#utility.yul\":6465:6469   */\n      0x00\n        /* \"#utility.yul\":6503:6505   */\n      0x20\n        /* \"#utility.yul\":6492:6501   */\n      dup3\n        /* \"#utility.yul\":6488:6506   */\n      add\n        /* \"#utility.yul\":6480:6506   */\n      swap1\n      pop\n        /* \"#utility.yul\":6552:6561   */\n      dup2\n        /* \"#utility.yul\":6546:6550   */\n      dup2\n        /* \"#utility.yul\":6542:6562   */\n      sub\n        /* \"#utility.yul\":6538:6539   */\n      0x00\n        /* \"#utility.yul\":6527:6536   */\n      dup4\n        /* \"#utility.yul\":6523:6540   */\n      add\n        /* \"#utility.yul\":6516:6563   */\n      mstore\n        /* \"#utility.yul\":6580:6711   */\n      tag_162\n        /* \"#utility.yul\":6706:6710   */\n      dup2\n        /* \"#utility.yul\":6580:6711   */\n      tag_130\n      jump\t// in\n    tag_162:\n        /* \"#utility.yul\":6572:6711   */\n      swap1\n      pop\n        /* \"#utility.yul\":6299:6718   */\n      swap2\n      swap1\n      pop\n      jump\t// out\n        /* \"#utility.yul\":6724:7143   */\n    tag_43:\n        /* \"#utility.yul\":6890:6894   */\n      0x00\n        /* \"#utility.yul\":6928:6930   */\n      0x20\n        /* \"#utility.yul\":6917:6926   */\n      dup3\n        /* \"#utility.yul\":6913:6931   */\n      add\n        /* \"#utility.yul\":6905:6931   */\n      swap1\n      pop\n        /* \"#utility.yul\":6977:6986   */\n      dup2\n        /* \"#utility.yul\":6971:6975   */\n      dup2\n        /* \"#utility.yul\":6967:6987   */\n      sub\n        /* \"#utility.yul\":6963:6964   */\n      0x00\n        /* \"#utility.yul\":6952:6961   */\n      dup4\n        /* \"#utility.yul\":6948:6965   */\n      add\n        /* \"#utility.yul\":6941:6988   */\n      mstore\n        /* \"#utility.yul\":7005:7136   */\n      tag_164\n        /* \"#utility.yul\":7131:7135   */\n      dup2\n        /* \"#utility.yul\":7005:7136   */\n      tag_135\n      jump\t// in\n    tag_164:\n        /* \"#utility.yul\":6997:7136   */\n      swap1\n      pop\n        /* \"#utility.yul\":6724:7143   */\n      swap2\n      swap1\n      pop\n      jump\t// out\n        /* \"#utility.yul\":7149:7568   */\n    tag_47:\n        /* \"#utility.yul\":7315:7319   */\n      0x00\n        /* \"#utility.yul\":7353:7355   */\n      0x20\n        /* \"#utility.yul\":7342:7351   */\n      dup3\n        /* \"#utility.yul\":7338:7356   */\n      add\n        /* \"#utility.yul\":7330:7356   */\n      swap1\n      pop\n        /* \"#utility.yul\":7402:7411   */\n      dup2\n        /* \"#utility.yul\":7396:7400   */\n      dup2\n        /* \"#utility.yul\":7392:7412   */\n      sub\n        /* \"#utility.yul\":7388:7389   */\n      0x00\n        /* \"#utility.yul\":7377:7386   */\n      dup4\n        /* \"#utility.yul\":7373:7390   */\n      add\n        /* \"#utility.yul\":7366:7413   */\n      mstore\n        /* \"#utility.yul\":7430:7561   */\n      tag_166\n        /* \"#utility.yul\":7556:7560   */\n      dup2\n        /* \"#utility.yul\":7430:7561   */\n      tag_140\n      jump\t// in\n    tag_166:\n        /* \"#utility.yul\":7422:7561   */\n      swap1\n      pop\n        /* \"#utility.yul\":7149:7568   */\n      swap2\n      swap1\n      pop\n      jump\t// out\n        /* \"#utility.yul\":7574:7993   */\n    tag_40:\n        /* \"#utility.yul\":7740:7744   */\n      0x00\n        /* \"#utility.yul\":7778:7780   */\n      0x20\n        /* \"#utility.yul\":7767:7776   */\n      dup3\n        /* \"#utility.yul\":7763:7781   */\n      add\n        /* \"#utility.yul\":7755:7781   */\n      swap1\n      pop\n        /* \"#utility.yul\":7827:7836   */\n      dup2\n        /* \"#utility.yul\":7821:7825   */\n      dup2\n        /* \"#utility.yul\":7817:7837   */\n      sub\n        /* \"#utility.yul\":7813:7814   */\n      0x00\n        /* \"#utility.yul\":7802:7811   */\n      dup4\n        /* \"#utility.yul\":7798:7815   */\n      add\n        /* \"#utility.yul\":7791:7838   */\n      mstore\n        /* \"#utility.yul\":7855:7986   */\n      tag_168\n        /* \"#utility.yul\":7981:7985   */\n      dup2\n        /* \"#utility.yul\":7855:7986   */\n      tag_145\n      jump\t// in\n    tag_168:\n        /* \"#utility.yul\":7847:7986   */\n      swap1\n      pop\n        /* \"#utility.yul\":7574:7993   */\n      swap2\n      swap1\n      pop\n      jump\t// out\n        /* \"#utility.yul\":7999:8221   */\n    tag_21:\n        /* \"#utility.yul\":8092:8096   */\n      0x00\n        /* \"#utility.yul\":8130:8132   */\n      0x20\n        /* \"#utility.yul\":8119:8128   */\n      dup3\n        /* \"#utility.yul\":8115:8133   */\n      add\n        /* \"#utility.yul\":8107:8133   */\n      swap1\n      pop\n        /* \"#utility.yul\":8143:8214   */\n      tag_170\n        /* \"#utility.yul\":8211:8212   */\n      0x00\n        /* \"#utility.yul\":8200:8209   */\n      dup4\n        /* \"#utility.yul\":8196:8213   */\n      add\n        /* \"#utility.yul\":8187:8193   */\n      dup5\n        /* \"#utility.yul\":8143:8214   */\n      tag_150\n      jump\t// in\n    tag_170:\n        /* \"#utility.yul\":7999:8221   */\n      swap3\n      swap2\n      pop\n      pop\n      jump\t// out\n        /* \"#utility.yul\":8227:8356   */\n    tag_71:\n        /* \"#utility.yul\":8261:8267   */\n      0x00\n        /* \"#utility.yul\":8288:8308   */\n      tag_172\n      tag_173\n      jump\t// in\n    tag_172:\n        /* \"#utility.yul\":8278:8308   */\n      swap1\n      pop\n        /* \"#utility.yul\":8317:8350   */\n      tag_174\n        /* \"#utility.yul\":8345:8349   */\n      dup3\n        /* \"#utility.yul\":8337:8343   */\n      dup3\n        /* \"#utility.yul\":8317:8350   */\n      tag_175\n      jump\t// in\n    tag_174:\n        /* \"#utility.yul\":8227:8356   */\n      swap2\n      swap1\n      pop\n      jump\t// out\n        /* \"#utility.yul\":8362:8437   */\n    tag_173:\n        /* \"#utility.yul\":8395:8401   */\n      0x00\n        /* \"#utility.yul\":8428:8430   */\n      0x40\n        /* \"#utility.yul\":8422:8431   */\n      mload\n        /* \"#utility.yul\":8412:8431   */\n      swap1\n      pop\n        /* \"#utility.yul\":8362:8437   */\n      swap1\n      jump\t// out\n        /* \"#utility.yul\":8443:8751   */\n    tag_70:\n        /* \"#utility.yul\":8505:8509   */\n      0x00\n        /* \"#utility.yul\":8595:8613   */\n      0xffffffffffffffff\n        /* \"#utility.yul\":8587:8593   */\n      dup3\n        /* \"#utility.yul\":8584:8614   */\n      gt\n        /* \"#utility.yul\":8581:8637   */\n      iszero\n      tag_178\n      jumpi\n        /* \"#utility.yul\":8617:8635   */\n      tag_179\n      tag_180\n      jump\t// in\n    tag_179:\n        /* \"#utility.yul\":8581:8637   */\n    tag_178:\n        /* \"#utility.yul\":8655:8684   */\n      tag_181\n        /* \"#utility.yul\":8677:8683   */\n      dup3\n        /* \"#utility.yul\":8655:8684   */\n      tag_129\n      jump\t// in\n    tag_181:\n        /* \"#utility.yul\":8647:8684   */\n      swap1\n      pop\n        /* \"#utility.yul\":8739:8743   */\n      0x20\n        /* \"#utility.yul\":8733:8737   */\n      dup2\n        /* \"#utility.yul\":8729:8744   */\n      add\n        /* \"#utility.yul\":8721:8744   */\n      swap1\n      pop\n        /* \"#utility.yul\":8443:8751   */\n      swap2\n      swap1\n      pop\n      jump\t// out\n        /* \"#utility.yul\":8757:8856   */\n    tag_123:\n        /* \"#utility.yul\":8809:8815   */\n      0x00\n        /* \"#utility.yul\":8843:8848   */\n      dup2\n        /* \"#utility.yul\":8837:8849   */\n      mload\n        /* \"#utility.yul\":8827:8849   */\n      swap1\n      pop\n        /* \"#utility.yul\":8757:8856   */\n      swap2\n      swap1\n      pop\n      jump\t// out\n        /* \"#utility.yul\":8862:9031   */\n    tag_125:\n        /* \"#utility.yul\":8946:8957   */\n      0x00\n        /* \"#utility.yul\":8980:8986   */\n      dup3\n        /* \"#utility.yul\":8975:8978   */\n      dup3\n        /* \"#utility.yul\":8968:8987   */\n      mstore\n        /* \"#utility.yul\":9020:9024   */\n      0x20\n        /* \"#utility.yul\":9015:9018   */\n      dup3\n        /* \"#utility.yul\":9011:9025   */\n      add\n        /* \"#utility.yul\":8996:9025   */\n      swap1\n      pop\n        /* \"#utility.yul\":8862:9031   */\n      swap3\n      swap2\n      pop\n      pop\n      jump\t// out\n        /* \"#utility.yul\":9037:9133   */\n    tag_119:\n        /* \"#utility.yul\":9074:9081   */\n      0x00\n        /* \"#utility.yul\":9103:9127   */\n      tag_185\n        /* \"#utility.yul\":9121:9126   */\n      dup3\n        /* \"#utility.yul\":9103:9127   */\n      tag_186\n      jump\t// in\n    tag_185:\n        /* \"#utility.yul\":9092:9127   */\n      swap1\n      pop\n        /* \"#utility.yul\":9037:9133   */\n      swap2\n      swap1\n      pop\n      jump\t// out\n        /* \"#utility.yul\":9139:9265   */\n    tag_186:\n        /* \"#utility.yul\":9176:9183   */\n      0x00\n        /* \"#utility.yul\":9216:9258   */\n      0xffffffffffffffffffffffffffffffffffffffff\n        /* \"#utility.yul\":9209:9214   */\n      dup3\n        /* \"#utility.yul\":9205:9259   */\n      and\n        /* \"#utility.yul\":9194:9259   */\n      swap1\n      pop\n        /* \"#utility.yul\":9139:9265   */\n      swap2\n      swap1\n      pop\n      jump\t// out\n        /* \"#utility.yul\":9271:9348   */\n    tag_153:\n        /* \"#utility.yul\":9308:9315   */\n      0x00\n        /* \"#utility.yul\":9337:9342   */\n      dup2\n        /* \"#utility.yul\":9326:9342   */\n      swap1\n      pop\n        /* \"#utility.yul\":9271:9348   */\n      swap2\n      swap1\n      pop\n      jump\t// out\n        /* \"#utility.yul\":9354:9508   */\n    tag_76:\n        /* \"#utility.yul\":9438:9444   */\n      dup3\n        /* \"#utility.yul\":9433:9436   */\n      dup2\n        /* \"#utility.yul\":9428:9431   */\n      dup4\n        /* \"#utility.yul\":9415:9445   */\n      calldatacopy\n        /* \"#utility.yul\":9500:9501   */\n      0x00\n        /* \"#utility.yul\":9491:9497   */\n      dup4\n        /* \"#utility.yul\":9486:9489   */\n      dup4\n        /* \"#utility.yul\":9482:9498   */\n      add\n        /* \"#utility.yul\":9475:9502   */\n      mstore\n        /* \"#utility.yul\":9354:9508   */\n      pop\n      pop\n      pop\n      jump\t// out\n        /* \"#utility.yul\":9514:9821   */\n    tag_127:\n        /* \"#utility.yul\":9582:9583   */\n      0x00\n        /* \"#utility.yul\":9592:9705   */\n    tag_191:\n        /* \"#utility.yul\":9606:9612   */\n      dup4\n        /* \"#utility.yul\":9603:9604   */\n      dup2\n        /* \"#utility.yul\":9600:9613   */\n      lt\n        /* \"#utility.yul\":9592:9705   */\n      iszero\n      tag_193\n      jumpi\n        /* \"#utility.yul\":9691:9692   */\n      dup1\n        /* \"#utility.yul\":9686:9689   */\n      dup3\n        /* \"#utility.yul\":9682:9693   */\n      add\n        /* \"#utility.yul\":9676:9694   */\n      mload\n        /* \"#utility.yul\":9672:9673   */\n      dup2\n        /* \"#utility.yul\":9667:9670   */\n      dup5\n        /* \"#utility.yul\":9663:9674   */\n      add\n        /* \"#utility.yul\":9656:9695   */\n      mstore\n        /* \"#utility.yul\":9628:9630   */\n      0x20\n        /* \"#utility.yul\":9625:9626   */\n      dup2\n        /* \"#utility.yul\":9621:9631   */\n      add\n        /* \"#utility.yul\":9616:9631   */\n      swap1\n      pop\n        /* \"#utility.yul\":9592:9705   */\n      jump(tag_191)\n    tag_193:\n        /* \"#utility.yul\":9723:9729   */\n      dup4\n        /* \"#utility.yul\":9720:9721   */\n      dup2\n        /* \"#utility.yul\":9717:9730   */\n      gt\n        /* \"#utility.yul\":9714:9815   */\n      iszero\n      tag_194\n      jumpi\n        /* \"#utility.yul\":9803:9804   */\n      0x00\n        /* \"#utility.yul\":9794:9800   */\n      dup5\n        /* \"#utility.yul\":9789:9792   */\n      dup5\n        /* \"#utility.yul\":9785:9801   */\n      add\n        /* \"#utility.yul\":9778:9805   */\n      mstore\n        /* \"#utility.yul\":9714:9815   */\n    tag_194:\n        /* \"#utility.yul\":9563:9821   */\n      pop\n        /* \"#utility.yul\":9514:9821   */\n      pop\n      pop\n      pop\n      jump\t// out\n        /* \"#utility.yul\":9827:10147   */\n    tag_32:\n        /* \"#utility.yul\":9871:9877   */\n      0x00\n        /* \"#utility.yul\":9908:9909   */\n      0x02\n        /* \"#utility.yul\":9902:9906   */\n      dup3\n        /* \"#utility.yul\":9898:9910   */\n      div\n        /* \"#utility.yul\":9888:9910   */\n      swap1\n      pop\n        /* \"#utility.yul\":9955:9956   */\n      0x01\n        /* \"#utility.yul\":9949:9953   */\n      dup3\n        /* \"#utility.yul\":9945:9957   */\n      and\n        /* \"#utility.yul\":9976:9994   */\n      dup1\n        /* \"#utility.yul\":9966:10047   */\n      tag_196\n      jumpi\n        /* \"#utility.yul\":10032:10036   */\n      0x7f\n        /* \"#utility.yul\":10024:10030   */\n      dup3\n        /* \"#utility.yul\":10020:10037   */\n      and\n        /* \"#utility.yul\":10010:10037   */\n      swap2\n      pop\n        /* \"#utility.yul\":9966:10047   */\n    tag_196:\n        /* \"#utility.yul\":10094:10096   */\n      0x20\n        /* \"#utility.yul\":10086:10092   */\n      dup3\n        /* \"#utility.yul\":10083:10097   */\n      lt\n        /* \"#utility.yul\":10063:10081   */\n      dup2\n        /* \"#utility.yul\":10060:10098   */\n      eq\n        /* \"#utility.yul\":10057:10141   */\n      iszero\n      tag_197\n      jumpi\n        /* \"#utility.yul\":10113:10131   */\n      tag_198\n      tag_199\n      jump\t// in\n    tag_198:\n        /* \"#utility.yul\":10057:10141   */\n    tag_197:\n        /* \"#utility.yul\":9878:10147   */\n      pop\n        /* \"#utility.yul\":9827:10147   */\n      swap2\n      swap1\n      pop\n      jump\t// out\n        /* \"#utility.yul\":10153:10434   */\n    tag_175:\n        /* \"#utility.yul\":10236:10263   */\n      tag_201\n        /* \"#utility.yul\":10258:10262   */\n      dup3\n        /* \"#utility.yul\":10236:10263   */\n      tag_129\n      jump\t// in\n    tag_201:\n        /* \"#utility.yul\":10228:10234   */\n      dup2\n        /* \"#utility.yul\":10224:10264   */\n      add\n        /* \"#utility.yul\":10366:10372   */\n      dup2\n        /* \"#utility.yul\":10354:10364   */\n      dup2\n        /* \"#utility.yul\":10351:10373   */\n      lt\n        /* \"#utility.yul\":10330:10348   */\n      0xffffffffffffffff\n        /* \"#utility.yul\":10318:10328   */\n      dup3\n        /* \"#utility.yul\":10315:10349   */\n      gt\n        /* \"#utility.yul\":10312:10374   */\n      or\n        /* \"#utility.yul\":10309:10397   */\n      iszero\n      tag_202\n      jumpi\n        /* \"#utility.yul\":10377:10395   */\n      tag_203\n      tag_180\n      jump\t// in\n    tag_203:\n        /* \"#utility.yul\":10309:10397   */\n    tag_202:\n        /* \"#utility.yul\":10417:10427   */\n      dup1\n        /* \"#utility.yul\":10413:10415   */\n      0x40\n        /* \"#utility.yul\":10406:10428   */\n      mstore\n        /* \"#utility.yul\":10196:10434   */\n      pop\n        /* \"#utility.yul\":10153:10434   */\n      pop\n      pop\n      jump\t// out\n        /* \"#utility.yul\":10440:10673   */\n    tag_54:\n        /* \"#utility.yul\":10479:10482   */\n      0x00\n        /* \"#utility.yul\":10502:10526   */\n      tag_205\n        /* \"#utility.yul\":10520:10525   */\n      dup3\n        /* \"#utility.yul\":10502:10526   */\n      tag_153\n      jump\t// in\n    tag_205:\n        /* \"#utility.yul\":10493:10526   */\n      swap2\n      pop\n        /* \"#utility.yul\":10548:10614   */\n      0xffffffffffffffffffffffffffffffffffffffffffffffffffffffffffffffff\n        /* \"#utility.yul\":10541:10546   */\n      dup3\n        /* \"#utility.yul\":10538:10615   */\n      eq\n        /* \"#utility.yul\":10535:10638   */\n      iszero\n      tag_206\n      jumpi\n        /* \"#utility.yul\":10618:10636   */\n      tag_207\n      tag_208\n      jump\t// in\n    tag_207:\n        /* \"#utility.yul\":10535:10638   */\n    tag_206:\n        /* \"#utility.yul\":10665:10666   */\n      0x01\n        /* \"#utility.yul\":10658:10663   */\n      dup3\n        /* \"#utility.yul\":10654:10667   */\n      add\n        /* \"#utility.yul\":10647:10667   */\n      swap1\n      pop\n        /* \"#utility.yul\":10440:10673   */\n      swap2\n      swap1\n      pop\n      jump\t// out\n        /* \"#utility.yul\":10679:10859   */\n    tag_208:\n        /* \"#utility.yul\":10727:10804   */\n      0x4e487b7100000000000000000000000000000000000000000000000000000000\n        /* \"#utility.yul\":10724:10725   */\n      0x00\n        /* \"#utility.yul\":10717:10805   */\n      mstore\n        /* \"#utility.yul\":10824:10828   */\n      0x11\n        /* \"#utility.yul\":10821:10822   */\n      0x04\n        /* \"#utility.yul\":10814:10829   */\n      mstore\n        /* \"#utility.yul\":10848:10852   */\n      0x24\n        /* \"#utility.yul\":10845:10846   */\n      0x00\n        /* \"#utility.yul\":10838:10853   */\n      revert\n        /* \"#utility.yul\":10865:11045   */\n    tag_199:\n        /* \"#utility.yul\":10913:10990   */\n      0x4e487b7100000000000000000000000000000000000000000000000000000000\n        /* \"#utility.yul\":10910:10911   */\n      0x00\n        /* \"#utility.yul\":10903:10991   */\n      mstore\n        /* \"#utility.yul\":11010:11014   */\n      0x22\n        /* \"#utility.yul\":11007:11008   */\n      0x04\n        /* \"#utility.yul\":11000:11015   */\n      mstore\n        /* \"#utility.yul\":11034:11038   */\n      0x24\n        /* \"#utility.yul\":11031:11032   */\n      0x00\n        /* \"#utility.yul\":11024:11039   */\n      revert\n        /* \"#utility.yul\":11051:11231   */\n    tag_180:\n        /* \"#utility.yul\":11099:11176   */\n      0x4e487b7100000000000000000000000000000000000000000000000000000000\n        /* \"#utility.yul\":11096:11097   */\n      0x00\n        /* \"#utility.yul\":11089:11177   */\n      mstore\n        /* \"#utility.yul\":11196:11200   */\n      0x41\n        /* \"#utility.yul\":11193:11194   */\n      0x04\n        /* \"#utility.yul\":11186:11201   */\n      mstore\n        /* \"#utility.yul\":11220:11224   */\n      0x24\n        /* \"#utility.yul\":11217:11218   */\n      0x00\n        /* \"#utility.yul\":11210:11225   */\n      revert\n        /* \"#utility.yul\":11237:11354   */\n    tag_85:\n        /* \"#utility.yul\":11346:11347   */\n      0x00\n        /* \"#utility.yul\":11343:11344   */\n      dup1\n        /* \"#utility.yul\":11336:11348   */\n      revert\n        /* \"#utility.yul\":11360:11477   */\n    tag_74:\n        /* \"#utility.yul\":11469:11470   */\n      0x00\n        /* \"#utility.yul\":11466:11467   */\n      dup1\n        /* \"#utility.yul\":11459:11471   */\n      revert\n        /* \"#utility.yul\":11483:11600   */\n    tag_107:\n        /* \"#utility.yul\":11592:11593   */\n      0x00\n        /* \"#utility.yul\":11589:11590   */\n      dup1\n        /* \"#utility.yul\":11582:11594   */\n      revert\n        /* \"#utility.yul\":11606:11723   */\n    tag_94:\n        /* \"#utility.yul\":11715:11716   */\n      0x00\n        /* \"#utility.yul\":11712:11713   */\n      dup1\n        /* \"#utility.yul\":11705:11717   */\n      revert\n        /* \"#utility.yul\":11729:11831   */\n    tag_129:\n        /* \"#utility.yul\":11770:11776   */\n      0x00\n        /* \"#utility.yul\":11821:11823   */\n      0x1f\n        /* \"#utility.yul\":11817:11824   */\n      not\n        /* \"#utility.yul\":11812:11814   */\n      0x1f\n        /* \"#utility.yul\":11805:11810   */\n      dup4\n        /* \"#utility.yul\":11801:11815   */\n      add\n        /* \"#utility.yul\":11797:11825   */\n      and\n        /* \"#utility.yul\":11787:11825   */\n      swap1\n      pop\n        /* \"#utility.yul\":11729:11831   */\n      swap2\n      swap1\n      pop\n      jump\t// out\n        /* \"#utility.yul\":11837:12019   */\n    tag_134:\n        /* \"#utility.yul\":11977:12011   */\n      0x4576656e74206d75737420686176652061746c656173742031207469636b6574\n        /* \"#utility.yul\":11973:11974   */\n      0x00\n        /* \"#utility.yul\":11965:11971   */\n      dup3\n        /* \"#utility.yul\":11961:11975   */\n      add\n        /* \"#utility.yul\":11954:12012   */\n      mstore\n        /* \"#utility.yul\":11837:12019   */\n      pop\n      jump\t// out\n        /* \"#utility.yul\":12025:12197   */\n    tag_139:\n        /* \"#utility.yul\":12165:12189   */\n      0x4576656e7420626f6f6b696e6720697320636c6f736500000000000000000000\n        /* \"#utility.yul\":12161:12162   */\n      0x00\n        /* \"#utility.yul\":12153:12159   */\n      dup3\n        /* \"#utility.yul\":12149:12163   */\n      add\n        /* \"#utility.yul\":12142:12190   */\n      mstore\n        /* \"#utility.yul\":12025:12197   */\n      pop\n      jump\t// out\n        /* \"#utility.yul\":12203:12423   */\n    tag_144:\n        /* \"#utility.yul\":12343:12377   */\n      0x596f752063616e206f7267616e697a65206576656e7420666f72206675747572\n        /* \"#utility.yul\":12339:12340   */\n      0x00\n        /* \"#utility.yul\":12331:12337   */\n      dup3\n        /* \"#utility.yul\":12327:12341   */\n      add\n        /* \"#utility.yul\":12320:12378   */\n      mstore\n        /* \"#utility.yul\":12412:12415   */\n      0x6500000000000000000000000000000000000000000000000000000000000000\n        /* \"#utility.yul\":12407:12409   */\n      0x20\n        /* \"#utility.yul\":12399:12405   */\n      dup3\n        /* \"#utility.yul\":12395:12410   */\n      add\n        /* \"#utility.yul\":12388:12416   */\n      mstore\n        /* \"#utility.yul\":12203:12423   */\n      pop\n      jump\t// out\n        /* \"#utility.yul\":12429:12599   */\n    tag_149:\n        /* \"#utility.yul\":12569:12591   */\n      0x4576656e7420646f6573206e6f74206578697374000000000000000000000000\n        /* \"#utility.yul\":12565:12566   */\n      0x00\n        /* \"#utility.yul\":12557:12563   */\n      dup3\n        /* \"#utility.yul\":12553:12567   */\n      add\n        /* \"#utility.yul\":12546:12592   */\n      mstore\n        /* \"#utility.yul\":12429:12599   */\n      pop\n      jump\t// out\n        /* \"#utility.yul\":12605:12727   */\n    tag_80:\n        /* \"#utility.yul\":12678:12702   */\n      tag_222\n        /* \"#utility.yul\":12696:12701   */\n      dup2\n        /* \"#utility.yul\":12678:12702   */\n      tag_119\n      jump\t// in\n    tag_222:\n        /* \"#utility.yul\":12671:12676   */\n      dup2\n        /* \"#utility.yul\":12668:12703   */\n      eq\n        /* \"#utility.yul\":12658:12721   */\n      tag_223\n      jumpi\n        /* \"#utility.yul\":12717:12718   */\n      0x00\n        /* \"#utility.yul\":12714:12715   */\n      dup1\n        /* \"#utility.yul\":12707:12719   */\n      revert\n        /* \"#utility.yul\":12658:12721   */\n    tag_223:\n        /* \"#utility.yul\":12605:12727   */\n      pop\n      jump\t// out\n        /* \"#utility.yul\":12733:12855   */\n    tag_90:\n        /* \"#utility.yul\":12806:12830   */\n      tag_225\n        /* \"#utility.yul\":12824:12829   */\n      dup2\n        /* \"#utility.yul\":12806:12830   */\n      tag_153\n      jump\t// in\n    tag_225:\n        /* \"#utility.yul\":12799:12804   */\n      dup2\n        /* \"#utility.yul\":12796:12831   */\n      eq\n        /* \"#utility.yul\":12786:12849   */\n      tag_226\n      jumpi\n        /* \"#utility.yul\":12845:12846   */\n      0x00\n        /* \"#utility.yul\":12842:12843   */\n      dup1\n        /* \"#utility.yul\":12835:12847   */\n      revert\n        /* \"#utility.yul\":12786:12849   */\n    tag_226:\n        /* \"#utility.yul\":12733:12855   */\n      pop\n      jump\t// out\n\n    auxdata: 0xa26469706673582212207a775221dc538a3434326f14919561c600cb351ac162c0c691ba9ec236fe1cb964736f6c63430008070033\n}\n",
				"bytecode": {
					"linkReferences": {},
					"object": "608060405234801561001057600080fd5b50610c38806100206000396000f3fe608060405234801561001057600080fd5b50600436106100575760003560e01c80630b7914301461005c578063298ec20814610091578063b3cea217146100ad578063dae7a13c146100cb578063f93694fb146100fb575b600080fd5b610076600480360381019061007191906105e6565b610117565b604051610088969594939291906107b9565b60405180910390f35b6100ab60048036038101906100a69190610696565b6101fb565b005b6100b56102b5565b6040516100c291906108a1565b60405180910390f35b6100e560048036038101906100e091906105a6565b6102bb565b6040516100f291906108a1565b60405180910390f35b61011560048036038101906101109190610613565b6102e0565b005b60006020528060005260406000206000915090508060000160009054906101000a900473ffffffffffffffffffffffffffffffffffffffff1690806001015490806002018054610166906109ac565b80601f0160208091040260200160405190810160405280929190818152602001828054610192906109ac565b80156101df5780601f106101b4576101008083540402835291602001916101df565b820191906000526020600020905b8154815290600101906020018083116101c257829003601f168201915b5050505050908060030154908060040154908060050154905086565b60008060008381526020019081526020016000209050600081600101541415610259576040517f08c379a000000000000000000000000000000000000000000000000000000000815260040161025090610881565b60405180910390fd5b4260008084815260200190815260200160002060010154116102b0576040517f08c379a00000000000000000000000000000000000000000000000000000000081526004016102a790610841565b60405180910390fd5b505050565b60025481565b6001602052816000526040600020602052806000526040600020600091509150505481565b428411610322576040517f08c379a000000000000000000000000000000000000000000000000000000000815260040161031990610861565b60405180910390fd5b60008111610365576040517f08c379a000000000000000000000000000000000000000000000000000000000815260040161035c90610821565b60405180910390fd5b6040518060c001604052803373ffffffffffffffffffffffffffffffffffffffff16815260200185815260200184815260200183815260200182815260200182815250600080600254815260200190815260200160002060008201518160000160006101000a81548173ffffffffffffffffffffffffffffffffffffffff021916908373ffffffffffffffffffffffffffffffffffffffff160217905550602082015181600101556040820151816002019080519060200190610429929190610469565b50606082015181600301556080820151816004015560a082015181600501559050506002600081548092919061045e90610a0f565b919050555050505050565b828054610475906109ac565b90600052602060002090601f01602090048101928261049757600085556104de565b82601f106104b057805160ff19168380011785556104de565b828001600101855582156104de579182015b828111156104dd5782518255916020019190600101906104c2565b5b5090506104eb91906104ef565b5090565b5b808211156105085760008160009055506001016104f0565b5090565b600061051f61051a846108e1565b6108bc565b90508281526020810184848401111561053b5761053a610aea565b5b61054684828561096a565b509392505050565b60008135905061055d81610bd4565b92915050565b600082601f83011261057857610577610ae5565b5b813561058884826020860161050c565b91505092915050565b6000813590506105a081610beb565b92915050565b600080604083850312156105bd576105bc610af4565b5b60006105cb8582860161054e565b92505060206105dc85828601610591565b9150509250929050565b6000602082840312156105fc576105fb610af4565b5b600061060a84828501610591565b91505092915050565b6000806000806080858703121561062d5761062c610af4565b5b600061063b87828801610591565b945050602085013567ffffffffffffffff81111561065c5761065b610aef565b5b61066887828801610563565b935050604061067987828801610591565b925050606061068a87828801610591565b91505092959194509250565b600080604083850312156106ad576106ac610af4565b5b60006106bb85828601610591565b92505060206106cc85828601610591565b9150509250929050565b6106df8161092e565b82525050565b60006106f082610912565b6106fa818561091d565b935061070a818560208601610979565b61071381610af9565b840191505092915050565b600061072b60208361091d565b915061073682610b0a565b602082019050919050565b600061074e60168361091d565b915061075982610b33565b602082019050919050565b600061077160218361091d565b915061077c82610b5c565b604082019050919050565b600061079460148361091d565b915061079f82610bab565b602082019050919050565b6107b381610960565b82525050565b600060c0820190506107ce60008301896106d6565b6107db60208301886107aa565b81810360408301526107ed81876106e5565b90506107fc60608301866107aa565b61080960808301856107aa565b61081660a08301846107aa565b979650505050505050565b6000602082019050818103600083015261083a8161071e565b9050919050565b6000602082019050818103600083015261085a81610741565b9050919050565b6000602082019050818103600083015261087a81610764565b9050919050565b6000602082019050818103600083015261089a81610787565b9050919050565b60006020820190506108b660008301846107aa565b92915050565b60006108c66108d7565b90506108d282826109de565b919050565b6000604051905090565b600067ffffffffffffffff8211156108fc576108fb610ab6565b5b61090582610af9565b9050602081019050919050565b600081519050919050565b600082825260208201905092915050565b600061093982610940565b9050919050565b600073ffffffffffffffffffffffffffffffffffffffff82169050919050565b6000819050919050565b82818337600083830152505050565b60005b8381101561099757808201518184015260208101905061097c565b838111156109a6576000848401525b50505050565b600060028204905060018216806109c457607f821691505b602082108114156109d8576109d7610a87565b5b50919050565b6109e782610af9565b810181811067ffffffffffffffff82111715610a0657610a05610ab6565b5b80604052505050565b6000610a1a82610960565b91507fffffffffffffffffffffffffffffffffffffffffffffffffffffffffffffffff821415610a4d57610a4c610a58565b5b600182019050919050565b7f4e487b7100000000000000000000000000000000000000000000000000000000600052601160045260246000fd5b7f4e487b7100000000000000000000000000000000000000000000000000000000600052602260045260246000fd5b7f4e487b7100000000000000000000000000000000000000000000000000000000600052604160045260246000fd5b600080fd5b600080fd5b600080fd5b600080fd5b6000601f19601f8301169050919050565b7f4576656e74206d75737420686176652061746c656173742031207469636b6574600082015250565b7f4576656e7420626f6f6b696e6720697320636c6f736500000000000000000000600082015250565b7f596f752063616e206f7267616e697a65206576656e7420666f7220667574757260008201527f6500000000000000000000000000000000000000000000000000000000000000602082015250565b7f4576656e7420646f6573206e6f74206578697374000000000000000000000000600082015250565b610bdd8161092e565b8114610be857600080fd5b50565b610bf481610960565b8114610bff57600080fd5b5056fea26469706673582212207a775221dc538a3434326f14919561c600cb351ac162c0c691ba9ec236fe1cb964736f6c63430008070033",
					"opcodes": "PUSH1 0x80 PUSH1 0x40 MSTORE CALLVALUE DUP1 ISZERO PUSH2 0x10 JUMPI PUSH1 0x0 DUP1 REVERT JUMPDEST POP PUSH2 0xC38 DUP1 PUSH2 0x20 PUSH1 0x0 CODECOPY PUSH1 0x0 RETURN INVALID PUSH1 0x80 PUSH1 0x40 MSTORE CALLVALUE DUP1 ISZERO PUSH2 0x10 JUMPI PUSH1 0x0 DUP1 REVERT JUMPDEST POP PUSH1 0x4 CALLDATASIZE LT PUSH2 0x57 JUMPI PUSH1 0x0 CALLDATALOAD PUSH1 0xE0 SHR DUP1 PUSH4 0xB791430 EQ PUSH2 0x5C JUMPI DUP1 PUSH4 0x298EC208 EQ PUSH2 0x91 JUMPI DUP1 PUSH4 0xB3CEA217 EQ PUSH2 0xAD JUMPI DUP1 PUSH4 0xDAE7A13C EQ PUSH2 0xCB JUMPI DUP1 PUSH4 0xF93694FB EQ PUSH2 0xFB JUMPI JUMPDEST PUSH1 0x0 DUP1 REVERT JUMPDEST PUSH2 0x76 PUSH1 0x4 DUP1 CALLDATASIZE SUB DUP2 ADD SWAP1 PUSH2 0x71 SWAP2 SWAP1 PUSH2 0x5E6 JUMP JUMPDEST PUSH2 0x117 JUMP JUMPDEST PUSH1 0x40 MLOAD PUSH2 0x88 SWAP7 SWAP6 SWAP5 SWAP4 SWAP3 SWAP2 SWAP1 PUSH2 0x7B9 JUMP JUMPDEST PUSH1 0x40 MLOAD DUP1 SWAP2 SUB SWAP1 RETURN JUMPDEST PUSH2 0xAB PUSH1 0x4 DUP1 CALLDATASIZE SUB DUP2 ADD SWAP1 PUSH2 0xA6 SWAP2 SWAP1 PUSH2 0x696 JUMP JUMPDEST PUSH2 0x1FB JUMP JUMPDEST STOP JUMPDEST PUSH2 0xB5 PUSH2 0x2B5 JUMP JUMPDEST PUSH1 0x40 MLOAD PUSH2 0xC2 SWAP2 SWAP1 PUSH2 0x8A1 JUMP JUMPDEST PUSH1 0x40 MLOAD DUP1 SWAP2 SUB SWAP1 RETURN JUMPDEST PUSH2 0xE5 PUSH1 0x4 DUP1 CALLDATASIZE SUB DUP2 ADD SWAP1 PUSH2 0xE0 SWAP2 SWAP1 PUSH2 0x5A6 JUMP JUMPDEST PUSH2 0x2BB JUMP JUMPDEST PUSH1 0x40 MLOAD PUSH2 0xF2 SWAP2 SWAP1 PUSH2 0x8A1 JUMP JUMPDEST PUSH1 0x40 MLOAD DUP1 SWAP2 SUB SWAP1 RETURN JUMPDEST PUSH2 0x115 PUSH1 0x4 DUP1 CALLDATASIZE SUB DUP2 ADD SWAP1 PUSH2 0x110 SWAP2 SWAP1 PUSH2 0x613 JUMP JUMPDEST PUSH2 0x2E0 JUMP JUMPDEST STOP JUMPDEST PUSH1 0x0 PUSH1 0x20 MSTORE DUP1 PUSH1 0x0 MSTORE PUSH1 0x40 PUSH1 0x0 KECCAK256 PUSH1 0x0 SWAP2 POP SWAP1 POP DUP1 PUSH1 0x0 ADD PUSH1 0x0 SWAP1 SLOAD SWAP1 PUSH2 0x100 EXP SWAP1 DIV PUSH20 0xFFFFFFFFFFFFFFFFFFFFFFFFFFFFFFFFFFFFFFFF AND SWAP1 DUP1 PUSH1 0x1 ADD SLOAD SWAP1 DUP1 PUSH1 0x2 ADD DUP1 SLOAD PUSH2 0x166 SWAP1 PUSH2 0x9AC JUMP JUMPDEST DUP1 PUSH1 0x1F ADD PUSH1 0x20 DUP1 SWAP2 DIV MUL PUSH1 0x20 ADD PUSH1 0x40 MLOAD SWAP1 DUP2 ADD PUSH1 0x40 MSTORE DUP1 SWAP3 SWAP2 SWAP1 DUP2 DUP2 MSTORE PUSH1 0x20 ADD DUP3 DUP1 SLOAD PUSH2 0x192 SWAP1 PUSH2 0x9AC JUMP JUMPDEST DUP1 ISZERO PUSH2 0x1DF JUMPI DUP1 PUSH1 0x1F LT PUSH2 0x1B4 JUMPI PUSH2 0x100 DUP1 DUP4 SLOAD DIV MUL DUP4 MSTORE SWAP2 PUSH1 0x20 ADD SWAP2 PUSH2 0x1DF JUMP JUMPDEST DUP3 ADD SWAP2 SWAP1 PUSH1 0x0 MSTORE PUSH1 0x20 PUSH1 0x0 KECCAK256 SWAP1 JUMPDEST DUP2 SLOAD DUP2 MSTORE SWAP1 PUSH1 0x1 ADD SWAP1 PUSH1 0x20 ADD DUP1 DUP4 GT PUSH2 0x1C2 JUMPI DUP3 SWAP1 SUB PUSH1 0x1F AND DUP3 ADD SWAP2 JUMPDEST POP POP POP POP POP SWAP1 DUP1 PUSH1 0x3 ADD SLOAD SWAP1 DUP1 PUSH1 0x4 ADD SLOAD SWAP1 DUP1 PUSH1 0x5 ADD SLOAD SWAP1 POP DUP7 JUMP JUMPDEST PUSH1 0x0 DUP1 PUSH1 0x0 DUP4 DUP2 MSTORE PUSH1 0x20 ADD SWAP1 DUP2 MSTORE PUSH1 0x20 ADD PUSH1 0x0 KECCAK256 SWAP1 POP PUSH1 0x0 DUP2 PUSH1 0x1 ADD SLOAD EQ ISZERO PUSH2 0x259 JUMPI PUSH1 0x40 MLOAD PUSH32 0x8C379A000000000000000000000000000000000000000000000000000000000 DUP2 MSTORE PUSH1 0x4 ADD PUSH2 0x250 SWAP1 PUSH2 0x881 JUMP JUMPDEST PUSH1 0x40 MLOAD DUP1 SWAP2 SUB SWAP1 REVERT JUMPDEST TIMESTAMP PUSH1 0x0 DUP1 DUP5 DUP2 MSTORE PUSH1 0x20 ADD SWAP1 DUP2 MSTORE PUSH1 0x20 ADD PUSH1 0x0 KECCAK256 PUSH1 0x1 ADD SLOAD GT PUSH2 0x2B0 JUMPI PUSH1 0x40 MLOAD PUSH32 0x8C379A000000000000000000000000000000000000000000000000000000000 DUP2 MSTORE PUSH1 0x4 ADD PUSH2 0x2A7 SWAP1 PUSH2 0x841 JUMP JUMPDEST PUSH1 0x40 MLOAD DUP1 SWAP2 SUB SWAP1 REVERT JUMPDEST POP POP POP JUMP JUMPDEST PUSH1 0x2 SLOAD DUP2 JUMP JUMPDEST PUSH1 0x1 PUSH1 0x20 MSTORE DUP2 PUSH1 0x0 MSTORE PUSH1 0x40 PUSH1 0x0 KECCAK256 PUSH1 0x20 MSTORE DUP1 PUSH1 0x0 MSTORE PUSH1 0x40 PUSH1 0x0 KECCAK256 PUSH1 0x0 SWAP2 POP SWAP2 POP POP SLOAD DUP2 JUMP JUMPDEST TIMESTAMP DUP5 GT PUSH2 0x322 JUMPI PUSH1 0x40 MLOAD PUSH32 0x8C379A000000000000000000000000000000000000000000000000000000000 DUP2 MSTORE PUSH1 0x4 ADD PUSH2 0x319 SWAP1 PUSH2 0x861 JUMP JUMPDEST PUSH1 0x40 MLOAD DUP1 SWAP2 SUB SWAP1 REVERT JUMPDEST PUSH1 0x0 DUP2 GT PUSH2 0x365 JUMPI PUSH1 0x40 MLOAD PUSH32 0x8C379A000000000000000000000000000000000000000000000000000000000 DUP2 MSTORE PUSH1 0x4 ADD PUSH2 0x35C SWAP1 PUSH2 0x821 JUMP JUMPDEST PUSH1 0x40 MLOAD DUP1 SWAP2 SUB SWAP1 REVERT JUMPDEST PUSH1 0x40 MLOAD DUP1 PUSH1 0xC0 ADD PUSH1 0x40 MSTORE DUP1 CALLER PUSH20 0xFFFFFFFFFFFFFFFFFFFFFFFFFFFFFFFFFFFFFFFF AND DUP2 MSTORE PUSH1 0x20 ADD DUP6 DUP2 MSTORE PUSH1 0x20 ADD DUP5 DUP2 MSTORE PUSH1 0x20 ADD DUP4 DUP2 MSTORE PUSH1 0x20 ADD DUP3 DUP2 MSTORE PUSH1 0x20 ADD DUP3 DUP2 MSTORE POP PUSH1 0x0 DUP1 PUSH1 0x2 SLOAD DUP2 MSTORE PUSH1 0x20 ADD SWAP1 DUP2 MSTORE PUSH1 0x20 ADD PUSH1 0x0 KECCAK256 PUSH1 0x0 DUP3 ADD MLOAD DUP2 PUSH1 0x0 ADD PUSH1 0x0 PUSH2 0x100 EXP DUP2 SLOAD DUP2 PUSH20 0xFFFFFFFFFFFFFFFFFFFFFFFFFFFFFFFFFFFFFFFF MUL NOT AND SWAP1 DUP4 PUSH20 0xFFFFFFFFFFFFFFFFFFFFFFFFFFFFFFFFFFFFFFFF AND MUL OR SWAP1 SSTORE POP PUSH1 0x20 DUP3 ADD MLOAD DUP2 PUSH1 0x1 ADD SSTORE PUSH1 0x40 DUP3 ADD MLOAD DUP2 PUSH1 0x2 ADD SWAP1 DUP1 MLOAD SWAP1 PUSH1 0x20 ADD SWAP1 PUSH2 0x429 SWAP3 SWAP2 SWAP1 PUSH2 0x469 JUMP JUMPDEST POP PUSH1 0x60 DUP3 ADD MLOAD DUP2 PUSH1 0x3 ADD SSTORE PUSH1 0x80 DUP3 ADD MLOAD DUP2 PUSH1 0x4 ADD SSTORE PUSH1 0xA0 DUP3 ADD MLOAD DUP2 PUSH1 0x5 ADD SSTORE SWAP1 POP POP PUSH1 0x2 PUSH1 0x0 DUP2 SLOAD DUP1 SWAP3 SWAP2 SWAP1 PUSH2 0x45E SWAP1 PUSH2 0xA0F JUMP JUMPDEST SWAP2 SWAP1 POP SSTORE POP POP POP POP POP JUMP JUMPDEST DUP3 DUP1 SLOAD PUSH2 0x475 SWAP1 PUSH2 0x9AC JUMP JUMPDEST SWAP1 PUSH1 0x0 MSTORE PUSH1 0x20 PUSH1 0x0 KECCAK256 SWAP1 PUSH1 0x1F ADD PUSH1 0x20 SWAP1 DIV DUP2 ADD SWAP3 DUP3 PUSH2 0x497 JUMPI PUSH1 0x0 DUP6 SSTORE PUSH2 0x4DE JUMP JUMPDEST DUP3 PUSH1 0x1F LT PUSH2 0x4B0 JUMPI DUP1 MLOAD PUSH1 0xFF NOT AND DUP4 DUP1 ADD OR DUP6 SSTORE PUSH2 0x4DE JUMP JUMPDEST DUP3 DUP1 ADD PUSH1 0x1 ADD DUP6 SSTORE DUP3 ISZERO PUSH2 0x4DE JUMPI SWAP2 DUP3 ADD JUMPDEST DUP3 DUP2 GT ISZERO PUSH2 0x4DD JUMPI DUP3 MLOAD DUP3 SSTORE SWAP2 PUSH1 0x20 ADD SWAP2 SWAP1 PUSH1 0x1 ADD SWAP1 PUSH2 0x4C2 JUMP JUMPDEST JUMPDEST POP SWAP1 POP PUSH2 0x4EB SWAP2 SWAP1 PUSH2 0x4EF JUMP JUMPDEST POP SWAP1 JUMP JUMPDEST JUMPDEST DUP1 DUP3 GT ISZERO PUSH2 0x508 JUMPI PUSH1 0x0 DUP2 PUSH1 0x0 SWAP1 SSTORE POP PUSH1 0x1 ADD PUSH2 0x4F0 JUMP JUMPDEST POP SWAP1 JUMP JUMPDEST PUSH1 0x0 PUSH2 0x51F PUSH2 0x51A DUP5 PUSH2 0x8E1 JUMP JUMPDEST PUSH2 0x8BC JUMP JUMPDEST SWAP1 POP DUP3 DUP2 MSTORE PUSH1 0x20 DUP2 ADD DUP5 DUP5 DUP5 ADD GT ISZERO PUSH2 0x53B JUMPI PUSH2 0x53A PUSH2 0xAEA JUMP JUMPDEST JUMPDEST PUSH2 0x546 DUP5 DUP3 DUP6 PUSH2 0x96A JUMP JUMPDEST POP SWAP4 SWAP3 POP POP POP JUMP JUMPDEST PUSH1 0x0 DUP2 CALLDATALOAD SWAP1 POP PUSH2 0x55D DUP2 PUSH2 0xBD4 JUMP JUMPDEST SWAP3 SWAP2 POP POP JUMP JUMPDEST PUSH1 0x0 DUP3 PUSH1 0x1F DUP4 ADD SLT PUSH2 0x578 JUMPI PUSH2 0x577 PUSH2 0xAE5 JUMP JUMPDEST JUMPDEST DUP2 CALLDATALOAD PUSH2 0x588 DUP5 DUP3 PUSH1 0x20 DUP7 ADD PUSH2 0x50C JUMP JUMPDEST SWAP2 POP POP SWAP3 SWAP2 POP POP JUMP JUMPDEST PUSH1 0x0 DUP2 CALLDATALOAD SWAP1 POP PUSH2 0x5A0 DUP2 PUSH2 0xBEB JUMP JUMPDEST SWAP3 SWAP2 POP POP JUMP JUMPDEST PUSH1 0x0 DUP1 PUSH1 0x40 DUP4 DUP6 SUB SLT ISZERO PUSH2 0x5BD JUMPI PUSH2 0x5BC PUSH2 0xAF4 JUMP JUMPDEST JUMPDEST PUSH1 0x0 PUSH2 0x5CB DUP6 DUP3 DUP7 ADD PUSH2 0x54E JUMP JUMPDEST SWAP3 POP POP PUSH1 0x20 PUSH2 0x5DC DUP6 DUP3 DUP7 ADD PUSH2 0x591 JUMP JUMPDEST SWAP2 POP POP SWAP3 POP SWAP3 SWAP1 POP JUMP JUMPDEST PUSH1 0x0 PUSH1 0x20 DUP3 DUP5 SUB SLT ISZERO PUSH2 0x5FC JUMPI PUSH2 0x5FB PUSH2 0xAF4 JUMP JUMPDEST JUMPDEST PUSH1 0x0 PUSH2 0x60A DUP5 DUP3 DUP6 ADD PUSH2 0x591 JUMP JUMPDEST SWAP2 POP POP SWAP3 SWAP2 POP POP JUMP JUMPDEST PUSH1 0x0 DUP1 PUSH1 0x0 DUP1 PUSH1 0x80 DUP6 DUP8 SUB SLT ISZERO PUSH2 0x62D JUMPI PUSH2 0x62C PUSH2 0xAF4 JUMP JUMPDEST JUMPDEST PUSH1 0x0 PUSH2 0x63B DUP8 DUP3 DUP9 ADD PUSH2 0x591 JUMP JUMPDEST SWAP5 POP POP PUSH1 0x20 DUP6 ADD CALLDATALOAD PUSH8 0xFFFFFFFFFFFFFFFF DUP2 GT ISZERO PUSH2 0x65C JUMPI PUSH2 0x65B PUSH2 0xAEF JUMP JUMPDEST JUMPDEST PUSH2 0x668 DUP8 DUP3 DUP9 ADD PUSH2 0x563 JUMP JUMPDEST SWAP4 POP POP PUSH1 0x40 PUSH2 0x679 DUP8 DUP3 DUP9 ADD PUSH2 0x591 JUMP JUMPDEST SWAP3 POP POP PUSH1 0x60 PUSH2 0x68A DUP8 DUP3 DUP9 ADD PUSH2 0x591 JUMP JUMPDEST SWAP2 POP POP SWAP3 SWAP6 SWAP2 SWAP5 POP SWAP3 POP JUMP JUMPDEST PUSH1 0x0 DUP1 PUSH1 0x40 DUP4 DUP6 SUB SLT ISZERO PUSH2 0x6AD JUMPI PUSH2 0x6AC PUSH2 0xAF4 JUMP JUMPDEST JUMPDEST PUSH1 0x0 PUSH2 0x6BB DUP6 DUP3 DUP7 ADD PUSH2 0x591 JUMP JUMPDEST SWAP3 POP POP PUSH1 0x20 PUSH2 0x6CC DUP6 DUP3 DUP7 ADD PUSH2 0x591 JUMP JUMPDEST SWAP2 POP POP SWAP3 POP SWAP3 SWAP1 POP JUMP JUMPDEST PUSH2 0x6DF DUP2 PUSH2 0x92E JUMP JUMPDEST DUP3 MSTORE POP POP JUMP JUMPDEST PUSH1 0x0 PUSH2 0x6F0 DUP3 PUSH2 0x912 JUMP JUMPDEST PUSH2 0x6FA DUP2 DUP6 PUSH2 0x91D JUMP JUMPDEST SWAP4 POP PUSH2 0x70A DUP2 DUP6 PUSH1 0x20 DUP7 ADD PUSH2 0x979 JUMP JUMPDEST PUSH2 0x713 DUP2 PUSH2 0xAF9 JUMP JUMPDEST DUP5 ADD SWAP2 POP POP SWAP3 SWAP2 POP POP JUMP JUMPDEST PUSH1 0x0 PUSH2 0x72B PUSH1 0x20 DUP4 PUSH2 0x91D JUMP JUMPDEST SWAP2 POP PUSH2 0x736 DUP3 PUSH2 0xB0A JUMP JUMPDEST PUSH1 0x20 DUP3 ADD SWAP1 POP SWAP2 SWAP1 POP JUMP JUMPDEST PUSH1 0x0 PUSH2 0x74E PUSH1 0x16 DUP4 PUSH2 0x91D JUMP JUMPDEST SWAP2 POP PUSH2 0x759 DUP3 PUSH2 0xB33 JUMP JUMPDEST PUSH1 0x20 DUP3 ADD SWAP1 POP SWAP2 SWAP1 POP JUMP JUMPDEST PUSH1 0x0 PUSH2 0x771 PUSH1 0x21 DUP4 PUSH2 0x91D JUMP JUMPDEST SWAP2 POP PUSH2 0x77C DUP3 PUSH2 0xB5C JUMP JUMPDEST PUSH1 0x40 DUP3 ADD SWAP1 POP SWAP2 SWAP1 POP JUMP JUMPDEST PUSH1 0x0 PUSH2 0x794 PUSH1 0x14 DUP4 PUSH2 0x91D JUMP JUMPDEST SWAP2 POP PUSH2 0x79F DUP3 PUSH2 0xBAB JUMP JUMPDEST PUSH1 0x20 DUP3 ADD SWAP1 POP SWAP2 SWAP1 POP JUMP JUMPDEST PUSH2 0x7B3 DUP2 PUSH2 0x960 JUMP JUMPDEST DUP3 MSTORE POP POP JUMP JUMPDEST PUSH1 0x0 PUSH1 0xC0 DUP3 ADD SWAP1 POP PUSH2 0x7CE PUSH1 0x0 DUP4 ADD DUP10 PUSH2 0x6D6 JUMP JUMPDEST PUSH2 0x7DB PUSH1 0x20 DUP4 ADD DUP9 PUSH2 0x7AA JUMP JUMPDEST DUP2 DUP2 SUB PUSH1 0x40 DUP4 ADD MSTORE PUSH2 0x7ED DUP2 DUP8 PUSH2 0x6E5 JUMP JUMPDEST SWAP1 POP PUSH2 0x7FC PUSH1 0x60 DUP4 ADD DUP7 PUSH2 0x7AA JUMP JUMPDEST PUSH2 0x809 PUSH1 0x80 DUP4 ADD DUP6 PUSH2 0x7AA JUMP JUMPDEST PUSH2 0x816 PUSH1 0xA0 DUP4 ADD DUP5 PUSH2 0x7AA JUMP JUMPDEST SWAP8 SWAP7 POP POP POP POP POP POP POP JUMP JUMPDEST PUSH1 0x0 PUSH1 0x20 DUP3 ADD SWAP1 POP DUP2 DUP2 SUB PUSH1 0x0 DUP4 ADD MSTORE PUSH2 0x83A DUP2 PUSH2 0x71E JUMP JUMPDEST SWAP1 POP SWAP2 SWAP1 POP JUMP JUMPDEST PUSH1 0x0 PUSH1 0x20 DUP3 ADD SWAP1 POP DUP2 DUP2 SUB PUSH1 0x0 DUP4 ADD MSTORE PUSH2 0x85A DUP2 PUSH2 0x741 JUMP JUMPDEST SWAP1 POP SWAP2 SWAP1 POP JUMP JUMPDEST PUSH1 0x0 PUSH1 0x20 DUP3 ADD SWAP1 POP DUP2 DUP2 SUB PUSH1 0x0 DUP4 ADD MSTORE PUSH2 0x87A DUP2 PUSH2 0x764 JUMP JUMPDEST SWAP1 POP SWAP2 SWAP1 POP JUMP JUMPDEST PUSH1 0x0 PUSH1 0x20 DUP3 ADD SWAP1 POP DUP2 DUP2 SUB PUSH1 0x0 DUP4 ADD MSTORE PUSH2 0x89A DUP2 PUSH2 0x787 JUMP JUMPDEST SWAP1 POP SWAP2 SWAP1 POP JUMP JUMPDEST PUSH1 0x0 PUSH1 0x20 DUP3 ADD SWAP1 POP PUSH2 0x8B6 PUSH1 0x0 DUP4 ADD DUP5 PUSH2 0x7AA JUMP JUMPDEST SWAP3 SWAP2 POP POP JUMP JUMPDEST PUSH1 0x0 PUSH2 0x8C6 PUSH2 0x8D7 JUMP JUMPDEST SWAP1 POP PUSH2 0x8D2 DUP3 DUP3 PUSH2 0x9DE JUMP JUMPDEST SWAP2 SWAP1 POP JUMP JUMPDEST PUSH1 0x0 PUSH1 0x40 MLOAD SWAP1 POP SWAP1 JUMP JUMPDEST PUSH1 0x0 PUSH8 0xFFFFFFFFFFFFFFFF DUP3 GT ISZERO PUSH2 0x8FC JUMPI PUSH2 0x8FB PUSH2 0xAB6 JUMP JUMPDEST JUMPDEST PUSH2 0x905 DUP3 PUSH2 0xAF9 JUMP JUMPDEST SWAP1 POP PUSH1 0x20 DUP2 ADD SWAP1 POP SWAP2 SWAP1 POP JUMP JUMPDEST PUSH1 0x0 DUP2 MLOAD SWAP1 POP SWAP2 SWAP1 POP JUMP JUMPDEST PUSH1 0x0 DUP3 DUP3 MSTORE PUSH1 0x20 DUP3 ADD SWAP1 POP SWAP3 SWAP2 POP POP JUMP JUMPDEST PUSH1 0x0 PUSH2 0x939 DUP3 PUSH2 0x940 JUMP JUMPDEST SWAP1 POP SWAP2 SWAP1 POP JUMP JUMPDEST PUSH1 0x0 PUSH20 0xFFFFFFFFFFFFFFFFFFFFFFFFFFFFFFFFFFFFFFFF DUP3 AND SWAP1 POP SWAP2 SWAP1 POP JUMP JUMPDEST PUSH1 0x0 DUP2 SWAP1 POP SWAP2 SWAP1 POP JUMP JUMPDEST DUP3 DUP2 DUP4 CALLDATACOPY PUSH1 0x0 DUP4 DUP4 ADD MSTORE POP POP POP JUMP JUMPDEST PUSH1 0x0 JUMPDEST DUP4 DUP2 LT ISZERO PUSH2 0x997 JUMPI DUP1 DUP3 ADD MLOAD DUP2 DUP5 ADD MSTORE PUSH1 0x20 DUP2 ADD SWAP1 POP PUSH2 0x97C JUMP JUMPDEST DUP4 DUP2 GT ISZERO PUSH2 0x9A6 JUMPI PUSH1 0x0 DUP5 DUP5 ADD MSTORE JUMPDEST POP POP POP POP JUMP JUMPDEST PUSH1 0x0 PUSH1 0x2 DUP3 DIV SWAP1 POP PUSH1 0x1 DUP3 AND DUP1 PUSH2 0x9C4 JUMPI PUSH1 0x7F DUP3 AND SWAP2 POP JUMPDEST PUSH1 0x20 DUP3 LT DUP2 EQ ISZERO PUSH2 0x9D8 JUMPI PUSH2 0x9D7 PUSH2 0xA87 JUMP JUMPDEST JUMPDEST POP SWAP2 SWAP1 POP JUMP JUMPDEST PUSH2 0x9E7 DUP3 PUSH2 0xAF9 JUMP JUMPDEST DUP2 ADD DUP2 DUP2 LT PUSH8 0xFFFFFFFFFFFFFFFF DUP3 GT OR ISZERO PUSH2 0xA06 JUMPI PUSH2 0xA05 PUSH2 0xAB6 JUMP JUMPDEST JUMPDEST DUP1 PUSH1 0x40 MSTORE POP POP POP JUMP JUMPDEST PUSH1 0x0 PUSH2 0xA1A DUP3 PUSH2 0x960 JUMP JUMPDEST SWAP2 POP PUSH32 0xFFFFFFFFFFFFFFFFFFFFFFFFFFFFFFFFFFFFFFFFFFFFFFFFFFFFFFFFFFFFFFFF DUP3 EQ ISZERO PUSH2 0xA4D JUMPI PUSH2 0xA4C PUSH2 0xA58 JUMP JUMPDEST JUMPDEST PUSH1 0x1 DUP3 ADD SWAP1 POP SWAP2 SWAP1 POP JUMP JUMPDEST PUSH32 0x4E487B7100000000000000000000000000000000000000000000000000000000 PUSH1 0x0 MSTORE PUSH1 0x11 PUSH1 0x4 MSTORE PUSH1 0x24 PUSH1 0x0 REVERT JUMPDEST PUSH32 0x4E487B7100000000000000000000000000000000000000000000000000000000 PUSH1 0x0 MSTORE PUSH1 0x22 PUSH1 0x4 MSTORE PUSH1 0x24 PUSH1 0x0 REVERT JUMPDEST PUSH32 0x4E487B7100000000000000000000000000000000000000000000000000000000 PUSH1 0x0 MSTORE PUSH1 0x41 PUSH1 0x4 MSTORE PUSH1 0x24 PUSH1 0x0 REVERT JUMPDEST PUSH1 0x0 DUP1 REVERT JUMPDEST PUSH1 0x0 DUP1 REVERT JUMPDEST PUSH1 0x0 DUP1 REVERT JUMPDEST PUSH1 0x0 DUP1 REVERT JUMPDEST PUSH1 0x0 PUSH1 0x1F NOT PUSH1 0x1F DUP4 ADD AND SWAP1 POP SWAP2 SWAP1 POP JUMP JUMPDEST PUSH32 0x4576656E74206D75737420686176652061746C656173742031207469636B6574 PUSH1 0x0 DUP3 ADD MSTORE POP JUMP JUMPDEST PUSH32 0x4576656E7420626F6F6B696E6720697320636C6F736500000000000000000000 PUSH1 0x0 DUP3 ADD MSTORE POP JUMP JUMPDEST PUSH32 0x596F752063616E206F7267616E697A65206576656E7420666F72206675747572 PUSH1 0x0 DUP3 ADD MSTORE PUSH32 0x6500000000000000000000000000000000000000000000000000000000000000 PUSH1 0x20 DUP3 ADD MSTORE POP JUMP JUMPDEST PUSH32 0x4576656E7420646F6573206E6F74206578697374000000000000000000000000 PUSH1 0x0 DUP3 ADD MSTORE POP JUMP JUMPDEST PUSH2 0xBDD DUP2 PUSH2 0x92E JUMP JUMPDEST DUP2 EQ PUSH2 0xBE8 JUMPI PUSH1 0x0 DUP1 REVERT JUMPDEST POP JUMP JUMPDEST PUSH2 0xBF4 DUP2 PUSH2 0x960 JUMP JUMPDEST DUP2 EQ PUSH2 0xBFF JUMPI PUSH1 0x0 DUP1 REVERT JUMPDEST POP JUMP INVALID LOG2 PUSH5 0x6970667358 0x22 SLT KECCAK256 PUSH27 0x775221DC538A3434326F14919561C600CB351AC162C0C691BA9EC2 CALLDATASIZE INVALID SHR 0xB9 PUSH5 0x736F6C6343 STOP ADDMOD SMOD STOP CALLER "
				},
				"gasEstimates": {
					"creation": {
						"codeDepositCost": "625600",
						"executionCost": "657",
						"totalCost": "626257"
					},
					"external": {
						"ID()": "2451",
						"buyTicket(uint256,uint256)": "infinite",
						"createEvent(uint256,string,uint256,uint256)": "infinite",
						"events(uint256)": "infinite",
						"tickets(address,uint256)": "infinite"
					}
				},
				"methodIdentifiers": {
					"ID()": "b3cea217",
					"buyTicket(uint256,uint256)": "298ec208",
					"createEvent(uint256,string,uint256,uint256)": "f93694fb",
					"events(uint256)": "0b791430",
					"tickets(address,uint256)": "dae7a13c"
				}
			},
			"storageLayout": {
				"storage": [
					{
						"astId": 19,
						"contract": "contract/EventOrganizingContract.sol:EventOrganize",
						"label": "events",
						"offset": 0,
						"slot": "0",
						"type": "t_mapping(t_uint256,t_struct(Event)14_storage)"
					},
					{
						"astId": 25,
						"contract": "contract/EventOrganizingContract.sol:EventOrganize",
						"label": "tickets",
						"offset": 0,
						"slot": "1",
						"type": "t_mapping(t_address,t_mapping(t_uint256,t_uint256))"
					},
					{
						"astId": 27,
						"contract": "contract/EventOrganizingContract.sol:EventOrganize",
						"label": "ID",
						"offset": 0,
						"slot": "2",
						"type": "t_uint256"
					}
				],
				"types": {
					"t_address": {
						"encoding": "inplace",
						"label": "address",
						"numberOfBytes": "20"
					},
					"t_mapping(t_address,t_mapping(t_uint256,t_uint256))": {
						"encoding": "mapping",
						"key": "t_address",
						"label": "mapping(address => mapping(uint256 => uint256))",
						"numberOfBytes": "32",
						"value": "t_mapping(t_uint256,t_uint256)"
					},
					"t_mapping(t_uint256,t_struct(Event)14_storage)": {
						"encoding": "mapping",
						"key": "t_uint256",
						"label": "mapping(uint256 => struct EventOrganize.Event)",
						"numberOfBytes": "32",
						"value": "t_struct(Event)14_storage"
					},
					"t_mapping(t_uint256,t_uint256)": {
						"encoding": "mapping",
						"key": "t_uint256",
						"label": "mapping(uint256 => uint256)",
						"numberOfBytes": "32",
						"value": "t_uint256"
					},
					"t_string_storage": {
						"encoding": "bytes",
						"label": "string",
						"numberOfBytes": "32"
					},
					"t_struct(Event)14_storage": {
						"encoding": "inplace",
						"label": "struct EventOrganize.Event",
						"members": [
							{
								"astId": 3,
								"contract": "contract/EventOrganizingContract.sol:EventOrganize",
								"label": "organizer",
								"offset": 0,
								"slot": "0",
								"type": "t_address"
							},
							{
								"astId": 5,
								"contract": "contract/EventOrganizingContract.sol:EventOrganize",
								"label": "date",
								"offset": 0,
								"slot": "1",
								"type": "t_uint256"
							},
							{
								"astId": 7,
								"contract": "contract/EventOrganizingContract.sol:EventOrganize",
								"label": "name",
								"offset": 0,
								"slot": "2",
								"type": "t_string_storage"
							},
							{
								"astId": 9,
								"contract": "contract/EventOrganizingContract.sol:EventOrganize",
								"label": "price",
								"offset": 0,
								"slot": "3",
								"type": "t_uint256"
							},
							{
								"astId": 11,
								"contract": "contract/EventOrganizingContract.sol:EventOrganize",
								"label": "tiketCount",
								"offset": 0,
								"slot": "4",
								"type": "t_uint256"
							},
							{
								"astId": 13,
								"contract": "contract/EventOrganizingContract.sol:EventOrganize",
								"label": "tiketRemain",
								"offset": 0,
								"slot": "5",
								"type": "t_uint256"
							}
						],
						"numberOfBytes": "192"
					},
					"t_uint256": {
						"encoding": "inplace",
						"label": "uint256",
						"numberOfBytes": "32"
					}
				}
			},
			"userdoc": {
				"kind": "user",
				"methods": {},
				"version": 1
			}
		}
	}
}