{
	"contract/EventOrganizingContract.sol": {
		"EventOrganize": {
			"abi": [
				{
					"inputs": [],
					"name": "ID",
					"outputs": [
						{
							"internalType": "uint256",
							"name": "",
							"type": "uint256"
						}
					],
					"stateMutability": "view",
					"type": "function"
				},
				{
					"inputs": [
						{
							"internalType": "uint256",
							"name": "_quantity",
							"type": "uint256"
						},
						{
							"internalType": "uint256",
							"name": "_ID",
							"type": "uint256"
						}
					],
					"name": "buyTicket",
					"outputs": [],
					"stateMutability": "payable",
					"type": "function"
				},
				{
					"inputs": [
						{
							"internalType": "uint256",
							"name": "_date",
							"type": "uint256"
						},
						{
							"internalType": "string",
							"name": "_name",
							"type": "string"
						},
						{
							"internalType": "uint256",
							"name": "_price",
							"type": "uint256"
						},
						{
							"internalType": "uint256",
							"name": "_ticketCount",
							"type": "uint256"
						}
					],
					"name": "createEvent",
					"outputs": [],
					"stateMutability": "nonpayable",
					"type": "function"
				},
				{
					"inputs": [
						{
							"internalType": "uint256",
							"name": "",
							"type": "uint256"
						}
					],
					"name": "events",
					"outputs": [
						{
							"internalType": "address",
							"name": "organizer",
							"type": "address"
						},
						{
							"internalType": "uint256",
							"name": "date",
							"type": "uint256"
						},
						{
							"internalType": "string",
							"name": "name",
							"type": "string"
						},
						{
							"internalType": "uint256",
							"name": "price",
							"type": "uint256"
						},
						{
							"internalType": "uint256",
							"name": "ticketCount",
							"type": "uint256"
						},
						{
							"internalType": "uint256",
							"name": "ticketRemain",
							"type": "uint256"
						}
					],
					"stateMutability": "view",
					"type": "function"
				},
				{
					"inputs": [
						{
							"internalType": "address",
							"name": "",
							"type": "address"
						},
						{
							"internalType": "uint256",
							"name": "",
							"type": "uint256"
						}
					],
					"name": "tickets",
					"outputs": [
						{
							"internalType": "uint256",
							"name": "",
							"type": "uint256"
						}
					],
					"stateMutability": "view",
					"type": "function"
				}
			],
			"devdoc": {
				"kind": "dev",
				"methods": {},
				"version": 1
			},
			"evm": {
				"assembly": "    /* \"contract/EventOrganizingContract.sol\":62:1284  contract EventOrganize {\r... */\n  mstore(0x40, 0x80)\n  callvalue\n  dup1\n  iszero\n  tag_1\n  jumpi\n  0x00\n  dup1\n  revert\ntag_1:\n  pop\n  dataSize(sub_0)\n  dup1\n  dataOffset(sub_0)\n  0x00\n  codecopy\n  0x00\n  return\nstop\n\nsub_0: assembly {\n        /* \"contract/EventOrganizingContract.sol\":62:1284  contract EventOrganize {\r... */\n      mstore(0x40, 0x80)\n      jumpi(tag_1, lt(calldatasize, 0x04))\n      shr(0xe0, calldataload(0x00))\n      dup1\n      0x0b791430\n      eq\n      tag_2\n      jumpi\n      dup1\n      0x298ec208\n      eq\n      tag_3\n      jumpi\n      dup1\n      0xb3cea217\n      eq\n      tag_4\n      jumpi\n      dup1\n      0xdae7a13c\n      eq\n      tag_5\n      jumpi\n      dup1\n      0xf93694fb\n      eq\n      tag_6\n      jumpi\n    tag_1:\n      0x00\n      dup1\n      revert\n        /* \"contract/EventOrganizingContract.sol\":269:306  mapping (uint => Event) public events */\n    tag_2:\n      callvalue\n      dup1\n      iszero\n      tag_7\n      jumpi\n      0x00\n      dup1\n      revert\n    tag_7:\n      pop\n      tag_8\n      0x04\n      dup1\n      calldatasize\n      sub\n      dup2\n      add\n      swap1\n      tag_9\n      swap2\n      swap1\n      tag_10\n      jump\t// in\n    tag_9:\n      tag_11\n      jump\t// in\n    tag_8:\n      mload(0x40)\n      tag_12\n      swap7\n      swap6\n      swap5\n      swap4\n      swap3\n      swap2\n      swap1\n      tag_13\n      jump\t// in\n    tag_12:\n      mload(0x40)\n      dup1\n      swap2\n      sub\n      swap1\n      return\n        /* \"contract/EventOrganizingContract.sol\":772:1279  function buyTicket(uint _quantity, uint _ID) payable external{\r... */\n    tag_3:\n      tag_14\n      0x04\n      dup1\n      calldatasize\n      sub\n      dup2\n      add\n      swap1\n      tag_15\n      swap2\n      swap1\n      tag_16\n      jump\t// in\n    tag_15:\n      tag_17\n      jump\t// in\n    tag_14:\n      stop\n        /* \"contract/EventOrganizingContract.sol\":377:391  uint public ID */\n    tag_4:\n      callvalue\n      dup1\n      iszero\n      tag_18\n      jumpi\n      0x00\n      dup1\n      revert\n    tag_18:\n      pop\n      tag_19\n      tag_20\n      jump\t// in\n    tag_19:\n      mload(0x40)\n      tag_21\n      swap2\n      swap1\n      tag_22\n      jump\t// in\n    tag_21:\n      mload(0x40)\n      dup1\n      swap2\n      sub\n      swap1\n      return\n        /* \"contract/EventOrganizingContract.sol\":313:370  mapping (address => mapping(uint => uint)) public tickets */\n    tag_5:\n      callvalue\n      dup1\n      iszero\n      tag_23\n      jumpi\n      0x00\n      dup1\n      revert\n    tag_23:\n      pop\n      tag_24\n      0x04\n      dup1\n      calldatasize\n      sub\n      dup2\n      add\n      swap1\n      tag_25\n      swap2\n      swap1\n      tag_26\n      jump\t// in\n    tag_25:\n      tag_27\n      jump\t// in\n    tag_24:\n      mload(0x40)\n      tag_28\n      swap2\n      swap1\n      tag_22\n      jump\t// in\n    tag_28:\n      mload(0x40)\n      dup1\n      swap2\n      sub\n      swap1\n      return\n        /* \"contract/EventOrganizingContract.sol\":404:764  function createEvent(uint _date, string memory _name, uint _price, uint _ticketCount) external{\r... */\n    tag_6:\n      callvalue\n      dup1\n      iszero\n      tag_29\n      jumpi\n      0x00\n      dup1\n      revert\n    tag_29:\n      pop\n      tag_30\n      0x04\n      dup1\n      calldatasize\n      sub\n      dup2\n      add\n      swap1\n      tag_31\n      swap2\n      swap1\n      tag_32\n      jump\t// in\n    tag_31:\n      tag_33\n      jump\t// in\n    tag_30:\n      stop\n        /* \"contract/EventOrganizingContract.sol\":269:306  mapping (uint => Event) public events */\n    tag_11:\n      mstore(0x20, 0x00)\n      dup1\n      0x00\n      mstore\n      keccak256(0x00, 0x40)\n      0x00\n      swap2\n      pop\n      swap1\n      pop\n      dup1\n      0x00\n      add\n      0x00\n      swap1\n      sload\n      swap1\n      0x0100\n      exp\n      swap1\n      div\n      0xffffffffffffffffffffffffffffffffffffffff\n      and\n      swap1\n      dup1\n      0x01\n      add\n      sload\n      swap1\n      dup1\n      0x02\n      add\n      dup1\n      sload\n      tag_34\n      swap1\n      tag_35\n      jump\t// in\n    tag_34:\n      dup1\n      0x1f\n      add\n      0x20\n      dup1\n      swap2\n      div\n      mul\n      0x20\n      add\n      mload(0x40)\n      swap1\n      dup2\n      add\n      0x40\n      mstore\n      dup1\n      swap3\n      swap2\n      swap1\n      dup2\n      dup2\n      mstore\n      0x20\n      add\n      dup3\n      dup1\n      sload\n      tag_36\n      swap1\n      tag_35\n      jump\t// in\n    tag_36:\n      dup1\n      iszero\n      tag_37\n      jumpi\n      dup1\n      0x1f\n      lt\n      tag_38\n      jumpi\n      0x0100\n      dup1\n      dup4\n      sload\n      div\n      mul\n      dup4\n      mstore\n      swap2\n      0x20\n      add\n      swap2\n      jump(tag_37)\n    tag_38:\n      dup3\n      add\n      swap2\n      swap1\n      0x00\n      mstore\n      keccak256(0x00, 0x20)\n      swap1\n    tag_39:\n      dup2\n      sload\n      dup2\n      mstore\n      swap1\n      0x01\n      add\n      swap1\n      0x20\n      add\n      dup1\n      dup4\n      gt\n      tag_39\n      jumpi\n      dup3\n      swap1\n      sub\n      0x1f\n      and\n      dup3\n      add\n      swap2\n    tag_37:\n      pop\n      pop\n      pop\n      pop\n      pop\n      swap1\n      dup1\n      0x03\n      add\n      sload\n      swap1\n      dup1\n      0x04\n      add\n      sload\n      swap1\n      dup1\n      0x05\n      add\n      sload\n      swap1\n      pop\n      dup7\n      jump\t// out\n        /* \"contract/EventOrganizingContract.sol\":772:1279  function buyTicket(uint _quantity, uint _ID) payable external{\r... */\n    tag_17:\n        /* \"contract/EventOrganizingContract.sol\":844:864  Event storage _event */\n      0x00\n        /* \"contract/EventOrganizingContract.sol\":867:873  events */\n      dup1\n        /* \"contract/EventOrganizingContract.sol\":867:878  events[_ID] */\n      0x00\n        /* \"contract/EventOrganizingContract.sol\":874:877  _ID */\n      dup4\n        /* \"contract/EventOrganizingContract.sol\":867:878  events[_ID] */\n      dup2\n      mstore\n      0x20\n      add\n      swap1\n      dup2\n      mstore\n      0x20\n      add\n      0x00\n      keccak256\n        /* \"contract/EventOrganizingContract.sol\":844:878  Event storage _event = events[_ID] */\n      swap1\n      pop\n        /* \"contract/EventOrganizingContract.sol\":912:913  0 */\n      0x00\n        /* \"contract/EventOrganizingContract.sol\":897:903  _event */\n      dup2\n        /* \"contract/EventOrganizingContract.sol\":897:908  _event.date */\n      0x01\n      add\n      sload\n        /* \"contract/EventOrganizingContract.sol\":897:913  _event.date != 0 */\n      eq\n      iszero\n        /* \"contract/EventOrganizingContract.sol\":889:938  require(_event.date != 0, \"Event does not exist\") */\n      tag_41\n      jumpi\n      mload(0x40)\n      0x08c379a000000000000000000000000000000000000000000000000000000000\n      dup2\n      mstore\n      0x04\n      add\n      tag_42\n      swap1\n      tag_43\n      jump\t// in\n    tag_42:\n      mload(0x40)\n      dup1\n      swap2\n      sub\n      swap1\n      revert\n    tag_41:\n        /* \"contract/EventOrganizingContract.sol\":971:986  block.timestamp */\n      timestamp\n        /* \"contract/EventOrganizingContract.sol\":957:963  _event */\n      dup2\n        /* \"contract/EventOrganizingContract.sol\":957:968  _event.date */\n      0x01\n      add\n      sload\n        /* \"contract/EventOrganizingContract.sol\":957:986  _event.date > block.timestamp */\n      gt\n        /* \"contract/EventOrganizingContract.sol\":949:1013  require(_event.date > block.timestamp, \"Event booking is close\") */\n      tag_44\n      jumpi\n      mload(0x40)\n      0x08c379a000000000000000000000000000000000000000000000000000000000\n      dup2\n      mstore\n      0x04\n      add\n      tag_45\n      swap1\n      tag_46\n      jump\t// in\n    tag_45:\n      mload(0x40)\n      dup1\n      swap2\n      sub\n      swap1\n      revert\n    tag_44:\n        /* \"contract/EventOrganizingContract.sol\":1062:1071  msg.value */\n      callvalue\n        /* \"contract/EventOrganizingContract.sol\":1048:1057  _quantity */\n      dup4\n        /* \"contract/EventOrganizingContract.sol\":1033:1039  _event */\n      dup3\n        /* \"contract/EventOrganizingContract.sol\":1033:1045  _event.price */\n      0x03\n      add\n      sload\n        /* \"contract/EventOrganizingContract.sol\":1033:1057  _event.price * _quantity */\n      tag_47\n      swap2\n      swap1\n      tag_48\n      jump\t// in\n    tag_47:\n        /* \"contract/EventOrganizingContract.sol\":1032:1071  (_event.price * _quantity) == msg.value */\n      eq\n        /* \"contract/EventOrganizingContract.sol\":1024:1097  require((_event.price * _quantity) == msg.value, \"Ethers is not enough!\") */\n      tag_49\n      jumpi\n      mload(0x40)\n      0x08c379a000000000000000000000000000000000000000000000000000000000\n      dup2\n      mstore\n      0x04\n      add\n      tag_50\n      swap1\n      tag_51\n      jump\t// in\n    tag_50:\n      mload(0x40)\n      dup1\n      swap2\n      sub\n      swap1\n      revert\n    tag_49:\n        /* \"contract/EventOrganizingContract.sol\":1138:1147  _quantity */\n      dup3\n        /* \"contract/EventOrganizingContract.sol\":1116:1122  _event */\n      dup2\n        /* \"contract/EventOrganizingContract.sol\":1116:1135  _event.ticketRemain */\n      0x05\n      add\n      sload\n        /* \"contract/EventOrganizingContract.sol\":1116:1147  _event.ticketRemain > _quantity */\n      gt\n        /* \"contract/EventOrganizingContract.sol\":1108:1180  require(_event.ticketRemain > _quantity, \"We don't have enough tickets\") */\n      tag_52\n      jumpi\n      mload(0x40)\n      0x08c379a000000000000000000000000000000000000000000000000000000000\n      dup2\n      mstore\n      0x04\n      add\n      tag_53\n      swap1\n      tag_54\n      jump\t// in\n    tag_53:\n      mload(0x40)\n      dup1\n      swap2\n      sub\n      swap1\n      revert\n    tag_52:\n        /* \"contract/EventOrganizingContract.sol\":1214:1223  _quantity */\n      dup3\n        /* \"contract/EventOrganizingContract.sol\":1191:1197  _event */\n      dup2\n        /* \"contract/EventOrganizingContract.sol\":1191:1210  _event.ticketRemain */\n      0x05\n      add\n      0x00\n        /* \"contract/EventOrganizingContract.sol\":1191:1223  _event.ticketRemain -= _quantity */\n      dup3\n      dup3\n      sload\n      tag_55\n      swap2\n      swap1\n      tag_56\n      jump\t// in\n    tag_55:\n      swap3\n      pop\n      pop\n      dup2\n      swap1\n      sstore\n      pop\n        /* \"contract/EventOrganizingContract.sol\":1262:1271  _quantity */\n      dup3\n        /* \"contract/EventOrganizingContract.sol\":1234:1241  tickets */\n      0x01\n        /* \"contract/EventOrganizingContract.sol\":1234:1253  tickets[msg.sender] */\n      0x00\n        /* \"contract/EventOrganizingContract.sol\":1242:1252  msg.sender */\n      caller\n        /* \"contract/EventOrganizingContract.sol\":1234:1253  tickets[msg.sender] */\n      0xffffffffffffffffffffffffffffffffffffffff\n      and\n      0xffffffffffffffffffffffffffffffffffffffff\n      and\n      dup2\n      mstore\n      0x20\n      add\n      swap1\n      dup2\n      mstore\n      0x20\n      add\n      0x00\n      keccak256\n        /* \"contract/EventOrganizingContract.sol\":1234:1258  tickets[msg.sender][_ID] */\n      0x00\n        /* \"contract/EventOrganizingContract.sol\":1254:1257  _ID */\n      dup5\n        /* \"contract/EventOrganizingContract.sol\":1234:1258  tickets[msg.sender][_ID] */\n      dup2\n      mstore\n      0x20\n      add\n      swap1\n      dup2\n      mstore\n      0x20\n      add\n      0x00\n      keccak256\n      0x00\n        /* \"contract/EventOrganizingContract.sol\":1234:1271  tickets[msg.sender][_ID] += _quantity */\n      dup3\n      dup3\n      sload\n      tag_57\n      swap2\n      swap1\n      tag_58\n      jump\t// in\n    tag_57:\n      swap3\n      pop\n      pop\n      dup2\n      swap1\n      sstore\n      pop\n        /* \"contract/EventOrganizingContract.sol\":833:1279  {\r... */\n      pop\n        /* \"contract/EventOrganizingContract.sol\":772:1279  function buyTicket(uint _quantity, uint _ID) payable external{\r... */\n      pop\n      pop\n      jump\t// out\n        /* \"contract/EventOrganizingContract.sol\":377:391  uint public ID */\n    tag_20:\n      sload(0x02)\n      dup2\n      jump\t// out\n        /* \"contract/EventOrganizingContract.sol\":313:370  mapping (address => mapping(uint => uint)) public tickets */\n    tag_27:\n      mstore(0x20, 0x01)\n      dup2\n      0x00\n      mstore\n      mstore(0x20, keccak256(0x00, 0x40))\n      dup1\n      0x00\n      mstore\n      keccak256(0x00, 0x40)\n      0x00\n      swap2\n      pop\n      swap2\n      pop\n      pop\n      sload\n      dup2\n      jump\t// out\n        /* \"contract/EventOrganizingContract.sol\":404:764  function createEvent(uint _date, string memory _name, uint _price, uint _ticketCount) external{\r... */\n    tag_33:\n        /* \"contract/EventOrganizingContract.sol\":525:540  block.timestamp */\n      timestamp\n        /* \"contract/EventOrganizingContract.sol\":517:522  _date */\n      dup5\n        /* \"contract/EventOrganizingContract.sol\":517:540  _date > block.timestamp */\n      gt\n        /* \"contract/EventOrganizingContract.sol\":509:578  require(_date > block.timestamp, \"You can organize event for future\") */\n      tag_60\n      jumpi\n      mload(0x40)\n      0x08c379a000000000000000000000000000000000000000000000000000000000\n      dup2\n      mstore\n      0x04\n      add\n      tag_61\n      swap1\n      tag_62\n      jump\t// in\n    tag_61:\n      mload(0x40)\n      dup1\n      swap2\n      sub\n      swap1\n      revert\n    tag_60:\n        /* \"contract/EventOrganizingContract.sol\":612:613  0 */\n      0x00\n        /* \"contract/EventOrganizingContract.sol\":597:609  _ticketCount */\n      dup2\n        /* \"contract/EventOrganizingContract.sol\":597:613  _ticketCount > 0 */\n      gt\n        /* \"contract/EventOrganizingContract.sol\":589:650  require(_ticketCount > 0, \"Event must have atleast 1 ticket\") */\n      tag_63\n      jumpi\n      mload(0x40)\n      0x08c379a000000000000000000000000000000000000000000000000000000000\n      dup2\n      mstore\n      0x04\n      add\n      tag_64\n      swap1\n      tag_65\n      jump\t// in\n    tag_64:\n      mload(0x40)\n      dup1\n      swap2\n      sub\n      swap1\n      revert\n    tag_63:\n        /* \"contract/EventOrganizingContract.sol\":674:741  Event(msg.sender, _date, _name, _price, _ticketCount, _ticketCount) */\n      mload(0x40)\n      dup1\n      0xc0\n      add\n      0x40\n      mstore\n      dup1\n        /* \"contract/EventOrganizingContract.sol\":680:690  msg.sender */\n      caller\n        /* \"contract/EventOrganizingContract.sol\":674:741  Event(msg.sender, _date, _name, _price, _ticketCount, _ticketCount) */\n      0xffffffffffffffffffffffffffffffffffffffff\n      and\n      dup2\n      mstore\n      0x20\n      add\n        /* \"contract/EventOrganizingContract.sol\":692:697  _date */\n      dup6\n        /* \"contract/EventOrganizingContract.sol\":674:741  Event(msg.sender, _date, _name, _price, _ticketCount, _ticketCount) */\n      dup2\n      mstore\n      0x20\n      add\n        /* \"contract/EventOrganizingContract.sol\":699:704  _name */\n      dup5\n        /* \"contract/EventOrganizingContract.sol\":674:741  Event(msg.sender, _date, _name, _price, _ticketCount, _ticketCount) */\n      dup2\n      mstore\n      0x20\n      add\n        /* \"contract/EventOrganizingContract.sol\":706:712  _price */\n      dup4\n        /* \"contract/EventOrganizingContract.sol\":674:741  Event(msg.sender, _date, _name, _price, _ticketCount, _ticketCount) */\n      dup2\n      mstore\n      0x20\n      add\n        /* \"contract/EventOrganizingContract.sol\":714:726  _ticketCount */\n      dup3\n        /* \"contract/EventOrganizingContract.sol\":674:741  Event(msg.sender, _date, _name, _price, _ticketCount, _ticketCount) */\n      dup2\n      mstore\n      0x20\n      add\n        /* \"contract/EventOrganizingContract.sol\":728:740  _ticketCount */\n      dup3\n        /* \"contract/EventOrganizingContract.sol\":674:741  Event(msg.sender, _date, _name, _price, _ticketCount, _ticketCount) */\n      dup2\n      mstore\n      pop\n        /* \"contract/EventOrganizingContract.sol\":661:667  events */\n      0x00\n        /* \"contract/EventOrganizingContract.sol\":661:671  events[ID] */\n      dup1\n        /* \"contract/EventOrganizingContract.sol\":668:670  ID */\n      sload(0x02)\n        /* \"contract/EventOrganizingContract.sol\":661:671  events[ID] */\n      dup2\n      mstore\n      0x20\n      add\n      swap1\n      dup2\n      mstore\n      0x20\n      add\n      0x00\n      keccak256\n        /* \"contract/EventOrganizingContract.sol\":661:741  events[ID] = Event(msg.sender, _date, _name, _price, _ticketCount, _ticketCount) */\n      0x00\n      dup3\n      add\n      mload\n      dup2\n      0x00\n      add\n      exp(0x0100, 0x00)\n      dup2\n      sload\n      dup2\n      0xffffffffffffffffffffffffffffffffffffffff\n      mul\n      not\n      and\n      swap1\n      dup4\n      0xffffffffffffffffffffffffffffffffffffffff\n      and\n      mul\n      or\n      swap1\n      sstore\n      pop\n      0x20\n      dup3\n      add\n      mload\n      dup2\n      0x01\n      add\n      sstore\n      0x40\n      dup3\n      add\n      mload\n      dup2\n      0x02\n      add\n      swap1\n      dup1\n      mload\n      swap1\n      0x20\n      add\n      swap1\n      tag_66\n      swap3\n      swap2\n      swap1\n      tag_67\n      jump\t// in\n    tag_66:\n      pop\n      0x60\n      dup3\n      add\n      mload\n      dup2\n      0x03\n      add\n      sstore\n      0x80\n      dup3\n      add\n      mload\n      dup2\n      0x04\n      add\n      sstore\n      0xa0\n      dup3\n      add\n      mload\n      dup2\n      0x05\n      add\n      sstore\n      swap1\n      pop\n      pop\n        /* \"contract/EventOrganizingContract.sol\":752:754  ID */\n      0x02\n      0x00\n        /* \"contract/EventOrganizingContract.sol\":752:756  ID++ */\n      dup2\n      sload\n      dup1\n      swap3\n      swap2\n      swap1\n      tag_68\n      swap1\n      tag_69\n      jump\t// in\n    tag_68:\n      swap2\n      swap1\n      pop\n      sstore\n      pop\n        /* \"contract/EventOrganizingContract.sol\":404:764  function createEvent(uint _date, string memory _name, uint _price, uint _ticketCount) external{\r... */\n      pop\n      pop\n      pop\n      pop\n      jump\t// out\n    tag_67:\n      dup3\n      dup1\n      sload\n      tag_70\n      swap1\n      tag_35\n      jump\t// in\n    tag_70:\n      swap1\n      0x00\n      mstore\n      keccak256(0x00, 0x20)\n      swap1\n      0x1f\n      add\n      0x20\n      swap1\n      div\n      dup2\n      add\n      swap3\n      dup3\n      tag_72\n      jumpi\n      0x00\n      dup6\n      sstore\n      jump(tag_71)\n    tag_72:\n      dup3\n      0x1f\n      lt\n      tag_73\n      jumpi\n      dup1\n      mload\n      not(0xff)\n      and\n      dup4\n      dup1\n      add\n      or\n      dup6\n      sstore\n      jump(tag_71)\n    tag_73:\n      dup3\n      dup1\n      add\n      0x01\n      add\n      dup6\n      sstore\n      dup3\n      iszero\n      tag_71\n      jumpi\n      swap2\n      dup3\n      add\n    tag_74:\n      dup3\n      dup2\n      gt\n      iszero\n      tag_75\n      jumpi\n      dup3\n      mload\n      dup3\n      sstore\n      swap2\n      0x20\n      add\n      swap2\n      swap1\n      0x01\n      add\n      swap1\n      jump(tag_74)\n    tag_75:\n    tag_71:\n      pop\n      swap1\n      pop\n      tag_76\n      swap2\n      swap1\n      tag_77\n      jump\t// in\n    tag_76:\n      pop\n      swap1\n      jump\t// out\n    tag_77:\n    tag_78:\n      dup1\n      dup3\n      gt\n      iszero\n      tag_79\n      jumpi\n      0x00\n      dup2\n      0x00\n      swap1\n      sstore\n      pop\n      0x01\n      add\n      jump(tag_78)\n    tag_79:\n      pop\n      swap1\n      jump\t// out\n        /* \"#utility.yul\":7:419   */\n    tag_81:\n        /* \"#utility.yul\":85:90   */\n      0x00\n        /* \"#utility.yul\":110:176   */\n      tag_83\n        /* \"#utility.yul\":126:175   */\n      tag_84\n        /* \"#utility.yul\":168:174   */\n      dup5\n        /* \"#utility.yul\":126:175   */\n      tag_85\n      jump\t// in\n    tag_84:\n        /* \"#utility.yul\":110:176   */\n      tag_86\n      jump\t// in\n    tag_83:\n        /* \"#utility.yul\":101:176   */\n      swap1\n      pop\n        /* \"#utility.yul\":199:205   */\n      dup3\n        /* \"#utility.yul\":192:197   */\n      dup2\n        /* \"#utility.yul\":185:206   */\n      mstore\n        /* \"#utility.yul\":237:241   */\n      0x20\n        /* \"#utility.yul\":230:235   */\n      dup2\n        /* \"#utility.yul\":226:242   */\n      add\n        /* \"#utility.yul\":275:278   */\n      dup5\n        /* \"#utility.yul\":266:272   */\n      dup5\n        /* \"#utility.yul\":261:264   */\n      dup5\n        /* \"#utility.yul\":257:273   */\n      add\n        /* \"#utility.yul\":254:279   */\n      gt\n        /* \"#utility.yul\":251:363   */\n      iszero\n      tag_87\n      jumpi\n        /* \"#utility.yul\":282:361   */\n      tag_88\n      tag_89\n      jump\t// in\n    tag_88:\n        /* \"#utility.yul\":251:363   */\n    tag_87:\n        /* \"#utility.yul\":372:413   */\n      tag_90\n        /* \"#utility.yul\":406:412   */\n      dup5\n        /* \"#utility.yul\":401:404   */\n      dup3\n        /* \"#utility.yul\":396:399   */\n      dup6\n        /* \"#utility.yul\":372:413   */\n      tag_91\n      jump\t// in\n    tag_90:\n        /* \"#utility.yul\":91:419   */\n      pop\n        /* \"#utility.yul\":7:419   */\n      swap4\n      swap3\n      pop\n      pop\n      pop\n      jump\t// out\n        /* \"#utility.yul\":425:564   */\n    tag_92:\n        /* \"#utility.yul\":471:476   */\n      0x00\n        /* \"#utility.yul\":509:515   */\n      dup2\n        /* \"#utility.yul\":496:516   */\n      calldataload\n        /* \"#utility.yul\":487:516   */\n      swap1\n      pop\n        /* \"#utility.yul\":525:558   */\n      tag_94\n        /* \"#utility.yul\":552:557   */\n      dup2\n        /* \"#utility.yul\":525:558   */\n      tag_95\n      jump\t// in\n    tag_94:\n        /* \"#utility.yul\":425:564   */\n      swap3\n      swap2\n      pop\n      pop\n      jump\t// out\n        /* \"#utility.yul\":584:924   */\n    tag_96:\n        /* \"#utility.yul\":640:645   */\n      0x00\n        /* \"#utility.yul\":689:692   */\n      dup3\n        /* \"#utility.yul\":682:686   */\n      0x1f\n        /* \"#utility.yul\":674:680   */\n      dup4\n        /* \"#utility.yul\":670:687   */\n      add\n        /* \"#utility.yul\":666:693   */\n      slt\n        /* \"#utility.yul\":656:778   */\n      tag_98\n      jumpi\n        /* \"#utility.yul\":697:776   */\n      tag_99\n      tag_100\n      jump\t// in\n    tag_99:\n        /* \"#utility.yul\":656:778   */\n    tag_98:\n        /* \"#utility.yul\":814:820   */\n      dup2\n        /* \"#utility.yul\":801:821   */\n      calldataload\n        /* \"#utility.yul\":839:918   */\n      tag_101\n        /* \"#utility.yul\":914:917   */\n      dup5\n        /* \"#utility.yul\":906:912   */\n      dup3\n        /* \"#utility.yul\":899:903   */\n      0x20\n        /* \"#utility.yul\":891:897   */\n      dup7\n        /* \"#utility.yul\":887:904   */\n      add\n        /* \"#utility.yul\":839:918   */\n      tag_81\n      jump\t// in\n    tag_101:\n        /* \"#utility.yul\":830:918   */\n      swap2\n      pop\n        /* \"#utility.yul\":646:924   */\n      pop\n        /* \"#utility.yul\":584:924   */\n      swap3\n      swap2\n      pop\n      pop\n      jump\t// out\n        /* \"#utility.yul\":930:1069   */\n    tag_102:\n        /* \"#utility.yul\":976:981   */\n      0x00\n        /* \"#utility.yul\":1014:1020   */\n      dup2\n        /* \"#utility.yul\":1001:1021   */\n      calldataload\n        /* \"#utility.yul\":992:1021   */\n      swap1\n      pop\n        /* \"#utility.yul\":1030:1063   */\n      tag_104\n        /* \"#utility.yul\":1057:1062   */\n      dup2\n        /* \"#utility.yul\":1030:1063   */\n      tag_105\n      jump\t// in\n    tag_104:\n        /* \"#utility.yul\":930:1069   */\n      swap3\n      swap2\n      pop\n      pop\n      jump\t// out\n        /* \"#utility.yul\":1075:1549   */\n    tag_26:\n        /* \"#utility.yul\":1143:1149   */\n      0x00\n        /* \"#utility.yul\":1151:1157   */\n      dup1\n        /* \"#utility.yul\":1200:1202   */\n      0x40\n        /* \"#utility.yul\":1188:1197   */\n      dup4\n        /* \"#utility.yul\":1179:1186   */\n      dup6\n        /* \"#utility.yul\":1175:1198   */\n      sub\n        /* \"#utility.yul\":1171:1203   */\n      slt\n        /* \"#utility.yul\":1168:1287   */\n      iszero\n      tag_107\n      jumpi\n        /* \"#utility.yul\":1206:1285   */\n      tag_108\n      tag_109\n      jump\t// in\n    tag_108:\n        /* \"#utility.yul\":1168:1287   */\n    tag_107:\n        /* \"#utility.yul\":1326:1327   */\n      0x00\n        /* \"#utility.yul\":1351:1404   */\n      tag_110\n        /* \"#utility.yul\":1396:1403   */\n      dup6\n        /* \"#utility.yul\":1387:1393   */\n      dup3\n        /* \"#utility.yul\":1376:1385   */\n      dup7\n        /* \"#utility.yul\":1372:1394   */\n      add\n        /* \"#utility.yul\":1351:1404   */\n      tag_92\n      jump\t// in\n    tag_110:\n        /* \"#utility.yul\":1341:1404   */\n      swap3\n      pop\n        /* \"#utility.yul\":1297:1414   */\n      pop\n        /* \"#utility.yul\":1453:1455   */\n      0x20\n        /* \"#utility.yul\":1479:1532   */\n      tag_111\n        /* \"#utility.yul\":1524:1531   */\n      dup6\n        /* \"#utility.yul\":1515:1521   */\n      dup3\n        /* \"#utility.yul\":1504:1513   */\n      dup7\n        /* \"#utility.yul\":1500:1522   */\n      add\n        /* \"#utility.yul\":1479:1532   */\n      tag_102\n      jump\t// in\n    tag_111:\n        /* \"#utility.yul\":1469:1532   */\n      swap2\n      pop\n        /* \"#utility.yul\":1424:1542   */\n      pop\n        /* \"#utility.yul\":1075:1549   */\n      swap3\n      pop\n      swap3\n      swap1\n      pop\n      jump\t// out\n        /* \"#utility.yul\":1555:1884   */\n    tag_10:\n        /* \"#utility.yul\":1614:1620   */\n      0x00\n        /* \"#utility.yul\":1663:1665   */\n      0x20\n        /* \"#utility.yul\":1651:1660   */\n      dup3\n        /* \"#utility.yul\":1642:1649   */\n      dup5\n        /* \"#utility.yul\":1638:1661   */\n      sub\n        /* \"#utility.yul\":1634:1666   */\n      slt\n        /* \"#utility.yul\":1631:1750   */\n      iszero\n      tag_113\n      jumpi\n        /* \"#utility.yul\":1669:1748   */\n      tag_114\n      tag_109\n      jump\t// in\n    tag_114:\n        /* \"#utility.yul\":1631:1750   */\n    tag_113:\n        /* \"#utility.yul\":1789:1790   */\n      0x00\n        /* \"#utility.yul\":1814:1867   */\n      tag_115\n        /* \"#utility.yul\":1859:1866   */\n      dup5\n        /* \"#utility.yul\":1850:1856   */\n      dup3\n        /* \"#utility.yul\":1839:1848   */\n      dup6\n        /* \"#utility.yul\":1835:1857   */\n      add\n        /* \"#utility.yul\":1814:1867   */\n      tag_102\n      jump\t// in\n    tag_115:\n        /* \"#utility.yul\":1804:1867   */\n      swap2\n      pop\n        /* \"#utility.yul\":1760:1877   */\n      pop\n        /* \"#utility.yul\":1555:1884   */\n      swap3\n      swap2\n      pop\n      pop\n      jump\t// out\n        /* \"#utility.yul\":1890:2835   */\n    tag_32:\n        /* \"#utility.yul\":1986:1992   */\n      0x00\n        /* \"#utility.yul\":1994:2000   */\n      dup1\n        /* \"#utility.yul\":2002:2008   */\n      0x00\n        /* \"#utility.yul\":2010:2016   */\n      dup1\n        /* \"#utility.yul\":2059:2062   */\n      0x80\n        /* \"#utility.yul\":2047:2056   */\n      dup6\n        /* \"#utility.yul\":2038:2045   */\n      dup8\n        /* \"#utility.yul\":2034:2057   */\n      sub\n        /* \"#utility.yul\":2030:2063   */\n      slt\n        /* \"#utility.yul\":2027:2147   */\n      iszero\n      tag_117\n      jumpi\n        /* \"#utility.yul\":2066:2145   */\n      tag_118\n      tag_109\n      jump\t// in\n    tag_118:\n        /* \"#utility.yul\":2027:2147   */\n    tag_117:\n        /* \"#utility.yul\":2186:2187   */\n      0x00\n        /* \"#utility.yul\":2211:2264   */\n      tag_119\n        /* \"#utility.yul\":2256:2263   */\n      dup8\n        /* \"#utility.yul\":2247:2253   */\n      dup3\n        /* \"#utility.yul\":2236:2245   */\n      dup9\n        /* \"#utility.yul\":2232:2254   */\n      add\n        /* \"#utility.yul\":2211:2264   */\n      tag_102\n      jump\t// in\n    tag_119:\n        /* \"#utility.yul\":2201:2264   */\n      swap5\n      pop\n        /* \"#utility.yul\":2157:2274   */\n      pop\n        /* \"#utility.yul\":2341:2343   */\n      0x20\n        /* \"#utility.yul\":2330:2339   */\n      dup6\n        /* \"#utility.yul\":2326:2344   */\n      add\n        /* \"#utility.yul\":2313:2345   */\n      calldataload\n        /* \"#utility.yul\":2372:2390   */\n      0xffffffffffffffff\n        /* \"#utility.yul\":2364:2370   */\n      dup2\n        /* \"#utility.yul\":2361:2391   */\n      gt\n        /* \"#utility.yul\":2358:2475   */\n      iszero\n      tag_120\n      jumpi\n        /* \"#utility.yul\":2394:2473   */\n      tag_121\n      tag_122\n      jump\t// in\n    tag_121:\n        /* \"#utility.yul\":2358:2475   */\n    tag_120:\n        /* \"#utility.yul\":2499:2562   */\n      tag_123\n        /* \"#utility.yul\":2554:2561   */\n      dup8\n        /* \"#utility.yul\":2545:2551   */\n      dup3\n        /* \"#utility.yul\":2534:2543   */\n      dup9\n        /* \"#utility.yul\":2530:2552   */\n      add\n        /* \"#utility.yul\":2499:2562   */\n      tag_96\n      jump\t// in\n    tag_123:\n        /* \"#utility.yul\":2489:2562   */\n      swap4\n      pop\n        /* \"#utility.yul\":2284:2572   */\n      pop\n        /* \"#utility.yul\":2611:2613   */\n      0x40\n        /* \"#utility.yul\":2637:2690   */\n      tag_124\n        /* \"#utility.yul\":2682:2689   */\n      dup8\n        /* \"#utility.yul\":2673:2679   */\n      dup3\n        /* \"#utility.yul\":2662:2671   */\n      dup9\n        /* \"#utility.yul\":2658:2680   */\n      add\n        /* \"#utility.yul\":2637:2690   */\n      tag_102\n      jump\t// in\n    tag_124:\n        /* \"#utility.yul\":2627:2690   */\n      swap3\n      pop\n        /* \"#utility.yul\":2582:2700   */\n      pop\n        /* \"#utility.yul\":2739:2741   */\n      0x60\n        /* \"#utility.yul\":2765:2818   */\n      tag_125\n        /* \"#utility.yul\":2810:2817   */\n      dup8\n        /* \"#utility.yul\":2801:2807   */\n      dup3\n        /* \"#utility.yul\":2790:2799   */\n      dup9\n        /* \"#utility.yul\":2786:2808   */\n      add\n        /* \"#utility.yul\":2765:2818   */\n      tag_102\n      jump\t// in\n    tag_125:\n        /* \"#utility.yul\":2755:2818   */\n      swap2\n      pop\n        /* \"#utility.yul\":2710:2828   */\n      pop\n        /* \"#utility.yul\":1890:2835   */\n      swap3\n      swap6\n      swap2\n      swap5\n      pop\n      swap3\n      pop\n      jump\t// out\n        /* \"#utility.yul\":2841:3315   */\n    tag_16:\n        /* \"#utility.yul\":2909:2915   */\n      0x00\n        /* \"#utility.yul\":2917:2923   */\n      dup1\n        /* \"#utility.yul\":2966:2968   */\n      0x40\n        /* \"#utility.yul\":2954:2963   */\n      dup4\n        /* \"#utility.yul\":2945:2952   */\n      dup6\n        /* \"#utility.yul\":2941:2964   */\n      sub\n        /* \"#utility.yul\":2937:2969   */\n      slt\n        /* \"#utility.yul\":2934:3053   */\n      iszero\n      tag_127\n      jumpi\n        /* \"#utility.yul\":2972:3051   */\n      tag_128\n      tag_109\n      jump\t// in\n    tag_128:\n        /* \"#utility.yul\":2934:3053   */\n    tag_127:\n        /* \"#utility.yul\":3092:3093   */\n      0x00\n        /* \"#utility.yul\":3117:3170   */\n      tag_129\n        /* \"#utility.yul\":3162:3169   */\n      dup6\n        /* \"#utility.yul\":3153:3159   */\n      dup3\n        /* \"#utility.yul\":3142:3151   */\n      dup7\n        /* \"#utility.yul\":3138:3160   */\n      add\n        /* \"#utility.yul\":3117:3170   */\n      tag_102\n      jump\t// in\n    tag_129:\n        /* \"#utility.yul\":3107:3170   */\n      swap3\n      pop\n        /* \"#utility.yul\":3063:3180   */\n      pop\n        /* \"#utility.yul\":3219:3221   */\n      0x20\n        /* \"#utility.yul\":3245:3298   */\n      tag_130\n        /* \"#utility.yul\":3290:3297   */\n      dup6\n        /* \"#utility.yul\":3281:3287   */\n      dup3\n        /* \"#utility.yul\":3270:3279   */\n      dup7\n        /* \"#utility.yul\":3266:3288   */\n      add\n        /* \"#utility.yul\":3245:3298   */\n      tag_102\n      jump\t// in\n    tag_130:\n        /* \"#utility.yul\":3235:3298   */\n      swap2\n      pop\n        /* \"#utility.yul\":3190:3308   */\n      pop\n        /* \"#utility.yul\":2841:3315   */\n      swap3\n      pop\n      swap3\n      swap1\n      pop\n      jump\t// out\n        /* \"#utility.yul\":3321:3439   */\n    tag_131:\n        /* \"#utility.yul\":3408:3432   */\n      tag_133\n        /* \"#utility.yul\":3426:3431   */\n      dup2\n        /* \"#utility.yul\":3408:3432   */\n      tag_134\n      jump\t// in\n    tag_133:\n        /* \"#utility.yul\":3403:3406   */\n      dup3\n        /* \"#utility.yul\":3396:3433   */\n      mstore\n        /* \"#utility.yul\":3321:3439   */\n      pop\n      pop\n      jump\t// out\n        /* \"#utility.yul\":3445:3809   */\n    tag_135:\n        /* \"#utility.yul\":3533:3536   */\n      0x00\n        /* \"#utility.yul\":3561:3600   */\n      tag_137\n        /* \"#utility.yul\":3594:3599   */\n      dup3\n        /* \"#utility.yul\":3561:3600   */\n      tag_138\n      jump\t// in\n    tag_137:\n        /* \"#utility.yul\":3616:3687   */\n      tag_139\n        /* \"#utility.yul\":3680:3686   */\n      dup2\n        /* \"#utility.yul\":3675:3678   */\n      dup6\n        /* \"#utility.yul\":3616:3687   */\n      tag_140\n      jump\t// in\n    tag_139:\n        /* \"#utility.yul\":3609:3687   */\n      swap4\n      pop\n        /* \"#utility.yul\":3696:3748   */\n      tag_141\n        /* \"#utility.yul\":3741:3747   */\n      dup2\n        /* \"#utility.yul\":3736:3739   */\n      dup6\n        /* \"#utility.yul\":3729:3733   */\n      0x20\n        /* \"#utility.yul\":3722:3727   */\n      dup7\n        /* \"#utility.yul\":3718:3734   */\n      add\n        /* \"#utility.yul\":3696:3748   */\n      tag_142\n      jump\t// in\n    tag_141:\n        /* \"#utility.yul\":3773:3802   */\n      tag_143\n        /* \"#utility.yul\":3795:3801   */\n      dup2\n        /* \"#utility.yul\":3773:3802   */\n      tag_144\n      jump\t// in\n    tag_143:\n        /* \"#utility.yul\":3768:3771   */\n      dup5\n        /* \"#utility.yul\":3764:3803   */\n      add\n        /* \"#utility.yul\":3757:3803   */\n      swap2\n      pop\n        /* \"#utility.yul\":3537:3809   */\n      pop\n        /* \"#utility.yul\":3445:3809   */\n      swap3\n      swap2\n      pop\n      pop\n      jump\t// out\n        /* \"#utility.yul\":3815:4181   */\n    tag_145:\n        /* \"#utility.yul\":3957:3960   */\n      0x00\n        /* \"#utility.yul\":3978:4045   */\n      tag_147\n        /* \"#utility.yul\":4042:4044   */\n      0x15\n        /* \"#utility.yul\":4037:4040   */\n      dup4\n        /* \"#utility.yul\":3978:4045   */\n      tag_140\n      jump\t// in\n    tag_147:\n        /* \"#utility.yul\":3971:4045   */\n      swap2\n      pop\n        /* \"#utility.yul\":4054:4147   */\n      tag_148\n        /* \"#utility.yul\":4143:4146   */\n      dup3\n        /* \"#utility.yul\":4054:4147   */\n      tag_149\n      jump\t// in\n    tag_148:\n        /* \"#utility.yul\":4172:4174   */\n      0x20\n        /* \"#utility.yul\":4167:4170   */\n      dup3\n        /* \"#utility.yul\":4163:4175   */\n      add\n        /* \"#utility.yul\":4156:4175   */\n      swap1\n      pop\n        /* \"#utility.yul\":3815:4181   */\n      swap2\n      swap1\n      pop\n      jump\t// out\n        /* \"#utility.yul\":4187:4553   */\n    tag_150:\n        /* \"#utility.yul\":4329:4332   */\n      0x00\n        /* \"#utility.yul\":4350:4417   */\n      tag_152\n        /* \"#utility.yul\":4414:4416   */\n      0x1c\n        /* \"#utility.yul\":4409:4412   */\n      dup4\n        /* \"#utility.yul\":4350:4417   */\n      tag_140\n      jump\t// in\n    tag_152:\n        /* \"#utility.yul\":4343:4417   */\n      swap2\n      pop\n        /* \"#utility.yul\":4426:4519   */\n      tag_153\n        /* \"#utility.yul\":4515:4518   */\n      dup3\n        /* \"#utility.yul\":4426:4519   */\n      tag_154\n      jump\t// in\n    tag_153:\n        /* \"#utility.yul\":4544:4546   */\n      0x20\n        /* \"#utility.yul\":4539:4542   */\n      dup3\n        /* \"#utility.yul\":4535:4547   */\n      add\n        /* \"#utility.yul\":4528:4547   */\n      swap1\n      pop\n        /* \"#utility.yul\":4187:4553   */\n      swap2\n      swap1\n      pop\n      jump\t// out\n        /* \"#utility.yul\":4559:4925   */\n    tag_155:\n        /* \"#utility.yul\":4701:4704   */\n      0x00\n        /* \"#utility.yul\":4722:4789   */\n      tag_157\n        /* \"#utility.yul\":4786:4788   */\n      0x20\n        /* \"#utility.yul\":4781:4784   */\n      dup4\n        /* \"#utility.yul\":4722:4789   */\n      tag_140\n      jump\t// in\n    tag_157:\n        /* \"#utility.yul\":4715:4789   */\n      swap2\n      pop\n        /* \"#utility.yul\":4798:4891   */\n      tag_158\n        /* \"#utility.yul\":4887:4890   */\n      dup3\n        /* \"#utility.yul\":4798:4891   */\n      tag_159\n      jump\t// in\n    tag_158:\n        /* \"#utility.yul\":4916:4918   */\n      0x20\n        /* \"#utility.yul\":4911:4914   */\n      dup3\n        /* \"#utility.yul\":4907:4919   */\n      add\n        /* \"#utility.yul\":4900:4919   */\n      swap1\n      pop\n        /* \"#utility.yul\":4559:4925   */\n      swap2\n      swap1\n      pop\n      jump\t// out\n        /* \"#utility.yul\":4931:5297   */\n    tag_160:\n        /* \"#utility.yul\":5073:5076   */\n      0x00\n        /* \"#utility.yul\":5094:5161   */\n      tag_162\n        /* \"#utility.yul\":5158:5160   */\n      0x16\n        /* \"#utility.yul\":5153:5156   */\n      dup4\n        /* \"#utility.yul\":5094:5161   */\n      tag_140\n      jump\t// in\n    tag_162:\n        /* \"#utility.yul\":5087:5161   */\n      swap2\n      pop\n        /* \"#utility.yul\":5170:5263   */\n      tag_163\n        /* \"#utility.yul\":5259:5262   */\n      dup3\n        /* \"#utility.yul\":5170:5263   */\n      tag_164\n      jump\t// in\n    tag_163:\n        /* \"#utility.yul\":5288:5290   */\n      0x20\n        /* \"#utility.yul\":5283:5286   */\n      dup3\n        /* \"#utility.yul\":5279:5291   */\n      add\n        /* \"#utility.yul\":5272:5291   */\n      swap1\n      pop\n        /* \"#utility.yul\":4931:5297   */\n      swap2\n      swap1\n      pop\n      jump\t// out\n        /* \"#utility.yul\":5303:5669   */\n    tag_165:\n        /* \"#utility.yul\":5445:5448   */\n      0x00\n        /* \"#utility.yul\":5466:5533   */\n      tag_167\n        /* \"#utility.yul\":5530:5532   */\n      0x21\n        /* \"#utility.yul\":5525:5528   */\n      dup4\n        /* \"#utility.yul\":5466:5533   */\n      tag_140\n      jump\t// in\n    tag_167:\n        /* \"#utility.yul\":5459:5533   */\n      swap2\n      pop\n        /* \"#utility.yul\":5542:5635   */\n      tag_168\n        /* \"#utility.yul\":5631:5634   */\n      dup3\n        /* \"#utility.yul\":5542:5635   */\n      tag_169\n      jump\t// in\n    tag_168:\n        /* \"#utility.yul\":5660:5662   */\n      0x40\n        /* \"#utility.yul\":5655:5658   */\n      dup3\n        /* \"#utility.yul\":5651:5663   */\n      add\n        /* \"#utility.yul\":5644:5663   */\n      swap1\n      pop\n        /* \"#utility.yul\":5303:5669   */\n      swap2\n      swap1\n      pop\n      jump\t// out\n        /* \"#utility.yul\":5675:6041   */\n    tag_170:\n        /* \"#utility.yul\":5817:5820   */\n      0x00\n        /* \"#utility.yul\":5838:5905   */\n      tag_172\n        /* \"#utility.yul\":5902:5904   */\n      0x14\n        /* \"#utility.yul\":5897:5900   */\n      dup4\n        /* \"#utility.yul\":5838:5905   */\n      tag_140\n      jump\t// in\n    tag_172:\n        /* \"#utility.yul\":5831:5905   */\n      swap2\n      pop\n        /* \"#utility.yul\":5914:6007   */\n      tag_173\n        /* \"#utility.yul\":6003:6006   */\n      dup3\n        /* \"#utility.yul\":5914:6007   */\n      tag_174\n      jump\t// in\n    tag_173:\n        /* \"#utility.yul\":6032:6034   */\n      0x20\n        /* \"#utility.yul\":6027:6030   */\n      dup3\n        /* \"#utility.yul\":6023:6035   */\n      add\n        /* \"#utility.yul\":6016:6035   */\n      swap1\n      pop\n        /* \"#utility.yul\":5675:6041   */\n      swap2\n      swap1\n      pop\n      jump\t// out\n        /* \"#utility.yul\":6047:6165   */\n    tag_175:\n        /* \"#utility.yul\":6134:6158   */\n      tag_177\n        /* \"#utility.yul\":6152:6157   */\n      dup2\n        /* \"#utility.yul\":6134:6158   */\n      tag_178\n      jump\t// in\n    tag_177:\n        /* \"#utility.yul\":6129:6132   */\n      dup3\n        /* \"#utility.yul\":6122:6159   */\n      mstore\n        /* \"#utility.yul\":6047:6165   */\n      pop\n      pop\n      jump\t// out\n        /* \"#utility.yul\":6171:7037   */\n    tag_13:\n        /* \"#utility.yul\":6424:6428   */\n      0x00\n        /* \"#utility.yul\":6462:6465   */\n      0xc0\n        /* \"#utility.yul\":6451:6460   */\n      dup3\n        /* \"#utility.yul\":6447:6466   */\n      add\n        /* \"#utility.yul\":6439:6466   */\n      swap1\n      pop\n        /* \"#utility.yul\":6476:6547   */\n      tag_180\n        /* \"#utility.yul\":6544:6545   */\n      0x00\n        /* \"#utility.yul\":6533:6542   */\n      dup4\n        /* \"#utility.yul\":6529:6546   */\n      add\n        /* \"#utility.yul\":6520:6526   */\n      dup10\n        /* \"#utility.yul\":6476:6547   */\n      tag_131\n      jump\t// in\n    tag_180:\n        /* \"#utility.yul\":6557:6629   */\n      tag_181\n        /* \"#utility.yul\":6625:6627   */\n      0x20\n        /* \"#utility.yul\":6614:6623   */\n      dup4\n        /* \"#utility.yul\":6610:6628   */\n      add\n        /* \"#utility.yul\":6601:6607   */\n      dup9\n        /* \"#utility.yul\":6557:6629   */\n      tag_175\n      jump\t// in\n    tag_181:\n        /* \"#utility.yul\":6676:6685   */\n      dup2\n        /* \"#utility.yul\":6670:6674   */\n      dup2\n        /* \"#utility.yul\":6666:6686   */\n      sub\n        /* \"#utility.yul\":6661:6663   */\n      0x40\n        /* \"#utility.yul\":6650:6659   */\n      dup4\n        /* \"#utility.yul\":6646:6664   */\n      add\n        /* \"#utility.yul\":6639:6687   */\n      mstore\n        /* \"#utility.yul\":6704:6782   */\n      tag_182\n        /* \"#utility.yul\":6777:6781   */\n      dup2\n        /* \"#utility.yul\":6768:6774   */\n      dup8\n        /* \"#utility.yul\":6704:6782   */\n      tag_135\n      jump\t// in\n    tag_182:\n        /* \"#utility.yul\":6696:6782   */\n      swap1\n      pop\n        /* \"#utility.yul\":6792:6864   */\n      tag_183\n        /* \"#utility.yul\":6860:6862   */\n      0x60\n        /* \"#utility.yul\":6849:6858   */\n      dup4\n        /* \"#utility.yul\":6845:6863   */\n      add\n        /* \"#utility.yul\":6836:6842   */\n      dup7\n        /* \"#utility.yul\":6792:6864   */\n      tag_175\n      jump\t// in\n    tag_183:\n        /* \"#utility.yul\":6874:6947   */\n      tag_184\n        /* \"#utility.yul\":6942:6945   */\n      0x80\n        /* \"#utility.yul\":6931:6940   */\n      dup4\n        /* \"#utility.yul\":6927:6946   */\n      add\n        /* \"#utility.yul\":6918:6924   */\n      dup6\n        /* \"#utility.yul\":6874:6947   */\n      tag_175\n      jump\t// in\n    tag_184:\n        /* \"#utility.yul\":6957:7030   */\n      tag_185\n        /* \"#utility.yul\":7025:7028   */\n      0xa0\n        /* \"#utility.yul\":7014:7023   */\n      dup4\n        /* \"#utility.yul\":7010:7029   */\n      add\n        /* \"#utility.yul\":7001:7007   */\n      dup5\n        /* \"#utility.yul\":6957:7030   */\n      tag_175\n      jump\t// in\n    tag_185:\n        /* \"#utility.yul\":6171:7037   */\n      swap8\n      swap7\n      pop\n      pop\n      pop\n      pop\n      pop\n      pop\n      pop\n      jump\t// out\n        /* \"#utility.yul\":7043:7462   */\n    tag_51:\n        /* \"#utility.yul\":7209:7213   */\n      0x00\n        /* \"#utility.yul\":7247:7249   */\n      0x20\n        /* \"#utility.yul\":7236:7245   */\n      dup3\n        /* \"#utility.yul\":7232:7250   */\n      add\n        /* \"#utility.yul\":7224:7250   */\n      swap1\n      pop\n        /* \"#utility.yul\":7296:7305   */\n      dup2\n        /* \"#utility.yul\":7290:7294   */\n      dup2\n        /* \"#utility.yul\":7286:7306   */\n      sub\n        /* \"#utility.yul\":7282:7283   */\n      0x00\n        /* \"#utility.yul\":7271:7280   */\n      dup4\n        /* \"#utility.yul\":7267:7284   */\n      add\n        /* \"#utility.yul\":7260:7307   */\n      mstore\n        /* \"#utility.yul\":7324:7455   */\n      tag_187\n        /* \"#utility.yul\":7450:7454   */\n      dup2\n        /* \"#utility.yul\":7324:7455   */\n      tag_145\n      jump\t// in\n    tag_187:\n        /* \"#utility.yul\":7316:7455   */\n      swap1\n      pop\n        /* \"#utility.yul\":7043:7462   */\n      swap2\n      swap1\n      pop\n      jump\t// out\n        /* \"#utility.yul\":7468:7887   */\n    tag_54:\n        /* \"#utility.yul\":7634:7638   */\n      0x00\n        /* \"#utility.yul\":7672:7674   */\n      0x20\n        /* \"#utility.yul\":7661:7670   */\n      dup3\n        /* \"#utility.yul\":7657:7675   */\n      add\n        /* \"#utility.yul\":7649:7675   */\n      swap1\n      pop\n        /* \"#utility.yul\":7721:7730   */\n      dup2\n        /* \"#utility.yul\":7715:7719   */\n      dup2\n        /* \"#utility.yul\":7711:7731   */\n      sub\n        /* \"#utility.yul\":7707:7708   */\n      0x00\n        /* \"#utility.yul\":7696:7705   */\n      dup4\n        /* \"#utility.yul\":7692:7709   */\n      add\n        /* \"#utility.yul\":7685:7732   */\n      mstore\n        /* \"#utility.yul\":7749:7880   */\n      tag_189\n        /* \"#utility.yul\":7875:7879   */\n      dup2\n        /* \"#utility.yul\":7749:7880   */\n      tag_150\n      jump\t// in\n    tag_189:\n        /* \"#utility.yul\":7741:7880   */\n      swap1\n      pop\n        /* \"#utility.yul\":7468:7887   */\n      swap2\n      swap1\n      pop\n      jump\t// out\n        /* \"#utility.yul\":7893:8312   */\n    tag_65:\n        /* \"#utility.yul\":8059:8063   */\n      0x00\n        /* \"#utility.yul\":8097:8099   */\n      0x20\n        /* \"#utility.yul\":8086:8095   */\n      dup3\n        /* \"#utility.yul\":8082:8100   */\n      add\n        /* \"#utility.yul\":8074:8100   */\n      swap1\n      pop\n        /* \"#utility.yul\":8146:8155   */\n      dup2\n        /* \"#utility.yul\":8140:8144   */\n      dup2\n        /* \"#utility.yul\":8136:8156   */\n      sub\n        /* \"#utility.yul\":8132:8133   */\n      0x00\n        /* \"#utility.yul\":8121:8130   */\n      dup4\n        /* \"#utility.yul\":8117:8134   */\n      add\n        /* \"#utility.yul\":8110:8157   */\n      mstore\n        /* \"#utility.yul\":8174:8305   */\n      tag_191\n        /* \"#utility.yul\":8300:8304   */\n      dup2\n        /* \"#utility.yul\":8174:8305   */\n      tag_155\n      jump\t// in\n    tag_191:\n        /* \"#utility.yul\":8166:8305   */\n      swap1\n      pop\n        /* \"#utility.yul\":7893:8312   */\n      swap2\n      swap1\n      pop\n      jump\t// out\n        /* \"#utility.yul\":8318:8737   */\n    tag_46:\n        /* \"#utility.yul\":8484:8488   */\n      0x00\n        /* \"#utility.yul\":8522:8524   */\n      0x20\n        /* \"#utility.yul\":8511:8520   */\n      dup3\n        /* \"#utility.yul\":8507:8525   */\n      add\n        /* \"#utility.yul\":8499:8525   */\n      swap1\n      pop\n        /* \"#utility.yul\":8571:8580   */\n      dup2\n        /* \"#utility.yul\":8565:8569   */\n      dup2\n        /* \"#utility.yul\":8561:8581   */\n      sub\n        /* \"#utility.yul\":8557:8558   */\n      0x00\n        /* \"#utility.yul\":8546:8555   */\n      dup4\n        /* \"#utility.yul\":8542:8559   */\n      add\n        /* \"#utility.yul\":8535:8582   */\n      mstore\n        /* \"#utility.yul\":8599:8730   */\n      tag_193\n        /* \"#utility.yul\":8725:8729   */\n      dup2\n        /* \"#utility.yul\":8599:8730   */\n      tag_160\n      jump\t// in\n    tag_193:\n        /* \"#utility.yul\":8591:8730   */\n      swap1\n      pop\n        /* \"#utility.yul\":8318:8737   */\n      swap2\n      swap1\n      pop\n      jump\t// out\n        /* \"#utility.yul\":8743:9162   */\n    tag_62:\n        /* \"#utility.yul\":8909:8913   */\n      0x00\n        /* \"#utility.yul\":8947:8949   */\n      0x20\n        /* \"#utility.yul\":8936:8945   */\n      dup3\n        /* \"#utility.yul\":8932:8950   */\n      add\n        /* \"#utility.yul\":8924:8950   */\n      swap1\n      pop\n        /* \"#utility.yul\":8996:9005   */\n      dup2\n        /* \"#utility.yul\":8990:8994   */\n      dup2\n        /* \"#utility.yul\":8986:9006   */\n      sub\n        /* \"#utility.yul\":8982:8983   */\n      0x00\n        /* \"#utility.yul\":8971:8980   */\n      dup4\n        /* \"#utility.yul\":8967:8984   */\n      add\n        /* \"#utility.yul\":8960:9007   */\n      mstore\n        /* \"#utility.yul\":9024:9155   */\n      tag_195\n        /* \"#utility.yul\":9150:9154   */\n      dup2\n        /* \"#utility.yul\":9024:9155   */\n      tag_165\n      jump\t// in\n    tag_195:\n        /* \"#utility.yul\":9016:9155   */\n      swap1\n      pop\n        /* \"#utility.yul\":8743:9162   */\n      swap2\n      swap1\n      pop\n      jump\t// out\n        /* \"#utility.yul\":9168:9587   */\n    tag_43:\n        /* \"#utility.yul\":9334:9338   */\n      0x00\n        /* \"#utility.yul\":9372:9374   */\n      0x20\n        /* \"#utility.yul\":9361:9370   */\n      dup3\n        /* \"#utility.yul\":9357:9375   */\n      add\n        /* \"#utility.yul\":9349:9375   */\n      swap1\n      pop\n        /* \"#utility.yul\":9421:9430   */\n      dup2\n        /* \"#utility.yul\":9415:9419   */\n      dup2\n        /* \"#utility.yul\":9411:9431   */\n      sub\n        /* \"#utility.yul\":9407:9408   */\n      0x00\n        /* \"#utility.yul\":9396:9405   */\n      dup4\n        /* \"#utility.yul\":9392:9409   */\n      add\n        /* \"#utility.yul\":9385:9432   */\n      mstore\n        /* \"#utility.yul\":9449:9580   */\n      tag_197\n        /* \"#utility.yul\":9575:9579   */\n      dup2\n        /* \"#utility.yul\":9449:9580   */\n      tag_170\n      jump\t// in\n    tag_197:\n        /* \"#utility.yul\":9441:9580   */\n      swap1\n      pop\n        /* \"#utility.yul\":9168:9587   */\n      swap2\n      swap1\n      pop\n      jump\t// out\n        /* \"#utility.yul\":9593:9815   */\n    tag_22:\n        /* \"#utility.yul\":9686:9690   */\n      0x00\n        /* \"#utility.yul\":9724:9726   */\n      0x20\n        /* \"#utility.yul\":9713:9722   */\n      dup3\n        /* \"#utility.yul\":9709:9727   */\n      add\n        /* \"#utility.yul\":9701:9727   */\n      swap1\n      pop\n        /* \"#utility.yul\":9737:9808   */\n      tag_199\n        /* \"#utility.yul\":9805:9806   */\n      0x00\n        /* \"#utility.yul\":9794:9803   */\n      dup4\n        /* \"#utility.yul\":9790:9807   */\n      add\n        /* \"#utility.yul\":9781:9787   */\n      dup5\n        /* \"#utility.yul\":9737:9808   */\n      tag_175\n      jump\t// in\n    tag_199:\n        /* \"#utility.yul\":9593:9815   */\n      swap3\n      swap2\n      pop\n      pop\n      jump\t// out\n        /* \"#utility.yul\":9821:9950   */\n    tag_86:\n        /* \"#utility.yul\":9855:9861   */\n      0x00\n        /* \"#utility.yul\":9882:9902   */\n      tag_201\n      tag_202\n      jump\t// in\n    tag_201:\n        /* \"#utility.yul\":9872:9902   */\n      swap1\n      pop\n        /* \"#utility.yul\":9911:9944   */\n      tag_203\n        /* \"#utility.yul\":9939:9943   */\n      dup3\n        /* \"#utility.yul\":9931:9937   */\n      dup3\n        /* \"#utility.yul\":9911:9944   */\n      tag_204\n      jump\t// in\n    tag_203:\n        /* \"#utility.yul\":9821:9950   */\n      swap2\n      swap1\n      pop\n      jump\t// out\n        /* \"#utility.yul\":9956:10031   */\n    tag_202:\n        /* \"#utility.yul\":9989:9995   */\n      0x00\n        /* \"#utility.yul\":10022:10024   */\n      0x40\n        /* \"#utility.yul\":10016:10025   */\n      mload\n        /* \"#utility.yul\":10006:10025   */\n      swap1\n      pop\n        /* \"#utility.yul\":9956:10031   */\n      swap1\n      jump\t// out\n        /* \"#utility.yul\":10037:10345   */\n    tag_85:\n        /* \"#utility.yul\":10099:10103   */\n      0x00\n        /* \"#utility.yul\":10189:10207   */\n      0xffffffffffffffff\n        /* \"#utility.yul\":10181:10187   */\n      dup3\n        /* \"#utility.yul\":10178:10208   */\n      gt\n        /* \"#utility.yul\":10175:10231   */\n      iszero\n      tag_207\n      jumpi\n        /* \"#utility.yul\":10211:10229   */\n      tag_208\n      tag_209\n      jump\t// in\n    tag_208:\n        /* \"#utility.yul\":10175:10231   */\n    tag_207:\n        /* \"#utility.yul\":10249:10278   */\n      tag_210\n        /* \"#utility.yul\":10271:10277   */\n      dup3\n        /* \"#utility.yul\":10249:10278   */\n      tag_144\n      jump\t// in\n    tag_210:\n        /* \"#utility.yul\":10241:10278   */\n      swap1\n      pop\n        /* \"#utility.yul\":10333:10337   */\n      0x20\n        /* \"#utility.yul\":10327:10331   */\n      dup2\n        /* \"#utility.yul\":10323:10338   */\n      add\n        /* \"#utility.yul\":10315:10338   */\n      swap1\n      pop\n        /* \"#utility.yul\":10037:10345   */\n      swap2\n      swap1\n      pop\n      jump\t// out\n        /* \"#utility.yul\":10351:10450   */\n    tag_138:\n        /* \"#utility.yul\":10403:10409   */\n      0x00\n        /* \"#utility.yul\":10437:10442   */\n      dup2\n        /* \"#utility.yul\":10431:10443   */\n      mload\n        /* \"#utility.yul\":10421:10443   */\n      swap1\n      pop\n        /* \"#utility.yul\":10351:10450   */\n      swap2\n      swap1\n      pop\n      jump\t// out\n        /* \"#utility.yul\":10456:10625   */\n    tag_140:\n        /* \"#utility.yul\":10540:10551   */\n      0x00\n        /* \"#utility.yul\":10574:10580   */\n      dup3\n        /* \"#utility.yul\":10569:10572   */\n      dup3\n        /* \"#utility.yul\":10562:10581   */\n      mstore\n        /* \"#utility.yul\":10614:10618   */\n      0x20\n        /* \"#utility.yul\":10609:10612   */\n      dup3\n        /* \"#utility.yul\":10605:10619   */\n      add\n        /* \"#utility.yul\":10590:10619   */\n      swap1\n      pop\n        /* \"#utility.yul\":10456:10625   */\n      swap3\n      swap2\n      pop\n      pop\n      jump\t// out\n        /* \"#utility.yul\":10631:10936   */\n    tag_58:\n        /* \"#utility.yul\":10671:10674   */\n      0x00\n        /* \"#utility.yul\":10690:10710   */\n      tag_214\n        /* \"#utility.yul\":10708:10709   */\n      dup3\n        /* \"#utility.yul\":10690:10710   */\n      tag_178\n      jump\t// in\n    tag_214:\n        /* \"#utility.yul\":10685:10710   */\n      swap2\n      pop\n        /* \"#utility.yul\":10724:10744   */\n      tag_215\n        /* \"#utility.yul\":10742:10743   */\n      dup4\n        /* \"#utility.yul\":10724:10744   */\n      tag_178\n      jump\t// in\n    tag_215:\n        /* \"#utility.yul\":10719:10744   */\n      swap3\n      pop\n        /* \"#utility.yul\":10878:10879   */\n      dup3\n        /* \"#utility.yul\":10810:10876   */\n      0xffffffffffffffffffffffffffffffffffffffffffffffffffffffffffffffff\n        /* \"#utility.yul\":10806:10880   */\n      sub\n        /* \"#utility.yul\":10803:10804   */\n      dup3\n        /* \"#utility.yul\":10800:10881   */\n      gt\n        /* \"#utility.yul\":10797:10904   */\n      iszero\n      tag_216\n      jumpi\n        /* \"#utility.yul\":10884:10902   */\n      tag_217\n      tag_218\n      jump\t// in\n    tag_217:\n        /* \"#utility.yul\":10797:10904   */\n    tag_216:\n        /* \"#utility.yul\":10928:10929   */\n      dup3\n        /* \"#utility.yul\":10925:10926   */\n      dup3\n        /* \"#utility.yul\":10921:10930   */\n      add\n        /* \"#utility.yul\":10914:10930   */\n      swap1\n      pop\n        /* \"#utility.yul\":10631:10936   */\n      swap3\n      swap2\n      pop\n      pop\n      jump\t// out\n        /* \"#utility.yul\":10942:11290   */\n    tag_48:\n        /* \"#utility.yul\":10982:10989   */\n      0x00\n        /* \"#utility.yul\":11005:11025   */\n      tag_220\n        /* \"#utility.yul\":11023:11024   */\n      dup3\n        /* \"#utility.yul\":11005:11025   */\n      tag_178\n      jump\t// in\n    tag_220:\n        /* \"#utility.yul\":11000:11025   */\n      swap2\n      pop\n        /* \"#utility.yul\":11039:11059   */\n      tag_221\n        /* \"#utility.yul\":11057:11058   */\n      dup4\n        /* \"#utility.yul\":11039:11059   */\n      tag_178\n      jump\t// in\n    tag_221:\n        /* \"#utility.yul\":11034:11059   */\n      swap3\n      pop\n        /* \"#utility.yul\":11227:11228   */\n      dup2\n        /* \"#utility.yul\":11159:11225   */\n      0xffffffffffffffffffffffffffffffffffffffffffffffffffffffffffffffff\n        /* \"#utility.yul\":11155:11229   */\n      div\n        /* \"#utility.yul\":11152:11153   */\n      dup4\n        /* \"#utility.yul\":11149:11230   */\n      gt\n        /* \"#utility.yul\":11144:11145   */\n      dup3\n        /* \"#utility.yul\":11137:11146   */\n      iszero\n        /* \"#utility.yul\":11130:11147   */\n      iszero\n        /* \"#utility.yul\":11126:11231   */\n      and\n        /* \"#utility.yul\":11123:11254   */\n      iszero\n      tag_222\n      jumpi\n        /* \"#utility.yul\":11234:11252   */\n      tag_223\n      tag_218\n      jump\t// in\n    tag_223:\n        /* \"#utility.yul\":11123:11254   */\n    tag_222:\n        /* \"#utility.yul\":11282:11283   */\n      dup3\n        /* \"#utility.yul\":11279:11280   */\n      dup3\n        /* \"#utility.yul\":11275:11284   */\n      mul\n        /* \"#utility.yul\":11264:11284   */\n      swap1\n      pop\n        /* \"#utility.yul\":10942:11290   */\n      swap3\n      swap2\n      pop\n      pop\n      jump\t// out\n        /* \"#utility.yul\":11296:11487   */\n    tag_56:\n        /* \"#utility.yul\":11336:11340   */\n      0x00\n        /* \"#utility.yul\":11356:11376   */\n      tag_225\n        /* \"#utility.yul\":11374:11375   */\n      dup3\n        /* \"#utility.yul\":11356:11376   */\n      tag_178\n      jump\t// in\n    tag_225:\n        /* \"#utility.yul\":11351:11376   */\n      swap2\n      pop\n        /* \"#utility.yul\":11390:11410   */\n      tag_226\n        /* \"#utility.yul\":11408:11409   */\n      dup4\n        /* \"#utility.yul\":11390:11410   */\n      tag_178\n      jump\t// in\n    tag_226:\n        /* \"#utility.yul\":11385:11410   */\n      swap3\n      pop\n        /* \"#utility.yul\":11429:11430   */\n      dup3\n        /* \"#utility.yul\":11426:11427   */\n      dup3\n        /* \"#utility.yul\":11423:11431   */\n      lt\n        /* \"#utility.yul\":11420:11454   */\n      iszero\n      tag_227\n      jumpi\n        /* \"#utility.yul\":11434:11452   */\n      tag_228\n      tag_218\n      jump\t// in\n    tag_228:\n        /* \"#utility.yul\":11420:11454   */\n    tag_227:\n        /* \"#utility.yul\":11479:11480   */\n      dup3\n        /* \"#utility.yul\":11476:11477   */\n      dup3\n        /* \"#utility.yul\":11472:11481   */\n      sub\n        /* \"#utility.yul\":11464:11481   */\n      swap1\n      pop\n        /* \"#utility.yul\":11296:11487   */\n      swap3\n      swap2\n      pop\n      pop\n      jump\t// out\n        /* \"#utility.yul\":11493:11589   */\n    tag_134:\n        /* \"#utility.yul\":11530:11537   */\n      0x00\n        /* \"#utility.yul\":11559:11583   */\n      tag_230\n        /* \"#utility.yul\":11577:11582   */\n      dup3\n        /* \"#utility.yul\":11559:11583   */\n      tag_231\n      jump\t// in\n    tag_230:\n        /* \"#utility.yul\":11548:11583   */\n      swap1\n      pop\n        /* \"#utility.yul\":11493:11589   */\n      swap2\n      swap1\n      pop\n      jump\t// out\n        /* \"#utility.yul\":11595:11721   */\n    tag_231:\n        /* \"#utility.yul\":11632:11639   */\n      0x00\n        /* \"#utility.yul\":11672:11714   */\n      0xffffffffffffffffffffffffffffffffffffffff\n        /* \"#utility.yul\":11665:11670   */\n      dup3\n        /* \"#utility.yul\":11661:11715   */\n      and\n        /* \"#utility.yul\":11650:11715   */\n      swap1\n      pop\n        /* \"#utility.yul\":11595:11721   */\n      swap2\n      swap1\n      pop\n      jump\t// out\n        /* \"#utility.yul\":11727:11804   */\n    tag_178:\n        /* \"#utility.yul\":11764:11771   */\n      0x00\n        /* \"#utility.yul\":11793:11798   */\n      dup2\n        /* \"#utility.yul\":11782:11798   */\n      swap1\n      pop\n        /* \"#utility.yul\":11727:11804   */\n      swap2\n      swap1\n      pop\n      jump\t// out\n        /* \"#utility.yul\":11810:11964   */\n    tag_91:\n        /* \"#utility.yul\":11894:11900   */\n      dup3\n        /* \"#utility.yul\":11889:11892   */\n      dup2\n        /* \"#utility.yul\":11884:11887   */\n      dup4\n        /* \"#utility.yul\":11871:11901   */\n      calldatacopy\n        /* \"#utility.yul\":11956:11957   */\n      0x00\n        /* \"#utility.yul\":11947:11953   */\n      dup4\n        /* \"#utility.yul\":11942:11945   */\n      dup4\n        /* \"#utility.yul\":11938:11954   */\n      add\n        /* \"#utility.yul\":11931:11958   */\n      mstore\n        /* \"#utility.yul\":11810:11964   */\n      pop\n      pop\n      pop\n      jump\t// out\n        /* \"#utility.yul\":11970:12277   */\n    tag_142:\n        /* \"#utility.yul\":12038:12039   */\n      0x00\n        /* \"#utility.yul\":12048:12161   */\n    tag_236:\n        /* \"#utility.yul\":12062:12068   */\n      dup4\n        /* \"#utility.yul\":12059:12060   */\n      dup2\n        /* \"#utility.yul\":12056:12069   */\n      lt\n        /* \"#utility.yul\":12048:12161   */\n      iszero\n      tag_238\n      jumpi\n        /* \"#utility.yul\":12147:12148   */\n      dup1\n        /* \"#utility.yul\":12142:12145   */\n      dup3\n        /* \"#utility.yul\":12138:12149   */\n      add\n        /* \"#utility.yul\":12132:12150   */\n      mload\n        /* \"#utility.yul\":12128:12129   */\n      dup2\n        /* \"#utility.yul\":12123:12126   */\n      dup5\n        /* \"#utility.yul\":12119:12130   */\n      add\n        /* \"#utility.yul\":12112:12151   */\n      mstore\n        /* \"#utility.yul\":12084:12086   */\n      0x20\n        /* \"#utility.yul\":12081:12082   */\n      dup2\n        /* \"#utility.yul\":12077:12087   */\n      add\n        /* \"#utility.yul\":12072:12087   */\n      swap1\n      pop\n        /* \"#utility.yul\":12048:12161   */\n      jump(tag_236)\n    tag_238:\n        /* \"#utility.yul\":12179:12185   */\n      dup4\n        /* \"#utility.yul\":12176:12177   */\n      dup2\n        /* \"#utility.yul\":12173:12186   */\n      gt\n        /* \"#utility.yul\":12170:12271   */\n      iszero\n      tag_239\n      jumpi\n        /* \"#utility.yul\":12259:12260   */\n      0x00\n        /* \"#utility.yul\":12250:12256   */\n      dup5\n        /* \"#utility.yul\":12245:12248   */\n      dup5\n        /* \"#utility.yul\":12241:12257   */\n      add\n        /* \"#utility.yul\":12234:12261   */\n      mstore\n        /* \"#utility.yul\":12170:12271   */\n    tag_239:\n        /* \"#utility.yul\":12019:12277   */\n      pop\n        /* \"#utility.yul\":11970:12277   */\n      pop\n      pop\n      pop\n      jump\t// out\n        /* \"#utility.yul\":12283:12603   */\n    tag_35:\n        /* \"#utility.yul\":12327:12333   */\n      0x00\n        /* \"#utility.yul\":12364:12365   */\n      0x02\n        /* \"#utility.yul\":12358:12362   */\n      dup3\n        /* \"#utility.yul\":12354:12366   */\n      div\n        /* \"#utility.yul\":12344:12366   */\n      swap1\n      pop\n        /* \"#utility.yul\":12411:12412   */\n      0x01\n        /* \"#utility.yul\":12405:12409   */\n      dup3\n        /* \"#utility.yul\":12401:12413   */\n      and\n        /* \"#utility.yul\":12432:12450   */\n      dup1\n        /* \"#utility.yul\":12422:12503   */\n      tag_241\n      jumpi\n        /* \"#utility.yul\":12488:12492   */\n      0x7f\n        /* \"#utility.yul\":12480:12486   */\n      dup3\n        /* \"#utility.yul\":12476:12493   */\n      and\n        /* \"#utility.yul\":12466:12493   */\n      swap2\n      pop\n        /* \"#utility.yul\":12422:12503   */\n    tag_241:\n        /* \"#utility.yul\":12550:12552   */\n      0x20\n        /* \"#utility.yul\":12542:12548   */\n      dup3\n        /* \"#utility.yul\":12539:12553   */\n      lt\n        /* \"#utility.yul\":12519:12537   */\n      dup2\n        /* \"#utility.yul\":12516:12554   */\n      eq\n        /* \"#utility.yul\":12513:12597   */\n      iszero\n      tag_242\n      jumpi\n        /* \"#utility.yul\":12569:12587   */\n      tag_243\n      tag_244\n      jump\t// in\n    tag_243:\n        /* \"#utility.yul\":12513:12597   */\n    tag_242:\n        /* \"#utility.yul\":12334:12603   */\n      pop\n        /* \"#utility.yul\":12283:12603   */\n      swap2\n      swap1\n      pop\n      jump\t// out\n        /* \"#utility.yul\":12609:12890   */\n    tag_204:\n        /* \"#utility.yul\":12692:12719   */\n      tag_246\n        /* \"#utility.yul\":12714:12718   */\n      dup3\n        /* \"#utility.yul\":12692:12719   */\n      tag_144\n      jump\t// in\n    tag_246:\n        /* \"#utility.yul\":12684:12690   */\n      dup2\n        /* \"#utility.yul\":12680:12720   */\n      add\n        /* \"#utility.yul\":12822:12828   */\n      dup2\n        /* \"#utility.yul\":12810:12820   */\n      dup2\n        /* \"#utility.yul\":12807:12829   */\n      lt\n        /* \"#utility.yul\":12786:12804   */\n      0xffffffffffffffff\n        /* \"#utility.yul\":12774:12784   */\n      dup3\n        /* \"#utility.yul\":12771:12805   */\n      gt\n        /* \"#utility.yul\":12768:12830   */\n      or\n        /* \"#utility.yul\":12765:12853   */\n      iszero\n      tag_247\n      jumpi\n        /* \"#utility.yul\":12833:12851   */\n      tag_248\n      tag_209\n      jump\t// in\n    tag_248:\n        /* \"#utility.yul\":12765:12853   */\n    tag_247:\n        /* \"#utility.yul\":12873:12883   */\n      dup1\n        /* \"#utility.yul\":12869:12871   */\n      0x40\n        /* \"#utility.yul\":12862:12884   */\n      mstore\n        /* \"#utility.yul\":12652:12890   */\n      pop\n        /* \"#utility.yul\":12609:12890   */\n      pop\n      pop\n      jump\t// out\n        /* \"#utility.yul\":12896:13129   */\n    tag_69:\n        /* \"#utility.yul\":12935:12938   */\n      0x00\n        /* \"#utility.yul\":12958:12982   */\n      tag_250\n        /* \"#utility.yul\":12976:12981   */\n      dup3\n        /* \"#utility.yul\":12958:12982   */\n      tag_178\n      jump\t// in\n    tag_250:\n        /* \"#utility.yul\":12949:12982   */\n      swap2\n      pop\n        /* \"#utility.yul\":13004:13070   */\n      0xffffffffffffffffffffffffffffffffffffffffffffffffffffffffffffffff\n        /* \"#utility.yul\":12997:13002   */\n      dup3\n        /* \"#utility.yul\":12994:13071   */\n      eq\n        /* \"#utility.yul\":12991:13094   */\n      iszero\n      tag_251\n      jumpi\n        /* \"#utility.yul\":13074:13092   */\n      tag_252\n      tag_218\n      jump\t// in\n    tag_252:\n        /* \"#utility.yul\":12991:13094   */\n    tag_251:\n        /* \"#utility.yul\":13121:13122   */\n      0x01\n        /* \"#utility.yul\":13114:13119   */\n      dup3\n        /* \"#utility.yul\":13110:13123   */\n      add\n        /* \"#utility.yul\":13103:13123   */\n      swap1\n      pop\n        /* \"#utility.yul\":12896:13129   */\n      swap2\n      swap1\n      pop\n      jump\t// out\n        /* \"#utility.yul\":13135:13315   */\n    tag_218:\n        /* \"#utility.yul\":13183:13260   */\n      0x4e487b7100000000000000000000000000000000000000000000000000000000\n        /* \"#utility.yul\":13180:13181   */\n      0x00\n        /* \"#utility.yul\":13173:13261   */\n      mstore\n        /* \"#utility.yul\":13280:13284   */\n      0x11\n        /* \"#utility.yul\":13277:13278   */\n      0x04\n        /* \"#utility.yul\":13270:13285   */\n      mstore\n        /* \"#utility.yul\":13304:13308   */\n      0x24\n        /* \"#utility.yul\":13301:13302   */\n      0x00\n        /* \"#utility.yul\":13294:13309   */\n      revert\n        /* \"#utility.yul\":13321:13501   */\n    tag_244:\n        /* \"#utility.yul\":13369:13446   */\n      0x4e487b7100000000000000000000000000000000000000000000000000000000\n        /* \"#utility.yul\":13366:13367   */\n      0x00\n        /* \"#utility.yul\":13359:13447   */\n      mstore\n        /* \"#utility.yul\":13466:13470   */\n      0x22\n        /* \"#utility.yul\":13463:13464   */\n      0x04\n        /* \"#utility.yul\":13456:13471   */\n      mstore\n        /* \"#utility.yul\":13490:13494   */\n      0x24\n        /* \"#utility.yul\":13487:13488   */\n      0x00\n        /* \"#utility.yul\":13480:13495   */\n      revert\n        /* \"#utility.yul\":13507:13687   */\n    tag_209:\n        /* \"#utility.yul\":13555:13632   */\n      0x4e487b7100000000000000000000000000000000000000000000000000000000\n        /* \"#utility.yul\":13552:13553   */\n      0x00\n        /* \"#utility.yul\":13545:13633   */\n      mstore\n        /* \"#utility.yul\":13652:13656   */\n      0x41\n        /* \"#utility.yul\":13649:13650   */\n      0x04\n        /* \"#utility.yul\":13642:13657   */\n      mstore\n        /* \"#utility.yul\":13676:13680   */\n      0x24\n        /* \"#utility.yul\":13673:13674   */\n      0x00\n        /* \"#utility.yul\":13666:13681   */\n      revert\n        /* \"#utility.yul\":13693:13810   */\n    tag_100:\n        /* \"#utility.yul\":13802:13803   */\n      0x00\n        /* \"#utility.yul\":13799:13800   */\n      dup1\n        /* \"#utility.yul\":13792:13804   */\n      revert\n        /* \"#utility.yul\":13816:13933   */\n    tag_89:\n        /* \"#utility.yul\":13925:13926   */\n      0x00\n        /* \"#utility.yul\":13922:13923   */\n      dup1\n        /* \"#utility.yul\":13915:13927   */\n      revert\n        /* \"#utility.yul\":13939:14056   */\n    tag_122:\n        /* \"#utility.yul\":14048:14049   */\n      0x00\n        /* \"#utility.yul\":14045:14046   */\n      dup1\n        /* \"#utility.yul\":14038:14050   */\n      revert\n        /* \"#utility.yul\":14062:14179   */\n    tag_109:\n        /* \"#utility.yul\":14171:14172   */\n      0x00\n        /* \"#utility.yul\":14168:14169   */\n      dup1\n        /* \"#utility.yul\":14161:14173   */\n      revert\n        /* \"#utility.yul\":14185:14287   */\n    tag_144:\n        /* \"#utility.yul\":14226:14232   */\n      0x00\n        /* \"#utility.yul\":14277:14279   */\n      0x1f\n        /* \"#utility.yul\":14273:14280   */\n      not\n        /* \"#utility.yul\":14268:14270   */\n      0x1f\n        /* \"#utility.yul\":14261:14266   */\n      dup4\n        /* \"#utility.yul\":14257:14271   */\n      add\n        /* \"#utility.yul\":14253:14281   */\n      and\n        /* \"#utility.yul\":14243:14281   */\n      swap1\n      pop\n        /* \"#utility.yul\":14185:14287   */\n      swap2\n      swap1\n      pop\n      jump\t// out\n        /* \"#utility.yul\":14293:14464   */\n    tag_149:\n        /* \"#utility.yul\":14433:14456   */\n      0x457468657273206973206e6f7420656e6f756768210000000000000000000000\n        /* \"#utility.yul\":14429:14430   */\n      0x00\n        /* \"#utility.yul\":14421:14427   */\n      dup3\n        /* \"#utility.yul\":14417:14431   */\n      add\n        /* \"#utility.yul\":14410:14457   */\n      mstore\n        /* \"#utility.yul\":14293:14464   */\n      pop\n      jump\t// out\n        /* \"#utility.yul\":14470:14648   */\n    tag_154:\n        /* \"#utility.yul\":14610:14640   */\n      0x576520646f6e2774206861766520656e6f756768207469636b65747300000000\n        /* \"#utility.yul\":14606:14607   */\n      0x00\n        /* \"#utility.yul\":14598:14604   */\n      dup3\n        /* \"#utility.yul\":14594:14608   */\n      add\n        /* \"#utility.yul\":14587:14641   */\n      mstore\n        /* \"#utility.yul\":14470:14648   */\n      pop\n      jump\t// out\n        /* \"#utility.yul\":14654:14836   */\n    tag_159:\n        /* \"#utility.yul\":14794:14828   */\n      0x4576656e74206d75737420686176652061746c656173742031207469636b6574\n        /* \"#utility.yul\":14790:14791   */\n      0x00\n        /* \"#utility.yul\":14782:14788   */\n      dup3\n        /* \"#utility.yul\":14778:14792   */\n      add\n        /* \"#utility.yul\":14771:14829   */\n      mstore\n        /* \"#utility.yul\":14654:14836   */\n      pop\n      jump\t// out\n        /* \"#utility.yul\":14842:15014   */\n    tag_164:\n        /* \"#utility.yul\":14982:15006   */\n      0x4576656e7420626f6f6b696e6720697320636c6f736500000000000000000000\n        /* \"#utility.yul\":14978:14979   */\n      0x00\n        /* \"#utility.yul\":14970:14976   */\n      dup3\n        /* \"#utility.yul\":14966:14980   */\n      add\n        /* \"#utility.yul\":14959:15007   */\n      mstore\n        /* \"#utility.yul\":14842:15014   */\n      pop\n      jump\t// out\n        /* \"#utility.yul\":15020:15240   */\n    tag_169:\n        /* \"#utility.yul\":15160:15194   */\n      0x596f752063616e206f7267616e697a65206576656e7420666f72206675747572\n        /* \"#utility.yul\":15156:15157   */\n      0x00\n        /* \"#utility.yul\":15148:15154   */\n      dup3\n        /* \"#utility.yul\":15144:15158   */\n      add\n        /* \"#utility.yul\":15137:15195   */\n      mstore\n        /* \"#utility.yul\":15229:15232   */\n      0x6500000000000000000000000000000000000000000000000000000000000000\n        /* \"#utility.yul\":15224:15226   */\n      0x20\n        /* \"#utility.yul\":15216:15222   */\n      dup3\n        /* \"#utility.yul\":15212:15227   */\n      add\n        /* \"#utility.yul\":15205:15233   */\n      mstore\n        /* \"#utility.yul\":15020:15240   */\n      pop\n      jump\t// out\n        /* \"#utility.yul\":15246:15416   */\n    tag_174:\n        /* \"#utility.yul\":15386:15408   */\n      0x4576656e7420646f6573206e6f74206578697374000000000000000000000000\n        /* \"#utility.yul\":15382:15383   */\n      0x00\n        /* \"#utility.yul\":15374:15380   */\n      dup3\n        /* \"#utility.yul\":15370:15384   */\n      add\n        /* \"#utility.yul\":15363:15409   */\n      mstore\n        /* \"#utility.yul\":15246:15416   */\n      pop\n      jump\t// out\n        /* \"#utility.yul\":15422:15544   */\n    tag_95:\n        /* \"#utility.yul\":15495:15519   */\n      tag_268\n        /* \"#utility.yul\":15513:15518   */\n      dup2\n        /* \"#utility.yul\":15495:15519   */\n      tag_134\n      jump\t// in\n    tag_268:\n        /* \"#utility.yul\":15488:15493   */\n      dup2\n        /* \"#utility.yul\":15485:15520   */\n      eq\n        /* \"#utility.yul\":15475:15538   */\n      tag_269\n      jumpi\n        /* \"#utility.yul\":15534:15535   */\n      0x00\n        /* \"#utility.yul\":15531:15532   */\n      dup1\n        /* \"#utility.yul\":15524:15536   */\n      revert\n        /* \"#utility.yul\":15475:15538   */\n    tag_269:\n        /* \"#utility.yul\":15422:15544   */\n      pop\n      jump\t// out\n        /* \"#utility.yul\":15550:15672   */\n    tag_105:\n        /* \"#utility.yul\":15623:15647   */\n      tag_271\n        /* \"#utility.yul\":15641:15646   */\n      dup2\n        /* \"#utility.yul\":15623:15647   */\n      tag_178\n      jump\t// in\n    tag_271:\n        /* \"#utility.yul\":15616:15621   */\n      dup2\n        /* \"#utility.yul\":15613:15648   */\n      eq\n        /* \"#utility.yul\":15603:15666   */\n      tag_272\n      jumpi\n        /* \"#utility.yul\":15662:15663   */\n      0x00\n        /* \"#utility.yul\":15659:15660   */\n      dup1\n        /* \"#utility.yul\":15652:15664   */\n      revert\n        /* \"#utility.yul\":15603:15666   */\n    tag_272:\n        /* \"#utility.yul\":15550:15672   */\n      pop\n      jump\t// out\n\n    auxdata: 0xa2646970667358221220b281bb742a779326ae6555029282247f76d84d2afa160cf65e41a8a24f096ecb64736f6c63430008070033\n}\n",
				"bytecode": {
					"linkReferences": {},
					"object": "608060405234801561001057600080fd5b50610f23806100206000396000f3fe60806040526004361061004a5760003560e01c80630b7914301461004f578063298ec20814610091578063b3cea217146100ad578063dae7a13c146100d8578063f93694fb14610115575b600080fd5b34801561005b57600080fd5b5061007660048036038101906100719190610715565b61013e565b6040516100889695949392919061092e565b60405180910390f35b6100ab60048036038101906100a691906107c5565b610222565b005b3480156100b957600080fd5b506100c26103e4565b6040516100cf9190610a56565b60405180910390f35b3480156100e457600080fd5b506100ff60048036038101906100fa91906106d5565b6103ea565b60405161010c9190610a56565b60405180910390f35b34801561012157600080fd5b5061013c60048036038101906101379190610742565b61040f565b005b60006020528060005260406000206000915090508060000160009054906101000a900473ffffffffffffffffffffffffffffffffffffffff169080600101549080600201805461018d90610c45565b80601f01602080910402602001604051908101604052809291908181526020018280546101b990610c45565b80156102065780601f106101db57610100808354040283529160200191610206565b820191906000526020600020905b8154815290600101906020018083116101e957829003601f168201915b5050505050908060030154908060040154908060050154905086565b60008060008381526020019081526020016000209050600081600101541415610280576040517f08c379a000000000000000000000000000000000000000000000000000000000815260040161027790610a36565b60405180910390fd5b428160010154116102c6576040517f08c379a00000000000000000000000000000000000000000000000000000000081526004016102bd906109f6565b60405180910390fd5b348382600301546102d79190610b39565b14610317576040517f08c379a000000000000000000000000000000000000000000000000000000000815260040161030e90610996565b60405180910390fd5b8281600501541161035d576040517f08c379a0000000000000000000000000000000000000000000000000000000008152600401610354906109b6565b60405180910390fd5b828160050160008282546103719190610b93565b9250508190555082600160003373ffffffffffffffffffffffffffffffffffffffff1673ffffffffffffffffffffffffffffffffffffffff168152602001908152602001600020600084815260200190815260200160002060008282546103d89190610ae3565b92505081905550505050565b60025481565b6001602052816000526040600020602052806000526040600020600091509150505481565b428411610451576040517f08c379a000000000000000000000000000000000000000000000000000000000815260040161044890610a16565b60405180910390fd5b60008111610494576040517f08c379a000000000000000000000000000000000000000000000000000000000815260040161048b906109d6565b60405180910390fd5b6040518060c001604052803373ffffffffffffffffffffffffffffffffffffffff16815260200185815260200184815260200183815260200182815260200182815250600080600254815260200190815260200160002060008201518160000160006101000a81548173ffffffffffffffffffffffffffffffffffffffff021916908373ffffffffffffffffffffffffffffffffffffffff160217905550602082015181600101556040820151816002019080519060200190610558929190610598565b50606082015181600301556080820151816004015560a082015181600501559050506002600081548092919061058d90610ca8565b919050555050505050565b8280546105a490610c45565b90600052602060002090601f0160209004810192826105c6576000855561060d565b82601f106105df57805160ff191683800117855561060d565b8280016001018555821561060d579182015b8281111561060c5782518255916020019190600101906105f1565b5b50905061061a919061061e565b5090565b5b8082111561063757600081600090555060010161061f565b5090565b600061064e61064984610a96565b610a71565b90508281526020810184848401111561066a57610669610d83565b5b610675848285610c03565b509392505050565b60008135905061068c81610ebf565b92915050565b600082601f8301126106a7576106a6610d7e565b5b81356106b784826020860161063b565b91505092915050565b6000813590506106cf81610ed6565b92915050565b600080604083850312156106ec576106eb610d8d565b5b60006106fa8582860161067d565b925050602061070b858286016106c0565b9150509250929050565b60006020828403121561072b5761072a610d8d565b5b6000610739848285016106c0565b91505092915050565b6000806000806080858703121561075c5761075b610d8d565b5b600061076a878288016106c0565b945050602085013567ffffffffffffffff81111561078b5761078a610d88565b5b61079787828801610692565b93505060406107a8878288016106c0565b92505060606107b9878288016106c0565b91505092959194509250565b600080604083850312156107dc576107db610d8d565b5b60006107ea858286016106c0565b92505060206107fb858286016106c0565b9150509250929050565b61080e81610bc7565b82525050565b600061081f82610ac7565b6108298185610ad2565b9350610839818560208601610c12565b61084281610d92565b840191505092915050565b600061085a601583610ad2565b915061086582610da3565b602082019050919050565b600061087d601c83610ad2565b915061088882610dcc565b602082019050919050565b60006108a0602083610ad2565b91506108ab82610df5565b602082019050919050565b60006108c3601683610ad2565b91506108ce82610e1e565b602082019050919050565b60006108e6602183610ad2565b91506108f182610e47565b604082019050919050565b6000610909601483610ad2565b915061091482610e96565b602082019050919050565b61092881610bf9565b82525050565b600060c0820190506109436000830189610805565b610950602083018861091f565b81810360408301526109628187610814565b9050610971606083018661091f565b61097e608083018561091f565b61098b60a083018461091f565b979650505050505050565b600060208201905081810360008301526109af8161084d565b9050919050565b600060208201905081810360008301526109cf81610870565b9050919050565b600060208201905081810360008301526109ef81610893565b9050919050565b60006020820190508181036000830152610a0f816108b6565b9050919050565b60006020820190508181036000830152610a2f816108d9565b9050919050565b60006020820190508181036000830152610a4f816108fc565b9050919050565b6000602082019050610a6b600083018461091f565b92915050565b6000610a7b610a8c565b9050610a878282610c77565b919050565b6000604051905090565b600067ffffffffffffffff821115610ab157610ab0610d4f565b5b610aba82610d92565b9050602081019050919050565b600081519050919050565b600082825260208201905092915050565b6000610aee82610bf9565b9150610af983610bf9565b9250827fffffffffffffffffffffffffffffffffffffffffffffffffffffffffffffffff03821115610b2e57610b2d610cf1565b5b828201905092915050565b6000610b4482610bf9565b9150610b4f83610bf9565b9250817fffffffffffffffffffffffffffffffffffffffffffffffffffffffffffffffff0483118215151615610b8857610b87610cf1565b5b828202905092915050565b6000610b9e82610bf9565b9150610ba983610bf9565b925082821015610bbc57610bbb610cf1565b5b828203905092915050565b6000610bd282610bd9565b9050919050565b600073ffffffffffffffffffffffffffffffffffffffff82169050919050565b6000819050919050565b82818337600083830152505050565b60005b83811015610c30578082015181840152602081019050610c15565b83811115610c3f576000848401525b50505050565b60006002820490506001821680610c5d57607f821691505b60208210811415610c7157610c70610d20565b5b50919050565b610c8082610d92565b810181811067ffffffffffffffff82111715610c9f57610c9e610d4f565b5b80604052505050565b6000610cb382610bf9565b91507fffffffffffffffffffffffffffffffffffffffffffffffffffffffffffffffff821415610ce657610ce5610cf1565b5b600182019050919050565b7f4e487b7100000000000000000000000000000000000000000000000000000000600052601160045260246000fd5b7f4e487b7100000000000000000000000000000000000000000000000000000000600052602260045260246000fd5b7f4e487b7100000000000000000000000000000000000000000000000000000000600052604160045260246000fd5b600080fd5b600080fd5b600080fd5b600080fd5b6000601f19601f8301169050919050565b7f457468657273206973206e6f7420656e6f756768210000000000000000000000600082015250565b7f576520646f6e2774206861766520656e6f756768207469636b65747300000000600082015250565b7f4576656e74206d75737420686176652061746c656173742031207469636b6574600082015250565b7f4576656e7420626f6f6b696e6720697320636c6f736500000000000000000000600082015250565b7f596f752063616e206f7267616e697a65206576656e7420666f7220667574757260008201527f6500000000000000000000000000000000000000000000000000000000000000602082015250565b7f4576656e7420646f6573206e6f74206578697374000000000000000000000000600082015250565b610ec881610bc7565b8114610ed357600080fd5b50565b610edf81610bf9565b8114610eea57600080fd5b5056fea2646970667358221220b281bb742a779326ae6555029282247f76d84d2afa160cf65e41a8a24f096ecb64736f6c63430008070033",
					"opcodes": "PUSH1 0x80 PUSH1 0x40 MSTORE CALLVALUE DUP1 ISZERO PUSH2 0x10 JUMPI PUSH1 0x0 DUP1 REVERT JUMPDEST POP PUSH2 0xF23 DUP1 PUSH2 0x20 PUSH1 0x0 CODECOPY PUSH1 0x0 RETURN INVALID PUSH1 0x80 PUSH1 0x40 MSTORE PUSH1 0x4 CALLDATASIZE LT PUSH2 0x4A JUMPI PUSH1 0x0 CALLDATALOAD PUSH1 0xE0 SHR DUP1 PUSH4 0xB791430 EQ PUSH2 0x4F JUMPI DUP1 PUSH4 0x298EC208 EQ PUSH2 0x91 JUMPI DUP1 PUSH4 0xB3CEA217 EQ PUSH2 0xAD JUMPI DUP1 PUSH4 0xDAE7A13C EQ PUSH2 0xD8 JUMPI DUP1 PUSH4 0xF93694FB EQ PUSH2 0x115 JUMPI JUMPDEST PUSH1 0x0 DUP1 REVERT JUMPDEST CALLVALUE DUP1 ISZERO PUSH2 0x5B JUMPI PUSH1 0x0 DUP1 REVERT JUMPDEST POP PUSH2 0x76 PUSH1 0x4 DUP1 CALLDATASIZE SUB DUP2 ADD SWAP1 PUSH2 0x71 SWAP2 SWAP1 PUSH2 0x715 JUMP JUMPDEST PUSH2 0x13E JUMP JUMPDEST PUSH1 0x40 MLOAD PUSH2 0x88 SWAP7 SWAP6 SWAP5 SWAP4 SWAP3 SWAP2 SWAP1 PUSH2 0x92E JUMP JUMPDEST PUSH1 0x40 MLOAD DUP1 SWAP2 SUB SWAP1 RETURN JUMPDEST PUSH2 0xAB PUSH1 0x4 DUP1 CALLDATASIZE SUB DUP2 ADD SWAP1 PUSH2 0xA6 SWAP2 SWAP1 PUSH2 0x7C5 JUMP JUMPDEST PUSH2 0x222 JUMP JUMPDEST STOP JUMPDEST CALLVALUE DUP1 ISZERO PUSH2 0xB9 JUMPI PUSH1 0x0 DUP1 REVERT JUMPDEST POP PUSH2 0xC2 PUSH2 0x3E4 JUMP JUMPDEST PUSH1 0x40 MLOAD PUSH2 0xCF SWAP2 SWAP1 PUSH2 0xA56 JUMP JUMPDEST PUSH1 0x40 MLOAD DUP1 SWAP2 SUB SWAP1 RETURN JUMPDEST CALLVALUE DUP1 ISZERO PUSH2 0xE4 JUMPI PUSH1 0x0 DUP1 REVERT JUMPDEST POP PUSH2 0xFF PUSH1 0x4 DUP1 CALLDATASIZE SUB DUP2 ADD SWAP1 PUSH2 0xFA SWAP2 SWAP1 PUSH2 0x6D5 JUMP JUMPDEST PUSH2 0x3EA JUMP JUMPDEST PUSH1 0x40 MLOAD PUSH2 0x10C SWAP2 SWAP1 PUSH2 0xA56 JUMP JUMPDEST PUSH1 0x40 MLOAD DUP1 SWAP2 SUB SWAP1 RETURN JUMPDEST CALLVALUE DUP1 ISZERO PUSH2 0x121 JUMPI PUSH1 0x0 DUP1 REVERT JUMPDEST POP PUSH2 0x13C PUSH1 0x4 DUP1 CALLDATASIZE SUB DUP2 ADD SWAP1 PUSH2 0x137 SWAP2 SWAP1 PUSH2 0x742 JUMP JUMPDEST PUSH2 0x40F JUMP JUMPDEST STOP JUMPDEST PUSH1 0x0 PUSH1 0x20 MSTORE DUP1 PUSH1 0x0 MSTORE PUSH1 0x40 PUSH1 0x0 KECCAK256 PUSH1 0x0 SWAP2 POP SWAP1 POP DUP1 PUSH1 0x0 ADD PUSH1 0x0 SWAP1 SLOAD SWAP1 PUSH2 0x100 EXP SWAP1 DIV PUSH20 0xFFFFFFFFFFFFFFFFFFFFFFFFFFFFFFFFFFFFFFFF AND SWAP1 DUP1 PUSH1 0x1 ADD SLOAD SWAP1 DUP1 PUSH1 0x2 ADD DUP1 SLOAD PUSH2 0x18D SWAP1 PUSH2 0xC45 JUMP JUMPDEST DUP1 PUSH1 0x1F ADD PUSH1 0x20 DUP1 SWAP2 DIV MUL PUSH1 0x20 ADD PUSH1 0x40 MLOAD SWAP1 DUP2 ADD PUSH1 0x40 MSTORE DUP1 SWAP3 SWAP2 SWAP1 DUP2 DUP2 MSTORE PUSH1 0x20 ADD DUP3 DUP1 SLOAD PUSH2 0x1B9 SWAP1 PUSH2 0xC45 JUMP JUMPDEST DUP1 ISZERO PUSH2 0x206 JUMPI DUP1 PUSH1 0x1F LT PUSH2 0x1DB JUMPI PUSH2 0x100 DUP1 DUP4 SLOAD DIV MUL DUP4 MSTORE SWAP2 PUSH1 0x20 ADD SWAP2 PUSH2 0x206 JUMP JUMPDEST DUP3 ADD SWAP2 SWAP1 PUSH1 0x0 MSTORE PUSH1 0x20 PUSH1 0x0 KECCAK256 SWAP1 JUMPDEST DUP2 SLOAD DUP2 MSTORE SWAP1 PUSH1 0x1 ADD SWAP1 PUSH1 0x20 ADD DUP1 DUP4 GT PUSH2 0x1E9 JUMPI DUP3 SWAP1 SUB PUSH1 0x1F AND DUP3 ADD SWAP2 JUMPDEST POP POP POP POP POP SWAP1 DUP1 PUSH1 0x3 ADD SLOAD SWAP1 DUP1 PUSH1 0x4 ADD SLOAD SWAP1 DUP1 PUSH1 0x5 ADD SLOAD SWAP1 POP DUP7 JUMP JUMPDEST PUSH1 0x0 DUP1 PUSH1 0x0 DUP4 DUP2 MSTORE PUSH1 0x20 ADD SWAP1 DUP2 MSTORE PUSH1 0x20 ADD PUSH1 0x0 KECCAK256 SWAP1 POP PUSH1 0x0 DUP2 PUSH1 0x1 ADD SLOAD EQ ISZERO PUSH2 0x280 JUMPI PUSH1 0x40 MLOAD PUSH32 0x8C379A000000000000000000000000000000000000000000000000000000000 DUP2 MSTORE PUSH1 0x4 ADD PUSH2 0x277 SWAP1 PUSH2 0xA36 JUMP JUMPDEST PUSH1 0x40 MLOAD DUP1 SWAP2 SUB SWAP1 REVERT JUMPDEST TIMESTAMP DUP2 PUSH1 0x1 ADD SLOAD GT PUSH2 0x2C6 JUMPI PUSH1 0x40 MLOAD PUSH32 0x8C379A000000000000000000000000000000000000000000000000000000000 DUP2 MSTORE PUSH1 0x4 ADD PUSH2 0x2BD SWAP1 PUSH2 0x9F6 JUMP JUMPDEST PUSH1 0x40 MLOAD DUP1 SWAP2 SUB SWAP1 REVERT JUMPDEST CALLVALUE DUP4 DUP3 PUSH1 0x3 ADD SLOAD PUSH2 0x2D7 SWAP2 SWAP1 PUSH2 0xB39 JUMP JUMPDEST EQ PUSH2 0x317 JUMPI PUSH1 0x40 MLOAD PUSH32 0x8C379A000000000000000000000000000000000000000000000000000000000 DUP2 MSTORE PUSH1 0x4 ADD PUSH2 0x30E SWAP1 PUSH2 0x996 JUMP JUMPDEST PUSH1 0x40 MLOAD DUP1 SWAP2 SUB SWAP1 REVERT JUMPDEST DUP3 DUP2 PUSH1 0x5 ADD SLOAD GT PUSH2 0x35D JUMPI PUSH1 0x40 MLOAD PUSH32 0x8C379A000000000000000000000000000000000000000000000000000000000 DUP2 MSTORE PUSH1 0x4 ADD PUSH2 0x354 SWAP1 PUSH2 0x9B6 JUMP JUMPDEST PUSH1 0x40 MLOAD DUP1 SWAP2 SUB SWAP1 REVERT JUMPDEST DUP3 DUP2 PUSH1 0x5 ADD PUSH1 0x0 DUP3 DUP3 SLOAD PUSH2 0x371 SWAP2 SWAP1 PUSH2 0xB93 JUMP JUMPDEST SWAP3 POP POP DUP2 SWAP1 SSTORE POP DUP3 PUSH1 0x1 PUSH1 0x0 CALLER PUSH20 0xFFFFFFFFFFFFFFFFFFFFFFFFFFFFFFFFFFFFFFFF AND PUSH20 0xFFFFFFFFFFFFFFFFFFFFFFFFFFFFFFFFFFFFFFFF AND DUP2 MSTORE PUSH1 0x20 ADD SWAP1 DUP2 MSTORE PUSH1 0x20 ADD PUSH1 0x0 KECCAK256 PUSH1 0x0 DUP5 DUP2 MSTORE PUSH1 0x20 ADD SWAP1 DUP2 MSTORE PUSH1 0x20 ADD PUSH1 0x0 KECCAK256 PUSH1 0x0 DUP3 DUP3 SLOAD PUSH2 0x3D8 SWAP2 SWAP1 PUSH2 0xAE3 JUMP JUMPDEST SWAP3 POP POP DUP2 SWAP1 SSTORE POP POP POP POP JUMP JUMPDEST PUSH1 0x2 SLOAD DUP2 JUMP JUMPDEST PUSH1 0x1 PUSH1 0x20 MSTORE DUP2 PUSH1 0x0 MSTORE PUSH1 0x40 PUSH1 0x0 KECCAK256 PUSH1 0x20 MSTORE DUP1 PUSH1 0x0 MSTORE PUSH1 0x40 PUSH1 0x0 KECCAK256 PUSH1 0x0 SWAP2 POP SWAP2 POP POP SLOAD DUP2 JUMP JUMPDEST TIMESTAMP DUP5 GT PUSH2 0x451 JUMPI PUSH1 0x40 MLOAD PUSH32 0x8C379A000000000000000000000000000000000000000000000000000000000 DUP2 MSTORE PUSH1 0x4 ADD PUSH2 0x448 SWAP1 PUSH2 0xA16 JUMP JUMPDEST PUSH1 0x40 MLOAD DUP1 SWAP2 SUB SWAP1 REVERT JUMPDEST PUSH1 0x0 DUP2 GT PUSH2 0x494 JUMPI PUSH1 0x40 MLOAD PUSH32 0x8C379A000000000000000000000000000000000000000000000000000000000 DUP2 MSTORE PUSH1 0x4 ADD PUSH2 0x48B SWAP1 PUSH2 0x9D6 JUMP JUMPDEST PUSH1 0x40 MLOAD DUP1 SWAP2 SUB SWAP1 REVERT JUMPDEST PUSH1 0x40 MLOAD DUP1 PUSH1 0xC0 ADD PUSH1 0x40 MSTORE DUP1 CALLER PUSH20 0xFFFFFFFFFFFFFFFFFFFFFFFFFFFFFFFFFFFFFFFF AND DUP2 MSTORE PUSH1 0x20 ADD DUP6 DUP2 MSTORE PUSH1 0x20 ADD DUP5 DUP2 MSTORE PUSH1 0x20 ADD DUP4 DUP2 MSTORE PUSH1 0x20 ADD DUP3 DUP2 MSTORE PUSH1 0x20 ADD DUP3 DUP2 MSTORE POP PUSH1 0x0 DUP1 PUSH1 0x2 SLOAD DUP2 MSTORE PUSH1 0x20 ADD SWAP1 DUP2 MSTORE PUSH1 0x20 ADD PUSH1 0x0 KECCAK256 PUSH1 0x0 DUP3 ADD MLOAD DUP2 PUSH1 0x0 ADD PUSH1 0x0 PUSH2 0x100 EXP DUP2 SLOAD DUP2 PUSH20 0xFFFFFFFFFFFFFFFFFFFFFFFFFFFFFFFFFFFFFFFF MUL NOT AND SWAP1 DUP4 PUSH20 0xFFFFFFFFFFFFFFFFFFFFFFFFFFFFFFFFFFFFFFFF AND MUL OR SWAP1 SSTORE POP PUSH1 0x20 DUP3 ADD MLOAD DUP2 PUSH1 0x1 ADD SSTORE PUSH1 0x40 DUP3 ADD MLOAD DUP2 PUSH1 0x2 ADD SWAP1 DUP1 MLOAD SWAP1 PUSH1 0x20 ADD SWAP1 PUSH2 0x558 SWAP3 SWAP2 SWAP1 PUSH2 0x598 JUMP JUMPDEST POP PUSH1 0x60 DUP3 ADD MLOAD DUP2 PUSH1 0x3 ADD SSTORE PUSH1 0x80 DUP3 ADD MLOAD DUP2 PUSH1 0x4 ADD SSTORE PUSH1 0xA0 DUP3 ADD MLOAD DUP2 PUSH1 0x5 ADD SSTORE SWAP1 POP POP PUSH1 0x2 PUSH1 0x0 DUP2 SLOAD DUP1 SWAP3 SWAP2 SWAP1 PUSH2 0x58D SWAP1 PUSH2 0xCA8 JUMP JUMPDEST SWAP2 SWAP1 POP SSTORE POP POP POP POP POP JUMP JUMPDEST DUP3 DUP1 SLOAD PUSH2 0x5A4 SWAP1 PUSH2 0xC45 JUMP JUMPDEST SWAP1 PUSH1 0x0 MSTORE PUSH1 0x20 PUSH1 0x0 KECCAK256 SWAP1 PUSH1 0x1F ADD PUSH1 0x20 SWAP1 DIV DUP2 ADD SWAP3 DUP3 PUSH2 0x5C6 JUMPI PUSH1 0x0 DUP6 SSTORE PUSH2 0x60D JUMP JUMPDEST DUP3 PUSH1 0x1F LT PUSH2 0x5DF JUMPI DUP1 MLOAD PUSH1 0xFF NOT AND DUP4 DUP1 ADD OR DUP6 SSTORE PUSH2 0x60D JUMP JUMPDEST DUP3 DUP1 ADD PUSH1 0x1 ADD DUP6 SSTORE DUP3 ISZERO PUSH2 0x60D JUMPI SWAP2 DUP3 ADD JUMPDEST DUP3 DUP2 GT ISZERO PUSH2 0x60C JUMPI DUP3 MLOAD DUP3 SSTORE SWAP2 PUSH1 0x20 ADD SWAP2 SWAP1 PUSH1 0x1 ADD SWAP1 PUSH2 0x5F1 JUMP JUMPDEST JUMPDEST POP SWAP1 POP PUSH2 0x61A SWAP2 SWAP1 PUSH2 0x61E JUMP JUMPDEST POP SWAP1 JUMP JUMPDEST JUMPDEST DUP1 DUP3 GT ISZERO PUSH2 0x637 JUMPI PUSH1 0x0 DUP2 PUSH1 0x0 SWAP1 SSTORE POP PUSH1 0x1 ADD PUSH2 0x61F JUMP JUMPDEST POP SWAP1 JUMP JUMPDEST PUSH1 0x0 PUSH2 0x64E PUSH2 0x649 DUP5 PUSH2 0xA96 JUMP JUMPDEST PUSH2 0xA71 JUMP JUMPDEST SWAP1 POP DUP3 DUP2 MSTORE PUSH1 0x20 DUP2 ADD DUP5 DUP5 DUP5 ADD GT ISZERO PUSH2 0x66A JUMPI PUSH2 0x669 PUSH2 0xD83 JUMP JUMPDEST JUMPDEST PUSH2 0x675 DUP5 DUP3 DUP6 PUSH2 0xC03 JUMP JUMPDEST POP SWAP4 SWAP3 POP POP POP JUMP JUMPDEST PUSH1 0x0 DUP2 CALLDATALOAD SWAP1 POP PUSH2 0x68C DUP2 PUSH2 0xEBF JUMP JUMPDEST SWAP3 SWAP2 POP POP JUMP JUMPDEST PUSH1 0x0 DUP3 PUSH1 0x1F DUP4 ADD SLT PUSH2 0x6A7 JUMPI PUSH2 0x6A6 PUSH2 0xD7E JUMP JUMPDEST JUMPDEST DUP2 CALLDATALOAD PUSH2 0x6B7 DUP5 DUP3 PUSH1 0x20 DUP7 ADD PUSH2 0x63B JUMP JUMPDEST SWAP2 POP POP SWAP3 SWAP2 POP POP JUMP JUMPDEST PUSH1 0x0 DUP2 CALLDATALOAD SWAP1 POP PUSH2 0x6CF DUP2 PUSH2 0xED6 JUMP JUMPDEST SWAP3 SWAP2 POP POP JUMP JUMPDEST PUSH1 0x0 DUP1 PUSH1 0x40 DUP4 DUP6 SUB SLT ISZERO PUSH2 0x6EC JUMPI PUSH2 0x6EB PUSH2 0xD8D JUMP JUMPDEST JUMPDEST PUSH1 0x0 PUSH2 0x6FA DUP6 DUP3 DUP7 ADD PUSH2 0x67D JUMP JUMPDEST SWAP3 POP POP PUSH1 0x20 PUSH2 0x70B DUP6 DUP3 DUP7 ADD PUSH2 0x6C0 JUMP JUMPDEST SWAP2 POP POP SWAP3 POP SWAP3 SWAP1 POP JUMP JUMPDEST PUSH1 0x0 PUSH1 0x20 DUP3 DUP5 SUB SLT ISZERO PUSH2 0x72B JUMPI PUSH2 0x72A PUSH2 0xD8D JUMP JUMPDEST JUMPDEST PUSH1 0x0 PUSH2 0x739 DUP5 DUP3 DUP6 ADD PUSH2 0x6C0 JUMP JUMPDEST SWAP2 POP POP SWAP3 SWAP2 POP POP JUMP JUMPDEST PUSH1 0x0 DUP1 PUSH1 0x0 DUP1 PUSH1 0x80 DUP6 DUP8 SUB SLT ISZERO PUSH2 0x75C JUMPI PUSH2 0x75B PUSH2 0xD8D JUMP JUMPDEST JUMPDEST PUSH1 0x0 PUSH2 0x76A DUP8 DUP3 DUP9 ADD PUSH2 0x6C0 JUMP JUMPDEST SWAP5 POP POP PUSH1 0x20 DUP6 ADD CALLDATALOAD PUSH8 0xFFFFFFFFFFFFFFFF DUP2 GT ISZERO PUSH2 0x78B JUMPI PUSH2 0x78A PUSH2 0xD88 JUMP JUMPDEST JUMPDEST PUSH2 0x797 DUP8 DUP3 DUP9 ADD PUSH2 0x692 JUMP JUMPDEST SWAP4 POP POP PUSH1 0x40 PUSH2 0x7A8 DUP8 DUP3 DUP9 ADD PUSH2 0x6C0 JUMP JUMPDEST SWAP3 POP POP PUSH1 0x60 PUSH2 0x7B9 DUP8 DUP3 DUP9 ADD PUSH2 0x6C0 JUMP JUMPDEST SWAP2 POP POP SWAP3 SWAP6 SWAP2 SWAP5 POP SWAP3 POP JUMP JUMPDEST PUSH1 0x0 DUP1 PUSH1 0x40 DUP4 DUP6 SUB SLT ISZERO PUSH2 0x7DC JUMPI PUSH2 0x7DB PUSH2 0xD8D JUMP JUMPDEST JUMPDEST PUSH1 0x0 PUSH2 0x7EA DUP6 DUP3 DUP7 ADD PUSH2 0x6C0 JUMP JUMPDEST SWAP3 POP POP PUSH1 0x20 PUSH2 0x7FB DUP6 DUP3 DUP7 ADD PUSH2 0x6C0 JUMP JUMPDEST SWAP2 POP POP SWAP3 POP SWAP3 SWAP1 POP JUMP JUMPDEST PUSH2 0x80E DUP2 PUSH2 0xBC7 JUMP JUMPDEST DUP3 MSTORE POP POP JUMP JUMPDEST PUSH1 0x0 PUSH2 0x81F DUP3 PUSH2 0xAC7 JUMP JUMPDEST PUSH2 0x829 DUP2 DUP6 PUSH2 0xAD2 JUMP JUMPDEST SWAP4 POP PUSH2 0x839 DUP2 DUP6 PUSH1 0x20 DUP7 ADD PUSH2 0xC12 JUMP JUMPDEST PUSH2 0x842 DUP2 PUSH2 0xD92 JUMP JUMPDEST DUP5 ADD SWAP2 POP POP SWAP3 SWAP2 POP POP JUMP JUMPDEST PUSH1 0x0 PUSH2 0x85A PUSH1 0x15 DUP4 PUSH2 0xAD2 JUMP JUMPDEST SWAP2 POP PUSH2 0x865 DUP3 PUSH2 0xDA3 JUMP JUMPDEST PUSH1 0x20 DUP3 ADD SWAP1 POP SWAP2 SWAP1 POP JUMP JUMPDEST PUSH1 0x0 PUSH2 0x87D PUSH1 0x1C DUP4 PUSH2 0xAD2 JUMP JUMPDEST SWAP2 POP PUSH2 0x888 DUP3 PUSH2 0xDCC JUMP JUMPDEST PUSH1 0x20 DUP3 ADD SWAP1 POP SWAP2 SWAP1 POP JUMP JUMPDEST PUSH1 0x0 PUSH2 0x8A0 PUSH1 0x20 DUP4 PUSH2 0xAD2 JUMP JUMPDEST SWAP2 POP PUSH2 0x8AB DUP3 PUSH2 0xDF5 JUMP JUMPDEST PUSH1 0x20 DUP3 ADD SWAP1 POP SWAP2 SWAP1 POP JUMP JUMPDEST PUSH1 0x0 PUSH2 0x8C3 PUSH1 0x16 DUP4 PUSH2 0xAD2 JUMP JUMPDEST SWAP2 POP PUSH2 0x8CE DUP3 PUSH2 0xE1E JUMP JUMPDEST PUSH1 0x20 DUP3 ADD SWAP1 POP SWAP2 SWAP1 POP JUMP JUMPDEST PUSH1 0x0 PUSH2 0x8E6 PUSH1 0x21 DUP4 PUSH2 0xAD2 JUMP JUMPDEST SWAP2 POP PUSH2 0x8F1 DUP3 PUSH2 0xE47 JUMP JUMPDEST PUSH1 0x40 DUP3 ADD SWAP1 POP SWAP2 SWAP1 POP JUMP JUMPDEST PUSH1 0x0 PUSH2 0x909 PUSH1 0x14 DUP4 PUSH2 0xAD2 JUMP JUMPDEST SWAP2 POP PUSH2 0x914 DUP3 PUSH2 0xE96 JUMP JUMPDEST PUSH1 0x20 DUP3 ADD SWAP1 POP SWAP2 SWAP1 POP JUMP JUMPDEST PUSH2 0x928 DUP2 PUSH2 0xBF9 JUMP JUMPDEST DUP3 MSTORE POP POP JUMP JUMPDEST PUSH1 0x0 PUSH1 0xC0 DUP3 ADD SWAP1 POP PUSH2 0x943 PUSH1 0x0 DUP4 ADD DUP10 PUSH2 0x805 JUMP JUMPDEST PUSH2 0x950 PUSH1 0x20 DUP4 ADD DUP9 PUSH2 0x91F JUMP JUMPDEST DUP2 DUP2 SUB PUSH1 0x40 DUP4 ADD MSTORE PUSH2 0x962 DUP2 DUP8 PUSH2 0x814 JUMP JUMPDEST SWAP1 POP PUSH2 0x971 PUSH1 0x60 DUP4 ADD DUP7 PUSH2 0x91F JUMP JUMPDEST PUSH2 0x97E PUSH1 0x80 DUP4 ADD DUP6 PUSH2 0x91F JUMP JUMPDEST PUSH2 0x98B PUSH1 0xA0 DUP4 ADD DUP5 PUSH2 0x91F JUMP JUMPDEST SWAP8 SWAP7 POP POP POP POP POP POP POP JUMP JUMPDEST PUSH1 0x0 PUSH1 0x20 DUP3 ADD SWAP1 POP DUP2 DUP2 SUB PUSH1 0x0 DUP4 ADD MSTORE PUSH2 0x9AF DUP2 PUSH2 0x84D JUMP JUMPDEST SWAP1 POP SWAP2 SWAP1 POP JUMP JUMPDEST PUSH1 0x0 PUSH1 0x20 DUP3 ADD SWAP1 POP DUP2 DUP2 SUB PUSH1 0x0 DUP4 ADD MSTORE PUSH2 0x9CF DUP2 PUSH2 0x870 JUMP JUMPDEST SWAP1 POP SWAP2 SWAP1 POP JUMP JUMPDEST PUSH1 0x0 PUSH1 0x20 DUP3 ADD SWAP1 POP DUP2 DUP2 SUB PUSH1 0x0 DUP4 ADD MSTORE PUSH2 0x9EF DUP2 PUSH2 0x893 JUMP JUMPDEST SWAP1 POP SWAP2 SWAP1 POP JUMP JUMPDEST PUSH1 0x0 PUSH1 0x20 DUP3 ADD SWAP1 POP DUP2 DUP2 SUB PUSH1 0x0 DUP4 ADD MSTORE PUSH2 0xA0F DUP2 PUSH2 0x8B6 JUMP JUMPDEST SWAP1 POP SWAP2 SWAP1 POP JUMP JUMPDEST PUSH1 0x0 PUSH1 0x20 DUP3 ADD SWAP1 POP DUP2 DUP2 SUB PUSH1 0x0 DUP4 ADD MSTORE PUSH2 0xA2F DUP2 PUSH2 0x8D9 JUMP JUMPDEST SWAP1 POP SWAP2 SWAP1 POP JUMP JUMPDEST PUSH1 0x0 PUSH1 0x20 DUP3 ADD SWAP1 POP DUP2 DUP2 SUB PUSH1 0x0 DUP4 ADD MSTORE PUSH2 0xA4F DUP2 PUSH2 0x8FC JUMP JUMPDEST SWAP1 POP SWAP2 SWAP1 POP JUMP JUMPDEST PUSH1 0x0 PUSH1 0x20 DUP3 ADD SWAP1 POP PUSH2 0xA6B PUSH1 0x0 DUP4 ADD DUP5 PUSH2 0x91F JUMP JUMPDEST SWAP3 SWAP2 POP POP JUMP JUMPDEST PUSH1 0x0 PUSH2 0xA7B PUSH2 0xA8C JUMP JUMPDEST SWAP1 POP PUSH2 0xA87 DUP3 DUP3 PUSH2 0xC77 JUMP JUMPDEST SWAP2 SWAP1 POP JUMP JUMPDEST PUSH1 0x0 PUSH1 0x40 MLOAD SWAP1 POP SWAP1 JUMP JUMPDEST PUSH1 0x0 PUSH8 0xFFFFFFFFFFFFFFFF DUP3 GT ISZERO PUSH2 0xAB1 JUMPI PUSH2 0xAB0 PUSH2 0xD4F JUMP JUMPDEST JUMPDEST PUSH2 0xABA DUP3 PUSH2 0xD92 JUMP JUMPDEST SWAP1 POP PUSH1 0x20 DUP2 ADD SWAP1 POP SWAP2 SWAP1 POP JUMP JUMPDEST PUSH1 0x0 DUP2 MLOAD SWAP1 POP SWAP2 SWAP1 POP JUMP JUMPDEST PUSH1 0x0 DUP3 DUP3 MSTORE PUSH1 0x20 DUP3 ADD SWAP1 POP SWAP3 SWAP2 POP POP JUMP JUMPDEST PUSH1 0x0 PUSH2 0xAEE DUP3 PUSH2 0xBF9 JUMP JUMPDEST SWAP2 POP PUSH2 0xAF9 DUP4 PUSH2 0xBF9 JUMP JUMPDEST SWAP3 POP DUP3 PUSH32 0xFFFFFFFFFFFFFFFFFFFFFFFFFFFFFFFFFFFFFFFFFFFFFFFFFFFFFFFFFFFFFFFF SUB DUP3 GT ISZERO PUSH2 0xB2E JUMPI PUSH2 0xB2D PUSH2 0xCF1 JUMP JUMPDEST JUMPDEST DUP3 DUP3 ADD SWAP1 POP SWAP3 SWAP2 POP POP JUMP JUMPDEST PUSH1 0x0 PUSH2 0xB44 DUP3 PUSH2 0xBF9 JUMP JUMPDEST SWAP2 POP PUSH2 0xB4F DUP4 PUSH2 0xBF9 JUMP JUMPDEST SWAP3 POP DUP2 PUSH32 0xFFFFFFFFFFFFFFFFFFFFFFFFFFFFFFFFFFFFFFFFFFFFFFFFFFFFFFFFFFFFFFFF DIV DUP4 GT DUP3 ISZERO ISZERO AND ISZERO PUSH2 0xB88 JUMPI PUSH2 0xB87 PUSH2 0xCF1 JUMP JUMPDEST JUMPDEST DUP3 DUP3 MUL SWAP1 POP SWAP3 SWAP2 POP POP JUMP JUMPDEST PUSH1 0x0 PUSH2 0xB9E DUP3 PUSH2 0xBF9 JUMP JUMPDEST SWAP2 POP PUSH2 0xBA9 DUP4 PUSH2 0xBF9 JUMP JUMPDEST SWAP3 POP DUP3 DUP3 LT ISZERO PUSH2 0xBBC JUMPI PUSH2 0xBBB PUSH2 0xCF1 JUMP JUMPDEST JUMPDEST DUP3 DUP3 SUB SWAP1 POP SWAP3 SWAP2 POP POP JUMP JUMPDEST PUSH1 0x0 PUSH2 0xBD2 DUP3 PUSH2 0xBD9 JUMP JUMPDEST SWAP1 POP SWAP2 SWAP1 POP JUMP JUMPDEST PUSH1 0x0 PUSH20 0xFFFFFFFFFFFFFFFFFFFFFFFFFFFFFFFFFFFFFFFF DUP3 AND SWAP1 POP SWAP2 SWAP1 POP JUMP JUMPDEST PUSH1 0x0 DUP2 SWAP1 POP SWAP2 SWAP1 POP JUMP JUMPDEST DUP3 DUP2 DUP4 CALLDATACOPY PUSH1 0x0 DUP4 DUP4 ADD MSTORE POP POP POP JUMP JUMPDEST PUSH1 0x0 JUMPDEST DUP4 DUP2 LT ISZERO PUSH2 0xC30 JUMPI DUP1 DUP3 ADD MLOAD DUP2 DUP5 ADD MSTORE PUSH1 0x20 DUP2 ADD SWAP1 POP PUSH2 0xC15 JUMP JUMPDEST DUP4 DUP2 GT ISZERO PUSH2 0xC3F JUMPI PUSH1 0x0 DUP5 DUP5 ADD MSTORE JUMPDEST POP POP POP POP JUMP JUMPDEST PUSH1 0x0 PUSH1 0x2 DUP3 DIV SWAP1 POP PUSH1 0x1 DUP3 AND DUP1 PUSH2 0xC5D JUMPI PUSH1 0x7F DUP3 AND SWAP2 POP JUMPDEST PUSH1 0x20 DUP3 LT DUP2 EQ ISZERO PUSH2 0xC71 JUMPI PUSH2 0xC70 PUSH2 0xD20 JUMP JUMPDEST JUMPDEST POP SWAP2 SWAP1 POP JUMP JUMPDEST PUSH2 0xC80 DUP3 PUSH2 0xD92 JUMP JUMPDEST DUP2 ADD DUP2 DUP2 LT PUSH8 0xFFFFFFFFFFFFFFFF DUP3 GT OR ISZERO PUSH2 0xC9F JUMPI PUSH2 0xC9E PUSH2 0xD4F JUMP JUMPDEST JUMPDEST DUP1 PUSH1 0x40 MSTORE POP POP POP JUMP JUMPDEST PUSH1 0x0 PUSH2 0xCB3 DUP3 PUSH2 0xBF9 JUMP JUMPDEST SWAP2 POP PUSH32 0xFFFFFFFFFFFFFFFFFFFFFFFFFFFFFFFFFFFFFFFFFFFFFFFFFFFFFFFFFFFFFFFF DUP3 EQ ISZERO PUSH2 0xCE6 JUMPI PUSH2 0xCE5 PUSH2 0xCF1 JUMP JUMPDEST JUMPDEST PUSH1 0x1 DUP3 ADD SWAP1 POP SWAP2 SWAP1 POP JUMP JUMPDEST PUSH32 0x4E487B7100000000000000000000000000000000000000000000000000000000 PUSH1 0x0 MSTORE PUSH1 0x11 PUSH1 0x4 MSTORE PUSH1 0x24 PUSH1 0x0 REVERT JUMPDEST PUSH32 0x4E487B7100000000000000000000000000000000000000000000000000000000 PUSH1 0x0 MSTORE PUSH1 0x22 PUSH1 0x4 MSTORE PUSH1 0x24 PUSH1 0x0 REVERT JUMPDEST PUSH32 0x4E487B7100000000000000000000000000000000000000000000000000000000 PUSH1 0x0 MSTORE PUSH1 0x41 PUSH1 0x4 MSTORE PUSH1 0x24 PUSH1 0x0 REVERT JUMPDEST PUSH1 0x0 DUP1 REVERT JUMPDEST PUSH1 0x0 DUP1 REVERT JUMPDEST PUSH1 0x0 DUP1 REVERT JUMPDEST PUSH1 0x0 DUP1 REVERT JUMPDEST PUSH1 0x0 PUSH1 0x1F NOT PUSH1 0x1F DUP4 ADD AND SWAP1 POP SWAP2 SWAP1 POP JUMP JUMPDEST PUSH32 0x457468657273206973206E6F7420656E6F756768210000000000000000000000 PUSH1 0x0 DUP3 ADD MSTORE POP JUMP JUMPDEST PUSH32 0x576520646F6E2774206861766520656E6F756768207469636B65747300000000 PUSH1 0x0 DUP3 ADD MSTORE POP JUMP JUMPDEST PUSH32 0x4576656E74206D75737420686176652061746C656173742031207469636B6574 PUSH1 0x0 DUP3 ADD MSTORE POP JUMP JUMPDEST PUSH32 0x4576656E7420626F6F6B696E6720697320636C6F736500000000000000000000 PUSH1 0x0 DUP3 ADD MSTORE POP JUMP JUMPDEST PUSH32 0x596F752063616E206F7267616E697A65206576656E7420666F72206675747572 PUSH1 0x0 DUP3 ADD MSTORE PUSH32 0x6500000000000000000000000000000000000000000000000000000000000000 PUSH1 0x20 DUP3 ADD MSTORE POP JUMP JUMPDEST PUSH32 0x4576656E7420646F6573206E6F74206578697374000000000000000000000000 PUSH1 0x0 DUP3 ADD MSTORE POP JUMP JUMPDEST PUSH2 0xEC8 DUP2 PUSH2 0xBC7 JUMP JUMPDEST DUP2 EQ PUSH2 0xED3 JUMPI PUSH1 0x0 DUP1 REVERT JUMPDEST POP JUMP JUMPDEST PUSH2 0xEDF DUP2 PUSH2 0xBF9 JUMP JUMPDEST DUP2 EQ PUSH2 0xEEA JUMPI PUSH1 0x0 DUP1 REVERT JUMPDEST POP JUMP INVALID LOG2 PUSH5 0x6970667358 0x22 SLT KECCAK256 0xB2 DUP2 0xBB PUSH21 0x2A779326AE6555029282247F76D84D2AFA160CF65E COINBASE 0xA8 LOG2 0x4F MULMOD PUSH15 0xCB64736F6C63430008070033000000 "
				},
				"gasEstimates": {
					"creation": {
						"codeDepositCost": "775000",
						"executionCost": "812",
						"totalCost": "775812"
					},
					"external": {
						"ID()": "2451",
						"buyTicket(uint256,uint256)": "infinite",
						"createEvent(uint256,string,uint256,uint256)": "infinite",
						"events(uint256)": "infinite",
						"tickets(address,uint256)": "infinite"
					}
				},
				"methodIdentifiers": {
					"ID()": "b3cea217",
					"buyTicket(uint256,uint256)": "298ec208",
					"createEvent(uint256,string,uint256,uint256)": "f93694fb",
					"events(uint256)": "0b791430",
					"tickets(address,uint256)": "dae7a13c"
				}
			},
			"storageLayout": {
				"storage": [
					{
						"astId": 19,
						"contract": "contract/EventOrganizingContract.sol:EventOrganize",
						"label": "events",
						"offset": 0,
						"slot": "0",
						"type": "t_mapping(t_uint256,t_struct(Event)14_storage)"
					},
					{
						"astId": 25,
						"contract": "contract/EventOrganizingContract.sol:EventOrganize",
						"label": "tickets",
						"offset": 0,
						"slot": "1",
						"type": "t_mapping(t_address,t_mapping(t_uint256,t_uint256))"
					},
					{
						"astId": 27,
						"contract": "contract/EventOrganizingContract.sol:EventOrganize",
						"label": "ID",
						"offset": 0,
						"slot": "2",
						"type": "t_uint256"
					}
				],
				"types": {
					"t_address": {
						"encoding": "inplace",
						"label": "address",
						"numberOfBytes": "20"
					},
					"t_mapping(t_address,t_mapping(t_uint256,t_uint256))": {
						"encoding": "mapping",
						"key": "t_address",
						"label": "mapping(address => mapping(uint256 => uint256))",
						"numberOfBytes": "32",
						"value": "t_mapping(t_uint256,t_uint256)"
					},
					"t_mapping(t_uint256,t_struct(Event)14_storage)": {
						"encoding": "mapping",
						"key": "t_uint256",
						"label": "mapping(uint256 => struct EventOrganize.Event)",
						"numberOfBytes": "32",
						"value": "t_struct(Event)14_storage"
					},
					"t_mapping(t_uint256,t_uint256)": {
						"encoding": "mapping",
						"key": "t_uint256",
						"label": "mapping(uint256 => uint256)",
						"numberOfBytes": "32",
						"value": "t_uint256"
					},
					"t_string_storage": {
						"encoding": "bytes",
						"label": "string",
						"numberOfBytes": "32"
					},
					"t_struct(Event)14_storage": {
						"encoding": "inplace",
						"label": "struct EventOrganize.Event",
						"members": [
							{
								"astId": 3,
								"contract": "contract/EventOrganizingContract.sol:EventOrganize",
								"label": "organizer",
								"offset": 0,
								"slot": "0",
								"type": "t_address"
							},
							{
								"astId": 5,
								"contract": "contract/EventOrganizingContract.sol:EventOrganize",
								"label": "date",
								"offset": 0,
								"slot": "1",
								"type": "t_uint256"
							},
							{
								"astId": 7,
								"contract": "contract/EventOrganizingContract.sol:EventOrganize",
								"label": "name",
								"offset": 0,
								"slot": "2",
								"type": "t_string_storage"
							},
							{
								"astId": 9,
								"contract": "contract/EventOrganizingContract.sol:EventOrganize",
								"label": "price",
								"offset": 0,
								"slot": "3",
								"type": "t_uint256"
							},
							{
								"astId": 11,
								"contract": "contract/EventOrganizingContract.sol:EventOrganize",
								"label": "ticketCount",
								"offset": 0,
								"slot": "4",
								"type": "t_uint256"
							},
							{
								"astId": 13,
								"contract": "contract/EventOrganizingContract.sol:EventOrganize",
								"label": "ticketRemain",
								"offset": 0,
								"slot": "5",
								"type": "t_uint256"
							}
						],
						"numberOfBytes": "192"
					},
					"t_uint256": {
						"encoding": "inplace",
						"label": "uint256",
						"numberOfBytes": "32"
					}
				}
			},
			"userdoc": {
				"kind": "user",
				"methods": {},
				"version": 1
			}
		}
	}
}