{
	"contract/EventOrganizingContract.sol": {
		"EventOrganize": {
			"abi": [
				{
					"inputs": [],
					"name": "ID",
					"outputs": [
						{
							"internalType": "uint256",
							"name": "",
							"type": "uint256"
						}
					],
					"stateMutability": "view",
					"type": "function"
				},
				{
					"inputs": [
						{
							"internalType": "uint256",
							"name": "_date",
							"type": "uint256"
						},
						{
							"internalType": "string",
							"name": "_name",
							"type": "string"
						},
						{
							"internalType": "uint256",
							"name": "_price",
							"type": "uint256"
						},
						{
							"internalType": "uint256",
							"name": "_ticketCount",
							"type": "uint256"
						}
					],
					"name": "createEvent",
					"outputs": [],
					"stateMutability": "nonpayable",
					"type": "function"
				},
				{
					"inputs": [
						{
							"internalType": "uint256",
							"name": "",
							"type": "uint256"
						}
					],
					"name": "events",
					"outputs": [
						{
							"internalType": "address",
							"name": "organizer",
							"type": "address"
						},
						{
							"internalType": "uint256",
							"name": "date",
							"type": "uint256"
						},
						{
							"internalType": "string",
							"name": "name",
							"type": "string"
						},
						{
							"internalType": "uint256",
							"name": "price",
							"type": "uint256"
						},
						{
							"internalType": "uint256",
							"name": "tiketCount",
							"type": "uint256"
						},
						{
							"internalType": "uint256",
							"name": "tiketRemain",
							"type": "uint256"
						}
					],
					"stateMutability": "view",
					"type": "function"
				},
				{
					"inputs": [
						{
							"internalType": "address",
							"name": "",
							"type": "address"
						},
						{
							"internalType": "uint256",
							"name": "",
							"type": "uint256"
						}
					],
					"name": "tickets",
					"outputs": [
						{
							"internalType": "uint256",
							"name": "",
							"type": "uint256"
						}
					],
					"stateMutability": "view",
					"type": "function"
				}
			],
			"devdoc": {
				"kind": "dev",
				"methods": {},
				"version": 1
			},
			"evm": {
				"assembly": "    /* \"contract/EventOrganizingContract.sol\":62:750  contract EventOrganize {\r... */\n  mstore(0x40, 0x80)\n  callvalue\n  dup1\n  iszero\n  tag_1\n  jumpi\n  0x00\n  dup1\n  revert\ntag_1:\n  pop\n  dataSize(sub_0)\n  dup1\n  dataOffset(sub_0)\n  0x00\n  codecopy\n  0x00\n  return\nstop\n\nsub_0: assembly {\n        /* \"contract/EventOrganizingContract.sol\":62:750  contract EventOrganize {\r... */\n      mstore(0x40, 0x80)\n      callvalue\n      dup1\n      iszero\n      tag_1\n      jumpi\n      0x00\n      dup1\n      revert\n    tag_1:\n      pop\n      jumpi(tag_2, lt(calldatasize, 0x04))\n      shr(0xe0, calldataload(0x00))\n      dup1\n      0x0b791430\n      eq\n      tag_3\n      jumpi\n      dup1\n      0xb3cea217\n      eq\n      tag_4\n      jumpi\n      dup1\n      0xdae7a13c\n      eq\n      tag_5\n      jumpi\n      dup1\n      0xf93694fb\n      eq\n      tag_6\n      jumpi\n    tag_2:\n      0x00\n      dup1\n      revert\n        /* \"contract/EventOrganizingContract.sol\":267:304  mapping (uint => Event) public events */\n    tag_3:\n      tag_7\n      0x04\n      dup1\n      calldatasize\n      sub\n      dup2\n      add\n      swap1\n      tag_8\n      swap2\n      swap1\n      tag_9\n      jump\t// in\n    tag_8:\n      tag_10\n      jump\t// in\n    tag_7:\n      mload(0x40)\n      tag_11\n      swap7\n      swap6\n      swap5\n      swap4\n      swap3\n      swap2\n      swap1\n      tag_12\n      jump\t// in\n    tag_11:\n      mload(0x40)\n      dup1\n      swap2\n      sub\n      swap1\n      return\n        /* \"contract/EventOrganizingContract.sol\":375:389  uint public ID */\n    tag_4:\n      tag_13\n      tag_14\n      jump\t// in\n    tag_13:\n      mload(0x40)\n      tag_15\n      swap2\n      swap1\n      tag_16\n      jump\t// in\n    tag_15:\n      mload(0x40)\n      dup1\n      swap2\n      sub\n      swap1\n      return\n        /* \"contract/EventOrganizingContract.sol\":311:368  mapping (address => mapping(uint => uint)) public tickets */\n    tag_5:\n      tag_17\n      0x04\n      dup1\n      calldatasize\n      sub\n      dup2\n      add\n      swap1\n      tag_18\n      swap2\n      swap1\n      tag_19\n      jump\t// in\n    tag_18:\n      tag_20\n      jump\t// in\n    tag_17:\n      mload(0x40)\n      tag_21\n      swap2\n      swap1\n      tag_16\n      jump\t// in\n    tag_21:\n      mload(0x40)\n      dup1\n      swap2\n      sub\n      swap1\n      return\n        /* \"contract/EventOrganizingContract.sol\":402:745  function createEvent(uint _date, string memory _name, uint _price, uint _ticketCount) public{\r... */\n    tag_6:\n      tag_22\n      0x04\n      dup1\n      calldatasize\n      sub\n      dup2\n      add\n      swap1\n      tag_23\n      swap2\n      swap1\n      tag_24\n      jump\t// in\n    tag_23:\n      tag_25\n      jump\t// in\n    tag_22:\n      stop\n        /* \"contract/EventOrganizingContract.sol\":267:304  mapping (uint => Event) public events */\n    tag_10:\n      mstore(0x20, 0x00)\n      dup1\n      0x00\n      mstore\n      keccak256(0x00, 0x40)\n      0x00\n      swap2\n      pop\n      swap1\n      pop\n      dup1\n      0x00\n      add\n      0x00\n      swap1\n      sload\n      swap1\n      0x0100\n      exp\n      swap1\n      div\n      0xffffffffffffffffffffffffffffffffffffffff\n      and\n      swap1\n      dup1\n      0x01\n      add\n      sload\n      swap1\n      dup1\n      0x02\n      add\n      dup1\n      sload\n      tag_26\n      swap1\n      tag_27\n      jump\t// in\n    tag_26:\n      dup1\n      0x1f\n      add\n      0x20\n      dup1\n      swap2\n      div\n      mul\n      0x20\n      add\n      mload(0x40)\n      swap1\n      dup2\n      add\n      0x40\n      mstore\n      dup1\n      swap3\n      swap2\n      swap1\n      dup2\n      dup2\n      mstore\n      0x20\n      add\n      dup3\n      dup1\n      sload\n      tag_28\n      swap1\n      tag_27\n      jump\t// in\n    tag_28:\n      dup1\n      iszero\n      tag_29\n      jumpi\n      dup1\n      0x1f\n      lt\n      tag_30\n      jumpi\n      0x0100\n      dup1\n      dup4\n      sload\n      div\n      mul\n      dup4\n      mstore\n      swap2\n      0x20\n      add\n      swap2\n      jump(tag_29)\n    tag_30:\n      dup3\n      add\n      swap2\n      swap1\n      0x00\n      mstore\n      keccak256(0x00, 0x20)\n      swap1\n    tag_31:\n      dup2\n      sload\n      dup2\n      mstore\n      swap1\n      0x01\n      add\n      swap1\n      0x20\n      add\n      dup1\n      dup4\n      gt\n      tag_31\n      jumpi\n      dup3\n      swap1\n      sub\n      0x1f\n      and\n      dup3\n      add\n      swap2\n    tag_29:\n      pop\n      pop\n      pop\n      pop\n      pop\n      swap1\n      dup1\n      0x03\n      add\n      sload\n      swap1\n      dup1\n      0x04\n      add\n      sload\n      swap1\n      dup1\n      0x05\n      add\n      sload\n      swap1\n      pop\n      dup7\n      jump\t// out\n        /* \"contract/EventOrganizingContract.sol\":375:389  uint public ID */\n    tag_14:\n      sload(0x02)\n      dup2\n      jump\t// out\n        /* \"contract/EventOrganizingContract.sol\":311:368  mapping (address => mapping(uint => uint)) public tickets */\n    tag_20:\n      mstore(0x20, 0x01)\n      dup2\n      0x00\n      mstore\n      mstore(0x20, keccak256(0x00, 0x40))\n      dup1\n      0x00\n      mstore\n      keccak256(0x00, 0x40)\n      0x00\n      swap2\n      pop\n      swap2\n      pop\n      pop\n      sload\n      dup2\n      jump\t// out\n        /* \"contract/EventOrganizingContract.sol\":402:745  function createEvent(uint _date, string memory _name, uint _price, uint _ticketCount) public{\r... */\n    tag_25:\n        /* \"contract/EventOrganizingContract.sol\":521:536  block.timestamp */\n      timestamp\n        /* \"contract/EventOrganizingContract.sol\":513:518  _date */\n      dup5\n        /* \"contract/EventOrganizingContract.sol\":513:536  _date > block.timestamp */\n      gt\n        /* \"contract/EventOrganizingContract.sol\":505:574  require(_date > block.timestamp, \"You can organize event for future\") */\n      tag_33\n      jumpi\n      mload(0x40)\n      0x08c379a000000000000000000000000000000000000000000000000000000000\n      dup2\n      mstore\n      0x04\n      add\n      tag_34\n      swap1\n      tag_35\n      jump\t// in\n    tag_34:\n      mload(0x40)\n      dup1\n      swap2\n      sub\n      swap1\n      revert\n    tag_33:\n        /* \"contract/EventOrganizingContract.sol\":608:609  0 */\n      0x00\n        /* \"contract/EventOrganizingContract.sol\":593:605  _ticketCount */\n      dup2\n        /* \"contract/EventOrganizingContract.sol\":593:609  _ticketCount > 0 */\n      gt\n        /* \"contract/EventOrganizingContract.sol\":585:646  require(_ticketCount > 0, \"Event must have atleast 1 ticket\") */\n      tag_36\n      jumpi\n      mload(0x40)\n      0x08c379a000000000000000000000000000000000000000000000000000000000\n      dup2\n      mstore\n      0x04\n      add\n      tag_37\n      swap1\n      tag_38\n      jump\t// in\n    tag_37:\n      mload(0x40)\n      dup1\n      swap2\n      sub\n      swap1\n      revert\n    tag_36:\n        /* \"contract/EventOrganizingContract.sol\":670:737  Event(msg.sender, _date, _name, _price, _ticketCount, _ticketCount) */\n      mload(0x40)\n      dup1\n      0xc0\n      add\n      0x40\n      mstore\n      dup1\n        /* \"contract/EventOrganizingContract.sol\":676:686  msg.sender */\n      caller\n        /* \"contract/EventOrganizingContract.sol\":670:737  Event(msg.sender, _date, _name, _price, _ticketCount, _ticketCount) */\n      0xffffffffffffffffffffffffffffffffffffffff\n      and\n      dup2\n      mstore\n      0x20\n      add\n        /* \"contract/EventOrganizingContract.sol\":688:693  _date */\n      dup6\n        /* \"contract/EventOrganizingContract.sol\":670:737  Event(msg.sender, _date, _name, _price, _ticketCount, _ticketCount) */\n      dup2\n      mstore\n      0x20\n      add\n        /* \"contract/EventOrganizingContract.sol\":695:700  _name */\n      dup5\n        /* \"contract/EventOrganizingContract.sol\":670:737  Event(msg.sender, _date, _name, _price, _ticketCount, _ticketCount) */\n      dup2\n      mstore\n      0x20\n      add\n        /* \"contract/EventOrganizingContract.sol\":702:708  _price */\n      dup4\n        /* \"contract/EventOrganizingContract.sol\":670:737  Event(msg.sender, _date, _name, _price, _ticketCount, _ticketCount) */\n      dup2\n      mstore\n      0x20\n      add\n        /* \"contract/EventOrganizingContract.sol\":710:722  _ticketCount */\n      dup3\n        /* \"contract/EventOrganizingContract.sol\":670:737  Event(msg.sender, _date, _name, _price, _ticketCount, _ticketCount) */\n      dup2\n      mstore\n      0x20\n      add\n        /* \"contract/EventOrganizingContract.sol\":724:736  _ticketCount */\n      dup3\n        /* \"contract/EventOrganizingContract.sol\":670:737  Event(msg.sender, _date, _name, _price, _ticketCount, _ticketCount) */\n      dup2\n      mstore\n      pop\n        /* \"contract/EventOrganizingContract.sol\":657:663  events */\n      0x00\n        /* \"contract/EventOrganizingContract.sol\":657:667  events[ID] */\n      dup1\n        /* \"contract/EventOrganizingContract.sol\":664:666  ID */\n      sload(0x02)\n        /* \"contract/EventOrganizingContract.sol\":657:667  events[ID] */\n      dup2\n      mstore\n      0x20\n      add\n      swap1\n      dup2\n      mstore\n      0x20\n      add\n      0x00\n      keccak256\n        /* \"contract/EventOrganizingContract.sol\":657:737  events[ID] = Event(msg.sender, _date, _name, _price, _ticketCount, _ticketCount) */\n      0x00\n      dup3\n      add\n      mload\n      dup2\n      0x00\n      add\n      exp(0x0100, 0x00)\n      dup2\n      sload\n      dup2\n      0xffffffffffffffffffffffffffffffffffffffff\n      mul\n      not\n      and\n      swap1\n      dup4\n      0xffffffffffffffffffffffffffffffffffffffff\n      and\n      mul\n      or\n      swap1\n      sstore\n      pop\n      0x20\n      dup3\n      add\n      mload\n      dup2\n      0x01\n      add\n      sstore\n      0x40\n      dup3\n      add\n      mload\n      dup2\n      0x02\n      add\n      swap1\n      dup1\n      mload\n      swap1\n      0x20\n      add\n      swap1\n      tag_39\n      swap3\n      swap2\n      swap1\n      tag_40\n      jump\t// in\n    tag_39:\n      pop\n      0x60\n      dup3\n      add\n      mload\n      dup2\n      0x03\n      add\n      sstore\n      0x80\n      dup3\n      add\n      mload\n      dup2\n      0x04\n      add\n      sstore\n      0xa0\n      dup3\n      add\n      mload\n      dup2\n      0x05\n      add\n      sstore\n      swap1\n      pop\n      pop\n        /* \"contract/EventOrganizingContract.sol\":402:745  function createEvent(uint _date, string memory _name, uint _price, uint _ticketCount) public{\r... */\n      pop\n      pop\n      pop\n      pop\n      jump\t// out\n    tag_40:\n      dup3\n      dup1\n      sload\n      tag_41\n      swap1\n      tag_27\n      jump\t// in\n    tag_41:\n      swap1\n      0x00\n      mstore\n      keccak256(0x00, 0x20)\n      swap1\n      0x1f\n      add\n      0x20\n      swap1\n      div\n      dup2\n      add\n      swap3\n      dup3\n      tag_43\n      jumpi\n      0x00\n      dup6\n      sstore\n      jump(tag_42)\n    tag_43:\n      dup3\n      0x1f\n      lt\n      tag_44\n      jumpi\n      dup1\n      mload\n      not(0xff)\n      and\n      dup4\n      dup1\n      add\n      or\n      dup6\n      sstore\n      jump(tag_42)\n    tag_44:\n      dup3\n      dup1\n      add\n      0x01\n      add\n      dup6\n      sstore\n      dup3\n      iszero\n      tag_42\n      jumpi\n      swap2\n      dup3\n      add\n    tag_45:\n      dup3\n      dup2\n      gt\n      iszero\n      tag_46\n      jumpi\n      dup3\n      mload\n      dup3\n      sstore\n      swap2\n      0x20\n      add\n      swap2\n      swap1\n      0x01\n      add\n      swap1\n      jump(tag_45)\n    tag_46:\n    tag_42:\n      pop\n      swap1\n      pop\n      tag_47\n      swap2\n      swap1\n      tag_48\n      jump\t// in\n    tag_47:\n      pop\n      swap1\n      jump\t// out\n    tag_48:\n    tag_49:\n      dup1\n      dup3\n      gt\n      iszero\n      tag_50\n      jumpi\n      0x00\n      dup2\n      0x00\n      swap1\n      sstore\n      pop\n      0x01\n      add\n      jump(tag_49)\n    tag_50:\n      pop\n      swap1\n      jump\t// out\n        /* \"#utility.yul\":7:419   */\n    tag_52:\n        /* \"#utility.yul\":85:90   */\n      0x00\n        /* \"#utility.yul\":110:176   */\n      tag_54\n        /* \"#utility.yul\":126:175   */\n      tag_55\n        /* \"#utility.yul\":168:174   */\n      dup5\n        /* \"#utility.yul\":126:175   */\n      tag_56\n      jump\t// in\n    tag_55:\n        /* \"#utility.yul\":110:176   */\n      tag_57\n      jump\t// in\n    tag_54:\n        /* \"#utility.yul\":101:176   */\n      swap1\n      pop\n        /* \"#utility.yul\":199:205   */\n      dup3\n        /* \"#utility.yul\":192:197   */\n      dup2\n        /* \"#utility.yul\":185:206   */\n      mstore\n        /* \"#utility.yul\":237:241   */\n      0x20\n        /* \"#utility.yul\":230:235   */\n      dup2\n        /* \"#utility.yul\":226:242   */\n      add\n        /* \"#utility.yul\":275:278   */\n      dup5\n        /* \"#utility.yul\":266:272   */\n      dup5\n        /* \"#utility.yul\":261:264   */\n      dup5\n        /* \"#utility.yul\":257:273   */\n      add\n        /* \"#utility.yul\":254:279   */\n      gt\n        /* \"#utility.yul\":251:363   */\n      iszero\n      tag_58\n      jumpi\n        /* \"#utility.yul\":282:361   */\n      tag_59\n      tag_60\n      jump\t// in\n    tag_59:\n        /* \"#utility.yul\":251:363   */\n    tag_58:\n        /* \"#utility.yul\":372:413   */\n      tag_61\n        /* \"#utility.yul\":406:412   */\n      dup5\n        /* \"#utility.yul\":401:404   */\n      dup3\n        /* \"#utility.yul\":396:399   */\n      dup6\n        /* \"#utility.yul\":372:413   */\n      tag_62\n      jump\t// in\n    tag_61:\n        /* \"#utility.yul\":91:419   */\n      pop\n        /* \"#utility.yul\":7:419   */\n      swap4\n      swap3\n      pop\n      pop\n      pop\n      jump\t// out\n        /* \"#utility.yul\":425:564   */\n    tag_63:\n        /* \"#utility.yul\":471:476   */\n      0x00\n        /* \"#utility.yul\":509:515   */\n      dup2\n        /* \"#utility.yul\":496:516   */\n      calldataload\n        /* \"#utility.yul\":487:516   */\n      swap1\n      pop\n        /* \"#utility.yul\":525:558   */\n      tag_65\n        /* \"#utility.yul\":552:557   */\n      dup2\n        /* \"#utility.yul\":525:558   */\n      tag_66\n      jump\t// in\n    tag_65:\n        /* \"#utility.yul\":425:564   */\n      swap3\n      swap2\n      pop\n      pop\n      jump\t// out\n        /* \"#utility.yul\":584:924   */\n    tag_67:\n        /* \"#utility.yul\":640:645   */\n      0x00\n        /* \"#utility.yul\":689:692   */\n      dup3\n        /* \"#utility.yul\":682:686   */\n      0x1f\n        /* \"#utility.yul\":674:680   */\n      dup4\n        /* \"#utility.yul\":670:687   */\n      add\n        /* \"#utility.yul\":666:693   */\n      slt\n        /* \"#utility.yul\":656:778   */\n      tag_69\n      jumpi\n        /* \"#utility.yul\":697:776   */\n      tag_70\n      tag_71\n      jump\t// in\n    tag_70:\n        /* \"#utility.yul\":656:778   */\n    tag_69:\n        /* \"#utility.yul\":814:820   */\n      dup2\n        /* \"#utility.yul\":801:821   */\n      calldataload\n        /* \"#utility.yul\":839:918   */\n      tag_72\n        /* \"#utility.yul\":914:917   */\n      dup5\n        /* \"#utility.yul\":906:912   */\n      dup3\n        /* \"#utility.yul\":899:903   */\n      0x20\n        /* \"#utility.yul\":891:897   */\n      dup7\n        /* \"#utility.yul\":887:904   */\n      add\n        /* \"#utility.yul\":839:918   */\n      tag_52\n      jump\t// in\n    tag_72:\n        /* \"#utility.yul\":830:918   */\n      swap2\n      pop\n        /* \"#utility.yul\":646:924   */\n      pop\n        /* \"#utility.yul\":584:924   */\n      swap3\n      swap2\n      pop\n      pop\n      jump\t// out\n        /* \"#utility.yul\":930:1069   */\n    tag_73:\n        /* \"#utility.yul\":976:981   */\n      0x00\n        /* \"#utility.yul\":1014:1020   */\n      dup2\n        /* \"#utility.yul\":1001:1021   */\n      calldataload\n        /* \"#utility.yul\":992:1021   */\n      swap1\n      pop\n        /* \"#utility.yul\":1030:1063   */\n      tag_75\n        /* \"#utility.yul\":1057:1062   */\n      dup2\n        /* \"#utility.yul\":1030:1063   */\n      tag_76\n      jump\t// in\n    tag_75:\n        /* \"#utility.yul\":930:1069   */\n      swap3\n      swap2\n      pop\n      pop\n      jump\t// out\n        /* \"#utility.yul\":1075:1549   */\n    tag_19:\n        /* \"#utility.yul\":1143:1149   */\n      0x00\n        /* \"#utility.yul\":1151:1157   */\n      dup1\n        /* \"#utility.yul\":1200:1202   */\n      0x40\n        /* \"#utility.yul\":1188:1197   */\n      dup4\n        /* \"#utility.yul\":1179:1186   */\n      dup6\n        /* \"#utility.yul\":1175:1198   */\n      sub\n        /* \"#utility.yul\":1171:1203   */\n      slt\n        /* \"#utility.yul\":1168:1287   */\n      iszero\n      tag_78\n      jumpi\n        /* \"#utility.yul\":1206:1285   */\n      tag_79\n      tag_80\n      jump\t// in\n    tag_79:\n        /* \"#utility.yul\":1168:1287   */\n    tag_78:\n        /* \"#utility.yul\":1326:1327   */\n      0x00\n        /* \"#utility.yul\":1351:1404   */\n      tag_81\n        /* \"#utility.yul\":1396:1403   */\n      dup6\n        /* \"#utility.yul\":1387:1393   */\n      dup3\n        /* \"#utility.yul\":1376:1385   */\n      dup7\n        /* \"#utility.yul\":1372:1394   */\n      add\n        /* \"#utility.yul\":1351:1404   */\n      tag_63\n      jump\t// in\n    tag_81:\n        /* \"#utility.yul\":1341:1404   */\n      swap3\n      pop\n        /* \"#utility.yul\":1297:1414   */\n      pop\n        /* \"#utility.yul\":1453:1455   */\n      0x20\n        /* \"#utility.yul\":1479:1532   */\n      tag_82\n        /* \"#utility.yul\":1524:1531   */\n      dup6\n        /* \"#utility.yul\":1515:1521   */\n      dup3\n        /* \"#utility.yul\":1504:1513   */\n      dup7\n        /* \"#utility.yul\":1500:1522   */\n      add\n        /* \"#utility.yul\":1479:1532   */\n      tag_73\n      jump\t// in\n    tag_82:\n        /* \"#utility.yul\":1469:1532   */\n      swap2\n      pop\n        /* \"#utility.yul\":1424:1542   */\n      pop\n        /* \"#utility.yul\":1075:1549   */\n      swap3\n      pop\n      swap3\n      swap1\n      pop\n      jump\t// out\n        /* \"#utility.yul\":1555:1884   */\n    tag_9:\n        /* \"#utility.yul\":1614:1620   */\n      0x00\n        /* \"#utility.yul\":1663:1665   */\n      0x20\n        /* \"#utility.yul\":1651:1660   */\n      dup3\n        /* \"#utility.yul\":1642:1649   */\n      dup5\n        /* \"#utility.yul\":1638:1661   */\n      sub\n        /* \"#utility.yul\":1634:1666   */\n      slt\n        /* \"#utility.yul\":1631:1750   */\n      iszero\n      tag_84\n      jumpi\n        /* \"#utility.yul\":1669:1748   */\n      tag_85\n      tag_80\n      jump\t// in\n    tag_85:\n        /* \"#utility.yul\":1631:1750   */\n    tag_84:\n        /* \"#utility.yul\":1789:1790   */\n      0x00\n        /* \"#utility.yul\":1814:1867   */\n      tag_86\n        /* \"#utility.yul\":1859:1866   */\n      dup5\n        /* \"#utility.yul\":1850:1856   */\n      dup3\n        /* \"#utility.yul\":1839:1848   */\n      dup6\n        /* \"#utility.yul\":1835:1857   */\n      add\n        /* \"#utility.yul\":1814:1867   */\n      tag_73\n      jump\t// in\n    tag_86:\n        /* \"#utility.yul\":1804:1867   */\n      swap2\n      pop\n        /* \"#utility.yul\":1760:1877   */\n      pop\n        /* \"#utility.yul\":1555:1884   */\n      swap3\n      swap2\n      pop\n      pop\n      jump\t// out\n        /* \"#utility.yul\":1890:2835   */\n    tag_24:\n        /* \"#utility.yul\":1986:1992   */\n      0x00\n        /* \"#utility.yul\":1994:2000   */\n      dup1\n        /* \"#utility.yul\":2002:2008   */\n      0x00\n        /* \"#utility.yul\":2010:2016   */\n      dup1\n        /* \"#utility.yul\":2059:2062   */\n      0x80\n        /* \"#utility.yul\":2047:2056   */\n      dup6\n        /* \"#utility.yul\":2038:2045   */\n      dup8\n        /* \"#utility.yul\":2034:2057   */\n      sub\n        /* \"#utility.yul\":2030:2063   */\n      slt\n        /* \"#utility.yul\":2027:2147   */\n      iszero\n      tag_88\n      jumpi\n        /* \"#utility.yul\":2066:2145   */\n      tag_89\n      tag_80\n      jump\t// in\n    tag_89:\n        /* \"#utility.yul\":2027:2147   */\n    tag_88:\n        /* \"#utility.yul\":2186:2187   */\n      0x00\n        /* \"#utility.yul\":2211:2264   */\n      tag_90\n        /* \"#utility.yul\":2256:2263   */\n      dup8\n        /* \"#utility.yul\":2247:2253   */\n      dup3\n        /* \"#utility.yul\":2236:2245   */\n      dup9\n        /* \"#utility.yul\":2232:2254   */\n      add\n        /* \"#utility.yul\":2211:2264   */\n      tag_73\n      jump\t// in\n    tag_90:\n        /* \"#utility.yul\":2201:2264   */\n      swap5\n      pop\n        /* \"#utility.yul\":2157:2274   */\n      pop\n        /* \"#utility.yul\":2341:2343   */\n      0x20\n        /* \"#utility.yul\":2330:2339   */\n      dup6\n        /* \"#utility.yul\":2326:2344   */\n      add\n        /* \"#utility.yul\":2313:2345   */\n      calldataload\n        /* \"#utility.yul\":2372:2390   */\n      0xffffffffffffffff\n        /* \"#utility.yul\":2364:2370   */\n      dup2\n        /* \"#utility.yul\":2361:2391   */\n      gt\n        /* \"#utility.yul\":2358:2475   */\n      iszero\n      tag_91\n      jumpi\n        /* \"#utility.yul\":2394:2473   */\n      tag_92\n      tag_93\n      jump\t// in\n    tag_92:\n        /* \"#utility.yul\":2358:2475   */\n    tag_91:\n        /* \"#utility.yul\":2499:2562   */\n      tag_94\n        /* \"#utility.yul\":2554:2561   */\n      dup8\n        /* \"#utility.yul\":2545:2551   */\n      dup3\n        /* \"#utility.yul\":2534:2543   */\n      dup9\n        /* \"#utility.yul\":2530:2552   */\n      add\n        /* \"#utility.yul\":2499:2562   */\n      tag_67\n      jump\t// in\n    tag_94:\n        /* \"#utility.yul\":2489:2562   */\n      swap4\n      pop\n        /* \"#utility.yul\":2284:2572   */\n      pop\n        /* \"#utility.yul\":2611:2613   */\n      0x40\n        /* \"#utility.yul\":2637:2690   */\n      tag_95\n        /* \"#utility.yul\":2682:2689   */\n      dup8\n        /* \"#utility.yul\":2673:2679   */\n      dup3\n        /* \"#utility.yul\":2662:2671   */\n      dup9\n        /* \"#utility.yul\":2658:2680   */\n      add\n        /* \"#utility.yul\":2637:2690   */\n      tag_73\n      jump\t// in\n    tag_95:\n        /* \"#utility.yul\":2627:2690   */\n      swap3\n      pop\n        /* \"#utility.yul\":2582:2700   */\n      pop\n        /* \"#utility.yul\":2739:2741   */\n      0x60\n        /* \"#utility.yul\":2765:2818   */\n      tag_96\n        /* \"#utility.yul\":2810:2817   */\n      dup8\n        /* \"#utility.yul\":2801:2807   */\n      dup3\n        /* \"#utility.yul\":2790:2799   */\n      dup9\n        /* \"#utility.yul\":2786:2808   */\n      add\n        /* \"#utility.yul\":2765:2818   */\n      tag_73\n      jump\t// in\n    tag_96:\n        /* \"#utility.yul\":2755:2818   */\n      swap2\n      pop\n        /* \"#utility.yul\":2710:2828   */\n      pop\n        /* \"#utility.yul\":1890:2835   */\n      swap3\n      swap6\n      swap2\n      swap5\n      pop\n      swap3\n      pop\n      jump\t// out\n        /* \"#utility.yul\":2841:2959   */\n    tag_97:\n        /* \"#utility.yul\":2928:2952   */\n      tag_99\n        /* \"#utility.yul\":2946:2951   */\n      dup2\n        /* \"#utility.yul\":2928:2952   */\n      tag_100\n      jump\t// in\n    tag_99:\n        /* \"#utility.yul\":2923:2926   */\n      dup3\n        /* \"#utility.yul\":2916:2953   */\n      mstore\n        /* \"#utility.yul\":2841:2959   */\n      pop\n      pop\n      jump\t// out\n        /* \"#utility.yul\":2965:3329   */\n    tag_101:\n        /* \"#utility.yul\":3053:3056   */\n      0x00\n        /* \"#utility.yul\":3081:3120   */\n      tag_103\n        /* \"#utility.yul\":3114:3119   */\n      dup3\n        /* \"#utility.yul\":3081:3120   */\n      tag_104\n      jump\t// in\n    tag_103:\n        /* \"#utility.yul\":3136:3207   */\n      tag_105\n        /* \"#utility.yul\":3200:3206   */\n      dup2\n        /* \"#utility.yul\":3195:3198   */\n      dup6\n        /* \"#utility.yul\":3136:3207   */\n      tag_106\n      jump\t// in\n    tag_105:\n        /* \"#utility.yul\":3129:3207   */\n      swap4\n      pop\n        /* \"#utility.yul\":3216:3268   */\n      tag_107\n        /* \"#utility.yul\":3261:3267   */\n      dup2\n        /* \"#utility.yul\":3256:3259   */\n      dup6\n        /* \"#utility.yul\":3249:3253   */\n      0x20\n        /* \"#utility.yul\":3242:3247   */\n      dup7\n        /* \"#utility.yul\":3238:3254   */\n      add\n        /* \"#utility.yul\":3216:3268   */\n      tag_108\n      jump\t// in\n    tag_107:\n        /* \"#utility.yul\":3293:3322   */\n      tag_109\n        /* \"#utility.yul\":3315:3321   */\n      dup2\n        /* \"#utility.yul\":3293:3322   */\n      tag_110\n      jump\t// in\n    tag_109:\n        /* \"#utility.yul\":3288:3291   */\n      dup5\n        /* \"#utility.yul\":3284:3323   */\n      add\n        /* \"#utility.yul\":3277:3323   */\n      swap2\n      pop\n        /* \"#utility.yul\":3057:3329   */\n      pop\n        /* \"#utility.yul\":2965:3329   */\n      swap3\n      swap2\n      pop\n      pop\n      jump\t// out\n        /* \"#utility.yul\":3335:3701   */\n    tag_111:\n        /* \"#utility.yul\":3477:3480   */\n      0x00\n        /* \"#utility.yul\":3498:3565   */\n      tag_113\n        /* \"#utility.yul\":3562:3564   */\n      0x20\n        /* \"#utility.yul\":3557:3560   */\n      dup4\n        /* \"#utility.yul\":3498:3565   */\n      tag_106\n      jump\t// in\n    tag_113:\n        /* \"#utility.yul\":3491:3565   */\n      swap2\n      pop\n        /* \"#utility.yul\":3574:3667   */\n      tag_114\n        /* \"#utility.yul\":3663:3666   */\n      dup3\n        /* \"#utility.yul\":3574:3667   */\n      tag_115\n      jump\t// in\n    tag_114:\n        /* \"#utility.yul\":3692:3694   */\n      0x20\n        /* \"#utility.yul\":3687:3690   */\n      dup3\n        /* \"#utility.yul\":3683:3695   */\n      add\n        /* \"#utility.yul\":3676:3695   */\n      swap1\n      pop\n        /* \"#utility.yul\":3335:3701   */\n      swap2\n      swap1\n      pop\n      jump\t// out\n        /* \"#utility.yul\":3707:4073   */\n    tag_116:\n        /* \"#utility.yul\":3849:3852   */\n      0x00\n        /* \"#utility.yul\":3870:3937   */\n      tag_118\n        /* \"#utility.yul\":3934:3936   */\n      0x21\n        /* \"#utility.yul\":3929:3932   */\n      dup4\n        /* \"#utility.yul\":3870:3937   */\n      tag_106\n      jump\t// in\n    tag_118:\n        /* \"#utility.yul\":3863:3937   */\n      swap2\n      pop\n        /* \"#utility.yul\":3946:4039   */\n      tag_119\n        /* \"#utility.yul\":4035:4038   */\n      dup3\n        /* \"#utility.yul\":3946:4039   */\n      tag_120\n      jump\t// in\n    tag_119:\n        /* \"#utility.yul\":4064:4066   */\n      0x40\n        /* \"#utility.yul\":4059:4062   */\n      dup3\n        /* \"#utility.yul\":4055:4067   */\n      add\n        /* \"#utility.yul\":4048:4067   */\n      swap1\n      pop\n        /* \"#utility.yul\":3707:4073   */\n      swap2\n      swap1\n      pop\n      jump\t// out\n        /* \"#utility.yul\":4079:4197   */\n    tag_121:\n        /* \"#utility.yul\":4166:4190   */\n      tag_123\n        /* \"#utility.yul\":4184:4189   */\n      dup2\n        /* \"#utility.yul\":4166:4190   */\n      tag_124\n      jump\t// in\n    tag_123:\n        /* \"#utility.yul\":4161:4164   */\n      dup3\n        /* \"#utility.yul\":4154:4191   */\n      mstore\n        /* \"#utility.yul\":4079:4197   */\n      pop\n      pop\n      jump\t// out\n        /* \"#utility.yul\":4203:5069   */\n    tag_12:\n        /* \"#utility.yul\":4456:4460   */\n      0x00\n        /* \"#utility.yul\":4494:4497   */\n      0xc0\n        /* \"#utility.yul\":4483:4492   */\n      dup3\n        /* \"#utility.yul\":4479:4498   */\n      add\n        /* \"#utility.yul\":4471:4498   */\n      swap1\n      pop\n        /* \"#utility.yul\":4508:4579   */\n      tag_126\n        /* \"#utility.yul\":4576:4577   */\n      0x00\n        /* \"#utility.yul\":4565:4574   */\n      dup4\n        /* \"#utility.yul\":4561:4578   */\n      add\n        /* \"#utility.yul\":4552:4558   */\n      dup10\n        /* \"#utility.yul\":4508:4579   */\n      tag_97\n      jump\t// in\n    tag_126:\n        /* \"#utility.yul\":4589:4661   */\n      tag_127\n        /* \"#utility.yul\":4657:4659   */\n      0x20\n        /* \"#utility.yul\":4646:4655   */\n      dup4\n        /* \"#utility.yul\":4642:4660   */\n      add\n        /* \"#utility.yul\":4633:4639   */\n      dup9\n        /* \"#utility.yul\":4589:4661   */\n      tag_121\n      jump\t// in\n    tag_127:\n        /* \"#utility.yul\":4708:4717   */\n      dup2\n        /* \"#utility.yul\":4702:4706   */\n      dup2\n        /* \"#utility.yul\":4698:4718   */\n      sub\n        /* \"#utility.yul\":4693:4695   */\n      0x40\n        /* \"#utility.yul\":4682:4691   */\n      dup4\n        /* \"#utility.yul\":4678:4696   */\n      add\n        /* \"#utility.yul\":4671:4719   */\n      mstore\n        /* \"#utility.yul\":4736:4814   */\n      tag_128\n        /* \"#utility.yul\":4809:4813   */\n      dup2\n        /* \"#utility.yul\":4800:4806   */\n      dup8\n        /* \"#utility.yul\":4736:4814   */\n      tag_101\n      jump\t// in\n    tag_128:\n        /* \"#utility.yul\":4728:4814   */\n      swap1\n      pop\n        /* \"#utility.yul\":4824:4896   */\n      tag_129\n        /* \"#utility.yul\":4892:4894   */\n      0x60\n        /* \"#utility.yul\":4881:4890   */\n      dup4\n        /* \"#utility.yul\":4877:4895   */\n      add\n        /* \"#utility.yul\":4868:4874   */\n      dup7\n        /* \"#utility.yul\":4824:4896   */\n      tag_121\n      jump\t// in\n    tag_129:\n        /* \"#utility.yul\":4906:4979   */\n      tag_130\n        /* \"#utility.yul\":4974:4977   */\n      0x80\n        /* \"#utility.yul\":4963:4972   */\n      dup4\n        /* \"#utility.yul\":4959:4978   */\n      add\n        /* \"#utility.yul\":4950:4956   */\n      dup6\n        /* \"#utility.yul\":4906:4979   */\n      tag_121\n      jump\t// in\n    tag_130:\n        /* \"#utility.yul\":4989:5062   */\n      tag_131\n        /* \"#utility.yul\":5057:5060   */\n      0xa0\n        /* \"#utility.yul\":5046:5055   */\n      dup4\n        /* \"#utility.yul\":5042:5061   */\n      add\n        /* \"#utility.yul\":5033:5039   */\n      dup5\n        /* \"#utility.yul\":4989:5062   */\n      tag_121\n      jump\t// in\n    tag_131:\n        /* \"#utility.yul\":4203:5069   */\n      swap8\n      swap7\n      pop\n      pop\n      pop\n      pop\n      pop\n      pop\n      pop\n      jump\t// out\n        /* \"#utility.yul\":5075:5494   */\n    tag_38:\n        /* \"#utility.yul\":5241:5245   */\n      0x00\n        /* \"#utility.yul\":5279:5281   */\n      0x20\n        /* \"#utility.yul\":5268:5277   */\n      dup3\n        /* \"#utility.yul\":5264:5282   */\n      add\n        /* \"#utility.yul\":5256:5282   */\n      swap1\n      pop\n        /* \"#utility.yul\":5328:5337   */\n      dup2\n        /* \"#utility.yul\":5322:5326   */\n      dup2\n        /* \"#utility.yul\":5318:5338   */\n      sub\n        /* \"#utility.yul\":5314:5315   */\n      0x00\n        /* \"#utility.yul\":5303:5312   */\n      dup4\n        /* \"#utility.yul\":5299:5316   */\n      add\n        /* \"#utility.yul\":5292:5339   */\n      mstore\n        /* \"#utility.yul\":5356:5487   */\n      tag_133\n        /* \"#utility.yul\":5482:5486   */\n      dup2\n        /* \"#utility.yul\":5356:5487   */\n      tag_111\n      jump\t// in\n    tag_133:\n        /* \"#utility.yul\":5348:5487   */\n      swap1\n      pop\n        /* \"#utility.yul\":5075:5494   */\n      swap2\n      swap1\n      pop\n      jump\t// out\n        /* \"#utility.yul\":5500:5919   */\n    tag_35:\n        /* \"#utility.yul\":5666:5670   */\n      0x00\n        /* \"#utility.yul\":5704:5706   */\n      0x20\n        /* \"#utility.yul\":5693:5702   */\n      dup3\n        /* \"#utility.yul\":5689:5707   */\n      add\n        /* \"#utility.yul\":5681:5707   */\n      swap1\n      pop\n        /* \"#utility.yul\":5753:5762   */\n      dup2\n        /* \"#utility.yul\":5747:5751   */\n      dup2\n        /* \"#utility.yul\":5743:5763   */\n      sub\n        /* \"#utility.yul\":5739:5740   */\n      0x00\n        /* \"#utility.yul\":5728:5737   */\n      dup4\n        /* \"#utility.yul\":5724:5741   */\n      add\n        /* \"#utility.yul\":5717:5764   */\n      mstore\n        /* \"#utility.yul\":5781:5912   */\n      tag_135\n        /* \"#utility.yul\":5907:5911   */\n      dup2\n        /* \"#utility.yul\":5781:5912   */\n      tag_116\n      jump\t// in\n    tag_135:\n        /* \"#utility.yul\":5773:5912   */\n      swap1\n      pop\n        /* \"#utility.yul\":5500:5919   */\n      swap2\n      swap1\n      pop\n      jump\t// out\n        /* \"#utility.yul\":5925:6147   */\n    tag_16:\n        /* \"#utility.yul\":6018:6022   */\n      0x00\n        /* \"#utility.yul\":6056:6058   */\n      0x20\n        /* \"#utility.yul\":6045:6054   */\n      dup3\n        /* \"#utility.yul\":6041:6059   */\n      add\n        /* \"#utility.yul\":6033:6059   */\n      swap1\n      pop\n        /* \"#utility.yul\":6069:6140   */\n      tag_137\n        /* \"#utility.yul\":6137:6138   */\n      0x00\n        /* \"#utility.yul\":6126:6135   */\n      dup4\n        /* \"#utility.yul\":6122:6139   */\n      add\n        /* \"#utility.yul\":6113:6119   */\n      dup5\n        /* \"#utility.yul\":6069:6140   */\n      tag_121\n      jump\t// in\n    tag_137:\n        /* \"#utility.yul\":5925:6147   */\n      swap3\n      swap2\n      pop\n      pop\n      jump\t// out\n        /* \"#utility.yul\":6153:6282   */\n    tag_57:\n        /* \"#utility.yul\":6187:6193   */\n      0x00\n        /* \"#utility.yul\":6214:6234   */\n      tag_139\n      tag_140\n      jump\t// in\n    tag_139:\n        /* \"#utility.yul\":6204:6234   */\n      swap1\n      pop\n        /* \"#utility.yul\":6243:6276   */\n      tag_141\n        /* \"#utility.yul\":6271:6275   */\n      dup3\n        /* \"#utility.yul\":6263:6269   */\n      dup3\n        /* \"#utility.yul\":6243:6276   */\n      tag_142\n      jump\t// in\n    tag_141:\n        /* \"#utility.yul\":6153:6282   */\n      swap2\n      swap1\n      pop\n      jump\t// out\n        /* \"#utility.yul\":6288:6363   */\n    tag_140:\n        /* \"#utility.yul\":6321:6327   */\n      0x00\n        /* \"#utility.yul\":6354:6356   */\n      0x40\n        /* \"#utility.yul\":6348:6357   */\n      mload\n        /* \"#utility.yul\":6338:6357   */\n      swap1\n      pop\n        /* \"#utility.yul\":6288:6363   */\n      swap1\n      jump\t// out\n        /* \"#utility.yul\":6369:6677   */\n    tag_56:\n        /* \"#utility.yul\":6431:6435   */\n      0x00\n        /* \"#utility.yul\":6521:6539   */\n      0xffffffffffffffff\n        /* \"#utility.yul\":6513:6519   */\n      dup3\n        /* \"#utility.yul\":6510:6540   */\n      gt\n        /* \"#utility.yul\":6507:6563   */\n      iszero\n      tag_145\n      jumpi\n        /* \"#utility.yul\":6543:6561   */\n      tag_146\n      tag_147\n      jump\t// in\n    tag_146:\n        /* \"#utility.yul\":6507:6563   */\n    tag_145:\n        /* \"#utility.yul\":6581:6610   */\n      tag_148\n        /* \"#utility.yul\":6603:6609   */\n      dup3\n        /* \"#utility.yul\":6581:6610   */\n      tag_110\n      jump\t// in\n    tag_148:\n        /* \"#utility.yul\":6573:6610   */\n      swap1\n      pop\n        /* \"#utility.yul\":6665:6669   */\n      0x20\n        /* \"#utility.yul\":6659:6663   */\n      dup2\n        /* \"#utility.yul\":6655:6670   */\n      add\n        /* \"#utility.yul\":6647:6670   */\n      swap1\n      pop\n        /* \"#utility.yul\":6369:6677   */\n      swap2\n      swap1\n      pop\n      jump\t// out\n        /* \"#utility.yul\":6683:6782   */\n    tag_104:\n        /* \"#utility.yul\":6735:6741   */\n      0x00\n        /* \"#utility.yul\":6769:6774   */\n      dup2\n        /* \"#utility.yul\":6763:6775   */\n      mload\n        /* \"#utility.yul\":6753:6775   */\n      swap1\n      pop\n        /* \"#utility.yul\":6683:6782   */\n      swap2\n      swap1\n      pop\n      jump\t// out\n        /* \"#utility.yul\":6788:6957   */\n    tag_106:\n        /* \"#utility.yul\":6872:6883   */\n      0x00\n        /* \"#utility.yul\":6906:6912   */\n      dup3\n        /* \"#utility.yul\":6901:6904   */\n      dup3\n        /* \"#utility.yul\":6894:6913   */\n      mstore\n        /* \"#utility.yul\":6946:6950   */\n      0x20\n        /* \"#utility.yul\":6941:6944   */\n      dup3\n        /* \"#utility.yul\":6937:6951   */\n      add\n        /* \"#utility.yul\":6922:6951   */\n      swap1\n      pop\n        /* \"#utility.yul\":6788:6957   */\n      swap3\n      swap2\n      pop\n      pop\n      jump\t// out\n        /* \"#utility.yul\":6963:7059   */\n    tag_100:\n        /* \"#utility.yul\":7000:7007   */\n      0x00\n        /* \"#utility.yul\":7029:7053   */\n      tag_152\n        /* \"#utility.yul\":7047:7052   */\n      dup3\n        /* \"#utility.yul\":7029:7053   */\n      tag_153\n      jump\t// in\n    tag_152:\n        /* \"#utility.yul\":7018:7053   */\n      swap1\n      pop\n        /* \"#utility.yul\":6963:7059   */\n      swap2\n      swap1\n      pop\n      jump\t// out\n        /* \"#utility.yul\":7065:7191   */\n    tag_153:\n        /* \"#utility.yul\":7102:7109   */\n      0x00\n        /* \"#utility.yul\":7142:7184   */\n      0xffffffffffffffffffffffffffffffffffffffff\n        /* \"#utility.yul\":7135:7140   */\n      dup3\n        /* \"#utility.yul\":7131:7185   */\n      and\n        /* \"#utility.yul\":7120:7185   */\n      swap1\n      pop\n        /* \"#utility.yul\":7065:7191   */\n      swap2\n      swap1\n      pop\n      jump\t// out\n        /* \"#utility.yul\":7197:7274   */\n    tag_124:\n        /* \"#utility.yul\":7234:7241   */\n      0x00\n        /* \"#utility.yul\":7263:7268   */\n      dup2\n        /* \"#utility.yul\":7252:7268   */\n      swap1\n      pop\n        /* \"#utility.yul\":7197:7274   */\n      swap2\n      swap1\n      pop\n      jump\t// out\n        /* \"#utility.yul\":7280:7434   */\n    tag_62:\n        /* \"#utility.yul\":7364:7370   */\n      dup3\n        /* \"#utility.yul\":7359:7362   */\n      dup2\n        /* \"#utility.yul\":7354:7357   */\n      dup4\n        /* \"#utility.yul\":7341:7371   */\n      calldatacopy\n        /* \"#utility.yul\":7426:7427   */\n      0x00\n        /* \"#utility.yul\":7417:7423   */\n      dup4\n        /* \"#utility.yul\":7412:7415   */\n      dup4\n        /* \"#utility.yul\":7408:7424   */\n      add\n        /* \"#utility.yul\":7401:7428   */\n      mstore\n        /* \"#utility.yul\":7280:7434   */\n      pop\n      pop\n      pop\n      jump\t// out\n        /* \"#utility.yul\":7440:7747   */\n    tag_108:\n        /* \"#utility.yul\":7508:7509   */\n      0x00\n        /* \"#utility.yul\":7518:7631   */\n    tag_158:\n        /* \"#utility.yul\":7532:7538   */\n      dup4\n        /* \"#utility.yul\":7529:7530   */\n      dup2\n        /* \"#utility.yul\":7526:7539   */\n      lt\n        /* \"#utility.yul\":7518:7631   */\n      iszero\n      tag_160\n      jumpi\n        /* \"#utility.yul\":7617:7618   */\n      dup1\n        /* \"#utility.yul\":7612:7615   */\n      dup3\n        /* \"#utility.yul\":7608:7619   */\n      add\n        /* \"#utility.yul\":7602:7620   */\n      mload\n        /* \"#utility.yul\":7598:7599   */\n      dup2\n        /* \"#utility.yul\":7593:7596   */\n      dup5\n        /* \"#utility.yul\":7589:7600   */\n      add\n        /* \"#utility.yul\":7582:7621   */\n      mstore\n        /* \"#utility.yul\":7554:7556   */\n      0x20\n        /* \"#utility.yul\":7551:7552   */\n      dup2\n        /* \"#utility.yul\":7547:7557   */\n      add\n        /* \"#utility.yul\":7542:7557   */\n      swap1\n      pop\n        /* \"#utility.yul\":7518:7631   */\n      jump(tag_158)\n    tag_160:\n        /* \"#utility.yul\":7649:7655   */\n      dup4\n        /* \"#utility.yul\":7646:7647   */\n      dup2\n        /* \"#utility.yul\":7643:7656   */\n      gt\n        /* \"#utility.yul\":7640:7741   */\n      iszero\n      tag_161\n      jumpi\n        /* \"#utility.yul\":7729:7730   */\n      0x00\n        /* \"#utility.yul\":7720:7726   */\n      dup5\n        /* \"#utility.yul\":7715:7718   */\n      dup5\n        /* \"#utility.yul\":7711:7727   */\n      add\n        /* \"#utility.yul\":7704:7731   */\n      mstore\n        /* \"#utility.yul\":7640:7741   */\n    tag_161:\n        /* \"#utility.yul\":7489:7747   */\n      pop\n        /* \"#utility.yul\":7440:7747   */\n      pop\n      pop\n      pop\n      jump\t// out\n        /* \"#utility.yul\":7753:8073   */\n    tag_27:\n        /* \"#utility.yul\":7797:7803   */\n      0x00\n        /* \"#utility.yul\":7834:7835   */\n      0x02\n        /* \"#utility.yul\":7828:7832   */\n      dup3\n        /* \"#utility.yul\":7824:7836   */\n      div\n        /* \"#utility.yul\":7814:7836   */\n      swap1\n      pop\n        /* \"#utility.yul\":7881:7882   */\n      0x01\n        /* \"#utility.yul\":7875:7879   */\n      dup3\n        /* \"#utility.yul\":7871:7883   */\n      and\n        /* \"#utility.yul\":7902:7920   */\n      dup1\n        /* \"#utility.yul\":7892:7973   */\n      tag_163\n      jumpi\n        /* \"#utility.yul\":7958:7962   */\n      0x7f\n        /* \"#utility.yul\":7950:7956   */\n      dup3\n        /* \"#utility.yul\":7946:7963   */\n      and\n        /* \"#utility.yul\":7936:7963   */\n      swap2\n      pop\n        /* \"#utility.yul\":7892:7973   */\n    tag_163:\n        /* \"#utility.yul\":8020:8022   */\n      0x20\n        /* \"#utility.yul\":8012:8018   */\n      dup3\n        /* \"#utility.yul\":8009:8023   */\n      lt\n        /* \"#utility.yul\":7989:8007   */\n      dup2\n        /* \"#utility.yul\":7986:8024   */\n      eq\n        /* \"#utility.yul\":7983:8067   */\n      iszero\n      tag_164\n      jumpi\n        /* \"#utility.yul\":8039:8057   */\n      tag_165\n      tag_166\n      jump\t// in\n    tag_165:\n        /* \"#utility.yul\":7983:8067   */\n    tag_164:\n        /* \"#utility.yul\":7804:8073   */\n      pop\n        /* \"#utility.yul\":7753:8073   */\n      swap2\n      swap1\n      pop\n      jump\t// out\n        /* \"#utility.yul\":8079:8360   */\n    tag_142:\n        /* \"#utility.yul\":8162:8189   */\n      tag_168\n        /* \"#utility.yul\":8184:8188   */\n      dup3\n        /* \"#utility.yul\":8162:8189   */\n      tag_110\n      jump\t// in\n    tag_168:\n        /* \"#utility.yul\":8154:8160   */\n      dup2\n        /* \"#utility.yul\":8150:8190   */\n      add\n        /* \"#utility.yul\":8292:8298   */\n      dup2\n        /* \"#utility.yul\":8280:8290   */\n      dup2\n        /* \"#utility.yul\":8277:8299   */\n      lt\n        /* \"#utility.yul\":8256:8274   */\n      0xffffffffffffffff\n        /* \"#utility.yul\":8244:8254   */\n      dup3\n        /* \"#utility.yul\":8241:8275   */\n      gt\n        /* \"#utility.yul\":8238:8300   */\n      or\n        /* \"#utility.yul\":8235:8323   */\n      iszero\n      tag_169\n      jumpi\n        /* \"#utility.yul\":8303:8321   */\n      tag_170\n      tag_147\n      jump\t// in\n    tag_170:\n        /* \"#utility.yul\":8235:8323   */\n    tag_169:\n        /* \"#utility.yul\":8343:8353   */\n      dup1\n        /* \"#utility.yul\":8339:8341   */\n      0x40\n        /* \"#utility.yul\":8332:8354   */\n      mstore\n        /* \"#utility.yul\":8122:8360   */\n      pop\n        /* \"#utility.yul\":8079:8360   */\n      pop\n      pop\n      jump\t// out\n        /* \"#utility.yul\":8366:8546   */\n    tag_166:\n        /* \"#utility.yul\":8414:8491   */\n      0x4e487b7100000000000000000000000000000000000000000000000000000000\n        /* \"#utility.yul\":8411:8412   */\n      0x00\n        /* \"#utility.yul\":8404:8492   */\n      mstore\n        /* \"#utility.yul\":8511:8515   */\n      0x22\n        /* \"#utility.yul\":8508:8509   */\n      0x04\n        /* \"#utility.yul\":8501:8516   */\n      mstore\n        /* \"#utility.yul\":8535:8539   */\n      0x24\n        /* \"#utility.yul\":8532:8533   */\n      0x00\n        /* \"#utility.yul\":8525:8540   */\n      revert\n        /* \"#utility.yul\":8552:8732   */\n    tag_147:\n        /* \"#utility.yul\":8600:8677   */\n      0x4e487b7100000000000000000000000000000000000000000000000000000000\n        /* \"#utility.yul\":8597:8598   */\n      0x00\n        /* \"#utility.yul\":8590:8678   */\n      mstore\n        /* \"#utility.yul\":8697:8701   */\n      0x41\n        /* \"#utility.yul\":8694:8695   */\n      0x04\n        /* \"#utility.yul\":8687:8702   */\n      mstore\n        /* \"#utility.yul\":8721:8725   */\n      0x24\n        /* \"#utility.yul\":8718:8719   */\n      0x00\n        /* \"#utility.yul\":8711:8726   */\n      revert\n        /* \"#utility.yul\":8738:8855   */\n    tag_71:\n        /* \"#utility.yul\":8847:8848   */\n      0x00\n        /* \"#utility.yul\":8844:8845   */\n      dup1\n        /* \"#utility.yul\":8837:8849   */\n      revert\n        /* \"#utility.yul\":8861:8978   */\n    tag_60:\n        /* \"#utility.yul\":8970:8971   */\n      0x00\n        /* \"#utility.yul\":8967:8968   */\n      dup1\n        /* \"#utility.yul\":8960:8972   */\n      revert\n        /* \"#utility.yul\":8984:9101   */\n    tag_93:\n        /* \"#utility.yul\":9093:9094   */\n      0x00\n        /* \"#utility.yul\":9090:9091   */\n      dup1\n        /* \"#utility.yul\":9083:9095   */\n      revert\n        /* \"#utility.yul\":9107:9224   */\n    tag_80:\n        /* \"#utility.yul\":9216:9217   */\n      0x00\n        /* \"#utility.yul\":9213:9214   */\n      dup1\n        /* \"#utility.yul\":9206:9218   */\n      revert\n        /* \"#utility.yul\":9230:9332   */\n    tag_110:\n        /* \"#utility.yul\":9271:9277   */\n      0x00\n        /* \"#utility.yul\":9322:9324   */\n      0x1f\n        /* \"#utility.yul\":9318:9325   */\n      not\n        /* \"#utility.yul\":9313:9315   */\n      0x1f\n        /* \"#utility.yul\":9306:9311   */\n      dup4\n        /* \"#utility.yul\":9302:9316   */\n      add\n        /* \"#utility.yul\":9298:9326   */\n      and\n        /* \"#utility.yul\":9288:9326   */\n      swap1\n      pop\n        /* \"#utility.yul\":9230:9332   */\n      swap2\n      swap1\n      pop\n      jump\t// out\n        /* \"#utility.yul\":9338:9520   */\n    tag_115:\n        /* \"#utility.yul\":9478:9512   */\n      0x4576656e74206d75737420686176652061746c656173742031207469636b6574\n        /* \"#utility.yul\":9474:9475   */\n      0x00\n        /* \"#utility.yul\":9466:9472   */\n      dup3\n        /* \"#utility.yul\":9462:9476   */\n      add\n        /* \"#utility.yul\":9455:9513   */\n      mstore\n        /* \"#utility.yul\":9338:9520   */\n      pop\n      jump\t// out\n        /* \"#utility.yul\":9526:9746   */\n    tag_120:\n        /* \"#utility.yul\":9666:9700   */\n      0x596f752063616e206f7267616e697a65206576656e7420666f72206675747572\n        /* \"#utility.yul\":9662:9663   */\n      0x00\n        /* \"#utility.yul\":9654:9660   */\n      dup3\n        /* \"#utility.yul\":9650:9664   */\n      add\n        /* \"#utility.yul\":9643:9701   */\n      mstore\n        /* \"#utility.yul\":9735:9738   */\n      0x6500000000000000000000000000000000000000000000000000000000000000\n        /* \"#utility.yul\":9730:9732   */\n      0x20\n        /* \"#utility.yul\":9722:9728   */\n      dup3\n        /* \"#utility.yul\":9718:9733   */\n      add\n        /* \"#utility.yul\":9711:9739   */\n      mstore\n        /* \"#utility.yul\":9526:9746   */\n      pop\n      jump\t// out\n        /* \"#utility.yul\":9752:9874   */\n    tag_66:\n        /* \"#utility.yul\":9825:9849   */\n      tag_181\n        /* \"#utility.yul\":9843:9848   */\n      dup2\n        /* \"#utility.yul\":9825:9849   */\n      tag_100\n      jump\t// in\n    tag_181:\n        /* \"#utility.yul\":9818:9823   */\n      dup2\n        /* \"#utility.yul\":9815:9850   */\n      eq\n        /* \"#utility.yul\":9805:9868   */\n      tag_182\n      jumpi\n        /* \"#utility.yul\":9864:9865   */\n      0x00\n        /* \"#utility.yul\":9861:9862   */\n      dup1\n        /* \"#utility.yul\":9854:9866   */\n      revert\n        /* \"#utility.yul\":9805:9868   */\n    tag_182:\n        /* \"#utility.yul\":9752:9874   */\n      pop\n      jump\t// out\n        /* \"#utility.yul\":9880:10002   */\n    tag_76:\n        /* \"#utility.yul\":9953:9977   */\n      tag_184\n        /* \"#utility.yul\":9971:9976   */\n      dup2\n        /* \"#utility.yul\":9953:9977   */\n      tag_124\n      jump\t// in\n    tag_184:\n        /* \"#utility.yul\":9946:9951   */\n      dup2\n        /* \"#utility.yul\":9943:9978   */\n      eq\n        /* \"#utility.yul\":9933:9996   */\n      tag_185\n      jumpi\n        /* \"#utility.yul\":9992:9993   */\n      0x00\n        /* \"#utility.yul\":9989:9990   */\n      dup1\n        /* \"#utility.yul\":9982:9994   */\n      revert\n        /* \"#utility.yul\":9933:9996   */\n    tag_185:\n        /* \"#utility.yul\":9880:10002   */\n      pop\n      jump\t// out\n\n    auxdata: 0xa2646970667358221220e14e2c17885465f773bf981c1686e399a18acac1a1264a1aa0c98b620f89ff1664736f6c63430008070033\n}\n",
				"bytecode": {
					"linkReferences": {},
					"object": "608060405234801561001057600080fd5b506109af806100206000396000f3fe608060405234801561001057600080fd5b506004361061004c5760003560e01c80630b79143014610051578063b3cea21714610086578063dae7a13c146100a4578063f93694fb146100d4575b600080fd5b61006b600480360381019061006691906104ed565b6100f0565b60405161007d9695949392919061063a565b60405180910390f35b61008e6101d4565b60405161009b91906106e2565b60405180910390f35b6100be60048036038101906100b991906104ad565b6101da565b6040516100cb91906106e2565b60405180910390f35b6100ee60048036038101906100e9919061051a565b6101ff565b005b60006020528060005260406000206000915090508060000160009054906101000a900473ffffffffffffffffffffffffffffffffffffffff169080600101549080600201805461013f906107ed565b80601f016020809104026020016040519081016040528092919081815260200182805461016b906107ed565b80156101b85780601f1061018d576101008083540402835291602001916101b8565b820191906000526020600020905b81548152906001019060200180831161019b57829003601f168201915b5050505050908060030154908060040154908060050154905086565b60025481565b6001602052816000526040600020602052806000526040600020600091509150505481565b428411610241576040517f08c379a0000000000000000000000000000000000000000000000000000000008152600401610238906106c2565b60405180910390fd5b60008111610284576040517f08c379a000000000000000000000000000000000000000000000000000000000815260040161027b906106a2565b60405180910390fd5b6040518060c001604052803373ffffffffffffffffffffffffffffffffffffffff16815260200185815260200184815260200183815260200182815260200182815250600080600254815260200190815260200160002060008201518160000160006101000a81548173ffffffffffffffffffffffffffffffffffffffff021916908373ffffffffffffffffffffffffffffffffffffffff160217905550602082015181600101556040820151816002019080519060200190610348929190610370565b50606082015181600301556080820151816004015560a0820151816005015590505050505050565b82805461037c906107ed565b90600052602060002090601f01602090048101928261039e57600085556103e5565b82601f106103b757805160ff19168380011785556103e5565b828001600101855582156103e5579182015b828111156103e45782518255916020019190600101906103c9565b5b5090506103f291906103f6565b5090565b5b8082111561040f5760008160009055506001016103f7565b5090565b600061042661042184610722565b6106fd565b905082815260208101848484011115610442576104416108b3565b5b61044d8482856107ab565b509392505050565b6000813590506104648161094b565b92915050565b600082601f83011261047f5761047e6108ae565b5b813561048f848260208601610413565b91505092915050565b6000813590506104a781610962565b92915050565b600080604083850312156104c4576104c36108bd565b5b60006104d285828601610455565b92505060206104e385828601610498565b9150509250929050565b600060208284031215610503576105026108bd565b5b600061051184828501610498565b91505092915050565b60008060008060808587031215610534576105336108bd565b5b600061054287828801610498565b945050602085013567ffffffffffffffff811115610563576105626108b8565b5b61056f8782880161046a565b935050604061058087828801610498565b925050606061059187828801610498565b91505092959194509250565b6105a68161076f565b82525050565b60006105b782610753565b6105c1818561075e565b93506105d18185602086016107ba565b6105da816108c2565b840191505092915050565b60006105f260208361075e565b91506105fd826108d3565b602082019050919050565b600061061560218361075e565b9150610620826108fc565b604082019050919050565b610634816107a1565b82525050565b600060c08201905061064f600083018961059d565b61065c602083018861062b565b818103604083015261066e81876105ac565b905061067d606083018661062b565b61068a608083018561062b565b61069760a083018461062b565b979650505050505050565b600060208201905081810360008301526106bb816105e5565b9050919050565b600060208201905081810360008301526106db81610608565b9050919050565b60006020820190506106f7600083018461062b565b92915050565b6000610707610718565b9050610713828261081f565b919050565b6000604051905090565b600067ffffffffffffffff82111561073d5761073c61087f565b5b610746826108c2565b9050602081019050919050565b600081519050919050565b600082825260208201905092915050565b600061077a82610781565b9050919050565b600073ffffffffffffffffffffffffffffffffffffffff82169050919050565b6000819050919050565b82818337600083830152505050565b60005b838110156107d85780820151818401526020810190506107bd565b838111156107e7576000848401525b50505050565b6000600282049050600182168061080557607f821691505b6020821081141561081957610818610850565b5b50919050565b610828826108c2565b810181811067ffffffffffffffff821117156108475761084661087f565b5b80604052505050565b7f4e487b7100000000000000000000000000000000000000000000000000000000600052602260045260246000fd5b7f4e487b7100000000000000000000000000000000000000000000000000000000600052604160045260246000fd5b600080fd5b600080fd5b600080fd5b600080fd5b6000601f19601f8301169050919050565b7f4576656e74206d75737420686176652061746c656173742031207469636b6574600082015250565b7f596f752063616e206f7267616e697a65206576656e7420666f7220667574757260008201527f6500000000000000000000000000000000000000000000000000000000000000602082015250565b6109548161076f565b811461095f57600080fd5b50565b61096b816107a1565b811461097657600080fd5b5056fea2646970667358221220e14e2c17885465f773bf981c1686e399a18acac1a1264a1aa0c98b620f89ff1664736f6c63430008070033",
					"opcodes": "PUSH1 0x80 PUSH1 0x40 MSTORE CALLVALUE DUP1 ISZERO PUSH2 0x10 JUMPI PUSH1 0x0 DUP1 REVERT JUMPDEST POP PUSH2 0x9AF DUP1 PUSH2 0x20 PUSH1 0x0 CODECOPY PUSH1 0x0 RETURN INVALID PUSH1 0x80 PUSH1 0x40 MSTORE CALLVALUE DUP1 ISZERO PUSH2 0x10 JUMPI PUSH1 0x0 DUP1 REVERT JUMPDEST POP PUSH1 0x4 CALLDATASIZE LT PUSH2 0x4C JUMPI PUSH1 0x0 CALLDATALOAD PUSH1 0xE0 SHR DUP1 PUSH4 0xB791430 EQ PUSH2 0x51 JUMPI DUP1 PUSH4 0xB3CEA217 EQ PUSH2 0x86 JUMPI DUP1 PUSH4 0xDAE7A13C EQ PUSH2 0xA4 JUMPI DUP1 PUSH4 0xF93694FB EQ PUSH2 0xD4 JUMPI JUMPDEST PUSH1 0x0 DUP1 REVERT JUMPDEST PUSH2 0x6B PUSH1 0x4 DUP1 CALLDATASIZE SUB DUP2 ADD SWAP1 PUSH2 0x66 SWAP2 SWAP1 PUSH2 0x4ED JUMP JUMPDEST PUSH2 0xF0 JUMP JUMPDEST PUSH1 0x40 MLOAD PUSH2 0x7D SWAP7 SWAP6 SWAP5 SWAP4 SWAP3 SWAP2 SWAP1 PUSH2 0x63A JUMP JUMPDEST PUSH1 0x40 MLOAD DUP1 SWAP2 SUB SWAP1 RETURN JUMPDEST PUSH2 0x8E PUSH2 0x1D4 JUMP JUMPDEST PUSH1 0x40 MLOAD PUSH2 0x9B SWAP2 SWAP1 PUSH2 0x6E2 JUMP JUMPDEST PUSH1 0x40 MLOAD DUP1 SWAP2 SUB SWAP1 RETURN JUMPDEST PUSH2 0xBE PUSH1 0x4 DUP1 CALLDATASIZE SUB DUP2 ADD SWAP1 PUSH2 0xB9 SWAP2 SWAP1 PUSH2 0x4AD JUMP JUMPDEST PUSH2 0x1DA JUMP JUMPDEST PUSH1 0x40 MLOAD PUSH2 0xCB SWAP2 SWAP1 PUSH2 0x6E2 JUMP JUMPDEST PUSH1 0x40 MLOAD DUP1 SWAP2 SUB SWAP1 RETURN JUMPDEST PUSH2 0xEE PUSH1 0x4 DUP1 CALLDATASIZE SUB DUP2 ADD SWAP1 PUSH2 0xE9 SWAP2 SWAP1 PUSH2 0x51A JUMP JUMPDEST PUSH2 0x1FF JUMP JUMPDEST STOP JUMPDEST PUSH1 0x0 PUSH1 0x20 MSTORE DUP1 PUSH1 0x0 MSTORE PUSH1 0x40 PUSH1 0x0 KECCAK256 PUSH1 0x0 SWAP2 POP SWAP1 POP DUP1 PUSH1 0x0 ADD PUSH1 0x0 SWAP1 SLOAD SWAP1 PUSH2 0x100 EXP SWAP1 DIV PUSH20 0xFFFFFFFFFFFFFFFFFFFFFFFFFFFFFFFFFFFFFFFF AND SWAP1 DUP1 PUSH1 0x1 ADD SLOAD SWAP1 DUP1 PUSH1 0x2 ADD DUP1 SLOAD PUSH2 0x13F SWAP1 PUSH2 0x7ED JUMP JUMPDEST DUP1 PUSH1 0x1F ADD PUSH1 0x20 DUP1 SWAP2 DIV MUL PUSH1 0x20 ADD PUSH1 0x40 MLOAD SWAP1 DUP2 ADD PUSH1 0x40 MSTORE DUP1 SWAP3 SWAP2 SWAP1 DUP2 DUP2 MSTORE PUSH1 0x20 ADD DUP3 DUP1 SLOAD PUSH2 0x16B SWAP1 PUSH2 0x7ED JUMP JUMPDEST DUP1 ISZERO PUSH2 0x1B8 JUMPI DUP1 PUSH1 0x1F LT PUSH2 0x18D JUMPI PUSH2 0x100 DUP1 DUP4 SLOAD DIV MUL DUP4 MSTORE SWAP2 PUSH1 0x20 ADD SWAP2 PUSH2 0x1B8 JUMP JUMPDEST DUP3 ADD SWAP2 SWAP1 PUSH1 0x0 MSTORE PUSH1 0x20 PUSH1 0x0 KECCAK256 SWAP1 JUMPDEST DUP2 SLOAD DUP2 MSTORE SWAP1 PUSH1 0x1 ADD SWAP1 PUSH1 0x20 ADD DUP1 DUP4 GT PUSH2 0x19B JUMPI DUP3 SWAP1 SUB PUSH1 0x1F AND DUP3 ADD SWAP2 JUMPDEST POP POP POP POP POP SWAP1 DUP1 PUSH1 0x3 ADD SLOAD SWAP1 DUP1 PUSH1 0x4 ADD SLOAD SWAP1 DUP1 PUSH1 0x5 ADD SLOAD SWAP1 POP DUP7 JUMP JUMPDEST PUSH1 0x2 SLOAD DUP2 JUMP JUMPDEST PUSH1 0x1 PUSH1 0x20 MSTORE DUP2 PUSH1 0x0 MSTORE PUSH1 0x40 PUSH1 0x0 KECCAK256 PUSH1 0x20 MSTORE DUP1 PUSH1 0x0 MSTORE PUSH1 0x40 PUSH1 0x0 KECCAK256 PUSH1 0x0 SWAP2 POP SWAP2 POP POP SLOAD DUP2 JUMP JUMPDEST TIMESTAMP DUP5 GT PUSH2 0x241 JUMPI PUSH1 0x40 MLOAD PUSH32 0x8C379A000000000000000000000000000000000000000000000000000000000 DUP2 MSTORE PUSH1 0x4 ADD PUSH2 0x238 SWAP1 PUSH2 0x6C2 JUMP JUMPDEST PUSH1 0x40 MLOAD DUP1 SWAP2 SUB SWAP1 REVERT JUMPDEST PUSH1 0x0 DUP2 GT PUSH2 0x284 JUMPI PUSH1 0x40 MLOAD PUSH32 0x8C379A000000000000000000000000000000000000000000000000000000000 DUP2 MSTORE PUSH1 0x4 ADD PUSH2 0x27B SWAP1 PUSH2 0x6A2 JUMP JUMPDEST PUSH1 0x40 MLOAD DUP1 SWAP2 SUB SWAP1 REVERT JUMPDEST PUSH1 0x40 MLOAD DUP1 PUSH1 0xC0 ADD PUSH1 0x40 MSTORE DUP1 CALLER PUSH20 0xFFFFFFFFFFFFFFFFFFFFFFFFFFFFFFFFFFFFFFFF AND DUP2 MSTORE PUSH1 0x20 ADD DUP6 DUP2 MSTORE PUSH1 0x20 ADD DUP5 DUP2 MSTORE PUSH1 0x20 ADD DUP4 DUP2 MSTORE PUSH1 0x20 ADD DUP3 DUP2 MSTORE PUSH1 0x20 ADD DUP3 DUP2 MSTORE POP PUSH1 0x0 DUP1 PUSH1 0x2 SLOAD DUP2 MSTORE PUSH1 0x20 ADD SWAP1 DUP2 MSTORE PUSH1 0x20 ADD PUSH1 0x0 KECCAK256 PUSH1 0x0 DUP3 ADD MLOAD DUP2 PUSH1 0x0 ADD PUSH1 0x0 PUSH2 0x100 EXP DUP2 SLOAD DUP2 PUSH20 0xFFFFFFFFFFFFFFFFFFFFFFFFFFFFFFFFFFFFFFFF MUL NOT AND SWAP1 DUP4 PUSH20 0xFFFFFFFFFFFFFFFFFFFFFFFFFFFFFFFFFFFFFFFF AND MUL OR SWAP1 SSTORE POP PUSH1 0x20 DUP3 ADD MLOAD DUP2 PUSH1 0x1 ADD SSTORE PUSH1 0x40 DUP3 ADD MLOAD DUP2 PUSH1 0x2 ADD SWAP1 DUP1 MLOAD SWAP1 PUSH1 0x20 ADD SWAP1 PUSH2 0x348 SWAP3 SWAP2 SWAP1 PUSH2 0x370 JUMP JUMPDEST POP PUSH1 0x60 DUP3 ADD MLOAD DUP2 PUSH1 0x3 ADD SSTORE PUSH1 0x80 DUP3 ADD MLOAD DUP2 PUSH1 0x4 ADD SSTORE PUSH1 0xA0 DUP3 ADD MLOAD DUP2 PUSH1 0x5 ADD SSTORE SWAP1 POP POP POP POP POP POP JUMP JUMPDEST DUP3 DUP1 SLOAD PUSH2 0x37C SWAP1 PUSH2 0x7ED JUMP JUMPDEST SWAP1 PUSH1 0x0 MSTORE PUSH1 0x20 PUSH1 0x0 KECCAK256 SWAP1 PUSH1 0x1F ADD PUSH1 0x20 SWAP1 DIV DUP2 ADD SWAP3 DUP3 PUSH2 0x39E JUMPI PUSH1 0x0 DUP6 SSTORE PUSH2 0x3E5 JUMP JUMPDEST DUP3 PUSH1 0x1F LT PUSH2 0x3B7 JUMPI DUP1 MLOAD PUSH1 0xFF NOT AND DUP4 DUP1 ADD OR DUP6 SSTORE PUSH2 0x3E5 JUMP JUMPDEST DUP3 DUP1 ADD PUSH1 0x1 ADD DUP6 SSTORE DUP3 ISZERO PUSH2 0x3E5 JUMPI SWAP2 DUP3 ADD JUMPDEST DUP3 DUP2 GT ISZERO PUSH2 0x3E4 JUMPI DUP3 MLOAD DUP3 SSTORE SWAP2 PUSH1 0x20 ADD SWAP2 SWAP1 PUSH1 0x1 ADD SWAP1 PUSH2 0x3C9 JUMP JUMPDEST JUMPDEST POP SWAP1 POP PUSH2 0x3F2 SWAP2 SWAP1 PUSH2 0x3F6 JUMP JUMPDEST POP SWAP1 JUMP JUMPDEST JUMPDEST DUP1 DUP3 GT ISZERO PUSH2 0x40F JUMPI PUSH1 0x0 DUP2 PUSH1 0x0 SWAP1 SSTORE POP PUSH1 0x1 ADD PUSH2 0x3F7 JUMP JUMPDEST POP SWAP1 JUMP JUMPDEST PUSH1 0x0 PUSH2 0x426 PUSH2 0x421 DUP5 PUSH2 0x722 JUMP JUMPDEST PUSH2 0x6FD JUMP JUMPDEST SWAP1 POP DUP3 DUP2 MSTORE PUSH1 0x20 DUP2 ADD DUP5 DUP5 DUP5 ADD GT ISZERO PUSH2 0x442 JUMPI PUSH2 0x441 PUSH2 0x8B3 JUMP JUMPDEST JUMPDEST PUSH2 0x44D DUP5 DUP3 DUP6 PUSH2 0x7AB JUMP JUMPDEST POP SWAP4 SWAP3 POP POP POP JUMP JUMPDEST PUSH1 0x0 DUP2 CALLDATALOAD SWAP1 POP PUSH2 0x464 DUP2 PUSH2 0x94B JUMP JUMPDEST SWAP3 SWAP2 POP POP JUMP JUMPDEST PUSH1 0x0 DUP3 PUSH1 0x1F DUP4 ADD SLT PUSH2 0x47F JUMPI PUSH2 0x47E PUSH2 0x8AE JUMP JUMPDEST JUMPDEST DUP2 CALLDATALOAD PUSH2 0x48F DUP5 DUP3 PUSH1 0x20 DUP7 ADD PUSH2 0x413 JUMP JUMPDEST SWAP2 POP POP SWAP3 SWAP2 POP POP JUMP JUMPDEST PUSH1 0x0 DUP2 CALLDATALOAD SWAP1 POP PUSH2 0x4A7 DUP2 PUSH2 0x962 JUMP JUMPDEST SWAP3 SWAP2 POP POP JUMP JUMPDEST PUSH1 0x0 DUP1 PUSH1 0x40 DUP4 DUP6 SUB SLT ISZERO PUSH2 0x4C4 JUMPI PUSH2 0x4C3 PUSH2 0x8BD JUMP JUMPDEST JUMPDEST PUSH1 0x0 PUSH2 0x4D2 DUP6 DUP3 DUP7 ADD PUSH2 0x455 JUMP JUMPDEST SWAP3 POP POP PUSH1 0x20 PUSH2 0x4E3 DUP6 DUP3 DUP7 ADD PUSH2 0x498 JUMP JUMPDEST SWAP2 POP POP SWAP3 POP SWAP3 SWAP1 POP JUMP JUMPDEST PUSH1 0x0 PUSH1 0x20 DUP3 DUP5 SUB SLT ISZERO PUSH2 0x503 JUMPI PUSH2 0x502 PUSH2 0x8BD JUMP JUMPDEST JUMPDEST PUSH1 0x0 PUSH2 0x511 DUP5 DUP3 DUP6 ADD PUSH2 0x498 JUMP JUMPDEST SWAP2 POP POP SWAP3 SWAP2 POP POP JUMP JUMPDEST PUSH1 0x0 DUP1 PUSH1 0x0 DUP1 PUSH1 0x80 DUP6 DUP8 SUB SLT ISZERO PUSH2 0x534 JUMPI PUSH2 0x533 PUSH2 0x8BD JUMP JUMPDEST JUMPDEST PUSH1 0x0 PUSH2 0x542 DUP8 DUP3 DUP9 ADD PUSH2 0x498 JUMP JUMPDEST SWAP5 POP POP PUSH1 0x20 DUP6 ADD CALLDATALOAD PUSH8 0xFFFFFFFFFFFFFFFF DUP2 GT ISZERO PUSH2 0x563 JUMPI PUSH2 0x562 PUSH2 0x8B8 JUMP JUMPDEST JUMPDEST PUSH2 0x56F DUP8 DUP3 DUP9 ADD PUSH2 0x46A JUMP JUMPDEST SWAP4 POP POP PUSH1 0x40 PUSH2 0x580 DUP8 DUP3 DUP9 ADD PUSH2 0x498 JUMP JUMPDEST SWAP3 POP POP PUSH1 0x60 PUSH2 0x591 DUP8 DUP3 DUP9 ADD PUSH2 0x498 JUMP JUMPDEST SWAP2 POP POP SWAP3 SWAP6 SWAP2 SWAP5 POP SWAP3 POP JUMP JUMPDEST PUSH2 0x5A6 DUP2 PUSH2 0x76F JUMP JUMPDEST DUP3 MSTORE POP POP JUMP JUMPDEST PUSH1 0x0 PUSH2 0x5B7 DUP3 PUSH2 0x753 JUMP JUMPDEST PUSH2 0x5C1 DUP2 DUP6 PUSH2 0x75E JUMP JUMPDEST SWAP4 POP PUSH2 0x5D1 DUP2 DUP6 PUSH1 0x20 DUP7 ADD PUSH2 0x7BA JUMP JUMPDEST PUSH2 0x5DA DUP2 PUSH2 0x8C2 JUMP JUMPDEST DUP5 ADD SWAP2 POP POP SWAP3 SWAP2 POP POP JUMP JUMPDEST PUSH1 0x0 PUSH2 0x5F2 PUSH1 0x20 DUP4 PUSH2 0x75E JUMP JUMPDEST SWAP2 POP PUSH2 0x5FD DUP3 PUSH2 0x8D3 JUMP JUMPDEST PUSH1 0x20 DUP3 ADD SWAP1 POP SWAP2 SWAP1 POP JUMP JUMPDEST PUSH1 0x0 PUSH2 0x615 PUSH1 0x21 DUP4 PUSH2 0x75E JUMP JUMPDEST SWAP2 POP PUSH2 0x620 DUP3 PUSH2 0x8FC JUMP JUMPDEST PUSH1 0x40 DUP3 ADD SWAP1 POP SWAP2 SWAP1 POP JUMP JUMPDEST PUSH2 0x634 DUP2 PUSH2 0x7A1 JUMP JUMPDEST DUP3 MSTORE POP POP JUMP JUMPDEST PUSH1 0x0 PUSH1 0xC0 DUP3 ADD SWAP1 POP PUSH2 0x64F PUSH1 0x0 DUP4 ADD DUP10 PUSH2 0x59D JUMP JUMPDEST PUSH2 0x65C PUSH1 0x20 DUP4 ADD DUP9 PUSH2 0x62B JUMP JUMPDEST DUP2 DUP2 SUB PUSH1 0x40 DUP4 ADD MSTORE PUSH2 0x66E DUP2 DUP8 PUSH2 0x5AC JUMP JUMPDEST SWAP1 POP PUSH2 0x67D PUSH1 0x60 DUP4 ADD DUP7 PUSH2 0x62B JUMP JUMPDEST PUSH2 0x68A PUSH1 0x80 DUP4 ADD DUP6 PUSH2 0x62B JUMP JUMPDEST PUSH2 0x697 PUSH1 0xA0 DUP4 ADD DUP5 PUSH2 0x62B JUMP JUMPDEST SWAP8 SWAP7 POP POP POP POP POP POP POP JUMP JUMPDEST PUSH1 0x0 PUSH1 0x20 DUP3 ADD SWAP1 POP DUP2 DUP2 SUB PUSH1 0x0 DUP4 ADD MSTORE PUSH2 0x6BB DUP2 PUSH2 0x5E5 JUMP JUMPDEST SWAP1 POP SWAP2 SWAP1 POP JUMP JUMPDEST PUSH1 0x0 PUSH1 0x20 DUP3 ADD SWAP1 POP DUP2 DUP2 SUB PUSH1 0x0 DUP4 ADD MSTORE PUSH2 0x6DB DUP2 PUSH2 0x608 JUMP JUMPDEST SWAP1 POP SWAP2 SWAP1 POP JUMP JUMPDEST PUSH1 0x0 PUSH1 0x20 DUP3 ADD SWAP1 POP PUSH2 0x6F7 PUSH1 0x0 DUP4 ADD DUP5 PUSH2 0x62B JUMP JUMPDEST SWAP3 SWAP2 POP POP JUMP JUMPDEST PUSH1 0x0 PUSH2 0x707 PUSH2 0x718 JUMP JUMPDEST SWAP1 POP PUSH2 0x713 DUP3 DUP3 PUSH2 0x81F JUMP JUMPDEST SWAP2 SWAP1 POP JUMP JUMPDEST PUSH1 0x0 PUSH1 0x40 MLOAD SWAP1 POP SWAP1 JUMP JUMPDEST PUSH1 0x0 PUSH8 0xFFFFFFFFFFFFFFFF DUP3 GT ISZERO PUSH2 0x73D JUMPI PUSH2 0x73C PUSH2 0x87F JUMP JUMPDEST JUMPDEST PUSH2 0x746 DUP3 PUSH2 0x8C2 JUMP JUMPDEST SWAP1 POP PUSH1 0x20 DUP2 ADD SWAP1 POP SWAP2 SWAP1 POP JUMP JUMPDEST PUSH1 0x0 DUP2 MLOAD SWAP1 POP SWAP2 SWAP1 POP JUMP JUMPDEST PUSH1 0x0 DUP3 DUP3 MSTORE PUSH1 0x20 DUP3 ADD SWAP1 POP SWAP3 SWAP2 POP POP JUMP JUMPDEST PUSH1 0x0 PUSH2 0x77A DUP3 PUSH2 0x781 JUMP JUMPDEST SWAP1 POP SWAP2 SWAP1 POP JUMP JUMPDEST PUSH1 0x0 PUSH20 0xFFFFFFFFFFFFFFFFFFFFFFFFFFFFFFFFFFFFFFFF DUP3 AND SWAP1 POP SWAP2 SWAP1 POP JUMP JUMPDEST PUSH1 0x0 DUP2 SWAP1 POP SWAP2 SWAP1 POP JUMP JUMPDEST DUP3 DUP2 DUP4 CALLDATACOPY PUSH1 0x0 DUP4 DUP4 ADD MSTORE POP POP POP JUMP JUMPDEST PUSH1 0x0 JUMPDEST DUP4 DUP2 LT ISZERO PUSH2 0x7D8 JUMPI DUP1 DUP3 ADD MLOAD DUP2 DUP5 ADD MSTORE PUSH1 0x20 DUP2 ADD SWAP1 POP PUSH2 0x7BD JUMP JUMPDEST DUP4 DUP2 GT ISZERO PUSH2 0x7E7 JUMPI PUSH1 0x0 DUP5 DUP5 ADD MSTORE JUMPDEST POP POP POP POP JUMP JUMPDEST PUSH1 0x0 PUSH1 0x2 DUP3 DIV SWAP1 POP PUSH1 0x1 DUP3 AND DUP1 PUSH2 0x805 JUMPI PUSH1 0x7F DUP3 AND SWAP2 POP JUMPDEST PUSH1 0x20 DUP3 LT DUP2 EQ ISZERO PUSH2 0x819 JUMPI PUSH2 0x818 PUSH2 0x850 JUMP JUMPDEST JUMPDEST POP SWAP2 SWAP1 POP JUMP JUMPDEST PUSH2 0x828 DUP3 PUSH2 0x8C2 JUMP JUMPDEST DUP2 ADD DUP2 DUP2 LT PUSH8 0xFFFFFFFFFFFFFFFF DUP3 GT OR ISZERO PUSH2 0x847 JUMPI PUSH2 0x846 PUSH2 0x87F JUMP JUMPDEST JUMPDEST DUP1 PUSH1 0x40 MSTORE POP POP POP JUMP JUMPDEST PUSH32 0x4E487B7100000000000000000000000000000000000000000000000000000000 PUSH1 0x0 MSTORE PUSH1 0x22 PUSH1 0x4 MSTORE PUSH1 0x24 PUSH1 0x0 REVERT JUMPDEST PUSH32 0x4E487B7100000000000000000000000000000000000000000000000000000000 PUSH1 0x0 MSTORE PUSH1 0x41 PUSH1 0x4 MSTORE PUSH1 0x24 PUSH1 0x0 REVERT JUMPDEST PUSH1 0x0 DUP1 REVERT JUMPDEST PUSH1 0x0 DUP1 REVERT JUMPDEST PUSH1 0x0 DUP1 REVERT JUMPDEST PUSH1 0x0 DUP1 REVERT JUMPDEST PUSH1 0x0 PUSH1 0x1F NOT PUSH1 0x1F DUP4 ADD AND SWAP1 POP SWAP2 SWAP1 POP JUMP JUMPDEST PUSH32 0x4576656E74206D75737420686176652061746C656173742031207469636B6574 PUSH1 0x0 DUP3 ADD MSTORE POP JUMP JUMPDEST PUSH32 0x596F752063616E206F7267616E697A65206576656E7420666F72206675747572 PUSH1 0x0 DUP3 ADD MSTORE PUSH32 0x6500000000000000000000000000000000000000000000000000000000000000 PUSH1 0x20 DUP3 ADD MSTORE POP JUMP JUMPDEST PUSH2 0x954 DUP2 PUSH2 0x76F JUMP JUMPDEST DUP2 EQ PUSH2 0x95F JUMPI PUSH1 0x0 DUP1 REVERT JUMPDEST POP JUMP JUMPDEST PUSH2 0x96B DUP2 PUSH2 0x7A1 JUMP JUMPDEST DUP2 EQ PUSH2 0x976 JUMPI PUSH1 0x0 DUP1 REVERT JUMPDEST POP JUMP INVALID LOG2 PUSH5 0x6970667358 0x22 SLT KECCAK256 0xE1 0x4E 0x2C OR DUP9 SLOAD PUSH6 0xF773BF981C16 DUP7 0xE3 SWAP10 LOG1 DUP11 0xCA 0xC1 LOG1 0x26 0x4A BYTE LOG0 0xC9 DUP12 PUSH3 0xF89FF AND PUSH5 0x736F6C6343 STOP ADDMOD SMOD STOP CALLER "
				},
				"gasEstimates": {
					"creation": {
						"codeDepositCost": "495800",
						"executionCost": "530",
						"totalCost": "496330"
					},
					"external": {
						"ID()": "2429",
						"createEvent(uint256,string,uint256,uint256)": "infinite",
						"events(uint256)": "infinite",
						"tickets(address,uint256)": "infinite"
					}
				},
				"methodIdentifiers": {
					"ID()": "b3cea217",
					"createEvent(uint256,string,uint256,uint256)": "f93694fb",
					"events(uint256)": "0b791430",
					"tickets(address,uint256)": "dae7a13c"
				}
			},
			"storageLayout": {
				"storage": [
					{
						"astId": 19,
						"contract": "contract/EventOrganizingContract.sol:EventOrganize",
						"label": "events",
						"offset": 0,
						"slot": "0",
						"type": "t_mapping(t_uint256,t_struct(Event)14_storage)"
					},
					{
						"astId": 25,
						"contract": "contract/EventOrganizingContract.sol:EventOrganize",
						"label": "tickets",
						"offset": 0,
						"slot": "1",
						"type": "t_mapping(t_address,t_mapping(t_uint256,t_uint256))"
					},
					{
						"astId": 27,
						"contract": "contract/EventOrganizingContract.sol:EventOrganize",
						"label": "ID",
						"offset": 0,
						"slot": "2",
						"type": "t_uint256"
					}
				],
				"types": {
					"t_address": {
						"encoding": "inplace",
						"label": "address",
						"numberOfBytes": "20"
					},
					"t_mapping(t_address,t_mapping(t_uint256,t_uint256))": {
						"encoding": "mapping",
						"key": "t_address",
						"label": "mapping(address => mapping(uint256 => uint256))",
						"numberOfBytes": "32",
						"value": "t_mapping(t_uint256,t_uint256)"
					},
					"t_mapping(t_uint256,t_struct(Event)14_storage)": {
						"encoding": "mapping",
						"key": "t_uint256",
						"label": "mapping(uint256 => struct EventOrganize.Event)",
						"numberOfBytes": "32",
						"value": "t_struct(Event)14_storage"
					},
					"t_mapping(t_uint256,t_uint256)": {
						"encoding": "mapping",
						"key": "t_uint256",
						"label": "mapping(uint256 => uint256)",
						"numberOfBytes": "32",
						"value": "t_uint256"
					},
					"t_string_storage": {
						"encoding": "bytes",
						"label": "string",
						"numberOfBytes": "32"
					},
					"t_struct(Event)14_storage": {
						"encoding": "inplace",
						"label": "struct EventOrganize.Event",
						"members": [
							{
								"astId": 3,
								"contract": "contract/EventOrganizingContract.sol:EventOrganize",
								"label": "organizer",
								"offset": 0,
								"slot": "0",
								"type": "t_address"
							},
							{
								"astId": 5,
								"contract": "contract/EventOrganizingContract.sol:EventOrganize",
								"label": "date",
								"offset": 0,
								"slot": "1",
								"type": "t_uint256"
							},
							{
								"astId": 7,
								"contract": "contract/EventOrganizingContract.sol:EventOrganize",
								"label": "name",
								"offset": 0,
								"slot": "2",
								"type": "t_string_storage"
							},
							{
								"astId": 9,
								"contract": "contract/EventOrganizingContract.sol:EventOrganize",
								"label": "price",
								"offset": 0,
								"slot": "3",
								"type": "t_uint256"
							},
							{
								"astId": 11,
								"contract": "contract/EventOrganizingContract.sol:EventOrganize",
								"label": "tiketCount",
								"offset": 0,
								"slot": "4",
								"type": "t_uint256"
							},
							{
								"astId": 13,
								"contract": "contract/EventOrganizingContract.sol:EventOrganize",
								"label": "tiketRemain",
								"offset": 0,
								"slot": "5",
								"type": "t_uint256"
							}
						],
						"numberOfBytes": "192"
					},
					"t_uint256": {
						"encoding": "inplace",
						"label": "uint256",
						"numberOfBytes": "32"
					}
				}
			},
			"userdoc": {
				"kind": "user",
				"methods": {},
				"version": 1
			}
		}
	}
}