{
	"contract/EventOrganizingContract.sol": {
		"EventOrganize": {
			"abi": [
				{
					"inputs": [],
					"name": "ID",
					"outputs": [
						{
							"internalType": "uint256",
							"name": "",
							"type": "uint256"
						}
					],
					"stateMutability": "view",
					"type": "function"
				},
				{
					"inputs": [
						{
							"internalType": "uint256",
							"name": "_date",
							"type": "uint256"
						},
						{
							"internalType": "string",
							"name": "_name",
							"type": "string"
						},
						{
							"internalType": "uint256",
							"name": "_price",
							"type": "uint256"
						},
						{
							"internalType": "uint256",
							"name": "_ticketCount",
							"type": "uint256"
						},
						{
							"internalType": "uint256",
							"name": "_ticketRe",
							"type": "uint256"
						}
					],
					"name": "createEvent",
					"outputs": [],
					"stateMutability": "nonpayable",
					"type": "function"
				},
				{
					"inputs": [
						{
							"internalType": "uint256",
							"name": "",
							"type": "uint256"
						}
					],
					"name": "events",
					"outputs": [
						{
							"internalType": "address",
							"name": "organizer",
							"type": "address"
						},
						{
							"internalType": "uint256",
							"name": "date",
							"type": "uint256"
						},
						{
							"internalType": "string",
							"name": "name",
							"type": "string"
						},
						{
							"internalType": "uint256",
							"name": "price",
							"type": "uint256"
						},
						{
							"internalType": "uint256",
							"name": "tiketCount",
							"type": "uint256"
						},
						{
							"internalType": "uint256",
							"name": "tiketRemain",
							"type": "uint256"
						}
					],
					"stateMutability": "view",
					"type": "function"
				},
				{
					"inputs": [
						{
							"internalType": "address",
							"name": "",
							"type": "address"
						},
						{
							"internalType": "uint256",
							"name": "",
							"type": "uint256"
						}
					],
					"name": "tickets",
					"outputs": [
						{
							"internalType": "uint256",
							"name": "",
							"type": "uint256"
						}
					],
					"stateMutability": "view",
					"type": "function"
				}
			],
			"devdoc": {
				"kind": "dev",
				"methods": {},
				"version": 1
			},
			"evm": {
				"assembly": "    /* \"contract/EventOrganizingContract.sol\":62:533  contract EventOrganize {\r... */\n  mstore(0x40, 0x80)\n  callvalue\n  dup1\n  iszero\n  tag_1\n  jumpi\n  0x00\n  dup1\n  revert\ntag_1:\n  pop\n  dataSize(sub_0)\n  dup1\n  dataOffset(sub_0)\n  0x00\n  codecopy\n  0x00\n  return\nstop\n\nsub_0: assembly {\n        /* \"contract/EventOrganizingContract.sol\":62:533  contract EventOrganize {\r... */\n      mstore(0x40, 0x80)\n      callvalue\n      dup1\n      iszero\n      tag_1\n      jumpi\n      0x00\n      dup1\n      revert\n    tag_1:\n      pop\n      jumpi(tag_2, lt(calldatasize, 0x04))\n      shr(0xe0, calldataload(0x00))\n      dup1\n      0x0b791430\n      eq\n      tag_3\n      jumpi\n      dup1\n      0x9ec4b59a\n      eq\n      tag_4\n      jumpi\n      dup1\n      0xb3cea217\n      eq\n      tag_5\n      jumpi\n      dup1\n      0xdae7a13c\n      eq\n      tag_6\n      jumpi\n    tag_2:\n      0x00\n      dup1\n      revert\n        /* \"contract/EventOrganizingContract.sol\":267:304  mapping (uint => Event) public events */\n    tag_3:\n      tag_7\n      0x04\n      dup1\n      calldatasize\n      sub\n      dup2\n      add\n      swap1\n      tag_8\n      swap2\n      swap1\n      tag_9\n      jump\t// in\n    tag_8:\n      tag_10\n      jump\t// in\n    tag_7:\n      mload(0x40)\n      tag_11\n      swap7\n      swap6\n      swap5\n      swap4\n      swap3\n      swap2\n      swap1\n      tag_12\n      jump\t// in\n    tag_11:\n      mload(0x40)\n      dup1\n      swap2\n      sub\n      swap1\n      return\n        /* \"contract/EventOrganizingContract.sol\":402:528  function createEvent(uint _date, string memory _name, uint _price, uint _ticketCount, uint _ticketRe) public{\r... */\n    tag_4:\n      tag_13\n      0x04\n      dup1\n      calldatasize\n      sub\n      dup2\n      add\n      swap1\n      tag_14\n      swap2\n      swap1\n      tag_15\n      jump\t// in\n    tag_14:\n      tag_16\n      jump\t// in\n    tag_13:\n      stop\n        /* \"contract/EventOrganizingContract.sol\":375:389  uint public ID */\n    tag_5:\n      tag_17\n      tag_18\n      jump\t// in\n    tag_17:\n      mload(0x40)\n      tag_19\n      swap2\n      swap1\n      tag_20\n      jump\t// in\n    tag_19:\n      mload(0x40)\n      dup1\n      swap2\n      sub\n      swap1\n      return\n        /* \"contract/EventOrganizingContract.sol\":311:368  mapping (address => mapping(uint => uint)) public tickets */\n    tag_6:\n      tag_21\n      0x04\n      dup1\n      calldatasize\n      sub\n      dup2\n      add\n      swap1\n      tag_22\n      swap2\n      swap1\n      tag_23\n      jump\t// in\n    tag_22:\n      tag_24\n      jump\t// in\n    tag_21:\n      mload(0x40)\n      tag_25\n      swap2\n      swap1\n      tag_20\n      jump\t// in\n    tag_25:\n      mload(0x40)\n      dup1\n      swap2\n      sub\n      swap1\n      return\n        /* \"contract/EventOrganizingContract.sol\":267:304  mapping (uint => Event) public events */\n    tag_10:\n      mstore(0x20, 0x00)\n      dup1\n      0x00\n      mstore\n      keccak256(0x00, 0x40)\n      0x00\n      swap2\n      pop\n      swap1\n      pop\n      dup1\n      0x00\n      add\n      0x00\n      swap1\n      sload\n      swap1\n      0x0100\n      exp\n      swap1\n      div\n      0xffffffffffffffffffffffffffffffffffffffff\n      and\n      swap1\n      dup1\n      0x01\n      add\n      sload\n      swap1\n      dup1\n      0x02\n      add\n      dup1\n      sload\n      tag_26\n      swap1\n      tag_27\n      jump\t// in\n    tag_26:\n      dup1\n      0x1f\n      add\n      0x20\n      dup1\n      swap2\n      div\n      mul\n      0x20\n      add\n      mload(0x40)\n      swap1\n      dup2\n      add\n      0x40\n      mstore\n      dup1\n      swap3\n      swap2\n      swap1\n      dup2\n      dup2\n      mstore\n      0x20\n      add\n      dup3\n      dup1\n      sload\n      tag_28\n      swap1\n      tag_27\n      jump\t// in\n    tag_28:\n      dup1\n      iszero\n      tag_29\n      jumpi\n      dup1\n      0x1f\n      lt\n      tag_30\n      jumpi\n      0x0100\n      dup1\n      dup4\n      sload\n      div\n      mul\n      dup4\n      mstore\n      swap2\n      0x20\n      add\n      swap2\n      jump(tag_29)\n    tag_30:\n      dup3\n      add\n      swap2\n      swap1\n      0x00\n      mstore\n      keccak256(0x00, 0x20)\n      swap1\n    tag_31:\n      dup2\n      sload\n      dup2\n      mstore\n      swap1\n      0x01\n      add\n      swap1\n      0x20\n      add\n      dup1\n      dup4\n      gt\n      tag_31\n      jumpi\n      dup3\n      swap1\n      sub\n      0x1f\n      and\n      dup3\n      add\n      swap2\n    tag_29:\n      pop\n      pop\n      pop\n      pop\n      pop\n      swap1\n      dup1\n      0x03\n      add\n      sload\n      swap1\n      dup1\n      0x04\n      add\n      sload\n      swap1\n      dup1\n      0x05\n      add\n      sload\n      swap1\n      pop\n      dup7\n      jump\t// out\n        /* \"contract/EventOrganizingContract.sol\":402:528  function createEvent(uint _date, string memory _name, uint _price, uint _ticketCount, uint _ticketRe) public{\r... */\n    tag_16:\n      pop\n      pop\n      pop\n      pop\n      pop\n      jump\t// out\n        /* \"contract/EventOrganizingContract.sol\":375:389  uint public ID */\n    tag_18:\n      sload(0x02)\n      dup2\n      jump\t// out\n        /* \"contract/EventOrganizingContract.sol\":311:368  mapping (address => mapping(uint => uint)) public tickets */\n    tag_24:\n      mstore(0x20, 0x01)\n      dup2\n      0x00\n      mstore\n      mstore(0x20, keccak256(0x00, 0x40))\n      dup1\n      0x00\n      mstore\n      keccak256(0x00, 0x40)\n      0x00\n      swap2\n      pop\n      swap2\n      pop\n      pop\n      sload\n      dup2\n      jump\t// out\n        /* \"#utility.yul\":7:419   */\n    tag_34:\n        /* \"#utility.yul\":85:90   */\n      0x00\n        /* \"#utility.yul\":110:176   */\n      tag_36\n        /* \"#utility.yul\":126:175   */\n      tag_37\n        /* \"#utility.yul\":168:174   */\n      dup5\n        /* \"#utility.yul\":126:175   */\n      tag_38\n      jump\t// in\n    tag_37:\n        /* \"#utility.yul\":110:176   */\n      tag_39\n      jump\t// in\n    tag_36:\n        /* \"#utility.yul\":101:176   */\n      swap1\n      pop\n        /* \"#utility.yul\":199:205   */\n      dup3\n        /* \"#utility.yul\":192:197   */\n      dup2\n        /* \"#utility.yul\":185:206   */\n      mstore\n        /* \"#utility.yul\":237:241   */\n      0x20\n        /* \"#utility.yul\":230:235   */\n      dup2\n        /* \"#utility.yul\":226:242   */\n      add\n        /* \"#utility.yul\":275:278   */\n      dup5\n        /* \"#utility.yul\":266:272   */\n      dup5\n        /* \"#utility.yul\":261:264   */\n      dup5\n        /* \"#utility.yul\":257:273   */\n      add\n        /* \"#utility.yul\":254:279   */\n      gt\n        /* \"#utility.yul\":251:363   */\n      iszero\n      tag_40\n      jumpi\n        /* \"#utility.yul\":282:361   */\n      tag_41\n      tag_42\n      jump\t// in\n    tag_41:\n        /* \"#utility.yul\":251:363   */\n    tag_40:\n        /* \"#utility.yul\":372:413   */\n      tag_43\n        /* \"#utility.yul\":406:412   */\n      dup5\n        /* \"#utility.yul\":401:404   */\n      dup3\n        /* \"#utility.yul\":396:399   */\n      dup6\n        /* \"#utility.yul\":372:413   */\n      tag_44\n      jump\t// in\n    tag_43:\n        /* \"#utility.yul\":91:419   */\n      pop\n        /* \"#utility.yul\":7:419   */\n      swap4\n      swap3\n      pop\n      pop\n      pop\n      jump\t// out\n        /* \"#utility.yul\":425:564   */\n    tag_45:\n        /* \"#utility.yul\":471:476   */\n      0x00\n        /* \"#utility.yul\":509:515   */\n      dup2\n        /* \"#utility.yul\":496:516   */\n      calldataload\n        /* \"#utility.yul\":487:516   */\n      swap1\n      pop\n        /* \"#utility.yul\":525:558   */\n      tag_47\n        /* \"#utility.yul\":552:557   */\n      dup2\n        /* \"#utility.yul\":525:558   */\n      tag_48\n      jump\t// in\n    tag_47:\n        /* \"#utility.yul\":425:564   */\n      swap3\n      swap2\n      pop\n      pop\n      jump\t// out\n        /* \"#utility.yul\":584:924   */\n    tag_49:\n        /* \"#utility.yul\":640:645   */\n      0x00\n        /* \"#utility.yul\":689:692   */\n      dup3\n        /* \"#utility.yul\":682:686   */\n      0x1f\n        /* \"#utility.yul\":674:680   */\n      dup4\n        /* \"#utility.yul\":670:687   */\n      add\n        /* \"#utility.yul\":666:693   */\n      slt\n        /* \"#utility.yul\":656:778   */\n      tag_51\n      jumpi\n        /* \"#utility.yul\":697:776   */\n      tag_52\n      tag_53\n      jump\t// in\n    tag_52:\n        /* \"#utility.yul\":656:778   */\n    tag_51:\n        /* \"#utility.yul\":814:820   */\n      dup2\n        /* \"#utility.yul\":801:821   */\n      calldataload\n        /* \"#utility.yul\":839:918   */\n      tag_54\n        /* \"#utility.yul\":914:917   */\n      dup5\n        /* \"#utility.yul\":906:912   */\n      dup3\n        /* \"#utility.yul\":899:903   */\n      0x20\n        /* \"#utility.yul\":891:897   */\n      dup7\n        /* \"#utility.yul\":887:904   */\n      add\n        /* \"#utility.yul\":839:918   */\n      tag_34\n      jump\t// in\n    tag_54:\n        /* \"#utility.yul\":830:918   */\n      swap2\n      pop\n        /* \"#utility.yul\":646:924   */\n      pop\n        /* \"#utility.yul\":584:924   */\n      swap3\n      swap2\n      pop\n      pop\n      jump\t// out\n        /* \"#utility.yul\":930:1069   */\n    tag_55:\n        /* \"#utility.yul\":976:981   */\n      0x00\n        /* \"#utility.yul\":1014:1020   */\n      dup2\n        /* \"#utility.yul\":1001:1021   */\n      calldataload\n        /* \"#utility.yul\":992:1021   */\n      swap1\n      pop\n        /* \"#utility.yul\":1030:1063   */\n      tag_57\n        /* \"#utility.yul\":1057:1062   */\n      dup2\n        /* \"#utility.yul\":1030:1063   */\n      tag_58\n      jump\t// in\n    tag_57:\n        /* \"#utility.yul\":930:1069   */\n      swap3\n      swap2\n      pop\n      pop\n      jump\t// out\n        /* \"#utility.yul\":1075:1549   */\n    tag_23:\n        /* \"#utility.yul\":1143:1149   */\n      0x00\n        /* \"#utility.yul\":1151:1157   */\n      dup1\n        /* \"#utility.yul\":1200:1202   */\n      0x40\n        /* \"#utility.yul\":1188:1197   */\n      dup4\n        /* \"#utility.yul\":1179:1186   */\n      dup6\n        /* \"#utility.yul\":1175:1198   */\n      sub\n        /* \"#utility.yul\":1171:1203   */\n      slt\n        /* \"#utility.yul\":1168:1287   */\n      iszero\n      tag_60\n      jumpi\n        /* \"#utility.yul\":1206:1285   */\n      tag_61\n      tag_62\n      jump\t// in\n    tag_61:\n        /* \"#utility.yul\":1168:1287   */\n    tag_60:\n        /* \"#utility.yul\":1326:1327   */\n      0x00\n        /* \"#utility.yul\":1351:1404   */\n      tag_63\n        /* \"#utility.yul\":1396:1403   */\n      dup6\n        /* \"#utility.yul\":1387:1393   */\n      dup3\n        /* \"#utility.yul\":1376:1385   */\n      dup7\n        /* \"#utility.yul\":1372:1394   */\n      add\n        /* \"#utility.yul\":1351:1404   */\n      tag_45\n      jump\t// in\n    tag_63:\n        /* \"#utility.yul\":1341:1404   */\n      swap3\n      pop\n        /* \"#utility.yul\":1297:1414   */\n      pop\n        /* \"#utility.yul\":1453:1455   */\n      0x20\n        /* \"#utility.yul\":1479:1532   */\n      tag_64\n        /* \"#utility.yul\":1524:1531   */\n      dup6\n        /* \"#utility.yul\":1515:1521   */\n      dup3\n        /* \"#utility.yul\":1504:1513   */\n      dup7\n        /* \"#utility.yul\":1500:1522   */\n      add\n        /* \"#utility.yul\":1479:1532   */\n      tag_55\n      jump\t// in\n    tag_64:\n        /* \"#utility.yul\":1469:1532   */\n      swap2\n      pop\n        /* \"#utility.yul\":1424:1542   */\n      pop\n        /* \"#utility.yul\":1075:1549   */\n      swap3\n      pop\n      swap3\n      swap1\n      pop\n      jump\t// out\n        /* \"#utility.yul\":1555:1884   */\n    tag_9:\n        /* \"#utility.yul\":1614:1620   */\n      0x00\n        /* \"#utility.yul\":1663:1665   */\n      0x20\n        /* \"#utility.yul\":1651:1660   */\n      dup3\n        /* \"#utility.yul\":1642:1649   */\n      dup5\n        /* \"#utility.yul\":1638:1661   */\n      sub\n        /* \"#utility.yul\":1634:1666   */\n      slt\n        /* \"#utility.yul\":1631:1750   */\n      iszero\n      tag_66\n      jumpi\n        /* \"#utility.yul\":1669:1748   */\n      tag_67\n      tag_62\n      jump\t// in\n    tag_67:\n        /* \"#utility.yul\":1631:1750   */\n    tag_66:\n        /* \"#utility.yul\":1789:1790   */\n      0x00\n        /* \"#utility.yul\":1814:1867   */\n      tag_68\n        /* \"#utility.yul\":1859:1866   */\n      dup5\n        /* \"#utility.yul\":1850:1856   */\n      dup3\n        /* \"#utility.yul\":1839:1848   */\n      dup6\n        /* \"#utility.yul\":1835:1857   */\n      add\n        /* \"#utility.yul\":1814:1867   */\n      tag_55\n      jump\t// in\n    tag_68:\n        /* \"#utility.yul\":1804:1867   */\n      swap2\n      pop\n        /* \"#utility.yul\":1760:1877   */\n      pop\n        /* \"#utility.yul\":1555:1884   */\n      swap3\n      swap2\n      pop\n      pop\n      jump\t// out\n        /* \"#utility.yul\":1890:2981   */\n    tag_15:\n        /* \"#utility.yul\":1995:2001   */\n      0x00\n        /* \"#utility.yul\":2003:2009   */\n      dup1\n        /* \"#utility.yul\":2011:2017   */\n      0x00\n        /* \"#utility.yul\":2019:2025   */\n      dup1\n        /* \"#utility.yul\":2027:2033   */\n      0x00\n        /* \"#utility.yul\":2076:2079   */\n      0xa0\n        /* \"#utility.yul\":2064:2073   */\n      dup7\n        /* \"#utility.yul\":2055:2062   */\n      dup9\n        /* \"#utility.yul\":2051:2074   */\n      sub\n        /* \"#utility.yul\":2047:2080   */\n      slt\n        /* \"#utility.yul\":2044:2164   */\n      iszero\n      tag_70\n      jumpi\n        /* \"#utility.yul\":2083:2162   */\n      tag_71\n      tag_62\n      jump\t// in\n    tag_71:\n        /* \"#utility.yul\":2044:2164   */\n    tag_70:\n        /* \"#utility.yul\":2203:2204   */\n      0x00\n        /* \"#utility.yul\":2228:2281   */\n      tag_72\n        /* \"#utility.yul\":2273:2280   */\n      dup9\n        /* \"#utility.yul\":2264:2270   */\n      dup3\n        /* \"#utility.yul\":2253:2262   */\n      dup10\n        /* \"#utility.yul\":2249:2271   */\n      add\n        /* \"#utility.yul\":2228:2281   */\n      tag_55\n      jump\t// in\n    tag_72:\n        /* \"#utility.yul\":2218:2281   */\n      swap6\n      pop\n        /* \"#utility.yul\":2174:2291   */\n      pop\n        /* \"#utility.yul\":2358:2360   */\n      0x20\n        /* \"#utility.yul\":2347:2356   */\n      dup7\n        /* \"#utility.yul\":2343:2361   */\n      add\n        /* \"#utility.yul\":2330:2362   */\n      calldataload\n        /* \"#utility.yul\":2389:2407   */\n      0xffffffffffffffff\n        /* \"#utility.yul\":2381:2387   */\n      dup2\n        /* \"#utility.yul\":2378:2408   */\n      gt\n        /* \"#utility.yul\":2375:2492   */\n      iszero\n      tag_73\n      jumpi\n        /* \"#utility.yul\":2411:2490   */\n      tag_74\n      tag_75\n      jump\t// in\n    tag_74:\n        /* \"#utility.yul\":2375:2492   */\n    tag_73:\n        /* \"#utility.yul\":2516:2579   */\n      tag_76\n        /* \"#utility.yul\":2571:2578   */\n      dup9\n        /* \"#utility.yul\":2562:2568   */\n      dup3\n        /* \"#utility.yul\":2551:2560   */\n      dup10\n        /* \"#utility.yul\":2547:2569   */\n      add\n        /* \"#utility.yul\":2516:2579   */\n      tag_49\n      jump\t// in\n    tag_76:\n        /* \"#utility.yul\":2506:2579   */\n      swap5\n      pop\n        /* \"#utility.yul\":2301:2589   */\n      pop\n        /* \"#utility.yul\":2628:2630   */\n      0x40\n        /* \"#utility.yul\":2654:2707   */\n      tag_77\n        /* \"#utility.yul\":2699:2706   */\n      dup9\n        /* \"#utility.yul\":2690:2696   */\n      dup3\n        /* \"#utility.yul\":2679:2688   */\n      dup10\n        /* \"#utility.yul\":2675:2697   */\n      add\n        /* \"#utility.yul\":2654:2707   */\n      tag_55\n      jump\t// in\n    tag_77:\n        /* \"#utility.yul\":2644:2707   */\n      swap4\n      pop\n        /* \"#utility.yul\":2599:2717   */\n      pop\n        /* \"#utility.yul\":2756:2758   */\n      0x60\n        /* \"#utility.yul\":2782:2835   */\n      tag_78\n        /* \"#utility.yul\":2827:2834   */\n      dup9\n        /* \"#utility.yul\":2818:2824   */\n      dup3\n        /* \"#utility.yul\":2807:2816   */\n      dup10\n        /* \"#utility.yul\":2803:2825   */\n      add\n        /* \"#utility.yul\":2782:2835   */\n      tag_55\n      jump\t// in\n    tag_78:\n        /* \"#utility.yul\":2772:2835   */\n      swap3\n      pop\n        /* \"#utility.yul\":2727:2845   */\n      pop\n        /* \"#utility.yul\":2884:2887   */\n      0x80\n        /* \"#utility.yul\":2911:2964   */\n      tag_79\n        /* \"#utility.yul\":2956:2963   */\n      dup9\n        /* \"#utility.yul\":2947:2953   */\n      dup3\n        /* \"#utility.yul\":2936:2945   */\n      dup10\n        /* \"#utility.yul\":2932:2954   */\n      add\n        /* \"#utility.yul\":2911:2964   */\n      tag_55\n      jump\t// in\n    tag_79:\n        /* \"#utility.yul\":2901:2964   */\n      swap2\n      pop\n        /* \"#utility.yul\":2855:2974   */\n      pop\n        /* \"#utility.yul\":1890:2981   */\n      swap3\n      swap6\n      pop\n      swap3\n      swap6\n      swap1\n      swap4\n      pop\n      jump\t// out\n        /* \"#utility.yul\":2987:3105   */\n    tag_80:\n        /* \"#utility.yul\":3074:3098   */\n      tag_82\n        /* \"#utility.yul\":3092:3097   */\n      dup2\n        /* \"#utility.yul\":3074:3098   */\n      tag_83\n      jump\t// in\n    tag_82:\n        /* \"#utility.yul\":3069:3072   */\n      dup3\n        /* \"#utility.yul\":3062:3099   */\n      mstore\n        /* \"#utility.yul\":2987:3105   */\n      pop\n      pop\n      jump\t// out\n        /* \"#utility.yul\":3111:3475   */\n    tag_84:\n        /* \"#utility.yul\":3199:3202   */\n      0x00\n        /* \"#utility.yul\":3227:3266   */\n      tag_86\n        /* \"#utility.yul\":3260:3265   */\n      dup3\n        /* \"#utility.yul\":3227:3266   */\n      tag_87\n      jump\t// in\n    tag_86:\n        /* \"#utility.yul\":3282:3353   */\n      tag_88\n        /* \"#utility.yul\":3346:3352   */\n      dup2\n        /* \"#utility.yul\":3341:3344   */\n      dup6\n        /* \"#utility.yul\":3282:3353   */\n      tag_89\n      jump\t// in\n    tag_88:\n        /* \"#utility.yul\":3275:3353   */\n      swap4\n      pop\n        /* \"#utility.yul\":3362:3414   */\n      tag_90\n        /* \"#utility.yul\":3407:3413   */\n      dup2\n        /* \"#utility.yul\":3402:3405   */\n      dup6\n        /* \"#utility.yul\":3395:3399   */\n      0x20\n        /* \"#utility.yul\":3388:3393   */\n      dup7\n        /* \"#utility.yul\":3384:3400   */\n      add\n        /* \"#utility.yul\":3362:3414   */\n      tag_91\n      jump\t// in\n    tag_90:\n        /* \"#utility.yul\":3439:3468   */\n      tag_92\n        /* \"#utility.yul\":3461:3467   */\n      dup2\n        /* \"#utility.yul\":3439:3468   */\n      tag_93\n      jump\t// in\n    tag_92:\n        /* \"#utility.yul\":3434:3437   */\n      dup5\n        /* \"#utility.yul\":3430:3469   */\n      add\n        /* \"#utility.yul\":3423:3469   */\n      swap2\n      pop\n        /* \"#utility.yul\":3203:3475   */\n      pop\n        /* \"#utility.yul\":3111:3475   */\n      swap3\n      swap2\n      pop\n      pop\n      jump\t// out\n        /* \"#utility.yul\":3481:3599   */\n    tag_94:\n        /* \"#utility.yul\":3568:3592   */\n      tag_96\n        /* \"#utility.yul\":3586:3591   */\n      dup2\n        /* \"#utility.yul\":3568:3592   */\n      tag_97\n      jump\t// in\n    tag_96:\n        /* \"#utility.yul\":3563:3566   */\n      dup3\n        /* \"#utility.yul\":3556:3593   */\n      mstore\n        /* \"#utility.yul\":3481:3599   */\n      pop\n      pop\n      jump\t// out\n        /* \"#utility.yul\":3605:4471   */\n    tag_12:\n        /* \"#utility.yul\":3858:3862   */\n      0x00\n        /* \"#utility.yul\":3896:3899   */\n      0xc0\n        /* \"#utility.yul\":3885:3894   */\n      dup3\n        /* \"#utility.yul\":3881:3900   */\n      add\n        /* \"#utility.yul\":3873:3900   */\n      swap1\n      pop\n        /* \"#utility.yul\":3910:3981   */\n      tag_99\n        /* \"#utility.yul\":3978:3979   */\n      0x00\n        /* \"#utility.yul\":3967:3976   */\n      dup4\n        /* \"#utility.yul\":3963:3980   */\n      add\n        /* \"#utility.yul\":3954:3960   */\n      dup10\n        /* \"#utility.yul\":3910:3981   */\n      tag_80\n      jump\t// in\n    tag_99:\n        /* \"#utility.yul\":3991:4063   */\n      tag_100\n        /* \"#utility.yul\":4059:4061   */\n      0x20\n        /* \"#utility.yul\":4048:4057   */\n      dup4\n        /* \"#utility.yul\":4044:4062   */\n      add\n        /* \"#utility.yul\":4035:4041   */\n      dup9\n        /* \"#utility.yul\":3991:4063   */\n      tag_94\n      jump\t// in\n    tag_100:\n        /* \"#utility.yul\":4110:4119   */\n      dup2\n        /* \"#utility.yul\":4104:4108   */\n      dup2\n        /* \"#utility.yul\":4100:4120   */\n      sub\n        /* \"#utility.yul\":4095:4097   */\n      0x40\n        /* \"#utility.yul\":4084:4093   */\n      dup4\n        /* \"#utility.yul\":4080:4098   */\n      add\n        /* \"#utility.yul\":4073:4121   */\n      mstore\n        /* \"#utility.yul\":4138:4216   */\n      tag_101\n        /* \"#utility.yul\":4211:4215   */\n      dup2\n        /* \"#utility.yul\":4202:4208   */\n      dup8\n        /* \"#utility.yul\":4138:4216   */\n      tag_84\n      jump\t// in\n    tag_101:\n        /* \"#utility.yul\":4130:4216   */\n      swap1\n      pop\n        /* \"#utility.yul\":4226:4298   */\n      tag_102\n        /* \"#utility.yul\":4294:4296   */\n      0x60\n        /* \"#utility.yul\":4283:4292   */\n      dup4\n        /* \"#utility.yul\":4279:4297   */\n      add\n        /* \"#utility.yul\":4270:4276   */\n      dup7\n        /* \"#utility.yul\":4226:4298   */\n      tag_94\n      jump\t// in\n    tag_102:\n        /* \"#utility.yul\":4308:4381   */\n      tag_103\n        /* \"#utility.yul\":4376:4379   */\n      0x80\n        /* \"#utility.yul\":4365:4374   */\n      dup4\n        /* \"#utility.yul\":4361:4380   */\n      add\n        /* \"#utility.yul\":4352:4358   */\n      dup6\n        /* \"#utility.yul\":4308:4381   */\n      tag_94\n      jump\t// in\n    tag_103:\n        /* \"#utility.yul\":4391:4464   */\n      tag_104\n        /* \"#utility.yul\":4459:4462   */\n      0xa0\n        /* \"#utility.yul\":4448:4457   */\n      dup4\n        /* \"#utility.yul\":4444:4463   */\n      add\n        /* \"#utility.yul\":4435:4441   */\n      dup5\n        /* \"#utility.yul\":4391:4464   */\n      tag_94\n      jump\t// in\n    tag_104:\n        /* \"#utility.yul\":3605:4471   */\n      swap8\n      swap7\n      pop\n      pop\n      pop\n      pop\n      pop\n      pop\n      pop\n      jump\t// out\n        /* \"#utility.yul\":4477:4699   */\n    tag_20:\n        /* \"#utility.yul\":4570:4574   */\n      0x00\n        /* \"#utility.yul\":4608:4610   */\n      0x20\n        /* \"#utility.yul\":4597:4606   */\n      dup3\n        /* \"#utility.yul\":4593:4611   */\n      add\n        /* \"#utility.yul\":4585:4611   */\n      swap1\n      pop\n        /* \"#utility.yul\":4621:4692   */\n      tag_106\n        /* \"#utility.yul\":4689:4690   */\n      0x00\n        /* \"#utility.yul\":4678:4687   */\n      dup4\n        /* \"#utility.yul\":4674:4691   */\n      add\n        /* \"#utility.yul\":4665:4671   */\n      dup5\n        /* \"#utility.yul\":4621:4692   */\n      tag_94\n      jump\t// in\n    tag_106:\n        /* \"#utility.yul\":4477:4699   */\n      swap3\n      swap2\n      pop\n      pop\n      jump\t// out\n        /* \"#utility.yul\":4705:4834   */\n    tag_39:\n        /* \"#utility.yul\":4739:4745   */\n      0x00\n        /* \"#utility.yul\":4766:4786   */\n      tag_108\n      tag_109\n      jump\t// in\n    tag_108:\n        /* \"#utility.yul\":4756:4786   */\n      swap1\n      pop\n        /* \"#utility.yul\":4795:4828   */\n      tag_110\n        /* \"#utility.yul\":4823:4827   */\n      dup3\n        /* \"#utility.yul\":4815:4821   */\n      dup3\n        /* \"#utility.yul\":4795:4828   */\n      tag_111\n      jump\t// in\n    tag_110:\n        /* \"#utility.yul\":4705:4834   */\n      swap2\n      swap1\n      pop\n      jump\t// out\n        /* \"#utility.yul\":4840:4915   */\n    tag_109:\n        /* \"#utility.yul\":4873:4879   */\n      0x00\n        /* \"#utility.yul\":4906:4908   */\n      0x40\n        /* \"#utility.yul\":4900:4909   */\n      mload\n        /* \"#utility.yul\":4890:4909   */\n      swap1\n      pop\n        /* \"#utility.yul\":4840:4915   */\n      swap1\n      jump\t// out\n        /* \"#utility.yul\":4921:5229   */\n    tag_38:\n        /* \"#utility.yul\":4983:4987   */\n      0x00\n        /* \"#utility.yul\":5073:5091   */\n      0xffffffffffffffff\n        /* \"#utility.yul\":5065:5071   */\n      dup3\n        /* \"#utility.yul\":5062:5092   */\n      gt\n        /* \"#utility.yul\":5059:5115   */\n      iszero\n      tag_114\n      jumpi\n        /* \"#utility.yul\":5095:5113   */\n      tag_115\n      tag_116\n      jump\t// in\n    tag_115:\n        /* \"#utility.yul\":5059:5115   */\n    tag_114:\n        /* \"#utility.yul\":5133:5162   */\n      tag_117\n        /* \"#utility.yul\":5155:5161   */\n      dup3\n        /* \"#utility.yul\":5133:5162   */\n      tag_93\n      jump\t// in\n    tag_117:\n        /* \"#utility.yul\":5125:5162   */\n      swap1\n      pop\n        /* \"#utility.yul\":5217:5221   */\n      0x20\n        /* \"#utility.yul\":5211:5215   */\n      dup2\n        /* \"#utility.yul\":5207:5222   */\n      add\n        /* \"#utility.yul\":5199:5222   */\n      swap1\n      pop\n        /* \"#utility.yul\":4921:5229   */\n      swap2\n      swap1\n      pop\n      jump\t// out\n        /* \"#utility.yul\":5235:5334   */\n    tag_87:\n        /* \"#utility.yul\":5287:5293   */\n      0x00\n        /* \"#utility.yul\":5321:5326   */\n      dup2\n        /* \"#utility.yul\":5315:5327   */\n      mload\n        /* \"#utility.yul\":5305:5327   */\n      swap1\n      pop\n        /* \"#utility.yul\":5235:5334   */\n      swap2\n      swap1\n      pop\n      jump\t// out\n        /* \"#utility.yul\":5340:5509   */\n    tag_89:\n        /* \"#utility.yul\":5424:5435   */\n      0x00\n        /* \"#utility.yul\":5458:5464   */\n      dup3\n        /* \"#utility.yul\":5453:5456   */\n      dup3\n        /* \"#utility.yul\":5446:5465   */\n      mstore\n        /* \"#utility.yul\":5498:5502   */\n      0x20\n        /* \"#utility.yul\":5493:5496   */\n      dup3\n        /* \"#utility.yul\":5489:5503   */\n      add\n        /* \"#utility.yul\":5474:5503   */\n      swap1\n      pop\n        /* \"#utility.yul\":5340:5509   */\n      swap3\n      swap2\n      pop\n      pop\n      jump\t// out\n        /* \"#utility.yul\":5515:5611   */\n    tag_83:\n        /* \"#utility.yul\":5552:5559   */\n      0x00\n        /* \"#utility.yul\":5581:5605   */\n      tag_121\n        /* \"#utility.yul\":5599:5604   */\n      dup3\n        /* \"#utility.yul\":5581:5605   */\n      tag_122\n      jump\t// in\n    tag_121:\n        /* \"#utility.yul\":5570:5605   */\n      swap1\n      pop\n        /* \"#utility.yul\":5515:5611   */\n      swap2\n      swap1\n      pop\n      jump\t// out\n        /* \"#utility.yul\":5617:5743   */\n    tag_122:\n        /* \"#utility.yul\":5654:5661   */\n      0x00\n        /* \"#utility.yul\":5694:5736   */\n      0xffffffffffffffffffffffffffffffffffffffff\n        /* \"#utility.yul\":5687:5692   */\n      dup3\n        /* \"#utility.yul\":5683:5737   */\n      and\n        /* \"#utility.yul\":5672:5737   */\n      swap1\n      pop\n        /* \"#utility.yul\":5617:5743   */\n      swap2\n      swap1\n      pop\n      jump\t// out\n        /* \"#utility.yul\":5749:5826   */\n    tag_97:\n        /* \"#utility.yul\":5786:5793   */\n      0x00\n        /* \"#utility.yul\":5815:5820   */\n      dup2\n        /* \"#utility.yul\":5804:5820   */\n      swap1\n      pop\n        /* \"#utility.yul\":5749:5826   */\n      swap2\n      swap1\n      pop\n      jump\t// out\n        /* \"#utility.yul\":5832:5986   */\n    tag_44:\n        /* \"#utility.yul\":5916:5922   */\n      dup3\n        /* \"#utility.yul\":5911:5914   */\n      dup2\n        /* \"#utility.yul\":5906:5909   */\n      dup4\n        /* \"#utility.yul\":5893:5923   */\n      calldatacopy\n        /* \"#utility.yul\":5978:5979   */\n      0x00\n        /* \"#utility.yul\":5969:5975   */\n      dup4\n        /* \"#utility.yul\":5964:5967   */\n      dup4\n        /* \"#utility.yul\":5960:5976   */\n      add\n        /* \"#utility.yul\":5953:5980   */\n      mstore\n        /* \"#utility.yul\":5832:5986   */\n      pop\n      pop\n      pop\n      jump\t// out\n        /* \"#utility.yul\":5992:6299   */\n    tag_91:\n        /* \"#utility.yul\":6060:6061   */\n      0x00\n        /* \"#utility.yul\":6070:6183   */\n    tag_127:\n        /* \"#utility.yul\":6084:6090   */\n      dup4\n        /* \"#utility.yul\":6081:6082   */\n      dup2\n        /* \"#utility.yul\":6078:6091   */\n      lt\n        /* \"#utility.yul\":6070:6183   */\n      iszero\n      tag_129\n      jumpi\n        /* \"#utility.yul\":6169:6170   */\n      dup1\n        /* \"#utility.yul\":6164:6167   */\n      dup3\n        /* \"#utility.yul\":6160:6171   */\n      add\n        /* \"#utility.yul\":6154:6172   */\n      mload\n        /* \"#utility.yul\":6150:6151   */\n      dup2\n        /* \"#utility.yul\":6145:6148   */\n      dup5\n        /* \"#utility.yul\":6141:6152   */\n      add\n        /* \"#utility.yul\":6134:6173   */\n      mstore\n        /* \"#utility.yul\":6106:6108   */\n      0x20\n        /* \"#utility.yul\":6103:6104   */\n      dup2\n        /* \"#utility.yul\":6099:6109   */\n      add\n        /* \"#utility.yul\":6094:6109   */\n      swap1\n      pop\n        /* \"#utility.yul\":6070:6183   */\n      jump(tag_127)\n    tag_129:\n        /* \"#utility.yul\":6201:6207   */\n      dup4\n        /* \"#utility.yul\":6198:6199   */\n      dup2\n        /* \"#utility.yul\":6195:6208   */\n      gt\n        /* \"#utility.yul\":6192:6293   */\n      iszero\n      tag_130\n      jumpi\n        /* \"#utility.yul\":6281:6282   */\n      0x00\n        /* \"#utility.yul\":6272:6278   */\n      dup5\n        /* \"#utility.yul\":6267:6270   */\n      dup5\n        /* \"#utility.yul\":6263:6279   */\n      add\n        /* \"#utility.yul\":6256:6283   */\n      mstore\n        /* \"#utility.yul\":6192:6293   */\n    tag_130:\n        /* \"#utility.yul\":6041:6299   */\n      pop\n        /* \"#utility.yul\":5992:6299   */\n      pop\n      pop\n      pop\n      jump\t// out\n        /* \"#utility.yul\":6305:6625   */\n    tag_27:\n        /* \"#utility.yul\":6349:6355   */\n      0x00\n        /* \"#utility.yul\":6386:6387   */\n      0x02\n        /* \"#utility.yul\":6380:6384   */\n      dup3\n        /* \"#utility.yul\":6376:6388   */\n      div\n        /* \"#utility.yul\":6366:6388   */\n      swap1\n      pop\n        /* \"#utility.yul\":6433:6434   */\n      0x01\n        /* \"#utility.yul\":6427:6431   */\n      dup3\n        /* \"#utility.yul\":6423:6435   */\n      and\n        /* \"#utility.yul\":6454:6472   */\n      dup1\n        /* \"#utility.yul\":6444:6525   */\n      tag_132\n      jumpi\n        /* \"#utility.yul\":6510:6514   */\n      0x7f\n        /* \"#utility.yul\":6502:6508   */\n      dup3\n        /* \"#utility.yul\":6498:6515   */\n      and\n        /* \"#utility.yul\":6488:6515   */\n      swap2\n      pop\n        /* \"#utility.yul\":6444:6525   */\n    tag_132:\n        /* \"#utility.yul\":6572:6574   */\n      0x20\n        /* \"#utility.yul\":6564:6570   */\n      dup3\n        /* \"#utility.yul\":6561:6575   */\n      lt\n        /* \"#utility.yul\":6541:6559   */\n      dup2\n        /* \"#utility.yul\":6538:6576   */\n      eq\n        /* \"#utility.yul\":6535:6619   */\n      iszero\n      tag_133\n      jumpi\n        /* \"#utility.yul\":6591:6609   */\n      tag_134\n      tag_135\n      jump\t// in\n    tag_134:\n        /* \"#utility.yul\":6535:6619   */\n    tag_133:\n        /* \"#utility.yul\":6356:6625   */\n      pop\n        /* \"#utility.yul\":6305:6625   */\n      swap2\n      swap1\n      pop\n      jump\t// out\n        /* \"#utility.yul\":6631:6912   */\n    tag_111:\n        /* \"#utility.yul\":6714:6741   */\n      tag_137\n        /* \"#utility.yul\":6736:6740   */\n      dup3\n        /* \"#utility.yul\":6714:6741   */\n      tag_93\n      jump\t// in\n    tag_137:\n        /* \"#utility.yul\":6706:6712   */\n      dup2\n        /* \"#utility.yul\":6702:6742   */\n      add\n        /* \"#utility.yul\":6844:6850   */\n      dup2\n        /* \"#utility.yul\":6832:6842   */\n      dup2\n        /* \"#utility.yul\":6829:6851   */\n      lt\n        /* \"#utility.yul\":6808:6826   */\n      0xffffffffffffffff\n        /* \"#utility.yul\":6796:6806   */\n      dup3\n        /* \"#utility.yul\":6793:6827   */\n      gt\n        /* \"#utility.yul\":6790:6852   */\n      or\n        /* \"#utility.yul\":6787:6875   */\n      iszero\n      tag_138\n      jumpi\n        /* \"#utility.yul\":6855:6873   */\n      tag_139\n      tag_116\n      jump\t// in\n    tag_139:\n        /* \"#utility.yul\":6787:6875   */\n    tag_138:\n        /* \"#utility.yul\":6895:6905   */\n      dup1\n        /* \"#utility.yul\":6891:6893   */\n      0x40\n        /* \"#utility.yul\":6884:6906   */\n      mstore\n        /* \"#utility.yul\":6674:6912   */\n      pop\n        /* \"#utility.yul\":6631:6912   */\n      pop\n      pop\n      jump\t// out\n        /* \"#utility.yul\":6918:7098   */\n    tag_135:\n        /* \"#utility.yul\":6966:7043   */\n      0x4e487b7100000000000000000000000000000000000000000000000000000000\n        /* \"#utility.yul\":6963:6964   */\n      0x00\n        /* \"#utility.yul\":6956:7044   */\n      mstore\n        /* \"#utility.yul\":7063:7067   */\n      0x22\n        /* \"#utility.yul\":7060:7061   */\n      0x04\n        /* \"#utility.yul\":7053:7068   */\n      mstore\n        /* \"#utility.yul\":7087:7091   */\n      0x24\n        /* \"#utility.yul\":7084:7085   */\n      0x00\n        /* \"#utility.yul\":7077:7092   */\n      revert\n        /* \"#utility.yul\":7104:7284   */\n    tag_116:\n        /* \"#utility.yul\":7152:7229   */\n      0x4e487b7100000000000000000000000000000000000000000000000000000000\n        /* \"#utility.yul\":7149:7150   */\n      0x00\n        /* \"#utility.yul\":7142:7230   */\n      mstore\n        /* \"#utility.yul\":7249:7253   */\n      0x41\n        /* \"#utility.yul\":7246:7247   */\n      0x04\n        /* \"#utility.yul\":7239:7254   */\n      mstore\n        /* \"#utility.yul\":7273:7277   */\n      0x24\n        /* \"#utility.yul\":7270:7271   */\n      0x00\n        /* \"#utility.yul\":7263:7278   */\n      revert\n        /* \"#utility.yul\":7290:7407   */\n    tag_53:\n        /* \"#utility.yul\":7399:7400   */\n      0x00\n        /* \"#utility.yul\":7396:7397   */\n      dup1\n        /* \"#utility.yul\":7389:7401   */\n      revert\n        /* \"#utility.yul\":7413:7530   */\n    tag_42:\n        /* \"#utility.yul\":7522:7523   */\n      0x00\n        /* \"#utility.yul\":7519:7520   */\n      dup1\n        /* \"#utility.yul\":7512:7524   */\n      revert\n        /* \"#utility.yul\":7536:7653   */\n    tag_75:\n        /* \"#utility.yul\":7645:7646   */\n      0x00\n        /* \"#utility.yul\":7642:7643   */\n      dup1\n        /* \"#utility.yul\":7635:7647   */\n      revert\n        /* \"#utility.yul\":7659:7776   */\n    tag_62:\n        /* \"#utility.yul\":7768:7769   */\n      0x00\n        /* \"#utility.yul\":7765:7766   */\n      dup1\n        /* \"#utility.yul\":7758:7770   */\n      revert\n        /* \"#utility.yul\":7782:7884   */\n    tag_93:\n        /* \"#utility.yul\":7823:7829   */\n      0x00\n        /* \"#utility.yul\":7874:7876   */\n      0x1f\n        /* \"#utility.yul\":7870:7877   */\n      not\n        /* \"#utility.yul\":7865:7867   */\n      0x1f\n        /* \"#utility.yul\":7858:7863   */\n      dup4\n        /* \"#utility.yul\":7854:7868   */\n      add\n        /* \"#utility.yul\":7850:7878   */\n      and\n        /* \"#utility.yul\":7840:7878   */\n      swap1\n      pop\n        /* \"#utility.yul\":7782:7884   */\n      swap2\n      swap1\n      pop\n      jump\t// out\n        /* \"#utility.yul\":7890:8012   */\n    tag_48:\n        /* \"#utility.yul\":7963:7987   */\n      tag_148\n        /* \"#utility.yul\":7981:7986   */\n      dup2\n        /* \"#utility.yul\":7963:7987   */\n      tag_83\n      jump\t// in\n    tag_148:\n        /* \"#utility.yul\":7956:7961   */\n      dup2\n        /* \"#utility.yul\":7953:7988   */\n      eq\n        /* \"#utility.yul\":7943:8006   */\n      tag_149\n      jumpi\n        /* \"#utility.yul\":8002:8003   */\n      0x00\n        /* \"#utility.yul\":7999:8000   */\n      dup1\n        /* \"#utility.yul\":7992:8004   */\n      revert\n        /* \"#utility.yul\":7943:8006   */\n    tag_149:\n        /* \"#utility.yul\":7890:8012   */\n      pop\n      jump\t// out\n        /* \"#utility.yul\":8018:8140   */\n    tag_58:\n        /* \"#utility.yul\":8091:8115   */\n      tag_151\n        /* \"#utility.yul\":8109:8114   */\n      dup2\n        /* \"#utility.yul\":8091:8115   */\n      tag_97\n      jump\t// in\n    tag_151:\n        /* \"#utility.yul\":8084:8089   */\n      dup2\n        /* \"#utility.yul\":8081:8116   */\n      eq\n        /* \"#utility.yul\":8071:8134   */\n      tag_152\n      jumpi\n        /* \"#utility.yul\":8130:8131   */\n      0x00\n        /* \"#utility.yul\":8127:8128   */\n      dup1\n        /* \"#utility.yul\":8120:8132   */\n      revert\n        /* \"#utility.yul\":8071:8134   */\n    tag_152:\n        /* \"#utility.yul\":8018:8140   */\n      pop\n      jump\t// out\n\n    auxdata: 0xa2646970667358221220262f0cd176cdf2c221db9c4418c17b827ad6e85bc8b915d4748859ddaa8b573764736f6c63430008070033\n}\n",
				"bytecode": {
					"linkReferences": {},
					"object": "608060405234801561001057600080fd5b506106b8806100206000396000f3fe608060405234801561001057600080fd5b506004361061004c5760003560e01c80630b791430146100515780639ec4b59a14610086578063b3cea217146100a2578063dae7a13c146100c0575b600080fd5b61006b600480360381019061006691906102e0565b6100f0565b60405161007d969594939291906103fb565b60405180910390f35b6100a0600480360381019061009b919061030d565b6101d4565b005b6100aa6101db565b6040516100b79190610463565b60405180910390f35b6100da60048036038101906100d591906102a0565b6101e1565b6040516100e79190610463565b60405180910390f35b60006020528060005260406000206000915090508060000160009054906101000a900473ffffffffffffffffffffffffffffffffffffffff169080600101549080600201805461013f9061056e565b80601f016020809104026020016040519081016040528092919081815260200182805461016b9061056e565b80156101b85780601f1061018d576101008083540402835291602001916101b8565b820191906000526020600020905b81548152906001019060200180831161019b57829003601f168201915b5050505050908060030154908060040154908060050154905086565b5050505050565b60025481565b6001602052816000526040600020602052806000526040600020600091509150505481565b6000610219610214846104a3565b61047e565b90508281526020810184848401111561023557610234610634565b5b61024084828561052c565b509392505050565b60008135905061025781610654565b92915050565b600082601f8301126102725761027161062f565b5b8135610282848260208601610206565b91505092915050565b60008135905061029a8161066b565b92915050565b600080604083850312156102b7576102b661063e565b5b60006102c585828601610248565b92505060206102d68582860161028b565b9150509250929050565b6000602082840312156102f6576102f561063e565b5b60006103048482850161028b565b91505092915050565b600080600080600060a086880312156103295761032861063e565b5b60006103378882890161028b565b955050602086013567ffffffffffffffff81111561035857610357610639565b5b6103648882890161025d565b94505060406103758882890161028b565b93505060606103868882890161028b565b92505060806103978882890161028b565b9150509295509295909350565b6103ad816104f0565b82525050565b60006103be826104d4565b6103c881856104df565b93506103d881856020860161053b565b6103e181610643565b840191505092915050565b6103f581610522565b82525050565b600060c08201905061041060008301896103a4565b61041d60208301886103ec565b818103604083015261042f81876103b3565b905061043e60608301866103ec565b61044b60808301856103ec565b61045860a08301846103ec565b979650505050505050565b600060208201905061047860008301846103ec565b92915050565b6000610488610499565b905061049482826105a0565b919050565b6000604051905090565b600067ffffffffffffffff8211156104be576104bd610600565b5b6104c782610643565b9050602081019050919050565b600081519050919050565b600082825260208201905092915050565b60006104fb82610502565b9050919050565b600073ffffffffffffffffffffffffffffffffffffffff82169050919050565b6000819050919050565b82818337600083830152505050565b60005b8381101561055957808201518184015260208101905061053e565b83811115610568576000848401525b50505050565b6000600282049050600182168061058657607f821691505b6020821081141561059a576105996105d1565b5b50919050565b6105a982610643565b810181811067ffffffffffffffff821117156105c8576105c7610600565b5b80604052505050565b7f4e487b7100000000000000000000000000000000000000000000000000000000600052602260045260246000fd5b7f4e487b7100000000000000000000000000000000000000000000000000000000600052604160045260246000fd5b600080fd5b600080fd5b600080fd5b600080fd5b6000601f19601f8301169050919050565b61065d816104f0565b811461066857600080fd5b50565b61067481610522565b811461067f57600080fd5b5056fea2646970667358221220262f0cd176cdf2c221db9c4418c17b827ad6e85bc8b915d4748859ddaa8b573764736f6c63430008070033",
					"opcodes": "PUSH1 0x80 PUSH1 0x40 MSTORE CALLVALUE DUP1 ISZERO PUSH2 0x10 JUMPI PUSH1 0x0 DUP1 REVERT JUMPDEST POP PUSH2 0x6B8 DUP1 PUSH2 0x20 PUSH1 0x0 CODECOPY PUSH1 0x0 RETURN INVALID PUSH1 0x80 PUSH1 0x40 MSTORE CALLVALUE DUP1 ISZERO PUSH2 0x10 JUMPI PUSH1 0x0 DUP1 REVERT JUMPDEST POP PUSH1 0x4 CALLDATASIZE LT PUSH2 0x4C JUMPI PUSH1 0x0 CALLDATALOAD PUSH1 0xE0 SHR DUP1 PUSH4 0xB791430 EQ PUSH2 0x51 JUMPI DUP1 PUSH4 0x9EC4B59A EQ PUSH2 0x86 JUMPI DUP1 PUSH4 0xB3CEA217 EQ PUSH2 0xA2 JUMPI DUP1 PUSH4 0xDAE7A13C EQ PUSH2 0xC0 JUMPI JUMPDEST PUSH1 0x0 DUP1 REVERT JUMPDEST PUSH2 0x6B PUSH1 0x4 DUP1 CALLDATASIZE SUB DUP2 ADD SWAP1 PUSH2 0x66 SWAP2 SWAP1 PUSH2 0x2E0 JUMP JUMPDEST PUSH2 0xF0 JUMP JUMPDEST PUSH1 0x40 MLOAD PUSH2 0x7D SWAP7 SWAP6 SWAP5 SWAP4 SWAP3 SWAP2 SWAP1 PUSH2 0x3FB JUMP JUMPDEST PUSH1 0x40 MLOAD DUP1 SWAP2 SUB SWAP1 RETURN JUMPDEST PUSH2 0xA0 PUSH1 0x4 DUP1 CALLDATASIZE SUB DUP2 ADD SWAP1 PUSH2 0x9B SWAP2 SWAP1 PUSH2 0x30D JUMP JUMPDEST PUSH2 0x1D4 JUMP JUMPDEST STOP JUMPDEST PUSH2 0xAA PUSH2 0x1DB JUMP JUMPDEST PUSH1 0x40 MLOAD PUSH2 0xB7 SWAP2 SWAP1 PUSH2 0x463 JUMP JUMPDEST PUSH1 0x40 MLOAD DUP1 SWAP2 SUB SWAP1 RETURN JUMPDEST PUSH2 0xDA PUSH1 0x4 DUP1 CALLDATASIZE SUB DUP2 ADD SWAP1 PUSH2 0xD5 SWAP2 SWAP1 PUSH2 0x2A0 JUMP JUMPDEST PUSH2 0x1E1 JUMP JUMPDEST PUSH1 0x40 MLOAD PUSH2 0xE7 SWAP2 SWAP1 PUSH2 0x463 JUMP JUMPDEST PUSH1 0x40 MLOAD DUP1 SWAP2 SUB SWAP1 RETURN JUMPDEST PUSH1 0x0 PUSH1 0x20 MSTORE DUP1 PUSH1 0x0 MSTORE PUSH1 0x40 PUSH1 0x0 KECCAK256 PUSH1 0x0 SWAP2 POP SWAP1 POP DUP1 PUSH1 0x0 ADD PUSH1 0x0 SWAP1 SLOAD SWAP1 PUSH2 0x100 EXP SWAP1 DIV PUSH20 0xFFFFFFFFFFFFFFFFFFFFFFFFFFFFFFFFFFFFFFFF AND SWAP1 DUP1 PUSH1 0x1 ADD SLOAD SWAP1 DUP1 PUSH1 0x2 ADD DUP1 SLOAD PUSH2 0x13F SWAP1 PUSH2 0x56E JUMP JUMPDEST DUP1 PUSH1 0x1F ADD PUSH1 0x20 DUP1 SWAP2 DIV MUL PUSH1 0x20 ADD PUSH1 0x40 MLOAD SWAP1 DUP2 ADD PUSH1 0x40 MSTORE DUP1 SWAP3 SWAP2 SWAP1 DUP2 DUP2 MSTORE PUSH1 0x20 ADD DUP3 DUP1 SLOAD PUSH2 0x16B SWAP1 PUSH2 0x56E JUMP JUMPDEST DUP1 ISZERO PUSH2 0x1B8 JUMPI DUP1 PUSH1 0x1F LT PUSH2 0x18D JUMPI PUSH2 0x100 DUP1 DUP4 SLOAD DIV MUL DUP4 MSTORE SWAP2 PUSH1 0x20 ADD SWAP2 PUSH2 0x1B8 JUMP JUMPDEST DUP3 ADD SWAP2 SWAP1 PUSH1 0x0 MSTORE PUSH1 0x20 PUSH1 0x0 KECCAK256 SWAP1 JUMPDEST DUP2 SLOAD DUP2 MSTORE SWAP1 PUSH1 0x1 ADD SWAP1 PUSH1 0x20 ADD DUP1 DUP4 GT PUSH2 0x19B JUMPI DUP3 SWAP1 SUB PUSH1 0x1F AND DUP3 ADD SWAP2 JUMPDEST POP POP POP POP POP SWAP1 DUP1 PUSH1 0x3 ADD SLOAD SWAP1 DUP1 PUSH1 0x4 ADD SLOAD SWAP1 DUP1 PUSH1 0x5 ADD SLOAD SWAP1 POP DUP7 JUMP JUMPDEST POP POP POP POP POP JUMP JUMPDEST PUSH1 0x2 SLOAD DUP2 JUMP JUMPDEST PUSH1 0x1 PUSH1 0x20 MSTORE DUP2 PUSH1 0x0 MSTORE PUSH1 0x40 PUSH1 0x0 KECCAK256 PUSH1 0x20 MSTORE DUP1 PUSH1 0x0 MSTORE PUSH1 0x40 PUSH1 0x0 KECCAK256 PUSH1 0x0 SWAP2 POP SWAP2 POP POP SLOAD DUP2 JUMP JUMPDEST PUSH1 0x0 PUSH2 0x219 PUSH2 0x214 DUP5 PUSH2 0x4A3 JUMP JUMPDEST PUSH2 0x47E JUMP JUMPDEST SWAP1 POP DUP3 DUP2 MSTORE PUSH1 0x20 DUP2 ADD DUP5 DUP5 DUP5 ADD GT ISZERO PUSH2 0x235 JUMPI PUSH2 0x234 PUSH2 0x634 JUMP JUMPDEST JUMPDEST PUSH2 0x240 DUP5 DUP3 DUP6 PUSH2 0x52C JUMP JUMPDEST POP SWAP4 SWAP3 POP POP POP JUMP JUMPDEST PUSH1 0x0 DUP2 CALLDATALOAD SWAP1 POP PUSH2 0x257 DUP2 PUSH2 0x654 JUMP JUMPDEST SWAP3 SWAP2 POP POP JUMP JUMPDEST PUSH1 0x0 DUP3 PUSH1 0x1F DUP4 ADD SLT PUSH2 0x272 JUMPI PUSH2 0x271 PUSH2 0x62F JUMP JUMPDEST JUMPDEST DUP2 CALLDATALOAD PUSH2 0x282 DUP5 DUP3 PUSH1 0x20 DUP7 ADD PUSH2 0x206 JUMP JUMPDEST SWAP2 POP POP SWAP3 SWAP2 POP POP JUMP JUMPDEST PUSH1 0x0 DUP2 CALLDATALOAD SWAP1 POP PUSH2 0x29A DUP2 PUSH2 0x66B JUMP JUMPDEST SWAP3 SWAP2 POP POP JUMP JUMPDEST PUSH1 0x0 DUP1 PUSH1 0x40 DUP4 DUP6 SUB SLT ISZERO PUSH2 0x2B7 JUMPI PUSH2 0x2B6 PUSH2 0x63E JUMP JUMPDEST JUMPDEST PUSH1 0x0 PUSH2 0x2C5 DUP6 DUP3 DUP7 ADD PUSH2 0x248 JUMP JUMPDEST SWAP3 POP POP PUSH1 0x20 PUSH2 0x2D6 DUP6 DUP3 DUP7 ADD PUSH2 0x28B JUMP JUMPDEST SWAP2 POP POP SWAP3 POP SWAP3 SWAP1 POP JUMP JUMPDEST PUSH1 0x0 PUSH1 0x20 DUP3 DUP5 SUB SLT ISZERO PUSH2 0x2F6 JUMPI PUSH2 0x2F5 PUSH2 0x63E JUMP JUMPDEST JUMPDEST PUSH1 0x0 PUSH2 0x304 DUP5 DUP3 DUP6 ADD PUSH2 0x28B JUMP JUMPDEST SWAP2 POP POP SWAP3 SWAP2 POP POP JUMP JUMPDEST PUSH1 0x0 DUP1 PUSH1 0x0 DUP1 PUSH1 0x0 PUSH1 0xA0 DUP7 DUP9 SUB SLT ISZERO PUSH2 0x329 JUMPI PUSH2 0x328 PUSH2 0x63E JUMP JUMPDEST JUMPDEST PUSH1 0x0 PUSH2 0x337 DUP9 DUP3 DUP10 ADD PUSH2 0x28B JUMP JUMPDEST SWAP6 POP POP PUSH1 0x20 DUP7 ADD CALLDATALOAD PUSH8 0xFFFFFFFFFFFFFFFF DUP2 GT ISZERO PUSH2 0x358 JUMPI PUSH2 0x357 PUSH2 0x639 JUMP JUMPDEST JUMPDEST PUSH2 0x364 DUP9 DUP3 DUP10 ADD PUSH2 0x25D JUMP JUMPDEST SWAP5 POP POP PUSH1 0x40 PUSH2 0x375 DUP9 DUP3 DUP10 ADD PUSH2 0x28B JUMP JUMPDEST SWAP4 POP POP PUSH1 0x60 PUSH2 0x386 DUP9 DUP3 DUP10 ADD PUSH2 0x28B JUMP JUMPDEST SWAP3 POP POP PUSH1 0x80 PUSH2 0x397 DUP9 DUP3 DUP10 ADD PUSH2 0x28B JUMP JUMPDEST SWAP2 POP POP SWAP3 SWAP6 POP SWAP3 SWAP6 SWAP1 SWAP4 POP JUMP JUMPDEST PUSH2 0x3AD DUP2 PUSH2 0x4F0 JUMP JUMPDEST DUP3 MSTORE POP POP JUMP JUMPDEST PUSH1 0x0 PUSH2 0x3BE DUP3 PUSH2 0x4D4 JUMP JUMPDEST PUSH2 0x3C8 DUP2 DUP6 PUSH2 0x4DF JUMP JUMPDEST SWAP4 POP PUSH2 0x3D8 DUP2 DUP6 PUSH1 0x20 DUP7 ADD PUSH2 0x53B JUMP JUMPDEST PUSH2 0x3E1 DUP2 PUSH2 0x643 JUMP JUMPDEST DUP5 ADD SWAP2 POP POP SWAP3 SWAP2 POP POP JUMP JUMPDEST PUSH2 0x3F5 DUP2 PUSH2 0x522 JUMP JUMPDEST DUP3 MSTORE POP POP JUMP JUMPDEST PUSH1 0x0 PUSH1 0xC0 DUP3 ADD SWAP1 POP PUSH2 0x410 PUSH1 0x0 DUP4 ADD DUP10 PUSH2 0x3A4 JUMP JUMPDEST PUSH2 0x41D PUSH1 0x20 DUP4 ADD DUP9 PUSH2 0x3EC JUMP JUMPDEST DUP2 DUP2 SUB PUSH1 0x40 DUP4 ADD MSTORE PUSH2 0x42F DUP2 DUP8 PUSH2 0x3B3 JUMP JUMPDEST SWAP1 POP PUSH2 0x43E PUSH1 0x60 DUP4 ADD DUP7 PUSH2 0x3EC JUMP JUMPDEST PUSH2 0x44B PUSH1 0x80 DUP4 ADD DUP6 PUSH2 0x3EC JUMP JUMPDEST PUSH2 0x458 PUSH1 0xA0 DUP4 ADD DUP5 PUSH2 0x3EC JUMP JUMPDEST SWAP8 SWAP7 POP POP POP POP POP POP POP JUMP JUMPDEST PUSH1 0x0 PUSH1 0x20 DUP3 ADD SWAP1 POP PUSH2 0x478 PUSH1 0x0 DUP4 ADD DUP5 PUSH2 0x3EC JUMP JUMPDEST SWAP3 SWAP2 POP POP JUMP JUMPDEST PUSH1 0x0 PUSH2 0x488 PUSH2 0x499 JUMP JUMPDEST SWAP1 POP PUSH2 0x494 DUP3 DUP3 PUSH2 0x5A0 JUMP JUMPDEST SWAP2 SWAP1 POP JUMP JUMPDEST PUSH1 0x0 PUSH1 0x40 MLOAD SWAP1 POP SWAP1 JUMP JUMPDEST PUSH1 0x0 PUSH8 0xFFFFFFFFFFFFFFFF DUP3 GT ISZERO PUSH2 0x4BE JUMPI PUSH2 0x4BD PUSH2 0x600 JUMP JUMPDEST JUMPDEST PUSH2 0x4C7 DUP3 PUSH2 0x643 JUMP JUMPDEST SWAP1 POP PUSH1 0x20 DUP2 ADD SWAP1 POP SWAP2 SWAP1 POP JUMP JUMPDEST PUSH1 0x0 DUP2 MLOAD SWAP1 POP SWAP2 SWAP1 POP JUMP JUMPDEST PUSH1 0x0 DUP3 DUP3 MSTORE PUSH1 0x20 DUP3 ADD SWAP1 POP SWAP3 SWAP2 POP POP JUMP JUMPDEST PUSH1 0x0 PUSH2 0x4FB DUP3 PUSH2 0x502 JUMP JUMPDEST SWAP1 POP SWAP2 SWAP1 POP JUMP JUMPDEST PUSH1 0x0 PUSH20 0xFFFFFFFFFFFFFFFFFFFFFFFFFFFFFFFFFFFFFFFF DUP3 AND SWAP1 POP SWAP2 SWAP1 POP JUMP JUMPDEST PUSH1 0x0 DUP2 SWAP1 POP SWAP2 SWAP1 POP JUMP JUMPDEST DUP3 DUP2 DUP4 CALLDATACOPY PUSH1 0x0 DUP4 DUP4 ADD MSTORE POP POP POP JUMP JUMPDEST PUSH1 0x0 JUMPDEST DUP4 DUP2 LT ISZERO PUSH2 0x559 JUMPI DUP1 DUP3 ADD MLOAD DUP2 DUP5 ADD MSTORE PUSH1 0x20 DUP2 ADD SWAP1 POP PUSH2 0x53E JUMP JUMPDEST DUP4 DUP2 GT ISZERO PUSH2 0x568 JUMPI PUSH1 0x0 DUP5 DUP5 ADD MSTORE JUMPDEST POP POP POP POP JUMP JUMPDEST PUSH1 0x0 PUSH1 0x2 DUP3 DIV SWAP1 POP PUSH1 0x1 DUP3 AND DUP1 PUSH2 0x586 JUMPI PUSH1 0x7F DUP3 AND SWAP2 POP JUMPDEST PUSH1 0x20 DUP3 LT DUP2 EQ ISZERO PUSH2 0x59A JUMPI PUSH2 0x599 PUSH2 0x5D1 JUMP JUMPDEST JUMPDEST POP SWAP2 SWAP1 POP JUMP JUMPDEST PUSH2 0x5A9 DUP3 PUSH2 0x643 JUMP JUMPDEST DUP2 ADD DUP2 DUP2 LT PUSH8 0xFFFFFFFFFFFFFFFF DUP3 GT OR ISZERO PUSH2 0x5C8 JUMPI PUSH2 0x5C7 PUSH2 0x600 JUMP JUMPDEST JUMPDEST DUP1 PUSH1 0x40 MSTORE POP POP POP JUMP JUMPDEST PUSH32 0x4E487B7100000000000000000000000000000000000000000000000000000000 PUSH1 0x0 MSTORE PUSH1 0x22 PUSH1 0x4 MSTORE PUSH1 0x24 PUSH1 0x0 REVERT JUMPDEST PUSH32 0x4E487B7100000000000000000000000000000000000000000000000000000000 PUSH1 0x0 MSTORE PUSH1 0x41 PUSH1 0x4 MSTORE PUSH1 0x24 PUSH1 0x0 REVERT JUMPDEST PUSH1 0x0 DUP1 REVERT JUMPDEST PUSH1 0x0 DUP1 REVERT JUMPDEST PUSH1 0x0 DUP1 REVERT JUMPDEST PUSH1 0x0 DUP1 REVERT JUMPDEST PUSH1 0x0 PUSH1 0x1F NOT PUSH1 0x1F DUP4 ADD AND SWAP1 POP SWAP2 SWAP1 POP JUMP JUMPDEST PUSH2 0x65D DUP2 PUSH2 0x4F0 JUMP JUMPDEST DUP2 EQ PUSH2 0x668 JUMPI PUSH1 0x0 DUP1 REVERT JUMPDEST POP JUMP JUMPDEST PUSH2 0x674 DUP2 PUSH2 0x522 JUMP JUMPDEST DUP2 EQ PUSH2 0x67F JUMPI PUSH1 0x0 DUP1 REVERT JUMPDEST POP JUMP INVALID LOG2 PUSH5 0x6970667358 0x22 SLT KECCAK256 0x26 0x2F 0xC 0xD1 PUSH23 0xCDF2C221DB9C4418C17B827AD6E85BC8B915D4748859DD 0xAA DUP12 JUMPI CALLDATACOPY PUSH5 0x736F6C6343 STOP ADDMOD SMOD STOP CALLER "
				},
				"gasEstimates": {
					"creation": {
						"codeDepositCost": "344000",
						"executionCost": "380",
						"totalCost": "344380"
					},
					"external": {
						"ID()": "2451",
						"createEvent(uint256,string,uint256,uint256,uint256)": "infinite",
						"events(uint256)": "infinite",
						"tickets(address,uint256)": "infinite"
					}
				},
				"methodIdentifiers": {
					"ID()": "b3cea217",
					"createEvent(uint256,string,uint256,uint256,uint256)": "9ec4b59a",
					"events(uint256)": "0b791430",
					"tickets(address,uint256)": "dae7a13c"
				}
			},
			"storageLayout": {
				"storage": [
					{
						"astId": 19,
						"contract": "contract/EventOrganizingContract.sol:EventOrganize",
						"label": "events",
						"offset": 0,
						"slot": "0",
						"type": "t_mapping(t_uint256,t_struct(Event)14_storage)"
					},
					{
						"astId": 25,
						"contract": "contract/EventOrganizingContract.sol:EventOrganize",
						"label": "tickets",
						"offset": 0,
						"slot": "1",
						"type": "t_mapping(t_address,t_mapping(t_uint256,t_uint256))"
					},
					{
						"astId": 27,
						"contract": "contract/EventOrganizingContract.sol:EventOrganize",
						"label": "ID",
						"offset": 0,
						"slot": "2",
						"type": "t_uint256"
					}
				],
				"types": {
					"t_address": {
						"encoding": "inplace",
						"label": "address",
						"numberOfBytes": "20"
					},
					"t_mapping(t_address,t_mapping(t_uint256,t_uint256))": {
						"encoding": "mapping",
						"key": "t_address",
						"label": "mapping(address => mapping(uint256 => uint256))",
						"numberOfBytes": "32",
						"value": "t_mapping(t_uint256,t_uint256)"
					},
					"t_mapping(t_uint256,t_struct(Event)14_storage)": {
						"encoding": "mapping",
						"key": "t_uint256",
						"label": "mapping(uint256 => struct EventOrganize.Event)",
						"numberOfBytes": "32",
						"value": "t_struct(Event)14_storage"
					},
					"t_mapping(t_uint256,t_uint256)": {
						"encoding": "mapping",
						"key": "t_uint256",
						"label": "mapping(uint256 => uint256)",
						"numberOfBytes": "32",
						"value": "t_uint256"
					},
					"t_string_storage": {
						"encoding": "bytes",
						"label": "string",
						"numberOfBytes": "32"
					},
					"t_struct(Event)14_storage": {
						"encoding": "inplace",
						"label": "struct EventOrganize.Event",
						"members": [
							{
								"astId": 3,
								"contract": "contract/EventOrganizingContract.sol:EventOrganize",
								"label": "organizer",
								"offset": 0,
								"slot": "0",
								"type": "t_address"
							},
							{
								"astId": 5,
								"contract": "contract/EventOrganizingContract.sol:EventOrganize",
								"label": "date",
								"offset": 0,
								"slot": "1",
								"type": "t_uint256"
							},
							{
								"astId": 7,
								"contract": "contract/EventOrganizingContract.sol:EventOrganize",
								"label": "name",
								"offset": 0,
								"slot": "2",
								"type": "t_string_storage"
							},
							{
								"astId": 9,
								"contract": "contract/EventOrganizingContract.sol:EventOrganize",
								"label": "price",
								"offset": 0,
								"slot": "3",
								"type": "t_uint256"
							},
							{
								"astId": 11,
								"contract": "contract/EventOrganizingContract.sol:EventOrganize",
								"label": "tiketCount",
								"offset": 0,
								"slot": "4",
								"type": "t_uint256"
							},
							{
								"astId": 13,
								"contract": "contract/EventOrganizingContract.sol:EventOrganize",
								"label": "tiketRemain",
								"offset": 0,
								"slot": "5",
								"type": "t_uint256"
							}
						],
						"numberOfBytes": "192"
					},
					"t_uint256": {
						"encoding": "inplace",
						"label": "uint256",
						"numberOfBytes": "32"
					}
				}
			},
			"userdoc": {
				"kind": "user",
				"methods": {},
				"version": 1
			}
		}
	}
}