{
	"contract/EventOrganizingContract.sol": {
		"EventOrganize": {
			"abi": [
				{
					"inputs": [],
					"name": "ID",
					"outputs": [
						{
							"internalType": "uint256",
							"name": "",
							"type": "uint256"
						}
					],
					"stateMutability": "view",
					"type": "function"
				},
				{
					"inputs": [
						{
							"internalType": "uint256",
							"name": "_quantity",
							"type": "uint256"
						},
						{
							"internalType": "uint256",
							"name": "_ID",
							"type": "uint256"
						}
					],
					"name": "buyTicket",
					"outputs": [
						{
							"internalType": "uint256",
							"name": "",
							"type": "uint256"
						}
					],
					"stateMutability": "payable",
					"type": "function"
				},
				{
					"inputs": [
						{
							"internalType": "uint256",
							"name": "_ID",
							"type": "uint256"
						}
					],
					"name": "cancelEvent",
					"outputs": [],
					"stateMutability": "nonpayable",
					"type": "function"
				},
				{
					"inputs": [
						{
							"internalType": "uint256",
							"name": "_date",
							"type": "uint256"
						},
						{
							"internalType": "string",
							"name": "_name",
							"type": "string"
						},
						{
							"internalType": "uint256",
							"name": "_price",
							"type": "uint256"
						},
						{
							"internalType": "uint256",
							"name": "_ticketCount",
							"type": "uint256"
						}
					],
					"name": "createEvent",
					"outputs": [],
					"stateMutability": "nonpayable",
					"type": "function"
				},
				{
					"inputs": [
						{
							"internalType": "uint256",
							"name": "",
							"type": "uint256"
						}
					],
					"name": "events",
					"outputs": [
						{
							"internalType": "address",
							"name": "organizer",
							"type": "address"
						},
						{
							"internalType": "uint256",
							"name": "date",
							"type": "uint256"
						},
						{
							"internalType": "string",
							"name": "name",
							"type": "string"
						},
						{
							"internalType": "uint256",
							"name": "price",
							"type": "uint256"
						},
						{
							"internalType": "uint256",
							"name": "ticketCount",
							"type": "uint256"
						},
						{
							"internalType": "uint256",
							"name": "ticketRemain",
							"type": "uint256"
						}
					],
					"stateMutability": "view",
					"type": "function"
				},
				{
					"inputs": [
						{
							"internalType": "address",
							"name": "",
							"type": "address"
						},
						{
							"internalType": "uint256",
							"name": "",
							"type": "uint256"
						}
					],
					"name": "tickets",
					"outputs": [
						{
							"internalType": "uint256",
							"name": "",
							"type": "uint256"
						}
					],
					"stateMutability": "view",
					"type": "function"
				},
				{
					"inputs": [
						{
							"internalType": "uint256",
							"name": "_quantity",
							"type": "uint256"
						},
						{
							"internalType": "uint256",
							"name": "_ID",
							"type": "uint256"
						},
						{
							"internalType": "address",
							"name": "_to",
							"type": "address"
						}
					],
					"name": "transferTicket",
					"outputs": [],
					"stateMutability": "nonpayable",
					"type": "function"
				},
				{
					"inputs": [
						{
							"internalType": "uint256",
							"name": "_ID",
							"type": "uint256"
						}
					],
					"name": "withdrawMoney",
					"outputs": [],
					"stateMutability": "payable",
					"type": "function"
				}
			],
			"devdoc": {
				"kind": "dev",
				"methods": {},
				"version": 1
			},
			"evm": {
				"assembly": "    /* \"contract/EventOrganizingContract.sol\":62:2511  contract EventOrganize {\r... */\n  mstore(0x40, 0x80)\n  callvalue\n  dup1\n  iszero\n  tag_1\n  jumpi\n  0x00\n  dup1\n  revert\ntag_1:\n  pop\n  dataSize(sub_0)\n  dup1\n  dataOffset(sub_0)\n  0x00\n  codecopy\n  0x00\n  return\nstop\n\nsub_0: assembly {\n        /* \"contract/EventOrganizingContract.sol\":62:2511  contract EventOrganize {\r... */\n      mstore(0x40, 0x80)\n      jumpi(tag_1, lt(calldatasize, 0x04))\n      shr(0xe0, calldataload(0x00))\n      dup1\n      0xb3cea217\n      gt\n      tag_10\n      jumpi\n      dup1\n      0xb3cea217\n      eq\n      tag_6\n      jumpi\n      dup1\n      0xdae7a13c\n      eq\n      tag_7\n      jumpi\n      dup1\n      0xf086a09b\n      eq\n      tag_8\n      jumpi\n      dup1\n      0xf93694fb\n      eq\n      tag_9\n      jumpi\n      jump(tag_1)\n    tag_10:\n      dup1\n      0x0b791430\n      eq\n      tag_2\n      jumpi\n      dup1\n      0x298ec208\n      eq\n      tag_3\n      jumpi\n      dup1\n      0x3f69babd\n      eq\n      tag_4\n      jumpi\n      dup1\n      0x54876921\n      eq\n      tag_5\n      jumpi\n    tag_1:\n      0x00\n      dup1\n      revert\n        /* \"contract/EventOrganizingContract.sol\":269:306  mapping (uint => Event) public events */\n    tag_2:\n      callvalue\n      dup1\n      iszero\n      tag_11\n      jumpi\n      0x00\n      dup1\n      revert\n    tag_11:\n      pop\n      tag_12\n      0x04\n      dup1\n      calldatasize\n      sub\n      dup2\n      add\n      swap1\n      tag_13\n      swap2\n      swap1\n      tag_14\n      jump\t// in\n    tag_13:\n      tag_15\n      jump\t// in\n    tag_12:\n      mload(0x40)\n      tag_16\n      swap7\n      swap6\n      swap5\n      swap4\n      swap3\n      swap2\n      swap1\n      tag_17\n      jump\t// in\n    tag_16:\n      mload(0x40)\n      dup1\n      swap2\n      sub\n      swap1\n      return\n        /* \"contract/EventOrganizingContract.sol\":983:1401  function buyTicket(uint _quantity, uint _ID) payable external returns(uint) {\r... */\n    tag_3:\n      tag_18\n      0x04\n      dup1\n      calldatasize\n      sub\n      dup2\n      add\n      swap1\n      tag_19\n      swap2\n      swap1\n      tag_20\n      jump\t// in\n    tag_19:\n      tag_21\n      jump\t// in\n    tag_18:\n      mload(0x40)\n      tag_22\n      swap2\n      swap1\n      tag_23\n      jump\t// in\n    tag_22:\n      mload(0x40)\n      dup1\n      swap2\n      sub\n      swap1\n      return\n        /* \"contract/EventOrganizingContract.sol\":1868:2113  function cancelEvent(uint _ID) external{\r... */\n    tag_4:\n      callvalue\n      dup1\n      iszero\n      tag_24\n      jumpi\n      0x00\n      dup1\n      revert\n    tag_24:\n      pop\n      tag_25\n      0x04\n      dup1\n      calldatasize\n      sub\n      dup2\n      add\n      swap1\n      tag_26\n      swap2\n      swap1\n      tag_14\n      jump\t// in\n    tag_26:\n      tag_27\n      jump\t// in\n    tag_25:\n      stop\n        /* \"contract/EventOrganizingContract.sol\":2121:2506  function withdrawMoney(uint _ID) payable external{\r... */\n    tag_5:\n      tag_28\n      0x04\n      dup1\n      calldatasize\n      sub\n      dup2\n      add\n      swap1\n      tag_29\n      swap2\n      swap1\n      tag_14\n      jump\t// in\n    tag_29:\n      tag_30\n      jump\t// in\n    tag_28:\n      stop\n        /* \"contract/EventOrganizingContract.sol\":377:391  uint public ID */\n    tag_6:\n      callvalue\n      dup1\n      iszero\n      tag_31\n      jumpi\n      0x00\n      dup1\n      revert\n    tag_31:\n      pop\n      tag_32\n      tag_33\n      jump\t// in\n    tag_32:\n      mload(0x40)\n      tag_34\n      swap2\n      swap1\n      tag_23\n      jump\t// in\n    tag_34:\n      mload(0x40)\n      dup1\n      swap2\n      sub\n      swap1\n      return\n        /* \"contract/EventOrganizingContract.sol\":313:370  mapping (address => mapping(uint => uint)) public tickets */\n    tag_7:\n      callvalue\n      dup1\n      iszero\n      tag_35\n      jumpi\n      0x00\n      dup1\n      revert\n    tag_35:\n      pop\n      tag_36\n      0x04\n      dup1\n      calldatasize\n      sub\n      dup2\n      add\n      swap1\n      tag_37\n      swap2\n      swap1\n      tag_38\n      jump\t// in\n    tag_37:\n      tag_39\n      jump\t// in\n    tag_36:\n      mload(0x40)\n      tag_40\n      swap2\n      swap1\n      tag_23\n      jump\t// in\n    tag_40:\n      mload(0x40)\n      dup1\n      swap2\n      sub\n      swap1\n      return\n        /* \"contract/EventOrganizingContract.sol\":1409:1860  function transferTicket(uint _quantity, uint _ID, address _to) external{\r... */\n    tag_8:\n      callvalue\n      dup1\n      iszero\n      tag_41\n      jumpi\n      0x00\n      dup1\n      revert\n    tag_41:\n      pop\n      tag_42\n      0x04\n      dup1\n      calldatasize\n      sub\n      dup2\n      add\n      swap1\n      tag_43\n      swap2\n      swap1\n      tag_44\n      jump\t// in\n    tag_43:\n      tag_45\n      jump\t// in\n    tag_42:\n      stop\n        /* \"contract/EventOrganizingContract.sol\":613:975  function createEvent(uint _date, string memory _name, uint _price, uint _ticketCount) external{\r... */\n    tag_9:\n      callvalue\n      dup1\n      iszero\n      tag_46\n      jumpi\n      0x00\n      dup1\n      revert\n    tag_46:\n      pop\n      tag_47\n      0x04\n      dup1\n      calldatasize\n      sub\n      dup2\n      add\n      swap1\n      tag_48\n      swap2\n      swap1\n      tag_49\n      jump\t// in\n    tag_48:\n      tag_50\n      jump\t// in\n    tag_47:\n      stop\n        /* \"contract/EventOrganizingContract.sol\":269:306  mapping (uint => Event) public events */\n    tag_15:\n      mstore(0x20, 0x00)\n      dup1\n      0x00\n      mstore\n      keccak256(0x00, 0x40)\n      0x00\n      swap2\n      pop\n      swap1\n      pop\n      dup1\n      0x00\n      add\n      0x00\n      swap1\n      sload\n      swap1\n      0x0100\n      exp\n      swap1\n      div\n      0xffffffffffffffffffffffffffffffffffffffff\n      and\n      swap1\n      dup1\n      0x01\n      add\n      sload\n      swap1\n      dup1\n      0x02\n      add\n      dup1\n      sload\n      tag_51\n      swap1\n      tag_52\n      jump\t// in\n    tag_51:\n      dup1\n      0x1f\n      add\n      0x20\n      dup1\n      swap2\n      div\n      mul\n      0x20\n      add\n      mload(0x40)\n      swap1\n      dup2\n      add\n      0x40\n      mstore\n      dup1\n      swap3\n      swap2\n      swap1\n      dup2\n      dup2\n      mstore\n      0x20\n      add\n      dup3\n      dup1\n      sload\n      tag_53\n      swap1\n      tag_52\n      jump\t// in\n    tag_53:\n      dup1\n      iszero\n      tag_54\n      jumpi\n      dup1\n      0x1f\n      lt\n      tag_55\n      jumpi\n      0x0100\n      dup1\n      dup4\n      sload\n      div\n      mul\n      dup4\n      mstore\n      swap2\n      0x20\n      add\n      swap2\n      jump(tag_54)\n    tag_55:\n      dup3\n      add\n      swap2\n      swap1\n      0x00\n      mstore\n      keccak256(0x00, 0x20)\n      swap1\n    tag_56:\n      dup2\n      sload\n      dup2\n      mstore\n      swap1\n      0x01\n      add\n      swap1\n      0x20\n      add\n      dup1\n      dup4\n      gt\n      tag_56\n      jumpi\n      dup3\n      swap1\n      sub\n      0x1f\n      and\n      dup3\n      add\n      swap2\n    tag_54:\n      pop\n      pop\n      pop\n      pop\n      pop\n      swap1\n      dup1\n      0x03\n      add\n      sload\n      swap1\n      dup1\n      0x04\n      add\n      sload\n      swap1\n      dup1\n      0x05\n      add\n      sload\n      swap1\n      pop\n      dup7\n      jump\t// out\n        /* \"contract/EventOrganizingContract.sol\":983:1401  function buyTicket(uint _quantity, uint _ID) payable external returns(uint) {\r... */\n    tag_21:\n        /* \"contract/EventOrganizingContract.sol\":1053:1057  uint */\n      0x00\n        /* \"contract/EventOrganizingContract.sol\":1070:1090  Event storage _event */\n      dup1\n        /* \"contract/EventOrganizingContract.sol\":1093:1099  events */\n      0x00\n        /* \"contract/EventOrganizingContract.sol\":1093:1104  events[_ID] */\n      dup1\n        /* \"contract/EventOrganizingContract.sol\":1100:1103  _ID */\n      dup5\n        /* \"contract/EventOrganizingContract.sol\":1093:1104  events[_ID] */\n      dup2\n      mstore\n      0x20\n      add\n      swap1\n      dup2\n      mstore\n      0x20\n      add\n      0x00\n      keccak256\n        /* \"contract/EventOrganizingContract.sol\":1070:1104  Event storage _event = events[_ID] */\n      swap1\n      pop\n        /* \"contract/EventOrganizingContract.sol\":1153:1162  msg.value */\n      callvalue\n        /* \"contract/EventOrganizingContract.sol\":1139:1148  _quantity */\n      dup5\n        /* \"contract/EventOrganizingContract.sol\":1124:1130  _event */\n      dup3\n        /* \"contract/EventOrganizingContract.sol\":1124:1136  _event.price */\n      0x03\n      add\n      sload\n        /* \"contract/EventOrganizingContract.sol\":1124:1148  _event.price * _quantity */\n      tag_58\n      swap2\n      swap1\n      tag_59\n      jump\t// in\n    tag_58:\n        /* \"contract/EventOrganizingContract.sol\":1123:1162  (_event.price * _quantity) == msg.value */\n      eq\n        /* \"contract/EventOrganizingContract.sol\":1115:1188  require((_event.price * _quantity) == msg.value, \"Ethers is not enough!\") */\n      tag_60\n      jumpi\n      mload(0x40)\n      0x08c379a000000000000000000000000000000000000000000000000000000000\n      dup2\n      mstore\n      0x04\n      add\n      tag_61\n      swap1\n      tag_62\n      jump\t// in\n    tag_61:\n      mload(0x40)\n      dup1\n      swap2\n      sub\n      swap1\n      revert\n    tag_60:\n        /* \"contract/EventOrganizingContract.sol\":1230:1239  _quantity */\n      dup4\n        /* \"contract/EventOrganizingContract.sol\":1207:1213  _event */\n      dup2\n        /* \"contract/EventOrganizingContract.sol\":1207:1226  _event.ticketRemain */\n      0x05\n      add\n      sload\n        /* \"contract/EventOrganizingContract.sol\":1207:1239  _event.ticketRemain >= _quantity */\n      lt\n      iszero\n        /* \"contract/EventOrganizingContract.sol\":1199:1273  require(_event.ticketRemain >= _quantity, \"We don't have enough tickets!\") */\n      tag_63\n      jumpi\n      mload(0x40)\n      0x08c379a000000000000000000000000000000000000000000000000000000000\n      dup2\n      mstore\n      0x04\n      add\n      tag_64\n      swap1\n      tag_65\n      jump\t// in\n    tag_64:\n      mload(0x40)\n      dup1\n      swap2\n      sub\n      swap1\n      revert\n    tag_63:\n        /* \"contract/EventOrganizingContract.sol\":1307:1316  _quantity */\n      dup4\n        /* \"contract/EventOrganizingContract.sol\":1284:1290  _event */\n      dup2\n        /* \"contract/EventOrganizingContract.sol\":1284:1303  _event.ticketRemain */\n      0x05\n      add\n      0x00\n        /* \"contract/EventOrganizingContract.sol\":1284:1316  _event.ticketRemain -= _quantity */\n      dup3\n      dup3\n      sload\n      tag_66\n      swap2\n      swap1\n      tag_67\n      jump\t// in\n    tag_66:\n      swap3\n      pop\n      pop\n      dup2\n      swap1\n      sstore\n      pop\n        /* \"contract/EventOrganizingContract.sol\":1355:1364  _quantity */\n      dup4\n        /* \"contract/EventOrganizingContract.sol\":1327:1334  tickets */\n      0x01\n        /* \"contract/EventOrganizingContract.sol\":1327:1346  tickets[msg.sender] */\n      0x00\n        /* \"contract/EventOrganizingContract.sol\":1335:1345  msg.sender */\n      caller\n        /* \"contract/EventOrganizingContract.sol\":1327:1346  tickets[msg.sender] */\n      0xffffffffffffffffffffffffffffffffffffffff\n      and\n      0xffffffffffffffffffffffffffffffffffffffff\n      and\n      dup2\n      mstore\n      0x20\n      add\n      swap1\n      dup2\n      mstore\n      0x20\n      add\n      0x00\n      keccak256\n        /* \"contract/EventOrganizingContract.sol\":1327:1351  tickets[msg.sender][_ID] */\n      0x00\n        /* \"contract/EventOrganizingContract.sol\":1347:1350  _ID */\n      dup6\n        /* \"contract/EventOrganizingContract.sol\":1327:1351  tickets[msg.sender][_ID] */\n      dup2\n      mstore\n      0x20\n      add\n      swap1\n      dup2\n      mstore\n      0x20\n      add\n      0x00\n      keccak256\n      0x00\n        /* \"contract/EventOrganizingContract.sol\":1327:1364  tickets[msg.sender][_ID] += _quantity */\n      dup3\n      dup3\n      sload\n      tag_68\n      swap2\n      swap1\n      tag_69\n      jump\t// in\n    tag_68:\n      swap3\n      pop\n      pop\n      dup2\n      swap1\n      sstore\n      pop\n        /* \"contract/EventOrganizingContract.sol\":1382:1388  _event */\n      dup1\n        /* \"contract/EventOrganizingContract.sol\":1382:1393  _event.date */\n      0x01\n      add\n      sload\n        /* \"contract/EventOrganizingContract.sol\":1375:1393  return _event.date */\n      swap2\n      pop\n      pop\n        /* \"contract/EventOrganizingContract.sol\":983:1401  function buyTicket(uint _quantity, uint _ID) payable external returns(uint) {\r... */\n      swap3\n      swap2\n      pop\n      pop\n      jump\t// out\n        /* \"contract/EventOrganizingContract.sol\":1868:2113  function cancelEvent(uint _ID) external{\r... */\n    tag_27:\n        /* \"contract/EventOrganizingContract.sol\":1945:1960  block.timestamp */\n      timestamp\n        /* \"contract/EventOrganizingContract.sol\":1926:1932  events */\n      0x00\n        /* \"contract/EventOrganizingContract.sol\":1926:1937  events[_ID] */\n      dup1\n        /* \"contract/EventOrganizingContract.sol\":1933:1936  _ID */\n      dup4\n        /* \"contract/EventOrganizingContract.sol\":1926:1937  events[_ID] */\n      dup2\n      mstore\n      0x20\n      add\n      swap1\n      dup2\n      mstore\n      0x20\n      add\n      0x00\n      keccak256\n        /* \"contract/EventOrganizingContract.sol\":1926:1942  events[_ID].date */\n      0x01\n      add\n      sload\n        /* \"contract/EventOrganizingContract.sol\":1926:1960  events[_ID].date > block.timestamp */\n      gt\n        /* \"contract/EventOrganizingContract.sol\":1918:1986  require(events[_ID].date > block.timestamp, \"Event already occured\") */\n      tag_71\n      jumpi\n      mload(0x40)\n      0x08c379a000000000000000000000000000000000000000000000000000000000\n      dup2\n      mstore\n      0x04\n      add\n      tag_72\n      swap1\n      tag_73\n      jump\t// in\n    tag_72:\n      mload(0x40)\n      dup1\n      swap2\n      sub\n      swap1\n      revert\n    tag_71:\n        /* \"contract/EventOrganizingContract.sol\":2030:2040  msg.sender */\n      caller\n        /* \"contract/EventOrganizingContract.sol\":2005:2040  events[_ID].organizer == msg.sender */\n      0xffffffffffffffffffffffffffffffffffffffff\n      and\n        /* \"contract/EventOrganizingContract.sol\":2005:2011  events */\n      0x00\n        /* \"contract/EventOrganizingContract.sol\":2005:2016  events[_ID] */\n      dup1\n        /* \"contract/EventOrganizingContract.sol\":2012:2015  _ID */\n      dup4\n        /* \"contract/EventOrganizingContract.sol\":2005:2016  events[_ID] */\n      dup2\n      mstore\n      0x20\n      add\n      swap1\n      dup2\n      mstore\n      0x20\n      add\n      0x00\n      keccak256\n        /* \"contract/EventOrganizingContract.sol\":2005:2026  events[_ID].organizer */\n      0x00\n      add\n      0x00\n      swap1\n      sload\n      swap1\n      0x0100\n      exp\n      swap1\n      div\n      0xffffffffffffffffffffffffffffffffffffffff\n      and\n        /* \"contract/EventOrganizingContract.sol\":2005:2040  events[_ID].organizer == msg.sender */\n      0xffffffffffffffffffffffffffffffffffffffff\n      and\n      eq\n        /* \"contract/EventOrganizingContract.sol\":1997:2074  require(events[_ID].organizer == msg.sender, \"You can not cancel this event\") */\n      tag_74\n      jumpi\n      mload(0x40)\n      0x08c379a000000000000000000000000000000000000000000000000000000000\n      dup2\n      mstore\n      0x04\n      add\n      tag_75\n      swap1\n      tag_76\n      jump\t// in\n    tag_75:\n      mload(0x40)\n      dup1\n      swap2\n      sub\n      swap1\n      revert\n    tag_74:\n        /* \"contract/EventOrganizingContract.sol\":2104:2105  0 */\n      0x00\n        /* \"contract/EventOrganizingContract.sol\":2085:2091  events */\n      dup1\n        /* \"contract/EventOrganizingContract.sol\":2085:2096  events[_ID] */\n      0x00\n        /* \"contract/EventOrganizingContract.sol\":2092:2095  _ID */\n      dup4\n        /* \"contract/EventOrganizingContract.sol\":2085:2096  events[_ID] */\n      dup2\n      mstore\n      0x20\n      add\n      swap1\n      dup2\n      mstore\n      0x20\n      add\n      0x00\n      keccak256\n        /* \"contract/EventOrganizingContract.sol\":2085:2101  events[_ID].date */\n      0x01\n      add\n        /* \"contract/EventOrganizingContract.sol\":2085:2105  events[_ID].date = 0 */\n      dup2\n      swap1\n      sstore\n      pop\n        /* \"contract/EventOrganizingContract.sol\":1868:2113  function cancelEvent(uint _ID) external{\r... */\n      pop\n      jump\t// out\n        /* \"contract/EventOrganizingContract.sol\":2121:2506  function withdrawMoney(uint _ID) payable external{\r... */\n    tag_30:\n        /* \"contract/EventOrganizingContract.sol\":2209:2210  0 */\n      0x00\n        /* \"contract/EventOrganizingContract.sol\":2189:2195  events */\n      dup1\n        /* \"contract/EventOrganizingContract.sol\":2189:2200  events[_ID] */\n      0x00\n        /* \"contract/EventOrganizingContract.sol\":2196:2199  _ID */\n      dup4\n        /* \"contract/EventOrganizingContract.sol\":2189:2200  events[_ID] */\n      dup2\n      mstore\n      0x20\n      add\n      swap1\n      dup2\n      mstore\n      0x20\n      add\n      0x00\n      keccak256\n        /* \"contract/EventOrganizingContract.sol\":2189:2205  events[_ID].date */\n      0x01\n      add\n      sload\n        /* \"contract/EventOrganizingContract.sol\":2189:2210  events[_ID].date == 0 */\n      eq\n        /* \"contract/EventOrganizingContract.sol\":2181:2291  require(events[_ID].date == 0, \"You can not return tickets, if event cancel then you can withdraw your money\") */\n      tag_78\n      jumpi\n      mload(0x40)\n      0x08c379a000000000000000000000000000000000000000000000000000000000\n      dup2\n      mstore\n      0x04\n      add\n      tag_79\n      swap1\n      tag_80\n      jump\t// in\n    tag_79:\n      mload(0x40)\n      dup1\n      swap2\n      sub\n      swap1\n      revert\n    tag_78:\n        /* \"contract/EventOrganizingContract.sol\":2337:2338  0 */\n      0x00\n        /* \"contract/EventOrganizingContract.sol\":2310:2317  tickets */\n      0x01\n        /* \"contract/EventOrganizingContract.sol\":2310:2329  tickets[msg.sender] */\n      0x00\n        /* \"contract/EventOrganizingContract.sol\":2318:2328  msg.sender */\n      caller\n        /* \"contract/EventOrganizingContract.sol\":2310:2329  tickets[msg.sender] */\n      0xffffffffffffffffffffffffffffffffffffffff\n      and\n      0xffffffffffffffffffffffffffffffffffffffff\n      and\n      dup2\n      mstore\n      0x20\n      add\n      swap1\n      dup2\n      mstore\n      0x20\n      add\n      0x00\n      keccak256\n        /* \"contract/EventOrganizingContract.sol\":2310:2334  tickets[msg.sender][_ID] */\n      0x00\n        /* \"contract/EventOrganizingContract.sol\":2330:2333  _ID */\n      dup4\n        /* \"contract/EventOrganizingContract.sol\":2310:2334  tickets[msg.sender][_ID] */\n      dup2\n      mstore\n      0x20\n      add\n      swap1\n      dup2\n      mstore\n      0x20\n      add\n      0x00\n      keccak256\n      sload\n        /* \"contract/EventOrganizingContract.sol\":2310:2338  tickets[msg.sender][_ID] > 0 */\n      gt\n        /* \"contract/EventOrganizingContract.sol\":2302:2374  require(tickets[msg.sender][_ID] > 0, \"You already withdraw your money\") */\n      tag_81\n      jumpi\n      mload(0x40)\n      0x08c379a000000000000000000000000000000000000000000000000000000000\n      dup2\n      mstore\n      0x04\n      add\n      tag_82\n      swap1\n      tag_83\n      jump\t// in\n    tag_82:\n      mload(0x40)\n      dup1\n      swap2\n      sub\n      swap1\n      revert\n    tag_81:\n        /* \"contract/EventOrganizingContract.sol\":2393:2403  msg.sender */\n      caller\n        /* \"contract/EventOrganizingContract.sol\":2385:2413  payable(msg.sender).transfer */\n      0xffffffffffffffffffffffffffffffffffffffff\n      and\n        /* \"contract/EventOrganizingContract.sol\":2385:2459  payable(msg.sender).transfer(tickets[msg.sender][_ID] * events[_ID].price) */\n      0x08fc\n        /* \"contract/EventOrganizingContract.sol\":2441:2447  events */\n      0x00\n        /* \"contract/EventOrganizingContract.sol\":2441:2452  events[_ID] */\n      dup1\n        /* \"contract/EventOrganizingContract.sol\":2448:2451  _ID */\n      dup5\n        /* \"contract/EventOrganizingContract.sol\":2441:2452  events[_ID] */\n      dup2\n      mstore\n      0x20\n      add\n      swap1\n      dup2\n      mstore\n      0x20\n      add\n      0x00\n      keccak256\n        /* \"contract/EventOrganizingContract.sol\":2441:2458  events[_ID].price */\n      0x03\n      add\n      sload\n        /* \"contract/EventOrganizingContract.sol\":2414:2421  tickets */\n      0x01\n        /* \"contract/EventOrganizingContract.sol\":2414:2433  tickets[msg.sender] */\n      0x00\n        /* \"contract/EventOrganizingContract.sol\":2422:2432  msg.sender */\n      caller\n        /* \"contract/EventOrganizingContract.sol\":2414:2433  tickets[msg.sender] */\n      0xffffffffffffffffffffffffffffffffffffffff\n      and\n      0xffffffffffffffffffffffffffffffffffffffff\n      and\n      dup2\n      mstore\n      0x20\n      add\n      swap1\n      dup2\n      mstore\n      0x20\n      add\n      0x00\n      keccak256\n        /* \"contract/EventOrganizingContract.sol\":2414:2438  tickets[msg.sender][_ID] */\n      0x00\n        /* \"contract/EventOrganizingContract.sol\":2434:2437  _ID */\n      dup6\n        /* \"contract/EventOrganizingContract.sol\":2414:2438  tickets[msg.sender][_ID] */\n      dup2\n      mstore\n      0x20\n      add\n      swap1\n      dup2\n      mstore\n      0x20\n      add\n      0x00\n      keccak256\n      sload\n        /* \"contract/EventOrganizingContract.sol\":2414:2458  tickets[msg.sender][_ID] * events[_ID].price */\n      tag_84\n      swap2\n      swap1\n      tag_59\n      jump\t// in\n    tag_84:\n        /* \"contract/EventOrganizingContract.sol\":2385:2459  payable(msg.sender).transfer(tickets[msg.sender][_ID] * events[_ID].price) */\n      swap1\n      dup2\n      iszero\n      mul\n      swap1\n      mload(0x40)\n      0x00\n      mload(0x40)\n      dup1\n      dup4\n      sub\n      dup2\n      dup6\n      dup9\n      dup9\n      call\n      swap4\n      pop\n      pop\n      pop\n      pop\n      iszero\n      dup1\n      iszero\n      tag_86\n      jumpi\n      returndatasize\n      0x00\n      dup1\n      returndatacopy\n      revert(0x00, returndatasize)\n    tag_86:\n      pop\n        /* \"contract/EventOrganizingContract.sol\":2497:2498  0 */\n      0x00\n        /* \"contract/EventOrganizingContract.sol\":2470:2477  tickets */\n      0x01\n        /* \"contract/EventOrganizingContract.sol\":2470:2489  tickets[msg.sender] */\n      0x00\n        /* \"contract/EventOrganizingContract.sol\":2478:2488  msg.sender */\n      caller\n        /* \"contract/EventOrganizingContract.sol\":2470:2489  tickets[msg.sender] */\n      0xffffffffffffffffffffffffffffffffffffffff\n      and\n      0xffffffffffffffffffffffffffffffffffffffff\n      and\n      dup2\n      mstore\n      0x20\n      add\n      swap1\n      dup2\n      mstore\n      0x20\n      add\n      0x00\n      keccak256\n        /* \"contract/EventOrganizingContract.sol\":2470:2494  tickets[msg.sender][_ID] */\n      0x00\n        /* \"contract/EventOrganizingContract.sol\":2490:2493  _ID */\n      dup4\n        /* \"contract/EventOrganizingContract.sol\":2470:2494  tickets[msg.sender][_ID] */\n      dup2\n      mstore\n      0x20\n      add\n      swap1\n      dup2\n      mstore\n      0x20\n      add\n      0x00\n      keccak256\n        /* \"contract/EventOrganizingContract.sol\":2470:2498  tickets[msg.sender][_ID] = 0 */\n      dup2\n      swap1\n      sstore\n      pop\n        /* \"contract/EventOrganizingContract.sol\":2121:2506  function withdrawMoney(uint _ID) payable external{\r... */\n      pop\n      jump\t// out\n        /* \"contract/EventOrganizingContract.sol\":377:391  uint public ID */\n    tag_33:\n      sload(0x02)\n      dup2\n      jump\t// out\n        /* \"contract/EventOrganizingContract.sol\":313:370  mapping (address => mapping(uint => uint)) public tickets */\n    tag_39:\n      mstore(0x20, 0x01)\n      dup2\n      0x00\n      mstore\n      mstore(0x20, keccak256(0x00, 0x40))\n      dup1\n      0x00\n      mstore\n      keccak256(0x00, 0x40)\n      0x00\n      swap2\n      pop\n      swap2\n      pop\n      pop\n      sload\n      dup2\n      jump\t// out\n        /* \"contract/EventOrganizingContract.sol\":1409:1860  function transferTicket(uint _quantity, uint _ID, address _to) external{\r... */\n    tag_45:\n        /* \"contract/EventOrganizingContract.sol\":1491:1511  Event storage _event */\n      0x00\n        /* \"contract/EventOrganizingContract.sol\":1514:1520  events */\n      dup1\n        /* \"contract/EventOrganizingContract.sol\":1514:1525  events[_ID] */\n      0x00\n        /* \"contract/EventOrganizingContract.sol\":1521:1524  _ID */\n      dup5\n        /* \"contract/EventOrganizingContract.sol\":1514:1525  events[_ID] */\n      dup2\n      mstore\n      0x20\n      add\n      swap1\n      dup2\n      mstore\n      0x20\n      add\n      0x00\n      keccak256\n        /* \"contract/EventOrganizingContract.sol\":1491:1525  Event storage _event = events[_ID] */\n      swap1\n      pop\n        /* \"contract/EventOrganizingContract.sol\":1559:1560  0 */\n      0x00\n        /* \"contract/EventOrganizingContract.sol\":1544:1550  _event */\n      dup2\n        /* \"contract/EventOrganizingContract.sol\":1544:1555  _event.date */\n      0x01\n      add\n      sload\n        /* \"contract/EventOrganizingContract.sol\":1544:1560  _event.date != 0 */\n      eq\n      iszero\n        /* \"contract/EventOrganizingContract.sol\":1536:1586  require(_event.date != 0, \"Event does not exist!\") */\n      tag_88\n      jumpi\n      mload(0x40)\n      0x08c379a000000000000000000000000000000000000000000000000000000000\n      dup2\n      mstore\n      0x04\n      add\n      tag_89\n      swap1\n      tag_90\n      jump\t// in\n    tag_89:\n      mload(0x40)\n      dup1\n      swap2\n      sub\n      swap1\n      revert\n    tag_88:\n        /* \"contract/EventOrganizingContract.sol\":1619:1634  block.timestamp */\n      timestamp\n        /* \"contract/EventOrganizingContract.sol\":1605:1611  _event */\n      dup2\n        /* \"contract/EventOrganizingContract.sol\":1605:1616  _event.date */\n      0x01\n      add\n      sload\n        /* \"contract/EventOrganizingContract.sol\":1605:1634  _event.date > block.timestamp */\n      gt\n        /* \"contract/EventOrganizingContract.sol\":1597:1661  require(_event.date > block.timestamp, \"Event already occured!\") */\n      tag_91\n      jumpi\n      mload(0x40)\n      0x08c379a000000000000000000000000000000000000000000000000000000000\n      dup2\n      mstore\n      0x04\n      add\n      tag_92\n      swap1\n      tag_93\n      jump\t// in\n    tag_92:\n      mload(0x40)\n      dup1\n      swap2\n      sub\n      swap1\n      revert\n    tag_91:\n        /* \"contract/EventOrganizingContract.sol\":1708:1717  _quantity */\n      dup4\n        /* \"contract/EventOrganizingContract.sol\":1680:1687  tickets */\n      0x01\n        /* \"contract/EventOrganizingContract.sol\":1680:1699  tickets[msg.sender] */\n      0x00\n        /* \"contract/EventOrganizingContract.sol\":1688:1698  msg.sender */\n      caller\n        /* \"contract/EventOrganizingContract.sol\":1680:1699  tickets[msg.sender] */\n      0xffffffffffffffffffffffffffffffffffffffff\n      and\n      0xffffffffffffffffffffffffffffffffffffffff\n      and\n      dup2\n      mstore\n      0x20\n      add\n      swap1\n      dup2\n      mstore\n      0x20\n      add\n      0x00\n      keccak256\n        /* \"contract/EventOrganizingContract.sol\":1680:1704  tickets[msg.sender][_ID] */\n      0x00\n        /* \"contract/EventOrganizingContract.sol\":1700:1703  _ID */\n      dup6\n        /* \"contract/EventOrganizingContract.sol\":1680:1704  tickets[msg.sender][_ID] */\n      dup2\n      mstore\n      0x20\n      add\n      swap1\n      dup2\n      mstore\n      0x20\n      add\n      0x00\n      keccak256\n      sload\n        /* \"contract/EventOrganizingContract.sol\":1680:1717  tickets[msg.sender][_ID] >= _quantity */\n      lt\n      iszero\n        /* \"contract/EventOrganizingContract.sol\":1672:1763  require(tickets[msg.sender][_ID] >= _quantity, \"You don't have enough ticket to transfer!\") */\n      tag_94\n      jumpi\n      mload(0x40)\n      0x08c379a000000000000000000000000000000000000000000000000000000000\n      dup2\n      mstore\n      0x04\n      add\n      tag_95\n      swap1\n      tag_96\n      jump\t// in\n    tag_95:\n      mload(0x40)\n      dup1\n      swap2\n      sub\n      swap1\n      revert\n    tag_94:\n        /* \"contract/EventOrganizingContract.sol\":1802:1811  _quantity */\n      dup4\n        /* \"contract/EventOrganizingContract.sol\":1774:1781  tickets */\n      0x01\n        /* \"contract/EventOrganizingContract.sol\":1774:1793  tickets[msg.sender] */\n      0x00\n        /* \"contract/EventOrganizingContract.sol\":1782:1792  msg.sender */\n      caller\n        /* \"contract/EventOrganizingContract.sol\":1774:1793  tickets[msg.sender] */\n      0xffffffffffffffffffffffffffffffffffffffff\n      and\n      0xffffffffffffffffffffffffffffffffffffffff\n      and\n      dup2\n      mstore\n      0x20\n      add\n      swap1\n      dup2\n      mstore\n      0x20\n      add\n      0x00\n      keccak256\n        /* \"contract/EventOrganizingContract.sol\":1774:1798  tickets[msg.sender][_ID] */\n      0x00\n        /* \"contract/EventOrganizingContract.sol\":1794:1797  _ID */\n      dup6\n        /* \"contract/EventOrganizingContract.sol\":1774:1798  tickets[msg.sender][_ID] */\n      dup2\n      mstore\n      0x20\n      add\n      swap1\n      dup2\n      mstore\n      0x20\n      add\n      0x00\n      keccak256\n      0x00\n        /* \"contract/EventOrganizingContract.sol\":1774:1811  tickets[msg.sender][_ID] -= _quantity */\n      dup3\n      dup3\n      sload\n      tag_97\n      swap2\n      swap1\n      tag_67\n      jump\t// in\n    tag_97:\n      swap3\n      pop\n      pop\n      dup2\n      swap1\n      sstore\n      pop\n        /* \"contract/EventOrganizingContract.sol\":1843:1852  _quantity */\n      dup4\n        /* \"contract/EventOrganizingContract.sol\":1822:1829  tickets */\n      0x01\n        /* \"contract/EventOrganizingContract.sol\":1822:1834  tickets[_to] */\n      0x00\n        /* \"contract/EventOrganizingContract.sol\":1830:1833  _to */\n      dup5\n        /* \"contract/EventOrganizingContract.sol\":1822:1834  tickets[_to] */\n      0xffffffffffffffffffffffffffffffffffffffff\n      and\n      0xffffffffffffffffffffffffffffffffffffffff\n      and\n      dup2\n      mstore\n      0x20\n      add\n      swap1\n      dup2\n      mstore\n      0x20\n      add\n      0x00\n      keccak256\n        /* \"contract/EventOrganizingContract.sol\":1822:1839  tickets[_to][_ID] */\n      0x00\n        /* \"contract/EventOrganizingContract.sol\":1835:1838  _ID */\n      dup6\n        /* \"contract/EventOrganizingContract.sol\":1822:1839  tickets[_to][_ID] */\n      dup2\n      mstore\n      0x20\n      add\n      swap1\n      dup2\n      mstore\n      0x20\n      add\n      0x00\n      keccak256\n      0x00\n        /* \"contract/EventOrganizingContract.sol\":1822:1852  tickets[_to][_ID] += _quantity */\n      dup3\n      dup3\n      sload\n      tag_98\n      swap2\n      swap1\n      tag_69\n      jump\t// in\n    tag_98:\n      swap3\n      pop\n      pop\n      dup2\n      swap1\n      sstore\n      pop\n        /* \"contract/EventOrganizingContract.sol\":1480:1860  {\r... */\n      pop\n        /* \"contract/EventOrganizingContract.sol\":1409:1860  function transferTicket(uint _quantity, uint _ID, address _to) external{\r... */\n      pop\n      pop\n      pop\n      jump\t// out\n        /* \"contract/EventOrganizingContract.sol\":613:975  function createEvent(uint _date, string memory _name, uint _price, uint _ticketCount) external{\r... */\n    tag_50:\n        /* \"contract/EventOrganizingContract.sol\":734:749  block.timestamp */\n      timestamp\n        /* \"contract/EventOrganizingContract.sol\":726:731  _date */\n      dup5\n        /* \"contract/EventOrganizingContract.sol\":726:749  _date > block.timestamp */\n      gt\n        /* \"contract/EventOrganizingContract.sol\":718:788  require(_date > block.timestamp, \"You can organize event for future!\") */\n      tag_100\n      jumpi\n      mload(0x40)\n      0x08c379a000000000000000000000000000000000000000000000000000000000\n      dup2\n      mstore\n      0x04\n      add\n      tag_101\n      swap1\n      tag_102\n      jump\t// in\n    tag_101:\n      mload(0x40)\n      dup1\n      swap2\n      sub\n      swap1\n      revert\n    tag_100:\n        /* \"contract/EventOrganizingContract.sol\":822:823  0 */\n      0x00\n        /* \"contract/EventOrganizingContract.sol\":807:819  _ticketCount */\n      dup2\n        /* \"contract/EventOrganizingContract.sol\":807:823  _ticketCount > 0 */\n      gt\n        /* \"contract/EventOrganizingContract.sol\":799:861  require(_ticketCount > 0, \"Event must have atleast 1 ticket!\") */\n      tag_103\n      jumpi\n      mload(0x40)\n      0x08c379a000000000000000000000000000000000000000000000000000000000\n      dup2\n      mstore\n      0x04\n      add\n      tag_104\n      swap1\n      tag_105\n      jump\t// in\n    tag_104:\n      mload(0x40)\n      dup1\n      swap2\n      sub\n      swap1\n      revert\n    tag_103:\n        /* \"contract/EventOrganizingContract.sol\":885:952  Event(msg.sender, _date, _name, _price, _ticketCount, _ticketCount) */\n      mload(0x40)\n      dup1\n      0xc0\n      add\n      0x40\n      mstore\n      dup1\n        /* \"contract/EventOrganizingContract.sol\":891:901  msg.sender */\n      caller\n        /* \"contract/EventOrganizingContract.sol\":885:952  Event(msg.sender, _date, _name, _price, _ticketCount, _ticketCount) */\n      0xffffffffffffffffffffffffffffffffffffffff\n      and\n      dup2\n      mstore\n      0x20\n      add\n        /* \"contract/EventOrganizingContract.sol\":903:908  _date */\n      dup6\n        /* \"contract/EventOrganizingContract.sol\":885:952  Event(msg.sender, _date, _name, _price, _ticketCount, _ticketCount) */\n      dup2\n      mstore\n      0x20\n      add\n        /* \"contract/EventOrganizingContract.sol\":910:915  _name */\n      dup5\n        /* \"contract/EventOrganizingContract.sol\":885:952  Event(msg.sender, _date, _name, _price, _ticketCount, _ticketCount) */\n      dup2\n      mstore\n      0x20\n      add\n        /* \"contract/EventOrganizingContract.sol\":917:923  _price */\n      dup4\n        /* \"contract/EventOrganizingContract.sol\":885:952  Event(msg.sender, _date, _name, _price, _ticketCount, _ticketCount) */\n      dup2\n      mstore\n      0x20\n      add\n        /* \"contract/EventOrganizingContract.sol\":925:937  _ticketCount */\n      dup3\n        /* \"contract/EventOrganizingContract.sol\":885:952  Event(msg.sender, _date, _name, _price, _ticketCount, _ticketCount) */\n      dup2\n      mstore\n      0x20\n      add\n        /* \"contract/EventOrganizingContract.sol\":939:951  _ticketCount */\n      dup3\n        /* \"contract/EventOrganizingContract.sol\":885:952  Event(msg.sender, _date, _name, _price, _ticketCount, _ticketCount) */\n      dup2\n      mstore\n      pop\n        /* \"contract/EventOrganizingContract.sol\":872:878  events */\n      0x00\n        /* \"contract/EventOrganizingContract.sol\":872:882  events[ID] */\n      dup1\n        /* \"contract/EventOrganizingContract.sol\":879:881  ID */\n      sload(0x02)\n        /* \"contract/EventOrganizingContract.sol\":872:882  events[ID] */\n      dup2\n      mstore\n      0x20\n      add\n      swap1\n      dup2\n      mstore\n      0x20\n      add\n      0x00\n      keccak256\n        /* \"contract/EventOrganizingContract.sol\":872:952  events[ID] = Event(msg.sender, _date, _name, _price, _ticketCount, _ticketCount) */\n      0x00\n      dup3\n      add\n      mload\n      dup2\n      0x00\n      add\n      exp(0x0100, 0x00)\n      dup2\n      sload\n      dup2\n      0xffffffffffffffffffffffffffffffffffffffff\n      mul\n      not\n      and\n      swap1\n      dup4\n      0xffffffffffffffffffffffffffffffffffffffff\n      and\n      mul\n      or\n      swap1\n      sstore\n      pop\n      0x20\n      dup3\n      add\n      mload\n      dup2\n      0x01\n      add\n      sstore\n      0x40\n      dup3\n      add\n      mload\n      dup2\n      0x02\n      add\n      swap1\n      dup1\n      mload\n      swap1\n      0x20\n      add\n      swap1\n      tag_106\n      swap3\n      swap2\n      swap1\n      tag_107\n      jump\t// in\n    tag_106:\n      pop\n      0x60\n      dup3\n      add\n      mload\n      dup2\n      0x03\n      add\n      sstore\n      0x80\n      dup3\n      add\n      mload\n      dup2\n      0x04\n      add\n      sstore\n      0xa0\n      dup3\n      add\n      mload\n      dup2\n      0x05\n      add\n      sstore\n      swap1\n      pop\n      pop\n        /* \"contract/EventOrganizingContract.sol\":963:965  ID */\n      0x02\n      0x00\n        /* \"contract/EventOrganizingContract.sol\":963:967  ID++ */\n      dup2\n      sload\n      dup1\n      swap3\n      swap2\n      swap1\n      tag_108\n      swap1\n      tag_109\n      jump\t// in\n    tag_108:\n      swap2\n      swap1\n      pop\n      sstore\n      pop\n        /* \"contract/EventOrganizingContract.sol\":613:975  function createEvent(uint _date, string memory _name, uint _price, uint _ticketCount) external{\r... */\n      pop\n      pop\n      pop\n      pop\n      jump\t// out\n    tag_107:\n      dup3\n      dup1\n      sload\n      tag_110\n      swap1\n      tag_52\n      jump\t// in\n    tag_110:\n      swap1\n      0x00\n      mstore\n      keccak256(0x00, 0x20)\n      swap1\n      0x1f\n      add\n      0x20\n      swap1\n      div\n      dup2\n      add\n      swap3\n      dup3\n      tag_112\n      jumpi\n      0x00\n      dup6\n      sstore\n      jump(tag_111)\n    tag_112:\n      dup3\n      0x1f\n      lt\n      tag_113\n      jumpi\n      dup1\n      mload\n      not(0xff)\n      and\n      dup4\n      dup1\n      add\n      or\n      dup6\n      sstore\n      jump(tag_111)\n    tag_113:\n      dup3\n      dup1\n      add\n      0x01\n      add\n      dup6\n      sstore\n      dup3\n      iszero\n      tag_111\n      jumpi\n      swap2\n      dup3\n      add\n    tag_114:\n      dup3\n      dup2\n      gt\n      iszero\n      tag_115\n      jumpi\n      dup3\n      mload\n      dup3\n      sstore\n      swap2\n      0x20\n      add\n      swap2\n      swap1\n      0x01\n      add\n      swap1\n      jump(tag_114)\n    tag_115:\n    tag_111:\n      pop\n      swap1\n      pop\n      tag_116\n      swap2\n      swap1\n      tag_117\n      jump\t// in\n    tag_116:\n      pop\n      swap1\n      jump\t// out\n    tag_117:\n    tag_118:\n      dup1\n      dup3\n      gt\n      iszero\n      tag_119\n      jumpi\n      0x00\n      dup2\n      0x00\n      swap1\n      sstore\n      pop\n      0x01\n      add\n      jump(tag_118)\n    tag_119:\n      pop\n      swap1\n      jump\t// out\n        /* \"#utility.yul\":7:419   */\n    tag_121:\n        /* \"#utility.yul\":85:90   */\n      0x00\n        /* \"#utility.yul\":110:176   */\n      tag_123\n        /* \"#utility.yul\":126:175   */\n      tag_124\n        /* \"#utility.yul\":168:174   */\n      dup5\n        /* \"#utility.yul\":126:175   */\n      tag_125\n      jump\t// in\n    tag_124:\n        /* \"#utility.yul\":110:176   */\n      tag_126\n      jump\t// in\n    tag_123:\n        /* \"#utility.yul\":101:176   */\n      swap1\n      pop\n        /* \"#utility.yul\":199:205   */\n      dup3\n        /* \"#utility.yul\":192:197   */\n      dup2\n        /* \"#utility.yul\":185:206   */\n      mstore\n        /* \"#utility.yul\":237:241   */\n      0x20\n        /* \"#utility.yul\":230:235   */\n      dup2\n        /* \"#utility.yul\":226:242   */\n      add\n        /* \"#utility.yul\":275:278   */\n      dup5\n        /* \"#utility.yul\":266:272   */\n      dup5\n        /* \"#utility.yul\":261:264   */\n      dup5\n        /* \"#utility.yul\":257:273   */\n      add\n        /* \"#utility.yul\":254:279   */\n      gt\n        /* \"#utility.yul\":251:363   */\n      iszero\n      tag_127\n      jumpi\n        /* \"#utility.yul\":282:361   */\n      tag_128\n      tag_129\n      jump\t// in\n    tag_128:\n        /* \"#utility.yul\":251:363   */\n    tag_127:\n        /* \"#utility.yul\":372:413   */\n      tag_130\n        /* \"#utility.yul\":406:412   */\n      dup5\n        /* \"#utility.yul\":401:404   */\n      dup3\n        /* \"#utility.yul\":396:399   */\n      dup6\n        /* \"#utility.yul\":372:413   */\n      tag_131\n      jump\t// in\n    tag_130:\n        /* \"#utility.yul\":91:419   */\n      pop\n        /* \"#utility.yul\":7:419   */\n      swap4\n      swap3\n      pop\n      pop\n      pop\n      jump\t// out\n        /* \"#utility.yul\":425:564   */\n    tag_132:\n        /* \"#utility.yul\":471:476   */\n      0x00\n        /* \"#utility.yul\":509:515   */\n      dup2\n        /* \"#utility.yul\":496:516   */\n      calldataload\n        /* \"#utility.yul\":487:516   */\n      swap1\n      pop\n        /* \"#utility.yul\":525:558   */\n      tag_134\n        /* \"#utility.yul\":552:557   */\n      dup2\n        /* \"#utility.yul\":525:558   */\n      tag_135\n      jump\t// in\n    tag_134:\n        /* \"#utility.yul\":425:564   */\n      swap3\n      swap2\n      pop\n      pop\n      jump\t// out\n        /* \"#utility.yul\":584:924   */\n    tag_136:\n        /* \"#utility.yul\":640:645   */\n      0x00\n        /* \"#utility.yul\":689:692   */\n      dup3\n        /* \"#utility.yul\":682:686   */\n      0x1f\n        /* \"#utility.yul\":674:680   */\n      dup4\n        /* \"#utility.yul\":670:687   */\n      add\n        /* \"#utility.yul\":666:693   */\n      slt\n        /* \"#utility.yul\":656:778   */\n      tag_138\n      jumpi\n        /* \"#utility.yul\":697:776   */\n      tag_139\n      tag_140\n      jump\t// in\n    tag_139:\n        /* \"#utility.yul\":656:778   */\n    tag_138:\n        /* \"#utility.yul\":814:820   */\n      dup2\n        /* \"#utility.yul\":801:821   */\n      calldataload\n        /* \"#utility.yul\":839:918   */\n      tag_141\n        /* \"#utility.yul\":914:917   */\n      dup5\n        /* \"#utility.yul\":906:912   */\n      dup3\n        /* \"#utility.yul\":899:903   */\n      0x20\n        /* \"#utility.yul\":891:897   */\n      dup7\n        /* \"#utility.yul\":887:904   */\n      add\n        /* \"#utility.yul\":839:918   */\n      tag_121\n      jump\t// in\n    tag_141:\n        /* \"#utility.yul\":830:918   */\n      swap2\n      pop\n        /* \"#utility.yul\":646:924   */\n      pop\n        /* \"#utility.yul\":584:924   */\n      swap3\n      swap2\n      pop\n      pop\n      jump\t// out\n        /* \"#utility.yul\":930:1069   */\n    tag_142:\n        /* \"#utility.yul\":976:981   */\n      0x00\n        /* \"#utility.yul\":1014:1020   */\n      dup2\n        /* \"#utility.yul\":1001:1021   */\n      calldataload\n        /* \"#utility.yul\":992:1021   */\n      swap1\n      pop\n        /* \"#utility.yul\":1030:1063   */\n      tag_144\n        /* \"#utility.yul\":1057:1062   */\n      dup2\n        /* \"#utility.yul\":1030:1063   */\n      tag_145\n      jump\t// in\n    tag_144:\n        /* \"#utility.yul\":930:1069   */\n      swap3\n      swap2\n      pop\n      pop\n      jump\t// out\n        /* \"#utility.yul\":1075:1549   */\n    tag_38:\n        /* \"#utility.yul\":1143:1149   */\n      0x00\n        /* \"#utility.yul\":1151:1157   */\n      dup1\n        /* \"#utility.yul\":1200:1202   */\n      0x40\n        /* \"#utility.yul\":1188:1197   */\n      dup4\n        /* \"#utility.yul\":1179:1186   */\n      dup6\n        /* \"#utility.yul\":1175:1198   */\n      sub\n        /* \"#utility.yul\":1171:1203   */\n      slt\n        /* \"#utility.yul\":1168:1287   */\n      iszero\n      tag_147\n      jumpi\n        /* \"#utility.yul\":1206:1285   */\n      tag_148\n      tag_149\n      jump\t// in\n    tag_148:\n        /* \"#utility.yul\":1168:1287   */\n    tag_147:\n        /* \"#utility.yul\":1326:1327   */\n      0x00\n        /* \"#utility.yul\":1351:1404   */\n      tag_150\n        /* \"#utility.yul\":1396:1403   */\n      dup6\n        /* \"#utility.yul\":1387:1393   */\n      dup3\n        /* \"#utility.yul\":1376:1385   */\n      dup7\n        /* \"#utility.yul\":1372:1394   */\n      add\n        /* \"#utility.yul\":1351:1404   */\n      tag_132\n      jump\t// in\n    tag_150:\n        /* \"#utility.yul\":1341:1404   */\n      swap3\n      pop\n        /* \"#utility.yul\":1297:1414   */\n      pop\n        /* \"#utility.yul\":1453:1455   */\n      0x20\n        /* \"#utility.yul\":1479:1532   */\n      tag_151\n        /* \"#utility.yul\":1524:1531   */\n      dup6\n        /* \"#utility.yul\":1515:1521   */\n      dup3\n        /* \"#utility.yul\":1504:1513   */\n      dup7\n        /* \"#utility.yul\":1500:1522   */\n      add\n        /* \"#utility.yul\":1479:1532   */\n      tag_142\n      jump\t// in\n    tag_151:\n        /* \"#utility.yul\":1469:1532   */\n      swap2\n      pop\n        /* \"#utility.yul\":1424:1542   */\n      pop\n        /* \"#utility.yul\":1075:1549   */\n      swap3\n      pop\n      swap3\n      swap1\n      pop\n      jump\t// out\n        /* \"#utility.yul\":1555:1884   */\n    tag_14:\n        /* \"#utility.yul\":1614:1620   */\n      0x00\n        /* \"#utility.yul\":1663:1665   */\n      0x20\n        /* \"#utility.yul\":1651:1660   */\n      dup3\n        /* \"#utility.yul\":1642:1649   */\n      dup5\n        /* \"#utility.yul\":1638:1661   */\n      sub\n        /* \"#utility.yul\":1634:1666   */\n      slt\n        /* \"#utility.yul\":1631:1750   */\n      iszero\n      tag_153\n      jumpi\n        /* \"#utility.yul\":1669:1748   */\n      tag_154\n      tag_149\n      jump\t// in\n    tag_154:\n        /* \"#utility.yul\":1631:1750   */\n    tag_153:\n        /* \"#utility.yul\":1789:1790   */\n      0x00\n        /* \"#utility.yul\":1814:1867   */\n      tag_155\n        /* \"#utility.yul\":1859:1866   */\n      dup5\n        /* \"#utility.yul\":1850:1856   */\n      dup3\n        /* \"#utility.yul\":1839:1848   */\n      dup6\n        /* \"#utility.yul\":1835:1857   */\n      add\n        /* \"#utility.yul\":1814:1867   */\n      tag_142\n      jump\t// in\n    tag_155:\n        /* \"#utility.yul\":1804:1867   */\n      swap2\n      pop\n        /* \"#utility.yul\":1760:1877   */\n      pop\n        /* \"#utility.yul\":1555:1884   */\n      swap3\n      swap2\n      pop\n      pop\n      jump\t// out\n        /* \"#utility.yul\":1890:2835   */\n    tag_49:\n        /* \"#utility.yul\":1986:1992   */\n      0x00\n        /* \"#utility.yul\":1994:2000   */\n      dup1\n        /* \"#utility.yul\":2002:2008   */\n      0x00\n        /* \"#utility.yul\":2010:2016   */\n      dup1\n        /* \"#utility.yul\":2059:2062   */\n      0x80\n        /* \"#utility.yul\":2047:2056   */\n      dup6\n        /* \"#utility.yul\":2038:2045   */\n      dup8\n        /* \"#utility.yul\":2034:2057   */\n      sub\n        /* \"#utility.yul\":2030:2063   */\n      slt\n        /* \"#utility.yul\":2027:2147   */\n      iszero\n      tag_157\n      jumpi\n        /* \"#utility.yul\":2066:2145   */\n      tag_158\n      tag_149\n      jump\t// in\n    tag_158:\n        /* \"#utility.yul\":2027:2147   */\n    tag_157:\n        /* \"#utility.yul\":2186:2187   */\n      0x00\n        /* \"#utility.yul\":2211:2264   */\n      tag_159\n        /* \"#utility.yul\":2256:2263   */\n      dup8\n        /* \"#utility.yul\":2247:2253   */\n      dup3\n        /* \"#utility.yul\":2236:2245   */\n      dup9\n        /* \"#utility.yul\":2232:2254   */\n      add\n        /* \"#utility.yul\":2211:2264   */\n      tag_142\n      jump\t// in\n    tag_159:\n        /* \"#utility.yul\":2201:2264   */\n      swap5\n      pop\n        /* \"#utility.yul\":2157:2274   */\n      pop\n        /* \"#utility.yul\":2341:2343   */\n      0x20\n        /* \"#utility.yul\":2330:2339   */\n      dup6\n        /* \"#utility.yul\":2326:2344   */\n      add\n        /* \"#utility.yul\":2313:2345   */\n      calldataload\n        /* \"#utility.yul\":2372:2390   */\n      0xffffffffffffffff\n        /* \"#utility.yul\":2364:2370   */\n      dup2\n        /* \"#utility.yul\":2361:2391   */\n      gt\n        /* \"#utility.yul\":2358:2475   */\n      iszero\n      tag_160\n      jumpi\n        /* \"#utility.yul\":2394:2473   */\n      tag_161\n      tag_162\n      jump\t// in\n    tag_161:\n        /* \"#utility.yul\":2358:2475   */\n    tag_160:\n        /* \"#utility.yul\":2499:2562   */\n      tag_163\n        /* \"#utility.yul\":2554:2561   */\n      dup8\n        /* \"#utility.yul\":2545:2551   */\n      dup3\n        /* \"#utility.yul\":2534:2543   */\n      dup9\n        /* \"#utility.yul\":2530:2552   */\n      add\n        /* \"#utility.yul\":2499:2562   */\n      tag_136\n      jump\t// in\n    tag_163:\n        /* \"#utility.yul\":2489:2562   */\n      swap4\n      pop\n        /* \"#utility.yul\":2284:2572   */\n      pop\n        /* \"#utility.yul\":2611:2613   */\n      0x40\n        /* \"#utility.yul\":2637:2690   */\n      tag_164\n        /* \"#utility.yul\":2682:2689   */\n      dup8\n        /* \"#utility.yul\":2673:2679   */\n      dup3\n        /* \"#utility.yul\":2662:2671   */\n      dup9\n        /* \"#utility.yul\":2658:2680   */\n      add\n        /* \"#utility.yul\":2637:2690   */\n      tag_142\n      jump\t// in\n    tag_164:\n        /* \"#utility.yul\":2627:2690   */\n      swap3\n      pop\n        /* \"#utility.yul\":2582:2700   */\n      pop\n        /* \"#utility.yul\":2739:2741   */\n      0x60\n        /* \"#utility.yul\":2765:2818   */\n      tag_165\n        /* \"#utility.yul\":2810:2817   */\n      dup8\n        /* \"#utility.yul\":2801:2807   */\n      dup3\n        /* \"#utility.yul\":2790:2799   */\n      dup9\n        /* \"#utility.yul\":2786:2808   */\n      add\n        /* \"#utility.yul\":2765:2818   */\n      tag_142\n      jump\t// in\n    tag_165:\n        /* \"#utility.yul\":2755:2818   */\n      swap2\n      pop\n        /* \"#utility.yul\":2710:2828   */\n      pop\n        /* \"#utility.yul\":1890:2835   */\n      swap3\n      swap6\n      swap2\n      swap5\n      pop\n      swap3\n      pop\n      jump\t// out\n        /* \"#utility.yul\":2841:3315   */\n    tag_20:\n        /* \"#utility.yul\":2909:2915   */\n      0x00\n        /* \"#utility.yul\":2917:2923   */\n      dup1\n        /* \"#utility.yul\":2966:2968   */\n      0x40\n        /* \"#utility.yul\":2954:2963   */\n      dup4\n        /* \"#utility.yul\":2945:2952   */\n      dup6\n        /* \"#utility.yul\":2941:2964   */\n      sub\n        /* \"#utility.yul\":2937:2969   */\n      slt\n        /* \"#utility.yul\":2934:3053   */\n      iszero\n      tag_167\n      jumpi\n        /* \"#utility.yul\":2972:3051   */\n      tag_168\n      tag_149\n      jump\t// in\n    tag_168:\n        /* \"#utility.yul\":2934:3053   */\n    tag_167:\n        /* \"#utility.yul\":3092:3093   */\n      0x00\n        /* \"#utility.yul\":3117:3170   */\n      tag_169\n        /* \"#utility.yul\":3162:3169   */\n      dup6\n        /* \"#utility.yul\":3153:3159   */\n      dup3\n        /* \"#utility.yul\":3142:3151   */\n      dup7\n        /* \"#utility.yul\":3138:3160   */\n      add\n        /* \"#utility.yul\":3117:3170   */\n      tag_142\n      jump\t// in\n    tag_169:\n        /* \"#utility.yul\":3107:3170   */\n      swap3\n      pop\n        /* \"#utility.yul\":3063:3180   */\n      pop\n        /* \"#utility.yul\":3219:3221   */\n      0x20\n        /* \"#utility.yul\":3245:3298   */\n      tag_170\n        /* \"#utility.yul\":3290:3297   */\n      dup6\n        /* \"#utility.yul\":3281:3287   */\n      dup3\n        /* \"#utility.yul\":3270:3279   */\n      dup7\n        /* \"#utility.yul\":3266:3288   */\n      add\n        /* \"#utility.yul\":3245:3298   */\n      tag_142\n      jump\t// in\n    tag_170:\n        /* \"#utility.yul\":3235:3298   */\n      swap2\n      pop\n        /* \"#utility.yul\":3190:3308   */\n      pop\n        /* \"#utility.yul\":2841:3315   */\n      swap3\n      pop\n      swap3\n      swap1\n      pop\n      jump\t// out\n        /* \"#utility.yul\":3321:3940   */\n    tag_44:\n        /* \"#utility.yul\":3398:3404   */\n      0x00\n        /* \"#utility.yul\":3406:3412   */\n      dup1\n        /* \"#utility.yul\":3414:3420   */\n      0x00\n        /* \"#utility.yul\":3463:3465   */\n      0x60\n        /* \"#utility.yul\":3451:3460   */\n      dup5\n        /* \"#utility.yul\":3442:3449   */\n      dup7\n        /* \"#utility.yul\":3438:3461   */\n      sub\n        /* \"#utility.yul\":3434:3466   */\n      slt\n        /* \"#utility.yul\":3431:3550   */\n      iszero\n      tag_172\n      jumpi\n        /* \"#utility.yul\":3469:3548   */\n      tag_173\n      tag_149\n      jump\t// in\n    tag_173:\n        /* \"#utility.yul\":3431:3550   */\n    tag_172:\n        /* \"#utility.yul\":3589:3590   */\n      0x00\n        /* \"#utility.yul\":3614:3667   */\n      tag_174\n        /* \"#utility.yul\":3659:3666   */\n      dup7\n        /* \"#utility.yul\":3650:3656   */\n      dup3\n        /* \"#utility.yul\":3639:3648   */\n      dup8\n        /* \"#utility.yul\":3635:3657   */\n      add\n        /* \"#utility.yul\":3614:3667   */\n      tag_142\n      jump\t// in\n    tag_174:\n        /* \"#utility.yul\":3604:3667   */\n      swap4\n      pop\n        /* \"#utility.yul\":3560:3677   */\n      pop\n        /* \"#utility.yul\":3716:3718   */\n      0x20\n        /* \"#utility.yul\":3742:3795   */\n      tag_175\n        /* \"#utility.yul\":3787:3794   */\n      dup7\n        /* \"#utility.yul\":3778:3784   */\n      dup3\n        /* \"#utility.yul\":3767:3776   */\n      dup8\n        /* \"#utility.yul\":3763:3785   */\n      add\n        /* \"#utility.yul\":3742:3795   */\n      tag_142\n      jump\t// in\n    tag_175:\n        /* \"#utility.yul\":3732:3795   */\n      swap3\n      pop\n        /* \"#utility.yul\":3687:3805   */\n      pop\n        /* \"#utility.yul\":3844:3846   */\n      0x40\n        /* \"#utility.yul\":3870:3923   */\n      tag_176\n        /* \"#utility.yul\":3915:3922   */\n      dup7\n        /* \"#utility.yul\":3906:3912   */\n      dup3\n        /* \"#utility.yul\":3895:3904   */\n      dup8\n        /* \"#utility.yul\":3891:3913   */\n      add\n        /* \"#utility.yul\":3870:3923   */\n      tag_132\n      jump\t// in\n    tag_176:\n        /* \"#utility.yul\":3860:3923   */\n      swap2\n      pop\n        /* \"#utility.yul\":3815:3933   */\n      pop\n        /* \"#utility.yul\":3321:3940   */\n      swap3\n      pop\n      swap3\n      pop\n      swap3\n      jump\t// out\n        /* \"#utility.yul\":3946:4064   */\n    tag_177:\n        /* \"#utility.yul\":4033:4057   */\n      tag_179\n        /* \"#utility.yul\":4051:4056   */\n      dup2\n        /* \"#utility.yul\":4033:4057   */\n      tag_180\n      jump\t// in\n    tag_179:\n        /* \"#utility.yul\":4028:4031   */\n      dup3\n        /* \"#utility.yul\":4021:4058   */\n      mstore\n        /* \"#utility.yul\":3946:4064   */\n      pop\n      pop\n      jump\t// out\n        /* \"#utility.yul\":4070:4434   */\n    tag_181:\n        /* \"#utility.yul\":4158:4161   */\n      0x00\n        /* \"#utility.yul\":4186:4225   */\n      tag_183\n        /* \"#utility.yul\":4219:4224   */\n      dup3\n        /* \"#utility.yul\":4186:4225   */\n      tag_184\n      jump\t// in\n    tag_183:\n        /* \"#utility.yul\":4241:4312   */\n      tag_185\n        /* \"#utility.yul\":4305:4311   */\n      dup2\n        /* \"#utility.yul\":4300:4303   */\n      dup6\n        /* \"#utility.yul\":4241:4312   */\n      tag_186\n      jump\t// in\n    tag_185:\n        /* \"#utility.yul\":4234:4312   */\n      swap4\n      pop\n        /* \"#utility.yul\":4321:4373   */\n      tag_187\n        /* \"#utility.yul\":4366:4372   */\n      dup2\n        /* \"#utility.yul\":4361:4364   */\n      dup6\n        /* \"#utility.yul\":4354:4358   */\n      0x20\n        /* \"#utility.yul\":4347:4352   */\n      dup7\n        /* \"#utility.yul\":4343:4359   */\n      add\n        /* \"#utility.yul\":4321:4373   */\n      tag_188\n      jump\t// in\n    tag_187:\n        /* \"#utility.yul\":4398:4427   */\n      tag_189\n        /* \"#utility.yul\":4420:4426   */\n      dup2\n        /* \"#utility.yul\":4398:4427   */\n      tag_190\n      jump\t// in\n    tag_189:\n        /* \"#utility.yul\":4393:4396   */\n      dup5\n        /* \"#utility.yul\":4389:4428   */\n      add\n        /* \"#utility.yul\":4382:4428   */\n      swap2\n      pop\n        /* \"#utility.yul\":4162:4434   */\n      pop\n        /* \"#utility.yul\":4070:4434   */\n      swap3\n      swap2\n      pop\n      pop\n      jump\t// out\n        /* \"#utility.yul\":4440:4806   */\n    tag_191:\n        /* \"#utility.yul\":4582:4585   */\n      0x00\n        /* \"#utility.yul\":4603:4670   */\n      tag_193\n        /* \"#utility.yul\":4667:4669   */\n      0x15\n        /* \"#utility.yul\":4662:4665   */\n      dup4\n        /* \"#utility.yul\":4603:4670   */\n      tag_186\n      jump\t// in\n    tag_193:\n        /* \"#utility.yul\":4596:4670   */\n      swap2\n      pop\n        /* \"#utility.yul\":4679:4772   */\n      tag_194\n        /* \"#utility.yul\":4768:4771   */\n      dup3\n        /* \"#utility.yul\":4679:4772   */\n      tag_195\n      jump\t// in\n    tag_194:\n        /* \"#utility.yul\":4797:4799   */\n      0x20\n        /* \"#utility.yul\":4792:4795   */\n      dup3\n        /* \"#utility.yul\":4788:4800   */\n      add\n        /* \"#utility.yul\":4781:4800   */\n      swap1\n      pop\n        /* \"#utility.yul\":4440:4806   */\n      swap2\n      swap1\n      pop\n      jump\t// out\n        /* \"#utility.yul\":4812:5178   */\n    tag_196:\n        /* \"#utility.yul\":4954:4957   */\n      0x00\n        /* \"#utility.yul\":4975:5042   */\n      tag_198\n        /* \"#utility.yul\":5039:5041   */\n      0x29\n        /* \"#utility.yul\":5034:5037   */\n      dup4\n        /* \"#utility.yul\":4975:5042   */\n      tag_186\n      jump\t// in\n    tag_198:\n        /* \"#utility.yul\":4968:5042   */\n      swap2\n      pop\n        /* \"#utility.yul\":5051:5144   */\n      tag_199\n        /* \"#utility.yul\":5140:5143   */\n      dup3\n        /* \"#utility.yul\":5051:5144   */\n      tag_200\n      jump\t// in\n    tag_199:\n        /* \"#utility.yul\":5169:5171   */\n      0x40\n        /* \"#utility.yul\":5164:5167   */\n      dup3\n        /* \"#utility.yul\":5160:5172   */\n      add\n        /* \"#utility.yul\":5153:5172   */\n      swap1\n      pop\n        /* \"#utility.yul\":4812:5178   */\n      swap2\n      swap1\n      pop\n      jump\t// out\n        /* \"#utility.yul\":5184:5550   */\n    tag_201:\n        /* \"#utility.yul\":5326:5329   */\n      0x00\n        /* \"#utility.yul\":5347:5414   */\n      tag_203\n        /* \"#utility.yul\":5411:5413   */\n      0x4c\n        /* \"#utility.yul\":5406:5409   */\n      dup4\n        /* \"#utility.yul\":5347:5414   */\n      tag_186\n      jump\t// in\n    tag_203:\n        /* \"#utility.yul\":5340:5414   */\n      swap2\n      pop\n        /* \"#utility.yul\":5423:5516   */\n      tag_204\n        /* \"#utility.yul\":5512:5515   */\n      dup3\n        /* \"#utility.yul\":5423:5516   */\n      tag_205\n      jump\t// in\n    tag_204:\n        /* \"#utility.yul\":5541:5543   */\n      0x60\n        /* \"#utility.yul\":5536:5539   */\n      dup3\n        /* \"#utility.yul\":5532:5544   */\n      add\n        /* \"#utility.yul\":5525:5544   */\n      swap1\n      pop\n        /* \"#utility.yul\":5184:5550   */\n      swap2\n      swap1\n      pop\n      jump\t// out\n        /* \"#utility.yul\":5556:5922   */\n    tag_206:\n        /* \"#utility.yul\":5698:5701   */\n      0x00\n        /* \"#utility.yul\":5719:5786   */\n      tag_208\n        /* \"#utility.yul\":5783:5785   */\n      0x1f\n        /* \"#utility.yul\":5778:5781   */\n      dup4\n        /* \"#utility.yul\":5719:5786   */\n      tag_186\n      jump\t// in\n    tag_208:\n        /* \"#utility.yul\":5712:5786   */\n      swap2\n      pop\n        /* \"#utility.yul\":5795:5888   */\n      tag_209\n        /* \"#utility.yul\":5884:5887   */\n      dup3\n        /* \"#utility.yul\":5795:5888   */\n      tag_210\n      jump\t// in\n    tag_209:\n        /* \"#utility.yul\":5913:5915   */\n      0x20\n        /* \"#utility.yul\":5908:5911   */\n      dup3\n        /* \"#utility.yul\":5904:5916   */\n      add\n        /* \"#utility.yul\":5897:5916   */\n      swap1\n      pop\n        /* \"#utility.yul\":5556:5922   */\n      swap2\n      swap1\n      pop\n      jump\t// out\n        /* \"#utility.yul\":5928:6294   */\n    tag_211:\n        /* \"#utility.yul\":6070:6073   */\n      0x00\n        /* \"#utility.yul\":6091:6158   */\n      tag_213\n        /* \"#utility.yul\":6155:6157   */\n      0x16\n        /* \"#utility.yul\":6150:6153   */\n      dup4\n        /* \"#utility.yul\":6091:6158   */\n      tag_186\n      jump\t// in\n    tag_213:\n        /* \"#utility.yul\":6084:6158   */\n      swap2\n      pop\n        /* \"#utility.yul\":6167:6260   */\n      tag_214\n        /* \"#utility.yul\":6256:6259   */\n      dup3\n        /* \"#utility.yul\":6167:6260   */\n      tag_215\n      jump\t// in\n    tag_214:\n        /* \"#utility.yul\":6285:6287   */\n      0x20\n        /* \"#utility.yul\":6280:6283   */\n      dup3\n        /* \"#utility.yul\":6276:6288   */\n      add\n        /* \"#utility.yul\":6269:6288   */\n      swap1\n      pop\n        /* \"#utility.yul\":5928:6294   */\n      swap2\n      swap1\n      pop\n      jump\t// out\n        /* \"#utility.yul\":6300:6666   */\n    tag_216:\n        /* \"#utility.yul\":6442:6445   */\n      0x00\n        /* \"#utility.yul\":6463:6530   */\n      tag_218\n        /* \"#utility.yul\":6527:6529   */\n      0x1d\n        /* \"#utility.yul\":6522:6525   */\n      dup4\n        /* \"#utility.yul\":6463:6530   */\n      tag_186\n      jump\t// in\n    tag_218:\n        /* \"#utility.yul\":6456:6530   */\n      swap2\n      pop\n        /* \"#utility.yul\":6539:6632   */\n      tag_219\n        /* \"#utility.yul\":6628:6631   */\n      dup3\n        /* \"#utility.yul\":6539:6632   */\n      tag_220\n      jump\t// in\n    tag_219:\n        /* \"#utility.yul\":6657:6659   */\n      0x20\n        /* \"#utility.yul\":6652:6655   */\n      dup3\n        /* \"#utility.yul\":6648:6660   */\n      add\n        /* \"#utility.yul\":6641:6660   */\n      swap1\n      pop\n        /* \"#utility.yul\":6300:6666   */\n      swap2\n      swap1\n      pop\n      jump\t// out\n        /* \"#utility.yul\":6672:7038   */\n    tag_221:\n        /* \"#utility.yul\":6814:6817   */\n      0x00\n        /* \"#utility.yul\":6835:6902   */\n      tag_223\n        /* \"#utility.yul\":6899:6901   */\n      0x15\n        /* \"#utility.yul\":6894:6897   */\n      dup4\n        /* \"#utility.yul\":6835:6902   */\n      tag_186\n      jump\t// in\n    tag_223:\n        /* \"#utility.yul\":6828:6902   */\n      swap2\n      pop\n        /* \"#utility.yul\":6911:7004   */\n      tag_224\n        /* \"#utility.yul\":7000:7003   */\n      dup3\n        /* \"#utility.yul\":6911:7004   */\n      tag_225\n      jump\t// in\n    tag_224:\n        /* \"#utility.yul\":7029:7031   */\n      0x20\n        /* \"#utility.yul\":7024:7027   */\n      dup3\n        /* \"#utility.yul\":7020:7032   */\n      add\n        /* \"#utility.yul\":7013:7032   */\n      swap1\n      pop\n        /* \"#utility.yul\":6672:7038   */\n      swap2\n      swap1\n      pop\n      jump\t// out\n        /* \"#utility.yul\":7044:7410   */\n    tag_226:\n        /* \"#utility.yul\":7186:7189   */\n      0x00\n        /* \"#utility.yul\":7207:7274   */\n      tag_228\n        /* \"#utility.yul\":7271:7273   */\n      0x1d\n        /* \"#utility.yul\":7266:7269   */\n      dup4\n        /* \"#utility.yul\":7207:7274   */\n      tag_186\n      jump\t// in\n    tag_228:\n        /* \"#utility.yul\":7200:7274   */\n      swap2\n      pop\n        /* \"#utility.yul\":7283:7376   */\n      tag_229\n        /* \"#utility.yul\":7372:7375   */\n      dup3\n        /* \"#utility.yul\":7283:7376   */\n      tag_230\n      jump\t// in\n    tag_229:\n        /* \"#utility.yul\":7401:7403   */\n      0x20\n        /* \"#utility.yul\":7396:7399   */\n      dup3\n        /* \"#utility.yul\":7392:7404   */\n      add\n        /* \"#utility.yul\":7385:7404   */\n      swap1\n      pop\n        /* \"#utility.yul\":7044:7410   */\n      swap2\n      swap1\n      pop\n      jump\t// out\n        /* \"#utility.yul\":7416:7782   */\n    tag_231:\n        /* \"#utility.yul\":7558:7561   */\n      0x00\n        /* \"#utility.yul\":7579:7646   */\n      tag_233\n        /* \"#utility.yul\":7643:7645   */\n      0x15\n        /* \"#utility.yul\":7638:7641   */\n      dup4\n        /* \"#utility.yul\":7579:7646   */\n      tag_186\n      jump\t// in\n    tag_233:\n        /* \"#utility.yul\":7572:7646   */\n      swap2\n      pop\n        /* \"#utility.yul\":7655:7748   */\n      tag_234\n        /* \"#utility.yul\":7744:7747   */\n      dup3\n        /* \"#utility.yul\":7655:7748   */\n      tag_235\n      jump\t// in\n    tag_234:\n        /* \"#utility.yul\":7773:7775   */\n      0x20\n        /* \"#utility.yul\":7768:7771   */\n      dup3\n        /* \"#utility.yul\":7764:7776   */\n      add\n        /* \"#utility.yul\":7757:7776   */\n      swap1\n      pop\n        /* \"#utility.yul\":7416:7782   */\n      swap2\n      swap1\n      pop\n      jump\t// out\n        /* \"#utility.yul\":7788:8154   */\n    tag_236:\n        /* \"#utility.yul\":7930:7933   */\n      0x00\n        /* \"#utility.yul\":7951:8018   */\n      tag_238\n        /* \"#utility.yul\":8015:8017   */\n      0x21\n        /* \"#utility.yul\":8010:8013   */\n      dup4\n        /* \"#utility.yul\":7951:8018   */\n      tag_186\n      jump\t// in\n    tag_238:\n        /* \"#utility.yul\":7944:8018   */\n      swap2\n      pop\n        /* \"#utility.yul\":8027:8120   */\n      tag_239\n        /* \"#utility.yul\":8116:8119   */\n      dup3\n        /* \"#utility.yul\":8027:8120   */\n      tag_240\n      jump\t// in\n    tag_239:\n        /* \"#utility.yul\":8145:8147   */\n      0x40\n        /* \"#utility.yul\":8140:8143   */\n      dup3\n        /* \"#utility.yul\":8136:8148   */\n      add\n        /* \"#utility.yul\":8129:8148   */\n      swap1\n      pop\n        /* \"#utility.yul\":7788:8154   */\n      swap2\n      swap1\n      pop\n      jump\t// out\n        /* \"#utility.yul\":8160:8526   */\n    tag_241:\n        /* \"#utility.yul\":8302:8305   */\n      0x00\n        /* \"#utility.yul\":8323:8390   */\n      tag_243\n        /* \"#utility.yul\":8387:8389   */\n      0x22\n        /* \"#utility.yul\":8382:8385   */\n      dup4\n        /* \"#utility.yul\":8323:8390   */\n      tag_186\n      jump\t// in\n    tag_243:\n        /* \"#utility.yul\":8316:8390   */\n      swap2\n      pop\n        /* \"#utility.yul\":8399:8492   */\n      tag_244\n        /* \"#utility.yul\":8488:8491   */\n      dup3\n        /* \"#utility.yul\":8399:8492   */\n      tag_245\n      jump\t// in\n    tag_244:\n        /* \"#utility.yul\":8517:8519   */\n      0x40\n        /* \"#utility.yul\":8512:8515   */\n      dup3\n        /* \"#utility.yul\":8508:8520   */\n      add\n        /* \"#utility.yul\":8501:8520   */\n      swap1\n      pop\n        /* \"#utility.yul\":8160:8526   */\n      swap2\n      swap1\n      pop\n      jump\t// out\n        /* \"#utility.yul\":8532:8650   */\n    tag_246:\n        /* \"#utility.yul\":8619:8643   */\n      tag_248\n        /* \"#utility.yul\":8637:8642   */\n      dup2\n        /* \"#utility.yul\":8619:8643   */\n      tag_249\n      jump\t// in\n    tag_248:\n        /* \"#utility.yul\":8614:8617   */\n      dup3\n        /* \"#utility.yul\":8607:8644   */\n      mstore\n        /* \"#utility.yul\":8532:8650   */\n      pop\n      pop\n      jump\t// out\n        /* \"#utility.yul\":8656:9522   */\n    tag_17:\n        /* \"#utility.yul\":8909:8913   */\n      0x00\n        /* \"#utility.yul\":8947:8950   */\n      0xc0\n        /* \"#utility.yul\":8936:8945   */\n      dup3\n        /* \"#utility.yul\":8932:8951   */\n      add\n        /* \"#utility.yul\":8924:8951   */\n      swap1\n      pop\n        /* \"#utility.yul\":8961:9032   */\n      tag_251\n        /* \"#utility.yul\":9029:9030   */\n      0x00\n        /* \"#utility.yul\":9018:9027   */\n      dup4\n        /* \"#utility.yul\":9014:9031   */\n      add\n        /* \"#utility.yul\":9005:9011   */\n      dup10\n        /* \"#utility.yul\":8961:9032   */\n      tag_177\n      jump\t// in\n    tag_251:\n        /* \"#utility.yul\":9042:9114   */\n      tag_252\n        /* \"#utility.yul\":9110:9112   */\n      0x20\n        /* \"#utility.yul\":9099:9108   */\n      dup4\n        /* \"#utility.yul\":9095:9113   */\n      add\n        /* \"#utility.yul\":9086:9092   */\n      dup9\n        /* \"#utility.yul\":9042:9114   */\n      tag_246\n      jump\t// in\n    tag_252:\n        /* \"#utility.yul\":9161:9170   */\n      dup2\n        /* \"#utility.yul\":9155:9159   */\n      dup2\n        /* \"#utility.yul\":9151:9171   */\n      sub\n        /* \"#utility.yul\":9146:9148   */\n      0x40\n        /* \"#utility.yul\":9135:9144   */\n      dup4\n        /* \"#utility.yul\":9131:9149   */\n      add\n        /* \"#utility.yul\":9124:9172   */\n      mstore\n        /* \"#utility.yul\":9189:9267   */\n      tag_253\n        /* \"#utility.yul\":9262:9266   */\n      dup2\n        /* \"#utility.yul\":9253:9259   */\n      dup8\n        /* \"#utility.yul\":9189:9267   */\n      tag_181\n      jump\t// in\n    tag_253:\n        /* \"#utility.yul\":9181:9267   */\n      swap1\n      pop\n        /* \"#utility.yul\":9277:9349   */\n      tag_254\n        /* \"#utility.yul\":9345:9347   */\n      0x60\n        /* \"#utility.yul\":9334:9343   */\n      dup4\n        /* \"#utility.yul\":9330:9348   */\n      add\n        /* \"#utility.yul\":9321:9327   */\n      dup7\n        /* \"#utility.yul\":9277:9349   */\n      tag_246\n      jump\t// in\n    tag_254:\n        /* \"#utility.yul\":9359:9432   */\n      tag_255\n        /* \"#utility.yul\":9427:9430   */\n      0x80\n        /* \"#utility.yul\":9416:9425   */\n      dup4\n        /* \"#utility.yul\":9412:9431   */\n      add\n        /* \"#utility.yul\":9403:9409   */\n      dup6\n        /* \"#utility.yul\":9359:9432   */\n      tag_246\n      jump\t// in\n    tag_255:\n        /* \"#utility.yul\":9442:9515   */\n      tag_256\n        /* \"#utility.yul\":9510:9513   */\n      0xa0\n        /* \"#utility.yul\":9499:9508   */\n      dup4\n        /* \"#utility.yul\":9495:9514   */\n      add\n        /* \"#utility.yul\":9486:9492   */\n      dup5\n        /* \"#utility.yul\":9442:9515   */\n      tag_246\n      jump\t// in\n    tag_256:\n        /* \"#utility.yul\":8656:9522   */\n      swap8\n      swap7\n      pop\n      pop\n      pop\n      pop\n      pop\n      pop\n      pop\n      jump\t// out\n        /* \"#utility.yul\":9528:9947   */\n    tag_62:\n        /* \"#utility.yul\":9694:9698   */\n      0x00\n        /* \"#utility.yul\":9732:9734   */\n      0x20\n        /* \"#utility.yul\":9721:9730   */\n      dup3\n        /* \"#utility.yul\":9717:9735   */\n      add\n        /* \"#utility.yul\":9709:9735   */\n      swap1\n      pop\n        /* \"#utility.yul\":9781:9790   */\n      dup2\n        /* \"#utility.yul\":9775:9779   */\n      dup2\n        /* \"#utility.yul\":9771:9791   */\n      sub\n        /* \"#utility.yul\":9767:9768   */\n      0x00\n        /* \"#utility.yul\":9756:9765   */\n      dup4\n        /* \"#utility.yul\":9752:9769   */\n      add\n        /* \"#utility.yul\":9745:9792   */\n      mstore\n        /* \"#utility.yul\":9809:9940   */\n      tag_258\n        /* \"#utility.yul\":9935:9939   */\n      dup2\n        /* \"#utility.yul\":9809:9940   */\n      tag_191\n      jump\t// in\n    tag_258:\n        /* \"#utility.yul\":9801:9940   */\n      swap1\n      pop\n        /* \"#utility.yul\":9528:9947   */\n      swap2\n      swap1\n      pop\n      jump\t// out\n        /* \"#utility.yul\":9953:10372   */\n    tag_96:\n        /* \"#utility.yul\":10119:10123   */\n      0x00\n        /* \"#utility.yul\":10157:10159   */\n      0x20\n        /* \"#utility.yul\":10146:10155   */\n      dup3\n        /* \"#utility.yul\":10142:10160   */\n      add\n        /* \"#utility.yul\":10134:10160   */\n      swap1\n      pop\n        /* \"#utility.yul\":10206:10215   */\n      dup2\n        /* \"#utility.yul\":10200:10204   */\n      dup2\n        /* \"#utility.yul\":10196:10216   */\n      sub\n        /* \"#utility.yul\":10192:10193   */\n      0x00\n        /* \"#utility.yul\":10181:10190   */\n      dup4\n        /* \"#utility.yul\":10177:10194   */\n      add\n        /* \"#utility.yul\":10170:10217   */\n      mstore\n        /* \"#utility.yul\":10234:10365   */\n      tag_260\n        /* \"#utility.yul\":10360:10364   */\n      dup2\n        /* \"#utility.yul\":10234:10365   */\n      tag_196\n      jump\t// in\n    tag_260:\n        /* \"#utility.yul\":10226:10365   */\n      swap1\n      pop\n        /* \"#utility.yul\":9953:10372   */\n      swap2\n      swap1\n      pop\n      jump\t// out\n        /* \"#utility.yul\":10378:10797   */\n    tag_80:\n        /* \"#utility.yul\":10544:10548   */\n      0x00\n        /* \"#utility.yul\":10582:10584   */\n      0x20\n        /* \"#utility.yul\":10571:10580   */\n      dup3\n        /* \"#utility.yul\":10567:10585   */\n      add\n        /* \"#utility.yul\":10559:10585   */\n      swap1\n      pop\n        /* \"#utility.yul\":10631:10640   */\n      dup2\n        /* \"#utility.yul\":10625:10629   */\n      dup2\n        /* \"#utility.yul\":10621:10641   */\n      sub\n        /* \"#utility.yul\":10617:10618   */\n      0x00\n        /* \"#utility.yul\":10606:10615   */\n      dup4\n        /* \"#utility.yul\":10602:10619   */\n      add\n        /* \"#utility.yul\":10595:10642   */\n      mstore\n        /* \"#utility.yul\":10659:10790   */\n      tag_262\n        /* \"#utility.yul\":10785:10789   */\n      dup2\n        /* \"#utility.yul\":10659:10790   */\n      tag_201\n      jump\t// in\n    tag_262:\n        /* \"#utility.yul\":10651:10790   */\n      swap1\n      pop\n        /* \"#utility.yul\":10378:10797   */\n      swap2\n      swap1\n      pop\n      jump\t// out\n        /* \"#utility.yul\":10803:11222   */\n    tag_83:\n        /* \"#utility.yul\":10969:10973   */\n      0x00\n        /* \"#utility.yul\":11007:11009   */\n      0x20\n        /* \"#utility.yul\":10996:11005   */\n      dup3\n        /* \"#utility.yul\":10992:11010   */\n      add\n        /* \"#utility.yul\":10984:11010   */\n      swap1\n      pop\n        /* \"#utility.yul\":11056:11065   */\n      dup2\n        /* \"#utility.yul\":11050:11054   */\n      dup2\n        /* \"#utility.yul\":11046:11066   */\n      sub\n        /* \"#utility.yul\":11042:11043   */\n      0x00\n        /* \"#utility.yul\":11031:11040   */\n      dup4\n        /* \"#utility.yul\":11027:11044   */\n      add\n        /* \"#utility.yul\":11020:11067   */\n      mstore\n        /* \"#utility.yul\":11084:11215   */\n      tag_264\n        /* \"#utility.yul\":11210:11214   */\n      dup2\n        /* \"#utility.yul\":11084:11215   */\n      tag_206\n      jump\t// in\n    tag_264:\n        /* \"#utility.yul\":11076:11215   */\n      swap1\n      pop\n        /* \"#utility.yul\":10803:11222   */\n      swap2\n      swap1\n      pop\n      jump\t// out\n        /* \"#utility.yul\":11228:11647   */\n    tag_93:\n        /* \"#utility.yul\":11394:11398   */\n      0x00\n        /* \"#utility.yul\":11432:11434   */\n      0x20\n        /* \"#utility.yul\":11421:11430   */\n      dup3\n        /* \"#utility.yul\":11417:11435   */\n      add\n        /* \"#utility.yul\":11409:11435   */\n      swap1\n      pop\n        /* \"#utility.yul\":11481:11490   */\n      dup2\n        /* \"#utility.yul\":11475:11479   */\n      dup2\n        /* \"#utility.yul\":11471:11491   */\n      sub\n        /* \"#utility.yul\":11467:11468   */\n      0x00\n        /* \"#utility.yul\":11456:11465   */\n      dup4\n        /* \"#utility.yul\":11452:11469   */\n      add\n        /* \"#utility.yul\":11445:11492   */\n      mstore\n        /* \"#utility.yul\":11509:11640   */\n      tag_266\n        /* \"#utility.yul\":11635:11639   */\n      dup2\n        /* \"#utility.yul\":11509:11640   */\n      tag_211\n      jump\t// in\n    tag_266:\n        /* \"#utility.yul\":11501:11640   */\n      swap1\n      pop\n        /* \"#utility.yul\":11228:11647   */\n      swap2\n      swap1\n      pop\n      jump\t// out\n        /* \"#utility.yul\":11653:12072   */\n    tag_76:\n        /* \"#utility.yul\":11819:11823   */\n      0x00\n        /* \"#utility.yul\":11857:11859   */\n      0x20\n        /* \"#utility.yul\":11846:11855   */\n      dup3\n        /* \"#utility.yul\":11842:11860   */\n      add\n        /* \"#utility.yul\":11834:11860   */\n      swap1\n      pop\n        /* \"#utility.yul\":11906:11915   */\n      dup2\n        /* \"#utility.yul\":11900:11904   */\n      dup2\n        /* \"#utility.yul\":11896:11916   */\n      sub\n        /* \"#utility.yul\":11892:11893   */\n      0x00\n        /* \"#utility.yul\":11881:11890   */\n      dup4\n        /* \"#utility.yul\":11877:11894   */\n      add\n        /* \"#utility.yul\":11870:11917   */\n      mstore\n        /* \"#utility.yul\":11934:12065   */\n      tag_268\n        /* \"#utility.yul\":12060:12064   */\n      dup2\n        /* \"#utility.yul\":11934:12065   */\n      tag_216\n      jump\t// in\n    tag_268:\n        /* \"#utility.yul\":11926:12065   */\n      swap1\n      pop\n        /* \"#utility.yul\":11653:12072   */\n      swap2\n      swap1\n      pop\n      jump\t// out\n        /* \"#utility.yul\":12078:12497   */\n    tag_90:\n        /* \"#utility.yul\":12244:12248   */\n      0x00\n        /* \"#utility.yul\":12282:12284   */\n      0x20\n        /* \"#utility.yul\":12271:12280   */\n      dup3\n        /* \"#utility.yul\":12267:12285   */\n      add\n        /* \"#utility.yul\":12259:12285   */\n      swap1\n      pop\n        /* \"#utility.yul\":12331:12340   */\n      dup2\n        /* \"#utility.yul\":12325:12329   */\n      dup2\n        /* \"#utility.yul\":12321:12341   */\n      sub\n        /* \"#utility.yul\":12317:12318   */\n      0x00\n        /* \"#utility.yul\":12306:12315   */\n      dup4\n        /* \"#utility.yul\":12302:12319   */\n      add\n        /* \"#utility.yul\":12295:12342   */\n      mstore\n        /* \"#utility.yul\":12359:12490   */\n      tag_270\n        /* \"#utility.yul\":12485:12489   */\n      dup2\n        /* \"#utility.yul\":12359:12490   */\n      tag_221\n      jump\t// in\n    tag_270:\n        /* \"#utility.yul\":12351:12490   */\n      swap1\n      pop\n        /* \"#utility.yul\":12078:12497   */\n      swap2\n      swap1\n      pop\n      jump\t// out\n        /* \"#utility.yul\":12503:12922   */\n    tag_65:\n        /* \"#utility.yul\":12669:12673   */\n      0x00\n        /* \"#utility.yul\":12707:12709   */\n      0x20\n        /* \"#utility.yul\":12696:12705   */\n      dup3\n        /* \"#utility.yul\":12692:12710   */\n      add\n        /* \"#utility.yul\":12684:12710   */\n      swap1\n      pop\n        /* \"#utility.yul\":12756:12765   */\n      dup2\n        /* \"#utility.yul\":12750:12754   */\n      dup2\n        /* \"#utility.yul\":12746:12766   */\n      sub\n        /* \"#utility.yul\":12742:12743   */\n      0x00\n        /* \"#utility.yul\":12731:12740   */\n      dup4\n        /* \"#utility.yul\":12727:12744   */\n      add\n        /* \"#utility.yul\":12720:12767   */\n      mstore\n        /* \"#utility.yul\":12784:12915   */\n      tag_272\n        /* \"#utility.yul\":12910:12914   */\n      dup2\n        /* \"#utility.yul\":12784:12915   */\n      tag_226\n      jump\t// in\n    tag_272:\n        /* \"#utility.yul\":12776:12915   */\n      swap1\n      pop\n        /* \"#utility.yul\":12503:12922   */\n      swap2\n      swap1\n      pop\n      jump\t// out\n        /* \"#utility.yul\":12928:13347   */\n    tag_73:\n        /* \"#utility.yul\":13094:13098   */\n      0x00\n        /* \"#utility.yul\":13132:13134   */\n      0x20\n        /* \"#utility.yul\":13121:13130   */\n      dup3\n        /* \"#utility.yul\":13117:13135   */\n      add\n        /* \"#utility.yul\":13109:13135   */\n      swap1\n      pop\n        /* \"#utility.yul\":13181:13190   */\n      dup2\n        /* \"#utility.yul\":13175:13179   */\n      dup2\n        /* \"#utility.yul\":13171:13191   */\n      sub\n        /* \"#utility.yul\":13167:13168   */\n      0x00\n        /* \"#utility.yul\":13156:13165   */\n      dup4\n        /* \"#utility.yul\":13152:13169   */\n      add\n        /* \"#utility.yul\":13145:13192   */\n      mstore\n        /* \"#utility.yul\":13209:13340   */\n      tag_274\n        /* \"#utility.yul\":13335:13339   */\n      dup2\n        /* \"#utility.yul\":13209:13340   */\n      tag_231\n      jump\t// in\n    tag_274:\n        /* \"#utility.yul\":13201:13340   */\n      swap1\n      pop\n        /* \"#utility.yul\":12928:13347   */\n      swap2\n      swap1\n      pop\n      jump\t// out\n        /* \"#utility.yul\":13353:13772   */\n    tag_105:\n        /* \"#utility.yul\":13519:13523   */\n      0x00\n        /* \"#utility.yul\":13557:13559   */\n      0x20\n        /* \"#utility.yul\":13546:13555   */\n      dup3\n        /* \"#utility.yul\":13542:13560   */\n      add\n        /* \"#utility.yul\":13534:13560   */\n      swap1\n      pop\n        /* \"#utility.yul\":13606:13615   */\n      dup2\n        /* \"#utility.yul\":13600:13604   */\n      dup2\n        /* \"#utility.yul\":13596:13616   */\n      sub\n        /* \"#utility.yul\":13592:13593   */\n      0x00\n        /* \"#utility.yul\":13581:13590   */\n      dup4\n        /* \"#utility.yul\":13577:13594   */\n      add\n        /* \"#utility.yul\":13570:13617   */\n      mstore\n        /* \"#utility.yul\":13634:13765   */\n      tag_276\n        /* \"#utility.yul\":13760:13764   */\n      dup2\n        /* \"#utility.yul\":13634:13765   */\n      tag_236\n      jump\t// in\n    tag_276:\n        /* \"#utility.yul\":13626:13765   */\n      swap1\n      pop\n        /* \"#utility.yul\":13353:13772   */\n      swap2\n      swap1\n      pop\n      jump\t// out\n        /* \"#utility.yul\":13778:14197   */\n    tag_102:\n        /* \"#utility.yul\":13944:13948   */\n      0x00\n        /* \"#utility.yul\":13982:13984   */\n      0x20\n        /* \"#utility.yul\":13971:13980   */\n      dup3\n        /* \"#utility.yul\":13967:13985   */\n      add\n        /* \"#utility.yul\":13959:13985   */\n      swap1\n      pop\n        /* \"#utility.yul\":14031:14040   */\n      dup2\n        /* \"#utility.yul\":14025:14029   */\n      dup2\n        /* \"#utility.yul\":14021:14041   */\n      sub\n        /* \"#utility.yul\":14017:14018   */\n      0x00\n        /* \"#utility.yul\":14006:14015   */\n      dup4\n        /* \"#utility.yul\":14002:14019   */\n      add\n        /* \"#utility.yul\":13995:14042   */\n      mstore\n        /* \"#utility.yul\":14059:14190   */\n      tag_278\n        /* \"#utility.yul\":14185:14189   */\n      dup2\n        /* \"#utility.yul\":14059:14190   */\n      tag_241\n      jump\t// in\n    tag_278:\n        /* \"#utility.yul\":14051:14190   */\n      swap1\n      pop\n        /* \"#utility.yul\":13778:14197   */\n      swap2\n      swap1\n      pop\n      jump\t// out\n        /* \"#utility.yul\":14203:14425   */\n    tag_23:\n        /* \"#utility.yul\":14296:14300   */\n      0x00\n        /* \"#utility.yul\":14334:14336   */\n      0x20\n        /* \"#utility.yul\":14323:14332   */\n      dup3\n        /* \"#utility.yul\":14319:14337   */\n      add\n        /* \"#utility.yul\":14311:14337   */\n      swap1\n      pop\n        /* \"#utility.yul\":14347:14418   */\n      tag_280\n        /* \"#utility.yul\":14415:14416   */\n      0x00\n        /* \"#utility.yul\":14404:14413   */\n      dup4\n        /* \"#utility.yul\":14400:14417   */\n      add\n        /* \"#utility.yul\":14391:14397   */\n      dup5\n        /* \"#utility.yul\":14347:14418   */\n      tag_246\n      jump\t// in\n    tag_280:\n        /* \"#utility.yul\":14203:14425   */\n      swap3\n      swap2\n      pop\n      pop\n      jump\t// out\n        /* \"#utility.yul\":14431:14560   */\n    tag_126:\n        /* \"#utility.yul\":14465:14471   */\n      0x00\n        /* \"#utility.yul\":14492:14512   */\n      tag_282\n      tag_283\n      jump\t// in\n    tag_282:\n        /* \"#utility.yul\":14482:14512   */\n      swap1\n      pop\n        /* \"#utility.yul\":14521:14554   */\n      tag_284\n        /* \"#utility.yul\":14549:14553   */\n      dup3\n        /* \"#utility.yul\":14541:14547   */\n      dup3\n        /* \"#utility.yul\":14521:14554   */\n      tag_285\n      jump\t// in\n    tag_284:\n        /* \"#utility.yul\":14431:14560   */\n      swap2\n      swap1\n      pop\n      jump\t// out\n        /* \"#utility.yul\":14566:14641   */\n    tag_283:\n        /* \"#utility.yul\":14599:14605   */\n      0x00\n        /* \"#utility.yul\":14632:14634   */\n      0x40\n        /* \"#utility.yul\":14626:14635   */\n      mload\n        /* \"#utility.yul\":14616:14635   */\n      swap1\n      pop\n        /* \"#utility.yul\":14566:14641   */\n      swap1\n      jump\t// out\n        /* \"#utility.yul\":14647:14955   */\n    tag_125:\n        /* \"#utility.yul\":14709:14713   */\n      0x00\n        /* \"#utility.yul\":14799:14817   */\n      0xffffffffffffffff\n        /* \"#utility.yul\":14791:14797   */\n      dup3\n        /* \"#utility.yul\":14788:14818   */\n      gt\n        /* \"#utility.yul\":14785:14841   */\n      iszero\n      tag_288\n      jumpi\n        /* \"#utility.yul\":14821:14839   */\n      tag_289\n      tag_290\n      jump\t// in\n    tag_289:\n        /* \"#utility.yul\":14785:14841   */\n    tag_288:\n        /* \"#utility.yul\":14859:14888   */\n      tag_291\n        /* \"#utility.yul\":14881:14887   */\n      dup3\n        /* \"#utility.yul\":14859:14888   */\n      tag_190\n      jump\t// in\n    tag_291:\n        /* \"#utility.yul\":14851:14888   */\n      swap1\n      pop\n        /* \"#utility.yul\":14943:14947   */\n      0x20\n        /* \"#utility.yul\":14937:14941   */\n      dup2\n        /* \"#utility.yul\":14933:14948   */\n      add\n        /* \"#utility.yul\":14925:14948   */\n      swap1\n      pop\n        /* \"#utility.yul\":14647:14955   */\n      swap2\n      swap1\n      pop\n      jump\t// out\n        /* \"#utility.yul\":14961:15060   */\n    tag_184:\n        /* \"#utility.yul\":15013:15019   */\n      0x00\n        /* \"#utility.yul\":15047:15052   */\n      dup2\n        /* \"#utility.yul\":15041:15053   */\n      mload\n        /* \"#utility.yul\":15031:15053   */\n      swap1\n      pop\n        /* \"#utility.yul\":14961:15060   */\n      swap2\n      swap1\n      pop\n      jump\t// out\n        /* \"#utility.yul\":15066:15235   */\n    tag_186:\n        /* \"#utility.yul\":15150:15161   */\n      0x00\n        /* \"#utility.yul\":15184:15190   */\n      dup3\n        /* \"#utility.yul\":15179:15182   */\n      dup3\n        /* \"#utility.yul\":15172:15191   */\n      mstore\n        /* \"#utility.yul\":15224:15228   */\n      0x20\n        /* \"#utility.yul\":15219:15222   */\n      dup3\n        /* \"#utility.yul\":15215:15229   */\n      add\n        /* \"#utility.yul\":15200:15229   */\n      swap1\n      pop\n        /* \"#utility.yul\":15066:15235   */\n      swap3\n      swap2\n      pop\n      pop\n      jump\t// out\n        /* \"#utility.yul\":15241:15546   */\n    tag_69:\n        /* \"#utility.yul\":15281:15284   */\n      0x00\n        /* \"#utility.yul\":15300:15320   */\n      tag_295\n        /* \"#utility.yul\":15318:15319   */\n      dup3\n        /* \"#utility.yul\":15300:15320   */\n      tag_249\n      jump\t// in\n    tag_295:\n        /* \"#utility.yul\":15295:15320   */\n      swap2\n      pop\n        /* \"#utility.yul\":15334:15354   */\n      tag_296\n        /* \"#utility.yul\":15352:15353   */\n      dup4\n        /* \"#utility.yul\":15334:15354   */\n      tag_249\n      jump\t// in\n    tag_296:\n        /* \"#utility.yul\":15329:15354   */\n      swap3\n      pop\n        /* \"#utility.yul\":15488:15489   */\n      dup3\n        /* \"#utility.yul\":15420:15486   */\n      0xffffffffffffffffffffffffffffffffffffffffffffffffffffffffffffffff\n        /* \"#utility.yul\":15416:15490   */\n      sub\n        /* \"#utility.yul\":15413:15414   */\n      dup3\n        /* \"#utility.yul\":15410:15491   */\n      gt\n        /* \"#utility.yul\":15407:15514   */\n      iszero\n      tag_297\n      jumpi\n        /* \"#utility.yul\":15494:15512   */\n      tag_298\n      tag_299\n      jump\t// in\n    tag_298:\n        /* \"#utility.yul\":15407:15514   */\n    tag_297:\n        /* \"#utility.yul\":15538:15539   */\n      dup3\n        /* \"#utility.yul\":15535:15536   */\n      dup3\n        /* \"#utility.yul\":15531:15540   */\n      add\n        /* \"#utility.yul\":15524:15540   */\n      swap1\n      pop\n        /* \"#utility.yul\":15241:15546   */\n      swap3\n      swap2\n      pop\n      pop\n      jump\t// out\n        /* \"#utility.yul\":15552:15900   */\n    tag_59:\n        /* \"#utility.yul\":15592:15599   */\n      0x00\n        /* \"#utility.yul\":15615:15635   */\n      tag_301\n        /* \"#utility.yul\":15633:15634   */\n      dup3\n        /* \"#utility.yul\":15615:15635   */\n      tag_249\n      jump\t// in\n    tag_301:\n        /* \"#utility.yul\":15610:15635   */\n      swap2\n      pop\n        /* \"#utility.yul\":15649:15669   */\n      tag_302\n        /* \"#utility.yul\":15667:15668   */\n      dup4\n        /* \"#utility.yul\":15649:15669   */\n      tag_249\n      jump\t// in\n    tag_302:\n        /* \"#utility.yul\":15644:15669   */\n      swap3\n      pop\n        /* \"#utility.yul\":15837:15838   */\n      dup2\n        /* \"#utility.yul\":15769:15835   */\n      0xffffffffffffffffffffffffffffffffffffffffffffffffffffffffffffffff\n        /* \"#utility.yul\":15765:15839   */\n      div\n        /* \"#utility.yul\":15762:15763   */\n      dup4\n        /* \"#utility.yul\":15759:15840   */\n      gt\n        /* \"#utility.yul\":15754:15755   */\n      dup3\n        /* \"#utility.yul\":15747:15756   */\n      iszero\n        /* \"#utility.yul\":15740:15757   */\n      iszero\n        /* \"#utility.yul\":15736:15841   */\n      and\n        /* \"#utility.yul\":15733:15864   */\n      iszero\n      tag_303\n      jumpi\n        /* \"#utility.yul\":15844:15862   */\n      tag_304\n      tag_299\n      jump\t// in\n    tag_304:\n        /* \"#utility.yul\":15733:15864   */\n    tag_303:\n        /* \"#utility.yul\":15892:15893   */\n      dup3\n        /* \"#utility.yul\":15889:15890   */\n      dup3\n        /* \"#utility.yul\":15885:15894   */\n      mul\n        /* \"#utility.yul\":15874:15894   */\n      swap1\n      pop\n        /* \"#utility.yul\":15552:15900   */\n      swap3\n      swap2\n      pop\n      pop\n      jump\t// out\n        /* \"#utility.yul\":15906:16097   */\n    tag_67:\n        /* \"#utility.yul\":15946:15950   */\n      0x00\n        /* \"#utility.yul\":15966:15986   */\n      tag_306\n        /* \"#utility.yul\":15984:15985   */\n      dup3\n        /* \"#utility.yul\":15966:15986   */\n      tag_249\n      jump\t// in\n    tag_306:\n        /* \"#utility.yul\":15961:15986   */\n      swap2\n      pop\n        /* \"#utility.yul\":16000:16020   */\n      tag_307\n        /* \"#utility.yul\":16018:16019   */\n      dup4\n        /* \"#utility.yul\":16000:16020   */\n      tag_249\n      jump\t// in\n    tag_307:\n        /* \"#utility.yul\":15995:16020   */\n      swap3\n      pop\n        /* \"#utility.yul\":16039:16040   */\n      dup3\n        /* \"#utility.yul\":16036:16037   */\n      dup3\n        /* \"#utility.yul\":16033:16041   */\n      lt\n        /* \"#utility.yul\":16030:16064   */\n      iszero\n      tag_308\n      jumpi\n        /* \"#utility.yul\":16044:16062   */\n      tag_309\n      tag_299\n      jump\t// in\n    tag_309:\n        /* \"#utility.yul\":16030:16064   */\n    tag_308:\n        /* \"#utility.yul\":16089:16090   */\n      dup3\n        /* \"#utility.yul\":16086:16087   */\n      dup3\n        /* \"#utility.yul\":16082:16091   */\n      sub\n        /* \"#utility.yul\":16074:16091   */\n      swap1\n      pop\n        /* \"#utility.yul\":15906:16097   */\n      swap3\n      swap2\n      pop\n      pop\n      jump\t// out\n        /* \"#utility.yul\":16103:16199   */\n    tag_180:\n        /* \"#utility.yul\":16140:16147   */\n      0x00\n        /* \"#utility.yul\":16169:16193   */\n      tag_311\n        /* \"#utility.yul\":16187:16192   */\n      dup3\n        /* \"#utility.yul\":16169:16193   */\n      tag_312\n      jump\t// in\n    tag_311:\n        /* \"#utility.yul\":16158:16193   */\n      swap1\n      pop\n        /* \"#utility.yul\":16103:16199   */\n      swap2\n      swap1\n      pop\n      jump\t// out\n        /* \"#utility.yul\":16205:16331   */\n    tag_312:\n        /* \"#utility.yul\":16242:16249   */\n      0x00\n        /* \"#utility.yul\":16282:16324   */\n      0xffffffffffffffffffffffffffffffffffffffff\n        /* \"#utility.yul\":16275:16280   */\n      dup3\n        /* \"#utility.yul\":16271:16325   */\n      and\n        /* \"#utility.yul\":16260:16325   */\n      swap1\n      pop\n        /* \"#utility.yul\":16205:16331   */\n      swap2\n      swap1\n      pop\n      jump\t// out\n        /* \"#utility.yul\":16337:16414   */\n    tag_249:\n        /* \"#utility.yul\":16374:16381   */\n      0x00\n        /* \"#utility.yul\":16403:16408   */\n      dup2\n        /* \"#utility.yul\":16392:16408   */\n      swap1\n      pop\n        /* \"#utility.yul\":16337:16414   */\n      swap2\n      swap1\n      pop\n      jump\t// out\n        /* \"#utility.yul\":16420:16574   */\n    tag_131:\n        /* \"#utility.yul\":16504:16510   */\n      dup3\n        /* \"#utility.yul\":16499:16502   */\n      dup2\n        /* \"#utility.yul\":16494:16497   */\n      dup4\n        /* \"#utility.yul\":16481:16511   */\n      calldatacopy\n        /* \"#utility.yul\":16566:16567   */\n      0x00\n        /* \"#utility.yul\":16557:16563   */\n      dup4\n        /* \"#utility.yul\":16552:16555   */\n      dup4\n        /* \"#utility.yul\":16548:16564   */\n      add\n        /* \"#utility.yul\":16541:16568   */\n      mstore\n        /* \"#utility.yul\":16420:16574   */\n      pop\n      pop\n      pop\n      jump\t// out\n        /* \"#utility.yul\":16580:16887   */\n    tag_188:\n        /* \"#utility.yul\":16648:16649   */\n      0x00\n        /* \"#utility.yul\":16658:16771   */\n    tag_317:\n        /* \"#utility.yul\":16672:16678   */\n      dup4\n        /* \"#utility.yul\":16669:16670   */\n      dup2\n        /* \"#utility.yul\":16666:16679   */\n      lt\n        /* \"#utility.yul\":16658:16771   */\n      iszero\n      tag_319\n      jumpi\n        /* \"#utility.yul\":16757:16758   */\n      dup1\n        /* \"#utility.yul\":16752:16755   */\n      dup3\n        /* \"#utility.yul\":16748:16759   */\n      add\n        /* \"#utility.yul\":16742:16760   */\n      mload\n        /* \"#utility.yul\":16738:16739   */\n      dup2\n        /* \"#utility.yul\":16733:16736   */\n      dup5\n        /* \"#utility.yul\":16729:16740   */\n      add\n        /* \"#utility.yul\":16722:16761   */\n      mstore\n        /* \"#utility.yul\":16694:16696   */\n      0x20\n        /* \"#utility.yul\":16691:16692   */\n      dup2\n        /* \"#utility.yul\":16687:16697   */\n      add\n        /* \"#utility.yul\":16682:16697   */\n      swap1\n      pop\n        /* \"#utility.yul\":16658:16771   */\n      jump(tag_317)\n    tag_319:\n        /* \"#utility.yul\":16789:16795   */\n      dup4\n        /* \"#utility.yul\":16786:16787   */\n      dup2\n        /* \"#utility.yul\":16783:16796   */\n      gt\n        /* \"#utility.yul\":16780:16881   */\n      iszero\n      tag_320\n      jumpi\n        /* \"#utility.yul\":16869:16870   */\n      0x00\n        /* \"#utility.yul\":16860:16866   */\n      dup5\n        /* \"#utility.yul\":16855:16858   */\n      dup5\n        /* \"#utility.yul\":16851:16867   */\n      add\n        /* \"#utility.yul\":16844:16871   */\n      mstore\n        /* \"#utility.yul\":16780:16881   */\n    tag_320:\n        /* \"#utility.yul\":16629:16887   */\n      pop\n        /* \"#utility.yul\":16580:16887   */\n      pop\n      pop\n      pop\n      jump\t// out\n        /* \"#utility.yul\":16893:17213   */\n    tag_52:\n        /* \"#utility.yul\":16937:16943   */\n      0x00\n        /* \"#utility.yul\":16974:16975   */\n      0x02\n        /* \"#utility.yul\":16968:16972   */\n      dup3\n        /* \"#utility.yul\":16964:16976   */\n      div\n        /* \"#utility.yul\":16954:16976   */\n      swap1\n      pop\n        /* \"#utility.yul\":17021:17022   */\n      0x01\n        /* \"#utility.yul\":17015:17019   */\n      dup3\n        /* \"#utility.yul\":17011:17023   */\n      and\n        /* \"#utility.yul\":17042:17060   */\n      dup1\n        /* \"#utility.yul\":17032:17113   */\n      tag_322\n      jumpi\n        /* \"#utility.yul\":17098:17102   */\n      0x7f\n        /* \"#utility.yul\":17090:17096   */\n      dup3\n        /* \"#utility.yul\":17086:17103   */\n      and\n        /* \"#utility.yul\":17076:17103   */\n      swap2\n      pop\n        /* \"#utility.yul\":17032:17113   */\n    tag_322:\n        /* \"#utility.yul\":17160:17162   */\n      0x20\n        /* \"#utility.yul\":17152:17158   */\n      dup3\n        /* \"#utility.yul\":17149:17163   */\n      lt\n        /* \"#utility.yul\":17129:17147   */\n      dup2\n        /* \"#utility.yul\":17126:17164   */\n      eq\n        /* \"#utility.yul\":17123:17207   */\n      iszero\n      tag_323\n      jumpi\n        /* \"#utility.yul\":17179:17197   */\n      tag_324\n      tag_325\n      jump\t// in\n    tag_324:\n        /* \"#utility.yul\":17123:17207   */\n    tag_323:\n        /* \"#utility.yul\":16944:17213   */\n      pop\n        /* \"#utility.yul\":16893:17213   */\n      swap2\n      swap1\n      pop\n      jump\t// out\n        /* \"#utility.yul\":17219:17500   */\n    tag_285:\n        /* \"#utility.yul\":17302:17329   */\n      tag_327\n        /* \"#utility.yul\":17324:17328   */\n      dup3\n        /* \"#utility.yul\":17302:17329   */\n      tag_190\n      jump\t// in\n    tag_327:\n        /* \"#utility.yul\":17294:17300   */\n      dup2\n        /* \"#utility.yul\":17290:17330   */\n      add\n        /* \"#utility.yul\":17432:17438   */\n      dup2\n        /* \"#utility.yul\":17420:17430   */\n      dup2\n        /* \"#utility.yul\":17417:17439   */\n      lt\n        /* \"#utility.yul\":17396:17414   */\n      0xffffffffffffffff\n        /* \"#utility.yul\":17384:17394   */\n      dup3\n        /* \"#utility.yul\":17381:17415   */\n      gt\n        /* \"#utility.yul\":17378:17440   */\n      or\n        /* \"#utility.yul\":17375:17463   */\n      iszero\n      tag_328\n      jumpi\n        /* \"#utility.yul\":17443:17461   */\n      tag_329\n      tag_290\n      jump\t// in\n    tag_329:\n        /* \"#utility.yul\":17375:17463   */\n    tag_328:\n        /* \"#utility.yul\":17483:17493   */\n      dup1\n        /* \"#utility.yul\":17479:17481   */\n      0x40\n        /* \"#utility.yul\":17472:17494   */\n      mstore\n        /* \"#utility.yul\":17262:17500   */\n      pop\n        /* \"#utility.yul\":17219:17500   */\n      pop\n      pop\n      jump\t// out\n        /* \"#utility.yul\":17506:17739   */\n    tag_109:\n        /* \"#utility.yul\":17545:17548   */\n      0x00\n        /* \"#utility.yul\":17568:17592   */\n      tag_331\n        /* \"#utility.yul\":17586:17591   */\n      dup3\n        /* \"#utility.yul\":17568:17592   */\n      tag_249\n      jump\t// in\n    tag_331:\n        /* \"#utility.yul\":17559:17592   */\n      swap2\n      pop\n        /* \"#utility.yul\":17614:17680   */\n      0xffffffffffffffffffffffffffffffffffffffffffffffffffffffffffffffff\n        /* \"#utility.yul\":17607:17612   */\n      dup3\n        /* \"#utility.yul\":17604:17681   */\n      eq\n        /* \"#utility.yul\":17601:17704   */\n      iszero\n      tag_332\n      jumpi\n        /* \"#utility.yul\":17684:17702   */\n      tag_333\n      tag_299\n      jump\t// in\n    tag_333:\n        /* \"#utility.yul\":17601:17704   */\n    tag_332:\n        /* \"#utility.yul\":17731:17732   */\n      0x01\n        /* \"#utility.yul\":17724:17729   */\n      dup3\n        /* \"#utility.yul\":17720:17733   */\n      add\n        /* \"#utility.yul\":17713:17733   */\n      swap1\n      pop\n        /* \"#utility.yul\":17506:17739   */\n      swap2\n      swap1\n      pop\n      jump\t// out\n        /* \"#utility.yul\":17745:17925   */\n    tag_299:\n        /* \"#utility.yul\":17793:17870   */\n      0x4e487b7100000000000000000000000000000000000000000000000000000000\n        /* \"#utility.yul\":17790:17791   */\n      0x00\n        /* \"#utility.yul\":17783:17871   */\n      mstore\n        /* \"#utility.yul\":17890:17894   */\n      0x11\n        /* \"#utility.yul\":17887:17888   */\n      0x04\n        /* \"#utility.yul\":17880:17895   */\n      mstore\n        /* \"#utility.yul\":17914:17918   */\n      0x24\n        /* \"#utility.yul\":17911:17912   */\n      0x00\n        /* \"#utility.yul\":17904:17919   */\n      revert\n        /* \"#utility.yul\":17931:18111   */\n    tag_325:\n        /* \"#utility.yul\":17979:18056   */\n      0x4e487b7100000000000000000000000000000000000000000000000000000000\n        /* \"#utility.yul\":17976:17977   */\n      0x00\n        /* \"#utility.yul\":17969:18057   */\n      mstore\n        /* \"#utility.yul\":18076:18080   */\n      0x22\n        /* \"#utility.yul\":18073:18074   */\n      0x04\n        /* \"#utility.yul\":18066:18081   */\n      mstore\n        /* \"#utility.yul\":18100:18104   */\n      0x24\n        /* \"#utility.yul\":18097:18098   */\n      0x00\n        /* \"#utility.yul\":18090:18105   */\n      revert\n        /* \"#utility.yul\":18117:18297   */\n    tag_290:\n        /* \"#utility.yul\":18165:18242   */\n      0x4e487b7100000000000000000000000000000000000000000000000000000000\n        /* \"#utility.yul\":18162:18163   */\n      0x00\n        /* \"#utility.yul\":18155:18243   */\n      mstore\n        /* \"#utility.yul\":18262:18266   */\n      0x41\n        /* \"#utility.yul\":18259:18260   */\n      0x04\n        /* \"#utility.yul\":18252:18267   */\n      mstore\n        /* \"#utility.yul\":18286:18290   */\n      0x24\n        /* \"#utility.yul\":18283:18284   */\n      0x00\n        /* \"#utility.yul\":18276:18291   */\n      revert\n        /* \"#utility.yul\":18303:18420   */\n    tag_140:\n        /* \"#utility.yul\":18412:18413   */\n      0x00\n        /* \"#utility.yul\":18409:18410   */\n      dup1\n        /* \"#utility.yul\":18402:18414   */\n      revert\n        /* \"#utility.yul\":18426:18543   */\n    tag_129:\n        /* \"#utility.yul\":18535:18536   */\n      0x00\n        /* \"#utility.yul\":18532:18533   */\n      dup1\n        /* \"#utility.yul\":18525:18537   */\n      revert\n        /* \"#utility.yul\":18549:18666   */\n    tag_162:\n        /* \"#utility.yul\":18658:18659   */\n      0x00\n        /* \"#utility.yul\":18655:18656   */\n      dup1\n        /* \"#utility.yul\":18648:18660   */\n      revert\n        /* \"#utility.yul\":18672:18789   */\n    tag_149:\n        /* \"#utility.yul\":18781:18782   */\n      0x00\n        /* \"#utility.yul\":18778:18779   */\n      dup1\n        /* \"#utility.yul\":18771:18783   */\n      revert\n        /* \"#utility.yul\":18795:18897   */\n    tag_190:\n        /* \"#utility.yul\":18836:18842   */\n      0x00\n        /* \"#utility.yul\":18887:18889   */\n      0x1f\n        /* \"#utility.yul\":18883:18890   */\n      not\n        /* \"#utility.yul\":18878:18880   */\n      0x1f\n        /* \"#utility.yul\":18871:18876   */\n      dup4\n        /* \"#utility.yul\":18867:18881   */\n      add\n        /* \"#utility.yul\":18863:18891   */\n      and\n        /* \"#utility.yul\":18853:18891   */\n      swap1\n      pop\n        /* \"#utility.yul\":18795:18897   */\n      swap2\n      swap1\n      pop\n      jump\t// out\n        /* \"#utility.yul\":18903:19074   */\n    tag_195:\n        /* \"#utility.yul\":19043:19066   */\n      0x457468657273206973206e6f7420656e6f756768210000000000000000000000\n        /* \"#utility.yul\":19039:19040   */\n      0x00\n        /* \"#utility.yul\":19031:19037   */\n      dup3\n        /* \"#utility.yul\":19027:19041   */\n      add\n        /* \"#utility.yul\":19020:19067   */\n      mstore\n        /* \"#utility.yul\":18903:19074   */\n      pop\n      jump\t// out\n        /* \"#utility.yul\":19080:19308   */\n    tag_200:\n        /* \"#utility.yul\":19220:19254   */\n      0x596f7520646f6e2774206861766520656e6f756768207469636b657420746f20\n        /* \"#utility.yul\":19216:19217   */\n      0x00\n        /* \"#utility.yul\":19208:19214   */\n      dup3\n        /* \"#utility.yul\":19204:19218   */\n      add\n        /* \"#utility.yul\":19197:19255   */\n      mstore\n        /* \"#utility.yul\":19289:19300   */\n      0x7472616e73666572210000000000000000000000000000000000000000000000\n        /* \"#utility.yul\":19284:19286   */\n      0x20\n        /* \"#utility.yul\":19276:19282   */\n      dup3\n        /* \"#utility.yul\":19272:19287   */\n      add\n        /* \"#utility.yul\":19265:19301   */\n      mstore\n        /* \"#utility.yul\":19080:19308   */\n      pop\n      jump\t// out\n        /* \"#utility.yul\":19314:19614   */\n    tag_205:\n        /* \"#utility.yul\":19454:19488   */\n      0x596f752063616e206e6f742072657475726e207469636b6574732c2069662065\n        /* \"#utility.yul\":19450:19451   */\n      0x00\n        /* \"#utility.yul\":19442:19448   */\n      dup3\n        /* \"#utility.yul\":19438:19452   */\n      add\n        /* \"#utility.yul\":19431:19489   */\n      mstore\n        /* \"#utility.yul\":19523:19557   */\n      0x76656e742063616e63656c207468656e20796f752063616e2077697468647261\n        /* \"#utility.yul\":19518:19520   */\n      0x20\n        /* \"#utility.yul\":19510:19516   */\n      dup3\n        /* \"#utility.yul\":19506:19521   */\n      add\n        /* \"#utility.yul\":19499:19558   */\n      mstore\n        /* \"#utility.yul\":19592:19606   */\n      0x7720796f7572206d6f6e65790000000000000000000000000000000000000000\n        /* \"#utility.yul\":19587:19589   */\n      0x40\n        /* \"#utility.yul\":19579:19585   */\n      dup3\n        /* \"#utility.yul\":19575:19590   */\n      add\n        /* \"#utility.yul\":19568:19607   */\n      mstore\n        /* \"#utility.yul\":19314:19614   */\n      pop\n      jump\t// out\n        /* \"#utility.yul\":19620:19801   */\n    tag_210:\n        /* \"#utility.yul\":19760:19793   */\n      0x596f7520616c726561647920776974686472617720796f7572206d6f6e657900\n        /* \"#utility.yul\":19756:19757   */\n      0x00\n        /* \"#utility.yul\":19748:19754   */\n      dup3\n        /* \"#utility.yul\":19744:19758   */\n      add\n        /* \"#utility.yul\":19737:19794   */\n      mstore\n        /* \"#utility.yul\":19620:19801   */\n      pop\n      jump\t// out\n        /* \"#utility.yul\":19807:19979   */\n    tag_215:\n        /* \"#utility.yul\":19947:19971   */\n      0x4576656e7420616c7265616479206f6363757265642100000000000000000000\n        /* \"#utility.yul\":19943:19944   */\n      0x00\n        /* \"#utility.yul\":19935:19941   */\n      dup3\n        /* \"#utility.yul\":19931:19945   */\n      add\n        /* \"#utility.yul\":19924:19972   */\n      mstore\n        /* \"#utility.yul\":19807:19979   */\n      pop\n      jump\t// out\n        /* \"#utility.yul\":19985:20164   */\n    tag_220:\n        /* \"#utility.yul\":20125:20156   */\n      0x596f752063616e206e6f742063616e63656c2074686973206576656e74000000\n        /* \"#utility.yul\":20121:20122   */\n      0x00\n        /* \"#utility.yul\":20113:20119   */\n      dup3\n        /* \"#utility.yul\":20109:20123   */\n      add\n        /* \"#utility.yul\":20102:20157   */\n      mstore\n        /* \"#utility.yul\":19985:20164   */\n      pop\n      jump\t// out\n        /* \"#utility.yul\":20170:20341   */\n    tag_225:\n        /* \"#utility.yul\":20310:20333   */\n      0x4576656e7420646f6573206e6f74206578697374210000000000000000000000\n        /* \"#utility.yul\":20306:20307   */\n      0x00\n        /* \"#utility.yul\":20298:20304   */\n      dup3\n        /* \"#utility.yul\":20294:20308   */\n      add\n        /* \"#utility.yul\":20287:20334   */\n      mstore\n        /* \"#utility.yul\":20170:20341   */\n      pop\n      jump\t// out\n        /* \"#utility.yul\":20347:20526   */\n    tag_230:\n        /* \"#utility.yul\":20487:20518   */\n      0x576520646f6e2774206861766520656e6f756768207469636b65747321000000\n        /* \"#utility.yul\":20483:20484   */\n      0x00\n        /* \"#utility.yul\":20475:20481   */\n      dup3\n        /* \"#utility.yul\":20471:20485   */\n      add\n        /* \"#utility.yul\":20464:20519   */\n      mstore\n        /* \"#utility.yul\":20347:20526   */\n      pop\n      jump\t// out\n        /* \"#utility.yul\":20532:20703   */\n    tag_235:\n        /* \"#utility.yul\":20672:20695   */\n      0x4576656e7420616c7265616479206f6363757265640000000000000000000000\n        /* \"#utility.yul\":20668:20669   */\n      0x00\n        /* \"#utility.yul\":20660:20666   */\n      dup3\n        /* \"#utility.yul\":20656:20670   */\n      add\n        /* \"#utility.yul\":20649:20696   */\n      mstore\n        /* \"#utility.yul\":20532:20703   */\n      pop\n      jump\t// out\n        /* \"#utility.yul\":20709:20929   */\n    tag_240:\n        /* \"#utility.yul\":20849:20883   */\n      0x4576656e74206d75737420686176652061746c656173742031207469636b6574\n        /* \"#utility.yul\":20845:20846   */\n      0x00\n        /* \"#utility.yul\":20837:20843   */\n      dup3\n        /* \"#utility.yul\":20833:20847   */\n      add\n        /* \"#utility.yul\":20826:20884   */\n      mstore\n        /* \"#utility.yul\":20918:20921   */\n      0x2100000000000000000000000000000000000000000000000000000000000000\n        /* \"#utility.yul\":20913:20915   */\n      0x20\n        /* \"#utility.yul\":20905:20911   */\n      dup3\n        /* \"#utility.yul\":20901:20916   */\n      add\n        /* \"#utility.yul\":20894:20922   */\n      mstore\n        /* \"#utility.yul\":20709:20929   */\n      pop\n      jump\t// out\n        /* \"#utility.yul\":20935:21156   */\n    tag_245:\n        /* \"#utility.yul\":21075:21109   */\n      0x596f752063616e206f7267616e697a65206576656e7420666f72206675747572\n        /* \"#utility.yul\":21071:21072   */\n      0x00\n        /* \"#utility.yul\":21063:21069   */\n      dup3\n        /* \"#utility.yul\":21059:21073   */\n      add\n        /* \"#utility.yul\":21052:21110   */\n      mstore\n        /* \"#utility.yul\":21144:21148   */\n      0x6521000000000000000000000000000000000000000000000000000000000000\n        /* \"#utility.yul\":21139:21141   */\n      0x20\n        /* \"#utility.yul\":21131:21137   */\n      dup3\n        /* \"#utility.yul\":21127:21142   */\n      add\n        /* \"#utility.yul\":21120:21149   */\n      mstore\n        /* \"#utility.yul\":20935:21156   */\n      pop\n      jump\t// out\n        /* \"#utility.yul\":21162:21284   */\n    tag_135:\n        /* \"#utility.yul\":21235:21259   */\n      tag_354\n        /* \"#utility.yul\":21253:21258   */\n      dup2\n        /* \"#utility.yul\":21235:21259   */\n      tag_180\n      jump\t// in\n    tag_354:\n        /* \"#utility.yul\":21228:21233   */\n      dup2\n        /* \"#utility.yul\":21225:21260   */\n      eq\n        /* \"#utility.yul\":21215:21278   */\n      tag_355\n      jumpi\n        /* \"#utility.yul\":21274:21275   */\n      0x00\n        /* \"#utility.yul\":21271:21272   */\n      dup1\n        /* \"#utility.yul\":21264:21276   */\n      revert\n        /* \"#utility.yul\":21215:21278   */\n    tag_355:\n        /* \"#utility.yul\":21162:21284   */\n      pop\n      jump\t// out\n        /* \"#utility.yul\":21290:21412   */\n    tag_145:\n        /* \"#utility.yul\":21363:21387   */\n      tag_357\n        /* \"#utility.yul\":21381:21386   */\n      dup2\n        /* \"#utility.yul\":21363:21387   */\n      tag_249\n      jump\t// in\n    tag_357:\n        /* \"#utility.yul\":21356:21361   */\n      dup2\n        /* \"#utility.yul\":21353:21388   */\n      eq\n        /* \"#utility.yul\":21343:21406   */\n      tag_358\n      jumpi\n        /* \"#utility.yul\":21402:21403   */\n      0x00\n        /* \"#utility.yul\":21399:21400   */\n      dup1\n        /* \"#utility.yul\":21392:21404   */\n      revert\n        /* \"#utility.yul\":21343:21406   */\n    tag_358:\n        /* \"#utility.yul\":21290:21412   */\n      pop\n      jump\t// out\n\n    auxdata: 0xa264697066735822122041f6c5d70924206db79b8469071149792a85ef33f0fa6d303863f64a18fc775e64736f6c63430008070033\n}\n",
				"bytecode": {
					"linkReferences": {},
					"object": "608060405234801561001057600080fd5b50611778806100206000396000f3fe60806040526004361061007b5760003560e01c8063b3cea2171161004e578063b3cea21714610137578063dae7a13c14610162578063f086a09b1461019f578063f93694fb146101c85761007b565b80630b79143014610080578063298ec208146100c25780633f69babd146100f2578063548769211461011b575b600080fd5b34801561008c57600080fd5b506100a760048036038101906100a29190610c63565b6101f1565b6040516100b996959493929190610f7e565b60405180910390f35b6100dc60048036038101906100d79190610d13565b6102d5565b6040516100e99190611146565b60405180910390f35b3480156100fe57600080fd5b5061011960048036038101906101149190610c63565b610414565b005b61013560048036038101906101309190610c63565b61052c565b005b34801561014357600080fd5b5061014c610727565b6040516101599190611146565b60405180910390f35b34801561016e57600080fd5b5061018960048036038101906101849190610c23565b61072d565b6040516101969190611146565b60405180910390f35b3480156101ab57600080fd5b506101c660048036038101906101c19190610d53565b610752565b005b3480156101d457600080fd5b506101ef60048036038101906101ea9190610c90565b61095d565b005b60006020528060005260406000206000915090508060000160009054906101000a900473ffffffffffffffffffffffffffffffffffffffff169080600101549080600201805461024090611335565b80601f016020809104026020016040519081016040528092919081815260200182805461026c90611335565b80156102b95780601f1061028e576101008083540402835291602001916102b9565b820191906000526020600020905b81548152906001019060200180831161029c57829003601f168201915b5050505050908060030154908060040154908060050154905086565b6000806000808481526020019081526020016000209050348482600301546102fd9190611229565b1461033d576040517f08c379a000000000000000000000000000000000000000000000000000000000815260040161033490610fe6565b60405180910390fd5b8381600501541015610384576040517f08c379a000000000000000000000000000000000000000000000000000000000815260040161037b906110c6565b60405180910390fd5b838160050160008282546103989190611283565b9250508190555083600160003373ffffffffffffffffffffffffffffffffffffffff1673ffffffffffffffffffffffffffffffffffffffff168152602001908152602001600020600085815260200190815260200160002060008282546103ff91906111d3565b92505081905550806001015491505092915050565b42600080838152602001908152602001600020600101541161046b576040517f08c379a0000000000000000000000000000000000000000000000000000000008152600401610462906110e6565b60405180910390fd5b3373ffffffffffffffffffffffffffffffffffffffff1660008083815260200190815260200160002060000160009054906101000a900473ffffffffffffffffffffffffffffffffffffffff1673ffffffffffffffffffffffffffffffffffffffff161461050e576040517f08c379a000000000000000000000000000000000000000000000000000000000815260040161050590611086565b60405180910390fd5b60008060008381526020019081526020016000206001018190555050565b60008060008381526020019081526020016000206001015414610584576040517f08c379a000000000000000000000000000000000000000000000000000000000815260040161057b90611026565b60405180910390fd5b6000600160003373ffffffffffffffffffffffffffffffffffffffff1673ffffffffffffffffffffffffffffffffffffffff16815260200190815260200160002060008381526020019081526020016000205411610617576040517f08c379a000000000000000000000000000000000000000000000000000000000815260040161060e90611046565b60405180910390fd5b3373ffffffffffffffffffffffffffffffffffffffff166108fc60008084815260200190815260200160002060030154600160003373ffffffffffffffffffffffffffffffffffffffff1673ffffffffffffffffffffffffffffffffffffffff1681526020019081526020016000206000858152602001908152602001600020546106a29190611229565b9081150290604051600060405180830381858888f193505050501580156106cd573d6000803e3d6000fd5b506000600160003373ffffffffffffffffffffffffffffffffffffffff1673ffffffffffffffffffffffffffffffffffffffff16815260200190815260200160002060008381526020019081526020016000208190555050565b60025481565b6001602052816000526040600020602052806000526040600020600091509150505481565b600080600084815260200190815260200160002090506000816001015414156107b0576040517f08c379a00000000000000000000000000000000000000000000000000000000081526004016107a7906110a6565b60405180910390fd5b428160010154116107f6576040517f08c379a00000000000000000000000000000000000000000000000000000000081526004016107ed90611066565b60405180910390fd5b83600160003373ffffffffffffffffffffffffffffffffffffffff1673ffffffffffffffffffffffffffffffffffffffff1681526020019081526020016000206000858152602001908152602001600020541015610889576040517f08c379a000000000000000000000000000000000000000000000000000000000815260040161088090611006565b60405180910390fd5b83600160003373ffffffffffffffffffffffffffffffffffffffff1673ffffffffffffffffffffffffffffffffffffffff168152602001908152602001600020600085815260200190815260200160002060008282546108e99190611283565b9250508190555083600160008473ffffffffffffffffffffffffffffffffffffffff1673ffffffffffffffffffffffffffffffffffffffff1681526020019081526020016000206000858152602001908152602001600020600082825461095091906111d3565b9250508190555050505050565b42841161099f576040517f08c379a000000000000000000000000000000000000000000000000000000000815260040161099690611126565b60405180910390fd5b600081116109e2576040517f08c379a00000000000000000000000000000000000000000000000000000000081526004016109d990611106565b60405180910390fd5b6040518060c001604052803373ffffffffffffffffffffffffffffffffffffffff16815260200185815260200184815260200183815260200182815260200182815250600080600254815260200190815260200160002060008201518160000160006101000a81548173ffffffffffffffffffffffffffffffffffffffff021916908373ffffffffffffffffffffffffffffffffffffffff160217905550602082015181600101556040820151816002019080519060200190610aa6929190610ae6565b50606082015181600301556080820151816004015560a0820151816005015590505060026000815480929190610adb90611398565b919050555050505050565b828054610af290611335565b90600052602060002090601f016020900481019282610b145760008555610b5b565b82601f10610b2d57805160ff1916838001178555610b5b565b82800160010185558215610b5b579182015b82811115610b5a578251825591602001919060010190610b3f565b5b509050610b689190610b6c565b5090565b5b80821115610b85576000816000905550600101610b6d565b5090565b6000610b9c610b9784611186565b611161565b905082815260208101848484011115610bb857610bb7611473565b5b610bc38482856112f3565b509392505050565b600081359050610bda81611714565b92915050565b600082601f830112610bf557610bf461146e565b5b8135610c05848260208601610b89565b91505092915050565b600081359050610c1d8161172b565b92915050565b60008060408385031215610c3a57610c3961147d565b5b6000610c4885828601610bcb565b9250506020610c5985828601610c0e565b9150509250929050565b600060208284031215610c7957610c7861147d565b5b6000610c8784828501610c0e565b91505092915050565b60008060008060808587031215610caa57610ca961147d565b5b6000610cb887828801610c0e565b945050602085013567ffffffffffffffff811115610cd957610cd8611478565b5b610ce587828801610be0565b9350506040610cf687828801610c0e565b9250506060610d0787828801610c0e565b91505092959194509250565b60008060408385031215610d2a57610d2961147d565b5b6000610d3885828601610c0e565b9250506020610d4985828601610c0e565b9150509250929050565b600080600060608486031215610d6c57610d6b61147d565b5b6000610d7a86828701610c0e565b9350506020610d8b86828701610c0e565b9250506040610d9c86828701610bcb565b9150509250925092565b610daf816112b7565b82525050565b6000610dc0826111b7565b610dca81856111c2565b9350610dda818560208601611302565b610de381611482565b840191505092915050565b6000610dfb6015836111c2565b9150610e0682611493565b602082019050919050565b6000610e1e6029836111c2565b9150610e29826114bc565b604082019050919050565b6000610e41604c836111c2565b9150610e4c8261150b565b606082019050919050565b6000610e64601f836111c2565b9150610e6f82611580565b602082019050919050565b6000610e876016836111c2565b9150610e92826115a9565b602082019050919050565b6000610eaa601d836111c2565b9150610eb5826115d2565b602082019050919050565b6000610ecd6015836111c2565b9150610ed8826115fb565b602082019050919050565b6000610ef0601d836111c2565b9150610efb82611624565b602082019050919050565b6000610f136015836111c2565b9150610f1e8261164d565b602082019050919050565b6000610f366021836111c2565b9150610f4182611676565b604082019050919050565b6000610f596022836111c2565b9150610f64826116c5565b604082019050919050565b610f78816112e9565b82525050565b600060c082019050610f936000830189610da6565b610fa06020830188610f6f565b8181036040830152610fb28187610db5565b9050610fc16060830186610f6f565b610fce6080830185610f6f565b610fdb60a0830184610f6f565b979650505050505050565b60006020820190508181036000830152610fff81610dee565b9050919050565b6000602082019050818103600083015261101f81610e11565b9050919050565b6000602082019050818103600083015261103f81610e34565b9050919050565b6000602082019050818103600083015261105f81610e57565b9050919050565b6000602082019050818103600083015261107f81610e7a565b9050919050565b6000602082019050818103600083015261109f81610e9d565b9050919050565b600060208201905081810360008301526110bf81610ec0565b9050919050565b600060208201905081810360008301526110df81610ee3565b9050919050565b600060208201905081810360008301526110ff81610f06565b9050919050565b6000602082019050818103600083015261111f81610f29565b9050919050565b6000602082019050818103600083015261113f81610f4c565b9050919050565b600060208201905061115b6000830184610f6f565b92915050565b600061116b61117c565b90506111778282611367565b919050565b6000604051905090565b600067ffffffffffffffff8211156111a1576111a061143f565b5b6111aa82611482565b9050602081019050919050565b600081519050919050565b600082825260208201905092915050565b60006111de826112e9565b91506111e9836112e9565b9250827fffffffffffffffffffffffffffffffffffffffffffffffffffffffffffffffff0382111561121e5761121d6113e1565b5b828201905092915050565b6000611234826112e9565b915061123f836112e9565b9250817fffffffffffffffffffffffffffffffffffffffffffffffffffffffffffffffff0483118215151615611278576112776113e1565b5b828202905092915050565b600061128e826112e9565b9150611299836112e9565b9250828210156112ac576112ab6113e1565b5b828203905092915050565b60006112c2826112c9565b9050919050565b600073ffffffffffffffffffffffffffffffffffffffff82169050919050565b6000819050919050565b82818337600083830152505050565b60005b83811015611320578082015181840152602081019050611305565b8381111561132f576000848401525b50505050565b6000600282049050600182168061134d57607f821691505b6020821081141561136157611360611410565b5b50919050565b61137082611482565b810181811067ffffffffffffffff8211171561138f5761138e61143f565b5b80604052505050565b60006113a3826112e9565b91507fffffffffffffffffffffffffffffffffffffffffffffffffffffffffffffffff8214156113d6576113d56113e1565b5b600182019050919050565b7f4e487b7100000000000000000000000000000000000000000000000000000000600052601160045260246000fd5b7f4e487b7100000000000000000000000000000000000000000000000000000000600052602260045260246000fd5b7f4e487b7100000000000000000000000000000000000000000000000000000000600052604160045260246000fd5b600080fd5b600080fd5b600080fd5b600080fd5b6000601f19601f8301169050919050565b7f457468657273206973206e6f7420656e6f756768210000000000000000000000600082015250565b7f596f7520646f6e2774206861766520656e6f756768207469636b657420746f2060008201527f7472616e73666572210000000000000000000000000000000000000000000000602082015250565b7f596f752063616e206e6f742072657475726e207469636b6574732c206966206560008201527f76656e742063616e63656c207468656e20796f752063616e207769746864726160208201527f7720796f7572206d6f6e65790000000000000000000000000000000000000000604082015250565b7f596f7520616c726561647920776974686472617720796f7572206d6f6e657900600082015250565b7f4576656e7420616c7265616479206f6363757265642100000000000000000000600082015250565b7f596f752063616e206e6f742063616e63656c2074686973206576656e74000000600082015250565b7f4576656e7420646f6573206e6f74206578697374210000000000000000000000600082015250565b7f576520646f6e2774206861766520656e6f756768207469636b65747321000000600082015250565b7f4576656e7420616c7265616479206f6363757265640000000000000000000000600082015250565b7f4576656e74206d75737420686176652061746c656173742031207469636b657460008201527f2100000000000000000000000000000000000000000000000000000000000000602082015250565b7f596f752063616e206f7267616e697a65206576656e7420666f7220667574757260008201527f6521000000000000000000000000000000000000000000000000000000000000602082015250565b61171d816112b7565b811461172857600080fd5b50565b611734816112e9565b811461173f57600080fd5b5056fea264697066735822122041f6c5d70924206db79b8469071149792a85ef33f0fa6d303863f64a18fc775e64736f6c63430008070033",
					"opcodes": "PUSH1 0x80 PUSH1 0x40 MSTORE CALLVALUE DUP1 ISZERO PUSH2 0x10 JUMPI PUSH1 0x0 DUP1 REVERT JUMPDEST POP PUSH2 0x1778 DUP1 PUSH2 0x20 PUSH1 0x0 CODECOPY PUSH1 0x0 RETURN INVALID PUSH1 0x80 PUSH1 0x40 MSTORE PUSH1 0x4 CALLDATASIZE LT PUSH2 0x7B JUMPI PUSH1 0x0 CALLDATALOAD PUSH1 0xE0 SHR DUP1 PUSH4 0xB3CEA217 GT PUSH2 0x4E JUMPI DUP1 PUSH4 0xB3CEA217 EQ PUSH2 0x137 JUMPI DUP1 PUSH4 0xDAE7A13C EQ PUSH2 0x162 JUMPI DUP1 PUSH4 0xF086A09B EQ PUSH2 0x19F JUMPI DUP1 PUSH4 0xF93694FB EQ PUSH2 0x1C8 JUMPI PUSH2 0x7B JUMP JUMPDEST DUP1 PUSH4 0xB791430 EQ PUSH2 0x80 JUMPI DUP1 PUSH4 0x298EC208 EQ PUSH2 0xC2 JUMPI DUP1 PUSH4 0x3F69BABD EQ PUSH2 0xF2 JUMPI DUP1 PUSH4 0x54876921 EQ PUSH2 0x11B JUMPI JUMPDEST PUSH1 0x0 DUP1 REVERT JUMPDEST CALLVALUE DUP1 ISZERO PUSH2 0x8C JUMPI PUSH1 0x0 DUP1 REVERT JUMPDEST POP PUSH2 0xA7 PUSH1 0x4 DUP1 CALLDATASIZE SUB DUP2 ADD SWAP1 PUSH2 0xA2 SWAP2 SWAP1 PUSH2 0xC63 JUMP JUMPDEST PUSH2 0x1F1 JUMP JUMPDEST PUSH1 0x40 MLOAD PUSH2 0xB9 SWAP7 SWAP6 SWAP5 SWAP4 SWAP3 SWAP2 SWAP1 PUSH2 0xF7E JUMP JUMPDEST PUSH1 0x40 MLOAD DUP1 SWAP2 SUB SWAP1 RETURN JUMPDEST PUSH2 0xDC PUSH1 0x4 DUP1 CALLDATASIZE SUB DUP2 ADD SWAP1 PUSH2 0xD7 SWAP2 SWAP1 PUSH2 0xD13 JUMP JUMPDEST PUSH2 0x2D5 JUMP JUMPDEST PUSH1 0x40 MLOAD PUSH2 0xE9 SWAP2 SWAP1 PUSH2 0x1146 JUMP JUMPDEST PUSH1 0x40 MLOAD DUP1 SWAP2 SUB SWAP1 RETURN JUMPDEST CALLVALUE DUP1 ISZERO PUSH2 0xFE JUMPI PUSH1 0x0 DUP1 REVERT JUMPDEST POP PUSH2 0x119 PUSH1 0x4 DUP1 CALLDATASIZE SUB DUP2 ADD SWAP1 PUSH2 0x114 SWAP2 SWAP1 PUSH2 0xC63 JUMP JUMPDEST PUSH2 0x414 JUMP JUMPDEST STOP JUMPDEST PUSH2 0x135 PUSH1 0x4 DUP1 CALLDATASIZE SUB DUP2 ADD SWAP1 PUSH2 0x130 SWAP2 SWAP1 PUSH2 0xC63 JUMP JUMPDEST PUSH2 0x52C JUMP JUMPDEST STOP JUMPDEST CALLVALUE DUP1 ISZERO PUSH2 0x143 JUMPI PUSH1 0x0 DUP1 REVERT JUMPDEST POP PUSH2 0x14C PUSH2 0x727 JUMP JUMPDEST PUSH1 0x40 MLOAD PUSH2 0x159 SWAP2 SWAP1 PUSH2 0x1146 JUMP JUMPDEST PUSH1 0x40 MLOAD DUP1 SWAP2 SUB SWAP1 RETURN JUMPDEST CALLVALUE DUP1 ISZERO PUSH2 0x16E JUMPI PUSH1 0x0 DUP1 REVERT JUMPDEST POP PUSH2 0x189 PUSH1 0x4 DUP1 CALLDATASIZE SUB DUP2 ADD SWAP1 PUSH2 0x184 SWAP2 SWAP1 PUSH2 0xC23 JUMP JUMPDEST PUSH2 0x72D JUMP JUMPDEST PUSH1 0x40 MLOAD PUSH2 0x196 SWAP2 SWAP1 PUSH2 0x1146 JUMP JUMPDEST PUSH1 0x40 MLOAD DUP1 SWAP2 SUB SWAP1 RETURN JUMPDEST CALLVALUE DUP1 ISZERO PUSH2 0x1AB JUMPI PUSH1 0x0 DUP1 REVERT JUMPDEST POP PUSH2 0x1C6 PUSH1 0x4 DUP1 CALLDATASIZE SUB DUP2 ADD SWAP1 PUSH2 0x1C1 SWAP2 SWAP1 PUSH2 0xD53 JUMP JUMPDEST PUSH2 0x752 JUMP JUMPDEST STOP JUMPDEST CALLVALUE DUP1 ISZERO PUSH2 0x1D4 JUMPI PUSH1 0x0 DUP1 REVERT JUMPDEST POP PUSH2 0x1EF PUSH1 0x4 DUP1 CALLDATASIZE SUB DUP2 ADD SWAP1 PUSH2 0x1EA SWAP2 SWAP1 PUSH2 0xC90 JUMP JUMPDEST PUSH2 0x95D JUMP JUMPDEST STOP JUMPDEST PUSH1 0x0 PUSH1 0x20 MSTORE DUP1 PUSH1 0x0 MSTORE PUSH1 0x40 PUSH1 0x0 KECCAK256 PUSH1 0x0 SWAP2 POP SWAP1 POP DUP1 PUSH1 0x0 ADD PUSH1 0x0 SWAP1 SLOAD SWAP1 PUSH2 0x100 EXP SWAP1 DIV PUSH20 0xFFFFFFFFFFFFFFFFFFFFFFFFFFFFFFFFFFFFFFFF AND SWAP1 DUP1 PUSH1 0x1 ADD SLOAD SWAP1 DUP1 PUSH1 0x2 ADD DUP1 SLOAD PUSH2 0x240 SWAP1 PUSH2 0x1335 JUMP JUMPDEST DUP1 PUSH1 0x1F ADD PUSH1 0x20 DUP1 SWAP2 DIV MUL PUSH1 0x20 ADD PUSH1 0x40 MLOAD SWAP1 DUP2 ADD PUSH1 0x40 MSTORE DUP1 SWAP3 SWAP2 SWAP1 DUP2 DUP2 MSTORE PUSH1 0x20 ADD DUP3 DUP1 SLOAD PUSH2 0x26C SWAP1 PUSH2 0x1335 JUMP JUMPDEST DUP1 ISZERO PUSH2 0x2B9 JUMPI DUP1 PUSH1 0x1F LT PUSH2 0x28E JUMPI PUSH2 0x100 DUP1 DUP4 SLOAD DIV MUL DUP4 MSTORE SWAP2 PUSH1 0x20 ADD SWAP2 PUSH2 0x2B9 JUMP JUMPDEST DUP3 ADD SWAP2 SWAP1 PUSH1 0x0 MSTORE PUSH1 0x20 PUSH1 0x0 KECCAK256 SWAP1 JUMPDEST DUP2 SLOAD DUP2 MSTORE SWAP1 PUSH1 0x1 ADD SWAP1 PUSH1 0x20 ADD DUP1 DUP4 GT PUSH2 0x29C JUMPI DUP3 SWAP1 SUB PUSH1 0x1F AND DUP3 ADD SWAP2 JUMPDEST POP POP POP POP POP SWAP1 DUP1 PUSH1 0x3 ADD SLOAD SWAP1 DUP1 PUSH1 0x4 ADD SLOAD SWAP1 DUP1 PUSH1 0x5 ADD SLOAD SWAP1 POP DUP7 JUMP JUMPDEST PUSH1 0x0 DUP1 PUSH1 0x0 DUP1 DUP5 DUP2 MSTORE PUSH1 0x20 ADD SWAP1 DUP2 MSTORE PUSH1 0x20 ADD PUSH1 0x0 KECCAK256 SWAP1 POP CALLVALUE DUP5 DUP3 PUSH1 0x3 ADD SLOAD PUSH2 0x2FD SWAP2 SWAP1 PUSH2 0x1229 JUMP JUMPDEST EQ PUSH2 0x33D JUMPI PUSH1 0x40 MLOAD PUSH32 0x8C379A000000000000000000000000000000000000000000000000000000000 DUP2 MSTORE PUSH1 0x4 ADD PUSH2 0x334 SWAP1 PUSH2 0xFE6 JUMP JUMPDEST PUSH1 0x40 MLOAD DUP1 SWAP2 SUB SWAP1 REVERT JUMPDEST DUP4 DUP2 PUSH1 0x5 ADD SLOAD LT ISZERO PUSH2 0x384 JUMPI PUSH1 0x40 MLOAD PUSH32 0x8C379A000000000000000000000000000000000000000000000000000000000 DUP2 MSTORE PUSH1 0x4 ADD PUSH2 0x37B SWAP1 PUSH2 0x10C6 JUMP JUMPDEST PUSH1 0x40 MLOAD DUP1 SWAP2 SUB SWAP1 REVERT JUMPDEST DUP4 DUP2 PUSH1 0x5 ADD PUSH1 0x0 DUP3 DUP3 SLOAD PUSH2 0x398 SWAP2 SWAP1 PUSH2 0x1283 JUMP JUMPDEST SWAP3 POP POP DUP2 SWAP1 SSTORE POP DUP4 PUSH1 0x1 PUSH1 0x0 CALLER PUSH20 0xFFFFFFFFFFFFFFFFFFFFFFFFFFFFFFFFFFFFFFFF AND PUSH20 0xFFFFFFFFFFFFFFFFFFFFFFFFFFFFFFFFFFFFFFFF AND DUP2 MSTORE PUSH1 0x20 ADD SWAP1 DUP2 MSTORE PUSH1 0x20 ADD PUSH1 0x0 KECCAK256 PUSH1 0x0 DUP6 DUP2 MSTORE PUSH1 0x20 ADD SWAP1 DUP2 MSTORE PUSH1 0x20 ADD PUSH1 0x0 KECCAK256 PUSH1 0x0 DUP3 DUP3 SLOAD PUSH2 0x3FF SWAP2 SWAP1 PUSH2 0x11D3 JUMP JUMPDEST SWAP3 POP POP DUP2 SWAP1 SSTORE POP DUP1 PUSH1 0x1 ADD SLOAD SWAP2 POP POP SWAP3 SWAP2 POP POP JUMP JUMPDEST TIMESTAMP PUSH1 0x0 DUP1 DUP4 DUP2 MSTORE PUSH1 0x20 ADD SWAP1 DUP2 MSTORE PUSH1 0x20 ADD PUSH1 0x0 KECCAK256 PUSH1 0x1 ADD SLOAD GT PUSH2 0x46B JUMPI PUSH1 0x40 MLOAD PUSH32 0x8C379A000000000000000000000000000000000000000000000000000000000 DUP2 MSTORE PUSH1 0x4 ADD PUSH2 0x462 SWAP1 PUSH2 0x10E6 JUMP JUMPDEST PUSH1 0x40 MLOAD DUP1 SWAP2 SUB SWAP1 REVERT JUMPDEST CALLER PUSH20 0xFFFFFFFFFFFFFFFFFFFFFFFFFFFFFFFFFFFFFFFF AND PUSH1 0x0 DUP1 DUP4 DUP2 MSTORE PUSH1 0x20 ADD SWAP1 DUP2 MSTORE PUSH1 0x20 ADD PUSH1 0x0 KECCAK256 PUSH1 0x0 ADD PUSH1 0x0 SWAP1 SLOAD SWAP1 PUSH2 0x100 EXP SWAP1 DIV PUSH20 0xFFFFFFFFFFFFFFFFFFFFFFFFFFFFFFFFFFFFFFFF AND PUSH20 0xFFFFFFFFFFFFFFFFFFFFFFFFFFFFFFFFFFFFFFFF AND EQ PUSH2 0x50E JUMPI PUSH1 0x40 MLOAD PUSH32 0x8C379A000000000000000000000000000000000000000000000000000000000 DUP2 MSTORE PUSH1 0x4 ADD PUSH2 0x505 SWAP1 PUSH2 0x1086 JUMP JUMPDEST PUSH1 0x40 MLOAD DUP1 SWAP2 SUB SWAP1 REVERT JUMPDEST PUSH1 0x0 DUP1 PUSH1 0x0 DUP4 DUP2 MSTORE PUSH1 0x20 ADD SWAP1 DUP2 MSTORE PUSH1 0x20 ADD PUSH1 0x0 KECCAK256 PUSH1 0x1 ADD DUP2 SWAP1 SSTORE POP POP JUMP JUMPDEST PUSH1 0x0 DUP1 PUSH1 0x0 DUP4 DUP2 MSTORE PUSH1 0x20 ADD SWAP1 DUP2 MSTORE PUSH1 0x20 ADD PUSH1 0x0 KECCAK256 PUSH1 0x1 ADD SLOAD EQ PUSH2 0x584 JUMPI PUSH1 0x40 MLOAD PUSH32 0x8C379A000000000000000000000000000000000000000000000000000000000 DUP2 MSTORE PUSH1 0x4 ADD PUSH2 0x57B SWAP1 PUSH2 0x1026 JUMP JUMPDEST PUSH1 0x40 MLOAD DUP1 SWAP2 SUB SWAP1 REVERT JUMPDEST PUSH1 0x0 PUSH1 0x1 PUSH1 0x0 CALLER PUSH20 0xFFFFFFFFFFFFFFFFFFFFFFFFFFFFFFFFFFFFFFFF AND PUSH20 0xFFFFFFFFFFFFFFFFFFFFFFFFFFFFFFFFFFFFFFFF AND DUP2 MSTORE PUSH1 0x20 ADD SWAP1 DUP2 MSTORE PUSH1 0x20 ADD PUSH1 0x0 KECCAK256 PUSH1 0x0 DUP4 DUP2 MSTORE PUSH1 0x20 ADD SWAP1 DUP2 MSTORE PUSH1 0x20 ADD PUSH1 0x0 KECCAK256 SLOAD GT PUSH2 0x617 JUMPI PUSH1 0x40 MLOAD PUSH32 0x8C379A000000000000000000000000000000000000000000000000000000000 DUP2 MSTORE PUSH1 0x4 ADD PUSH2 0x60E SWAP1 PUSH2 0x1046 JUMP JUMPDEST PUSH1 0x40 MLOAD DUP1 SWAP2 SUB SWAP1 REVERT JUMPDEST CALLER PUSH20 0xFFFFFFFFFFFFFFFFFFFFFFFFFFFFFFFFFFFFFFFF AND PUSH2 0x8FC PUSH1 0x0 DUP1 DUP5 DUP2 MSTORE PUSH1 0x20 ADD SWAP1 DUP2 MSTORE PUSH1 0x20 ADD PUSH1 0x0 KECCAK256 PUSH1 0x3 ADD SLOAD PUSH1 0x1 PUSH1 0x0 CALLER PUSH20 0xFFFFFFFFFFFFFFFFFFFFFFFFFFFFFFFFFFFFFFFF AND PUSH20 0xFFFFFFFFFFFFFFFFFFFFFFFFFFFFFFFFFFFFFFFF AND DUP2 MSTORE PUSH1 0x20 ADD SWAP1 DUP2 MSTORE PUSH1 0x20 ADD PUSH1 0x0 KECCAK256 PUSH1 0x0 DUP6 DUP2 MSTORE PUSH1 0x20 ADD SWAP1 DUP2 MSTORE PUSH1 0x20 ADD PUSH1 0x0 KECCAK256 SLOAD PUSH2 0x6A2 SWAP2 SWAP1 PUSH2 0x1229 JUMP JUMPDEST SWAP1 DUP2 ISZERO MUL SWAP1 PUSH1 0x40 MLOAD PUSH1 0x0 PUSH1 0x40 MLOAD DUP1 DUP4 SUB DUP2 DUP6 DUP9 DUP9 CALL SWAP4 POP POP POP POP ISZERO DUP1 ISZERO PUSH2 0x6CD JUMPI RETURNDATASIZE PUSH1 0x0 DUP1 RETURNDATACOPY RETURNDATASIZE PUSH1 0x0 REVERT JUMPDEST POP PUSH1 0x0 PUSH1 0x1 PUSH1 0x0 CALLER PUSH20 0xFFFFFFFFFFFFFFFFFFFFFFFFFFFFFFFFFFFFFFFF AND PUSH20 0xFFFFFFFFFFFFFFFFFFFFFFFFFFFFFFFFFFFFFFFF AND DUP2 MSTORE PUSH1 0x20 ADD SWAP1 DUP2 MSTORE PUSH1 0x20 ADD PUSH1 0x0 KECCAK256 PUSH1 0x0 DUP4 DUP2 MSTORE PUSH1 0x20 ADD SWAP1 DUP2 MSTORE PUSH1 0x20 ADD PUSH1 0x0 KECCAK256 DUP2 SWAP1 SSTORE POP POP JUMP JUMPDEST PUSH1 0x2 SLOAD DUP2 JUMP JUMPDEST PUSH1 0x1 PUSH1 0x20 MSTORE DUP2 PUSH1 0x0 MSTORE PUSH1 0x40 PUSH1 0x0 KECCAK256 PUSH1 0x20 MSTORE DUP1 PUSH1 0x0 MSTORE PUSH1 0x40 PUSH1 0x0 KECCAK256 PUSH1 0x0 SWAP2 POP SWAP2 POP POP SLOAD DUP2 JUMP JUMPDEST PUSH1 0x0 DUP1 PUSH1 0x0 DUP5 DUP2 MSTORE PUSH1 0x20 ADD SWAP1 DUP2 MSTORE PUSH1 0x20 ADD PUSH1 0x0 KECCAK256 SWAP1 POP PUSH1 0x0 DUP2 PUSH1 0x1 ADD SLOAD EQ ISZERO PUSH2 0x7B0 JUMPI PUSH1 0x40 MLOAD PUSH32 0x8C379A000000000000000000000000000000000000000000000000000000000 DUP2 MSTORE PUSH1 0x4 ADD PUSH2 0x7A7 SWAP1 PUSH2 0x10A6 JUMP JUMPDEST PUSH1 0x40 MLOAD DUP1 SWAP2 SUB SWAP1 REVERT JUMPDEST TIMESTAMP DUP2 PUSH1 0x1 ADD SLOAD GT PUSH2 0x7F6 JUMPI PUSH1 0x40 MLOAD PUSH32 0x8C379A000000000000000000000000000000000000000000000000000000000 DUP2 MSTORE PUSH1 0x4 ADD PUSH2 0x7ED SWAP1 PUSH2 0x1066 JUMP JUMPDEST PUSH1 0x40 MLOAD DUP1 SWAP2 SUB SWAP1 REVERT JUMPDEST DUP4 PUSH1 0x1 PUSH1 0x0 CALLER PUSH20 0xFFFFFFFFFFFFFFFFFFFFFFFFFFFFFFFFFFFFFFFF AND PUSH20 0xFFFFFFFFFFFFFFFFFFFFFFFFFFFFFFFFFFFFFFFF AND DUP2 MSTORE PUSH1 0x20 ADD SWAP1 DUP2 MSTORE PUSH1 0x20 ADD PUSH1 0x0 KECCAK256 PUSH1 0x0 DUP6 DUP2 MSTORE PUSH1 0x20 ADD SWAP1 DUP2 MSTORE PUSH1 0x20 ADD PUSH1 0x0 KECCAK256 SLOAD LT ISZERO PUSH2 0x889 JUMPI PUSH1 0x40 MLOAD PUSH32 0x8C379A000000000000000000000000000000000000000000000000000000000 DUP2 MSTORE PUSH1 0x4 ADD PUSH2 0x880 SWAP1 PUSH2 0x1006 JUMP JUMPDEST PUSH1 0x40 MLOAD DUP1 SWAP2 SUB SWAP1 REVERT JUMPDEST DUP4 PUSH1 0x1 PUSH1 0x0 CALLER PUSH20 0xFFFFFFFFFFFFFFFFFFFFFFFFFFFFFFFFFFFFFFFF AND PUSH20 0xFFFFFFFFFFFFFFFFFFFFFFFFFFFFFFFFFFFFFFFF AND DUP2 MSTORE PUSH1 0x20 ADD SWAP1 DUP2 MSTORE PUSH1 0x20 ADD PUSH1 0x0 KECCAK256 PUSH1 0x0 DUP6 DUP2 MSTORE PUSH1 0x20 ADD SWAP1 DUP2 MSTORE PUSH1 0x20 ADD PUSH1 0x0 KECCAK256 PUSH1 0x0 DUP3 DUP3 SLOAD PUSH2 0x8E9 SWAP2 SWAP1 PUSH2 0x1283 JUMP JUMPDEST SWAP3 POP POP DUP2 SWAP1 SSTORE POP DUP4 PUSH1 0x1 PUSH1 0x0 DUP5 PUSH20 0xFFFFFFFFFFFFFFFFFFFFFFFFFFFFFFFFFFFFFFFF AND PUSH20 0xFFFFFFFFFFFFFFFFFFFFFFFFFFFFFFFFFFFFFFFF AND DUP2 MSTORE PUSH1 0x20 ADD SWAP1 DUP2 MSTORE PUSH1 0x20 ADD PUSH1 0x0 KECCAK256 PUSH1 0x0 DUP6 DUP2 MSTORE PUSH1 0x20 ADD SWAP1 DUP2 MSTORE PUSH1 0x20 ADD PUSH1 0x0 KECCAK256 PUSH1 0x0 DUP3 DUP3 SLOAD PUSH2 0x950 SWAP2 SWAP1 PUSH2 0x11D3 JUMP JUMPDEST SWAP3 POP POP DUP2 SWAP1 SSTORE POP POP POP POP POP JUMP JUMPDEST TIMESTAMP DUP5 GT PUSH2 0x99F JUMPI PUSH1 0x40 MLOAD PUSH32 0x8C379A000000000000000000000000000000000000000000000000000000000 DUP2 MSTORE PUSH1 0x4 ADD PUSH2 0x996 SWAP1 PUSH2 0x1126 JUMP JUMPDEST PUSH1 0x40 MLOAD DUP1 SWAP2 SUB SWAP1 REVERT JUMPDEST PUSH1 0x0 DUP2 GT PUSH2 0x9E2 JUMPI PUSH1 0x40 MLOAD PUSH32 0x8C379A000000000000000000000000000000000000000000000000000000000 DUP2 MSTORE PUSH1 0x4 ADD PUSH2 0x9D9 SWAP1 PUSH2 0x1106 JUMP JUMPDEST PUSH1 0x40 MLOAD DUP1 SWAP2 SUB SWAP1 REVERT JUMPDEST PUSH1 0x40 MLOAD DUP1 PUSH1 0xC0 ADD PUSH1 0x40 MSTORE DUP1 CALLER PUSH20 0xFFFFFFFFFFFFFFFFFFFFFFFFFFFFFFFFFFFFFFFF AND DUP2 MSTORE PUSH1 0x20 ADD DUP6 DUP2 MSTORE PUSH1 0x20 ADD DUP5 DUP2 MSTORE PUSH1 0x20 ADD DUP4 DUP2 MSTORE PUSH1 0x20 ADD DUP3 DUP2 MSTORE PUSH1 0x20 ADD DUP3 DUP2 MSTORE POP PUSH1 0x0 DUP1 PUSH1 0x2 SLOAD DUP2 MSTORE PUSH1 0x20 ADD SWAP1 DUP2 MSTORE PUSH1 0x20 ADD PUSH1 0x0 KECCAK256 PUSH1 0x0 DUP3 ADD MLOAD DUP2 PUSH1 0x0 ADD PUSH1 0x0 PUSH2 0x100 EXP DUP2 SLOAD DUP2 PUSH20 0xFFFFFFFFFFFFFFFFFFFFFFFFFFFFFFFFFFFFFFFF MUL NOT AND SWAP1 DUP4 PUSH20 0xFFFFFFFFFFFFFFFFFFFFFFFFFFFFFFFFFFFFFFFF AND MUL OR SWAP1 SSTORE POP PUSH1 0x20 DUP3 ADD MLOAD DUP2 PUSH1 0x1 ADD SSTORE PUSH1 0x40 DUP3 ADD MLOAD DUP2 PUSH1 0x2 ADD SWAP1 DUP1 MLOAD SWAP1 PUSH1 0x20 ADD SWAP1 PUSH2 0xAA6 SWAP3 SWAP2 SWAP1 PUSH2 0xAE6 JUMP JUMPDEST POP PUSH1 0x60 DUP3 ADD MLOAD DUP2 PUSH1 0x3 ADD SSTORE PUSH1 0x80 DUP3 ADD MLOAD DUP2 PUSH1 0x4 ADD SSTORE PUSH1 0xA0 DUP3 ADD MLOAD DUP2 PUSH1 0x5 ADD SSTORE SWAP1 POP POP PUSH1 0x2 PUSH1 0x0 DUP2 SLOAD DUP1 SWAP3 SWAP2 SWAP1 PUSH2 0xADB SWAP1 PUSH2 0x1398 JUMP JUMPDEST SWAP2 SWAP1 POP SSTORE POP POP POP POP POP JUMP JUMPDEST DUP3 DUP1 SLOAD PUSH2 0xAF2 SWAP1 PUSH2 0x1335 JUMP JUMPDEST SWAP1 PUSH1 0x0 MSTORE PUSH1 0x20 PUSH1 0x0 KECCAK256 SWAP1 PUSH1 0x1F ADD PUSH1 0x20 SWAP1 DIV DUP2 ADD SWAP3 DUP3 PUSH2 0xB14 JUMPI PUSH1 0x0 DUP6 SSTORE PUSH2 0xB5B JUMP JUMPDEST DUP3 PUSH1 0x1F LT PUSH2 0xB2D JUMPI DUP1 MLOAD PUSH1 0xFF NOT AND DUP4 DUP1 ADD OR DUP6 SSTORE PUSH2 0xB5B JUMP JUMPDEST DUP3 DUP1 ADD PUSH1 0x1 ADD DUP6 SSTORE DUP3 ISZERO PUSH2 0xB5B JUMPI SWAP2 DUP3 ADD JUMPDEST DUP3 DUP2 GT ISZERO PUSH2 0xB5A JUMPI DUP3 MLOAD DUP3 SSTORE SWAP2 PUSH1 0x20 ADD SWAP2 SWAP1 PUSH1 0x1 ADD SWAP1 PUSH2 0xB3F JUMP JUMPDEST JUMPDEST POP SWAP1 POP PUSH2 0xB68 SWAP2 SWAP1 PUSH2 0xB6C JUMP JUMPDEST POP SWAP1 JUMP JUMPDEST JUMPDEST DUP1 DUP3 GT ISZERO PUSH2 0xB85 JUMPI PUSH1 0x0 DUP2 PUSH1 0x0 SWAP1 SSTORE POP PUSH1 0x1 ADD PUSH2 0xB6D JUMP JUMPDEST POP SWAP1 JUMP JUMPDEST PUSH1 0x0 PUSH2 0xB9C PUSH2 0xB97 DUP5 PUSH2 0x1186 JUMP JUMPDEST PUSH2 0x1161 JUMP JUMPDEST SWAP1 POP DUP3 DUP2 MSTORE PUSH1 0x20 DUP2 ADD DUP5 DUP5 DUP5 ADD GT ISZERO PUSH2 0xBB8 JUMPI PUSH2 0xBB7 PUSH2 0x1473 JUMP JUMPDEST JUMPDEST PUSH2 0xBC3 DUP5 DUP3 DUP6 PUSH2 0x12F3 JUMP JUMPDEST POP SWAP4 SWAP3 POP POP POP JUMP JUMPDEST PUSH1 0x0 DUP2 CALLDATALOAD SWAP1 POP PUSH2 0xBDA DUP2 PUSH2 0x1714 JUMP JUMPDEST SWAP3 SWAP2 POP POP JUMP JUMPDEST PUSH1 0x0 DUP3 PUSH1 0x1F DUP4 ADD SLT PUSH2 0xBF5 JUMPI PUSH2 0xBF4 PUSH2 0x146E JUMP JUMPDEST JUMPDEST DUP2 CALLDATALOAD PUSH2 0xC05 DUP5 DUP3 PUSH1 0x20 DUP7 ADD PUSH2 0xB89 JUMP JUMPDEST SWAP2 POP POP SWAP3 SWAP2 POP POP JUMP JUMPDEST PUSH1 0x0 DUP2 CALLDATALOAD SWAP1 POP PUSH2 0xC1D DUP2 PUSH2 0x172B JUMP JUMPDEST SWAP3 SWAP2 POP POP JUMP JUMPDEST PUSH1 0x0 DUP1 PUSH1 0x40 DUP4 DUP6 SUB SLT ISZERO PUSH2 0xC3A JUMPI PUSH2 0xC39 PUSH2 0x147D JUMP JUMPDEST JUMPDEST PUSH1 0x0 PUSH2 0xC48 DUP6 DUP3 DUP7 ADD PUSH2 0xBCB JUMP JUMPDEST SWAP3 POP POP PUSH1 0x20 PUSH2 0xC59 DUP6 DUP3 DUP7 ADD PUSH2 0xC0E JUMP JUMPDEST SWAP2 POP POP SWAP3 POP SWAP3 SWAP1 POP JUMP JUMPDEST PUSH1 0x0 PUSH1 0x20 DUP3 DUP5 SUB SLT ISZERO PUSH2 0xC79 JUMPI PUSH2 0xC78 PUSH2 0x147D JUMP JUMPDEST JUMPDEST PUSH1 0x0 PUSH2 0xC87 DUP5 DUP3 DUP6 ADD PUSH2 0xC0E JUMP JUMPDEST SWAP2 POP POP SWAP3 SWAP2 POP POP JUMP JUMPDEST PUSH1 0x0 DUP1 PUSH1 0x0 DUP1 PUSH1 0x80 DUP6 DUP8 SUB SLT ISZERO PUSH2 0xCAA JUMPI PUSH2 0xCA9 PUSH2 0x147D JUMP JUMPDEST JUMPDEST PUSH1 0x0 PUSH2 0xCB8 DUP8 DUP3 DUP9 ADD PUSH2 0xC0E JUMP JUMPDEST SWAP5 POP POP PUSH1 0x20 DUP6 ADD CALLDATALOAD PUSH8 0xFFFFFFFFFFFFFFFF DUP2 GT ISZERO PUSH2 0xCD9 JUMPI PUSH2 0xCD8 PUSH2 0x1478 JUMP JUMPDEST JUMPDEST PUSH2 0xCE5 DUP8 DUP3 DUP9 ADD PUSH2 0xBE0 JUMP JUMPDEST SWAP4 POP POP PUSH1 0x40 PUSH2 0xCF6 DUP8 DUP3 DUP9 ADD PUSH2 0xC0E JUMP JUMPDEST SWAP3 POP POP PUSH1 0x60 PUSH2 0xD07 DUP8 DUP3 DUP9 ADD PUSH2 0xC0E JUMP JUMPDEST SWAP2 POP POP SWAP3 SWAP6 SWAP2 SWAP5 POP SWAP3 POP JUMP JUMPDEST PUSH1 0x0 DUP1 PUSH1 0x40 DUP4 DUP6 SUB SLT ISZERO PUSH2 0xD2A JUMPI PUSH2 0xD29 PUSH2 0x147D JUMP JUMPDEST JUMPDEST PUSH1 0x0 PUSH2 0xD38 DUP6 DUP3 DUP7 ADD PUSH2 0xC0E JUMP JUMPDEST SWAP3 POP POP PUSH1 0x20 PUSH2 0xD49 DUP6 DUP3 DUP7 ADD PUSH2 0xC0E JUMP JUMPDEST SWAP2 POP POP SWAP3 POP SWAP3 SWAP1 POP JUMP JUMPDEST PUSH1 0x0 DUP1 PUSH1 0x0 PUSH1 0x60 DUP5 DUP7 SUB SLT ISZERO PUSH2 0xD6C JUMPI PUSH2 0xD6B PUSH2 0x147D JUMP JUMPDEST JUMPDEST PUSH1 0x0 PUSH2 0xD7A DUP7 DUP3 DUP8 ADD PUSH2 0xC0E JUMP JUMPDEST SWAP4 POP POP PUSH1 0x20 PUSH2 0xD8B DUP7 DUP3 DUP8 ADD PUSH2 0xC0E JUMP JUMPDEST SWAP3 POP POP PUSH1 0x40 PUSH2 0xD9C DUP7 DUP3 DUP8 ADD PUSH2 0xBCB JUMP JUMPDEST SWAP2 POP POP SWAP3 POP SWAP3 POP SWAP3 JUMP JUMPDEST PUSH2 0xDAF DUP2 PUSH2 0x12B7 JUMP JUMPDEST DUP3 MSTORE POP POP JUMP JUMPDEST PUSH1 0x0 PUSH2 0xDC0 DUP3 PUSH2 0x11B7 JUMP JUMPDEST PUSH2 0xDCA DUP2 DUP6 PUSH2 0x11C2 JUMP JUMPDEST SWAP4 POP PUSH2 0xDDA DUP2 DUP6 PUSH1 0x20 DUP7 ADD PUSH2 0x1302 JUMP JUMPDEST PUSH2 0xDE3 DUP2 PUSH2 0x1482 JUMP JUMPDEST DUP5 ADD SWAP2 POP POP SWAP3 SWAP2 POP POP JUMP JUMPDEST PUSH1 0x0 PUSH2 0xDFB PUSH1 0x15 DUP4 PUSH2 0x11C2 JUMP JUMPDEST SWAP2 POP PUSH2 0xE06 DUP3 PUSH2 0x1493 JUMP JUMPDEST PUSH1 0x20 DUP3 ADD SWAP1 POP SWAP2 SWAP1 POP JUMP JUMPDEST PUSH1 0x0 PUSH2 0xE1E PUSH1 0x29 DUP4 PUSH2 0x11C2 JUMP JUMPDEST SWAP2 POP PUSH2 0xE29 DUP3 PUSH2 0x14BC JUMP JUMPDEST PUSH1 0x40 DUP3 ADD SWAP1 POP SWAP2 SWAP1 POP JUMP JUMPDEST PUSH1 0x0 PUSH2 0xE41 PUSH1 0x4C DUP4 PUSH2 0x11C2 JUMP JUMPDEST SWAP2 POP PUSH2 0xE4C DUP3 PUSH2 0x150B JUMP JUMPDEST PUSH1 0x60 DUP3 ADD SWAP1 POP SWAP2 SWAP1 POP JUMP JUMPDEST PUSH1 0x0 PUSH2 0xE64 PUSH1 0x1F DUP4 PUSH2 0x11C2 JUMP JUMPDEST SWAP2 POP PUSH2 0xE6F DUP3 PUSH2 0x1580 JUMP JUMPDEST PUSH1 0x20 DUP3 ADD SWAP1 POP SWAP2 SWAP1 POP JUMP JUMPDEST PUSH1 0x0 PUSH2 0xE87 PUSH1 0x16 DUP4 PUSH2 0x11C2 JUMP JUMPDEST SWAP2 POP PUSH2 0xE92 DUP3 PUSH2 0x15A9 JUMP JUMPDEST PUSH1 0x20 DUP3 ADD SWAP1 POP SWAP2 SWAP1 POP JUMP JUMPDEST PUSH1 0x0 PUSH2 0xEAA PUSH1 0x1D DUP4 PUSH2 0x11C2 JUMP JUMPDEST SWAP2 POP PUSH2 0xEB5 DUP3 PUSH2 0x15D2 JUMP JUMPDEST PUSH1 0x20 DUP3 ADD SWAP1 POP SWAP2 SWAP1 POP JUMP JUMPDEST PUSH1 0x0 PUSH2 0xECD PUSH1 0x15 DUP4 PUSH2 0x11C2 JUMP JUMPDEST SWAP2 POP PUSH2 0xED8 DUP3 PUSH2 0x15FB JUMP JUMPDEST PUSH1 0x20 DUP3 ADD SWAP1 POP SWAP2 SWAP1 POP JUMP JUMPDEST PUSH1 0x0 PUSH2 0xEF0 PUSH1 0x1D DUP4 PUSH2 0x11C2 JUMP JUMPDEST SWAP2 POP PUSH2 0xEFB DUP3 PUSH2 0x1624 JUMP JUMPDEST PUSH1 0x20 DUP3 ADD SWAP1 POP SWAP2 SWAP1 POP JUMP JUMPDEST PUSH1 0x0 PUSH2 0xF13 PUSH1 0x15 DUP4 PUSH2 0x11C2 JUMP JUMPDEST SWAP2 POP PUSH2 0xF1E DUP3 PUSH2 0x164D JUMP JUMPDEST PUSH1 0x20 DUP3 ADD SWAP1 POP SWAP2 SWAP1 POP JUMP JUMPDEST PUSH1 0x0 PUSH2 0xF36 PUSH1 0x21 DUP4 PUSH2 0x11C2 JUMP JUMPDEST SWAP2 POP PUSH2 0xF41 DUP3 PUSH2 0x1676 JUMP JUMPDEST PUSH1 0x40 DUP3 ADD SWAP1 POP SWAP2 SWAP1 POP JUMP JUMPDEST PUSH1 0x0 PUSH2 0xF59 PUSH1 0x22 DUP4 PUSH2 0x11C2 JUMP JUMPDEST SWAP2 POP PUSH2 0xF64 DUP3 PUSH2 0x16C5 JUMP JUMPDEST PUSH1 0x40 DUP3 ADD SWAP1 POP SWAP2 SWAP1 POP JUMP JUMPDEST PUSH2 0xF78 DUP2 PUSH2 0x12E9 JUMP JUMPDEST DUP3 MSTORE POP POP JUMP JUMPDEST PUSH1 0x0 PUSH1 0xC0 DUP3 ADD SWAP1 POP PUSH2 0xF93 PUSH1 0x0 DUP4 ADD DUP10 PUSH2 0xDA6 JUMP JUMPDEST PUSH2 0xFA0 PUSH1 0x20 DUP4 ADD DUP9 PUSH2 0xF6F JUMP JUMPDEST DUP2 DUP2 SUB PUSH1 0x40 DUP4 ADD MSTORE PUSH2 0xFB2 DUP2 DUP8 PUSH2 0xDB5 JUMP JUMPDEST SWAP1 POP PUSH2 0xFC1 PUSH1 0x60 DUP4 ADD DUP7 PUSH2 0xF6F JUMP JUMPDEST PUSH2 0xFCE PUSH1 0x80 DUP4 ADD DUP6 PUSH2 0xF6F JUMP JUMPDEST PUSH2 0xFDB PUSH1 0xA0 DUP4 ADD DUP5 PUSH2 0xF6F JUMP JUMPDEST SWAP8 SWAP7 POP POP POP POP POP POP POP JUMP JUMPDEST PUSH1 0x0 PUSH1 0x20 DUP3 ADD SWAP1 POP DUP2 DUP2 SUB PUSH1 0x0 DUP4 ADD MSTORE PUSH2 0xFFF DUP2 PUSH2 0xDEE JUMP JUMPDEST SWAP1 POP SWAP2 SWAP1 POP JUMP JUMPDEST PUSH1 0x0 PUSH1 0x20 DUP3 ADD SWAP1 POP DUP2 DUP2 SUB PUSH1 0x0 DUP4 ADD MSTORE PUSH2 0x101F DUP2 PUSH2 0xE11 JUMP JUMPDEST SWAP1 POP SWAP2 SWAP1 POP JUMP JUMPDEST PUSH1 0x0 PUSH1 0x20 DUP3 ADD SWAP1 POP DUP2 DUP2 SUB PUSH1 0x0 DUP4 ADD MSTORE PUSH2 0x103F DUP2 PUSH2 0xE34 JUMP JUMPDEST SWAP1 POP SWAP2 SWAP1 POP JUMP JUMPDEST PUSH1 0x0 PUSH1 0x20 DUP3 ADD SWAP1 POP DUP2 DUP2 SUB PUSH1 0x0 DUP4 ADD MSTORE PUSH2 0x105F DUP2 PUSH2 0xE57 JUMP JUMPDEST SWAP1 POP SWAP2 SWAP1 POP JUMP JUMPDEST PUSH1 0x0 PUSH1 0x20 DUP3 ADD SWAP1 POP DUP2 DUP2 SUB PUSH1 0x0 DUP4 ADD MSTORE PUSH2 0x107F DUP2 PUSH2 0xE7A JUMP JUMPDEST SWAP1 POP SWAP2 SWAP1 POP JUMP JUMPDEST PUSH1 0x0 PUSH1 0x20 DUP3 ADD SWAP1 POP DUP2 DUP2 SUB PUSH1 0x0 DUP4 ADD MSTORE PUSH2 0x109F DUP2 PUSH2 0xE9D JUMP JUMPDEST SWAP1 POP SWAP2 SWAP1 POP JUMP JUMPDEST PUSH1 0x0 PUSH1 0x20 DUP3 ADD SWAP1 POP DUP2 DUP2 SUB PUSH1 0x0 DUP4 ADD MSTORE PUSH2 0x10BF DUP2 PUSH2 0xEC0 JUMP JUMPDEST SWAP1 POP SWAP2 SWAP1 POP JUMP JUMPDEST PUSH1 0x0 PUSH1 0x20 DUP3 ADD SWAP1 POP DUP2 DUP2 SUB PUSH1 0x0 DUP4 ADD MSTORE PUSH2 0x10DF DUP2 PUSH2 0xEE3 JUMP JUMPDEST SWAP1 POP SWAP2 SWAP1 POP JUMP JUMPDEST PUSH1 0x0 PUSH1 0x20 DUP3 ADD SWAP1 POP DUP2 DUP2 SUB PUSH1 0x0 DUP4 ADD MSTORE PUSH2 0x10FF DUP2 PUSH2 0xF06 JUMP JUMPDEST SWAP1 POP SWAP2 SWAP1 POP JUMP JUMPDEST PUSH1 0x0 PUSH1 0x20 DUP3 ADD SWAP1 POP DUP2 DUP2 SUB PUSH1 0x0 DUP4 ADD MSTORE PUSH2 0x111F DUP2 PUSH2 0xF29 JUMP JUMPDEST SWAP1 POP SWAP2 SWAP1 POP JUMP JUMPDEST PUSH1 0x0 PUSH1 0x20 DUP3 ADD SWAP1 POP DUP2 DUP2 SUB PUSH1 0x0 DUP4 ADD MSTORE PUSH2 0x113F DUP2 PUSH2 0xF4C JUMP JUMPDEST SWAP1 POP SWAP2 SWAP1 POP JUMP JUMPDEST PUSH1 0x0 PUSH1 0x20 DUP3 ADD SWAP1 POP PUSH2 0x115B PUSH1 0x0 DUP4 ADD DUP5 PUSH2 0xF6F JUMP JUMPDEST SWAP3 SWAP2 POP POP JUMP JUMPDEST PUSH1 0x0 PUSH2 0x116B PUSH2 0x117C JUMP JUMPDEST SWAP1 POP PUSH2 0x1177 DUP3 DUP3 PUSH2 0x1367 JUMP JUMPDEST SWAP2 SWAP1 POP JUMP JUMPDEST PUSH1 0x0 PUSH1 0x40 MLOAD SWAP1 POP SWAP1 JUMP JUMPDEST PUSH1 0x0 PUSH8 0xFFFFFFFFFFFFFFFF DUP3 GT ISZERO PUSH2 0x11A1 JUMPI PUSH2 0x11A0 PUSH2 0x143F JUMP JUMPDEST JUMPDEST PUSH2 0x11AA DUP3 PUSH2 0x1482 JUMP JUMPDEST SWAP1 POP PUSH1 0x20 DUP2 ADD SWAP1 POP SWAP2 SWAP1 POP JUMP JUMPDEST PUSH1 0x0 DUP2 MLOAD SWAP1 POP SWAP2 SWAP1 POP JUMP JUMPDEST PUSH1 0x0 DUP3 DUP3 MSTORE PUSH1 0x20 DUP3 ADD SWAP1 POP SWAP3 SWAP2 POP POP JUMP JUMPDEST PUSH1 0x0 PUSH2 0x11DE DUP3 PUSH2 0x12E9 JUMP JUMPDEST SWAP2 POP PUSH2 0x11E9 DUP4 PUSH2 0x12E9 JUMP JUMPDEST SWAP3 POP DUP3 PUSH32 0xFFFFFFFFFFFFFFFFFFFFFFFFFFFFFFFFFFFFFFFFFFFFFFFFFFFFFFFFFFFFFFFF SUB DUP3 GT ISZERO PUSH2 0x121E JUMPI PUSH2 0x121D PUSH2 0x13E1 JUMP JUMPDEST JUMPDEST DUP3 DUP3 ADD SWAP1 POP SWAP3 SWAP2 POP POP JUMP JUMPDEST PUSH1 0x0 PUSH2 0x1234 DUP3 PUSH2 0x12E9 JUMP JUMPDEST SWAP2 POP PUSH2 0x123F DUP4 PUSH2 0x12E9 JUMP JUMPDEST SWAP3 POP DUP2 PUSH32 0xFFFFFFFFFFFFFFFFFFFFFFFFFFFFFFFFFFFFFFFFFFFFFFFFFFFFFFFFFFFFFFFF DIV DUP4 GT DUP3 ISZERO ISZERO AND ISZERO PUSH2 0x1278 JUMPI PUSH2 0x1277 PUSH2 0x13E1 JUMP JUMPDEST JUMPDEST DUP3 DUP3 MUL SWAP1 POP SWAP3 SWAP2 POP POP JUMP JUMPDEST PUSH1 0x0 PUSH2 0x128E DUP3 PUSH2 0x12E9 JUMP JUMPDEST SWAP2 POP PUSH2 0x1299 DUP4 PUSH2 0x12E9 JUMP JUMPDEST SWAP3 POP DUP3 DUP3 LT ISZERO PUSH2 0x12AC JUMPI PUSH2 0x12AB PUSH2 0x13E1 JUMP JUMPDEST JUMPDEST DUP3 DUP3 SUB SWAP1 POP SWAP3 SWAP2 POP POP JUMP JUMPDEST PUSH1 0x0 PUSH2 0x12C2 DUP3 PUSH2 0x12C9 JUMP JUMPDEST SWAP1 POP SWAP2 SWAP1 POP JUMP JUMPDEST PUSH1 0x0 PUSH20 0xFFFFFFFFFFFFFFFFFFFFFFFFFFFFFFFFFFFFFFFF DUP3 AND SWAP1 POP SWAP2 SWAP1 POP JUMP JUMPDEST PUSH1 0x0 DUP2 SWAP1 POP SWAP2 SWAP1 POP JUMP JUMPDEST DUP3 DUP2 DUP4 CALLDATACOPY PUSH1 0x0 DUP4 DUP4 ADD MSTORE POP POP POP JUMP JUMPDEST PUSH1 0x0 JUMPDEST DUP4 DUP2 LT ISZERO PUSH2 0x1320 JUMPI DUP1 DUP3 ADD MLOAD DUP2 DUP5 ADD MSTORE PUSH1 0x20 DUP2 ADD SWAP1 POP PUSH2 0x1305 JUMP JUMPDEST DUP4 DUP2 GT ISZERO PUSH2 0x132F JUMPI PUSH1 0x0 DUP5 DUP5 ADD MSTORE JUMPDEST POP POP POP POP JUMP JUMPDEST PUSH1 0x0 PUSH1 0x2 DUP3 DIV SWAP1 POP PUSH1 0x1 DUP3 AND DUP1 PUSH2 0x134D JUMPI PUSH1 0x7F DUP3 AND SWAP2 POP JUMPDEST PUSH1 0x20 DUP3 LT DUP2 EQ ISZERO PUSH2 0x1361 JUMPI PUSH2 0x1360 PUSH2 0x1410 JUMP JUMPDEST JUMPDEST POP SWAP2 SWAP1 POP JUMP JUMPDEST PUSH2 0x1370 DUP3 PUSH2 0x1482 JUMP JUMPDEST DUP2 ADD DUP2 DUP2 LT PUSH8 0xFFFFFFFFFFFFFFFF DUP3 GT OR ISZERO PUSH2 0x138F JUMPI PUSH2 0x138E PUSH2 0x143F JUMP JUMPDEST JUMPDEST DUP1 PUSH1 0x40 MSTORE POP POP POP JUMP JUMPDEST PUSH1 0x0 PUSH2 0x13A3 DUP3 PUSH2 0x12E9 JUMP JUMPDEST SWAP2 POP PUSH32 0xFFFFFFFFFFFFFFFFFFFFFFFFFFFFFFFFFFFFFFFFFFFFFFFFFFFFFFFFFFFFFFFF DUP3 EQ ISZERO PUSH2 0x13D6 JUMPI PUSH2 0x13D5 PUSH2 0x13E1 JUMP JUMPDEST JUMPDEST PUSH1 0x1 DUP3 ADD SWAP1 POP SWAP2 SWAP1 POP JUMP JUMPDEST PUSH32 0x4E487B7100000000000000000000000000000000000000000000000000000000 PUSH1 0x0 MSTORE PUSH1 0x11 PUSH1 0x4 MSTORE PUSH1 0x24 PUSH1 0x0 REVERT JUMPDEST PUSH32 0x4E487B7100000000000000000000000000000000000000000000000000000000 PUSH1 0x0 MSTORE PUSH1 0x22 PUSH1 0x4 MSTORE PUSH1 0x24 PUSH1 0x0 REVERT JUMPDEST PUSH32 0x4E487B7100000000000000000000000000000000000000000000000000000000 PUSH1 0x0 MSTORE PUSH1 0x41 PUSH1 0x4 MSTORE PUSH1 0x24 PUSH1 0x0 REVERT JUMPDEST PUSH1 0x0 DUP1 REVERT JUMPDEST PUSH1 0x0 DUP1 REVERT JUMPDEST PUSH1 0x0 DUP1 REVERT JUMPDEST PUSH1 0x0 DUP1 REVERT JUMPDEST PUSH1 0x0 PUSH1 0x1F NOT PUSH1 0x1F DUP4 ADD AND SWAP1 POP SWAP2 SWAP1 POP JUMP JUMPDEST PUSH32 0x457468657273206973206E6F7420656E6F756768210000000000000000000000 PUSH1 0x0 DUP3 ADD MSTORE POP JUMP JUMPDEST PUSH32 0x596F7520646F6E2774206861766520656E6F756768207469636B657420746F20 PUSH1 0x0 DUP3 ADD MSTORE PUSH32 0x7472616E73666572210000000000000000000000000000000000000000000000 PUSH1 0x20 DUP3 ADD MSTORE POP JUMP JUMPDEST PUSH32 0x596F752063616E206E6F742072657475726E207469636B6574732C2069662065 PUSH1 0x0 DUP3 ADD MSTORE PUSH32 0x76656E742063616E63656C207468656E20796F752063616E2077697468647261 PUSH1 0x20 DUP3 ADD MSTORE PUSH32 0x7720796F7572206D6F6E65790000000000000000000000000000000000000000 PUSH1 0x40 DUP3 ADD MSTORE POP JUMP JUMPDEST PUSH32 0x596F7520616C726561647920776974686472617720796F7572206D6F6E657900 PUSH1 0x0 DUP3 ADD MSTORE POP JUMP JUMPDEST PUSH32 0x4576656E7420616C7265616479206F6363757265642100000000000000000000 PUSH1 0x0 DUP3 ADD MSTORE POP JUMP JUMPDEST PUSH32 0x596F752063616E206E6F742063616E63656C2074686973206576656E74000000 PUSH1 0x0 DUP3 ADD MSTORE POP JUMP JUMPDEST PUSH32 0x4576656E7420646F6573206E6F74206578697374210000000000000000000000 PUSH1 0x0 DUP3 ADD MSTORE POP JUMP JUMPDEST PUSH32 0x576520646F6E2774206861766520656E6F756768207469636B65747321000000 PUSH1 0x0 DUP3 ADD MSTORE POP JUMP JUMPDEST PUSH32 0x4576656E7420616C7265616479206F6363757265640000000000000000000000 PUSH1 0x0 DUP3 ADD MSTORE POP JUMP JUMPDEST PUSH32 0x4576656E74206D75737420686176652061746C656173742031207469636B6574 PUSH1 0x0 DUP3 ADD MSTORE PUSH32 0x2100000000000000000000000000000000000000000000000000000000000000 PUSH1 0x20 DUP3 ADD MSTORE POP JUMP JUMPDEST PUSH32 0x596F752063616E206F7267616E697A65206576656E7420666F72206675747572 PUSH1 0x0 DUP3 ADD MSTORE PUSH32 0x6521000000000000000000000000000000000000000000000000000000000000 PUSH1 0x20 DUP3 ADD MSTORE POP JUMP JUMPDEST PUSH2 0x171D DUP2 PUSH2 0x12B7 JUMP JUMPDEST DUP2 EQ PUSH2 0x1728 JUMPI PUSH1 0x0 DUP1 REVERT JUMPDEST POP JUMP JUMPDEST PUSH2 0x1734 DUP2 PUSH2 0x12E9 JUMP JUMPDEST DUP2 EQ PUSH2 0x173F JUMPI PUSH1 0x0 DUP1 REVERT JUMPDEST POP JUMP INVALID LOG2 PUSH5 0x6970667358 0x22 SLT KECCAK256 COINBASE 0xF6 0xC5 0xD7 MULMOD 0x24 KECCAK256 PUSH14 0xB79B8469071149792A85EF33F0FA PUSH14 0x303863F64A18FC775E64736F6C63 NUMBER STOP ADDMOD SMOD STOP CALLER "
				},
				"gasEstimates": {
					"creation": {
						"codeDepositCost": "1201600",
						"executionCost": "1248",
						"totalCost": "1202848"
					},
					"external": {
						"ID()": "2429",
						"buyTicket(uint256,uint256)": "infinite",
						"cancelEvent(uint256)": "10009",
						"createEvent(uint256,string,uint256,uint256)": "infinite",
						"events(uint256)": "infinite",
						"tickets(address,uint256)": "infinite",
						"transferTicket(uint256,uint256,address)": "infinite",
						"withdrawMoney(uint256)": "infinite"
					}
				},
				"methodIdentifiers": {
					"ID()": "b3cea217",
					"buyTicket(uint256,uint256)": "298ec208",
					"cancelEvent(uint256)": "3f69babd",
					"createEvent(uint256,string,uint256,uint256)": "f93694fb",
					"events(uint256)": "0b791430",
					"tickets(address,uint256)": "dae7a13c",
					"transferTicket(uint256,uint256,address)": "f086a09b",
					"withdrawMoney(uint256)": "54876921"
				}
			},
			"storageLayout": {
				"storage": [
					{
						"astId": 19,
						"contract": "contract/EventOrganizingContract.sol:EventOrganize",
						"label": "events",
						"offset": 0,
						"slot": "0",
						"type": "t_mapping(t_uint256,t_struct(Event)14_storage)"
					},
					{
						"astId": 25,
						"contract": "contract/EventOrganizingContract.sol:EventOrganize",
						"label": "tickets",
						"offset": 0,
						"slot": "1",
						"type": "t_mapping(t_address,t_mapping(t_uint256,t_uint256))"
					},
					{
						"astId": 27,
						"contract": "contract/EventOrganizingContract.sol:EventOrganize",
						"label": "ID",
						"offset": 0,
						"slot": "2",
						"type": "t_uint256"
					}
				],
				"types": {
					"t_address": {
						"encoding": "inplace",
						"label": "address",
						"numberOfBytes": "20"
					},
					"t_mapping(t_address,t_mapping(t_uint256,t_uint256))": {
						"encoding": "mapping",
						"key": "t_address",
						"label": "mapping(address => mapping(uint256 => uint256))",
						"numberOfBytes": "32",
						"value": "t_mapping(t_uint256,t_uint256)"
					},
					"t_mapping(t_uint256,t_struct(Event)14_storage)": {
						"encoding": "mapping",
						"key": "t_uint256",
						"label": "mapping(uint256 => struct EventOrganize.Event)",
						"numberOfBytes": "32",
						"value": "t_struct(Event)14_storage"
					},
					"t_mapping(t_uint256,t_uint256)": {
						"encoding": "mapping",
						"key": "t_uint256",
						"label": "mapping(uint256 => uint256)",
						"numberOfBytes": "32",
						"value": "t_uint256"
					},
					"t_string_storage": {
						"encoding": "bytes",
						"label": "string",
						"numberOfBytes": "32"
					},
					"t_struct(Event)14_storage": {
						"encoding": "inplace",
						"label": "struct EventOrganize.Event",
						"members": [
							{
								"astId": 3,
								"contract": "contract/EventOrganizingContract.sol:EventOrganize",
								"label": "organizer",
								"offset": 0,
								"slot": "0",
								"type": "t_address"
							},
							{
								"astId": 5,
								"contract": "contract/EventOrganizingContract.sol:EventOrganize",
								"label": "date",
								"offset": 0,
								"slot": "1",
								"type": "t_uint256"
							},
							{
								"astId": 7,
								"contract": "contract/EventOrganizingContract.sol:EventOrganize",
								"label": "name",
								"offset": 0,
								"slot": "2",
								"type": "t_string_storage"
							},
							{
								"astId": 9,
								"contract": "contract/EventOrganizingContract.sol:EventOrganize",
								"label": "price",
								"offset": 0,
								"slot": "3",
								"type": "t_uint256"
							},
							{
								"astId": 11,
								"contract": "contract/EventOrganizingContract.sol:EventOrganize",
								"label": "ticketCount",
								"offset": 0,
								"slot": "4",
								"type": "t_uint256"
							},
							{
								"astId": 13,
								"contract": "contract/EventOrganizingContract.sol:EventOrganize",
								"label": "ticketRemain",
								"offset": 0,
								"slot": "5",
								"type": "t_uint256"
							}
						],
						"numberOfBytes": "192"
					},
					"t_uint256": {
						"encoding": "inplace",
						"label": "uint256",
						"numberOfBytes": "32"
					}
				}
			},
			"userdoc": {
				"kind": "user",
				"methods": {},
				"version": 1
			}
		}
	}
}