{
	"contract/EventOrganizingContract.sol": {
		"EventOrganize": {
			"abi": [
				{
					"inputs": [],
					"name": "ID",
					"outputs": [
						{
							"internalType": "uint256",
							"name": "",
							"type": "uint256"
						}
					],
					"stateMutability": "view",
					"type": "function"
				},
				{
					"inputs": [
						{
							"internalType": "uint256",
							"name": "_quantity",
							"type": "uint256"
						},
						{
							"internalType": "uint256",
							"name": "_ID",
							"type": "uint256"
						}
					],
					"name": "buyTicket",
					"outputs": [],
					"stateMutability": "payable",
					"type": "function"
				},
				{
					"inputs": [
						{
							"internalType": "uint256",
							"name": "_date",
							"type": "uint256"
						},
						{
							"internalType": "string",
							"name": "_name",
							"type": "string"
						},
						{
							"internalType": "uint256",
							"name": "_price",
							"type": "uint256"
						},
						{
							"internalType": "uint256",
							"name": "_ticketCount",
							"type": "uint256"
						}
					],
					"name": "createEvent",
					"outputs": [],
					"stateMutability": "nonpayable",
					"type": "function"
				},
				{
					"inputs": [
						{
							"internalType": "uint256",
							"name": "",
							"type": "uint256"
						}
					],
					"name": "events",
					"outputs": [
						{
							"internalType": "address",
							"name": "organizer",
							"type": "address"
						},
						{
							"internalType": "uint256",
							"name": "date",
							"type": "uint256"
						},
						{
							"internalType": "string",
							"name": "name",
							"type": "string"
						},
						{
							"internalType": "uint256",
							"name": "price",
							"type": "uint256"
						},
						{
							"internalType": "uint256",
							"name": "ticketCount",
							"type": "uint256"
						},
						{
							"internalType": "uint256",
							"name": "ticketRemain",
							"type": "uint256"
						}
					],
					"stateMutability": "view",
					"type": "function"
				},
				{
					"inputs": [
						{
							"internalType": "address",
							"name": "",
							"type": "address"
						},
						{
							"internalType": "uint256",
							"name": "",
							"type": "uint256"
						}
					],
					"name": "tickets",
					"outputs": [
						{
							"internalType": "uint256",
							"name": "",
							"type": "uint256"
						}
					],
					"stateMutability": "view",
					"type": "function"
				},
				{
					"inputs": [
						{
							"internalType": "uint256",
							"name": "_quantity",
							"type": "uint256"
						},
						{
							"internalType": "uint256",
							"name": "_ID",
							"type": "uint256"
						},
						{
							"internalType": "address",
							"name": "_to",
							"type": "address"
						}
					],
					"name": "transferTicket",
					"outputs": [],
					"stateMutability": "nonpayable",
					"type": "function"
				}
			],
			"devdoc": {
				"kind": "dev",
				"methods": {},
				"version": 1
			},
			"evm": {
				"assembly": "    /* \"contract/EventOrganizingContract.sol\":62:1552  contract EventOrganize {\r... */\n  mstore(0x40, 0x80)\n  callvalue\n  dup1\n  iszero\n  tag_1\n  jumpi\n  0x00\n  dup1\n  revert\ntag_1:\n  pop\n  dataSize(sub_0)\n  dup1\n  dataOffset(sub_0)\n  0x00\n  codecopy\n  0x00\n  return\nstop\n\nsub_0: assembly {\n        /* \"contract/EventOrganizingContract.sol\":62:1552  contract EventOrganize {\r... */\n      mstore(0x40, 0x80)\n      jumpi(tag_1, lt(calldatasize, 0x04))\n      shr(0xe0, calldataload(0x00))\n      dup1\n      0x0b791430\n      eq\n      tag_2\n      jumpi\n      dup1\n      0x298ec208\n      eq\n      tag_3\n      jumpi\n      dup1\n      0xb3cea217\n      eq\n      tag_4\n      jumpi\n      dup1\n      0xdae7a13c\n      eq\n      tag_5\n      jumpi\n      dup1\n      0xf086a09b\n      eq\n      tag_6\n      jumpi\n      dup1\n      0xf93694fb\n      eq\n      tag_7\n      jumpi\n    tag_1:\n      0x00\n      dup1\n      revert\n        /* \"contract/EventOrganizingContract.sol\":269:306  mapping (uint => Event) public events */\n    tag_2:\n      callvalue\n      dup1\n      iszero\n      tag_8\n      jumpi\n      0x00\n      dup1\n      revert\n    tag_8:\n      pop\n      tag_9\n      0x04\n      dup1\n      calldatasize\n      sub\n      dup2\n      add\n      swap1\n      tag_10\n      swap2\n      swap1\n      tag_11\n      jump\t// in\n    tag_10:\n      tag_12\n      jump\t// in\n    tag_9:\n      mload(0x40)\n      tag_13\n      swap7\n      swap6\n      swap5\n      swap4\n      swap3\n      swap2\n      swap1\n      tag_14\n      jump\t// in\n    tag_13:\n      mload(0x40)\n      dup1\n      swap2\n      sub\n      swap1\n      return\n        /* \"contract/EventOrganizingContract.sol\":772:1279  function buyTicket(uint _quantity, uint _ID) payable external{\r... */\n    tag_3:\n      tag_15\n      0x04\n      dup1\n      calldatasize\n      sub\n      dup2\n      add\n      swap1\n      tag_16\n      swap2\n      swap1\n      tag_17\n      jump\t// in\n    tag_16:\n      tag_18\n      jump\t// in\n    tag_15:\n      stop\n        /* \"contract/EventOrganizingContract.sol\":377:391  uint public ID */\n    tag_4:\n      callvalue\n      dup1\n      iszero\n      tag_19\n      jumpi\n      0x00\n      dup1\n      revert\n    tag_19:\n      pop\n      tag_20\n      tag_21\n      jump\t// in\n    tag_20:\n      mload(0x40)\n      tag_22\n      swap2\n      swap1\n      tag_23\n      jump\t// in\n    tag_22:\n      mload(0x40)\n      dup1\n      swap2\n      sub\n      swap1\n      return\n        /* \"contract/EventOrganizingContract.sol\":313:370  mapping (address => mapping(uint => uint)) public tickets */\n    tag_5:\n      callvalue\n      dup1\n      iszero\n      tag_24\n      jumpi\n      0x00\n      dup1\n      revert\n    tag_24:\n      pop\n      tag_25\n      0x04\n      dup1\n      calldatasize\n      sub\n      dup2\n      add\n      swap1\n      tag_26\n      swap2\n      swap1\n      tag_27\n      jump\t// in\n    tag_26:\n      tag_28\n      jump\t// in\n    tag_25:\n      mload(0x40)\n      tag_29\n      swap2\n      swap1\n      tag_23\n      jump\t// in\n    tag_29:\n      mload(0x40)\n      dup1\n      swap2\n      sub\n      swap1\n      return\n        /* \"contract/EventOrganizingContract.sol\":1287:1547  function transferTicket(uint _quantity, uint _ID, address _to) external{\r... */\n    tag_6:\n      callvalue\n      dup1\n      iszero\n      tag_30\n      jumpi\n      0x00\n      dup1\n      revert\n    tag_30:\n      pop\n      tag_31\n      0x04\n      dup1\n      calldatasize\n      sub\n      dup2\n      add\n      swap1\n      tag_32\n      swap2\n      swap1\n      tag_33\n      jump\t// in\n    tag_32:\n      tag_34\n      jump\t// in\n    tag_31:\n      stop\n        /* \"contract/EventOrganizingContract.sol\":404:764  function createEvent(uint _date, string memory _name, uint _price, uint _ticketCount) external{\r... */\n    tag_7:\n      callvalue\n      dup1\n      iszero\n      tag_35\n      jumpi\n      0x00\n      dup1\n      revert\n    tag_35:\n      pop\n      tag_36\n      0x04\n      dup1\n      calldatasize\n      sub\n      dup2\n      add\n      swap1\n      tag_37\n      swap2\n      swap1\n      tag_38\n      jump\t// in\n    tag_37:\n      tag_39\n      jump\t// in\n    tag_36:\n      stop\n        /* \"contract/EventOrganizingContract.sol\":269:306  mapping (uint => Event) public events */\n    tag_12:\n      mstore(0x20, 0x00)\n      dup1\n      0x00\n      mstore\n      keccak256(0x00, 0x40)\n      0x00\n      swap2\n      pop\n      swap1\n      pop\n      dup1\n      0x00\n      add\n      0x00\n      swap1\n      sload\n      swap1\n      0x0100\n      exp\n      swap1\n      div\n      0xffffffffffffffffffffffffffffffffffffffff\n      and\n      swap1\n      dup1\n      0x01\n      add\n      sload\n      swap1\n      dup1\n      0x02\n      add\n      dup1\n      sload\n      tag_40\n      swap1\n      tag_41\n      jump\t// in\n    tag_40:\n      dup1\n      0x1f\n      add\n      0x20\n      dup1\n      swap2\n      div\n      mul\n      0x20\n      add\n      mload(0x40)\n      swap1\n      dup2\n      add\n      0x40\n      mstore\n      dup1\n      swap3\n      swap2\n      swap1\n      dup2\n      dup2\n      mstore\n      0x20\n      add\n      dup3\n      dup1\n      sload\n      tag_42\n      swap1\n      tag_41\n      jump\t// in\n    tag_42:\n      dup1\n      iszero\n      tag_43\n      jumpi\n      dup1\n      0x1f\n      lt\n      tag_44\n      jumpi\n      0x0100\n      dup1\n      dup4\n      sload\n      div\n      mul\n      dup4\n      mstore\n      swap2\n      0x20\n      add\n      swap2\n      jump(tag_43)\n    tag_44:\n      dup3\n      add\n      swap2\n      swap1\n      0x00\n      mstore\n      keccak256(0x00, 0x20)\n      swap1\n    tag_45:\n      dup2\n      sload\n      dup2\n      mstore\n      swap1\n      0x01\n      add\n      swap1\n      0x20\n      add\n      dup1\n      dup4\n      gt\n      tag_45\n      jumpi\n      dup3\n      swap1\n      sub\n      0x1f\n      and\n      dup3\n      add\n      swap2\n    tag_43:\n      pop\n      pop\n      pop\n      pop\n      pop\n      swap1\n      dup1\n      0x03\n      add\n      sload\n      swap1\n      dup1\n      0x04\n      add\n      sload\n      swap1\n      dup1\n      0x05\n      add\n      sload\n      swap1\n      pop\n      dup7\n      jump\t// out\n        /* \"contract/EventOrganizingContract.sol\":772:1279  function buyTicket(uint _quantity, uint _ID) payable external{\r... */\n    tag_18:\n        /* \"contract/EventOrganizingContract.sol\":844:864  Event storage _event */\n      0x00\n        /* \"contract/EventOrganizingContract.sol\":867:873  events */\n      dup1\n        /* \"contract/EventOrganizingContract.sol\":867:878  events[_ID] */\n      0x00\n        /* \"contract/EventOrganizingContract.sol\":874:877  _ID */\n      dup4\n        /* \"contract/EventOrganizingContract.sol\":867:878  events[_ID] */\n      dup2\n      mstore\n      0x20\n      add\n      swap1\n      dup2\n      mstore\n      0x20\n      add\n      0x00\n      keccak256\n        /* \"contract/EventOrganizingContract.sol\":844:878  Event storage _event = events[_ID] */\n      swap1\n      pop\n        /* \"contract/EventOrganizingContract.sol\":912:913  0 */\n      0x00\n        /* \"contract/EventOrganizingContract.sol\":897:903  _event */\n      dup2\n        /* \"contract/EventOrganizingContract.sol\":897:908  _event.date */\n      0x01\n      add\n      sload\n        /* \"contract/EventOrganizingContract.sol\":897:913  _event.date != 0 */\n      eq\n      iszero\n        /* \"contract/EventOrganizingContract.sol\":889:938  require(_event.date != 0, \"Event does not exist\") */\n      tag_47\n      jumpi\n      mload(0x40)\n      0x08c379a000000000000000000000000000000000000000000000000000000000\n      dup2\n      mstore\n      0x04\n      add\n      tag_48\n      swap1\n      tag_49\n      jump\t// in\n    tag_48:\n      mload(0x40)\n      dup1\n      swap2\n      sub\n      swap1\n      revert\n    tag_47:\n        /* \"contract/EventOrganizingContract.sol\":971:986  block.timestamp */\n      timestamp\n        /* \"contract/EventOrganizingContract.sol\":957:963  _event */\n      dup2\n        /* \"contract/EventOrganizingContract.sol\":957:968  _event.date */\n      0x01\n      add\n      sload\n        /* \"contract/EventOrganizingContract.sol\":957:986  _event.date > block.timestamp */\n      gt\n        /* \"contract/EventOrganizingContract.sol\":949:1013  require(_event.date > block.timestamp, \"Event booking is close\") */\n      tag_50\n      jumpi\n      mload(0x40)\n      0x08c379a000000000000000000000000000000000000000000000000000000000\n      dup2\n      mstore\n      0x04\n      add\n      tag_51\n      swap1\n      tag_52\n      jump\t// in\n    tag_51:\n      mload(0x40)\n      dup1\n      swap2\n      sub\n      swap1\n      revert\n    tag_50:\n        /* \"contract/EventOrganizingContract.sol\":1062:1071  msg.value */\n      callvalue\n        /* \"contract/EventOrganizingContract.sol\":1048:1057  _quantity */\n      dup4\n        /* \"contract/EventOrganizingContract.sol\":1033:1039  _event */\n      dup3\n        /* \"contract/EventOrganizingContract.sol\":1033:1045  _event.price */\n      0x03\n      add\n      sload\n        /* \"contract/EventOrganizingContract.sol\":1033:1057  _event.price * _quantity */\n      tag_53\n      swap2\n      swap1\n      tag_54\n      jump\t// in\n    tag_53:\n        /* \"contract/EventOrganizingContract.sol\":1032:1071  (_event.price * _quantity) == msg.value */\n      eq\n        /* \"contract/EventOrganizingContract.sol\":1024:1097  require((_event.price * _quantity) == msg.value, \"Ethers is not enough!\") */\n      tag_55\n      jumpi\n      mload(0x40)\n      0x08c379a000000000000000000000000000000000000000000000000000000000\n      dup2\n      mstore\n      0x04\n      add\n      tag_56\n      swap1\n      tag_57\n      jump\t// in\n    tag_56:\n      mload(0x40)\n      dup1\n      swap2\n      sub\n      swap1\n      revert\n    tag_55:\n        /* \"contract/EventOrganizingContract.sol\":1138:1147  _quantity */\n      dup3\n        /* \"contract/EventOrganizingContract.sol\":1116:1122  _event */\n      dup2\n        /* \"contract/EventOrganizingContract.sol\":1116:1135  _event.ticketRemain */\n      0x05\n      add\n      sload\n        /* \"contract/EventOrganizingContract.sol\":1116:1147  _event.ticketRemain > _quantity */\n      gt\n        /* \"contract/EventOrganizingContract.sol\":1108:1180  require(_event.ticketRemain > _quantity, \"We don't have enough tickets\") */\n      tag_58\n      jumpi\n      mload(0x40)\n      0x08c379a000000000000000000000000000000000000000000000000000000000\n      dup2\n      mstore\n      0x04\n      add\n      tag_59\n      swap1\n      tag_60\n      jump\t// in\n    tag_59:\n      mload(0x40)\n      dup1\n      swap2\n      sub\n      swap1\n      revert\n    tag_58:\n        /* \"contract/EventOrganizingContract.sol\":1214:1223  _quantity */\n      dup3\n        /* \"contract/EventOrganizingContract.sol\":1191:1197  _event */\n      dup2\n        /* \"contract/EventOrganizingContract.sol\":1191:1210  _event.ticketRemain */\n      0x05\n      add\n      0x00\n        /* \"contract/EventOrganizingContract.sol\":1191:1223  _event.ticketRemain -= _quantity */\n      dup3\n      dup3\n      sload\n      tag_61\n      swap2\n      swap1\n      tag_62\n      jump\t// in\n    tag_61:\n      swap3\n      pop\n      pop\n      dup2\n      swap1\n      sstore\n      pop\n        /* \"contract/EventOrganizingContract.sol\":1262:1271  _quantity */\n      dup3\n        /* \"contract/EventOrganizingContract.sol\":1234:1241  tickets */\n      0x01\n        /* \"contract/EventOrganizingContract.sol\":1234:1253  tickets[msg.sender] */\n      0x00\n        /* \"contract/EventOrganizingContract.sol\":1242:1252  msg.sender */\n      caller\n        /* \"contract/EventOrganizingContract.sol\":1234:1253  tickets[msg.sender] */\n      0xffffffffffffffffffffffffffffffffffffffff\n      and\n      0xffffffffffffffffffffffffffffffffffffffff\n      and\n      dup2\n      mstore\n      0x20\n      add\n      swap1\n      dup2\n      mstore\n      0x20\n      add\n      0x00\n      keccak256\n        /* \"contract/EventOrganizingContract.sol\":1234:1258  tickets[msg.sender][_ID] */\n      0x00\n        /* \"contract/EventOrganizingContract.sol\":1254:1257  _ID */\n      dup5\n        /* \"contract/EventOrganizingContract.sol\":1234:1258  tickets[msg.sender][_ID] */\n      dup2\n      mstore\n      0x20\n      add\n      swap1\n      dup2\n      mstore\n      0x20\n      add\n      0x00\n      keccak256\n      0x00\n        /* \"contract/EventOrganizingContract.sol\":1234:1271  tickets[msg.sender][_ID] += _quantity */\n      dup3\n      dup3\n      sload\n      tag_63\n      swap2\n      swap1\n      tag_64\n      jump\t// in\n    tag_63:\n      swap3\n      pop\n      pop\n      dup2\n      swap1\n      sstore\n      pop\n        /* \"contract/EventOrganizingContract.sol\":833:1279  {\r... */\n      pop\n        /* \"contract/EventOrganizingContract.sol\":772:1279  function buyTicket(uint _quantity, uint _ID) payable external{\r... */\n      pop\n      pop\n      jump\t// out\n        /* \"contract/EventOrganizingContract.sol\":377:391  uint public ID */\n    tag_21:\n      sload(0x02)\n      dup2\n      jump\t// out\n        /* \"contract/EventOrganizingContract.sol\":313:370  mapping (address => mapping(uint => uint)) public tickets */\n    tag_28:\n      mstore(0x20, 0x01)\n      dup2\n      0x00\n      mstore\n      mstore(0x20, keccak256(0x00, 0x40))\n      dup1\n      0x00\n      mstore\n      keccak256(0x00, 0x40)\n      0x00\n      swap2\n      pop\n      swap2\n      pop\n      pop\n      sload\n      dup2\n      jump\t// out\n        /* \"contract/EventOrganizingContract.sol\":1287:1547  function transferTicket(uint _quantity, uint _ID, address _to) external{\r... */\n    tag_34:\n        /* \"contract/EventOrganizingContract.sol\":1369:1389  Event storage _event */\n      0x00\n        /* \"contract/EventOrganizingContract.sol\":1392:1398  events */\n      dup1\n        /* \"contract/EventOrganizingContract.sol\":1392:1403  events[_ID] */\n      0x00\n        /* \"contract/EventOrganizingContract.sol\":1399:1402  _ID */\n      dup5\n        /* \"contract/EventOrganizingContract.sol\":1392:1403  events[_ID] */\n      dup2\n      mstore\n      0x20\n      add\n      swap1\n      dup2\n      mstore\n      0x20\n      add\n      0x00\n      keccak256\n        /* \"contract/EventOrganizingContract.sol\":1369:1403  Event storage _event = events[_ID] */\n      swap1\n      pop\n        /* \"contract/EventOrganizingContract.sol\":1437:1438  0 */\n      0x00\n        /* \"contract/EventOrganizingContract.sol\":1422:1428  _event */\n      dup2\n        /* \"contract/EventOrganizingContract.sol\":1422:1433  _event.date */\n      0x01\n      add\n      sload\n        /* \"contract/EventOrganizingContract.sol\":1422:1438  _event.date != 0 */\n      eq\n      iszero\n        /* \"contract/EventOrganizingContract.sol\":1414:1463  require(_event.date != 0, \"Event does not exist\") */\n      tag_66\n      jumpi\n      mload(0x40)\n      0x08c379a000000000000000000000000000000000000000000000000000000000\n      dup2\n      mstore\n      0x04\n      add\n      tag_67\n      swap1\n      tag_49\n      jump\t// in\n    tag_67:\n      mload(0x40)\n      dup1\n      swap2\n      sub\n      swap1\n      revert\n    tag_66:\n        /* \"contract/EventOrganizingContract.sol\":1496:1511  block.timestamp */\n      timestamp\n        /* \"contract/EventOrganizingContract.sol\":1482:1488  _event */\n      dup2\n        /* \"contract/EventOrganizingContract.sol\":1482:1493  _event.date */\n      0x01\n      add\n      sload\n        /* \"contract/EventOrganizingContract.sol\":1482:1511  _event.date > block.timestamp */\n      gt\n        /* \"contract/EventOrganizingContract.sol\":1474:1537  require(_event.date > block.timestamp, \"Event already occured\") */\n      tag_68\n      jumpi\n      mload(0x40)\n      0x08c379a000000000000000000000000000000000000000000000000000000000\n      dup2\n      mstore\n      0x04\n      add\n      tag_69\n      swap1\n      tag_70\n      jump\t// in\n    tag_69:\n      mload(0x40)\n      dup1\n      swap2\n      sub\n      swap1\n      revert\n    tag_68:\n        /* \"contract/EventOrganizingContract.sol\":1358:1547  {\r... */\n      pop\n        /* \"contract/EventOrganizingContract.sol\":1287:1547  function transferTicket(uint _quantity, uint _ID, address _to) external{\r... */\n      pop\n      pop\n      pop\n      jump\t// out\n        /* \"contract/EventOrganizingContract.sol\":404:764  function createEvent(uint _date, string memory _name, uint _price, uint _ticketCount) external{\r... */\n    tag_39:\n        /* \"contract/EventOrganizingContract.sol\":525:540  block.timestamp */\n      timestamp\n        /* \"contract/EventOrganizingContract.sol\":517:522  _date */\n      dup5\n        /* \"contract/EventOrganizingContract.sol\":517:540  _date > block.timestamp */\n      gt\n        /* \"contract/EventOrganizingContract.sol\":509:578  require(_date > block.timestamp, \"You can organize event for future\") */\n      tag_72\n      jumpi\n      mload(0x40)\n      0x08c379a000000000000000000000000000000000000000000000000000000000\n      dup2\n      mstore\n      0x04\n      add\n      tag_73\n      swap1\n      tag_74\n      jump\t// in\n    tag_73:\n      mload(0x40)\n      dup1\n      swap2\n      sub\n      swap1\n      revert\n    tag_72:\n        /* \"contract/EventOrganizingContract.sol\":612:613  0 */\n      0x00\n        /* \"contract/EventOrganizingContract.sol\":597:609  _ticketCount */\n      dup2\n        /* \"contract/EventOrganizingContract.sol\":597:613  _ticketCount > 0 */\n      gt\n        /* \"contract/EventOrganizingContract.sol\":589:650  require(_ticketCount > 0, \"Event must have atleast 1 ticket\") */\n      tag_75\n      jumpi\n      mload(0x40)\n      0x08c379a000000000000000000000000000000000000000000000000000000000\n      dup2\n      mstore\n      0x04\n      add\n      tag_76\n      swap1\n      tag_77\n      jump\t// in\n    tag_76:\n      mload(0x40)\n      dup1\n      swap2\n      sub\n      swap1\n      revert\n    tag_75:\n        /* \"contract/EventOrganizingContract.sol\":674:741  Event(msg.sender, _date, _name, _price, _ticketCount, _ticketCount) */\n      mload(0x40)\n      dup1\n      0xc0\n      add\n      0x40\n      mstore\n      dup1\n        /* \"contract/EventOrganizingContract.sol\":680:690  msg.sender */\n      caller\n        /* \"contract/EventOrganizingContract.sol\":674:741  Event(msg.sender, _date, _name, _price, _ticketCount, _ticketCount) */\n      0xffffffffffffffffffffffffffffffffffffffff\n      and\n      dup2\n      mstore\n      0x20\n      add\n        /* \"contract/EventOrganizingContract.sol\":692:697  _date */\n      dup6\n        /* \"contract/EventOrganizingContract.sol\":674:741  Event(msg.sender, _date, _name, _price, _ticketCount, _ticketCount) */\n      dup2\n      mstore\n      0x20\n      add\n        /* \"contract/EventOrganizingContract.sol\":699:704  _name */\n      dup5\n        /* \"contract/EventOrganizingContract.sol\":674:741  Event(msg.sender, _date, _name, _price, _ticketCount, _ticketCount) */\n      dup2\n      mstore\n      0x20\n      add\n        /* \"contract/EventOrganizingContract.sol\":706:712  _price */\n      dup4\n        /* \"contract/EventOrganizingContract.sol\":674:741  Event(msg.sender, _date, _name, _price, _ticketCount, _ticketCount) */\n      dup2\n      mstore\n      0x20\n      add\n        /* \"contract/EventOrganizingContract.sol\":714:726  _ticketCount */\n      dup3\n        /* \"contract/EventOrganizingContract.sol\":674:741  Event(msg.sender, _date, _name, _price, _ticketCount, _ticketCount) */\n      dup2\n      mstore\n      0x20\n      add\n        /* \"contract/EventOrganizingContract.sol\":728:740  _ticketCount */\n      dup3\n        /* \"contract/EventOrganizingContract.sol\":674:741  Event(msg.sender, _date, _name, _price, _ticketCount, _ticketCount) */\n      dup2\n      mstore\n      pop\n        /* \"contract/EventOrganizingContract.sol\":661:667  events */\n      0x00\n        /* \"contract/EventOrganizingContract.sol\":661:671  events[ID] */\n      dup1\n        /* \"contract/EventOrganizingContract.sol\":668:670  ID */\n      sload(0x02)\n        /* \"contract/EventOrganizingContract.sol\":661:671  events[ID] */\n      dup2\n      mstore\n      0x20\n      add\n      swap1\n      dup2\n      mstore\n      0x20\n      add\n      0x00\n      keccak256\n        /* \"contract/EventOrganizingContract.sol\":661:741  events[ID] = Event(msg.sender, _date, _name, _price, _ticketCount, _ticketCount) */\n      0x00\n      dup3\n      add\n      mload\n      dup2\n      0x00\n      add\n      exp(0x0100, 0x00)\n      dup2\n      sload\n      dup2\n      0xffffffffffffffffffffffffffffffffffffffff\n      mul\n      not\n      and\n      swap1\n      dup4\n      0xffffffffffffffffffffffffffffffffffffffff\n      and\n      mul\n      or\n      swap1\n      sstore\n      pop\n      0x20\n      dup3\n      add\n      mload\n      dup2\n      0x01\n      add\n      sstore\n      0x40\n      dup3\n      add\n      mload\n      dup2\n      0x02\n      add\n      swap1\n      dup1\n      mload\n      swap1\n      0x20\n      add\n      swap1\n      tag_78\n      swap3\n      swap2\n      swap1\n      tag_79\n      jump\t// in\n    tag_78:\n      pop\n      0x60\n      dup3\n      add\n      mload\n      dup2\n      0x03\n      add\n      sstore\n      0x80\n      dup3\n      add\n      mload\n      dup2\n      0x04\n      add\n      sstore\n      0xa0\n      dup3\n      add\n      mload\n      dup2\n      0x05\n      add\n      sstore\n      swap1\n      pop\n      pop\n        /* \"contract/EventOrganizingContract.sol\":752:754  ID */\n      0x02\n      0x00\n        /* \"contract/EventOrganizingContract.sol\":752:756  ID++ */\n      dup2\n      sload\n      dup1\n      swap3\n      swap2\n      swap1\n      tag_80\n      swap1\n      tag_81\n      jump\t// in\n    tag_80:\n      swap2\n      swap1\n      pop\n      sstore\n      pop\n        /* \"contract/EventOrganizingContract.sol\":404:764  function createEvent(uint _date, string memory _name, uint _price, uint _ticketCount) external{\r... */\n      pop\n      pop\n      pop\n      pop\n      jump\t// out\n    tag_79:\n      dup3\n      dup1\n      sload\n      tag_82\n      swap1\n      tag_41\n      jump\t// in\n    tag_82:\n      swap1\n      0x00\n      mstore\n      keccak256(0x00, 0x20)\n      swap1\n      0x1f\n      add\n      0x20\n      swap1\n      div\n      dup2\n      add\n      swap3\n      dup3\n      tag_84\n      jumpi\n      0x00\n      dup6\n      sstore\n      jump(tag_83)\n    tag_84:\n      dup3\n      0x1f\n      lt\n      tag_85\n      jumpi\n      dup1\n      mload\n      not(0xff)\n      and\n      dup4\n      dup1\n      add\n      or\n      dup6\n      sstore\n      jump(tag_83)\n    tag_85:\n      dup3\n      dup1\n      add\n      0x01\n      add\n      dup6\n      sstore\n      dup3\n      iszero\n      tag_83\n      jumpi\n      swap2\n      dup3\n      add\n    tag_86:\n      dup3\n      dup2\n      gt\n      iszero\n      tag_87\n      jumpi\n      dup3\n      mload\n      dup3\n      sstore\n      swap2\n      0x20\n      add\n      swap2\n      swap1\n      0x01\n      add\n      swap1\n      jump(tag_86)\n    tag_87:\n    tag_83:\n      pop\n      swap1\n      pop\n      tag_88\n      swap2\n      swap1\n      tag_89\n      jump\t// in\n    tag_88:\n      pop\n      swap1\n      jump\t// out\n    tag_89:\n    tag_90:\n      dup1\n      dup3\n      gt\n      iszero\n      tag_91\n      jumpi\n      0x00\n      dup2\n      0x00\n      swap1\n      sstore\n      pop\n      0x01\n      add\n      jump(tag_90)\n    tag_91:\n      pop\n      swap1\n      jump\t// out\n        /* \"#utility.yul\":7:419   */\n    tag_93:\n        /* \"#utility.yul\":85:90   */\n      0x00\n        /* \"#utility.yul\":110:176   */\n      tag_95\n        /* \"#utility.yul\":126:175   */\n      tag_96\n        /* \"#utility.yul\":168:174   */\n      dup5\n        /* \"#utility.yul\":126:175   */\n      tag_97\n      jump\t// in\n    tag_96:\n        /* \"#utility.yul\":110:176   */\n      tag_98\n      jump\t// in\n    tag_95:\n        /* \"#utility.yul\":101:176   */\n      swap1\n      pop\n        /* \"#utility.yul\":199:205   */\n      dup3\n        /* \"#utility.yul\":192:197   */\n      dup2\n        /* \"#utility.yul\":185:206   */\n      mstore\n        /* \"#utility.yul\":237:241   */\n      0x20\n        /* \"#utility.yul\":230:235   */\n      dup2\n        /* \"#utility.yul\":226:242   */\n      add\n        /* \"#utility.yul\":275:278   */\n      dup5\n        /* \"#utility.yul\":266:272   */\n      dup5\n        /* \"#utility.yul\":261:264   */\n      dup5\n        /* \"#utility.yul\":257:273   */\n      add\n        /* \"#utility.yul\":254:279   */\n      gt\n        /* \"#utility.yul\":251:363   */\n      iszero\n      tag_99\n      jumpi\n        /* \"#utility.yul\":282:361   */\n      tag_100\n      tag_101\n      jump\t// in\n    tag_100:\n        /* \"#utility.yul\":251:363   */\n    tag_99:\n        /* \"#utility.yul\":372:413   */\n      tag_102\n        /* \"#utility.yul\":406:412   */\n      dup5\n        /* \"#utility.yul\":401:404   */\n      dup3\n        /* \"#utility.yul\":396:399   */\n      dup6\n        /* \"#utility.yul\":372:413   */\n      tag_103\n      jump\t// in\n    tag_102:\n        /* \"#utility.yul\":91:419   */\n      pop\n        /* \"#utility.yul\":7:419   */\n      swap4\n      swap3\n      pop\n      pop\n      pop\n      jump\t// out\n        /* \"#utility.yul\":425:564   */\n    tag_104:\n        /* \"#utility.yul\":471:476   */\n      0x00\n        /* \"#utility.yul\":509:515   */\n      dup2\n        /* \"#utility.yul\":496:516   */\n      calldataload\n        /* \"#utility.yul\":487:516   */\n      swap1\n      pop\n        /* \"#utility.yul\":525:558   */\n      tag_106\n        /* \"#utility.yul\":552:557   */\n      dup2\n        /* \"#utility.yul\":525:558   */\n      tag_107\n      jump\t// in\n    tag_106:\n        /* \"#utility.yul\":425:564   */\n      swap3\n      swap2\n      pop\n      pop\n      jump\t// out\n        /* \"#utility.yul\":584:924   */\n    tag_108:\n        /* \"#utility.yul\":640:645   */\n      0x00\n        /* \"#utility.yul\":689:692   */\n      dup3\n        /* \"#utility.yul\":682:686   */\n      0x1f\n        /* \"#utility.yul\":674:680   */\n      dup4\n        /* \"#utility.yul\":670:687   */\n      add\n        /* \"#utility.yul\":666:693   */\n      slt\n        /* \"#utility.yul\":656:778   */\n      tag_110\n      jumpi\n        /* \"#utility.yul\":697:776   */\n      tag_111\n      tag_112\n      jump\t// in\n    tag_111:\n        /* \"#utility.yul\":656:778   */\n    tag_110:\n        /* \"#utility.yul\":814:820   */\n      dup2\n        /* \"#utility.yul\":801:821   */\n      calldataload\n        /* \"#utility.yul\":839:918   */\n      tag_113\n        /* \"#utility.yul\":914:917   */\n      dup5\n        /* \"#utility.yul\":906:912   */\n      dup3\n        /* \"#utility.yul\":899:903   */\n      0x20\n        /* \"#utility.yul\":891:897   */\n      dup7\n        /* \"#utility.yul\":887:904   */\n      add\n        /* \"#utility.yul\":839:918   */\n      tag_93\n      jump\t// in\n    tag_113:\n        /* \"#utility.yul\":830:918   */\n      swap2\n      pop\n        /* \"#utility.yul\":646:924   */\n      pop\n        /* \"#utility.yul\":584:924   */\n      swap3\n      swap2\n      pop\n      pop\n      jump\t// out\n        /* \"#utility.yul\":930:1069   */\n    tag_114:\n        /* \"#utility.yul\":976:981   */\n      0x00\n        /* \"#utility.yul\":1014:1020   */\n      dup2\n        /* \"#utility.yul\":1001:1021   */\n      calldataload\n        /* \"#utility.yul\":992:1021   */\n      swap1\n      pop\n        /* \"#utility.yul\":1030:1063   */\n      tag_116\n        /* \"#utility.yul\":1057:1062   */\n      dup2\n        /* \"#utility.yul\":1030:1063   */\n      tag_117\n      jump\t// in\n    tag_116:\n        /* \"#utility.yul\":930:1069   */\n      swap3\n      swap2\n      pop\n      pop\n      jump\t// out\n        /* \"#utility.yul\":1075:1549   */\n    tag_27:\n        /* \"#utility.yul\":1143:1149   */\n      0x00\n        /* \"#utility.yul\":1151:1157   */\n      dup1\n        /* \"#utility.yul\":1200:1202   */\n      0x40\n        /* \"#utility.yul\":1188:1197   */\n      dup4\n        /* \"#utility.yul\":1179:1186   */\n      dup6\n        /* \"#utility.yul\":1175:1198   */\n      sub\n        /* \"#utility.yul\":1171:1203   */\n      slt\n        /* \"#utility.yul\":1168:1287   */\n      iszero\n      tag_119\n      jumpi\n        /* \"#utility.yul\":1206:1285   */\n      tag_120\n      tag_121\n      jump\t// in\n    tag_120:\n        /* \"#utility.yul\":1168:1287   */\n    tag_119:\n        /* \"#utility.yul\":1326:1327   */\n      0x00\n        /* \"#utility.yul\":1351:1404   */\n      tag_122\n        /* \"#utility.yul\":1396:1403   */\n      dup6\n        /* \"#utility.yul\":1387:1393   */\n      dup3\n        /* \"#utility.yul\":1376:1385   */\n      dup7\n        /* \"#utility.yul\":1372:1394   */\n      add\n        /* \"#utility.yul\":1351:1404   */\n      tag_104\n      jump\t// in\n    tag_122:\n        /* \"#utility.yul\":1341:1404   */\n      swap3\n      pop\n        /* \"#utility.yul\":1297:1414   */\n      pop\n        /* \"#utility.yul\":1453:1455   */\n      0x20\n        /* \"#utility.yul\":1479:1532   */\n      tag_123\n        /* \"#utility.yul\":1524:1531   */\n      dup6\n        /* \"#utility.yul\":1515:1521   */\n      dup3\n        /* \"#utility.yul\":1504:1513   */\n      dup7\n        /* \"#utility.yul\":1500:1522   */\n      add\n        /* \"#utility.yul\":1479:1532   */\n      tag_114\n      jump\t// in\n    tag_123:\n        /* \"#utility.yul\":1469:1532   */\n      swap2\n      pop\n        /* \"#utility.yul\":1424:1542   */\n      pop\n        /* \"#utility.yul\":1075:1549   */\n      swap3\n      pop\n      swap3\n      swap1\n      pop\n      jump\t// out\n        /* \"#utility.yul\":1555:1884   */\n    tag_11:\n        /* \"#utility.yul\":1614:1620   */\n      0x00\n        /* \"#utility.yul\":1663:1665   */\n      0x20\n        /* \"#utility.yul\":1651:1660   */\n      dup3\n        /* \"#utility.yul\":1642:1649   */\n      dup5\n        /* \"#utility.yul\":1638:1661   */\n      sub\n        /* \"#utility.yul\":1634:1666   */\n      slt\n        /* \"#utility.yul\":1631:1750   */\n      iszero\n      tag_125\n      jumpi\n        /* \"#utility.yul\":1669:1748   */\n      tag_126\n      tag_121\n      jump\t// in\n    tag_126:\n        /* \"#utility.yul\":1631:1750   */\n    tag_125:\n        /* \"#utility.yul\":1789:1790   */\n      0x00\n        /* \"#utility.yul\":1814:1867   */\n      tag_127\n        /* \"#utility.yul\":1859:1866   */\n      dup5\n        /* \"#utility.yul\":1850:1856   */\n      dup3\n        /* \"#utility.yul\":1839:1848   */\n      dup6\n        /* \"#utility.yul\":1835:1857   */\n      add\n        /* \"#utility.yul\":1814:1867   */\n      tag_114\n      jump\t// in\n    tag_127:\n        /* \"#utility.yul\":1804:1867   */\n      swap2\n      pop\n        /* \"#utility.yul\":1760:1877   */\n      pop\n        /* \"#utility.yul\":1555:1884   */\n      swap3\n      swap2\n      pop\n      pop\n      jump\t// out\n        /* \"#utility.yul\":1890:2835   */\n    tag_38:\n        /* \"#utility.yul\":1986:1992   */\n      0x00\n        /* \"#utility.yul\":1994:2000   */\n      dup1\n        /* \"#utility.yul\":2002:2008   */\n      0x00\n        /* \"#utility.yul\":2010:2016   */\n      dup1\n        /* \"#utility.yul\":2059:2062   */\n      0x80\n        /* \"#utility.yul\":2047:2056   */\n      dup6\n        /* \"#utility.yul\":2038:2045   */\n      dup8\n        /* \"#utility.yul\":2034:2057   */\n      sub\n        /* \"#utility.yul\":2030:2063   */\n      slt\n        /* \"#utility.yul\":2027:2147   */\n      iszero\n      tag_129\n      jumpi\n        /* \"#utility.yul\":2066:2145   */\n      tag_130\n      tag_121\n      jump\t// in\n    tag_130:\n        /* \"#utility.yul\":2027:2147   */\n    tag_129:\n        /* \"#utility.yul\":2186:2187   */\n      0x00\n        /* \"#utility.yul\":2211:2264   */\n      tag_131\n        /* \"#utility.yul\":2256:2263   */\n      dup8\n        /* \"#utility.yul\":2247:2253   */\n      dup3\n        /* \"#utility.yul\":2236:2245   */\n      dup9\n        /* \"#utility.yul\":2232:2254   */\n      add\n        /* \"#utility.yul\":2211:2264   */\n      tag_114\n      jump\t// in\n    tag_131:\n        /* \"#utility.yul\":2201:2264   */\n      swap5\n      pop\n        /* \"#utility.yul\":2157:2274   */\n      pop\n        /* \"#utility.yul\":2341:2343   */\n      0x20\n        /* \"#utility.yul\":2330:2339   */\n      dup6\n        /* \"#utility.yul\":2326:2344   */\n      add\n        /* \"#utility.yul\":2313:2345   */\n      calldataload\n        /* \"#utility.yul\":2372:2390   */\n      0xffffffffffffffff\n        /* \"#utility.yul\":2364:2370   */\n      dup2\n        /* \"#utility.yul\":2361:2391   */\n      gt\n        /* \"#utility.yul\":2358:2475   */\n      iszero\n      tag_132\n      jumpi\n        /* \"#utility.yul\":2394:2473   */\n      tag_133\n      tag_134\n      jump\t// in\n    tag_133:\n        /* \"#utility.yul\":2358:2475   */\n    tag_132:\n        /* \"#utility.yul\":2499:2562   */\n      tag_135\n        /* \"#utility.yul\":2554:2561   */\n      dup8\n        /* \"#utility.yul\":2545:2551   */\n      dup3\n        /* \"#utility.yul\":2534:2543   */\n      dup9\n        /* \"#utility.yul\":2530:2552   */\n      add\n        /* \"#utility.yul\":2499:2562   */\n      tag_108\n      jump\t// in\n    tag_135:\n        /* \"#utility.yul\":2489:2562   */\n      swap4\n      pop\n        /* \"#utility.yul\":2284:2572   */\n      pop\n        /* \"#utility.yul\":2611:2613   */\n      0x40\n        /* \"#utility.yul\":2637:2690   */\n      tag_136\n        /* \"#utility.yul\":2682:2689   */\n      dup8\n        /* \"#utility.yul\":2673:2679   */\n      dup3\n        /* \"#utility.yul\":2662:2671   */\n      dup9\n        /* \"#utility.yul\":2658:2680   */\n      add\n        /* \"#utility.yul\":2637:2690   */\n      tag_114\n      jump\t// in\n    tag_136:\n        /* \"#utility.yul\":2627:2690   */\n      swap3\n      pop\n        /* \"#utility.yul\":2582:2700   */\n      pop\n        /* \"#utility.yul\":2739:2741   */\n      0x60\n        /* \"#utility.yul\":2765:2818   */\n      tag_137\n        /* \"#utility.yul\":2810:2817   */\n      dup8\n        /* \"#utility.yul\":2801:2807   */\n      dup3\n        /* \"#utility.yul\":2790:2799   */\n      dup9\n        /* \"#utility.yul\":2786:2808   */\n      add\n        /* \"#utility.yul\":2765:2818   */\n      tag_114\n      jump\t// in\n    tag_137:\n        /* \"#utility.yul\":2755:2818   */\n      swap2\n      pop\n        /* \"#utility.yul\":2710:2828   */\n      pop\n        /* \"#utility.yul\":1890:2835   */\n      swap3\n      swap6\n      swap2\n      swap5\n      pop\n      swap3\n      pop\n      jump\t// out\n        /* \"#utility.yul\":2841:3315   */\n    tag_17:\n        /* \"#utility.yul\":2909:2915   */\n      0x00\n        /* \"#utility.yul\":2917:2923   */\n      dup1\n        /* \"#utility.yul\":2966:2968   */\n      0x40\n        /* \"#utility.yul\":2954:2963   */\n      dup4\n        /* \"#utility.yul\":2945:2952   */\n      dup6\n        /* \"#utility.yul\":2941:2964   */\n      sub\n        /* \"#utility.yul\":2937:2969   */\n      slt\n        /* \"#utility.yul\":2934:3053   */\n      iszero\n      tag_139\n      jumpi\n        /* \"#utility.yul\":2972:3051   */\n      tag_140\n      tag_121\n      jump\t// in\n    tag_140:\n        /* \"#utility.yul\":2934:3053   */\n    tag_139:\n        /* \"#utility.yul\":3092:3093   */\n      0x00\n        /* \"#utility.yul\":3117:3170   */\n      tag_141\n        /* \"#utility.yul\":3162:3169   */\n      dup6\n        /* \"#utility.yul\":3153:3159   */\n      dup3\n        /* \"#utility.yul\":3142:3151   */\n      dup7\n        /* \"#utility.yul\":3138:3160   */\n      add\n        /* \"#utility.yul\":3117:3170   */\n      tag_114\n      jump\t// in\n    tag_141:\n        /* \"#utility.yul\":3107:3170   */\n      swap3\n      pop\n        /* \"#utility.yul\":3063:3180   */\n      pop\n        /* \"#utility.yul\":3219:3221   */\n      0x20\n        /* \"#utility.yul\":3245:3298   */\n      tag_142\n        /* \"#utility.yul\":3290:3297   */\n      dup6\n        /* \"#utility.yul\":3281:3287   */\n      dup3\n        /* \"#utility.yul\":3270:3279   */\n      dup7\n        /* \"#utility.yul\":3266:3288   */\n      add\n        /* \"#utility.yul\":3245:3298   */\n      tag_114\n      jump\t// in\n    tag_142:\n        /* \"#utility.yul\":3235:3298   */\n      swap2\n      pop\n        /* \"#utility.yul\":3190:3308   */\n      pop\n        /* \"#utility.yul\":2841:3315   */\n      swap3\n      pop\n      swap3\n      swap1\n      pop\n      jump\t// out\n        /* \"#utility.yul\":3321:3940   */\n    tag_33:\n        /* \"#utility.yul\":3398:3404   */\n      0x00\n        /* \"#utility.yul\":3406:3412   */\n      dup1\n        /* \"#utility.yul\":3414:3420   */\n      0x00\n        /* \"#utility.yul\":3463:3465   */\n      0x60\n        /* \"#utility.yul\":3451:3460   */\n      dup5\n        /* \"#utility.yul\":3442:3449   */\n      dup7\n        /* \"#utility.yul\":3438:3461   */\n      sub\n        /* \"#utility.yul\":3434:3466   */\n      slt\n        /* \"#utility.yul\":3431:3550   */\n      iszero\n      tag_144\n      jumpi\n        /* \"#utility.yul\":3469:3548   */\n      tag_145\n      tag_121\n      jump\t// in\n    tag_145:\n        /* \"#utility.yul\":3431:3550   */\n    tag_144:\n        /* \"#utility.yul\":3589:3590   */\n      0x00\n        /* \"#utility.yul\":3614:3667   */\n      tag_146\n        /* \"#utility.yul\":3659:3666   */\n      dup7\n        /* \"#utility.yul\":3650:3656   */\n      dup3\n        /* \"#utility.yul\":3639:3648   */\n      dup8\n        /* \"#utility.yul\":3635:3657   */\n      add\n        /* \"#utility.yul\":3614:3667   */\n      tag_114\n      jump\t// in\n    tag_146:\n        /* \"#utility.yul\":3604:3667   */\n      swap4\n      pop\n        /* \"#utility.yul\":3560:3677   */\n      pop\n        /* \"#utility.yul\":3716:3718   */\n      0x20\n        /* \"#utility.yul\":3742:3795   */\n      tag_147\n        /* \"#utility.yul\":3787:3794   */\n      dup7\n        /* \"#utility.yul\":3778:3784   */\n      dup3\n        /* \"#utility.yul\":3767:3776   */\n      dup8\n        /* \"#utility.yul\":3763:3785   */\n      add\n        /* \"#utility.yul\":3742:3795   */\n      tag_114\n      jump\t// in\n    tag_147:\n        /* \"#utility.yul\":3732:3795   */\n      swap3\n      pop\n        /* \"#utility.yul\":3687:3805   */\n      pop\n        /* \"#utility.yul\":3844:3846   */\n      0x40\n        /* \"#utility.yul\":3870:3923   */\n      tag_148\n        /* \"#utility.yul\":3915:3922   */\n      dup7\n        /* \"#utility.yul\":3906:3912   */\n      dup3\n        /* \"#utility.yul\":3895:3904   */\n      dup8\n        /* \"#utility.yul\":3891:3913   */\n      add\n        /* \"#utility.yul\":3870:3923   */\n      tag_104\n      jump\t// in\n    tag_148:\n        /* \"#utility.yul\":3860:3923   */\n      swap2\n      pop\n        /* \"#utility.yul\":3815:3933   */\n      pop\n        /* \"#utility.yul\":3321:3940   */\n      swap3\n      pop\n      swap3\n      pop\n      swap3\n      jump\t// out\n        /* \"#utility.yul\":3946:4064   */\n    tag_149:\n        /* \"#utility.yul\":4033:4057   */\n      tag_151\n        /* \"#utility.yul\":4051:4056   */\n      dup2\n        /* \"#utility.yul\":4033:4057   */\n      tag_152\n      jump\t// in\n    tag_151:\n        /* \"#utility.yul\":4028:4031   */\n      dup3\n        /* \"#utility.yul\":4021:4058   */\n      mstore\n        /* \"#utility.yul\":3946:4064   */\n      pop\n      pop\n      jump\t// out\n        /* \"#utility.yul\":4070:4434   */\n    tag_153:\n        /* \"#utility.yul\":4158:4161   */\n      0x00\n        /* \"#utility.yul\":4186:4225   */\n      tag_155\n        /* \"#utility.yul\":4219:4224   */\n      dup3\n        /* \"#utility.yul\":4186:4225   */\n      tag_156\n      jump\t// in\n    tag_155:\n        /* \"#utility.yul\":4241:4312   */\n      tag_157\n        /* \"#utility.yul\":4305:4311   */\n      dup2\n        /* \"#utility.yul\":4300:4303   */\n      dup6\n        /* \"#utility.yul\":4241:4312   */\n      tag_158\n      jump\t// in\n    tag_157:\n        /* \"#utility.yul\":4234:4312   */\n      swap4\n      pop\n        /* \"#utility.yul\":4321:4373   */\n      tag_159\n        /* \"#utility.yul\":4366:4372   */\n      dup2\n        /* \"#utility.yul\":4361:4364   */\n      dup6\n        /* \"#utility.yul\":4354:4358   */\n      0x20\n        /* \"#utility.yul\":4347:4352   */\n      dup7\n        /* \"#utility.yul\":4343:4359   */\n      add\n        /* \"#utility.yul\":4321:4373   */\n      tag_160\n      jump\t// in\n    tag_159:\n        /* \"#utility.yul\":4398:4427   */\n      tag_161\n        /* \"#utility.yul\":4420:4426   */\n      dup2\n        /* \"#utility.yul\":4398:4427   */\n      tag_162\n      jump\t// in\n    tag_161:\n        /* \"#utility.yul\":4393:4396   */\n      dup5\n        /* \"#utility.yul\":4389:4428   */\n      add\n        /* \"#utility.yul\":4382:4428   */\n      swap2\n      pop\n        /* \"#utility.yul\":4162:4434   */\n      pop\n        /* \"#utility.yul\":4070:4434   */\n      swap3\n      swap2\n      pop\n      pop\n      jump\t// out\n        /* \"#utility.yul\":4440:4806   */\n    tag_163:\n        /* \"#utility.yul\":4582:4585   */\n      0x00\n        /* \"#utility.yul\":4603:4670   */\n      tag_165\n        /* \"#utility.yul\":4667:4669   */\n      0x15\n        /* \"#utility.yul\":4662:4665   */\n      dup4\n        /* \"#utility.yul\":4603:4670   */\n      tag_158\n      jump\t// in\n    tag_165:\n        /* \"#utility.yul\":4596:4670   */\n      swap2\n      pop\n        /* \"#utility.yul\":4679:4772   */\n      tag_166\n        /* \"#utility.yul\":4768:4771   */\n      dup3\n        /* \"#utility.yul\":4679:4772   */\n      tag_167\n      jump\t// in\n    tag_166:\n        /* \"#utility.yul\":4797:4799   */\n      0x20\n        /* \"#utility.yul\":4792:4795   */\n      dup3\n        /* \"#utility.yul\":4788:4800   */\n      add\n        /* \"#utility.yul\":4781:4800   */\n      swap1\n      pop\n        /* \"#utility.yul\":4440:4806   */\n      swap2\n      swap1\n      pop\n      jump\t// out\n        /* \"#utility.yul\":4812:5178   */\n    tag_168:\n        /* \"#utility.yul\":4954:4957   */\n      0x00\n        /* \"#utility.yul\":4975:5042   */\n      tag_170\n        /* \"#utility.yul\":5039:5041   */\n      0x1c\n        /* \"#utility.yul\":5034:5037   */\n      dup4\n        /* \"#utility.yul\":4975:5042   */\n      tag_158\n      jump\t// in\n    tag_170:\n        /* \"#utility.yul\":4968:5042   */\n      swap2\n      pop\n        /* \"#utility.yul\":5051:5144   */\n      tag_171\n        /* \"#utility.yul\":5140:5143   */\n      dup3\n        /* \"#utility.yul\":5051:5144   */\n      tag_172\n      jump\t// in\n    tag_171:\n        /* \"#utility.yul\":5169:5171   */\n      0x20\n        /* \"#utility.yul\":5164:5167   */\n      dup3\n        /* \"#utility.yul\":5160:5172   */\n      add\n        /* \"#utility.yul\":5153:5172   */\n      swap1\n      pop\n        /* \"#utility.yul\":4812:5178   */\n      swap2\n      swap1\n      pop\n      jump\t// out\n        /* \"#utility.yul\":5184:5550   */\n    tag_173:\n        /* \"#utility.yul\":5326:5329   */\n      0x00\n        /* \"#utility.yul\":5347:5414   */\n      tag_175\n        /* \"#utility.yul\":5411:5413   */\n      0x20\n        /* \"#utility.yul\":5406:5409   */\n      dup4\n        /* \"#utility.yul\":5347:5414   */\n      tag_158\n      jump\t// in\n    tag_175:\n        /* \"#utility.yul\":5340:5414   */\n      swap2\n      pop\n        /* \"#utility.yul\":5423:5516   */\n      tag_176\n        /* \"#utility.yul\":5512:5515   */\n      dup3\n        /* \"#utility.yul\":5423:5516   */\n      tag_177\n      jump\t// in\n    tag_176:\n        /* \"#utility.yul\":5541:5543   */\n      0x20\n        /* \"#utility.yul\":5536:5539   */\n      dup3\n        /* \"#utility.yul\":5532:5544   */\n      add\n        /* \"#utility.yul\":5525:5544   */\n      swap1\n      pop\n        /* \"#utility.yul\":5184:5550   */\n      swap2\n      swap1\n      pop\n      jump\t// out\n        /* \"#utility.yul\":5556:5922   */\n    tag_178:\n        /* \"#utility.yul\":5698:5701   */\n      0x00\n        /* \"#utility.yul\":5719:5786   */\n      tag_180\n        /* \"#utility.yul\":5783:5785   */\n      0x16\n        /* \"#utility.yul\":5778:5781   */\n      dup4\n        /* \"#utility.yul\":5719:5786   */\n      tag_158\n      jump\t// in\n    tag_180:\n        /* \"#utility.yul\":5712:5786   */\n      swap2\n      pop\n        /* \"#utility.yul\":5795:5888   */\n      tag_181\n        /* \"#utility.yul\":5884:5887   */\n      dup3\n        /* \"#utility.yul\":5795:5888   */\n      tag_182\n      jump\t// in\n    tag_181:\n        /* \"#utility.yul\":5913:5915   */\n      0x20\n        /* \"#utility.yul\":5908:5911   */\n      dup3\n        /* \"#utility.yul\":5904:5916   */\n      add\n        /* \"#utility.yul\":5897:5916   */\n      swap1\n      pop\n        /* \"#utility.yul\":5556:5922   */\n      swap2\n      swap1\n      pop\n      jump\t// out\n        /* \"#utility.yul\":5928:6294   */\n    tag_183:\n        /* \"#utility.yul\":6070:6073   */\n      0x00\n        /* \"#utility.yul\":6091:6158   */\n      tag_185\n        /* \"#utility.yul\":6155:6157   */\n      0x15\n        /* \"#utility.yul\":6150:6153   */\n      dup4\n        /* \"#utility.yul\":6091:6158   */\n      tag_158\n      jump\t// in\n    tag_185:\n        /* \"#utility.yul\":6084:6158   */\n      swap2\n      pop\n        /* \"#utility.yul\":6167:6260   */\n      tag_186\n        /* \"#utility.yul\":6256:6259   */\n      dup3\n        /* \"#utility.yul\":6167:6260   */\n      tag_187\n      jump\t// in\n    tag_186:\n        /* \"#utility.yul\":6285:6287   */\n      0x20\n        /* \"#utility.yul\":6280:6283   */\n      dup3\n        /* \"#utility.yul\":6276:6288   */\n      add\n        /* \"#utility.yul\":6269:6288   */\n      swap1\n      pop\n        /* \"#utility.yul\":5928:6294   */\n      swap2\n      swap1\n      pop\n      jump\t// out\n        /* \"#utility.yul\":6300:6666   */\n    tag_188:\n        /* \"#utility.yul\":6442:6445   */\n      0x00\n        /* \"#utility.yul\":6463:6530   */\n      tag_190\n        /* \"#utility.yul\":6527:6529   */\n      0x21\n        /* \"#utility.yul\":6522:6525   */\n      dup4\n        /* \"#utility.yul\":6463:6530   */\n      tag_158\n      jump\t// in\n    tag_190:\n        /* \"#utility.yul\":6456:6530   */\n      swap2\n      pop\n        /* \"#utility.yul\":6539:6632   */\n      tag_191\n        /* \"#utility.yul\":6628:6631   */\n      dup3\n        /* \"#utility.yul\":6539:6632   */\n      tag_192\n      jump\t// in\n    tag_191:\n        /* \"#utility.yul\":6657:6659   */\n      0x40\n        /* \"#utility.yul\":6652:6655   */\n      dup3\n        /* \"#utility.yul\":6648:6660   */\n      add\n        /* \"#utility.yul\":6641:6660   */\n      swap1\n      pop\n        /* \"#utility.yul\":6300:6666   */\n      swap2\n      swap1\n      pop\n      jump\t// out\n        /* \"#utility.yul\":6672:7038   */\n    tag_193:\n        /* \"#utility.yul\":6814:6817   */\n      0x00\n        /* \"#utility.yul\":6835:6902   */\n      tag_195\n        /* \"#utility.yul\":6899:6901   */\n      0x14\n        /* \"#utility.yul\":6894:6897   */\n      dup4\n        /* \"#utility.yul\":6835:6902   */\n      tag_158\n      jump\t// in\n    tag_195:\n        /* \"#utility.yul\":6828:6902   */\n      swap2\n      pop\n        /* \"#utility.yul\":6911:7004   */\n      tag_196\n        /* \"#utility.yul\":7000:7003   */\n      dup3\n        /* \"#utility.yul\":6911:7004   */\n      tag_197\n      jump\t// in\n    tag_196:\n        /* \"#utility.yul\":7029:7031   */\n      0x20\n        /* \"#utility.yul\":7024:7027   */\n      dup3\n        /* \"#utility.yul\":7020:7032   */\n      add\n        /* \"#utility.yul\":7013:7032   */\n      swap1\n      pop\n        /* \"#utility.yul\":6672:7038   */\n      swap2\n      swap1\n      pop\n      jump\t// out\n        /* \"#utility.yul\":7044:7162   */\n    tag_198:\n        /* \"#utility.yul\":7131:7155   */\n      tag_200\n        /* \"#utility.yul\":7149:7154   */\n      dup2\n        /* \"#utility.yul\":7131:7155   */\n      tag_201\n      jump\t// in\n    tag_200:\n        /* \"#utility.yul\":7126:7129   */\n      dup3\n        /* \"#utility.yul\":7119:7156   */\n      mstore\n        /* \"#utility.yul\":7044:7162   */\n      pop\n      pop\n      jump\t// out\n        /* \"#utility.yul\":7168:8034   */\n    tag_14:\n        /* \"#utility.yul\":7421:7425   */\n      0x00\n        /* \"#utility.yul\":7459:7462   */\n      0xc0\n        /* \"#utility.yul\":7448:7457   */\n      dup3\n        /* \"#utility.yul\":7444:7463   */\n      add\n        /* \"#utility.yul\":7436:7463   */\n      swap1\n      pop\n        /* \"#utility.yul\":7473:7544   */\n      tag_203\n        /* \"#utility.yul\":7541:7542   */\n      0x00\n        /* \"#utility.yul\":7530:7539   */\n      dup4\n        /* \"#utility.yul\":7526:7543   */\n      add\n        /* \"#utility.yul\":7517:7523   */\n      dup10\n        /* \"#utility.yul\":7473:7544   */\n      tag_149\n      jump\t// in\n    tag_203:\n        /* \"#utility.yul\":7554:7626   */\n      tag_204\n        /* \"#utility.yul\":7622:7624   */\n      0x20\n        /* \"#utility.yul\":7611:7620   */\n      dup4\n        /* \"#utility.yul\":7607:7625   */\n      add\n        /* \"#utility.yul\":7598:7604   */\n      dup9\n        /* \"#utility.yul\":7554:7626   */\n      tag_198\n      jump\t// in\n    tag_204:\n        /* \"#utility.yul\":7673:7682   */\n      dup2\n        /* \"#utility.yul\":7667:7671   */\n      dup2\n        /* \"#utility.yul\":7663:7683   */\n      sub\n        /* \"#utility.yul\":7658:7660   */\n      0x40\n        /* \"#utility.yul\":7647:7656   */\n      dup4\n        /* \"#utility.yul\":7643:7661   */\n      add\n        /* \"#utility.yul\":7636:7684   */\n      mstore\n        /* \"#utility.yul\":7701:7779   */\n      tag_205\n        /* \"#utility.yul\":7774:7778   */\n      dup2\n        /* \"#utility.yul\":7765:7771   */\n      dup8\n        /* \"#utility.yul\":7701:7779   */\n      tag_153\n      jump\t// in\n    tag_205:\n        /* \"#utility.yul\":7693:7779   */\n      swap1\n      pop\n        /* \"#utility.yul\":7789:7861   */\n      tag_206\n        /* \"#utility.yul\":7857:7859   */\n      0x60\n        /* \"#utility.yul\":7846:7855   */\n      dup4\n        /* \"#utility.yul\":7842:7860   */\n      add\n        /* \"#utility.yul\":7833:7839   */\n      dup7\n        /* \"#utility.yul\":7789:7861   */\n      tag_198\n      jump\t// in\n    tag_206:\n        /* \"#utility.yul\":7871:7944   */\n      tag_207\n        /* \"#utility.yul\":7939:7942   */\n      0x80\n        /* \"#utility.yul\":7928:7937   */\n      dup4\n        /* \"#utility.yul\":7924:7943   */\n      add\n        /* \"#utility.yul\":7915:7921   */\n      dup6\n        /* \"#utility.yul\":7871:7944   */\n      tag_198\n      jump\t// in\n    tag_207:\n        /* \"#utility.yul\":7954:8027   */\n      tag_208\n        /* \"#utility.yul\":8022:8025   */\n      0xa0\n        /* \"#utility.yul\":8011:8020   */\n      dup4\n        /* \"#utility.yul\":8007:8026   */\n      add\n        /* \"#utility.yul\":7998:8004   */\n      dup5\n        /* \"#utility.yul\":7954:8027   */\n      tag_198\n      jump\t// in\n    tag_208:\n        /* \"#utility.yul\":7168:8034   */\n      swap8\n      swap7\n      pop\n      pop\n      pop\n      pop\n      pop\n      pop\n      pop\n      jump\t// out\n        /* \"#utility.yul\":8040:8459   */\n    tag_57:\n        /* \"#utility.yul\":8206:8210   */\n      0x00\n        /* \"#utility.yul\":8244:8246   */\n      0x20\n        /* \"#utility.yul\":8233:8242   */\n      dup3\n        /* \"#utility.yul\":8229:8247   */\n      add\n        /* \"#utility.yul\":8221:8247   */\n      swap1\n      pop\n        /* \"#utility.yul\":8293:8302   */\n      dup2\n        /* \"#utility.yul\":8287:8291   */\n      dup2\n        /* \"#utility.yul\":8283:8303   */\n      sub\n        /* \"#utility.yul\":8279:8280   */\n      0x00\n        /* \"#utility.yul\":8268:8277   */\n      dup4\n        /* \"#utility.yul\":8264:8281   */\n      add\n        /* \"#utility.yul\":8257:8304   */\n      mstore\n        /* \"#utility.yul\":8321:8452   */\n      tag_210\n        /* \"#utility.yul\":8447:8451   */\n      dup2\n        /* \"#utility.yul\":8321:8452   */\n      tag_163\n      jump\t// in\n    tag_210:\n        /* \"#utility.yul\":8313:8452   */\n      swap1\n      pop\n        /* \"#utility.yul\":8040:8459   */\n      swap2\n      swap1\n      pop\n      jump\t// out\n        /* \"#utility.yul\":8465:8884   */\n    tag_60:\n        /* \"#utility.yul\":8631:8635   */\n      0x00\n        /* \"#utility.yul\":8669:8671   */\n      0x20\n        /* \"#utility.yul\":8658:8667   */\n      dup3\n        /* \"#utility.yul\":8654:8672   */\n      add\n        /* \"#utility.yul\":8646:8672   */\n      swap1\n      pop\n        /* \"#utility.yul\":8718:8727   */\n      dup2\n        /* \"#utility.yul\":8712:8716   */\n      dup2\n        /* \"#utility.yul\":8708:8728   */\n      sub\n        /* \"#utility.yul\":8704:8705   */\n      0x00\n        /* \"#utility.yul\":8693:8702   */\n      dup4\n        /* \"#utility.yul\":8689:8706   */\n      add\n        /* \"#utility.yul\":8682:8729   */\n      mstore\n        /* \"#utility.yul\":8746:8877   */\n      tag_212\n        /* \"#utility.yul\":8872:8876   */\n      dup2\n        /* \"#utility.yul\":8746:8877   */\n      tag_168\n      jump\t// in\n    tag_212:\n        /* \"#utility.yul\":8738:8877   */\n      swap1\n      pop\n        /* \"#utility.yul\":8465:8884   */\n      swap2\n      swap1\n      pop\n      jump\t// out\n        /* \"#utility.yul\":8890:9309   */\n    tag_77:\n        /* \"#utility.yul\":9056:9060   */\n      0x00\n        /* \"#utility.yul\":9094:9096   */\n      0x20\n        /* \"#utility.yul\":9083:9092   */\n      dup3\n        /* \"#utility.yul\":9079:9097   */\n      add\n        /* \"#utility.yul\":9071:9097   */\n      swap1\n      pop\n        /* \"#utility.yul\":9143:9152   */\n      dup2\n        /* \"#utility.yul\":9137:9141   */\n      dup2\n        /* \"#utility.yul\":9133:9153   */\n      sub\n        /* \"#utility.yul\":9129:9130   */\n      0x00\n        /* \"#utility.yul\":9118:9127   */\n      dup4\n        /* \"#utility.yul\":9114:9131   */\n      add\n        /* \"#utility.yul\":9107:9154   */\n      mstore\n        /* \"#utility.yul\":9171:9302   */\n      tag_214\n        /* \"#utility.yul\":9297:9301   */\n      dup2\n        /* \"#utility.yul\":9171:9302   */\n      tag_173\n      jump\t// in\n    tag_214:\n        /* \"#utility.yul\":9163:9302   */\n      swap1\n      pop\n        /* \"#utility.yul\":8890:9309   */\n      swap2\n      swap1\n      pop\n      jump\t// out\n        /* \"#utility.yul\":9315:9734   */\n    tag_52:\n        /* \"#utility.yul\":9481:9485   */\n      0x00\n        /* \"#utility.yul\":9519:9521   */\n      0x20\n        /* \"#utility.yul\":9508:9517   */\n      dup3\n        /* \"#utility.yul\":9504:9522   */\n      add\n        /* \"#utility.yul\":9496:9522   */\n      swap1\n      pop\n        /* \"#utility.yul\":9568:9577   */\n      dup2\n        /* \"#utility.yul\":9562:9566   */\n      dup2\n        /* \"#utility.yul\":9558:9578   */\n      sub\n        /* \"#utility.yul\":9554:9555   */\n      0x00\n        /* \"#utility.yul\":9543:9552   */\n      dup4\n        /* \"#utility.yul\":9539:9556   */\n      add\n        /* \"#utility.yul\":9532:9579   */\n      mstore\n        /* \"#utility.yul\":9596:9727   */\n      tag_216\n        /* \"#utility.yul\":9722:9726   */\n      dup2\n        /* \"#utility.yul\":9596:9727   */\n      tag_178\n      jump\t// in\n    tag_216:\n        /* \"#utility.yul\":9588:9727   */\n      swap1\n      pop\n        /* \"#utility.yul\":9315:9734   */\n      swap2\n      swap1\n      pop\n      jump\t// out\n        /* \"#utility.yul\":9740:10159   */\n    tag_70:\n        /* \"#utility.yul\":9906:9910   */\n      0x00\n        /* \"#utility.yul\":9944:9946   */\n      0x20\n        /* \"#utility.yul\":9933:9942   */\n      dup3\n        /* \"#utility.yul\":9929:9947   */\n      add\n        /* \"#utility.yul\":9921:9947   */\n      swap1\n      pop\n        /* \"#utility.yul\":9993:10002   */\n      dup2\n        /* \"#utility.yul\":9987:9991   */\n      dup2\n        /* \"#utility.yul\":9983:10003   */\n      sub\n        /* \"#utility.yul\":9979:9980   */\n      0x00\n        /* \"#utility.yul\":9968:9977   */\n      dup4\n        /* \"#utility.yul\":9964:9981   */\n      add\n        /* \"#utility.yul\":9957:10004   */\n      mstore\n        /* \"#utility.yul\":10021:10152   */\n      tag_218\n        /* \"#utility.yul\":10147:10151   */\n      dup2\n        /* \"#utility.yul\":10021:10152   */\n      tag_183\n      jump\t// in\n    tag_218:\n        /* \"#utility.yul\":10013:10152   */\n      swap1\n      pop\n        /* \"#utility.yul\":9740:10159   */\n      swap2\n      swap1\n      pop\n      jump\t// out\n        /* \"#utility.yul\":10165:10584   */\n    tag_74:\n        /* \"#utility.yul\":10331:10335   */\n      0x00\n        /* \"#utility.yul\":10369:10371   */\n      0x20\n        /* \"#utility.yul\":10358:10367   */\n      dup3\n        /* \"#utility.yul\":10354:10372   */\n      add\n        /* \"#utility.yul\":10346:10372   */\n      swap1\n      pop\n        /* \"#utility.yul\":10418:10427   */\n      dup2\n        /* \"#utility.yul\":10412:10416   */\n      dup2\n        /* \"#utility.yul\":10408:10428   */\n      sub\n        /* \"#utility.yul\":10404:10405   */\n      0x00\n        /* \"#utility.yul\":10393:10402   */\n      dup4\n        /* \"#utility.yul\":10389:10406   */\n      add\n        /* \"#utility.yul\":10382:10429   */\n      mstore\n        /* \"#utility.yul\":10446:10577   */\n      tag_220\n        /* \"#utility.yul\":10572:10576   */\n      dup2\n        /* \"#utility.yul\":10446:10577   */\n      tag_188\n      jump\t// in\n    tag_220:\n        /* \"#utility.yul\":10438:10577   */\n      swap1\n      pop\n        /* \"#utility.yul\":10165:10584   */\n      swap2\n      swap1\n      pop\n      jump\t// out\n        /* \"#utility.yul\":10590:11009   */\n    tag_49:\n        /* \"#utility.yul\":10756:10760   */\n      0x00\n        /* \"#utility.yul\":10794:10796   */\n      0x20\n        /* \"#utility.yul\":10783:10792   */\n      dup3\n        /* \"#utility.yul\":10779:10797   */\n      add\n        /* \"#utility.yul\":10771:10797   */\n      swap1\n      pop\n        /* \"#utility.yul\":10843:10852   */\n      dup2\n        /* \"#utility.yul\":10837:10841   */\n      dup2\n        /* \"#utility.yul\":10833:10853   */\n      sub\n        /* \"#utility.yul\":10829:10830   */\n      0x00\n        /* \"#utility.yul\":10818:10827   */\n      dup4\n        /* \"#utility.yul\":10814:10831   */\n      add\n        /* \"#utility.yul\":10807:10854   */\n      mstore\n        /* \"#utility.yul\":10871:11002   */\n      tag_222\n        /* \"#utility.yul\":10997:11001   */\n      dup2\n        /* \"#utility.yul\":10871:11002   */\n      tag_193\n      jump\t// in\n    tag_222:\n        /* \"#utility.yul\":10863:11002   */\n      swap1\n      pop\n        /* \"#utility.yul\":10590:11009   */\n      swap2\n      swap1\n      pop\n      jump\t// out\n        /* \"#utility.yul\":11015:11237   */\n    tag_23:\n        /* \"#utility.yul\":11108:11112   */\n      0x00\n        /* \"#utility.yul\":11146:11148   */\n      0x20\n        /* \"#utility.yul\":11135:11144   */\n      dup3\n        /* \"#utility.yul\":11131:11149   */\n      add\n        /* \"#utility.yul\":11123:11149   */\n      swap1\n      pop\n        /* \"#utility.yul\":11159:11230   */\n      tag_224\n        /* \"#utility.yul\":11227:11228   */\n      0x00\n        /* \"#utility.yul\":11216:11225   */\n      dup4\n        /* \"#utility.yul\":11212:11229   */\n      add\n        /* \"#utility.yul\":11203:11209   */\n      dup5\n        /* \"#utility.yul\":11159:11230   */\n      tag_198\n      jump\t// in\n    tag_224:\n        /* \"#utility.yul\":11015:11237   */\n      swap3\n      swap2\n      pop\n      pop\n      jump\t// out\n        /* \"#utility.yul\":11243:11372   */\n    tag_98:\n        /* \"#utility.yul\":11277:11283   */\n      0x00\n        /* \"#utility.yul\":11304:11324   */\n      tag_226\n      tag_227\n      jump\t// in\n    tag_226:\n        /* \"#utility.yul\":11294:11324   */\n      swap1\n      pop\n        /* \"#utility.yul\":11333:11366   */\n      tag_228\n        /* \"#utility.yul\":11361:11365   */\n      dup3\n        /* \"#utility.yul\":11353:11359   */\n      dup3\n        /* \"#utility.yul\":11333:11366   */\n      tag_229\n      jump\t// in\n    tag_228:\n        /* \"#utility.yul\":11243:11372   */\n      swap2\n      swap1\n      pop\n      jump\t// out\n        /* \"#utility.yul\":11378:11453   */\n    tag_227:\n        /* \"#utility.yul\":11411:11417   */\n      0x00\n        /* \"#utility.yul\":11444:11446   */\n      0x40\n        /* \"#utility.yul\":11438:11447   */\n      mload\n        /* \"#utility.yul\":11428:11447   */\n      swap1\n      pop\n        /* \"#utility.yul\":11378:11453   */\n      swap1\n      jump\t// out\n        /* \"#utility.yul\":11459:11767   */\n    tag_97:\n        /* \"#utility.yul\":11521:11525   */\n      0x00\n        /* \"#utility.yul\":11611:11629   */\n      0xffffffffffffffff\n        /* \"#utility.yul\":11603:11609   */\n      dup3\n        /* \"#utility.yul\":11600:11630   */\n      gt\n        /* \"#utility.yul\":11597:11653   */\n      iszero\n      tag_232\n      jumpi\n        /* \"#utility.yul\":11633:11651   */\n      tag_233\n      tag_234\n      jump\t// in\n    tag_233:\n        /* \"#utility.yul\":11597:11653   */\n    tag_232:\n        /* \"#utility.yul\":11671:11700   */\n      tag_235\n        /* \"#utility.yul\":11693:11699   */\n      dup3\n        /* \"#utility.yul\":11671:11700   */\n      tag_162\n      jump\t// in\n    tag_235:\n        /* \"#utility.yul\":11663:11700   */\n      swap1\n      pop\n        /* \"#utility.yul\":11755:11759   */\n      0x20\n        /* \"#utility.yul\":11749:11753   */\n      dup2\n        /* \"#utility.yul\":11745:11760   */\n      add\n        /* \"#utility.yul\":11737:11760   */\n      swap1\n      pop\n        /* \"#utility.yul\":11459:11767   */\n      swap2\n      swap1\n      pop\n      jump\t// out\n        /* \"#utility.yul\":11773:11872   */\n    tag_156:\n        /* \"#utility.yul\":11825:11831   */\n      0x00\n        /* \"#utility.yul\":11859:11864   */\n      dup2\n        /* \"#utility.yul\":11853:11865   */\n      mload\n        /* \"#utility.yul\":11843:11865   */\n      swap1\n      pop\n        /* \"#utility.yul\":11773:11872   */\n      swap2\n      swap1\n      pop\n      jump\t// out\n        /* \"#utility.yul\":11878:12047   */\n    tag_158:\n        /* \"#utility.yul\":11962:11973   */\n      0x00\n        /* \"#utility.yul\":11996:12002   */\n      dup3\n        /* \"#utility.yul\":11991:11994   */\n      dup3\n        /* \"#utility.yul\":11984:12003   */\n      mstore\n        /* \"#utility.yul\":12036:12040   */\n      0x20\n        /* \"#utility.yul\":12031:12034   */\n      dup3\n        /* \"#utility.yul\":12027:12041   */\n      add\n        /* \"#utility.yul\":12012:12041   */\n      swap1\n      pop\n        /* \"#utility.yul\":11878:12047   */\n      swap3\n      swap2\n      pop\n      pop\n      jump\t// out\n        /* \"#utility.yul\":12053:12358   */\n    tag_64:\n        /* \"#utility.yul\":12093:12096   */\n      0x00\n        /* \"#utility.yul\":12112:12132   */\n      tag_239\n        /* \"#utility.yul\":12130:12131   */\n      dup3\n        /* \"#utility.yul\":12112:12132   */\n      tag_201\n      jump\t// in\n    tag_239:\n        /* \"#utility.yul\":12107:12132   */\n      swap2\n      pop\n        /* \"#utility.yul\":12146:12166   */\n      tag_240\n        /* \"#utility.yul\":12164:12165   */\n      dup4\n        /* \"#utility.yul\":12146:12166   */\n      tag_201\n      jump\t// in\n    tag_240:\n        /* \"#utility.yul\":12141:12166   */\n      swap3\n      pop\n        /* \"#utility.yul\":12300:12301   */\n      dup3\n        /* \"#utility.yul\":12232:12298   */\n      0xffffffffffffffffffffffffffffffffffffffffffffffffffffffffffffffff\n        /* \"#utility.yul\":12228:12302   */\n      sub\n        /* \"#utility.yul\":12225:12226   */\n      dup3\n        /* \"#utility.yul\":12222:12303   */\n      gt\n        /* \"#utility.yul\":12219:12326   */\n      iszero\n      tag_241\n      jumpi\n        /* \"#utility.yul\":12306:12324   */\n      tag_242\n      tag_243\n      jump\t// in\n    tag_242:\n        /* \"#utility.yul\":12219:12326   */\n    tag_241:\n        /* \"#utility.yul\":12350:12351   */\n      dup3\n        /* \"#utility.yul\":12347:12348   */\n      dup3\n        /* \"#utility.yul\":12343:12352   */\n      add\n        /* \"#utility.yul\":12336:12352   */\n      swap1\n      pop\n        /* \"#utility.yul\":12053:12358   */\n      swap3\n      swap2\n      pop\n      pop\n      jump\t// out\n        /* \"#utility.yul\":12364:12712   */\n    tag_54:\n        /* \"#utility.yul\":12404:12411   */\n      0x00\n        /* \"#utility.yul\":12427:12447   */\n      tag_245\n        /* \"#utility.yul\":12445:12446   */\n      dup3\n        /* \"#utility.yul\":12427:12447   */\n      tag_201\n      jump\t// in\n    tag_245:\n        /* \"#utility.yul\":12422:12447   */\n      swap2\n      pop\n        /* \"#utility.yul\":12461:12481   */\n      tag_246\n        /* \"#utility.yul\":12479:12480   */\n      dup4\n        /* \"#utility.yul\":12461:12481   */\n      tag_201\n      jump\t// in\n    tag_246:\n        /* \"#utility.yul\":12456:12481   */\n      swap3\n      pop\n        /* \"#utility.yul\":12649:12650   */\n      dup2\n        /* \"#utility.yul\":12581:12647   */\n      0xffffffffffffffffffffffffffffffffffffffffffffffffffffffffffffffff\n        /* \"#utility.yul\":12577:12651   */\n      div\n        /* \"#utility.yul\":12574:12575   */\n      dup4\n        /* \"#utility.yul\":12571:12652   */\n      gt\n        /* \"#utility.yul\":12566:12567   */\n      dup3\n        /* \"#utility.yul\":12559:12568   */\n      iszero\n        /* \"#utility.yul\":12552:12569   */\n      iszero\n        /* \"#utility.yul\":12548:12653   */\n      and\n        /* \"#utility.yul\":12545:12676   */\n      iszero\n      tag_247\n      jumpi\n        /* \"#utility.yul\":12656:12674   */\n      tag_248\n      tag_243\n      jump\t// in\n    tag_248:\n        /* \"#utility.yul\":12545:12676   */\n    tag_247:\n        /* \"#utility.yul\":12704:12705   */\n      dup3\n        /* \"#utility.yul\":12701:12702   */\n      dup3\n        /* \"#utility.yul\":12697:12706   */\n      mul\n        /* \"#utility.yul\":12686:12706   */\n      swap1\n      pop\n        /* \"#utility.yul\":12364:12712   */\n      swap3\n      swap2\n      pop\n      pop\n      jump\t// out\n        /* \"#utility.yul\":12718:12909   */\n    tag_62:\n        /* \"#utility.yul\":12758:12762   */\n      0x00\n        /* \"#utility.yul\":12778:12798   */\n      tag_250\n        /* \"#utility.yul\":12796:12797   */\n      dup3\n        /* \"#utility.yul\":12778:12798   */\n      tag_201\n      jump\t// in\n    tag_250:\n        /* \"#utility.yul\":12773:12798   */\n      swap2\n      pop\n        /* \"#utility.yul\":12812:12832   */\n      tag_251\n        /* \"#utility.yul\":12830:12831   */\n      dup4\n        /* \"#utility.yul\":12812:12832   */\n      tag_201\n      jump\t// in\n    tag_251:\n        /* \"#utility.yul\":12807:12832   */\n      swap3\n      pop\n        /* \"#utility.yul\":12851:12852   */\n      dup3\n        /* \"#utility.yul\":12848:12849   */\n      dup3\n        /* \"#utility.yul\":12845:12853   */\n      lt\n        /* \"#utility.yul\":12842:12876   */\n      iszero\n      tag_252\n      jumpi\n        /* \"#utility.yul\":12856:12874   */\n      tag_253\n      tag_243\n      jump\t// in\n    tag_253:\n        /* \"#utility.yul\":12842:12876   */\n    tag_252:\n        /* \"#utility.yul\":12901:12902   */\n      dup3\n        /* \"#utility.yul\":12898:12899   */\n      dup3\n        /* \"#utility.yul\":12894:12903   */\n      sub\n        /* \"#utility.yul\":12886:12903   */\n      swap1\n      pop\n        /* \"#utility.yul\":12718:12909   */\n      swap3\n      swap2\n      pop\n      pop\n      jump\t// out\n        /* \"#utility.yul\":12915:13011   */\n    tag_152:\n        /* \"#utility.yul\":12952:12959   */\n      0x00\n        /* \"#utility.yul\":12981:13005   */\n      tag_255\n        /* \"#utility.yul\":12999:13004   */\n      dup3\n        /* \"#utility.yul\":12981:13005   */\n      tag_256\n      jump\t// in\n    tag_255:\n        /* \"#utility.yul\":12970:13005   */\n      swap1\n      pop\n        /* \"#utility.yul\":12915:13011   */\n      swap2\n      swap1\n      pop\n      jump\t// out\n        /* \"#utility.yul\":13017:13143   */\n    tag_256:\n        /* \"#utility.yul\":13054:13061   */\n      0x00\n        /* \"#utility.yul\":13094:13136   */\n      0xffffffffffffffffffffffffffffffffffffffff\n        /* \"#utility.yul\":13087:13092   */\n      dup3\n        /* \"#utility.yul\":13083:13137   */\n      and\n        /* \"#utility.yul\":13072:13137   */\n      swap1\n      pop\n        /* \"#utility.yul\":13017:13143   */\n      swap2\n      swap1\n      pop\n      jump\t// out\n        /* \"#utility.yul\":13149:13226   */\n    tag_201:\n        /* \"#utility.yul\":13186:13193   */\n      0x00\n        /* \"#utility.yul\":13215:13220   */\n      dup2\n        /* \"#utility.yul\":13204:13220   */\n      swap1\n      pop\n        /* \"#utility.yul\":13149:13226   */\n      swap2\n      swap1\n      pop\n      jump\t// out\n        /* \"#utility.yul\":13232:13386   */\n    tag_103:\n        /* \"#utility.yul\":13316:13322   */\n      dup3\n        /* \"#utility.yul\":13311:13314   */\n      dup2\n        /* \"#utility.yul\":13306:13309   */\n      dup4\n        /* \"#utility.yul\":13293:13323   */\n      calldatacopy\n        /* \"#utility.yul\":13378:13379   */\n      0x00\n        /* \"#utility.yul\":13369:13375   */\n      dup4\n        /* \"#utility.yul\":13364:13367   */\n      dup4\n        /* \"#utility.yul\":13360:13376   */\n      add\n        /* \"#utility.yul\":13353:13380   */\n      mstore\n        /* \"#utility.yul\":13232:13386   */\n      pop\n      pop\n      pop\n      jump\t// out\n        /* \"#utility.yul\":13392:13699   */\n    tag_160:\n        /* \"#utility.yul\":13460:13461   */\n      0x00\n        /* \"#utility.yul\":13470:13583   */\n    tag_261:\n        /* \"#utility.yul\":13484:13490   */\n      dup4\n        /* \"#utility.yul\":13481:13482   */\n      dup2\n        /* \"#utility.yul\":13478:13491   */\n      lt\n        /* \"#utility.yul\":13470:13583   */\n      iszero\n      tag_263\n      jumpi\n        /* \"#utility.yul\":13569:13570   */\n      dup1\n        /* \"#utility.yul\":13564:13567   */\n      dup3\n        /* \"#utility.yul\":13560:13571   */\n      add\n        /* \"#utility.yul\":13554:13572   */\n      mload\n        /* \"#utility.yul\":13550:13551   */\n      dup2\n        /* \"#utility.yul\":13545:13548   */\n      dup5\n        /* \"#utility.yul\":13541:13552   */\n      add\n        /* \"#utility.yul\":13534:13573   */\n      mstore\n        /* \"#utility.yul\":13506:13508   */\n      0x20\n        /* \"#utility.yul\":13503:13504   */\n      dup2\n        /* \"#utility.yul\":13499:13509   */\n      add\n        /* \"#utility.yul\":13494:13509   */\n      swap1\n      pop\n        /* \"#utility.yul\":13470:13583   */\n      jump(tag_261)\n    tag_263:\n        /* \"#utility.yul\":13601:13607   */\n      dup4\n        /* \"#utility.yul\":13598:13599   */\n      dup2\n        /* \"#utility.yul\":13595:13608   */\n      gt\n        /* \"#utility.yul\":13592:13693   */\n      iszero\n      tag_264\n      jumpi\n        /* \"#utility.yul\":13681:13682   */\n      0x00\n        /* \"#utility.yul\":13672:13678   */\n      dup5\n        /* \"#utility.yul\":13667:13670   */\n      dup5\n        /* \"#utility.yul\":13663:13679   */\n      add\n        /* \"#utility.yul\":13656:13683   */\n      mstore\n        /* \"#utility.yul\":13592:13693   */\n    tag_264:\n        /* \"#utility.yul\":13441:13699   */\n      pop\n        /* \"#utility.yul\":13392:13699   */\n      pop\n      pop\n      pop\n      jump\t// out\n        /* \"#utility.yul\":13705:14025   */\n    tag_41:\n        /* \"#utility.yul\":13749:13755   */\n      0x00\n        /* \"#utility.yul\":13786:13787   */\n      0x02\n        /* \"#utility.yul\":13780:13784   */\n      dup3\n        /* \"#utility.yul\":13776:13788   */\n      div\n        /* \"#utility.yul\":13766:13788   */\n      swap1\n      pop\n        /* \"#utility.yul\":13833:13834   */\n      0x01\n        /* \"#utility.yul\":13827:13831   */\n      dup3\n        /* \"#utility.yul\":13823:13835   */\n      and\n        /* \"#utility.yul\":13854:13872   */\n      dup1\n        /* \"#utility.yul\":13844:13925   */\n      tag_266\n      jumpi\n        /* \"#utility.yul\":13910:13914   */\n      0x7f\n        /* \"#utility.yul\":13902:13908   */\n      dup3\n        /* \"#utility.yul\":13898:13915   */\n      and\n        /* \"#utility.yul\":13888:13915   */\n      swap2\n      pop\n        /* \"#utility.yul\":13844:13925   */\n    tag_266:\n        /* \"#utility.yul\":13972:13974   */\n      0x20\n        /* \"#utility.yul\":13964:13970   */\n      dup3\n        /* \"#utility.yul\":13961:13975   */\n      lt\n        /* \"#utility.yul\":13941:13959   */\n      dup2\n        /* \"#utility.yul\":13938:13976   */\n      eq\n        /* \"#utility.yul\":13935:14019   */\n      iszero\n      tag_267\n      jumpi\n        /* \"#utility.yul\":13991:14009   */\n      tag_268\n      tag_269\n      jump\t// in\n    tag_268:\n        /* \"#utility.yul\":13935:14019   */\n    tag_267:\n        /* \"#utility.yul\":13756:14025   */\n      pop\n        /* \"#utility.yul\":13705:14025   */\n      swap2\n      swap1\n      pop\n      jump\t// out\n        /* \"#utility.yul\":14031:14312   */\n    tag_229:\n        /* \"#utility.yul\":14114:14141   */\n      tag_271\n        /* \"#utility.yul\":14136:14140   */\n      dup3\n        /* \"#utility.yul\":14114:14141   */\n      tag_162\n      jump\t// in\n    tag_271:\n        /* \"#utility.yul\":14106:14112   */\n      dup2\n        /* \"#utility.yul\":14102:14142   */\n      add\n        /* \"#utility.yul\":14244:14250   */\n      dup2\n        /* \"#utility.yul\":14232:14242   */\n      dup2\n        /* \"#utility.yul\":14229:14251   */\n      lt\n        /* \"#utility.yul\":14208:14226   */\n      0xffffffffffffffff\n        /* \"#utility.yul\":14196:14206   */\n      dup3\n        /* \"#utility.yul\":14193:14227   */\n      gt\n        /* \"#utility.yul\":14190:14252   */\n      or\n        /* \"#utility.yul\":14187:14275   */\n      iszero\n      tag_272\n      jumpi\n        /* \"#utility.yul\":14255:14273   */\n      tag_273\n      tag_234\n      jump\t// in\n    tag_273:\n        /* \"#utility.yul\":14187:14275   */\n    tag_272:\n        /* \"#utility.yul\":14295:14305   */\n      dup1\n        /* \"#utility.yul\":14291:14293   */\n      0x40\n        /* \"#utility.yul\":14284:14306   */\n      mstore\n        /* \"#utility.yul\":14074:14312   */\n      pop\n        /* \"#utility.yul\":14031:14312   */\n      pop\n      pop\n      jump\t// out\n        /* \"#utility.yul\":14318:14551   */\n    tag_81:\n        /* \"#utility.yul\":14357:14360   */\n      0x00\n        /* \"#utility.yul\":14380:14404   */\n      tag_275\n        /* \"#utility.yul\":14398:14403   */\n      dup3\n        /* \"#utility.yul\":14380:14404   */\n      tag_201\n      jump\t// in\n    tag_275:\n        /* \"#utility.yul\":14371:14404   */\n      swap2\n      pop\n        /* \"#utility.yul\":14426:14492   */\n      0xffffffffffffffffffffffffffffffffffffffffffffffffffffffffffffffff\n        /* \"#utility.yul\":14419:14424   */\n      dup3\n        /* \"#utility.yul\":14416:14493   */\n      eq\n        /* \"#utility.yul\":14413:14516   */\n      iszero\n      tag_276\n      jumpi\n        /* \"#utility.yul\":14496:14514   */\n      tag_277\n      tag_243\n      jump\t// in\n    tag_277:\n        /* \"#utility.yul\":14413:14516   */\n    tag_276:\n        /* \"#utility.yul\":14543:14544   */\n      0x01\n        /* \"#utility.yul\":14536:14541   */\n      dup3\n        /* \"#utility.yul\":14532:14545   */\n      add\n        /* \"#utility.yul\":14525:14545   */\n      swap1\n      pop\n        /* \"#utility.yul\":14318:14551   */\n      swap2\n      swap1\n      pop\n      jump\t// out\n        /* \"#utility.yul\":14557:14737   */\n    tag_243:\n        /* \"#utility.yul\":14605:14682   */\n      0x4e487b7100000000000000000000000000000000000000000000000000000000\n        /* \"#utility.yul\":14602:14603   */\n      0x00\n        /* \"#utility.yul\":14595:14683   */\n      mstore\n        /* \"#utility.yul\":14702:14706   */\n      0x11\n        /* \"#utility.yul\":14699:14700   */\n      0x04\n        /* \"#utility.yul\":14692:14707   */\n      mstore\n        /* \"#utility.yul\":14726:14730   */\n      0x24\n        /* \"#utility.yul\":14723:14724   */\n      0x00\n        /* \"#utility.yul\":14716:14731   */\n      revert\n        /* \"#utility.yul\":14743:14923   */\n    tag_269:\n        /* \"#utility.yul\":14791:14868   */\n      0x4e487b7100000000000000000000000000000000000000000000000000000000\n        /* \"#utility.yul\":14788:14789   */\n      0x00\n        /* \"#utility.yul\":14781:14869   */\n      mstore\n        /* \"#utility.yul\":14888:14892   */\n      0x22\n        /* \"#utility.yul\":14885:14886   */\n      0x04\n        /* \"#utility.yul\":14878:14893   */\n      mstore\n        /* \"#utility.yul\":14912:14916   */\n      0x24\n        /* \"#utility.yul\":14909:14910   */\n      0x00\n        /* \"#utility.yul\":14902:14917   */\n      revert\n        /* \"#utility.yul\":14929:15109   */\n    tag_234:\n        /* \"#utility.yul\":14977:15054   */\n      0x4e487b7100000000000000000000000000000000000000000000000000000000\n        /* \"#utility.yul\":14974:14975   */\n      0x00\n        /* \"#utility.yul\":14967:15055   */\n      mstore\n        /* \"#utility.yul\":15074:15078   */\n      0x41\n        /* \"#utility.yul\":15071:15072   */\n      0x04\n        /* \"#utility.yul\":15064:15079   */\n      mstore\n        /* \"#utility.yul\":15098:15102   */\n      0x24\n        /* \"#utility.yul\":15095:15096   */\n      0x00\n        /* \"#utility.yul\":15088:15103   */\n      revert\n        /* \"#utility.yul\":15115:15232   */\n    tag_112:\n        /* \"#utility.yul\":15224:15225   */\n      0x00\n        /* \"#utility.yul\":15221:15222   */\n      dup1\n        /* \"#utility.yul\":15214:15226   */\n      revert\n        /* \"#utility.yul\":15238:15355   */\n    tag_101:\n        /* \"#utility.yul\":15347:15348   */\n      0x00\n        /* \"#utility.yul\":15344:15345   */\n      dup1\n        /* \"#utility.yul\":15337:15349   */\n      revert\n        /* \"#utility.yul\":15361:15478   */\n    tag_134:\n        /* \"#utility.yul\":15470:15471   */\n      0x00\n        /* \"#utility.yul\":15467:15468   */\n      dup1\n        /* \"#utility.yul\":15460:15472   */\n      revert\n        /* \"#utility.yul\":15484:15601   */\n    tag_121:\n        /* \"#utility.yul\":15593:15594   */\n      0x00\n        /* \"#utility.yul\":15590:15591   */\n      dup1\n        /* \"#utility.yul\":15583:15595   */\n      revert\n        /* \"#utility.yul\":15607:15709   */\n    tag_162:\n        /* \"#utility.yul\":15648:15654   */\n      0x00\n        /* \"#utility.yul\":15699:15701   */\n      0x1f\n        /* \"#utility.yul\":15695:15702   */\n      not\n        /* \"#utility.yul\":15690:15692   */\n      0x1f\n        /* \"#utility.yul\":15683:15688   */\n      dup4\n        /* \"#utility.yul\":15679:15693   */\n      add\n        /* \"#utility.yul\":15675:15703   */\n      and\n        /* \"#utility.yul\":15665:15703   */\n      swap1\n      pop\n        /* \"#utility.yul\":15607:15709   */\n      swap2\n      swap1\n      pop\n      jump\t// out\n        /* \"#utility.yul\":15715:15886   */\n    tag_167:\n        /* \"#utility.yul\":15855:15878   */\n      0x457468657273206973206e6f7420656e6f756768210000000000000000000000\n        /* \"#utility.yul\":15851:15852   */\n      0x00\n        /* \"#utility.yul\":15843:15849   */\n      dup3\n        /* \"#utility.yul\":15839:15853   */\n      add\n        /* \"#utility.yul\":15832:15879   */\n      mstore\n        /* \"#utility.yul\":15715:15886   */\n      pop\n      jump\t// out\n        /* \"#utility.yul\":15892:16070   */\n    tag_172:\n        /* \"#utility.yul\":16032:16062   */\n      0x576520646f6e2774206861766520656e6f756768207469636b65747300000000\n        /* \"#utility.yul\":16028:16029   */\n      0x00\n        /* \"#utility.yul\":16020:16026   */\n      dup3\n        /* \"#utility.yul\":16016:16030   */\n      add\n        /* \"#utility.yul\":16009:16063   */\n      mstore\n        /* \"#utility.yul\":15892:16070   */\n      pop\n      jump\t// out\n        /* \"#utility.yul\":16076:16258   */\n    tag_177:\n        /* \"#utility.yul\":16216:16250   */\n      0x4576656e74206d75737420686176652061746c656173742031207469636b6574\n        /* \"#utility.yul\":16212:16213   */\n      0x00\n        /* \"#utility.yul\":16204:16210   */\n      dup3\n        /* \"#utility.yul\":16200:16214   */\n      add\n        /* \"#utility.yul\":16193:16251   */\n      mstore\n        /* \"#utility.yul\":16076:16258   */\n      pop\n      jump\t// out\n        /* \"#utility.yul\":16264:16436   */\n    tag_182:\n        /* \"#utility.yul\":16404:16428   */\n      0x4576656e7420626f6f6b696e6720697320636c6f736500000000000000000000\n        /* \"#utility.yul\":16400:16401   */\n      0x00\n        /* \"#utility.yul\":16392:16398   */\n      dup3\n        /* \"#utility.yul\":16388:16402   */\n      add\n        /* \"#utility.yul\":16381:16429   */\n      mstore\n        /* \"#utility.yul\":16264:16436   */\n      pop\n      jump\t// out\n        /* \"#utility.yul\":16442:16613   */\n    tag_187:\n        /* \"#utility.yul\":16582:16605   */\n      0x4576656e7420616c7265616479206f6363757265640000000000000000000000\n        /* \"#utility.yul\":16578:16579   */\n      0x00\n        /* \"#utility.yul\":16570:16576   */\n      dup3\n        /* \"#utility.yul\":16566:16580   */\n      add\n        /* \"#utility.yul\":16559:16606   */\n      mstore\n        /* \"#utility.yul\":16442:16613   */\n      pop\n      jump\t// out\n        /* \"#utility.yul\":16619:16839   */\n    tag_192:\n        /* \"#utility.yul\":16759:16793   */\n      0x596f752063616e206f7267616e697a65206576656e7420666f72206675747572\n        /* \"#utility.yul\":16755:16756   */\n      0x00\n        /* \"#utility.yul\":16747:16753   */\n      dup3\n        /* \"#utility.yul\":16743:16757   */\n      add\n        /* \"#utility.yul\":16736:16794   */\n      mstore\n        /* \"#utility.yul\":16828:16831   */\n      0x6500000000000000000000000000000000000000000000000000000000000000\n        /* \"#utility.yul\":16823:16825   */\n      0x20\n        /* \"#utility.yul\":16815:16821   */\n      dup3\n        /* \"#utility.yul\":16811:16826   */\n      add\n        /* \"#utility.yul\":16804:16832   */\n      mstore\n        /* \"#utility.yul\":16619:16839   */\n      pop\n      jump\t// out\n        /* \"#utility.yul\":16845:17015   */\n    tag_197:\n        /* \"#utility.yul\":16985:17007   */\n      0x4576656e7420646f6573206e6f74206578697374000000000000000000000000\n        /* \"#utility.yul\":16981:16982   */\n      0x00\n        /* \"#utility.yul\":16973:16979   */\n      dup3\n        /* \"#utility.yul\":16969:16983   */\n      add\n        /* \"#utility.yul\":16962:17008   */\n      mstore\n        /* \"#utility.yul\":16845:17015   */\n      pop\n      jump\t// out\n        /* \"#utility.yul\":17021:17143   */\n    tag_107:\n        /* \"#utility.yul\":17094:17118   */\n      tag_294\n        /* \"#utility.yul\":17112:17117   */\n      dup2\n        /* \"#utility.yul\":17094:17118   */\n      tag_152\n      jump\t// in\n    tag_294:\n        /* \"#utility.yul\":17087:17092   */\n      dup2\n        /* \"#utility.yul\":17084:17119   */\n      eq\n        /* \"#utility.yul\":17074:17137   */\n      tag_295\n      jumpi\n        /* \"#utility.yul\":17133:17134   */\n      0x00\n        /* \"#utility.yul\":17130:17131   */\n      dup1\n        /* \"#utility.yul\":17123:17135   */\n      revert\n        /* \"#utility.yul\":17074:17137   */\n    tag_295:\n        /* \"#utility.yul\":17021:17143   */\n      pop\n      jump\t// out\n        /* \"#utility.yul\":17149:17271   */\n    tag_117:\n        /* \"#utility.yul\":17222:17246   */\n      tag_297\n        /* \"#utility.yul\":17240:17245   */\n      dup2\n        /* \"#utility.yul\":17222:17246   */\n      tag_201\n      jump\t// in\n    tag_297:\n        /* \"#utility.yul\":17215:17220   */\n      dup2\n        /* \"#utility.yul\":17212:17247   */\n      eq\n        /* \"#utility.yul\":17202:17265   */\n      tag_298\n      jumpi\n        /* \"#utility.yul\":17261:17262   */\n      0x00\n        /* \"#utility.yul\":17258:17259   */\n      dup1\n        /* \"#utility.yul\":17251:17263   */\n      revert\n        /* \"#utility.yul\":17202:17265   */\n    tag_298:\n        /* \"#utility.yul\":17149:17271   */\n      pop\n      jump\t// out\n\n    auxdata: 0xa2646970667358221220093881a600943766cf3f9bdb5f2e416b6a9f6cdfdd2b3a250c88cff479f8cb5964736f6c63430008070033\n}\n",
				"bytecode": {
					"linkReferences": {},
					"object": "608060405234801561001057600080fd5b506110c0806100206000396000f3fe6080604052600436106100555760003560e01c80630b7914301461005a578063298ec2081461009c578063b3cea217146100b8578063dae7a13c146100e3578063f086a09b14610120578063f93694fb14610149575b600080fd5b34801561006657600080fd5b50610081600480360381019061007c91906107f3565b610172565b60405161009396959493929190610a82565b60405180910390f35b6100b660048036038101906100b191906108a3565b610256565b005b3480156100c457600080fd5b506100cd610418565b6040516100da9190610bca565b60405180910390f35b3480156100ef57600080fd5b5061010a600480360381019061010591906107b3565b61041e565b6040516101179190610bca565b60405180910390f35b34801561012c57600080fd5b50610147600480360381019061014291906108e3565b610443565b005b34801561015557600080fd5b50610170600480360381019061016b9190610820565b6104ed565b005b60006020528060005260406000206000915090508060000160009054906101000a900473ffffffffffffffffffffffffffffffffffffffff16908060010154908060020180546101c190610db9565b80601f01602080910402602001604051908101604052809291908181526020018280546101ed90610db9565b801561023a5780601f1061020f5761010080835404028352916020019161023a565b820191906000526020600020905b81548152906001019060200180831161021d57829003601f168201915b5050505050908060030154908060040154908060050154905086565b600080600083815260200190815260200160002090506000816001015414156102b4576040517f08c379a00000000000000000000000000000000000000000000000000000000081526004016102ab90610baa565b60405180910390fd5b428160010154116102fa576040517f08c379a00000000000000000000000000000000000000000000000000000000081526004016102f190610b4a565b60405180910390fd5b3483826003015461030b9190610cad565b1461034b576040517f08c379a000000000000000000000000000000000000000000000000000000000815260040161034290610aea565b60405180910390fd5b82816005015411610391576040517f08c379a000000000000000000000000000000000000000000000000000000000815260040161038890610b0a565b60405180910390fd5b828160050160008282546103a59190610d07565b9250508190555082600160003373ffffffffffffffffffffffffffffffffffffffff1673ffffffffffffffffffffffffffffffffffffffff1681526020019081526020016000206000848152602001908152602001600020600082825461040c9190610c57565b92505081905550505050565b60025481565b6001602052816000526040600020602052806000526040600020600091509150505481565b600080600084815260200190815260200160002090506000816001015414156104a1576040517f08c379a000000000000000000000000000000000000000000000000000000000815260040161049890610baa565b60405180910390fd5b428160010154116104e7576040517f08c379a00000000000000000000000000000000000000000000000000000000081526004016104de90610b6a565b60405180910390fd5b50505050565b42841161052f576040517f08c379a000000000000000000000000000000000000000000000000000000000815260040161052690610b8a565b60405180910390fd5b60008111610572576040517f08c379a000000000000000000000000000000000000000000000000000000000815260040161056990610b2a565b60405180910390fd5b6040518060c001604052803373ffffffffffffffffffffffffffffffffffffffff16815260200185815260200184815260200183815260200182815260200182815250600080600254815260200190815260200160002060008201518160000160006101000a81548173ffffffffffffffffffffffffffffffffffffffff021916908373ffffffffffffffffffffffffffffffffffffffff160217905550602082015181600101556040820151816002019080519060200190610636929190610676565b50606082015181600301556080820151816004015560a082015181600501559050506002600081548092919061066b90610e1c565b919050555050505050565b82805461068290610db9565b90600052602060002090601f0160209004810192826106a457600085556106eb565b82601f106106bd57805160ff19168380011785556106eb565b828001600101855582156106eb579182015b828111156106ea5782518255916020019190600101906106cf565b5b5090506106f891906106fc565b5090565b5b808211156107155760008160009055506001016106fd565b5090565b600061072c61072784610c0a565b610be5565b90508281526020810184848401111561074857610747610ef7565b5b610753848285610d77565b509392505050565b60008135905061076a8161105c565b92915050565b600082601f83011261078557610784610ef2565b5b8135610795848260208601610719565b91505092915050565b6000813590506107ad81611073565b92915050565b600080604083850312156107ca576107c9610f01565b5b60006107d88582860161075b565b92505060206107e98582860161079e565b9150509250929050565b60006020828403121561080957610808610f01565b5b60006108178482850161079e565b91505092915050565b6000806000806080858703121561083a57610839610f01565b5b60006108488782880161079e565b945050602085013567ffffffffffffffff81111561086957610868610efc565b5b61087587828801610770565b93505060406108868782880161079e565b92505060606108978782880161079e565b91505092959194509250565b600080604083850312156108ba576108b9610f01565b5b60006108c88582860161079e565b92505060206108d98582860161079e565b9150509250929050565b6000806000606084860312156108fc576108fb610f01565b5b600061090a8682870161079e565b935050602061091b8682870161079e565b925050604061092c8682870161075b565b9150509250925092565b61093f81610d3b565b82525050565b600061095082610c3b565b61095a8185610c46565b935061096a818560208601610d86565b61097381610f06565b840191505092915050565b600061098b601583610c46565b915061099682610f17565b602082019050919050565b60006109ae601c83610c46565b91506109b982610f40565b602082019050919050565b60006109d1602083610c46565b91506109dc82610f69565b602082019050919050565b60006109f4601683610c46565b91506109ff82610f92565b602082019050919050565b6000610a17601583610c46565b9150610a2282610fbb565b602082019050919050565b6000610a3a602183610c46565b9150610a4582610fe4565b604082019050919050565b6000610a5d601483610c46565b9150610a6882611033565b602082019050919050565b610a7c81610d6d565b82525050565b600060c082019050610a976000830189610936565b610aa46020830188610a73565b8181036040830152610ab68187610945565b9050610ac56060830186610a73565b610ad26080830185610a73565b610adf60a0830184610a73565b979650505050505050565b60006020820190508181036000830152610b038161097e565b9050919050565b60006020820190508181036000830152610b23816109a1565b9050919050565b60006020820190508181036000830152610b43816109c4565b9050919050565b60006020820190508181036000830152610b63816109e7565b9050919050565b60006020820190508181036000830152610b8381610a0a565b9050919050565b60006020820190508181036000830152610ba381610a2d565b9050919050565b60006020820190508181036000830152610bc381610a50565b9050919050565b6000602082019050610bdf6000830184610a73565b92915050565b6000610bef610c00565b9050610bfb8282610deb565b919050565b6000604051905090565b600067ffffffffffffffff821115610c2557610c24610ec3565b5b610c2e82610f06565b9050602081019050919050565b600081519050919050565b600082825260208201905092915050565b6000610c6282610d6d565b9150610c6d83610d6d565b9250827fffffffffffffffffffffffffffffffffffffffffffffffffffffffffffffffff03821115610ca257610ca1610e65565b5b828201905092915050565b6000610cb882610d6d565b9150610cc383610d6d565b9250817fffffffffffffffffffffffffffffffffffffffffffffffffffffffffffffffff0483118215151615610cfc57610cfb610e65565b5b828202905092915050565b6000610d1282610d6d565b9150610d1d83610d6d565b925082821015610d3057610d2f610e65565b5b828203905092915050565b6000610d4682610d4d565b9050919050565b600073ffffffffffffffffffffffffffffffffffffffff82169050919050565b6000819050919050565b82818337600083830152505050565b60005b83811015610da4578082015181840152602081019050610d89565b83811115610db3576000848401525b50505050565b60006002820490506001821680610dd157607f821691505b60208210811415610de557610de4610e94565b5b50919050565b610df482610f06565b810181811067ffffffffffffffff82111715610e1357610e12610ec3565b5b80604052505050565b6000610e2782610d6d565b91507fffffffffffffffffffffffffffffffffffffffffffffffffffffffffffffffff821415610e5a57610e59610e65565b5b600182019050919050565b7f4e487b7100000000000000000000000000000000000000000000000000000000600052601160045260246000fd5b7f4e487b7100000000000000000000000000000000000000000000000000000000600052602260045260246000fd5b7f4e487b7100000000000000000000000000000000000000000000000000000000600052604160045260246000fd5b600080fd5b600080fd5b600080fd5b600080fd5b6000601f19601f8301169050919050565b7f457468657273206973206e6f7420656e6f756768210000000000000000000000600082015250565b7f576520646f6e2774206861766520656e6f756768207469636b65747300000000600082015250565b7f4576656e74206d75737420686176652061746c656173742031207469636b6574600082015250565b7f4576656e7420626f6f6b696e6720697320636c6f736500000000000000000000600082015250565b7f4576656e7420616c7265616479206f6363757265640000000000000000000000600082015250565b7f596f752063616e206f7267616e697a65206576656e7420666f7220667574757260008201527f6500000000000000000000000000000000000000000000000000000000000000602082015250565b7f4576656e7420646f6573206e6f74206578697374000000000000000000000000600082015250565b61106581610d3b565b811461107057600080fd5b50565b61107c81610d6d565b811461108757600080fd5b5056fea2646970667358221220093881a600943766cf3f9bdb5f2e416b6a9f6cdfdd2b3a250c88cff479f8cb5964736f6c63430008070033",
					"opcodes": "PUSH1 0x80 PUSH1 0x40 MSTORE CALLVALUE DUP1 ISZERO PUSH2 0x10 JUMPI PUSH1 0x0 DUP1 REVERT JUMPDEST POP PUSH2 0x10C0 DUP1 PUSH2 0x20 PUSH1 0x0 CODECOPY PUSH1 0x0 RETURN INVALID PUSH1 0x80 PUSH1 0x40 MSTORE PUSH1 0x4 CALLDATASIZE LT PUSH2 0x55 JUMPI PUSH1 0x0 CALLDATALOAD PUSH1 0xE0 SHR DUP1 PUSH4 0xB791430 EQ PUSH2 0x5A JUMPI DUP1 PUSH4 0x298EC208 EQ PUSH2 0x9C JUMPI DUP1 PUSH4 0xB3CEA217 EQ PUSH2 0xB8 JUMPI DUP1 PUSH4 0xDAE7A13C EQ PUSH2 0xE3 JUMPI DUP1 PUSH4 0xF086A09B EQ PUSH2 0x120 JUMPI DUP1 PUSH4 0xF93694FB EQ PUSH2 0x149 JUMPI JUMPDEST PUSH1 0x0 DUP1 REVERT JUMPDEST CALLVALUE DUP1 ISZERO PUSH2 0x66 JUMPI PUSH1 0x0 DUP1 REVERT JUMPDEST POP PUSH2 0x81 PUSH1 0x4 DUP1 CALLDATASIZE SUB DUP2 ADD SWAP1 PUSH2 0x7C SWAP2 SWAP1 PUSH2 0x7F3 JUMP JUMPDEST PUSH2 0x172 JUMP JUMPDEST PUSH1 0x40 MLOAD PUSH2 0x93 SWAP7 SWAP6 SWAP5 SWAP4 SWAP3 SWAP2 SWAP1 PUSH2 0xA82 JUMP JUMPDEST PUSH1 0x40 MLOAD DUP1 SWAP2 SUB SWAP1 RETURN JUMPDEST PUSH2 0xB6 PUSH1 0x4 DUP1 CALLDATASIZE SUB DUP2 ADD SWAP1 PUSH2 0xB1 SWAP2 SWAP1 PUSH2 0x8A3 JUMP JUMPDEST PUSH2 0x256 JUMP JUMPDEST STOP JUMPDEST CALLVALUE DUP1 ISZERO PUSH2 0xC4 JUMPI PUSH1 0x0 DUP1 REVERT JUMPDEST POP PUSH2 0xCD PUSH2 0x418 JUMP JUMPDEST PUSH1 0x40 MLOAD PUSH2 0xDA SWAP2 SWAP1 PUSH2 0xBCA JUMP JUMPDEST PUSH1 0x40 MLOAD DUP1 SWAP2 SUB SWAP1 RETURN JUMPDEST CALLVALUE DUP1 ISZERO PUSH2 0xEF JUMPI PUSH1 0x0 DUP1 REVERT JUMPDEST POP PUSH2 0x10A PUSH1 0x4 DUP1 CALLDATASIZE SUB DUP2 ADD SWAP1 PUSH2 0x105 SWAP2 SWAP1 PUSH2 0x7B3 JUMP JUMPDEST PUSH2 0x41E JUMP JUMPDEST PUSH1 0x40 MLOAD PUSH2 0x117 SWAP2 SWAP1 PUSH2 0xBCA JUMP JUMPDEST PUSH1 0x40 MLOAD DUP1 SWAP2 SUB SWAP1 RETURN JUMPDEST CALLVALUE DUP1 ISZERO PUSH2 0x12C JUMPI PUSH1 0x0 DUP1 REVERT JUMPDEST POP PUSH2 0x147 PUSH1 0x4 DUP1 CALLDATASIZE SUB DUP2 ADD SWAP1 PUSH2 0x142 SWAP2 SWAP1 PUSH2 0x8E3 JUMP JUMPDEST PUSH2 0x443 JUMP JUMPDEST STOP JUMPDEST CALLVALUE DUP1 ISZERO PUSH2 0x155 JUMPI PUSH1 0x0 DUP1 REVERT JUMPDEST POP PUSH2 0x170 PUSH1 0x4 DUP1 CALLDATASIZE SUB DUP2 ADD SWAP1 PUSH2 0x16B SWAP2 SWAP1 PUSH2 0x820 JUMP JUMPDEST PUSH2 0x4ED JUMP JUMPDEST STOP JUMPDEST PUSH1 0x0 PUSH1 0x20 MSTORE DUP1 PUSH1 0x0 MSTORE PUSH1 0x40 PUSH1 0x0 KECCAK256 PUSH1 0x0 SWAP2 POP SWAP1 POP DUP1 PUSH1 0x0 ADD PUSH1 0x0 SWAP1 SLOAD SWAP1 PUSH2 0x100 EXP SWAP1 DIV PUSH20 0xFFFFFFFFFFFFFFFFFFFFFFFFFFFFFFFFFFFFFFFF AND SWAP1 DUP1 PUSH1 0x1 ADD SLOAD SWAP1 DUP1 PUSH1 0x2 ADD DUP1 SLOAD PUSH2 0x1C1 SWAP1 PUSH2 0xDB9 JUMP JUMPDEST DUP1 PUSH1 0x1F ADD PUSH1 0x20 DUP1 SWAP2 DIV MUL PUSH1 0x20 ADD PUSH1 0x40 MLOAD SWAP1 DUP2 ADD PUSH1 0x40 MSTORE DUP1 SWAP3 SWAP2 SWAP1 DUP2 DUP2 MSTORE PUSH1 0x20 ADD DUP3 DUP1 SLOAD PUSH2 0x1ED SWAP1 PUSH2 0xDB9 JUMP JUMPDEST DUP1 ISZERO PUSH2 0x23A JUMPI DUP1 PUSH1 0x1F LT PUSH2 0x20F JUMPI PUSH2 0x100 DUP1 DUP4 SLOAD DIV MUL DUP4 MSTORE SWAP2 PUSH1 0x20 ADD SWAP2 PUSH2 0x23A JUMP JUMPDEST DUP3 ADD SWAP2 SWAP1 PUSH1 0x0 MSTORE PUSH1 0x20 PUSH1 0x0 KECCAK256 SWAP1 JUMPDEST DUP2 SLOAD DUP2 MSTORE SWAP1 PUSH1 0x1 ADD SWAP1 PUSH1 0x20 ADD DUP1 DUP4 GT PUSH2 0x21D JUMPI DUP3 SWAP1 SUB PUSH1 0x1F AND DUP3 ADD SWAP2 JUMPDEST POP POP POP POP POP SWAP1 DUP1 PUSH1 0x3 ADD SLOAD SWAP1 DUP1 PUSH1 0x4 ADD SLOAD SWAP1 DUP1 PUSH1 0x5 ADD SLOAD SWAP1 POP DUP7 JUMP JUMPDEST PUSH1 0x0 DUP1 PUSH1 0x0 DUP4 DUP2 MSTORE PUSH1 0x20 ADD SWAP1 DUP2 MSTORE PUSH1 0x20 ADD PUSH1 0x0 KECCAK256 SWAP1 POP PUSH1 0x0 DUP2 PUSH1 0x1 ADD SLOAD EQ ISZERO PUSH2 0x2B4 JUMPI PUSH1 0x40 MLOAD PUSH32 0x8C379A000000000000000000000000000000000000000000000000000000000 DUP2 MSTORE PUSH1 0x4 ADD PUSH2 0x2AB SWAP1 PUSH2 0xBAA JUMP JUMPDEST PUSH1 0x40 MLOAD DUP1 SWAP2 SUB SWAP1 REVERT JUMPDEST TIMESTAMP DUP2 PUSH1 0x1 ADD SLOAD GT PUSH2 0x2FA JUMPI PUSH1 0x40 MLOAD PUSH32 0x8C379A000000000000000000000000000000000000000000000000000000000 DUP2 MSTORE PUSH1 0x4 ADD PUSH2 0x2F1 SWAP1 PUSH2 0xB4A JUMP JUMPDEST PUSH1 0x40 MLOAD DUP1 SWAP2 SUB SWAP1 REVERT JUMPDEST CALLVALUE DUP4 DUP3 PUSH1 0x3 ADD SLOAD PUSH2 0x30B SWAP2 SWAP1 PUSH2 0xCAD JUMP JUMPDEST EQ PUSH2 0x34B JUMPI PUSH1 0x40 MLOAD PUSH32 0x8C379A000000000000000000000000000000000000000000000000000000000 DUP2 MSTORE PUSH1 0x4 ADD PUSH2 0x342 SWAP1 PUSH2 0xAEA JUMP JUMPDEST PUSH1 0x40 MLOAD DUP1 SWAP2 SUB SWAP1 REVERT JUMPDEST DUP3 DUP2 PUSH1 0x5 ADD SLOAD GT PUSH2 0x391 JUMPI PUSH1 0x40 MLOAD PUSH32 0x8C379A000000000000000000000000000000000000000000000000000000000 DUP2 MSTORE PUSH1 0x4 ADD PUSH2 0x388 SWAP1 PUSH2 0xB0A JUMP JUMPDEST PUSH1 0x40 MLOAD DUP1 SWAP2 SUB SWAP1 REVERT JUMPDEST DUP3 DUP2 PUSH1 0x5 ADD PUSH1 0x0 DUP3 DUP3 SLOAD PUSH2 0x3A5 SWAP2 SWAP1 PUSH2 0xD07 JUMP JUMPDEST SWAP3 POP POP DUP2 SWAP1 SSTORE POP DUP3 PUSH1 0x1 PUSH1 0x0 CALLER PUSH20 0xFFFFFFFFFFFFFFFFFFFFFFFFFFFFFFFFFFFFFFFF AND PUSH20 0xFFFFFFFFFFFFFFFFFFFFFFFFFFFFFFFFFFFFFFFF AND DUP2 MSTORE PUSH1 0x20 ADD SWAP1 DUP2 MSTORE PUSH1 0x20 ADD PUSH1 0x0 KECCAK256 PUSH1 0x0 DUP5 DUP2 MSTORE PUSH1 0x20 ADD SWAP1 DUP2 MSTORE PUSH1 0x20 ADD PUSH1 0x0 KECCAK256 PUSH1 0x0 DUP3 DUP3 SLOAD PUSH2 0x40C SWAP2 SWAP1 PUSH2 0xC57 JUMP JUMPDEST SWAP3 POP POP DUP2 SWAP1 SSTORE POP POP POP POP JUMP JUMPDEST PUSH1 0x2 SLOAD DUP2 JUMP JUMPDEST PUSH1 0x1 PUSH1 0x20 MSTORE DUP2 PUSH1 0x0 MSTORE PUSH1 0x40 PUSH1 0x0 KECCAK256 PUSH1 0x20 MSTORE DUP1 PUSH1 0x0 MSTORE PUSH1 0x40 PUSH1 0x0 KECCAK256 PUSH1 0x0 SWAP2 POP SWAP2 POP POP SLOAD DUP2 JUMP JUMPDEST PUSH1 0x0 DUP1 PUSH1 0x0 DUP5 DUP2 MSTORE PUSH1 0x20 ADD SWAP1 DUP2 MSTORE PUSH1 0x20 ADD PUSH1 0x0 KECCAK256 SWAP1 POP PUSH1 0x0 DUP2 PUSH1 0x1 ADD SLOAD EQ ISZERO PUSH2 0x4A1 JUMPI PUSH1 0x40 MLOAD PUSH32 0x8C379A000000000000000000000000000000000000000000000000000000000 DUP2 MSTORE PUSH1 0x4 ADD PUSH2 0x498 SWAP1 PUSH2 0xBAA JUMP JUMPDEST PUSH1 0x40 MLOAD DUP1 SWAP2 SUB SWAP1 REVERT JUMPDEST TIMESTAMP DUP2 PUSH1 0x1 ADD SLOAD GT PUSH2 0x4E7 JUMPI PUSH1 0x40 MLOAD PUSH32 0x8C379A000000000000000000000000000000000000000000000000000000000 DUP2 MSTORE PUSH1 0x4 ADD PUSH2 0x4DE SWAP1 PUSH2 0xB6A JUMP JUMPDEST PUSH1 0x40 MLOAD DUP1 SWAP2 SUB SWAP1 REVERT JUMPDEST POP POP POP POP JUMP JUMPDEST TIMESTAMP DUP5 GT PUSH2 0x52F JUMPI PUSH1 0x40 MLOAD PUSH32 0x8C379A000000000000000000000000000000000000000000000000000000000 DUP2 MSTORE PUSH1 0x4 ADD PUSH2 0x526 SWAP1 PUSH2 0xB8A JUMP JUMPDEST PUSH1 0x40 MLOAD DUP1 SWAP2 SUB SWAP1 REVERT JUMPDEST PUSH1 0x0 DUP2 GT PUSH2 0x572 JUMPI PUSH1 0x40 MLOAD PUSH32 0x8C379A000000000000000000000000000000000000000000000000000000000 DUP2 MSTORE PUSH1 0x4 ADD PUSH2 0x569 SWAP1 PUSH2 0xB2A JUMP JUMPDEST PUSH1 0x40 MLOAD DUP1 SWAP2 SUB SWAP1 REVERT JUMPDEST PUSH1 0x40 MLOAD DUP1 PUSH1 0xC0 ADD PUSH1 0x40 MSTORE DUP1 CALLER PUSH20 0xFFFFFFFFFFFFFFFFFFFFFFFFFFFFFFFFFFFFFFFF AND DUP2 MSTORE PUSH1 0x20 ADD DUP6 DUP2 MSTORE PUSH1 0x20 ADD DUP5 DUP2 MSTORE PUSH1 0x20 ADD DUP4 DUP2 MSTORE PUSH1 0x20 ADD DUP3 DUP2 MSTORE PUSH1 0x20 ADD DUP3 DUP2 MSTORE POP PUSH1 0x0 DUP1 PUSH1 0x2 SLOAD DUP2 MSTORE PUSH1 0x20 ADD SWAP1 DUP2 MSTORE PUSH1 0x20 ADD PUSH1 0x0 KECCAK256 PUSH1 0x0 DUP3 ADD MLOAD DUP2 PUSH1 0x0 ADD PUSH1 0x0 PUSH2 0x100 EXP DUP2 SLOAD DUP2 PUSH20 0xFFFFFFFFFFFFFFFFFFFFFFFFFFFFFFFFFFFFFFFF MUL NOT AND SWAP1 DUP4 PUSH20 0xFFFFFFFFFFFFFFFFFFFFFFFFFFFFFFFFFFFFFFFF AND MUL OR SWAP1 SSTORE POP PUSH1 0x20 DUP3 ADD MLOAD DUP2 PUSH1 0x1 ADD SSTORE PUSH1 0x40 DUP3 ADD MLOAD DUP2 PUSH1 0x2 ADD SWAP1 DUP1 MLOAD SWAP1 PUSH1 0x20 ADD SWAP1 PUSH2 0x636 SWAP3 SWAP2 SWAP1 PUSH2 0x676 JUMP JUMPDEST POP PUSH1 0x60 DUP3 ADD MLOAD DUP2 PUSH1 0x3 ADD SSTORE PUSH1 0x80 DUP3 ADD MLOAD DUP2 PUSH1 0x4 ADD SSTORE PUSH1 0xA0 DUP3 ADD MLOAD DUP2 PUSH1 0x5 ADD SSTORE SWAP1 POP POP PUSH1 0x2 PUSH1 0x0 DUP2 SLOAD DUP1 SWAP3 SWAP2 SWAP1 PUSH2 0x66B SWAP1 PUSH2 0xE1C JUMP JUMPDEST SWAP2 SWAP1 POP SSTORE POP POP POP POP POP JUMP JUMPDEST DUP3 DUP1 SLOAD PUSH2 0x682 SWAP1 PUSH2 0xDB9 JUMP JUMPDEST SWAP1 PUSH1 0x0 MSTORE PUSH1 0x20 PUSH1 0x0 KECCAK256 SWAP1 PUSH1 0x1F ADD PUSH1 0x20 SWAP1 DIV DUP2 ADD SWAP3 DUP3 PUSH2 0x6A4 JUMPI PUSH1 0x0 DUP6 SSTORE PUSH2 0x6EB JUMP JUMPDEST DUP3 PUSH1 0x1F LT PUSH2 0x6BD JUMPI DUP1 MLOAD PUSH1 0xFF NOT AND DUP4 DUP1 ADD OR DUP6 SSTORE PUSH2 0x6EB JUMP JUMPDEST DUP3 DUP1 ADD PUSH1 0x1 ADD DUP6 SSTORE DUP3 ISZERO PUSH2 0x6EB JUMPI SWAP2 DUP3 ADD JUMPDEST DUP3 DUP2 GT ISZERO PUSH2 0x6EA JUMPI DUP3 MLOAD DUP3 SSTORE SWAP2 PUSH1 0x20 ADD SWAP2 SWAP1 PUSH1 0x1 ADD SWAP1 PUSH2 0x6CF JUMP JUMPDEST JUMPDEST POP SWAP1 POP PUSH2 0x6F8 SWAP2 SWAP1 PUSH2 0x6FC JUMP JUMPDEST POP SWAP1 JUMP JUMPDEST JUMPDEST DUP1 DUP3 GT ISZERO PUSH2 0x715 JUMPI PUSH1 0x0 DUP2 PUSH1 0x0 SWAP1 SSTORE POP PUSH1 0x1 ADD PUSH2 0x6FD JUMP JUMPDEST POP SWAP1 JUMP JUMPDEST PUSH1 0x0 PUSH2 0x72C PUSH2 0x727 DUP5 PUSH2 0xC0A JUMP JUMPDEST PUSH2 0xBE5 JUMP JUMPDEST SWAP1 POP DUP3 DUP2 MSTORE PUSH1 0x20 DUP2 ADD DUP5 DUP5 DUP5 ADD GT ISZERO PUSH2 0x748 JUMPI PUSH2 0x747 PUSH2 0xEF7 JUMP JUMPDEST JUMPDEST PUSH2 0x753 DUP5 DUP3 DUP6 PUSH2 0xD77 JUMP JUMPDEST POP SWAP4 SWAP3 POP POP POP JUMP JUMPDEST PUSH1 0x0 DUP2 CALLDATALOAD SWAP1 POP PUSH2 0x76A DUP2 PUSH2 0x105C JUMP JUMPDEST SWAP3 SWAP2 POP POP JUMP JUMPDEST PUSH1 0x0 DUP3 PUSH1 0x1F DUP4 ADD SLT PUSH2 0x785 JUMPI PUSH2 0x784 PUSH2 0xEF2 JUMP JUMPDEST JUMPDEST DUP2 CALLDATALOAD PUSH2 0x795 DUP5 DUP3 PUSH1 0x20 DUP7 ADD PUSH2 0x719 JUMP JUMPDEST SWAP2 POP POP SWAP3 SWAP2 POP POP JUMP JUMPDEST PUSH1 0x0 DUP2 CALLDATALOAD SWAP1 POP PUSH2 0x7AD DUP2 PUSH2 0x1073 JUMP JUMPDEST SWAP3 SWAP2 POP POP JUMP JUMPDEST PUSH1 0x0 DUP1 PUSH1 0x40 DUP4 DUP6 SUB SLT ISZERO PUSH2 0x7CA JUMPI PUSH2 0x7C9 PUSH2 0xF01 JUMP JUMPDEST JUMPDEST PUSH1 0x0 PUSH2 0x7D8 DUP6 DUP3 DUP7 ADD PUSH2 0x75B JUMP JUMPDEST SWAP3 POP POP PUSH1 0x20 PUSH2 0x7E9 DUP6 DUP3 DUP7 ADD PUSH2 0x79E JUMP JUMPDEST SWAP2 POP POP SWAP3 POP SWAP3 SWAP1 POP JUMP JUMPDEST PUSH1 0x0 PUSH1 0x20 DUP3 DUP5 SUB SLT ISZERO PUSH2 0x809 JUMPI PUSH2 0x808 PUSH2 0xF01 JUMP JUMPDEST JUMPDEST PUSH1 0x0 PUSH2 0x817 DUP5 DUP3 DUP6 ADD PUSH2 0x79E JUMP JUMPDEST SWAP2 POP POP SWAP3 SWAP2 POP POP JUMP JUMPDEST PUSH1 0x0 DUP1 PUSH1 0x0 DUP1 PUSH1 0x80 DUP6 DUP8 SUB SLT ISZERO PUSH2 0x83A JUMPI PUSH2 0x839 PUSH2 0xF01 JUMP JUMPDEST JUMPDEST PUSH1 0x0 PUSH2 0x848 DUP8 DUP3 DUP9 ADD PUSH2 0x79E JUMP JUMPDEST SWAP5 POP POP PUSH1 0x20 DUP6 ADD CALLDATALOAD PUSH8 0xFFFFFFFFFFFFFFFF DUP2 GT ISZERO PUSH2 0x869 JUMPI PUSH2 0x868 PUSH2 0xEFC JUMP JUMPDEST JUMPDEST PUSH2 0x875 DUP8 DUP3 DUP9 ADD PUSH2 0x770 JUMP JUMPDEST SWAP4 POP POP PUSH1 0x40 PUSH2 0x886 DUP8 DUP3 DUP9 ADD PUSH2 0x79E JUMP JUMPDEST SWAP3 POP POP PUSH1 0x60 PUSH2 0x897 DUP8 DUP3 DUP9 ADD PUSH2 0x79E JUMP JUMPDEST SWAP2 POP POP SWAP3 SWAP6 SWAP2 SWAP5 POP SWAP3 POP JUMP JUMPDEST PUSH1 0x0 DUP1 PUSH1 0x40 DUP4 DUP6 SUB SLT ISZERO PUSH2 0x8BA JUMPI PUSH2 0x8B9 PUSH2 0xF01 JUMP JUMPDEST JUMPDEST PUSH1 0x0 PUSH2 0x8C8 DUP6 DUP3 DUP7 ADD PUSH2 0x79E JUMP JUMPDEST SWAP3 POP POP PUSH1 0x20 PUSH2 0x8D9 DUP6 DUP3 DUP7 ADD PUSH2 0x79E JUMP JUMPDEST SWAP2 POP POP SWAP3 POP SWAP3 SWAP1 POP JUMP JUMPDEST PUSH1 0x0 DUP1 PUSH1 0x0 PUSH1 0x60 DUP5 DUP7 SUB SLT ISZERO PUSH2 0x8FC JUMPI PUSH2 0x8FB PUSH2 0xF01 JUMP JUMPDEST JUMPDEST PUSH1 0x0 PUSH2 0x90A DUP7 DUP3 DUP8 ADD PUSH2 0x79E JUMP JUMPDEST SWAP4 POP POP PUSH1 0x20 PUSH2 0x91B DUP7 DUP3 DUP8 ADD PUSH2 0x79E JUMP JUMPDEST SWAP3 POP POP PUSH1 0x40 PUSH2 0x92C DUP7 DUP3 DUP8 ADD PUSH2 0x75B JUMP JUMPDEST SWAP2 POP POP SWAP3 POP SWAP3 POP SWAP3 JUMP JUMPDEST PUSH2 0x93F DUP2 PUSH2 0xD3B JUMP JUMPDEST DUP3 MSTORE POP POP JUMP JUMPDEST PUSH1 0x0 PUSH2 0x950 DUP3 PUSH2 0xC3B JUMP JUMPDEST PUSH2 0x95A DUP2 DUP6 PUSH2 0xC46 JUMP JUMPDEST SWAP4 POP PUSH2 0x96A DUP2 DUP6 PUSH1 0x20 DUP7 ADD PUSH2 0xD86 JUMP JUMPDEST PUSH2 0x973 DUP2 PUSH2 0xF06 JUMP JUMPDEST DUP5 ADD SWAP2 POP POP SWAP3 SWAP2 POP POP JUMP JUMPDEST PUSH1 0x0 PUSH2 0x98B PUSH1 0x15 DUP4 PUSH2 0xC46 JUMP JUMPDEST SWAP2 POP PUSH2 0x996 DUP3 PUSH2 0xF17 JUMP JUMPDEST PUSH1 0x20 DUP3 ADD SWAP1 POP SWAP2 SWAP1 POP JUMP JUMPDEST PUSH1 0x0 PUSH2 0x9AE PUSH1 0x1C DUP4 PUSH2 0xC46 JUMP JUMPDEST SWAP2 POP PUSH2 0x9B9 DUP3 PUSH2 0xF40 JUMP JUMPDEST PUSH1 0x20 DUP3 ADD SWAP1 POP SWAP2 SWAP1 POP JUMP JUMPDEST PUSH1 0x0 PUSH2 0x9D1 PUSH1 0x20 DUP4 PUSH2 0xC46 JUMP JUMPDEST SWAP2 POP PUSH2 0x9DC DUP3 PUSH2 0xF69 JUMP JUMPDEST PUSH1 0x20 DUP3 ADD SWAP1 POP SWAP2 SWAP1 POP JUMP JUMPDEST PUSH1 0x0 PUSH2 0x9F4 PUSH1 0x16 DUP4 PUSH2 0xC46 JUMP JUMPDEST SWAP2 POP PUSH2 0x9FF DUP3 PUSH2 0xF92 JUMP JUMPDEST PUSH1 0x20 DUP3 ADD SWAP1 POP SWAP2 SWAP1 POP JUMP JUMPDEST PUSH1 0x0 PUSH2 0xA17 PUSH1 0x15 DUP4 PUSH2 0xC46 JUMP JUMPDEST SWAP2 POP PUSH2 0xA22 DUP3 PUSH2 0xFBB JUMP JUMPDEST PUSH1 0x20 DUP3 ADD SWAP1 POP SWAP2 SWAP1 POP JUMP JUMPDEST PUSH1 0x0 PUSH2 0xA3A PUSH1 0x21 DUP4 PUSH2 0xC46 JUMP JUMPDEST SWAP2 POP PUSH2 0xA45 DUP3 PUSH2 0xFE4 JUMP JUMPDEST PUSH1 0x40 DUP3 ADD SWAP1 POP SWAP2 SWAP1 POP JUMP JUMPDEST PUSH1 0x0 PUSH2 0xA5D PUSH1 0x14 DUP4 PUSH2 0xC46 JUMP JUMPDEST SWAP2 POP PUSH2 0xA68 DUP3 PUSH2 0x1033 JUMP JUMPDEST PUSH1 0x20 DUP3 ADD SWAP1 POP SWAP2 SWAP1 POP JUMP JUMPDEST PUSH2 0xA7C DUP2 PUSH2 0xD6D JUMP JUMPDEST DUP3 MSTORE POP POP JUMP JUMPDEST PUSH1 0x0 PUSH1 0xC0 DUP3 ADD SWAP1 POP PUSH2 0xA97 PUSH1 0x0 DUP4 ADD DUP10 PUSH2 0x936 JUMP JUMPDEST PUSH2 0xAA4 PUSH1 0x20 DUP4 ADD DUP9 PUSH2 0xA73 JUMP JUMPDEST DUP2 DUP2 SUB PUSH1 0x40 DUP4 ADD MSTORE PUSH2 0xAB6 DUP2 DUP8 PUSH2 0x945 JUMP JUMPDEST SWAP1 POP PUSH2 0xAC5 PUSH1 0x60 DUP4 ADD DUP7 PUSH2 0xA73 JUMP JUMPDEST PUSH2 0xAD2 PUSH1 0x80 DUP4 ADD DUP6 PUSH2 0xA73 JUMP JUMPDEST PUSH2 0xADF PUSH1 0xA0 DUP4 ADD DUP5 PUSH2 0xA73 JUMP JUMPDEST SWAP8 SWAP7 POP POP POP POP POP POP POP JUMP JUMPDEST PUSH1 0x0 PUSH1 0x20 DUP3 ADD SWAP1 POP DUP2 DUP2 SUB PUSH1 0x0 DUP4 ADD MSTORE PUSH2 0xB03 DUP2 PUSH2 0x97E JUMP JUMPDEST SWAP1 POP SWAP2 SWAP1 POP JUMP JUMPDEST PUSH1 0x0 PUSH1 0x20 DUP3 ADD SWAP1 POP DUP2 DUP2 SUB PUSH1 0x0 DUP4 ADD MSTORE PUSH2 0xB23 DUP2 PUSH2 0x9A1 JUMP JUMPDEST SWAP1 POP SWAP2 SWAP1 POP JUMP JUMPDEST PUSH1 0x0 PUSH1 0x20 DUP3 ADD SWAP1 POP DUP2 DUP2 SUB PUSH1 0x0 DUP4 ADD MSTORE PUSH2 0xB43 DUP2 PUSH2 0x9C4 JUMP JUMPDEST SWAP1 POP SWAP2 SWAP1 POP JUMP JUMPDEST PUSH1 0x0 PUSH1 0x20 DUP3 ADD SWAP1 POP DUP2 DUP2 SUB PUSH1 0x0 DUP4 ADD MSTORE PUSH2 0xB63 DUP2 PUSH2 0x9E7 JUMP JUMPDEST SWAP1 POP SWAP2 SWAP1 POP JUMP JUMPDEST PUSH1 0x0 PUSH1 0x20 DUP3 ADD SWAP1 POP DUP2 DUP2 SUB PUSH1 0x0 DUP4 ADD MSTORE PUSH2 0xB83 DUP2 PUSH2 0xA0A JUMP JUMPDEST SWAP1 POP SWAP2 SWAP1 POP JUMP JUMPDEST PUSH1 0x0 PUSH1 0x20 DUP3 ADD SWAP1 POP DUP2 DUP2 SUB PUSH1 0x0 DUP4 ADD MSTORE PUSH2 0xBA3 DUP2 PUSH2 0xA2D JUMP JUMPDEST SWAP1 POP SWAP2 SWAP1 POP JUMP JUMPDEST PUSH1 0x0 PUSH1 0x20 DUP3 ADD SWAP1 POP DUP2 DUP2 SUB PUSH1 0x0 DUP4 ADD MSTORE PUSH2 0xBC3 DUP2 PUSH2 0xA50 JUMP JUMPDEST SWAP1 POP SWAP2 SWAP1 POP JUMP JUMPDEST PUSH1 0x0 PUSH1 0x20 DUP3 ADD SWAP1 POP PUSH2 0xBDF PUSH1 0x0 DUP4 ADD DUP5 PUSH2 0xA73 JUMP JUMPDEST SWAP3 SWAP2 POP POP JUMP JUMPDEST PUSH1 0x0 PUSH2 0xBEF PUSH2 0xC00 JUMP JUMPDEST SWAP1 POP PUSH2 0xBFB DUP3 DUP3 PUSH2 0xDEB JUMP JUMPDEST SWAP2 SWAP1 POP JUMP JUMPDEST PUSH1 0x0 PUSH1 0x40 MLOAD SWAP1 POP SWAP1 JUMP JUMPDEST PUSH1 0x0 PUSH8 0xFFFFFFFFFFFFFFFF DUP3 GT ISZERO PUSH2 0xC25 JUMPI PUSH2 0xC24 PUSH2 0xEC3 JUMP JUMPDEST JUMPDEST PUSH2 0xC2E DUP3 PUSH2 0xF06 JUMP JUMPDEST SWAP1 POP PUSH1 0x20 DUP2 ADD SWAP1 POP SWAP2 SWAP1 POP JUMP JUMPDEST PUSH1 0x0 DUP2 MLOAD SWAP1 POP SWAP2 SWAP1 POP JUMP JUMPDEST PUSH1 0x0 DUP3 DUP3 MSTORE PUSH1 0x20 DUP3 ADD SWAP1 POP SWAP3 SWAP2 POP POP JUMP JUMPDEST PUSH1 0x0 PUSH2 0xC62 DUP3 PUSH2 0xD6D JUMP JUMPDEST SWAP2 POP PUSH2 0xC6D DUP4 PUSH2 0xD6D JUMP JUMPDEST SWAP3 POP DUP3 PUSH32 0xFFFFFFFFFFFFFFFFFFFFFFFFFFFFFFFFFFFFFFFFFFFFFFFFFFFFFFFFFFFFFFFF SUB DUP3 GT ISZERO PUSH2 0xCA2 JUMPI PUSH2 0xCA1 PUSH2 0xE65 JUMP JUMPDEST JUMPDEST DUP3 DUP3 ADD SWAP1 POP SWAP3 SWAP2 POP POP JUMP JUMPDEST PUSH1 0x0 PUSH2 0xCB8 DUP3 PUSH2 0xD6D JUMP JUMPDEST SWAP2 POP PUSH2 0xCC3 DUP4 PUSH2 0xD6D JUMP JUMPDEST SWAP3 POP DUP2 PUSH32 0xFFFFFFFFFFFFFFFFFFFFFFFFFFFFFFFFFFFFFFFFFFFFFFFFFFFFFFFFFFFFFFFF DIV DUP4 GT DUP3 ISZERO ISZERO AND ISZERO PUSH2 0xCFC JUMPI PUSH2 0xCFB PUSH2 0xE65 JUMP JUMPDEST JUMPDEST DUP3 DUP3 MUL SWAP1 POP SWAP3 SWAP2 POP POP JUMP JUMPDEST PUSH1 0x0 PUSH2 0xD12 DUP3 PUSH2 0xD6D JUMP JUMPDEST SWAP2 POP PUSH2 0xD1D DUP4 PUSH2 0xD6D JUMP JUMPDEST SWAP3 POP DUP3 DUP3 LT ISZERO PUSH2 0xD30 JUMPI PUSH2 0xD2F PUSH2 0xE65 JUMP JUMPDEST JUMPDEST DUP3 DUP3 SUB SWAP1 POP SWAP3 SWAP2 POP POP JUMP JUMPDEST PUSH1 0x0 PUSH2 0xD46 DUP3 PUSH2 0xD4D JUMP JUMPDEST SWAP1 POP SWAP2 SWAP1 POP JUMP JUMPDEST PUSH1 0x0 PUSH20 0xFFFFFFFFFFFFFFFFFFFFFFFFFFFFFFFFFFFFFFFF DUP3 AND SWAP1 POP SWAP2 SWAP1 POP JUMP JUMPDEST PUSH1 0x0 DUP2 SWAP1 POP SWAP2 SWAP1 POP JUMP JUMPDEST DUP3 DUP2 DUP4 CALLDATACOPY PUSH1 0x0 DUP4 DUP4 ADD MSTORE POP POP POP JUMP JUMPDEST PUSH1 0x0 JUMPDEST DUP4 DUP2 LT ISZERO PUSH2 0xDA4 JUMPI DUP1 DUP3 ADD MLOAD DUP2 DUP5 ADD MSTORE PUSH1 0x20 DUP2 ADD SWAP1 POP PUSH2 0xD89 JUMP JUMPDEST DUP4 DUP2 GT ISZERO PUSH2 0xDB3 JUMPI PUSH1 0x0 DUP5 DUP5 ADD MSTORE JUMPDEST POP POP POP POP JUMP JUMPDEST PUSH1 0x0 PUSH1 0x2 DUP3 DIV SWAP1 POP PUSH1 0x1 DUP3 AND DUP1 PUSH2 0xDD1 JUMPI PUSH1 0x7F DUP3 AND SWAP2 POP JUMPDEST PUSH1 0x20 DUP3 LT DUP2 EQ ISZERO PUSH2 0xDE5 JUMPI PUSH2 0xDE4 PUSH2 0xE94 JUMP JUMPDEST JUMPDEST POP SWAP2 SWAP1 POP JUMP JUMPDEST PUSH2 0xDF4 DUP3 PUSH2 0xF06 JUMP JUMPDEST DUP2 ADD DUP2 DUP2 LT PUSH8 0xFFFFFFFFFFFFFFFF DUP3 GT OR ISZERO PUSH2 0xE13 JUMPI PUSH2 0xE12 PUSH2 0xEC3 JUMP JUMPDEST JUMPDEST DUP1 PUSH1 0x40 MSTORE POP POP POP JUMP JUMPDEST PUSH1 0x0 PUSH2 0xE27 DUP3 PUSH2 0xD6D JUMP JUMPDEST SWAP2 POP PUSH32 0xFFFFFFFFFFFFFFFFFFFFFFFFFFFFFFFFFFFFFFFFFFFFFFFFFFFFFFFFFFFFFFFF DUP3 EQ ISZERO PUSH2 0xE5A JUMPI PUSH2 0xE59 PUSH2 0xE65 JUMP JUMPDEST JUMPDEST PUSH1 0x1 DUP3 ADD SWAP1 POP SWAP2 SWAP1 POP JUMP JUMPDEST PUSH32 0x4E487B7100000000000000000000000000000000000000000000000000000000 PUSH1 0x0 MSTORE PUSH1 0x11 PUSH1 0x4 MSTORE PUSH1 0x24 PUSH1 0x0 REVERT JUMPDEST PUSH32 0x4E487B7100000000000000000000000000000000000000000000000000000000 PUSH1 0x0 MSTORE PUSH1 0x22 PUSH1 0x4 MSTORE PUSH1 0x24 PUSH1 0x0 REVERT JUMPDEST PUSH32 0x4E487B7100000000000000000000000000000000000000000000000000000000 PUSH1 0x0 MSTORE PUSH1 0x41 PUSH1 0x4 MSTORE PUSH1 0x24 PUSH1 0x0 REVERT JUMPDEST PUSH1 0x0 DUP1 REVERT JUMPDEST PUSH1 0x0 DUP1 REVERT JUMPDEST PUSH1 0x0 DUP1 REVERT JUMPDEST PUSH1 0x0 DUP1 REVERT JUMPDEST PUSH1 0x0 PUSH1 0x1F NOT PUSH1 0x1F DUP4 ADD AND SWAP1 POP SWAP2 SWAP1 POP JUMP JUMPDEST PUSH32 0x457468657273206973206E6F7420656E6F756768210000000000000000000000 PUSH1 0x0 DUP3 ADD MSTORE POP JUMP JUMPDEST PUSH32 0x576520646F6E2774206861766520656E6F756768207469636B65747300000000 PUSH1 0x0 DUP3 ADD MSTORE POP JUMP JUMPDEST PUSH32 0x4576656E74206D75737420686176652061746C656173742031207469636B6574 PUSH1 0x0 DUP3 ADD MSTORE POP JUMP JUMPDEST PUSH32 0x4576656E7420626F6F6B696E6720697320636C6F736500000000000000000000 PUSH1 0x0 DUP3 ADD MSTORE POP JUMP JUMPDEST PUSH32 0x4576656E7420616C7265616479206F6363757265640000000000000000000000 PUSH1 0x0 DUP3 ADD MSTORE POP JUMP JUMPDEST PUSH32 0x596F752063616E206F7267616E697A65206576656E7420666F72206675747572 PUSH1 0x0 DUP3 ADD MSTORE PUSH32 0x6500000000000000000000000000000000000000000000000000000000000000 PUSH1 0x20 DUP3 ADD MSTORE POP JUMP JUMPDEST PUSH32 0x4576656E7420646F6573206E6F74206578697374000000000000000000000000 PUSH1 0x0 DUP3 ADD MSTORE POP JUMP JUMPDEST PUSH2 0x1065 DUP2 PUSH2 0xD3B JUMP JUMPDEST DUP2 EQ PUSH2 0x1070 JUMPI PUSH1 0x0 DUP1 REVERT JUMPDEST POP JUMP JUMPDEST PUSH2 0x107C DUP2 PUSH2 0xD6D JUMP JUMPDEST DUP2 EQ PUSH2 0x1087 JUMPI PUSH1 0x0 DUP1 REVERT JUMPDEST POP JUMP INVALID LOG2 PUSH5 0x6970667358 0x22 SLT KECCAK256 MULMOD CODESIZE DUP2 0xA6 STOP SWAP5 CALLDATACOPY PUSH7 0xCF3F9BDB5F2E41 PUSH12 0x6A9F6CDFDD2B3A250C88CFF4 PUSH26 0xF8CB5964736F6C63430008070033000000000000000000000000 "
				},
				"gasEstimates": {
					"creation": {
						"codeDepositCost": "857600",
						"executionCost": "890",
						"totalCost": "858490"
					},
					"external": {
						"ID()": "2451",
						"buyTicket(uint256,uint256)": "infinite",
						"createEvent(uint256,string,uint256,uint256)": "infinite",
						"events(uint256)": "infinite",
						"tickets(address,uint256)": "infinite",
						"transferTicket(uint256,uint256,address)": "infinite"
					}
				},
				"methodIdentifiers": {
					"ID()": "b3cea217",
					"buyTicket(uint256,uint256)": "298ec208",
					"createEvent(uint256,string,uint256,uint256)": "f93694fb",
					"events(uint256)": "0b791430",
					"tickets(address,uint256)": "dae7a13c",
					"transferTicket(uint256,uint256,address)": "f086a09b"
				}
			},
			"storageLayout": {
				"storage": [
					{
						"astId": 19,
						"contract": "contract/EventOrganizingContract.sol:EventOrganize",
						"label": "events",
						"offset": 0,
						"slot": "0",
						"type": "t_mapping(t_uint256,t_struct(Event)14_storage)"
					},
					{
						"astId": 25,
						"contract": "contract/EventOrganizingContract.sol:EventOrganize",
						"label": "tickets",
						"offset": 0,
						"slot": "1",
						"type": "t_mapping(t_address,t_mapping(t_uint256,t_uint256))"
					},
					{
						"astId": 27,
						"contract": "contract/EventOrganizingContract.sol:EventOrganize",
						"label": "ID",
						"offset": 0,
						"slot": "2",
						"type": "t_uint256"
					}
				],
				"types": {
					"t_address": {
						"encoding": "inplace",
						"label": "address",
						"numberOfBytes": "20"
					},
					"t_mapping(t_address,t_mapping(t_uint256,t_uint256))": {
						"encoding": "mapping",
						"key": "t_address",
						"label": "mapping(address => mapping(uint256 => uint256))",
						"numberOfBytes": "32",
						"value": "t_mapping(t_uint256,t_uint256)"
					},
					"t_mapping(t_uint256,t_struct(Event)14_storage)": {
						"encoding": "mapping",
						"key": "t_uint256",
						"label": "mapping(uint256 => struct EventOrganize.Event)",
						"numberOfBytes": "32",
						"value": "t_struct(Event)14_storage"
					},
					"t_mapping(t_uint256,t_uint256)": {
						"encoding": "mapping",
						"key": "t_uint256",
						"label": "mapping(uint256 => uint256)",
						"numberOfBytes": "32",
						"value": "t_uint256"
					},
					"t_string_storage": {
						"encoding": "bytes",
						"label": "string",
						"numberOfBytes": "32"
					},
					"t_struct(Event)14_storage": {
						"encoding": "inplace",
						"label": "struct EventOrganize.Event",
						"members": [
							{
								"astId": 3,
								"contract": "contract/EventOrganizingContract.sol:EventOrganize",
								"label": "organizer",
								"offset": 0,
								"slot": "0",
								"type": "t_address"
							},
							{
								"astId": 5,
								"contract": "contract/EventOrganizingContract.sol:EventOrganize",
								"label": "date",
								"offset": 0,
								"slot": "1",
								"type": "t_uint256"
							},
							{
								"astId": 7,
								"contract": "contract/EventOrganizingContract.sol:EventOrganize",
								"label": "name",
								"offset": 0,
								"slot": "2",
								"type": "t_string_storage"
							},
							{
								"astId": 9,
								"contract": "contract/EventOrganizingContract.sol:EventOrganize",
								"label": "price",
								"offset": 0,
								"slot": "3",
								"type": "t_uint256"
							},
							{
								"astId": 11,
								"contract": "contract/EventOrganizingContract.sol:EventOrganize",
								"label": "ticketCount",
								"offset": 0,
								"slot": "4",
								"type": "t_uint256"
							},
							{
								"astId": 13,
								"contract": "contract/EventOrganizingContract.sol:EventOrganize",
								"label": "ticketRemain",
								"offset": 0,
								"slot": "5",
								"type": "t_uint256"
							}
						],
						"numberOfBytes": "192"
					},
					"t_uint256": {
						"encoding": "inplace",
						"label": "uint256",
						"numberOfBytes": "32"
					}
				}
			},
			"userdoc": {
				"kind": "user",
				"methods": {},
				"version": 1
			}
		}
	}
}